{
	"contracts/shiba.sol": {
		"ERC20": {
			"abi": [
				{
					"anonymous": false,
					"inputs": [
						{
							"indexed": true,
							"internalType": "address",
							"name": "owner",
							"type": "address"
						},
						{
							"indexed": true,
							"internalType": "address",
							"name": "spender",
							"type": "address"
						},
						{
							"indexed": false,
							"internalType": "uint256",
							"name": "value",
							"type": "uint256"
						}
					],
					"name": "Approval",
					"type": "event"
				},
				{
					"anonymous": false,
					"inputs": [
						{
							"indexed": true,
							"internalType": "address",
							"name": "from",
							"type": "address"
						},
						{
							"indexed": true,
							"internalType": "address",
							"name": "to",
							"type": "address"
						},
						{
							"indexed": false,
							"internalType": "uint256",
							"name": "value",
							"type": "uint256"
						}
					],
					"name": "Transfer",
					"type": "event"
				},
				{
					"inputs": [
						{
							"internalType": "address",
							"name": "owner",
							"type": "address"
						},
						{
							"internalType": "address",
							"name": "spender",
							"type": "address"
						}
					],
					"name": "allowance",
					"outputs": [
						{
							"internalType": "uint256",
							"name": "",
							"type": "uint256"
						}
					],
					"stateMutability": "view",
					"type": "function"
				},
				{
					"inputs": [
						{
							"internalType": "address",
							"name": "spender",
							"type": "address"
						},
						{
							"internalType": "uint256",
							"name": "value",
							"type": "uint256"
						}
					],
					"name": "approve",
					"outputs": [
						{
							"internalType": "bool",
							"name": "",
							"type": "bool"
						}
					],
					"stateMutability": "nonpayable",
					"type": "function"
				},
				{
					"inputs": [
						{
							"internalType": "address",
							"name": "account",
							"type": "address"
						}
					],
					"name": "balanceOf",
					"outputs": [
						{
							"internalType": "uint256",
							"name": "",
							"type": "uint256"
						}
					],
					"stateMutability": "view",
					"type": "function"
				},
				{
					"inputs": [
						{
							"internalType": "address",
							"name": "spender",
							"type": "address"
						},
						{
							"internalType": "uint256",
							"name": "subtractedValue",
							"type": "uint256"
						}
					],
					"name": "decreaseAllowance",
					"outputs": [
						{
							"internalType": "bool",
							"name": "",
							"type": "bool"
						}
					],
					"stateMutability": "nonpayable",
					"type": "function"
				},
				{
					"inputs": [
						{
							"internalType": "address",
							"name": "spender",
							"type": "address"
						},
						{
							"internalType": "uint256",
							"name": "addedValue",
							"type": "uint256"
						}
					],
					"name": "increaseAllowance",
					"outputs": [
						{
							"internalType": "bool",
							"name": "",
							"type": "bool"
						}
					],
					"stateMutability": "nonpayable",
					"type": "function"
				},
				{
					"inputs": [],
					"name": "totalSupply",
					"outputs": [
						{
							"internalType": "uint256",
							"name": "",
							"type": "uint256"
						}
					],
					"stateMutability": "view",
					"type": "function"
				},
				{
					"inputs": [
						{
							"internalType": "address",
							"name": "recipient",
							"type": "address"
						},
						{
							"internalType": "uint256",
							"name": "amount",
							"type": "uint256"
						}
					],
					"name": "transfer",
					"outputs": [
						{
							"internalType": "bool",
							"name": "",
							"type": "bool"
						}
					],
					"stateMutability": "nonpayable",
					"type": "function"
				},
				{
					"inputs": [
						{
							"internalType": "address",
							"name": "sender",
							"type": "address"
						},
						{
							"internalType": "address",
							"name": "recipient",
							"type": "address"
						},
						{
							"internalType": "uint256",
							"name": "amount",
							"type": "uint256"
						}
					],
					"name": "transferFrom",
					"outputs": [
						{
							"internalType": "bool",
							"name": "",
							"type": "bool"
						}
					],
					"stateMutability": "nonpayable",
					"type": "function"
				}
			],
			"devdoc": {
				"kind": "dev",
				"methods": {},
				"version": 1
			},
			"evm": {
				"assembly": "    /* \"contracts/shiba.sol\":1932:5173  contract ERC20 is IERC20 {\r... */\n  mstore(0x40, 0x80)\n  callvalue\n  dup1\n  iszero\n  tag_1\n  jumpi\n  0x00\n  dup1\n  revert\ntag_1:\n  pop\n  dataSize(sub_0)\n  dup1\n  dataOffset(sub_0)\n  0x00\n  codecopy\n  0x00\n  return\nstop\n\nsub_0: assembly {\n        /* \"contracts/shiba.sol\":1932:5173  contract ERC20 is IERC20 {\r... */\n      mstore(0x40, 0x80)\n      callvalue\n      dup1\n      iszero\n      tag_1\n      jumpi\n      0x00\n      dup1\n      revert\n    tag_1:\n      pop\n      jumpi(tag_2, lt(calldatasize, 0x04))\n      shr(0xe0, calldataload(0x00))\n      dup1\n      0x70a08231\n      gt\n      tag_11\n      jumpi\n      dup1\n      0x70a08231\n      eq\n      tag_7\n      jumpi\n      dup1\n      0xa457c2d7\n      eq\n      tag_8\n      jumpi\n      dup1\n      0xa9059cbb\n      eq\n      tag_9\n      jumpi\n      dup1\n      0xdd62ed3e\n      eq\n      tag_10\n      jumpi\n      jump(tag_2)\n    tag_11:\n      dup1\n      0x095ea7b3\n      eq\n      tag_3\n      jumpi\n      dup1\n      0x18160ddd\n      eq\n      tag_4\n      jumpi\n      dup1\n      0x23b872dd\n      eq\n      tag_5\n      jumpi\n      dup1\n      0x39509351\n      eq\n      tag_6\n      jumpi\n    tag_2:\n      0x00\n      dup1\n      revert\n        /* \"contracts/shiba.sol\":2712:2869  function approve(address spender, uint256 value) public override returns (bool) {\r... */\n    tag_3:\n      tag_12\n      0x04\n      dup1\n      calldatasize\n      sub\n      dup2\n      add\n      swap1\n      tag_13\n      swap2\n      swap1\n      tag_14\n      jump\t// in\n    tag_13:\n      tag_15\n      jump\t// in\n    tag_12:\n      mload(0x40)\n      tag_16\n      swap2\n      swap1\n      tag_17\n      jump\t// in\n    tag_16:\n      mload(0x40)\n      dup1\n      swap2\n      sub\n      swap1\n      return\n        /* \"contracts/shiba.sol\":2161:2261  function totalSupply() public view override returns (uint256) {\r... */\n    tag_4:\n      tag_18\n      tag_19\n      jump\t// in\n    tag_18:\n      mload(0x40)\n      tag_20\n      swap2\n      swap1\n      tag_21\n      jump\t// in\n    tag_20:\n      mload(0x40)\n      dup1\n      swap2\n      sub\n      swap1\n      return\n        /* \"contracts/shiba.sol\":2875:3140  function transferFrom(address sender, address recipient, uint256 amount) public override returns (bool) {\r... */\n    tag_5:\n      tag_22\n      0x04\n      dup1\n      calldatasize\n      sub\n      dup2\n      add\n      swap1\n      tag_23\n      swap2\n      swap1\n      tag_24\n      jump\t// in\n    tag_23:\n      tag_25\n      jump\t// in\n    tag_22:\n      mload(0x40)\n      tag_26\n      swap2\n      swap1\n      tag_17\n      jump\t// in\n    tag_26:\n      mload(0x40)\n      dup1\n      swap2\n      sub\n      swap1\n      return\n        /* \"contracts/shiba.sol\":3146:3352  function increaseAllowance(address spender, uint256 addedValue) public returns (bool) {\r... */\n    tag_6:\n      tag_27\n      0x04\n      dup1\n      calldatasize\n      sub\n      dup2\n      add\n      swap1\n      tag_28\n      swap2\n      swap1\n      tag_14\n      jump\t// in\n    tag_28:\n      tag_29\n      jump\t// in\n    tag_27:\n      mload(0x40)\n      tag_30\n      swap2\n      swap1\n      tag_17\n      jump\t// in\n    tag_30:\n      mload(0x40)\n      dup1\n      swap2\n      sub\n      swap1\n      return\n        /* \"contracts/shiba.sol\":2267:2386  function balanceOf(address account) public view override returns (uint256) {\r... */\n    tag_7:\n      tag_31\n      0x04\n      dup1\n      calldatasize\n      sub\n      dup2\n      add\n      swap1\n      tag_32\n      swap2\n      swap1\n      tag_33\n      jump\t// in\n    tag_32:\n      tag_34\n      jump\t// in\n    tag_31:\n      mload(0x40)\n      tag_35\n      swap2\n      swap1\n      tag_21\n      jump\t// in\n    tag_35:\n      mload(0x40)\n      dup1\n      swap2\n      sub\n      swap1\n      return\n        /* \"contracts/shiba.sol\":3358:3574  function decreaseAllowance(address spender, uint256 subtractedValue) public returns (bool) {\r... */\n    tag_8:\n      tag_36\n      0x04\n      dup1\n      calldatasize\n      sub\n      dup2\n      add\n      swap1\n      tag_37\n      swap2\n      swap1\n      tag_14\n      jump\t// in\n    tag_37:\n      tag_38\n      jump\t// in\n    tag_36:\n      mload(0x40)\n      tag_39\n      swap2\n      swap1\n      tag_17\n      jump\t// in\n    tag_39:\n      mload(0x40)\n      dup1\n      swap2\n      sub\n      swap1\n      return\n        /* \"contracts/shiba.sol\":2392:2557  function transfer(address recipient, uint256 amount) public override returns (bool) {\r... */\n    tag_9:\n      tag_40\n      0x04\n      dup1\n      calldatasize\n      sub\n      dup2\n      add\n      swap1\n      tag_41\n      swap2\n      swap1\n      tag_14\n      jump\t// in\n    tag_41:\n      tag_42\n      jump\t// in\n    tag_40:\n      mload(0x40)\n      tag_43\n      swap2\n      swap1\n      tag_17\n      jump\t// in\n    tag_43:\n      mload(0x40)\n      dup1\n      swap2\n      sub\n      swap1\n      return\n        /* \"contracts/shiba.sol\":2563:2706  function allowance(address owner, address spender) public view override returns (uint256) {\r... */\n    tag_10:\n      tag_44\n      0x04\n      dup1\n      calldatasize\n      sub\n      dup2\n      add\n      swap1\n      tag_45\n      swap2\n      swap1\n      tag_46\n      jump\t// in\n    tag_45:\n      tag_47\n      jump\t// in\n    tag_44:\n      mload(0x40)\n      tag_48\n      swap2\n      swap1\n      tag_21\n      jump\t// in\n    tag_48:\n      mload(0x40)\n      dup1\n      swap2\n      sub\n      swap1\n      return\n        /* \"contracts/shiba.sol\":2712:2869  function approve(address spender, uint256 value) public override returns (bool) {\r... */\n    tag_15:\n        /* \"contracts/shiba.sol\":2786:2790  bool */\n      0x00\n        /* \"contracts/shiba.sol\":2803:2839  _approve(msg.sender, spender, value) */\n      tag_50\n        /* \"contracts/shiba.sol\":2812:2822  msg.sender */\n      caller\n        /* \"contracts/shiba.sol\":2824:2831  spender */\n      dup5\n        /* \"contracts/shiba.sol\":2833:2838  value */\n      dup5\n        /* \"contracts/shiba.sol\":2803:2811  _approve */\n      tag_51\n        /* \"contracts/shiba.sol\":2803:2839  _approve(msg.sender, spender, value) */\n      jump\t// in\n    tag_50:\n        /* \"contracts/shiba.sol\":2857:2861  true */\n      0x01\n        /* \"contracts/shiba.sol\":2850:2861  return true */\n      swap1\n      pop\n        /* \"contracts/shiba.sol\":2712:2869  function approve(address spender, uint256 value) public override returns (bool) {\r... */\n      swap3\n      swap2\n      pop\n      pop\n      jump\t// out\n        /* \"contracts/shiba.sol\":2161:2261  function totalSupply() public view override returns (uint256) {\r... */\n    tag_19:\n        /* \"contracts/shiba.sol\":2214:2221  uint256 */\n      0x00\n        /* \"contracts/shiba.sol\":2241:2253  _totalSupply */\n      sload(0x02)\n        /* \"contracts/shiba.sol\":2234:2253  return _totalSupply */\n      swap1\n      pop\n        /* \"contracts/shiba.sol\":2161:2261  function totalSupply() public view override returns (uint256) {\r... */\n      swap1\n      jump\t// out\n        /* \"contracts/shiba.sol\":2875:3140  function transferFrom(address sender, address recipient, uint256 amount) public override returns (bool) {\r... */\n    tag_25:\n        /* \"contracts/shiba.sol\":2973:2977  bool */\n      0x00\n        /* \"contracts/shiba.sol\":2990:3026  _transfer(sender, recipient, amount) */\n      tag_54\n        /* \"contracts/shiba.sol\":3000:3006  sender */\n      dup5\n        /* \"contracts/shiba.sol\":3008:3017  recipient */\n      dup5\n        /* \"contracts/shiba.sol\":3019:3025  amount */\n      dup5\n        /* \"contracts/shiba.sol\":2990:2999  _transfer */\n      tag_55\n        /* \"contracts/shiba.sol\":2990:3026  _transfer(sender, recipient, amount) */\n      jump\t// in\n    tag_54:\n        /* \"contracts/shiba.sol\":3037:3110  _approve(sender, msg.sender, _allowances[sender][msg.sender].sub(amount)) */\n      tag_56\n        /* \"contracts/shiba.sol\":3046:3052  sender */\n      dup5\n        /* \"contracts/shiba.sol\":3054:3064  msg.sender */\n      caller\n        /* \"contracts/shiba.sol\":3066:3109  _allowances[sender][msg.sender].sub(amount) */\n      tag_57\n        /* \"contracts/shiba.sol\":3102:3108  amount */\n      dup6\n        /* \"contracts/shiba.sol\":3066:3077  _allowances */\n      0x01\n        /* \"contracts/shiba.sol\":3066:3085  _allowances[sender] */\n      0x00\n        /* \"contracts/shiba.sol\":3078:3084  sender */\n      dup11\n        /* \"contracts/shiba.sol\":3066:3085  _allowances[sender] */\n      0xffffffffffffffffffffffffffffffffffffffff\n      and\n      0xffffffffffffffffffffffffffffffffffffffff\n      and\n      dup2\n      mstore\n      0x20\n      add\n      swap1\n      dup2\n      mstore\n      0x20\n      add\n      0x00\n      keccak256\n        /* \"contracts/shiba.sol\":3066:3097  _allowances[sender][msg.sender] */\n      0x00\n        /* \"contracts/shiba.sol\":3086:3096  msg.sender */\n      caller\n        /* \"contracts/shiba.sol\":3066:3097  _allowances[sender][msg.sender] */\n      0xffffffffffffffffffffffffffffffffffffffff\n      and\n      0xffffffffffffffffffffffffffffffffffffffff\n      and\n      dup2\n      mstore\n      0x20\n      add\n      swap1\n      dup2\n      mstore\n      0x20\n      add\n      0x00\n      keccak256\n      sload\n        /* \"contracts/shiba.sol\":3066:3101  _allowances[sender][msg.sender].sub */\n      tag_58\n      swap1\n        /* \"contracts/shiba.sol\":3066:3109  _allowances[sender][msg.sender].sub(amount) */\n      swap2\n      swap1\n      0xffffffff\n      and\n      jump\t// in\n    tag_57:\n        /* \"contracts/shiba.sol\":3037:3045  _approve */\n      tag_51\n        /* \"contracts/shiba.sol\":3037:3110  _approve(sender, msg.sender, _allowances[sender][msg.sender].sub(amount)) */\n      jump\t// in\n    tag_56:\n        /* \"contracts/shiba.sol\":3128:3132  true */\n      0x01\n        /* \"contracts/shiba.sol\":3121:3132  return true */\n      swap1\n      pop\n        /* \"contracts/shiba.sol\":2875:3140  function transferFrom(address sender, address recipient, uint256 amount) public override returns (bool) {\r... */\n      swap4\n      swap3\n      pop\n      pop\n      pop\n      jump\t// out\n        /* \"contracts/shiba.sol\":3146:3352  function increaseAllowance(address spender, uint256 addedValue) public returns (bool) {\r... */\n    tag_29:\n        /* \"contracts/shiba.sol\":3226:3230  bool */\n      0x00\n        /* \"contracts/shiba.sol\":3243:3322  _approve(msg.sender, spender, _allowances[msg.sender][spender].add(addedValue)) */\n      tag_60\n        /* \"contracts/shiba.sol\":3252:3262  msg.sender */\n      caller\n        /* \"contracts/shiba.sol\":3264:3271  spender */\n      dup5\n        /* \"contracts/shiba.sol\":3273:3321  _allowances[msg.sender][spender].add(addedValue) */\n      tag_61\n        /* \"contracts/shiba.sol\":3310:3320  addedValue */\n      dup6\n        /* \"contracts/shiba.sol\":3273:3284  _allowances */\n      0x01\n        /* \"contracts/shiba.sol\":3273:3296  _allowances[msg.sender] */\n      0x00\n        /* \"contracts/shiba.sol\":3285:3295  msg.sender */\n      caller\n        /* \"contracts/shiba.sol\":3273:3296  _allowances[msg.sender] */\n      0xffffffffffffffffffffffffffffffffffffffff\n      and\n      0xffffffffffffffffffffffffffffffffffffffff\n      and\n      dup2\n      mstore\n      0x20\n      add\n      swap1\n      dup2\n      mstore\n      0x20\n      add\n      0x00\n      keccak256\n        /* \"contracts/shiba.sol\":3273:3305  _allowances[msg.sender][spender] */\n      0x00\n        /* \"contracts/shiba.sol\":3297:3304  spender */\n      dup10\n        /* \"contracts/shiba.sol\":3273:3305  _allowances[msg.sender][spender] */\n      0xffffffffffffffffffffffffffffffffffffffff\n      and\n      0xffffffffffffffffffffffffffffffffffffffff\n      and\n      dup2\n      mstore\n      0x20\n      add\n      swap1\n      dup2\n      mstore\n      0x20\n      add\n      0x00\n      keccak256\n      sload\n        /* \"contracts/shiba.sol\":3273:3309  _allowances[msg.sender][spender].add */\n      tag_62\n      swap1\n        /* \"contracts/shiba.sol\":3273:3321  _allowances[msg.sender][spender].add(addedValue) */\n      swap2\n      swap1\n      0xffffffff\n      and\n      jump\t// in\n    tag_61:\n        /* \"contracts/shiba.sol\":3243:3251  _approve */\n      tag_51\n        /* \"contracts/shiba.sol\":3243:3322  _approve(msg.sender, spender, _allowances[msg.sender][spender].add(addedValue)) */\n      jump\t// in\n    tag_60:\n        /* \"contracts/shiba.sol\":3340:3344  true */\n      0x01\n        /* \"contracts/shiba.sol\":3333:3344  return true */\n      swap1\n      pop\n        /* \"contracts/shiba.sol\":3146:3352  function increaseAllowance(address spender, uint256 addedValue) public returns (bool) {\r... */\n      swap3\n      swap2\n      pop\n      pop\n      jump\t// out\n        /* \"contracts/shiba.sol\":2267:2386  function balanceOf(address account) public view override returns (uint256) {\r... */\n    tag_34:\n        /* \"contracts/shiba.sol\":2333:2340  uint256 */\n      0x00\n        /* \"contracts/shiba.sol\":2360:2369  _balances */\n      dup1\n        /* \"contracts/shiba.sol\":2360:2378  _balances[account] */\n      0x00\n        /* \"contracts/shiba.sol\":2370:2377  account */\n      dup4\n        /* \"contracts/shiba.sol\":2360:2378  _balances[account] */\n      0xffffffffffffffffffffffffffffffffffffffff\n      and\n      0xffffffffffffffffffffffffffffffffffffffff\n      and\n      dup2\n      mstore\n      0x20\n      add\n      swap1\n      dup2\n      mstore\n      0x20\n      add\n      0x00\n      keccak256\n      sload\n        /* \"contracts/shiba.sol\":2353:2378  return _balances[account] */\n      swap1\n      pop\n        /* \"contracts/shiba.sol\":2267:2386  function balanceOf(address account) public view override returns (uint256) {\r... */\n      swap2\n      swap1\n      pop\n      jump\t// out\n        /* \"contracts/shiba.sol\":3358:3574  function decreaseAllowance(address spender, uint256 subtractedValue) public returns (bool) {\r... */\n    tag_38:\n        /* \"contracts/shiba.sol\":3443:3447  bool */\n      0x00\n        /* \"contracts/shiba.sol\":3460:3544  _approve(msg.sender, spender, _allowances[msg.sender][spender].sub(subtractedValue)) */\n      tag_65\n        /* \"contracts/shiba.sol\":3469:3479  msg.sender */\n      caller\n        /* \"contracts/shiba.sol\":3481:3488  spender */\n      dup5\n        /* \"contracts/shiba.sol\":3490:3543  _allowances[msg.sender][spender].sub(subtractedValue) */\n      tag_66\n        /* \"contracts/shiba.sol\":3527:3542  subtractedValue */\n      dup6\n        /* \"contracts/shiba.sol\":3490:3501  _allowances */\n      0x01\n        /* \"contracts/shiba.sol\":3490:3513  _allowances[msg.sender] */\n      0x00\n        /* \"contracts/shiba.sol\":3502:3512  msg.sender */\n      caller\n        /* \"contracts/shiba.sol\":3490:3513  _allowances[msg.sender] */\n      0xffffffffffffffffffffffffffffffffffffffff\n      and\n      0xffffffffffffffffffffffffffffffffffffffff\n      and\n      dup2\n      mstore\n      0x20\n      add\n      swap1\n      dup2\n      mstore\n      0x20\n      add\n      0x00\n      keccak256\n        /* \"contracts/shiba.sol\":3490:3522  _allowances[msg.sender][spender] */\n      0x00\n        /* \"contracts/shiba.sol\":3514:3521  spender */\n      dup10\n        /* \"contracts/shiba.sol\":3490:3522  _allowances[msg.sender][spender] */\n      0xffffffffffffffffffffffffffffffffffffffff\n      and\n      0xffffffffffffffffffffffffffffffffffffffff\n      and\n      dup2\n      mstore\n      0x20\n      add\n      swap1\n      dup2\n      mstore\n      0x20\n      add\n      0x00\n      keccak256\n      sload\n        /* \"contracts/shiba.sol\":3490:3526  _allowances[msg.sender][spender].sub */\n      tag_58\n      swap1\n        /* \"contracts/shiba.sol\":3490:3543  _allowances[msg.sender][spender].sub(subtractedValue) */\n      swap2\n      swap1\n      0xffffffff\n      and\n      jump\t// in\n    tag_66:\n        /* \"contracts/shiba.sol\":3460:3468  _approve */\n      tag_51\n        /* \"contracts/shiba.sol\":3460:3544  _approve(msg.sender, spender, _allowances[msg.sender][spender].sub(subtractedValue)) */\n      jump\t// in\n    tag_65:\n        /* \"contracts/shiba.sol\":3562:3566  true */\n      0x01\n        /* \"contracts/shiba.sol\":3555:3566  return true */\n      swap1\n      pop\n        /* \"contracts/shiba.sol\":3358:3574  function decreaseAllowance(address spender, uint256 subtractedValue) public returns (bool) {\r... */\n      swap3\n      swap2\n      pop\n      pop\n      jump\t// out\n        /* \"contracts/shiba.sol\":2392:2557  function transfer(address recipient, uint256 amount) public override returns (bool) {\r... */\n    tag_42:\n        /* \"contracts/shiba.sol\":2470:2474  bool */\n      0x00\n        /* \"contracts/shiba.sol\":2487:2527  _transfer(msg.sender, recipient, amount) */\n      tag_68\n        /* \"contracts/shiba.sol\":2497:2507  msg.sender */\n      caller\n        /* \"contracts/shiba.sol\":2509:2518  recipient */\n      dup5\n        /* \"contracts/shiba.sol\":2520:2526  amount */\n      dup5\n        /* \"contracts/shiba.sol\":2487:2496  _transfer */\n      tag_55\n        /* \"contracts/shiba.sol\":2487:2527  _transfer(msg.sender, recipient, amount) */\n      jump\t// in\n    tag_68:\n        /* \"contracts/shiba.sol\":2545:2549  true */\n      0x01\n        /* \"contracts/shiba.sol\":2538:2549  return true */\n      swap1\n      pop\n        /* \"contracts/shiba.sol\":2392:2557  function transfer(address recipient, uint256 amount) public override returns (bool) {\r... */\n      swap3\n      swap2\n      pop\n      pop\n      jump\t// out\n        /* \"contracts/shiba.sol\":2563:2706  function allowance(address owner, address spender) public view override returns (uint256) {\r... */\n    tag_47:\n        /* \"contracts/shiba.sol\":2644:2651  uint256 */\n      0x00\n        /* \"contracts/shiba.sol\":2671:2682  _allowances */\n      0x01\n        /* \"contracts/shiba.sol\":2671:2689  _allowances[owner] */\n      0x00\n        /* \"contracts/shiba.sol\":2683:2688  owner */\n      dup5\n        /* \"contracts/shiba.sol\":2671:2689  _allowances[owner] */\n      0xffffffffffffffffffffffffffffffffffffffff\n      and\n      0xffffffffffffffffffffffffffffffffffffffff\n      and\n      dup2\n      mstore\n      0x20\n      add\n      swap1\n      dup2\n      mstore\n      0x20\n      add\n      0x00\n      keccak256\n        /* \"contracts/shiba.sol\":2671:2698  _allowances[owner][spender] */\n      0x00\n        /* \"contracts/shiba.sol\":2690:2697  spender */\n      dup4\n        /* \"contracts/shiba.sol\":2671:2698  _allowances[owner][spender] */\n      0xffffffffffffffffffffffffffffffffffffffff\n      and\n      0xffffffffffffffffffffffffffffffffffffffff\n      and\n      dup2\n      mstore\n      0x20\n      add\n      swap1\n      dup2\n      mstore\n      0x20\n      add\n      0x00\n      keccak256\n      sload\n        /* \"contracts/shiba.sol\":2664:2698  return _allowances[owner][spender] */\n      swap1\n      pop\n        /* \"contracts/shiba.sol\":2563:2706  function allowance(address owner, address spender) public view override returns (uint256) {\r... */\n      swap3\n      swap2\n      pop\n      pop\n      jump\t// out\n        /* \"contracts/shiba.sol\":4641:4976  function _approve(address owner, address spender, uint256 value) internal {\r... */\n    tag_51:\n        /* \"contracts/shiba.sol\":4751:4752  0 */\n      0x00\n        /* \"contracts/shiba.sol\":4734:4753  owner != address(0) */\n      0xffffffffffffffffffffffffffffffffffffffff\n      and\n        /* \"contracts/shiba.sol\":4734:4739  owner */\n      dup4\n        /* \"contracts/shiba.sol\":4734:4753  owner != address(0) */\n      0xffffffffffffffffffffffffffffffffffffffff\n      and\n      eq\n      iszero\n        /* \"contracts/shiba.sol\":4726:4794  require(owner != address(0), \"ERC20: approve from the zero address\") */\n      tag_71\n      jumpi\n      mload(0x40)\n      0x08c379a000000000000000000000000000000000000000000000000000000000\n      dup2\n      mstore\n      0x04\n      add\n      tag_72\n      swap1\n      tag_73\n      jump\t// in\n    tag_72:\n      mload(0x40)\n      dup1\n      swap2\n      sub\n      swap1\n      revert\n    tag_71:\n        /* \"contracts/shiba.sol\":4832:4833  0 */\n      0x00\n        /* \"contracts/shiba.sol\":4813:4834  spender != address(0) */\n      0xffffffffffffffffffffffffffffffffffffffff\n      and\n        /* \"contracts/shiba.sol\":4813:4820  spender */\n      dup3\n        /* \"contracts/shiba.sol\":4813:4834  spender != address(0) */\n      0xffffffffffffffffffffffffffffffffffffffff\n      and\n      eq\n      iszero\n        /* \"contracts/shiba.sol\":4805:4873  require(spender != address(0), \"ERC20: approve to the zero address\") */\n      tag_74\n      jumpi\n      mload(0x40)\n      0x08c379a000000000000000000000000000000000000000000000000000000000\n      dup2\n      mstore\n      0x04\n      add\n      tag_75\n      swap1\n      tag_76\n      jump\t// in\n    tag_75:\n      mload(0x40)\n      dup1\n      swap2\n      sub\n      swap1\n      revert\n    tag_74:\n        /* \"contracts/shiba.sol\":4916:4921  value */\n      dup1\n        /* \"contracts/shiba.sol\":4886:4897  _allowances */\n      0x01\n        /* \"contracts/shiba.sol\":4886:4904  _allowances[owner] */\n      0x00\n        /* \"contracts/shiba.sol\":4898:4903  owner */\n      dup6\n        /* \"contracts/shiba.sol\":4886:4904  _allowances[owner] */\n      0xffffffffffffffffffffffffffffffffffffffff\n      and\n      0xffffffffffffffffffffffffffffffffffffffff\n      and\n      dup2\n      mstore\n      0x20\n      add\n      swap1\n      dup2\n      mstore\n      0x20\n      add\n      0x00\n      keccak256\n        /* \"contracts/shiba.sol\":4886:4913  _allowances[owner][spender] */\n      0x00\n        /* \"contracts/shiba.sol\":4905:4912  spender */\n      dup5\n        /* \"contracts/shiba.sol\":4886:4913  _allowances[owner][spender] */\n      0xffffffffffffffffffffffffffffffffffffffff\n      and\n      0xffffffffffffffffffffffffffffffffffffffff\n      and\n      dup2\n      mstore\n      0x20\n      add\n      swap1\n      dup2\n      mstore\n      0x20\n      add\n      0x00\n      keccak256\n        /* \"contracts/shiba.sol\":4886:4921  _allowances[owner][spender] = value */\n      dup2\n      swap1\n      sstore\n      pop\n        /* \"contracts/shiba.sol\":4953:4960  spender */\n      dup2\n        /* \"contracts/shiba.sol\":4937:4968  Approval(owner, spender, value) */\n      0xffffffffffffffffffffffffffffffffffffffff\n      and\n        /* \"contracts/shiba.sol\":4946:4951  owner */\n      dup4\n        /* \"contracts/shiba.sol\":4937:4968  Approval(owner, spender, value) */\n      0xffffffffffffffffffffffffffffffffffffffff\n      and\n      0x8c5be1e5ebec7d5bd14f71427d1e84f3dd0314c0f7b2291e5b200ac8c7c3b925\n        /* \"contracts/shiba.sol\":4962:4967  value */\n      dup4\n        /* \"contracts/shiba.sol\":4937:4968  Approval(owner, spender, value) */\n      mload(0x40)\n      tag_77\n      swap2\n      swap1\n      tag_21\n      jump\t// in\n    tag_77:\n      mload(0x40)\n      dup1\n      swap2\n      sub\n      swap1\n      log3\n        /* \"contracts/shiba.sol\":4641:4976  function _approve(address owner, address spender, uint256 value) internal {\r... */\n      pop\n      pop\n      pop\n      jump\t// out\n        /* \"contracts/shiba.sol\":3580:4009  function _transfer(address sender, address recipient, uint256 amount) internal {\r... */\n    tag_55:\n        /* \"contracts/shiba.sol\":3696:3697  0 */\n      0x00\n        /* \"contracts/shiba.sol\":3678:3698  sender != address(0) */\n      0xffffffffffffffffffffffffffffffffffffffff\n      and\n        /* \"contracts/shiba.sol\":3678:3684  sender */\n      dup4\n        /* \"contracts/shiba.sol\":3678:3698  sender != address(0) */\n      0xffffffffffffffffffffffffffffffffffffffff\n      and\n      eq\n      iszero\n        /* \"contracts/shiba.sol\":3670:3740  require(sender != address(0), \"ERC20: transfer from the zero address\") */\n      tag_79\n      jumpi\n      mload(0x40)\n      0x08c379a000000000000000000000000000000000000000000000000000000000\n      dup2\n      mstore\n      0x04\n      add\n      tag_80\n      swap1\n      tag_81\n      jump\t// in\n    tag_80:\n      mload(0x40)\n      dup1\n      swap2\n      sub\n      swap1\n      revert\n    tag_79:\n        /* \"contracts/shiba.sol\":3780:3781  0 */\n      0x00\n        /* \"contracts/shiba.sol\":3759:3782  recipient != address(0) */\n      0xffffffffffffffffffffffffffffffffffffffff\n      and\n        /* \"contracts/shiba.sol\":3759:3768  recipient */\n      dup3\n        /* \"contracts/shiba.sol\":3759:3782  recipient != address(0) */\n      0xffffffffffffffffffffffffffffffffffffffff\n      and\n      eq\n      iszero\n        /* \"contracts/shiba.sol\":3751:3822  require(recipient != address(0), \"ERC20: transfer to the zero address\") */\n      tag_82\n      jumpi\n      mload(0x40)\n      0x08c379a000000000000000000000000000000000000000000000000000000000\n      dup2\n      mstore\n      0x04\n      add\n      tag_83\n      swap1\n      tag_84\n      jump\t// in\n    tag_83:\n      mload(0x40)\n      dup1\n      swap2\n      sub\n      swap1\n      revert\n    tag_82:\n        /* \"contracts/shiba.sol\":3855:3884  _balances[sender].sub(amount) */\n      tag_85\n        /* \"contracts/shiba.sol\":3877:3883  amount */\n      dup2\n        /* \"contracts/shiba.sol\":3855:3864  _balances */\n      0x00\n        /* \"contracts/shiba.sol\":3855:3872  _balances[sender] */\n      dup1\n        /* \"contracts/shiba.sol\":3865:3871  sender */\n      dup7\n        /* \"contracts/shiba.sol\":3855:3872  _balances[sender] */\n      0xffffffffffffffffffffffffffffffffffffffff\n      and\n      0xffffffffffffffffffffffffffffffffffffffff\n      and\n      dup2\n      mstore\n      0x20\n      add\n      swap1\n      dup2\n      mstore\n      0x20\n      add\n      0x00\n      keccak256\n      sload\n        /* \"contracts/shiba.sol\":3855:3876  _balances[sender].sub */\n      tag_58\n      swap1\n        /* \"contracts/shiba.sol\":3855:3884  _balances[sender].sub(amount) */\n      swap2\n      swap1\n      0xffffffff\n      and\n      jump\t// in\n    tag_85:\n        /* \"contracts/shiba.sol\":3835:3844  _balances */\n      0x00\n        /* \"contracts/shiba.sol\":3835:3852  _balances[sender] */\n      dup1\n        /* \"contracts/shiba.sol\":3845:3851  sender */\n      dup6\n        /* \"contracts/shiba.sol\":3835:3852  _balances[sender] */\n      0xffffffffffffffffffffffffffffffffffffffff\n      and\n      0xffffffffffffffffffffffffffffffffffffffff\n      and\n      dup2\n      mstore\n      0x20\n      add\n      swap1\n      dup2\n      mstore\n      0x20\n      add\n      0x00\n      keccak256\n        /* \"contracts/shiba.sol\":3835:3884  _balances[sender] = _balances[sender].sub(amount) */\n      dup2\n      swap1\n      sstore\n      pop\n        /* \"contracts/shiba.sol\":3918:3950  _balances[recipient].add(amount) */\n      tag_86\n        /* \"contracts/shiba.sol\":3943:3949  amount */\n      dup2\n        /* \"contracts/shiba.sol\":3918:3927  _balances */\n      0x00\n        /* \"contracts/shiba.sol\":3918:3938  _balances[recipient] */\n      dup1\n        /* \"contracts/shiba.sol\":3928:3937  recipient */\n      dup6\n        /* \"contracts/shiba.sol\":3918:3938  _balances[recipient] */\n      0xffffffffffffffffffffffffffffffffffffffff\n      and\n      0xffffffffffffffffffffffffffffffffffffffff\n      and\n      dup2\n      mstore\n      0x20\n      add\n      swap1\n      dup2\n      mstore\n      0x20\n      add\n      0x00\n      keccak256\n      sload\n        /* \"contracts/shiba.sol\":3918:3942  _balances[recipient].add */\n      tag_62\n      swap1\n        /* \"contracts/shiba.sol\":3918:3950  _balances[recipient].add(amount) */\n      swap2\n      swap1\n      0xffffffff\n      and\n      jump\t// in\n    tag_86:\n        /* \"contracts/shiba.sol\":3895:3904  _balances */\n      0x00\n        /* \"contracts/shiba.sol\":3895:3915  _balances[recipient] */\n      dup1\n        /* \"contracts/shiba.sol\":3905:3914  recipient */\n      dup5\n        /* \"contracts/shiba.sol\":3895:3915  _balances[recipient] */\n      0xffffffffffffffffffffffffffffffffffffffff\n      and\n      0xffffffffffffffffffffffffffffffffffffffff\n      and\n      dup2\n      mstore\n      0x20\n      add\n      swap1\n      dup2\n      mstore\n      0x20\n      add\n      0x00\n      keccak256\n        /* \"contracts/shiba.sol\":3895:3950  _balances[recipient] = _balances[recipient].add(amount) */\n      dup2\n      swap1\n      sstore\n      pop\n        /* \"contracts/shiba.sol\":3983:3992  recipient */\n      dup2\n        /* \"contracts/shiba.sol\":3966:4001  Transfer(sender, recipient, amount) */\n      0xffffffffffffffffffffffffffffffffffffffff\n      and\n        /* \"contracts/shiba.sol\":3975:3981  sender */\n      dup4\n        /* \"contracts/shiba.sol\":3966:4001  Transfer(sender, recipient, amount) */\n      0xffffffffffffffffffffffffffffffffffffffff\n      and\n      0xddf252ad1be2c89b69c2b068fc378daa952ba7f163c4a11628f55a4df523b3ef\n        /* \"contracts/shiba.sol\":3994:4000  amount */\n      dup4\n        /* \"contracts/shiba.sol\":3966:4001  Transfer(sender, recipient, amount) */\n      mload(0x40)\n      tag_87\n      swap2\n      swap1\n      tag_21\n      jump\t// in\n    tag_87:\n      mload(0x40)\n      dup1\n      swap2\n      sub\n      swap1\n      log3\n        /* \"contracts/shiba.sol\":3580:4009  function _transfer(address sender, address recipient, uint256 amount) internal {\r... */\n      pop\n      pop\n      pop\n      jump\t// out\n        /* \"contracts/shiba.sol\":971:1153  function sub(uint256 a, uint256 b) internal pure returns (uint256) {\r... */\n    tag_58:\n        /* \"contracts/shiba.sol\":1029:1036  uint256 */\n      0x00\n        /* \"contracts/shiba.sol\":1062:1063  a */\n      dup3\n        /* \"contracts/shiba.sol\":1057:1058  b */\n      dup3\n        /* \"contracts/shiba.sol\":1057:1063  b <= a */\n      gt\n      iszero\n        /* \"contracts/shiba.sol\":1049:1098  require(b <= a, \"SafeMath: subtraction overflow\") */\n      tag_89\n      jumpi\n      mload(0x40)\n      0x08c379a000000000000000000000000000000000000000000000000000000000\n      dup2\n      mstore\n      0x04\n      add\n      tag_90\n      swap1\n      tag_91\n      jump\t// in\n    tag_90:\n      mload(0x40)\n      dup1\n      swap2\n      sub\n      swap1\n      revert\n    tag_89:\n        /* \"contracts/shiba.sol\":1109:1118  uint256 c */\n      0x00\n        /* \"contracts/shiba.sol\":1125:1126  b */\n      dup3\n        /* \"contracts/shiba.sol\":1121:1122  a */\n      dup5\n        /* \"contracts/shiba.sol\":1121:1126  a - b */\n      tag_92\n      swap2\n      swap1\n      tag_93\n      jump\t// in\n    tag_92:\n        /* \"contracts/shiba.sol\":1109:1126  uint256 c = a - b */\n      swap1\n      pop\n        /* \"contracts/shiba.sol\":1144:1145  c */\n      dup1\n        /* \"contracts/shiba.sol\":1137:1145  return c */\n      swap2\n      pop\n      pop\n        /* \"contracts/shiba.sol\":971:1153  function sub(uint256 a, uint256 b) internal pure returns (uint256) {\r... */\n      swap3\n      swap2\n      pop\n      pop\n      jump\t// out\n        /* \"contracts/shiba.sol\":786:965  function add(uint256 a, uint256 b) internal pure returns (uint256) {\r... */\n    tag_62:\n        /* \"contracts/shiba.sol\":844:851  uint256 */\n      0x00\n        /* \"contracts/shiba.sol\":864:873  uint256 c */\n      dup1\n        /* \"contracts/shiba.sol\":880:881  b */\n      dup3\n        /* \"contracts/shiba.sol\":876:877  a */\n      dup5\n        /* \"contracts/shiba.sol\":876:881  a + b */\n      tag_95\n      swap2\n      swap1\n      tag_96\n      jump\t// in\n    tag_95:\n        /* \"contracts/shiba.sol\":864:881  uint256 c = a + b */\n      swap1\n      pop\n        /* \"contracts/shiba.sol\":905:906  a */\n      dup4\n        /* \"contracts/shiba.sol\":900:901  c */\n      dup2\n        /* \"contracts/shiba.sol\":900:906  c >= a */\n      lt\n      iszero\n        /* \"contracts/shiba.sol\":892:938  require(c >= a, \"SafeMath: addition overflow\") */\n      tag_97\n      jumpi\n      mload(0x40)\n      0x08c379a000000000000000000000000000000000000000000000000000000000\n      dup2\n      mstore\n      0x04\n      add\n      tag_98\n      swap1\n      tag_99\n      jump\t// in\n    tag_98:\n      mload(0x40)\n      dup1\n      swap2\n      sub\n      swap1\n      revert\n    tag_97:\n        /* \"contracts/shiba.sol\":956:957  c */\n      dup1\n        /* \"contracts/shiba.sol\":949:957  return c */\n      swap2\n      pop\n      pop\n        /* \"contracts/shiba.sol\":786:965  function add(uint256 a, uint256 b) internal pure returns (uint256) {\r... */\n      swap3\n      swap2\n      pop\n      pop\n      jump\t// out\n        /* \"#utility.yul\":7:146   */\n    tag_101:\n      0x00\n        /* \"#utility.yul\":91:97   */\n      dup2\n        /* \"#utility.yul\":78:98   */\n      calldataload\n        /* \"#utility.yul\":69:98   */\n      swap1\n      pop\n        /* \"#utility.yul\":107:140   */\n      tag_103\n        /* \"#utility.yul\":134:139   */\n      dup2\n        /* \"#utility.yul\":107:140   */\n      tag_104\n      jump\t// in\n    tag_103:\n        /* \"#utility.yul\":59:146   */\n      swap3\n      swap2\n      pop\n      pop\n      jump\t// out\n        /* \"#utility.yul\":152:291   */\n    tag_105:\n      0x00\n        /* \"#utility.yul\":236:242   */\n      dup2\n        /* \"#utility.yul\":223:243   */\n      calldataload\n        /* \"#utility.yul\":214:243   */\n      swap1\n      pop\n        /* \"#utility.yul\":252:285   */\n      tag_107\n        /* \"#utility.yul\":279:284   */\n      dup2\n        /* \"#utility.yul\":252:285   */\n      tag_108\n      jump\t// in\n    tag_107:\n        /* \"#utility.yul\":204:291   */\n      swap3\n      swap2\n      pop\n      pop\n      jump\t// out\n        /* \"#utility.yul\":297:559   */\n    tag_33:\n      0x00\n        /* \"#utility.yul\":405:407   */\n      0x20\n        /* \"#utility.yul\":393:402   */\n      dup3\n        /* \"#utility.yul\":384:391   */\n      dup5\n        /* \"#utility.yul\":380:403   */\n      sub\n        /* \"#utility.yul\":376:408   */\n      slt\n        /* \"#utility.yul\":373:375   */\n      iszero\n      tag_110\n      jumpi\n        /* \"#utility.yul\":421:422   */\n      0x00\n        /* \"#utility.yul\":418:419   */\n      dup1\n        /* \"#utility.yul\":411:423   */\n      revert\n        /* \"#utility.yul\":373:375   */\n    tag_110:\n        /* \"#utility.yul\":464:465   */\n      0x00\n        /* \"#utility.yul\":489:542   */\n      tag_111\n        /* \"#utility.yul\":534:541   */\n      dup5\n        /* \"#utility.yul\":525:531   */\n      dup3\n        /* \"#utility.yul\":514:523   */\n      dup6\n        /* \"#utility.yul\":510:532   */\n      add\n        /* \"#utility.yul\":489:542   */\n      tag_101\n      jump\t// in\n    tag_111:\n        /* \"#utility.yul\":479:542   */\n      swap2\n      pop\n        /* \"#utility.yul\":435:552   */\n      pop\n        /* \"#utility.yul\":363:559   */\n      swap3\n      swap2\n      pop\n      pop\n      jump\t// out\n        /* \"#utility.yul\":565:972   */\n    tag_46:\n      0x00\n      dup1\n        /* \"#utility.yul\":690:692   */\n      0x40\n        /* \"#utility.yul\":678:687   */\n      dup4\n        /* \"#utility.yul\":669:676   */\n      dup6\n        /* \"#utility.yul\":665:688   */\n      sub\n        /* \"#utility.yul\":661:693   */\n      slt\n        /* \"#utility.yul\":658:660   */\n      iszero\n      tag_113\n      jumpi\n        /* \"#utility.yul\":706:707   */\n      0x00\n        /* \"#utility.yul\":703:704   */\n      dup1\n        /* \"#utility.yul\":696:708   */\n      revert\n        /* \"#utility.yul\":658:660   */\n    tag_113:\n        /* \"#utility.yul\":749:750   */\n      0x00\n        /* \"#utility.yul\":774:827   */\n      tag_114\n        /* \"#utility.yul\":819:826   */\n      dup6\n        /* \"#utility.yul\":810:816   */\n      dup3\n        /* \"#utility.yul\":799:808   */\n      dup7\n        /* \"#utility.yul\":795:817   */\n      add\n        /* \"#utility.yul\":774:827   */\n      tag_101\n      jump\t// in\n    tag_114:\n        /* \"#utility.yul\":764:827   */\n      swap3\n      pop\n        /* \"#utility.yul\":720:837   */\n      pop\n        /* \"#utility.yul\":876:878   */\n      0x20\n        /* \"#utility.yul\":902:955   */\n      tag_115\n        /* \"#utility.yul\":947:954   */\n      dup6\n        /* \"#utility.yul\":938:944   */\n      dup3\n        /* \"#utility.yul\":927:936   */\n      dup7\n        /* \"#utility.yul\":923:945   */\n      add\n        /* \"#utility.yul\":902:955   */\n      tag_101\n      jump\t// in\n    tag_115:\n        /* \"#utility.yul\":892:955   */\n      swap2\n      pop\n        /* \"#utility.yul\":847:965   */\n      pop\n        /* \"#utility.yul\":648:972   */\n      swap3\n      pop\n      swap3\n      swap1\n      pop\n      jump\t// out\n        /* \"#utility.yul\":978:1530   */\n    tag_24:\n      0x00\n      dup1\n      0x00\n        /* \"#utility.yul\":1120:1122   */\n      0x60\n        /* \"#utility.yul\":1108:1117   */\n      dup5\n        /* \"#utility.yul\":1099:1106   */\n      dup7\n        /* \"#utility.yul\":1095:1118   */\n      sub\n        /* \"#utility.yul\":1091:1123   */\n      slt\n        /* \"#utility.yul\":1088:1090   */\n      iszero\n      tag_117\n      jumpi\n        /* \"#utility.yul\":1136:1137   */\n      0x00\n        /* \"#utility.yul\":1133:1134   */\n      dup1\n        /* \"#utility.yul\":1126:1138   */\n      revert\n        /* \"#utility.yul\":1088:1090   */\n    tag_117:\n        /* \"#utility.yul\":1179:1180   */\n      0x00\n        /* \"#utility.yul\":1204:1257   */\n      tag_118\n        /* \"#utility.yul\":1249:1256   */\n      dup7\n        /* \"#utility.yul\":1240:1246   */\n      dup3\n        /* \"#utility.yul\":1229:1238   */\n      dup8\n        /* \"#utility.yul\":1225:1247   */\n      add\n        /* \"#utility.yul\":1204:1257   */\n      tag_101\n      jump\t// in\n    tag_118:\n        /* \"#utility.yul\":1194:1257   */\n      swap4\n      pop\n        /* \"#utility.yul\":1150:1267   */\n      pop\n        /* \"#utility.yul\":1306:1308   */\n      0x20\n        /* \"#utility.yul\":1332:1385   */\n      tag_119\n        /* \"#utility.yul\":1377:1384   */\n      dup7\n        /* \"#utility.yul\":1368:1374   */\n      dup3\n        /* \"#utility.yul\":1357:1366   */\n      dup8\n        /* \"#utility.yul\":1353:1375   */\n      add\n        /* \"#utility.yul\":1332:1385   */\n      tag_101\n      jump\t// in\n    tag_119:\n        /* \"#utility.yul\":1322:1385   */\n      swap3\n      pop\n        /* \"#utility.yul\":1277:1395   */\n      pop\n        /* \"#utility.yul\":1434:1436   */\n      0x40\n        /* \"#utility.yul\":1460:1513   */\n      tag_120\n        /* \"#utility.yul\":1505:1512   */\n      dup7\n        /* \"#utility.yul\":1496:1502   */\n      dup3\n        /* \"#utility.yul\":1485:1494   */\n      dup8\n        /* \"#utility.yul\":1481:1503   */\n      add\n        /* \"#utility.yul\":1460:1513   */\n      tag_105\n      jump\t// in\n    tag_120:\n        /* \"#utility.yul\":1450:1513   */\n      swap2\n      pop\n        /* \"#utility.yul\":1405:1523   */\n      pop\n        /* \"#utility.yul\":1078:1530   */\n      swap3\n      pop\n      swap3\n      pop\n      swap3\n      jump\t// out\n        /* \"#utility.yul\":1536:1943   */\n    tag_14:\n      0x00\n      dup1\n        /* \"#utility.yul\":1661:1663   */\n      0x40\n        /* \"#utility.yul\":1649:1658   */\n      dup4\n        /* \"#utility.yul\":1640:1647   */\n      dup6\n        /* \"#utility.yul\":1636:1659   */\n      sub\n        /* \"#utility.yul\":1632:1664   */\n      slt\n        /* \"#utility.yul\":1629:1631   */\n      iszero\n      tag_122\n      jumpi\n        /* \"#utility.yul\":1677:1678   */\n      0x00\n        /* \"#utility.yul\":1674:1675   */\n      dup1\n        /* \"#utility.yul\":1667:1679   */\n      revert\n        /* \"#utility.yul\":1629:1631   */\n    tag_122:\n        /* \"#utility.yul\":1720:1721   */\n      0x00\n        /* \"#utility.yul\":1745:1798   */\n      tag_123\n        /* \"#utility.yul\":1790:1797   */\n      dup6\n        /* \"#utility.yul\":1781:1787   */\n      dup3\n        /* \"#utility.yul\":1770:1779   */\n      dup7\n        /* \"#utility.yul\":1766:1788   */\n      add\n        /* \"#utility.yul\":1745:1798   */\n      tag_101\n      jump\t// in\n    tag_123:\n        /* \"#utility.yul\":1735:1798   */\n      swap3\n      pop\n        /* \"#utility.yul\":1691:1808   */\n      pop\n        /* \"#utility.yul\":1847:1849   */\n      0x20\n        /* \"#utility.yul\":1873:1926   */\n      tag_124\n        /* \"#utility.yul\":1918:1925   */\n      dup6\n        /* \"#utility.yul\":1909:1915   */\n      dup3\n        /* \"#utility.yul\":1898:1907   */\n      dup7\n        /* \"#utility.yul\":1894:1916   */\n      add\n        /* \"#utility.yul\":1873:1926   */\n      tag_105\n      jump\t// in\n    tag_124:\n        /* \"#utility.yul\":1863:1926   */\n      swap2\n      pop\n        /* \"#utility.yul\":1818:1936   */\n      pop\n        /* \"#utility.yul\":1619:1943   */\n      swap3\n      pop\n      swap3\n      swap1\n      pop\n      jump\t// out\n        /* \"#utility.yul\":1949:2058   */\n    tag_125:\n        /* \"#utility.yul\":2030:2051   */\n      tag_127\n        /* \"#utility.yul\":2045:2050   */\n      dup2\n        /* \"#utility.yul\":2030:2051   */\n      tag_128\n      jump\t// in\n    tag_127:\n        /* \"#utility.yul\":2025:2028   */\n      dup3\n        /* \"#utility.yul\":2018:2052   */\n      mstore\n        /* \"#utility.yul\":2008:2058   */\n      pop\n      pop\n      jump\t// out\n        /* \"#utility.yul\":2064:2431   */\n    tag_129:\n      0x00\n        /* \"#utility.yul\":2227:2294   */\n      tag_131\n        /* \"#utility.yul\":2291:2293   */\n      0x23\n        /* \"#utility.yul\":2286:2289   */\n      dup4\n        /* \"#utility.yul\":2227:2294   */\n      tag_132\n      jump\t// in\n    tag_131:\n        /* \"#utility.yul\":2220:2294   */\n      swap2\n      pop\n        /* \"#utility.yul\":2324:2358   */\n      0x45524332303a207472616e7366657220746f20746865207a65726f2061646472\n        /* \"#utility.yul\":2320:2321   */\n      0x00\n        /* \"#utility.yul\":2315:2318   */\n      dup4\n        /* \"#utility.yul\":2311:2322   */\n      add\n        /* \"#utility.yul\":2304:2359   */\n      mstore\n        /* \"#utility.yul\":2390:2395   */\n      0x6573730000000000000000000000000000000000000000000000000000000000\n        /* \"#utility.yul\":2385:2387   */\n      0x20\n        /* \"#utility.yul\":2380:2383   */\n      dup4\n        /* \"#utility.yul\":2376:2388   */\n      add\n        /* \"#utility.yul\":2369:2396   */\n      mstore\n        /* \"#utility.yul\":2422:2424   */\n      0x40\n        /* \"#utility.yul\":2417:2420   */\n      dup3\n        /* \"#utility.yul\":2413:2425   */\n      add\n        /* \"#utility.yul\":2406:2425   */\n      swap1\n      pop\n        /* \"#utility.yul\":2210:2431   */\n      swap2\n      swap1\n      pop\n      jump\t// out\n        /* \"#utility.yul\":2437:2803   */\n    tag_133:\n      0x00\n        /* \"#utility.yul\":2600:2667   */\n      tag_135\n        /* \"#utility.yul\":2664:2666   */\n      0x22\n        /* \"#utility.yul\":2659:2662   */\n      dup4\n        /* \"#utility.yul\":2600:2667   */\n      tag_132\n      jump\t// in\n    tag_135:\n        /* \"#utility.yul\":2593:2667   */\n      swap2\n      pop\n        /* \"#utility.yul\":2697:2731   */\n      0x45524332303a20617070726f766520746f20746865207a65726f206164647265\n        /* \"#utility.yul\":2693:2694   */\n      0x00\n        /* \"#utility.yul\":2688:2691   */\n      dup4\n        /* \"#utility.yul\":2684:2695   */\n      add\n        /* \"#utility.yul\":2677:2732   */\n      mstore\n        /* \"#utility.yul\":2763:2767   */\n      0x7373000000000000000000000000000000000000000000000000000000000000\n        /* \"#utility.yul\":2758:2760   */\n      0x20\n        /* \"#utility.yul\":2753:2756   */\n      dup4\n        /* \"#utility.yul\":2749:2761   */\n      add\n        /* \"#utility.yul\":2742:2768   */\n      mstore\n        /* \"#utility.yul\":2794:2796   */\n      0x40\n        /* \"#utility.yul\":2789:2792   */\n      dup3\n        /* \"#utility.yul\":2785:2797   */\n      add\n        /* \"#utility.yul\":2778:2797   */\n      swap1\n      pop\n        /* \"#utility.yul\":2583:2803   */\n      swap2\n      swap1\n      pop\n      jump\t// out\n        /* \"#utility.yul\":2809:3134   */\n    tag_136:\n      0x00\n        /* \"#utility.yul\":2972:3039   */\n      tag_138\n        /* \"#utility.yul\":3036:3038   */\n      0x1b\n        /* \"#utility.yul\":3031:3034   */\n      dup4\n        /* \"#utility.yul\":2972:3039   */\n      tag_132\n      jump\t// in\n    tag_138:\n        /* \"#utility.yul\":2965:3039   */\n      swap2\n      pop\n        /* \"#utility.yul\":3069:3098   */\n      0x536166654d6174683a206164646974696f6e206f766572666c6f770000000000\n        /* \"#utility.yul\":3065:3066   */\n      0x00\n        /* \"#utility.yul\":3060:3063   */\n      dup4\n        /* \"#utility.yul\":3056:3067   */\n      add\n        /* \"#utility.yul\":3049:3099   */\n      mstore\n        /* \"#utility.yul\":3125:3127   */\n      0x20\n        /* \"#utility.yul\":3120:3123   */\n      dup3\n        /* \"#utility.yul\":3116:3128   */\n      add\n        /* \"#utility.yul\":3109:3128   */\n      swap1\n      pop\n        /* \"#utility.yul\":2955:3134   */\n      swap2\n      swap1\n      pop\n      jump\t// out\n        /* \"#utility.yul\":3140:3468   */\n    tag_139:\n      0x00\n        /* \"#utility.yul\":3303:3370   */\n      tag_141\n        /* \"#utility.yul\":3367:3369   */\n      0x1e\n        /* \"#utility.yul\":3362:3365   */\n      dup4\n        /* \"#utility.yul\":3303:3370   */\n      tag_132\n      jump\t// in\n    tag_141:\n        /* \"#utility.yul\":3296:3370   */\n      swap2\n      pop\n        /* \"#utility.yul\":3400:3432   */\n      0x536166654d6174683a207375627472616374696f6e206f766572666c6f770000\n        /* \"#utility.yul\":3396:3397   */\n      0x00\n        /* \"#utility.yul\":3391:3394   */\n      dup4\n        /* \"#utility.yul\":3387:3398   */\n      add\n        /* \"#utility.yul\":3380:3433   */\n      mstore\n        /* \"#utility.yul\":3459:3461   */\n      0x20\n        /* \"#utility.yul\":3454:3457   */\n      dup3\n        /* \"#utility.yul\":3450:3462   */\n      add\n        /* \"#utility.yul\":3443:3462   */\n      swap1\n      pop\n        /* \"#utility.yul\":3286:3468   */\n      swap2\n      swap1\n      pop\n      jump\t// out\n        /* \"#utility.yul\":3474:3843   */\n    tag_142:\n      0x00\n        /* \"#utility.yul\":3637:3704   */\n      tag_144\n        /* \"#utility.yul\":3701:3703   */\n      0x25\n        /* \"#utility.yul\":3696:3699   */\n      dup4\n        /* \"#utility.yul\":3637:3704   */\n      tag_132\n      jump\t// in\n    tag_144:\n        /* \"#utility.yul\":3630:3704   */\n      swap2\n      pop\n        /* \"#utility.yul\":3734:3768   */\n      0x45524332303a207472616e736665722066726f6d20746865207a65726f206164\n        /* \"#utility.yul\":3730:3731   */\n      0x00\n        /* \"#utility.yul\":3725:3728   */\n      dup4\n        /* \"#utility.yul\":3721:3732   */\n      add\n        /* \"#utility.yul\":3714:3769   */\n      mstore\n        /* \"#utility.yul\":3800:3807   */\n      0x6472657373000000000000000000000000000000000000000000000000000000\n        /* \"#utility.yul\":3795:3797   */\n      0x20\n        /* \"#utility.yul\":3790:3793   */\n      dup4\n        /* \"#utility.yul\":3786:3798   */\n      add\n        /* \"#utility.yul\":3779:3808   */\n      mstore\n        /* \"#utility.yul\":3834:3836   */\n      0x40\n        /* \"#utility.yul\":3829:3832   */\n      dup3\n        /* \"#utility.yul\":3825:3837   */\n      add\n        /* \"#utility.yul\":3818:3837   */\n      swap1\n      pop\n        /* \"#utility.yul\":3620:3843   */\n      swap2\n      swap1\n      pop\n      jump\t// out\n        /* \"#utility.yul\":3849:4217   */\n    tag_145:\n      0x00\n        /* \"#utility.yul\":4012:4079   */\n      tag_147\n        /* \"#utility.yul\":4076:4078   */\n      0x24\n        /* \"#utility.yul\":4071:4074   */\n      dup4\n        /* \"#utility.yul\":4012:4079   */\n      tag_132\n      jump\t// in\n    tag_147:\n        /* \"#utility.yul\":4005:4079   */\n      swap2\n      pop\n        /* \"#utility.yul\":4109:4143   */\n      0x45524332303a20617070726f76652066726f6d20746865207a65726f20616464\n        /* \"#utility.yul\":4105:4106   */\n      0x00\n        /* \"#utility.yul\":4100:4103   */\n      dup4\n        /* \"#utility.yul\":4096:4107   */\n      add\n        /* \"#utility.yul\":4089:4144   */\n      mstore\n        /* \"#utility.yul\":4175:4181   */\n      0x7265737300000000000000000000000000000000000000000000000000000000\n        /* \"#utility.yul\":4170:4172   */\n      0x20\n        /* \"#utility.yul\":4165:4168   */\n      dup4\n        /* \"#utility.yul\":4161:4173   */\n      add\n        /* \"#utility.yul\":4154:4182   */\n      mstore\n        /* \"#utility.yul\":4208:4210   */\n      0x40\n        /* \"#utility.yul\":4203:4206   */\n      dup3\n        /* \"#utility.yul\":4199:4211   */\n      add\n        /* \"#utility.yul\":4192:4211   */\n      swap1\n      pop\n        /* \"#utility.yul\":3995:4217   */\n      swap2\n      swap1\n      pop\n      jump\t// out\n        /* \"#utility.yul\":4223:4341   */\n    tag_148:\n        /* \"#utility.yul\":4310:4334   */\n      tag_150\n        /* \"#utility.yul\":4328:4333   */\n      dup2\n        /* \"#utility.yul\":4310:4334   */\n      tag_151\n      jump\t// in\n    tag_150:\n        /* \"#utility.yul\":4305:4308   */\n      dup3\n        /* \"#utility.yul\":4298:4335   */\n      mstore\n        /* \"#utility.yul\":4288:4341   */\n      pop\n      pop\n      jump\t// out\n        /* \"#utility.yul\":4347:4557   */\n    tag_17:\n      0x00\n        /* \"#utility.yul\":4472:4474   */\n      0x20\n        /* \"#utility.yul\":4461:4470   */\n      dup3\n        /* \"#utility.yul\":4457:4475   */\n      add\n        /* \"#utility.yul\":4449:4475   */\n      swap1\n      pop\n        /* \"#utility.yul\":4485:4550   */\n      tag_153\n        /* \"#utility.yul\":4547:4548   */\n      0x00\n        /* \"#utility.yul\":4536:4545   */\n      dup4\n        /* \"#utility.yul\":4532:4549   */\n      add\n        /* \"#utility.yul\":4523:4529   */\n      dup5\n        /* \"#utility.yul\":4485:4550   */\n      tag_125\n      jump\t// in\n    tag_153:\n        /* \"#utility.yul\":4439:4557   */\n      swap3\n      swap2\n      pop\n      pop\n      jump\t// out\n        /* \"#utility.yul\":4563:4982   */\n    tag_84:\n      0x00\n        /* \"#utility.yul\":4767:4769   */\n      0x20\n        /* \"#utility.yul\":4756:4765   */\n      dup3\n        /* \"#utility.yul\":4752:4770   */\n      add\n        /* \"#utility.yul\":4744:4770   */\n      swap1\n      pop\n        /* \"#utility.yul\":4816:4825   */\n      dup2\n        /* \"#utility.yul\":4810:4814   */\n      dup2\n        /* \"#utility.yul\":4806:4826   */\n      sub\n        /* \"#utility.yul\":4802:4803   */\n      0x00\n        /* \"#utility.yul\":4791:4800   */\n      dup4\n        /* \"#utility.yul\":4787:4804   */\n      add\n        /* \"#utility.yul\":4780:4827   */\n      mstore\n        /* \"#utility.yul\":4844:4975   */\n      tag_155\n        /* \"#utility.yul\":4970:4974   */\n      dup2\n        /* \"#utility.yul\":4844:4975   */\n      tag_129\n      jump\t// in\n    tag_155:\n        /* \"#utility.yul\":4836:4975   */\n      swap1\n      pop\n        /* \"#utility.yul\":4734:4982   */\n      swap2\n      swap1\n      pop\n      jump\t// out\n        /* \"#utility.yul\":4988:5407   */\n    tag_76:\n      0x00\n        /* \"#utility.yul\":5192:5194   */\n      0x20\n        /* \"#utility.yul\":5181:5190   */\n      dup3\n        /* \"#utility.yul\":5177:5195   */\n      add\n        /* \"#utility.yul\":5169:5195   */\n      swap1\n      pop\n        /* \"#utility.yul\":5241:5250   */\n      dup2\n        /* \"#utility.yul\":5235:5239   */\n      dup2\n        /* \"#utility.yul\":5231:5251   */\n      sub\n        /* \"#utility.yul\":5227:5228   */\n      0x00\n        /* \"#utility.yul\":5216:5225   */\n      dup4\n        /* \"#utility.yul\":5212:5229   */\n      add\n        /* \"#utility.yul\":5205:5252   */\n      mstore\n        /* \"#utility.yul\":5269:5400   */\n      tag_157\n        /* \"#utility.yul\":5395:5399   */\n      dup2\n        /* \"#utility.yul\":5269:5400   */\n      tag_133\n      jump\t// in\n    tag_157:\n        /* \"#utility.yul\":5261:5400   */\n      swap1\n      pop\n        /* \"#utility.yul\":5159:5407   */\n      swap2\n      swap1\n      pop\n      jump\t// out\n        /* \"#utility.yul\":5413:5832   */\n    tag_99:\n      0x00\n        /* \"#utility.yul\":5617:5619   */\n      0x20\n        /* \"#utility.yul\":5606:5615   */\n      dup3\n        /* \"#utility.yul\":5602:5620   */\n      add\n        /* \"#utility.yul\":5594:5620   */\n      swap1\n      pop\n        /* \"#utility.yul\":5666:5675   */\n      dup2\n        /* \"#utility.yul\":5660:5664   */\n      dup2\n        /* \"#utility.yul\":5656:5676   */\n      sub\n        /* \"#utility.yul\":5652:5653   */\n      0x00\n        /* \"#utility.yul\":5641:5650   */\n      dup4\n        /* \"#utility.yul\":5637:5654   */\n      add\n        /* \"#utility.yul\":5630:5677   */\n      mstore\n        /* \"#utility.yul\":5694:5825   */\n      tag_159\n        /* \"#utility.yul\":5820:5824   */\n      dup2\n        /* \"#utility.yul\":5694:5825   */\n      tag_136\n      jump\t// in\n    tag_159:\n        /* \"#utility.yul\":5686:5825   */\n      swap1\n      pop\n        /* \"#utility.yul\":5584:5832   */\n      swap2\n      swap1\n      pop\n      jump\t// out\n        /* \"#utility.yul\":5838:6257   */\n    tag_91:\n      0x00\n        /* \"#utility.yul\":6042:6044   */\n      0x20\n        /* \"#utility.yul\":6031:6040   */\n      dup3\n        /* \"#utility.yul\":6027:6045   */\n      add\n        /* \"#utility.yul\":6019:6045   */\n      swap1\n      pop\n        /* \"#utility.yul\":6091:6100   */\n      dup2\n        /* \"#utility.yul\":6085:6089   */\n      dup2\n        /* \"#utility.yul\":6081:6101   */\n      sub\n        /* \"#utility.yul\":6077:6078   */\n      0x00\n        /* \"#utility.yul\":6066:6075   */\n      dup4\n        /* \"#utility.yul\":6062:6079   */\n      add\n        /* \"#utility.yul\":6055:6102   */\n      mstore\n        /* \"#utility.yul\":6119:6250   */\n      tag_161\n        /* \"#utility.yul\":6245:6249   */\n      dup2\n        /* \"#utility.yul\":6119:6250   */\n      tag_139\n      jump\t// in\n    tag_161:\n        /* \"#utility.yul\":6111:6250   */\n      swap1\n      pop\n        /* \"#utility.yul\":6009:6257   */\n      swap2\n      swap1\n      pop\n      jump\t// out\n        /* \"#utility.yul\":6263:6682   */\n    tag_81:\n      0x00\n        /* \"#utility.yul\":6467:6469   */\n      0x20\n        /* \"#utility.yul\":6456:6465   */\n      dup3\n        /* \"#utility.yul\":6452:6470   */\n      add\n        /* \"#utility.yul\":6444:6470   */\n      swap1\n      pop\n        /* \"#utility.yul\":6516:6525   */\n      dup2\n        /* \"#utility.yul\":6510:6514   */\n      dup2\n        /* \"#utility.yul\":6506:6526   */\n      sub\n        /* \"#utility.yul\":6502:6503   */\n      0x00\n        /* \"#utility.yul\":6491:6500   */\n      dup4\n        /* \"#utility.yul\":6487:6504   */\n      add\n        /* \"#utility.yul\":6480:6527   */\n      mstore\n        /* \"#utility.yul\":6544:6675   */\n      tag_163\n        /* \"#utility.yul\":6670:6674   */\n      dup2\n        /* \"#utility.yul\":6544:6675   */\n      tag_142\n      jump\t// in\n    tag_163:\n        /* \"#utility.yul\":6536:6675   */\n      swap1\n      pop\n        /* \"#utility.yul\":6434:6682   */\n      swap2\n      swap1\n      pop\n      jump\t// out\n        /* \"#utility.yul\":6688:7107   */\n    tag_73:\n      0x00\n        /* \"#utility.yul\":6892:6894   */\n      0x20\n        /* \"#utility.yul\":6881:6890   */\n      dup3\n        /* \"#utility.yul\":6877:6895   */\n      add\n        /* \"#utility.yul\":6869:6895   */\n      swap1\n      pop\n        /* \"#utility.yul\":6941:6950   */\n      dup2\n        /* \"#utility.yul\":6935:6939   */\n      dup2\n        /* \"#utility.yul\":6931:6951   */\n      sub\n        /* \"#utility.yul\":6927:6928   */\n      0x00\n        /* \"#utility.yul\":6916:6925   */\n      dup4\n        /* \"#utility.yul\":6912:6929   */\n      add\n        /* \"#utility.yul\":6905:6952   */\n      mstore\n        /* \"#utility.yul\":6969:7100   */\n      tag_165\n        /* \"#utility.yul\":7095:7099   */\n      dup2\n        /* \"#utility.yul\":6969:7100   */\n      tag_145\n      jump\t// in\n    tag_165:\n        /* \"#utility.yul\":6961:7100   */\n      swap1\n      pop\n        /* \"#utility.yul\":6859:7107   */\n      swap2\n      swap1\n      pop\n      jump\t// out\n        /* \"#utility.yul\":7113:7335   */\n    tag_21:\n      0x00\n        /* \"#utility.yul\":7244:7246   */\n      0x20\n        /* \"#utility.yul\":7233:7242   */\n      dup3\n        /* \"#utility.yul\":7229:7247   */\n      add\n        /* \"#utility.yul\":7221:7247   */\n      swap1\n      pop\n        /* \"#utility.yul\":7257:7328   */\n      tag_167\n        /* \"#utility.yul\":7325:7326   */\n      0x00\n        /* \"#utility.yul\":7314:7323   */\n      dup4\n        /* \"#utility.yul\":7310:7327   */\n      add\n        /* \"#utility.yul\":7301:7307   */\n      dup5\n        /* \"#utility.yul\":7257:7328   */\n      tag_148\n      jump\t// in\n    tag_167:\n        /* \"#utility.yul\":7211:7335   */\n      swap3\n      swap2\n      pop\n      pop\n      jump\t// out\n        /* \"#utility.yul\":7341:7510   */\n    tag_132:\n      0x00\n        /* \"#utility.yul\":7459:7465   */\n      dup3\n        /* \"#utility.yul\":7454:7457   */\n      dup3\n        /* \"#utility.yul\":7447:7466   */\n      mstore\n        /* \"#utility.yul\":7499:7503   */\n      0x20\n        /* \"#utility.yul\":7494:7497   */\n      dup3\n        /* \"#utility.yul\":7490:7504   */\n      add\n        /* \"#utility.yul\":7475:7504   */\n      swap1\n      pop\n        /* \"#utility.yul\":7437:7510   */\n      swap3\n      swap2\n      pop\n      pop\n      jump\t// out\n        /* \"#utility.yul\":7516:7821   */\n    tag_96:\n      0x00\n        /* \"#utility.yul\":7575:7595   */\n      tag_170\n        /* \"#utility.yul\":7593:7594   */\n      dup3\n        /* \"#utility.yul\":7575:7595   */\n      tag_151\n      jump\t// in\n    tag_170:\n        /* \"#utility.yul\":7570:7595   */\n      swap2\n      pop\n        /* \"#utility.yul\":7609:7629   */\n      tag_171\n        /* \"#utility.yul\":7627:7628   */\n      dup4\n        /* \"#utility.yul\":7609:7629   */\n      tag_151\n      jump\t// in\n    tag_171:\n        /* \"#utility.yul\":7604:7629   */\n      swap3\n      pop\n        /* \"#utility.yul\":7763:7764   */\n      dup3\n        /* \"#utility.yul\":7695:7761   */\n      0xffffffffffffffffffffffffffffffffffffffffffffffffffffffffffffffff\n        /* \"#utility.yul\":7691:7765   */\n      sub\n        /* \"#utility.yul\":7688:7689   */\n      dup3\n        /* \"#utility.yul\":7685:7766   */\n      gt\n        /* \"#utility.yul\":7682:7684   */\n      iszero\n      tag_172\n      jumpi\n        /* \"#utility.yul\":7769:7787   */\n      tag_173\n      tag_174\n      jump\t// in\n    tag_173:\n        /* \"#utility.yul\":7682:7684   */\n    tag_172:\n        /* \"#utility.yul\":7813:7814   */\n      dup3\n        /* \"#utility.yul\":7810:7811   */\n      dup3\n        /* \"#utility.yul\":7806:7815   */\n      add\n        /* \"#utility.yul\":7799:7815   */\n      swap1\n      pop\n        /* \"#utility.yul\":7560:7821   */\n      swap3\n      swap2\n      pop\n      pop\n      jump\t// out\n        /* \"#utility.yul\":7827:8018   */\n    tag_93:\n      0x00\n        /* \"#utility.yul\":7887:7907   */\n      tag_176\n        /* \"#utility.yul\":7905:7906   */\n      dup3\n        /* \"#utility.yul\":7887:7907   */\n      tag_151\n      jump\t// in\n    tag_176:\n        /* \"#utility.yul\":7882:7907   */\n      swap2\n      pop\n        /* \"#utility.yul\":7921:7941   */\n      tag_177\n        /* \"#utility.yul\":7939:7940   */\n      dup4\n        /* \"#utility.yul\":7921:7941   */\n      tag_151\n      jump\t// in\n    tag_177:\n        /* \"#utility.yul\":7916:7941   */\n      swap3\n      pop\n        /* \"#utility.yul\":7960:7961   */\n      dup3\n        /* \"#utility.yul\":7957:7958   */\n      dup3\n        /* \"#utility.yul\":7954:7962   */\n      lt\n        /* \"#utility.yul\":7951:7953   */\n      iszero\n      tag_178\n      jumpi\n        /* \"#utility.yul\":7965:7983   */\n      tag_179\n      tag_174\n      jump\t// in\n    tag_179:\n        /* \"#utility.yul\":7951:7953   */\n    tag_178:\n        /* \"#utility.yul\":8010:8011   */\n      dup3\n        /* \"#utility.yul\":8007:8008   */\n      dup3\n        /* \"#utility.yul\":8003:8012   */\n      sub\n        /* \"#utility.yul\":7995:8012   */\n      swap1\n      pop\n        /* \"#utility.yul\":7872:8018   */\n      swap3\n      swap2\n      pop\n      pop\n      jump\t// out\n        /* \"#utility.yul\":8024:8120   */\n    tag_180:\n      0x00\n        /* \"#utility.yul\":8090:8114   */\n      tag_182\n        /* \"#utility.yul\":8108:8113   */\n      dup3\n        /* \"#utility.yul\":8090:8114   */\n      tag_183\n      jump\t// in\n    tag_182:\n        /* \"#utility.yul\":8079:8114   */\n      swap1\n      pop\n        /* \"#utility.yul\":8069:8120   */\n      swap2\n      swap1\n      pop\n      jump\t// out\n        /* \"#utility.yul\":8126:8216   */\n    tag_128:\n      0x00\n        /* \"#utility.yul\":8203:8208   */\n      dup2\n        /* \"#utility.yul\":8196:8209   */\n      iszero\n        /* \"#utility.yul\":8189:8210   */\n      iszero\n        /* \"#utility.yul\":8178:8210   */\n      swap1\n      pop\n        /* \"#utility.yul\":8168:8216   */\n      swap2\n      swap1\n      pop\n      jump\t// out\n        /* \"#utility.yul\":8222:8348   */\n    tag_183:\n      0x00\n        /* \"#utility.yul\":8299:8341   */\n      0xffffffffffffffffffffffffffffffffffffffff\n        /* \"#utility.yul\":8292:8297   */\n      dup3\n        /* \"#utility.yul\":8288:8342   */\n      and\n        /* \"#utility.yul\":8277:8342   */\n      swap1\n      pop\n        /* \"#utility.yul\":8267:8348   */\n      swap2\n      swap1\n      pop\n      jump\t// out\n        /* \"#utility.yul\":8354:8431   */\n    tag_151:\n      0x00\n        /* \"#utility.yul\":8420:8425   */\n      dup2\n        /* \"#utility.yul\":8409:8425   */\n      swap1\n      pop\n        /* \"#utility.yul\":8399:8431   */\n      swap2\n      swap1\n      pop\n      jump\t// out\n        /* \"#utility.yul\":8437:8617   */\n    tag_174:\n        /* \"#utility.yul\":8485:8562   */\n      0x4e487b7100000000000000000000000000000000000000000000000000000000\n        /* \"#utility.yul\":8482:8483   */\n      0x00\n        /* \"#utility.yul\":8475:8563   */\n      mstore\n        /* \"#utility.yul\":8582:8586   */\n      0x11\n        /* \"#utility.yul\":8579:8580   */\n      0x04\n        /* \"#utility.yul\":8572:8587   */\n      mstore\n        /* \"#utility.yul\":8606:8610   */\n      0x24\n        /* \"#utility.yul\":8603:8604   */\n      0x00\n        /* \"#utility.yul\":8596:8611   */\n      revert\n        /* \"#utility.yul\":8623:8745   */\n    tag_104:\n        /* \"#utility.yul\":8696:8720   */\n      tag_189\n        /* \"#utility.yul\":8714:8719   */\n      dup2\n        /* \"#utility.yul\":8696:8720   */\n      tag_180\n      jump\t// in\n    tag_189:\n        /* \"#utility.yul\":8689:8694   */\n      dup2\n        /* \"#utility.yul\":8686:8721   */\n      eq\n        /* \"#utility.yul\":8676:8678   */\n      tag_190\n      jumpi\n        /* \"#utility.yul\":8735:8736   */\n      0x00\n        /* \"#utility.yul\":8732:8733   */\n      dup1\n        /* \"#utility.yul\":8725:8737   */\n      revert\n        /* \"#utility.yul\":8676:8678   */\n    tag_190:\n        /* \"#utility.yul\":8666:8745   */\n      pop\n      jump\t// out\n        /* \"#utility.yul\":8751:8873   */\n    tag_108:\n        /* \"#utility.yul\":8824:8848   */\n      tag_192\n        /* \"#utility.yul\":8842:8847   */\n      dup2\n        /* \"#utility.yul\":8824:8848   */\n      tag_151\n      jump\t// in\n    tag_192:\n        /* \"#utility.yul\":8817:8822   */\n      dup2\n        /* \"#utility.yul\":8814:8849   */\n      eq\n        /* \"#utility.yul\":8804:8806   */\n      tag_193\n      jumpi\n        /* \"#utility.yul\":8863:8864   */\n      0x00\n        /* \"#utility.yul\":8860:8861   */\n      dup1\n        /* \"#utility.yul\":8853:8865   */\n      revert\n        /* \"#utility.yul\":8804:8806   */\n    tag_193:\n        /* \"#utility.yul\":8794:8873   */\n      pop\n      jump\t// out\n\n    auxdata: 0xa2646970667358221220a5a6385eb2f241b913562e59682e3c5870fcea1e75ee83673f975f8abde5bbd364736f6c63430008000033\n}\n",
				"bytecode": {
					"linkReferences": {},
					"object": "608060405234801561001057600080fd5b50610fb1806100206000396000f3fe608060405234801561001057600080fd5b50600436106100885760003560e01c806370a082311161005b57806370a082311461013b578063a457c2d71461016b578063a9059cbb1461019b578063dd62ed3e146101cb57610088565b8063095ea7b31461008d57806318160ddd146100bd57806323b872dd146100db578063395093511461010b575b600080fd5b6100a760048036038101906100a29190610ad3565b6101fb565b6040516100b49190610d45565b60405180910390f35b6100c5610212565b6040516100d29190610e20565b60405180910390f35b6100f560048036038101906100f09190610a84565b61021c565b6040516101029190610d45565b60405180910390f35b61012560048036038101906101209190610ad3565b6102cd565b6040516101329190610d45565b60405180910390f35b61015560048036038101906101509190610a1f565b610372565b6040516101629190610e20565b60405180910390f35b61018560048036038101906101809190610ad3565b6103ba565b6040516101929190610d45565b60405180910390f35b6101b560048036038101906101b09190610ad3565b61045f565b6040516101c29190610d45565b60405180910390f35b6101e560048036038101906101e09190610a48565b610476565b6040516101f29190610e20565b60405180910390f35b60006102083384846104fd565b6001905092915050565b6000600254905090565b60006102298484846106c8565b6102c284336102bd85600160008a73ffffffffffffffffffffffffffffffffffffffff1673ffffffffffffffffffffffffffffffffffffffff16815260200190815260200160002060003373ffffffffffffffffffffffffffffffffffffffff1673ffffffffffffffffffffffffffffffffffffffff1681526020019081526020016000205461093890919063ffffffff16565b6104fd565b600190509392505050565b6000610368338461036385600160003373ffffffffffffffffffffffffffffffffffffffff1673ffffffffffffffffffffffffffffffffffffffff16815260200190815260200160002060008973ffffffffffffffffffffffffffffffffffffffff1673ffffffffffffffffffffffffffffffffffffffff1681526020019081526020016000205461099790919063ffffffff16565b6104fd565b6001905092915050565b60008060008373ffffffffffffffffffffffffffffffffffffffff1673ffffffffffffffffffffffffffffffffffffffff168152602001908152602001600020549050919050565b6000610455338461045085600160003373ffffffffffffffffffffffffffffffffffffffff1673ffffffffffffffffffffffffffffffffffffffff16815260200190815260200160002060008973ffffffffffffffffffffffffffffffffffffffff1673ffffffffffffffffffffffffffffffffffffffff1681526020019081526020016000205461093890919063ffffffff16565b6104fd565b6001905092915050565b600061046c3384846106c8565b6001905092915050565b6000600160008473ffffffffffffffffffffffffffffffffffffffff1673ffffffffffffffffffffffffffffffffffffffff16815260200190815260200160002060008373ffffffffffffffffffffffffffffffffffffffff1673ffffffffffffffffffffffffffffffffffffffff16815260200190815260200160002054905092915050565b600073ffffffffffffffffffffffffffffffffffffffff168373ffffffffffffffffffffffffffffffffffffffff16141561056d576040517f08c379a000000000000000000000000000000000000000000000000000000000815260040161056490610e00565b60405180910390fd5b600073ffffffffffffffffffffffffffffffffffffffff168273ffffffffffffffffffffffffffffffffffffffff1614156105dd576040517f08c379a00000000000000000000000000000000000000000000000000000000081526004016105d490610d80565b60405180910390fd5b80600160008573ffffffffffffffffffffffffffffffffffffffff1673ffffffffffffffffffffffffffffffffffffffff16815260200190815260200160002060008473ffffffffffffffffffffffffffffffffffffffff1673ffffffffffffffffffffffffffffffffffffffff168152602001908152602001600020819055508173ffffffffffffffffffffffffffffffffffffffff168373ffffffffffffffffffffffffffffffffffffffff167f8c5be1e5ebec7d5bd14f71427d1e84f3dd0314c0f7b2291e5b200ac8c7c3b925836040516106bb9190610e20565b60405180910390a3505050565b600073ffffffffffffffffffffffffffffffffffffffff168373ffffffffffffffffffffffffffffffffffffffff161415610738576040517f08c379a000000000000000000000000000000000000000000000000000000000815260040161072f90610de0565b60405180910390fd5b600073ffffffffffffffffffffffffffffffffffffffff168273ffffffffffffffffffffffffffffffffffffffff1614156107a8576040517f08c379a000000000000000000000000000000000000000000000000000000000815260040161079f90610d60565b60405180910390fd5b6107f9816000808673ffffffffffffffffffffffffffffffffffffffff1673ffffffffffffffffffffffffffffffffffffffff1681526020019081526020016000205461093890919063ffffffff16565b6000808573ffffffffffffffffffffffffffffffffffffffff1673ffffffffffffffffffffffffffffffffffffffff1681526020019081526020016000208190555061088c816000808573ffffffffffffffffffffffffffffffffffffffff1673ffffffffffffffffffffffffffffffffffffffff1681526020019081526020016000205461099790919063ffffffff16565b6000808473ffffffffffffffffffffffffffffffffffffffff1673ffffffffffffffffffffffffffffffffffffffff168152602001908152602001600020819055508173ffffffffffffffffffffffffffffffffffffffff168373ffffffffffffffffffffffffffffffffffffffff167fddf252ad1be2c89b69c2b068fc378daa952ba7f163c4a11628f55a4df523b3ef8360405161092b9190610e20565b60405180910390a3505050565b60008282111561097d576040517f08c379a000000000000000000000000000000000000000000000000000000000815260040161097490610dc0565b60405180910390fd5b6000828461098b9190610ea2565b90508091505092915050565b60008082846109a69190610e4c565b9050838110156109eb576040517f08c379a00000000000000000000000000000000000000000000000000000000081526004016109e290610da0565b60405180910390fd5b8091505092915050565b600081359050610a0481610f4d565b92915050565b600081359050610a1981610f64565b92915050565b600060208284031215610a3157600080fd5b6000610a3f848285016109f5565b91505092915050565b60008060408385031215610a5b57600080fd5b6000610a69858286016109f5565b9250506020610a7a858286016109f5565b9150509250929050565b600080600060608486031215610a9957600080fd5b6000610aa7868287016109f5565b9350506020610ab8868287016109f5565b9250506040610ac986828701610a0a565b9150509250925092565b60008060408385031215610ae657600080fd5b6000610af4858286016109f5565b9250506020610b0585828601610a0a565b9150509250929050565b610b1881610ee8565b82525050565b6000610b2b602383610e3b565b91507f45524332303a207472616e7366657220746f20746865207a65726f206164647260008301527f65737300000000000000000000000000000000000000000000000000000000006020830152604082019050919050565b6000610b91602283610e3b565b91507f45524332303a20617070726f766520746f20746865207a65726f20616464726560008301527f73730000000000000000000000000000000000000000000000000000000000006020830152604082019050919050565b6000610bf7601b83610e3b565b91507f536166654d6174683a206164646974696f6e206f766572666c6f7700000000006000830152602082019050919050565b6000610c37601e83610e3b565b91507f536166654d6174683a207375627472616374696f6e206f766572666c6f7700006000830152602082019050919050565b6000610c77602583610e3b565b91507f45524332303a207472616e736665722066726f6d20746865207a65726f20616460008301527f64726573730000000000000000000000000000000000000000000000000000006020830152604082019050919050565b6000610cdd602483610e3b565b91507f45524332303a20617070726f76652066726f6d20746865207a65726f2061646460008301527f72657373000000000000000000000000000000000000000000000000000000006020830152604082019050919050565b610d3f81610f14565b82525050565b6000602082019050610d5a6000830184610b0f565b92915050565b60006020820190508181036000830152610d7981610b1e565b9050919050565b60006020820190508181036000830152610d9981610b84565b9050919050565b60006020820190508181036000830152610db981610bea565b9050919050565b60006020820190508181036000830152610dd981610c2a565b9050919050565b60006020820190508181036000830152610df981610c6a565b9050919050565b60006020820190508181036000830152610e1981610cd0565b9050919050565b6000602082019050610e356000830184610d36565b92915050565b600082825260208201905092915050565b6000610e5782610f14565b9150610e6283610f14565b9250827fffffffffffffffffffffffffffffffffffffffffffffffffffffffffffffffff03821115610e9757610e96610f1e565b5b828201905092915050565b6000610ead82610f14565b9150610eb883610f14565b925082821015610ecb57610eca610f1e565b5b828203905092915050565b6000610ee182610ef4565b9050919050565b60008115159050919050565b600073ffffffffffffffffffffffffffffffffffffffff82169050919050565b6000819050919050565b7f4e487b7100000000000000000000000000000000000000000000000000000000600052601160045260246000fd5b610f5681610ed6565b8114610f6157600080fd5b50565b610f6d81610f14565b8114610f7857600080fd5b5056fea2646970667358221220a5a6385eb2f241b913562e59682e3c5870fcea1e75ee83673f975f8abde5bbd364736f6c63430008000033",
					"opcodes": "PUSH1 0x80 PUSH1 0x40 MSTORE CALLVALUE DUP1 ISZERO PUSH2 0x10 JUMPI PUSH1 0x0 DUP1 REVERT JUMPDEST POP PUSH2 0xFB1 DUP1 PUSH2 0x20 PUSH1 0x0 CODECOPY PUSH1 0x0 RETURN INVALID PUSH1 0x80 PUSH1 0x40 MSTORE CALLVALUE DUP1 ISZERO PUSH2 0x10 JUMPI PUSH1 0x0 DUP1 REVERT JUMPDEST POP PUSH1 0x4 CALLDATASIZE LT PUSH2 0x88 JUMPI PUSH1 0x0 CALLDATALOAD PUSH1 0xE0 SHR DUP1 PUSH4 0x70A08231 GT PUSH2 0x5B JUMPI DUP1 PUSH4 0x70A08231 EQ PUSH2 0x13B JUMPI DUP1 PUSH4 0xA457C2D7 EQ PUSH2 0x16B JUMPI DUP1 PUSH4 0xA9059CBB EQ PUSH2 0x19B JUMPI DUP1 PUSH4 0xDD62ED3E EQ PUSH2 0x1CB JUMPI PUSH2 0x88 JUMP JUMPDEST DUP1 PUSH4 0x95EA7B3 EQ PUSH2 0x8D JUMPI DUP1 PUSH4 0x18160DDD EQ PUSH2 0xBD JUMPI DUP1 PUSH4 0x23B872DD EQ PUSH2 0xDB JUMPI DUP1 PUSH4 0x39509351 EQ PUSH2 0x10B JUMPI JUMPDEST PUSH1 0x0 DUP1 REVERT JUMPDEST PUSH2 0xA7 PUSH1 0x4 DUP1 CALLDATASIZE SUB DUP2 ADD SWAP1 PUSH2 0xA2 SWAP2 SWAP1 PUSH2 0xAD3 JUMP JUMPDEST PUSH2 0x1FB JUMP JUMPDEST PUSH1 0x40 MLOAD PUSH2 0xB4 SWAP2 SWAP1 PUSH2 0xD45 JUMP JUMPDEST PUSH1 0x40 MLOAD DUP1 SWAP2 SUB SWAP1 RETURN JUMPDEST PUSH2 0xC5 PUSH2 0x212 JUMP JUMPDEST PUSH1 0x40 MLOAD PUSH2 0xD2 SWAP2 SWAP1 PUSH2 0xE20 JUMP JUMPDEST PUSH1 0x40 MLOAD DUP1 SWAP2 SUB SWAP1 RETURN JUMPDEST PUSH2 0xF5 PUSH1 0x4 DUP1 CALLDATASIZE SUB DUP2 ADD SWAP1 PUSH2 0xF0 SWAP2 SWAP1 PUSH2 0xA84 JUMP JUMPDEST PUSH2 0x21C JUMP JUMPDEST PUSH1 0x40 MLOAD PUSH2 0x102 SWAP2 SWAP1 PUSH2 0xD45 JUMP JUMPDEST PUSH1 0x40 MLOAD DUP1 SWAP2 SUB SWAP1 RETURN JUMPDEST PUSH2 0x125 PUSH1 0x4 DUP1 CALLDATASIZE SUB DUP2 ADD SWAP1 PUSH2 0x120 SWAP2 SWAP1 PUSH2 0xAD3 JUMP JUMPDEST PUSH2 0x2CD JUMP JUMPDEST PUSH1 0x40 MLOAD PUSH2 0x132 SWAP2 SWAP1 PUSH2 0xD45 JUMP JUMPDEST PUSH1 0x40 MLOAD DUP1 SWAP2 SUB SWAP1 RETURN JUMPDEST PUSH2 0x155 PUSH1 0x4 DUP1 CALLDATASIZE SUB DUP2 ADD SWAP1 PUSH2 0x150 SWAP2 SWAP1 PUSH2 0xA1F JUMP JUMPDEST PUSH2 0x372 JUMP JUMPDEST PUSH1 0x40 MLOAD PUSH2 0x162 SWAP2 SWAP1 PUSH2 0xE20 JUMP JUMPDEST PUSH1 0x40 MLOAD DUP1 SWAP2 SUB SWAP1 RETURN JUMPDEST PUSH2 0x185 PUSH1 0x4 DUP1 CALLDATASIZE SUB DUP2 ADD SWAP1 PUSH2 0x180 SWAP2 SWAP1 PUSH2 0xAD3 JUMP JUMPDEST PUSH2 0x3BA JUMP JUMPDEST PUSH1 0x40 MLOAD PUSH2 0x192 SWAP2 SWAP1 PUSH2 0xD45 JUMP JUMPDEST PUSH1 0x40 MLOAD DUP1 SWAP2 SUB SWAP1 RETURN JUMPDEST PUSH2 0x1B5 PUSH1 0x4 DUP1 CALLDATASIZE SUB DUP2 ADD SWAP1 PUSH2 0x1B0 SWAP2 SWAP1 PUSH2 0xAD3 JUMP JUMPDEST PUSH2 0x45F JUMP JUMPDEST PUSH1 0x40 MLOAD PUSH2 0x1C2 SWAP2 SWAP1 PUSH2 0xD45 JUMP JUMPDEST PUSH1 0x40 MLOAD DUP1 SWAP2 SUB SWAP1 RETURN JUMPDEST PUSH2 0x1E5 PUSH1 0x4 DUP1 CALLDATASIZE SUB DUP2 ADD SWAP1 PUSH2 0x1E0 SWAP2 SWAP1 PUSH2 0xA48 JUMP JUMPDEST PUSH2 0x476 JUMP JUMPDEST PUSH1 0x40 MLOAD PUSH2 0x1F2 SWAP2 SWAP1 PUSH2 0xE20 JUMP JUMPDEST PUSH1 0x40 MLOAD DUP1 SWAP2 SUB SWAP1 RETURN JUMPDEST PUSH1 0x0 PUSH2 0x208 CALLER DUP5 DUP5 PUSH2 0x4FD JUMP JUMPDEST PUSH1 0x1 SWAP1 POP SWAP3 SWAP2 POP POP JUMP JUMPDEST PUSH1 0x0 PUSH1 0x2 SLOAD SWAP1 POP SWAP1 JUMP JUMPDEST PUSH1 0x0 PUSH2 0x229 DUP5 DUP5 DUP5 PUSH2 0x6C8 JUMP JUMPDEST PUSH2 0x2C2 DUP5 CALLER PUSH2 0x2BD DUP6 PUSH1 0x1 PUSH1 0x0 DUP11 PUSH20 0xFFFFFFFFFFFFFFFFFFFFFFFFFFFFFFFFFFFFFFFF AND PUSH20 0xFFFFFFFFFFFFFFFFFFFFFFFFFFFFFFFFFFFFFFFF AND DUP2 MSTORE PUSH1 0x20 ADD SWAP1 DUP2 MSTORE PUSH1 0x20 ADD PUSH1 0x0 KECCAK256 PUSH1 0x0 CALLER PUSH20 0xFFFFFFFFFFFFFFFFFFFFFFFFFFFFFFFFFFFFFFFF AND PUSH20 0xFFFFFFFFFFFFFFFFFFFFFFFFFFFFFFFFFFFFFFFF AND DUP2 MSTORE PUSH1 0x20 ADD SWAP1 DUP2 MSTORE PUSH1 0x20 ADD PUSH1 0x0 KECCAK256 SLOAD PUSH2 0x938 SWAP1 SWAP2 SWAP1 PUSH4 0xFFFFFFFF AND JUMP JUMPDEST PUSH2 0x4FD JUMP JUMPDEST PUSH1 0x1 SWAP1 POP SWAP4 SWAP3 POP POP POP JUMP JUMPDEST PUSH1 0x0 PUSH2 0x368 CALLER DUP5 PUSH2 0x363 DUP6 PUSH1 0x1 PUSH1 0x0 CALLER PUSH20 0xFFFFFFFFFFFFFFFFFFFFFFFFFFFFFFFFFFFFFFFF AND PUSH20 0xFFFFFFFFFFFFFFFFFFFFFFFFFFFFFFFFFFFFFFFF AND DUP2 MSTORE PUSH1 0x20 ADD SWAP1 DUP2 MSTORE PUSH1 0x20 ADD PUSH1 0x0 KECCAK256 PUSH1 0x0 DUP10 PUSH20 0xFFFFFFFFFFFFFFFFFFFFFFFFFFFFFFFFFFFFFFFF AND PUSH20 0xFFFFFFFFFFFFFFFFFFFFFFFFFFFFFFFFFFFFFFFF AND DUP2 MSTORE PUSH1 0x20 ADD SWAP1 DUP2 MSTORE PUSH1 0x20 ADD PUSH1 0x0 KECCAK256 SLOAD PUSH2 0x997 SWAP1 SWAP2 SWAP1 PUSH4 0xFFFFFFFF AND JUMP JUMPDEST PUSH2 0x4FD JUMP JUMPDEST PUSH1 0x1 SWAP1 POP SWAP3 SWAP2 POP POP JUMP JUMPDEST PUSH1 0x0 DUP1 PUSH1 0x0 DUP4 PUSH20 0xFFFFFFFFFFFFFFFFFFFFFFFFFFFFFFFFFFFFFFFF AND PUSH20 0xFFFFFFFFFFFFFFFFFFFFFFFFFFFFFFFFFFFFFFFF AND DUP2 MSTORE PUSH1 0x20 ADD SWAP1 DUP2 MSTORE PUSH1 0x20 ADD PUSH1 0x0 KECCAK256 SLOAD SWAP1 POP SWAP2 SWAP1 POP JUMP JUMPDEST PUSH1 0x0 PUSH2 0x455 CALLER DUP5 PUSH2 0x450 DUP6 PUSH1 0x1 PUSH1 0x0 CALLER PUSH20 0xFFFFFFFFFFFFFFFFFFFFFFFFFFFFFFFFFFFFFFFF AND PUSH20 0xFFFFFFFFFFFFFFFFFFFFFFFFFFFFFFFFFFFFFFFF AND DUP2 MSTORE PUSH1 0x20 ADD SWAP1 DUP2 MSTORE PUSH1 0x20 ADD PUSH1 0x0 KECCAK256 PUSH1 0x0 DUP10 PUSH20 0xFFFFFFFFFFFFFFFFFFFFFFFFFFFFFFFFFFFFFFFF AND PUSH20 0xFFFFFFFFFFFFFFFFFFFFFFFFFFFFFFFFFFFFFFFF AND DUP2 MSTORE PUSH1 0x20 ADD SWAP1 DUP2 MSTORE PUSH1 0x20 ADD PUSH1 0x0 KECCAK256 SLOAD PUSH2 0x938 SWAP1 SWAP2 SWAP1 PUSH4 0xFFFFFFFF AND JUMP JUMPDEST PUSH2 0x4FD JUMP JUMPDEST PUSH1 0x1 SWAP1 POP SWAP3 SWAP2 POP POP JUMP JUMPDEST PUSH1 0x0 PUSH2 0x46C CALLER DUP5 DUP5 PUSH2 0x6C8 JUMP JUMPDEST PUSH1 0x1 SWAP1 POP SWAP3 SWAP2 POP POP JUMP JUMPDEST PUSH1 0x0 PUSH1 0x1 PUSH1 0x0 DUP5 PUSH20 0xFFFFFFFFFFFFFFFFFFFFFFFFFFFFFFFFFFFFFFFF AND PUSH20 0xFFFFFFFFFFFFFFFFFFFFFFFFFFFFFFFFFFFFFFFF AND DUP2 MSTORE PUSH1 0x20 ADD SWAP1 DUP2 MSTORE PUSH1 0x20 ADD PUSH1 0x0 KECCAK256 PUSH1 0x0 DUP4 PUSH20 0xFFFFFFFFFFFFFFFFFFFFFFFFFFFFFFFFFFFFFFFF AND PUSH20 0xFFFFFFFFFFFFFFFFFFFFFFFFFFFFFFFFFFFFFFFF AND DUP2 MSTORE PUSH1 0x20 ADD SWAP1 DUP2 MSTORE PUSH1 0x20 ADD PUSH1 0x0 KECCAK256 SLOAD SWAP1 POP SWAP3 SWAP2 POP POP JUMP JUMPDEST PUSH1 0x0 PUSH20 0xFFFFFFFFFFFFFFFFFFFFFFFFFFFFFFFFFFFFFFFF AND DUP4 PUSH20 0xFFFFFFFFFFFFFFFFFFFFFFFFFFFFFFFFFFFFFFFF AND EQ ISZERO PUSH2 0x56D JUMPI PUSH1 0x40 MLOAD PUSH32 0x8C379A000000000000000000000000000000000000000000000000000000000 DUP2 MSTORE PUSH1 0x4 ADD PUSH2 0x564 SWAP1 PUSH2 0xE00 JUMP JUMPDEST PUSH1 0x40 MLOAD DUP1 SWAP2 SUB SWAP1 REVERT JUMPDEST PUSH1 0x0 PUSH20 0xFFFFFFFFFFFFFFFFFFFFFFFFFFFFFFFFFFFFFFFF AND DUP3 PUSH20 0xFFFFFFFFFFFFFFFFFFFFFFFFFFFFFFFFFFFFFFFF AND EQ ISZERO PUSH2 0x5DD JUMPI PUSH1 0x40 MLOAD PUSH32 0x8C379A000000000000000000000000000000000000000000000000000000000 DUP2 MSTORE PUSH1 0x4 ADD PUSH2 0x5D4 SWAP1 PUSH2 0xD80 JUMP JUMPDEST PUSH1 0x40 MLOAD DUP1 SWAP2 SUB SWAP1 REVERT JUMPDEST DUP1 PUSH1 0x1 PUSH1 0x0 DUP6 PUSH20 0xFFFFFFFFFFFFFFFFFFFFFFFFFFFFFFFFFFFFFFFF AND PUSH20 0xFFFFFFFFFFFFFFFFFFFFFFFFFFFFFFFFFFFFFFFF AND DUP2 MSTORE PUSH1 0x20 ADD SWAP1 DUP2 MSTORE PUSH1 0x20 ADD PUSH1 0x0 KECCAK256 PUSH1 0x0 DUP5 PUSH20 0xFFFFFFFFFFFFFFFFFFFFFFFFFFFFFFFFFFFFFFFF AND PUSH20 0xFFFFFFFFFFFFFFFFFFFFFFFFFFFFFFFFFFFFFFFF AND DUP2 MSTORE PUSH1 0x20 ADD SWAP1 DUP2 MSTORE PUSH1 0x20 ADD PUSH1 0x0 KECCAK256 DUP2 SWAP1 SSTORE POP DUP2 PUSH20 0xFFFFFFFFFFFFFFFFFFFFFFFFFFFFFFFFFFFFFFFF AND DUP4 PUSH20 0xFFFFFFFFFFFFFFFFFFFFFFFFFFFFFFFFFFFFFFFF AND PUSH32 0x8C5BE1E5EBEC7D5BD14F71427D1E84F3DD0314C0F7B2291E5B200AC8C7C3B925 DUP4 PUSH1 0x40 MLOAD PUSH2 0x6BB SWAP2 SWAP1 PUSH2 0xE20 JUMP JUMPDEST PUSH1 0x40 MLOAD DUP1 SWAP2 SUB SWAP1 LOG3 POP POP POP JUMP JUMPDEST PUSH1 0x0 PUSH20 0xFFFFFFFFFFFFFFFFFFFFFFFFFFFFFFFFFFFFFFFF AND DUP4 PUSH20 0xFFFFFFFFFFFFFFFFFFFFFFFFFFFFFFFFFFFFFFFF AND EQ ISZERO PUSH2 0x738 JUMPI PUSH1 0x40 MLOAD PUSH32 0x8C379A000000000000000000000000000000000000000000000000000000000 DUP2 MSTORE PUSH1 0x4 ADD PUSH2 0x72F SWAP1 PUSH2 0xDE0 JUMP JUMPDEST PUSH1 0x40 MLOAD DUP1 SWAP2 SUB SWAP1 REVERT JUMPDEST PUSH1 0x0 PUSH20 0xFFFFFFFFFFFFFFFFFFFFFFFFFFFFFFFFFFFFFFFF AND DUP3 PUSH20 0xFFFFFFFFFFFFFFFFFFFFFFFFFFFFFFFFFFFFFFFF AND EQ ISZERO PUSH2 0x7A8 JUMPI PUSH1 0x40 MLOAD PUSH32 0x8C379A000000000000000000000000000000000000000000000000000000000 DUP2 MSTORE PUSH1 0x4 ADD PUSH2 0x79F SWAP1 PUSH2 0xD60 JUMP JUMPDEST PUSH1 0x40 MLOAD DUP1 SWAP2 SUB SWAP1 REVERT JUMPDEST PUSH2 0x7F9 DUP2 PUSH1 0x0 DUP1 DUP7 PUSH20 0xFFFFFFFFFFFFFFFFFFFFFFFFFFFFFFFFFFFFFFFF AND PUSH20 0xFFFFFFFFFFFFFFFFFFFFFFFFFFFFFFFFFFFFFFFF AND DUP2 MSTORE PUSH1 0x20 ADD SWAP1 DUP2 MSTORE PUSH1 0x20 ADD PUSH1 0x0 KECCAK256 SLOAD PUSH2 0x938 SWAP1 SWAP2 SWAP1 PUSH4 0xFFFFFFFF AND JUMP JUMPDEST PUSH1 0x0 DUP1 DUP6 PUSH20 0xFFFFFFFFFFFFFFFFFFFFFFFFFFFFFFFFFFFFFFFF AND PUSH20 0xFFFFFFFFFFFFFFFFFFFFFFFFFFFFFFFFFFFFFFFF AND DUP2 MSTORE PUSH1 0x20 ADD SWAP1 DUP2 MSTORE PUSH1 0x20 ADD PUSH1 0x0 KECCAK256 DUP2 SWAP1 SSTORE POP PUSH2 0x88C DUP2 PUSH1 0x0 DUP1 DUP6 PUSH20 0xFFFFFFFFFFFFFFFFFFFFFFFFFFFFFFFFFFFFFFFF AND PUSH20 0xFFFFFFFFFFFFFFFFFFFFFFFFFFFFFFFFFFFFFFFF AND DUP2 MSTORE PUSH1 0x20 ADD SWAP1 DUP2 MSTORE PUSH1 0x20 ADD PUSH1 0x0 KECCAK256 SLOAD PUSH2 0x997 SWAP1 SWAP2 SWAP1 PUSH4 0xFFFFFFFF AND JUMP JUMPDEST PUSH1 0x0 DUP1 DUP5 PUSH20 0xFFFFFFFFFFFFFFFFFFFFFFFFFFFFFFFFFFFFFFFF AND PUSH20 0xFFFFFFFFFFFFFFFFFFFFFFFFFFFFFFFFFFFFFFFF AND DUP2 MSTORE PUSH1 0x20 ADD SWAP1 DUP2 MSTORE PUSH1 0x20 ADD PUSH1 0x0 KECCAK256 DUP2 SWAP1 SSTORE POP DUP2 PUSH20 0xFFFFFFFFFFFFFFFFFFFFFFFFFFFFFFFFFFFFFFFF AND DUP4 PUSH20 0xFFFFFFFFFFFFFFFFFFFFFFFFFFFFFFFFFFFFFFFF AND PUSH32 0xDDF252AD1BE2C89B69C2B068FC378DAA952BA7F163C4A11628F55A4DF523B3EF DUP4 PUSH1 0x40 MLOAD PUSH2 0x92B SWAP2 SWAP1 PUSH2 0xE20 JUMP JUMPDEST PUSH1 0x40 MLOAD DUP1 SWAP2 SUB SWAP1 LOG3 POP POP POP JUMP JUMPDEST PUSH1 0x0 DUP3 DUP3 GT ISZERO PUSH2 0x97D JUMPI PUSH1 0x40 MLOAD PUSH32 0x8C379A000000000000000000000000000000000000000000000000000000000 DUP2 MSTORE PUSH1 0x4 ADD PUSH2 0x974 SWAP1 PUSH2 0xDC0 JUMP JUMPDEST PUSH1 0x40 MLOAD DUP1 SWAP2 SUB SWAP1 REVERT JUMPDEST PUSH1 0x0 DUP3 DUP5 PUSH2 0x98B SWAP2 SWAP1 PUSH2 0xEA2 JUMP JUMPDEST SWAP1 POP DUP1 SWAP2 POP POP SWAP3 SWAP2 POP POP JUMP JUMPDEST PUSH1 0x0 DUP1 DUP3 DUP5 PUSH2 0x9A6 SWAP2 SWAP1 PUSH2 0xE4C JUMP JUMPDEST SWAP1 POP DUP4 DUP2 LT ISZERO PUSH2 0x9EB JUMPI PUSH1 0x40 MLOAD PUSH32 0x8C379A000000000000000000000000000000000000000000000000000000000 DUP2 MSTORE PUSH1 0x4 ADD PUSH2 0x9E2 SWAP1 PUSH2 0xDA0 JUMP JUMPDEST PUSH1 0x40 MLOAD DUP1 SWAP2 SUB SWAP1 REVERT JUMPDEST DUP1 SWAP2 POP POP SWAP3 SWAP2 POP POP JUMP JUMPDEST PUSH1 0x0 DUP2 CALLDATALOAD SWAP1 POP PUSH2 0xA04 DUP2 PUSH2 0xF4D JUMP JUMPDEST SWAP3 SWAP2 POP POP JUMP JUMPDEST PUSH1 0x0 DUP2 CALLDATALOAD SWAP1 POP PUSH2 0xA19 DUP2 PUSH2 0xF64 JUMP JUMPDEST SWAP3 SWAP2 POP POP JUMP JUMPDEST PUSH1 0x0 PUSH1 0x20 DUP3 DUP5 SUB SLT ISZERO PUSH2 0xA31 JUMPI PUSH1 0x0 DUP1 REVERT JUMPDEST PUSH1 0x0 PUSH2 0xA3F DUP5 DUP3 DUP6 ADD PUSH2 0x9F5 JUMP JUMPDEST SWAP2 POP POP SWAP3 SWAP2 POP POP JUMP JUMPDEST PUSH1 0x0 DUP1 PUSH1 0x40 DUP4 DUP6 SUB SLT ISZERO PUSH2 0xA5B JUMPI PUSH1 0x0 DUP1 REVERT JUMPDEST PUSH1 0x0 PUSH2 0xA69 DUP6 DUP3 DUP7 ADD PUSH2 0x9F5 JUMP JUMPDEST SWAP3 POP POP PUSH1 0x20 PUSH2 0xA7A DUP6 DUP3 DUP7 ADD PUSH2 0x9F5 JUMP JUMPDEST SWAP2 POP POP SWAP3 POP SWAP3 SWAP1 POP JUMP JUMPDEST PUSH1 0x0 DUP1 PUSH1 0x0 PUSH1 0x60 DUP5 DUP7 SUB SLT ISZERO PUSH2 0xA99 JUMPI PUSH1 0x0 DUP1 REVERT JUMPDEST PUSH1 0x0 PUSH2 0xAA7 DUP7 DUP3 DUP8 ADD PUSH2 0x9F5 JUMP JUMPDEST SWAP4 POP POP PUSH1 0x20 PUSH2 0xAB8 DUP7 DUP3 DUP8 ADD PUSH2 0x9F5 JUMP JUMPDEST SWAP3 POP POP PUSH1 0x40 PUSH2 0xAC9 DUP7 DUP3 DUP8 ADD PUSH2 0xA0A JUMP JUMPDEST SWAP2 POP POP SWAP3 POP SWAP3 POP SWAP3 JUMP JUMPDEST PUSH1 0x0 DUP1 PUSH1 0x40 DUP4 DUP6 SUB SLT ISZERO PUSH2 0xAE6 JUMPI PUSH1 0x0 DUP1 REVERT JUMPDEST PUSH1 0x0 PUSH2 0xAF4 DUP6 DUP3 DUP7 ADD PUSH2 0x9F5 JUMP JUMPDEST SWAP3 POP POP PUSH1 0x20 PUSH2 0xB05 DUP6 DUP3 DUP7 ADD PUSH2 0xA0A JUMP JUMPDEST SWAP2 POP POP SWAP3 POP SWAP3 SWAP1 POP JUMP JUMPDEST PUSH2 0xB18 DUP2 PUSH2 0xEE8 JUMP JUMPDEST DUP3 MSTORE POP POP JUMP JUMPDEST PUSH1 0x0 PUSH2 0xB2B PUSH1 0x23 DUP4 PUSH2 0xE3B JUMP JUMPDEST SWAP2 POP PUSH32 0x45524332303A207472616E7366657220746F20746865207A65726F2061646472 PUSH1 0x0 DUP4 ADD MSTORE PUSH32 0x6573730000000000000000000000000000000000000000000000000000000000 PUSH1 0x20 DUP4 ADD MSTORE PUSH1 0x40 DUP3 ADD SWAP1 POP SWAP2 SWAP1 POP JUMP JUMPDEST PUSH1 0x0 PUSH2 0xB91 PUSH1 0x22 DUP4 PUSH2 0xE3B JUMP JUMPDEST SWAP2 POP PUSH32 0x45524332303A20617070726F766520746F20746865207A65726F206164647265 PUSH1 0x0 DUP4 ADD MSTORE PUSH32 0x7373000000000000000000000000000000000000000000000000000000000000 PUSH1 0x20 DUP4 ADD MSTORE PUSH1 0x40 DUP3 ADD SWAP1 POP SWAP2 SWAP1 POP JUMP JUMPDEST PUSH1 0x0 PUSH2 0xBF7 PUSH1 0x1B DUP4 PUSH2 0xE3B JUMP JUMPDEST SWAP2 POP PUSH32 0x536166654D6174683A206164646974696F6E206F766572666C6F770000000000 PUSH1 0x0 DUP4 ADD MSTORE PUSH1 0x20 DUP3 ADD SWAP1 POP SWAP2 SWAP1 POP JUMP JUMPDEST PUSH1 0x0 PUSH2 0xC37 PUSH1 0x1E DUP4 PUSH2 0xE3B JUMP JUMPDEST SWAP2 POP PUSH32 0x536166654D6174683A207375627472616374696F6E206F766572666C6F770000 PUSH1 0x0 DUP4 ADD MSTORE PUSH1 0x20 DUP3 ADD SWAP1 POP SWAP2 SWAP1 POP JUMP JUMPDEST PUSH1 0x0 PUSH2 0xC77 PUSH1 0x25 DUP4 PUSH2 0xE3B JUMP JUMPDEST SWAP2 POP PUSH32 0x45524332303A207472616E736665722066726F6D20746865207A65726F206164 PUSH1 0x0 DUP4 ADD MSTORE PUSH32 0x6472657373000000000000000000000000000000000000000000000000000000 PUSH1 0x20 DUP4 ADD MSTORE PUSH1 0x40 DUP3 ADD SWAP1 POP SWAP2 SWAP1 POP JUMP JUMPDEST PUSH1 0x0 PUSH2 0xCDD PUSH1 0x24 DUP4 PUSH2 0xE3B JUMP JUMPDEST SWAP2 POP PUSH32 0x45524332303A20617070726F76652066726F6D20746865207A65726F20616464 PUSH1 0x0 DUP4 ADD MSTORE PUSH32 0x7265737300000000000000000000000000000000000000000000000000000000 PUSH1 0x20 DUP4 ADD MSTORE PUSH1 0x40 DUP3 ADD SWAP1 POP SWAP2 SWAP1 POP JUMP JUMPDEST PUSH2 0xD3F DUP2 PUSH2 0xF14 JUMP JUMPDEST DUP3 MSTORE POP POP JUMP JUMPDEST PUSH1 0x0 PUSH1 0x20 DUP3 ADD SWAP1 POP PUSH2 0xD5A PUSH1 0x0 DUP4 ADD DUP5 PUSH2 0xB0F JUMP JUMPDEST SWAP3 SWAP2 POP POP JUMP JUMPDEST PUSH1 0x0 PUSH1 0x20 DUP3 ADD SWAP1 POP DUP2 DUP2 SUB PUSH1 0x0 DUP4 ADD MSTORE PUSH2 0xD79 DUP2 PUSH2 0xB1E JUMP JUMPDEST SWAP1 POP SWAP2 SWAP1 POP JUMP JUMPDEST PUSH1 0x0 PUSH1 0x20 DUP3 ADD SWAP1 POP DUP2 DUP2 SUB PUSH1 0x0 DUP4 ADD MSTORE PUSH2 0xD99 DUP2 PUSH2 0xB84 JUMP JUMPDEST SWAP1 POP SWAP2 SWAP1 POP JUMP JUMPDEST PUSH1 0x0 PUSH1 0x20 DUP3 ADD SWAP1 POP DUP2 DUP2 SUB PUSH1 0x0 DUP4 ADD MSTORE PUSH2 0xDB9 DUP2 PUSH2 0xBEA JUMP JUMPDEST SWAP1 POP SWAP2 SWAP1 POP JUMP JUMPDEST PUSH1 0x0 PUSH1 0x20 DUP3 ADD SWAP1 POP DUP2 DUP2 SUB PUSH1 0x0 DUP4 ADD MSTORE PUSH2 0xDD9 DUP2 PUSH2 0xC2A JUMP JUMPDEST SWAP1 POP SWAP2 SWAP1 POP JUMP JUMPDEST PUSH1 0x0 PUSH1 0x20 DUP3 ADD SWAP1 POP DUP2 DUP2 SUB PUSH1 0x0 DUP4 ADD MSTORE PUSH2 0xDF9 DUP2 PUSH2 0xC6A JUMP JUMPDEST SWAP1 POP SWAP2 SWAP1 POP JUMP JUMPDEST PUSH1 0x0 PUSH1 0x20 DUP3 ADD SWAP1 POP DUP2 DUP2 SUB PUSH1 0x0 DUP4 ADD MSTORE PUSH2 0xE19 DUP2 PUSH2 0xCD0 JUMP JUMPDEST SWAP1 POP SWAP2 SWAP1 POP JUMP JUMPDEST PUSH1 0x0 PUSH1 0x20 DUP3 ADD SWAP1 POP PUSH2 0xE35 PUSH1 0x0 DUP4 ADD DUP5 PUSH2 0xD36 JUMP JUMPDEST SWAP3 SWAP2 POP POP JUMP JUMPDEST PUSH1 0x0 DUP3 DUP3 MSTORE PUSH1 0x20 DUP3 ADD SWAP1 POP SWAP3 SWAP2 POP POP JUMP JUMPDEST PUSH1 0x0 PUSH2 0xE57 DUP3 PUSH2 0xF14 JUMP JUMPDEST SWAP2 POP PUSH2 0xE62 DUP4 PUSH2 0xF14 JUMP JUMPDEST SWAP3 POP DUP3 PUSH32 0xFFFFFFFFFFFFFFFFFFFFFFFFFFFFFFFFFFFFFFFFFFFFFFFFFFFFFFFFFFFFFFFF SUB DUP3 GT ISZERO PUSH2 0xE97 JUMPI PUSH2 0xE96 PUSH2 0xF1E JUMP JUMPDEST JUMPDEST DUP3 DUP3 ADD SWAP1 POP SWAP3 SWAP2 POP POP JUMP JUMPDEST PUSH1 0x0 PUSH2 0xEAD DUP3 PUSH2 0xF14 JUMP JUMPDEST SWAP2 POP PUSH2 0xEB8 DUP4 PUSH2 0xF14 JUMP JUMPDEST SWAP3 POP DUP3 DUP3 LT ISZERO PUSH2 0xECB JUMPI PUSH2 0xECA PUSH2 0xF1E JUMP JUMPDEST JUMPDEST DUP3 DUP3 SUB SWAP1 POP SWAP3 SWAP2 POP POP JUMP JUMPDEST PUSH1 0x0 PUSH2 0xEE1 DUP3 PUSH2 0xEF4 JUMP JUMPDEST SWAP1 POP SWAP2 SWAP1 POP JUMP JUMPDEST PUSH1 0x0 DUP2 ISZERO ISZERO SWAP1 POP SWAP2 SWAP1 POP JUMP JUMPDEST PUSH1 0x0 PUSH20 0xFFFFFFFFFFFFFFFFFFFFFFFFFFFFFFFFFFFFFFFF DUP3 AND SWAP1 POP SWAP2 SWAP1 POP JUMP JUMPDEST PUSH1 0x0 DUP2 SWAP1 POP SWAP2 SWAP1 POP JUMP JUMPDEST PUSH32 0x4E487B7100000000000000000000000000000000000000000000000000000000 PUSH1 0x0 MSTORE PUSH1 0x11 PUSH1 0x4 MSTORE PUSH1 0x24 PUSH1 0x0 REVERT JUMPDEST PUSH2 0xF56 DUP2 PUSH2 0xED6 JUMP JUMPDEST DUP2 EQ PUSH2 0xF61 JUMPI PUSH1 0x0 DUP1 REVERT JUMPDEST POP JUMP JUMPDEST PUSH2 0xF6D DUP2 PUSH2 0xF14 JUMP JUMPDEST DUP2 EQ PUSH2 0xF78 JUMPI PUSH1 0x0 DUP1 REVERT JUMPDEST POP JUMP INVALID LOG2 PUSH5 0x6970667358 0x22 SLT KECCAK256 0xA5 0xA6 CODESIZE 0x5E 0xB2 CALLCODE COINBASE 0xB9 SGT JUMP 0x2E MSIZE PUSH9 0x2E3C5870FCEA1E75EE DUP4 PUSH8 0x3F975F8ABDE5BBD3 PUSH5 0x736F6C6343 STOP ADDMOD STOP STOP CALLER "
				},
				"gasEstimates": {
					"creation": {
						"codeDepositCost": "803400",
						"executionCost": "838",
						"totalCost": "804238"
					},
					"external": {
						"allowance(address,address)": "infinite",
						"approve(address,uint256)": "infinite",
						"balanceOf(address)": "1541",
						"decreaseAllowance(address,uint256)": "infinite",
						"increaseAllowance(address,uint256)": "infinite",
						"totalSupply()": "1160",
						"transfer(address,uint256)": "infinite",
						"transferFrom(address,address,uint256)": "infinite"
					},
					"internal": {
						"_approve(address,address,uint256)": "infinite",
						"_burn(address,uint256)": "infinite",
						"_burnFrom(address,uint256)": "infinite",
						"_mint(address,uint256)": "infinite",
						"_transfer(address,address,uint256)": "infinite"
					}
				},
				"methodIdentifiers": {
					"allowance(address,address)": "dd62ed3e",
					"approve(address,uint256)": "095ea7b3",
					"balanceOf(address)": "70a08231",
					"decreaseAllowance(address,uint256)": "a457c2d7",
					"increaseAllowance(address,uint256)": "39509351",
					"totalSupply()": "18160ddd",
					"transfer(address,uint256)": "a9059cbb",
					"transferFrom(address,address,uint256)": "23b872dd"
				}
			},
			"storageLayout": {
				"storage": [
					{
						"astId": 210,
						"contract": "contracts/shiba.sol:ERC20",
						"label": "_balances",
						"offset": 0,
						"slot": "0",
						"type": "t_mapping(t_address,t_uint256)"
					},
					{
						"astId": 216,
						"contract": "contracts/shiba.sol:ERC20",
						"label": "_allowances",
						"offset": 0,
						"slot": "1",
						"type": "t_mapping(t_address,t_mapping(t_address,t_uint256))"
					},
					{
						"astId": 218,
						"contract": "contracts/shiba.sol:ERC20",
						"label": "_totalSupply",
						"offset": 0,
						"slot": "2",
						"type": "t_uint256"
					}
				],
				"types": {
					"t_address": {
						"encoding": "inplace",
						"label": "address",
						"numberOfBytes": "20"
					},
					"t_mapping(t_address,t_mapping(t_address,t_uint256))": {
						"encoding": "mapping",
						"key": "t_address",
						"label": "mapping(address => mapping(address => uint256))",
						"numberOfBytes": "32",
						"value": "t_mapping(t_address,t_uint256)"
					},
					"t_mapping(t_address,t_uint256)": {
						"encoding": "mapping",
						"key": "t_address",
						"label": "mapping(address => uint256)",
						"numberOfBytes": "32",
						"value": "t_uint256"
					},
					"t_uint256": {
						"encoding": "inplace",
						"label": "uint256",
						"numberOfBytes": "32"
					}
				}
			},
			"userdoc": {
				"kind": "user",
				"methods": {},
				"version": 1
			}
		}
	}
}