{
	"contracts/shiba.sol": {
		"TestDNG_TokenMintERC20Token": {
			"abi": [
				{
					"inputs": [],
					"stateMutability": "nonpayable",
					"type": "constructor"
				},
				{
					"inputs": [],
					"name": "decimals",
					"outputs": [
						{
							"internalType": "uint8",
							"name": "",
							"type": "uint8"
						}
					],
					"stateMutability": "view",
					"type": "function"
				},
				{
					"inputs": [],
					"name": "name",
					"outputs": [
						{
							"internalType": "string",
							"name": "",
							"type": "string"
						}
					],
					"stateMutability": "view",
					"type": "function"
				},
				{
					"inputs": [],
					"name": "symbol",
					"outputs": [
						{
							"internalType": "string",
							"name": "",
							"type": "string"
						}
					],
					"stateMutability": "view",
					"type": "function"
				},
				{
					"inputs": [],
					"name": "testBalanceOf",
					"outputs": [],
					"stateMutability": "view",
					"type": "function"
				},
				{
					"inputs": [],
					"name": "testBurn",
					"outputs": [],
					"stateMutability": "nonpayable",
					"type": "function"
				},
				{
					"inputs": [],
					"name": "testDecimals",
					"outputs": [],
					"stateMutability": "view",
					"type": "function"
				},
				{
					"inputs": [],
					"name": "testName",
					"outputs": [],
					"stateMutability": "view",
					"type": "function"
				},
				{
					"inputs": [],
					"name": "testSymbol",
					"outputs": [],
					"stateMutability": "view",
					"type": "function"
				},
				{
					"inputs": [],
					"name": "testTotalSupply",
					"outputs": [],
					"stateMutability": "view",
					"type": "function"
				},
				{
					"inputs": [],
					"name": "totalSup",
					"outputs": [
						{
							"internalType": "uint256",
							"name": "",
							"type": "uint256"
						}
					],
					"stateMutability": "view",
					"type": "function"
				}
			],
			"devdoc": {
				"kind": "dev",
				"methods": {},
				"version": 1
			},
			"evm": {
				"assembly": "    /* \"contracts/shiba.sol\":6192:7758  contract TestDNG_TokenMintERC20Token {\r... */\n  mstore(0x40, 0x80)\n    /* \"contracts/shiba.sol\":6393:6398  10000 */\n  0x2710\n    /* \"contracts/shiba.sol\":6367:6398  uint256 public totalSup = 10000 */\n  0x01\n  sstore\n    /* \"contracts/shiba.sol\":6513:6681  constructor()  {\r... */\n  callvalue\n  dup1\n  iszero\n  tag_1\n  jumpi\n  0x00\n  dup1\n  revert\ntag_1:\n  pop\n    /* \"contracts/shiba.sol\":6608:6612  name */\n  mload(0x40)\n  dup1\n  0x40\n  add\n  0x40\n  mstore\n  dup1\n  0x09\n  dup2\n  mstore\n  0x20\n  add\n  0x444e4720546f6b656e0000000000000000000000000000000000000000000000\n  dup2\n  mstore\n  pop\n    /* \"contracts/shiba.sol\":6614:6620  symbol */\n  mload(0x40)\n  dup1\n  0x40\n  add\n  0x40\n  mstore\n  dup1\n  0x03\n  dup2\n  mstore\n  0x20\n  add\n  0x444e470000000000000000000000000000000000000000000000000000000000\n  dup2\n  mstore\n  pop\n    /* \"contracts/shiba.sol\":6438:6440  18 */\n  0x12\n    /* \"contracts/shiba.sol\":6632:6640  totalSup */\n  sload(0x01)\n    /* \"contracts/shiba.sol\":6642:6653  feeReceiver */\n  0x02\n  0x00\n  swap1\n  sload\n  swap1\n  0x0100\n  exp\n  swap1\n  div\n  0xffffffffffffffffffffffffffffffffffffffff\n  and\n    /* \"contracts/shiba.sol\":6655:6672  tokenOwnerAddress */\n  0x03\n  0x00\n  swap1\n  sload\n  swap1\n  0x0100\n  exp\n  swap1\n  div\n  0xffffffffffffffffffffffffffffffffffffffff\n  and\n    /* \"contracts/shiba.sol\":6580:6673  new DNG_TokenMintERC20Token(name, symbol, decimals, totalSup, feeReceiver, tokenOwnerAddress) */\n  mload(0x40)\n  tag_4\n  swap1\n  tag_5\n  jump\t// in\ntag_4:\n  tag_6\n  swap7\n  swap6\n  swap5\n  swap4\n  swap3\n  swap2\n  swap1\n  tag_7\n  jump\t// in\ntag_6:\n  mload(0x40)\n  dup1\n  swap2\n  sub\n  swap1\n  0x00\n  create\n  dup1\n  iszero\n  dup1\n  iszero\n  tag_8\n  jumpi\n  returndatasize\n  0x00\n  dup1\n  returndatacopy\n  revert(0x00, returndatasize)\ntag_8:\n  pop\n    /* \"contracts/shiba.sol\":6569:6577  dngToken */\n  0x00\n  dup1\n    /* \"contracts/shiba.sol\":6569:6673  dngToken = new DNG_TokenMintERC20Token(name, symbol, decimals, totalSup, feeReceiver, tokenOwnerAddress) */\n  0x0100\n  exp\n  dup2\n  sload\n  dup2\n  0xffffffffffffffffffffffffffffffffffffffff\n  mul\n  not\n  and\n  swap1\n  dup4\n  0xffffffffffffffffffffffffffffffffffffffff\n  and\n  mul\n  or\n  swap1\n  sstore\n  pop\n    /* \"contracts/shiba.sol\":6192:7758  contract TestDNG_TokenMintERC20Token {\r... */\n  jump(tag_9)\ntag_5:\n  dataSize(sub_1)\n  dup1\n  dataOffset(sub_1)\n  dup4\n  codecopy\n  add\n  swap1\n  jump\t// out\n    /* \"#utility.yul\":7:149   */\ntag_11:\n    /* \"#utility.yul\":110:142   */\n  tag_13\n    /* \"#utility.yul\":136:141   */\n  dup2\n    /* \"#utility.yul\":110:142   */\n  tag_14\n  jump\t// in\ntag_13:\n    /* \"#utility.yul\":105:108   */\n  dup3\n    /* \"#utility.yul\":98:143   */\n  mstore\n    /* \"#utility.yul\":88:149   */\n  pop\n  pop\n  jump\t// out\n    /* \"#utility.yul\":155:273   */\ntag_15:\n    /* \"#utility.yul\":242:266   */\n  tag_17\n    /* \"#utility.yul\":260:265   */\n  dup2\n    /* \"#utility.yul\":242:266   */\n  tag_18\n  jump\t// in\ntag_17:\n    /* \"#utility.yul\":237:240   */\n  dup3\n    /* \"#utility.yul\":230:267   */\n  mstore\n    /* \"#utility.yul\":220:273   */\n  pop\n  pop\n  jump\t// out\n    /* \"#utility.yul\":279:643   */\ntag_19:\n  0x00\n    /* \"#utility.yul\":395:434   */\n  tag_21\n    /* \"#utility.yul\":428:433   */\n  dup3\n    /* \"#utility.yul\":395:434   */\n  tag_22\n  jump\t// in\ntag_21:\n    /* \"#utility.yul\":450:521   */\n  tag_23\n    /* \"#utility.yul\":514:520   */\n  dup2\n    /* \"#utility.yul\":509:512   */\n  dup6\n    /* \"#utility.yul\":450:521   */\n  tag_24\n  jump\t// in\ntag_23:\n    /* \"#utility.yul\":443:521   */\n  swap4\n  pop\n    /* \"#utility.yul\":530:582   */\n  tag_25\n    /* \"#utility.yul\":575:581   */\n  dup2\n    /* \"#utility.yul\":570:573   */\n  dup6\n    /* \"#utility.yul\":563:567   */\n  0x20\n    /* \"#utility.yul\":556:561   */\n  dup7\n    /* \"#utility.yul\":552:568   */\n  add\n    /* \"#utility.yul\":530:582   */\n  tag_26\n  jump\t// in\ntag_25:\n    /* \"#utility.yul\":607:636   */\n  tag_27\n    /* \"#utility.yul\":629:635   */\n  dup2\n    /* \"#utility.yul\":607:636   */\n  tag_28\n  jump\t// in\ntag_27:\n    /* \"#utility.yul\":602:605   */\n  dup5\n    /* \"#utility.yul\":598:637   */\n  add\n    /* \"#utility.yul\":591:637   */\n  swap2\n  pop\n    /* \"#utility.yul\":371:643   */\n  pop\n  swap3\n  swap2\n  pop\n  pop\n  jump\t// out\n    /* \"#utility.yul\":649:767   */\ntag_29:\n    /* \"#utility.yul\":736:760   */\n  tag_31\n    /* \"#utility.yul\":754:759   */\n  dup2\n    /* \"#utility.yul\":736:760   */\n  tag_32\n  jump\t// in\ntag_31:\n    /* \"#utility.yul\":731:734   */\n  dup3\n    /* \"#utility.yul\":724:761   */\n  mstore\n    /* \"#utility.yul\":714:767   */\n  pop\n  pop\n  jump\t// out\n    /* \"#utility.yul\":773:885   */\ntag_33:\n    /* \"#utility.yul\":856:878   */\n  tag_35\n    /* \"#utility.yul\":872:877   */\n  dup2\n    /* \"#utility.yul\":856:878   */\n  tag_36\n  jump\t// in\ntag_35:\n    /* \"#utility.yul\":851:854   */\n  dup3\n    /* \"#utility.yul\":844:879   */\n  mstore\n    /* \"#utility.yul\":834:885   */\n  pop\n  pop\n  jump\t// out\n    /* \"#utility.yul\":891:1872   */\ntag_7:\n  0x00\n    /* \"#utility.yul\":1214:1217   */\n  0xc0\n    /* \"#utility.yul\":1203:1212   */\n  dup3\n    /* \"#utility.yul\":1199:1218   */\n  add\n    /* \"#utility.yul\":1191:1218   */\n  swap1\n  pop\n    /* \"#utility.yul\":1264:1273   */\n  dup2\n    /* \"#utility.yul\":1258:1262   */\n  dup2\n    /* \"#utility.yul\":1254:1274   */\n  sub\n    /* \"#utility.yul\":1250:1251   */\n  0x00\n    /* \"#utility.yul\":1239:1248   */\n  dup4\n    /* \"#utility.yul\":1235:1252   */\n  add\n    /* \"#utility.yul\":1228:1275   */\n  mstore\n    /* \"#utility.yul\":1292:1370   */\n  tag_38\n    /* \"#utility.yul\":1365:1369   */\n  dup2\n    /* \"#utility.yul\":1356:1362   */\n  dup10\n    /* \"#utility.yul\":1292:1370   */\n  tag_19\n  jump\t// in\ntag_38:\n    /* \"#utility.yul\":1284:1370   */\n  swap1\n  pop\n    /* \"#utility.yul\":1417:1426   */\n  dup2\n    /* \"#utility.yul\":1411:1415   */\n  dup2\n    /* \"#utility.yul\":1407:1427   */\n  sub\n    /* \"#utility.yul\":1402:1404   */\n  0x20\n    /* \"#utility.yul\":1391:1400   */\n  dup4\n    /* \"#utility.yul\":1387:1405   */\n  add\n    /* \"#utility.yul\":1380:1428   */\n  mstore\n    /* \"#utility.yul\":1445:1523   */\n  tag_39\n    /* \"#utility.yul\":1518:1522   */\n  dup2\n    /* \"#utility.yul\":1509:1515   */\n  dup9\n    /* \"#utility.yul\":1445:1523   */\n  tag_19\n  jump\t// in\ntag_39:\n    /* \"#utility.yul\":1437:1523   */\n  swap1\n  pop\n    /* \"#utility.yul\":1533:1601   */\n  tag_40\n    /* \"#utility.yul\":1597:1599   */\n  0x40\n    /* \"#utility.yul\":1586:1595   */\n  dup4\n    /* \"#utility.yul\":1582:1600   */\n  add\n    /* \"#utility.yul\":1573:1579   */\n  dup8\n    /* \"#utility.yul\":1533:1601   */\n  tag_33\n  jump\t// in\ntag_40:\n    /* \"#utility.yul\":1611:1683   */\n  tag_41\n    /* \"#utility.yul\":1679:1681   */\n  0x60\n    /* \"#utility.yul\":1668:1677   */\n  dup4\n    /* \"#utility.yul\":1664:1682   */\n  add\n    /* \"#utility.yul\":1655:1661   */\n  dup7\n    /* \"#utility.yul\":1611:1683   */\n  tag_29\n  jump\t// in\ntag_41:\n    /* \"#utility.yul\":1693:1782   */\n  tag_42\n    /* \"#utility.yul\":1777:1780   */\n  0x80\n    /* \"#utility.yul\":1766:1775   */\n  dup4\n    /* \"#utility.yul\":1762:1781   */\n  add\n    /* \"#utility.yul\":1753:1759   */\n  dup6\n    /* \"#utility.yul\":1693:1782   */\n  tag_11\n  jump\t// in\ntag_42:\n    /* \"#utility.yul\":1792:1865   */\n  tag_43\n    /* \"#utility.yul\":1860:1863   */\n  0xa0\n    /* \"#utility.yul\":1849:1858   */\n  dup4\n    /* \"#utility.yul\":1845:1864   */\n  add\n    /* \"#utility.yul\":1836:1842   */\n  dup5\n    /* \"#utility.yul\":1792:1865   */\n  tag_15\n  jump\t// in\ntag_43:\n    /* \"#utility.yul\":1181:1872   */\n  swap8\n  swap7\n  pop\n  pop\n  pop\n  pop\n  pop\n  pop\n  pop\n  jump\t// out\n    /* \"#utility.yul\":1878:1977   */\ntag_22:\n  0x00\n    /* \"#utility.yul\":1964:1969   */\n  dup2\n    /* \"#utility.yul\":1958:1970   */\n  mload\n    /* \"#utility.yul\":1948:1970   */\n  swap1\n  pop\n    /* \"#utility.yul\":1937:1977   */\n  swap2\n  swap1\n  pop\n  jump\t// out\n    /* \"#utility.yul\":1983:2152   */\ntag_24:\n  0x00\n    /* \"#utility.yul\":2101:2107   */\n  dup3\n    /* \"#utility.yul\":2096:2099   */\n  dup3\n    /* \"#utility.yul\":2089:2108   */\n  mstore\n    /* \"#utility.yul\":2141:2145   */\n  0x20\n    /* \"#utility.yul\":2136:2139   */\n  dup3\n    /* \"#utility.yul\":2132:2146   */\n  add\n    /* \"#utility.yul\":2117:2146   */\n  swap1\n  pop\n    /* \"#utility.yul\":2079:2152   */\n  swap3\n  swap2\n  pop\n  pop\n  jump\t// out\n    /* \"#utility.yul\":2158:2254   */\ntag_18:\n  0x00\n    /* \"#utility.yul\":2224:2248   */\n  tag_47\n    /* \"#utility.yul\":2242:2247   */\n  dup3\n    /* \"#utility.yul\":2224:2248   */\n  tag_48\n  jump\t// in\ntag_47:\n    /* \"#utility.yul\":2213:2248   */\n  swap1\n  pop\n    /* \"#utility.yul\":2203:2254   */\n  swap2\n  swap1\n  pop\n  jump\t// out\n    /* \"#utility.yul\":2260:2364   */\ntag_14:\n  0x00\n    /* \"#utility.yul\":2334:2358   */\n  tag_50\n    /* \"#utility.yul\":2352:2357   */\n  dup3\n    /* \"#utility.yul\":2334:2358   */\n  tag_48\n  jump\t// in\ntag_50:\n    /* \"#utility.yul\":2323:2358   */\n  swap1\n  pop\n    /* \"#utility.yul\":2313:2364   */\n  swap2\n  swap1\n  pop\n  jump\t// out\n    /* \"#utility.yul\":2370:2496   */\ntag_48:\n  0x00\n    /* \"#utility.yul\":2447:2489   */\n  0xffffffffffffffffffffffffffffffffffffffff\n    /* \"#utility.yul\":2440:2445   */\n  dup3\n    /* \"#utility.yul\":2436:2490   */\n  and\n    /* \"#utility.yul\":2425:2490   */\n  swap1\n  pop\n    /* \"#utility.yul\":2415:2496   */\n  swap2\n  swap1\n  pop\n  jump\t// out\n    /* \"#utility.yul\":2502:2579   */\ntag_32:\n  0x00\n    /* \"#utility.yul\":2568:2573   */\n  dup2\n    /* \"#utility.yul\":2557:2573   */\n  swap1\n  pop\n    /* \"#utility.yul\":2547:2579   */\n  swap2\n  swap1\n  pop\n  jump\t// out\n    /* \"#utility.yul\":2585:2671   */\ntag_36:\n  0x00\n    /* \"#utility.yul\":2660:2664   */\n  0xff\n    /* \"#utility.yul\":2653:2658   */\n  dup3\n    /* \"#utility.yul\":2649:2665   */\n  and\n    /* \"#utility.yul\":2638:2665   */\n  swap1\n  pop\n    /* \"#utility.yul\":2628:2671   */\n  swap2\n  swap1\n  pop\n  jump\t// out\n    /* \"#utility.yul\":2677:2984   */\ntag_26:\n    /* \"#utility.yul\":2745:2746   */\n  0x00\n    /* \"#utility.yul\":2755:2868   */\ntag_55:\n    /* \"#utility.yul\":2769:2775   */\n  dup4\n    /* \"#utility.yul\":2766:2767   */\n  dup2\n    /* \"#utility.yul\":2763:2776   */\n  lt\n    /* \"#utility.yul\":2755:2868   */\n  iszero\n  tag_57\n  jumpi\n    /* \"#utility.yul\":2854:2855   */\n  dup1\n    /* \"#utility.yul\":2849:2852   */\n  dup3\n    /* \"#utility.yul\":2845:2856   */\n  add\n    /* \"#utility.yul\":2839:2857   */\n  mload\n    /* \"#utility.yul\":2835:2836   */\n  dup2\n    /* \"#utility.yul\":2830:2833   */\n  dup5\n    /* \"#utility.yul\":2826:2837   */\n  add\n    /* \"#utility.yul\":2819:2858   */\n  mstore\n    /* \"#utility.yul\":2791:2793   */\n  0x20\n    /* \"#utility.yul\":2788:2789   */\n  dup2\n    /* \"#utility.yul\":2784:2794   */\n  add\n    /* \"#utility.yul\":2779:2794   */\n  swap1\n  pop\n    /* \"#utility.yul\":2755:2868   */\n  jump(tag_55)\ntag_57:\n    /* \"#utility.yul\":2886:2892   */\n  dup4\n    /* \"#utility.yul\":2883:2884   */\n  dup2\n    /* \"#utility.yul\":2880:2893   */\n  gt\n    /* \"#utility.yul\":2877:2879   */\n  iszero\n  tag_58\n  jumpi\n    /* \"#utility.yul\":2966:2967   */\n  0x00\n    /* \"#utility.yul\":2957:2963   */\n  dup5\n    /* \"#utility.yul\":2952:2955   */\n  dup5\n    /* \"#utility.yul\":2948:2964   */\n  add\n    /* \"#utility.yul\":2941:2968   */\n  mstore\n    /* \"#utility.yul\":2877:2879   */\ntag_58:\n    /* \"#utility.yul\":2726:2984   */\n  pop\n  pop\n  pop\n  pop\n  jump\t// out\n    /* \"#utility.yul\":2990:3092   */\ntag_28:\n  0x00\n    /* \"#utility.yul\":3082:3084   */\n  0x1f\n    /* \"#utility.yul\":3078:3085   */\n  not\n    /* \"#utility.yul\":3073:3075   */\n  0x1f\n    /* \"#utility.yul\":3066:3071   */\n  dup4\n    /* \"#utility.yul\":3062:3076   */\n  add\n    /* \"#utility.yul\":3058:3086   */\n  and\n    /* \"#utility.yul\":3048:3086   */\n  swap1\n  pop\n    /* \"#utility.yul\":3038:3092   */\n  swap2\n  swap1\n  pop\n  jump\t// out\n    /* \"contracts/shiba.sol\":6192:7758  contract TestDNG_TokenMintERC20Token {\r... */\ntag_9:\n  dataSize(sub_0)\n  dup1\n  dataOffset(sub_0)\n  0x00\n  codecopy\n  0x00\n  return\nstop\n\nsub_0: assembly {\n        /* \"contracts/shiba.sol\":6192:7758  contract TestDNG_TokenMintERC20Token {\r... */\n      mstore(0x40, 0x80)\n      callvalue\n      dup1\n      iszero\n      tag_1\n      jumpi\n      0x00\n      dup1\n      revert\n    tag_1:\n      pop\n      jumpi(tag_2, lt(calldatasize, 0x04))\n      shr(0xe0, calldataload(0x00))\n      dup1\n      0x80fc5d17\n      gt\n      tag_13\n      jumpi\n      dup1\n      0x80fc5d17\n      eq\n      tag_8\n      jumpi\n      dup1\n      0x95d89b41\n      eq\n      tag_9\n      jumpi\n      dup1\n      0xcc8668de\n      eq\n      tag_10\n      jumpi\n      dup1\n      0xe13aba48\n      eq\n      tag_11\n      jumpi\n      dup1\n      0xeb7492d1\n      eq\n      tag_12\n      jumpi\n      jump(tag_2)\n    tag_13:\n      dup1\n      0x06fdde03\n      eq\n      tag_3\n      jumpi\n      dup1\n      0x313ce567\n      eq\n      tag_4\n      jumpi\n      dup1\n      0x3df77c0e\n      eq\n      tag_5\n      jumpi\n      dup1\n      0x5d4696cf\n      eq\n      tag_6\n      jumpi\n      dup1\n      0x77fc70c6\n      eq\n      tag_7\n      jumpi\n    tag_2:\n      0x00\n      dup1\n      revert\n        /* \"contracts/shiba.sol\":6275:6316  string public constant name = \"DNG Token\" */\n    tag_3:\n      tag_14\n      tag_15\n      jump\t// in\n    tag_14:\n      mload(0x40)\n      tag_16\n      swap2\n      swap1\n      tag_17\n      jump\t// in\n    tag_16:\n      mload(0x40)\n      dup1\n      swap2\n      sub\n      swap1\n      return\n        /* \"contracts/shiba.sol\":6405:6440  uint8 public constant decimals = 18 */\n    tag_4:\n      tag_18\n      tag_19\n      jump\t// in\n    tag_18:\n      mload(0x40)\n      tag_20\n      swap2\n      swap1\n      tag_21\n      jump\t// in\n    tag_20:\n      mload(0x40)\n      dup1\n      swap2\n      sub\n      swap1\n      return\n        /* \"contracts/shiba.sol\":7387:7555  function testBalanceOf() public view {\r... */\n    tag_5:\n      tag_22\n      tag_23\n      jump\t// in\n    tag_22:\n      stop\n        /* \"contracts/shiba.sol\":7215:7381  function testDecimals() public view {\r... */\n    tag_6:\n      tag_24\n      tag_25\n      jump\t// in\n    tag_24:\n      stop\n        /* \"contracts/shiba.sol\":7041:7209  function testSymbol() public view {\r... */\n    tag_7:\n      tag_26\n      tag_27\n      jump\t// in\n    tag_26:\n      stop\n        /* \"contracts/shiba.sol\":6367:6398  uint256 public totalSup = 10000 */\n    tag_8:\n      tag_28\n      tag_29\n      jump\t// in\n    tag_28:\n      mload(0x40)\n      tag_30\n      swap2\n      swap1\n      tag_31\n      jump\t// in\n    tag_30:\n      mload(0x40)\n      dup1\n      swap2\n      sub\n      swap1\n      return\n        /* \"contracts/shiba.sol\":6323:6360  string public constant symbol = \"DNG\" */\n    tag_9:\n      tag_32\n      tag_33\n      jump\t// in\n    tag_32:\n      mload(0x40)\n      tag_34\n      swap2\n      swap1\n      tag_17\n      jump\t// in\n    tag_34:\n      mload(0x40)\n      dup1\n      swap2\n      sub\n      swap1\n      return\n        /* \"contracts/shiba.sol\":6865:7035  function testName() public view {\r... */\n    tag_10:\n      tag_35\n      tag_36\n      jump\t// in\n    tag_35:\n      stop\n        /* \"contracts/shiba.sol\":7560:7755  function testBurn() public {\r... */\n    tag_11:\n      tag_37\n      tag_38\n      jump\t// in\n    tag_37:\n      stop\n        /* \"contracts/shiba.sol\":6687:6859  function testTotalSupply() public view {\r... */\n    tag_12:\n      tag_39\n      tag_40\n      jump\t// in\n    tag_39:\n      stop\n        /* \"contracts/shiba.sol\":6275:6316  string public constant name = \"DNG Token\" */\n    tag_15:\n      mload(0x40)\n      dup1\n      0x40\n      add\n      0x40\n      mstore\n      dup1\n      0x09\n      dup2\n      mstore\n      0x20\n      add\n      0x444e4720546f6b656e0000000000000000000000000000000000000000000000\n      dup2\n      mstore\n      pop\n      dup2\n      jump\t// out\n        /* \"contracts/shiba.sol\":6405:6440  uint8 public constant decimals = 18 */\n    tag_19:\n        /* \"contracts/shiba.sol\":6438:6440  18 */\n      0x12\n        /* \"contracts/shiba.sol\":6405:6440  uint8 public constant decimals = 18 */\n      dup2\n      jump\t// out\n        /* \"contracts/shiba.sol\":7387:7555  function testBalanceOf() public view {\r... */\n    tag_23:\n        /* \"contracts/shiba.sol\":7435:7450  uint256 balance */\n      0x00\n        /* \"contracts/shiba.sol\":7453:7461  dngToken */\n      dup1\n      0x00\n      swap1\n      sload\n      swap1\n      0x0100\n      exp\n      swap1\n      div\n      0xffffffffffffffffffffffffffffffffffffffff\n      and\n        /* \"contracts/shiba.sol\":7453:7471  dngToken.balanceOf */\n      0xffffffffffffffffffffffffffffffffffffffff\n      and\n      0x70a08231\n        /* \"contracts/shiba.sol\":7480:7484  this */\n      address\n        /* \"contracts/shiba.sol\":7453:7486  dngToken.balanceOf(address(this)) */\n      mload(0x40)\n      dup3\n      0xffffffff\n      and\n      0xe0\n      shl\n      dup2\n      mstore\n      0x04\n      add\n      tag_42\n      swap2\n      swap1\n      tag_43\n      jump\t// in\n    tag_42:\n      0x20\n      mload(0x40)\n      dup1\n      dup4\n      sub\n      dup2\n      dup7\n      dup1\n      extcodesize\n      iszero\n      dup1\n      iszero\n      tag_44\n      jumpi\n      0x00\n      dup1\n      revert\n    tag_44:\n      pop\n      gas\n      staticcall\n      iszero\n      dup1\n      iszero\n      tag_46\n      jumpi\n      returndatasize\n      0x00\n      dup1\n      returndatacopy\n      revert(0x00, returndatasize)\n    tag_46:\n      pop\n      pop\n      pop\n      pop\n      mload(0x40)\n      returndatasize\n      not(0x1f)\n      0x1f\n      dup3\n      add\n      and\n      dup3\n      add\n      dup1\n      0x40\n      mstore\n      pop\n      dup2\n      add\n      swap1\n      tag_47\n      swap2\n      swap1\n      tag_48\n      jump\t// in\n    tag_47:\n        /* \"contracts/shiba.sol\":7435:7486  uint256 balance = dngToken.balanceOf(address(this)) */\n      swap1\n      pop\n        /* \"contracts/shiba.sol\":7387:7555  function testBalanceOf() public view {\r... */\n      pop\n      jump\t// out\n        /* \"contracts/shiba.sol\":7215:7381  function testDecimals() public view {\r... */\n    tag_25:\n        /* \"contracts/shiba.sol\":7262:7277  uint8 decimalsR */\n      0x00\n        /* \"contracts/shiba.sol\":7280:7288  dngToken */\n      dup1\n      0x00\n      swap1\n      sload\n      swap1\n      0x0100\n      exp\n      swap1\n      div\n      0xffffffffffffffffffffffffffffffffffffffff\n      and\n        /* \"contracts/shiba.sol\":7280:7300  dngToken.getDecimals */\n      0xffffffffffffffffffffffffffffffffffffffff\n      and\n      0xf0141d84\n        /* \"contracts/shiba.sol\":7280:7302  dngToken.getDecimals() */\n      mload(0x40)\n      dup2\n      0xffffffff\n      and\n      0xe0\n      shl\n      dup2\n      mstore\n      0x04\n      add\n      0x20\n      mload(0x40)\n      dup1\n      dup4\n      sub\n      dup2\n      dup7\n      dup1\n      extcodesize\n      iszero\n      dup1\n      iszero\n      tag_50\n      jumpi\n      0x00\n      dup1\n      revert\n    tag_50:\n      pop\n      gas\n      staticcall\n      iszero\n      dup1\n      iszero\n      tag_52\n      jumpi\n      returndatasize\n      0x00\n      dup1\n      returndatacopy\n      revert(0x00, returndatasize)\n    tag_52:\n      pop\n      pop\n      pop\n      pop\n      mload(0x40)\n      returndatasize\n      not(0x1f)\n      0x1f\n      dup3\n      add\n      and\n      dup3\n      add\n      dup1\n      0x40\n      mstore\n      pop\n      dup2\n      add\n      swap1\n      tag_53\n      swap2\n      swap1\n      tag_54\n      jump\t// in\n    tag_53:\n        /* \"contracts/shiba.sol\":7262:7302  uint8 decimalsR = dngToken.getDecimals() */\n      swap1\n      pop\n        /* \"contracts/shiba.sol\":7215:7381  function testDecimals() public view {\r... */\n      pop\n      jump\t// out\n        /* \"contracts/shiba.sol\":7041:7209  function testSymbol() public view {\r... */\n    tag_27:\n        /* \"contracts/shiba.sol\":7086:7107  string memory symbolR */\n      0x00\n        /* \"contracts/shiba.sol\":7110:7118  dngToken */\n      dup1\n      0x00\n      swap1\n      sload\n      swap1\n      0x0100\n      exp\n      swap1\n      div\n      0xffffffffffffffffffffffffffffffffffffffff\n      and\n        /* \"contracts/shiba.sol\":7110:7128  dngToken.getSymbol */\n      0xffffffffffffffffffffffffffffffffffffffff\n      and\n      0x15070401\n        /* \"contracts/shiba.sol\":7110:7130  dngToken.getSymbol() */\n      mload(0x40)\n      dup2\n      0xffffffff\n      and\n      0xe0\n      shl\n      dup2\n      mstore\n      0x04\n      add\n      0x00\n      mload(0x40)\n      dup1\n      dup4\n      sub\n      dup2\n      dup7\n      dup1\n      extcodesize\n      iszero\n      dup1\n      iszero\n      tag_56\n      jumpi\n      0x00\n      dup1\n      revert\n    tag_56:\n      pop\n      gas\n      staticcall\n      iszero\n      dup1\n      iszero\n      tag_58\n      jumpi\n      returndatasize\n      0x00\n      dup1\n      returndatacopy\n      revert(0x00, returndatasize)\n    tag_58:\n      pop\n      pop\n      pop\n      pop\n      mload(0x40)\n      returndatasize\n      0x00\n      dup3\n      returndatacopy\n      returndatasize\n      not(0x1f)\n      0x1f\n      dup3\n      add\n      and\n      dup3\n      add\n      dup1\n      0x40\n      mstore\n      pop\n      dup2\n      add\n      swap1\n      tag_59\n      swap2\n      swap1\n      tag_60\n      jump\t// in\n    tag_59:\n        /* \"contracts/shiba.sol\":7086:7130  string memory symbolR = dngToken.getSymbol() */\n      swap1\n      pop\n        /* \"contracts/shiba.sol\":7041:7209  function testSymbol() public view {\r... */\n      pop\n      jump\t// out\n        /* \"contracts/shiba.sol\":6367:6398  uint256 public totalSup = 10000 */\n    tag_29:\n      sload(0x01)\n      dup2\n      jump\t// out\n        /* \"contracts/shiba.sol\":6323:6360  string public constant symbol = \"DNG\" */\n    tag_33:\n      mload(0x40)\n      dup1\n      0x40\n      add\n      0x40\n      mstore\n      dup1\n      0x03\n      dup2\n      mstore\n      0x20\n      add\n      0x444e470000000000000000000000000000000000000000000000000000000000\n      dup2\n      mstore\n      pop\n      dup2\n      jump\t// out\n        /* \"contracts/shiba.sol\":6865:7035  function testName() public view {\r... */\n    tag_36:\n        /* \"contracts/shiba.sol\":6908:6927  string memory nameR */\n      0x00\n        /* \"contracts/shiba.sol\":6930:6938  dngToken */\n      dup1\n      0x00\n      swap1\n      sload\n      swap1\n      0x0100\n      exp\n      swap1\n      div\n      0xffffffffffffffffffffffffffffffffffffffff\n      and\n        /* \"contracts/shiba.sol\":6930:6946  dngToken.getName */\n      0xffffffffffffffffffffffffffffffffffffffff\n      and\n      0x17d7de7c\n        /* \"contracts/shiba.sol\":6930:6948  dngToken.getName() */\n      mload(0x40)\n      dup2\n      0xffffffff\n      and\n      0xe0\n      shl\n      dup2\n      mstore\n      0x04\n      add\n      0x00\n      mload(0x40)\n      dup1\n      dup4\n      sub\n      dup2\n      dup7\n      dup1\n      extcodesize\n      iszero\n      dup1\n      iszero\n      tag_62\n      jumpi\n      0x00\n      dup1\n      revert\n    tag_62:\n      pop\n      gas\n      staticcall\n      iszero\n      dup1\n      iszero\n      tag_64\n      jumpi\n      returndatasize\n      0x00\n      dup1\n      returndatacopy\n      revert(0x00, returndatasize)\n    tag_64:\n      pop\n      pop\n      pop\n      pop\n      mload(0x40)\n      returndatasize\n      0x00\n      dup3\n      returndatacopy\n      returndatasize\n      not(0x1f)\n      0x1f\n      dup3\n      add\n      and\n      dup3\n      add\n      dup1\n      0x40\n      mstore\n      pop\n      dup2\n      add\n      swap1\n      tag_65\n      swap2\n      swap1\n      tag_60\n      jump\t// in\n    tag_65:\n        /* \"contracts/shiba.sol\":6908:6948  string memory nameR = dngToken.getName() */\n      swap1\n      pop\n        /* \"contracts/shiba.sol\":6865:7035  function testName() public view {\r... */\n      pop\n      jump\t// out\n        /* \"contracts/shiba.sol\":7560:7755  function testBurn() public {\r... */\n    tag_38:\n        /* \"contracts/shiba.sol\":7598:7606  dngToken */\n      0x00\n      dup1\n      sload\n      swap1\n      0x0100\n      exp\n      swap1\n      div\n      0xffffffffffffffffffffffffffffffffffffffff\n      and\n        /* \"contracts/shiba.sol\":7598:7611  dngToken.burn */\n      0xffffffffffffffffffffffffffffffffffffffff\n      and\n      0x42966c68\n        /* \"contracts/shiba.sol\":7612:7615  100 */\n      0x64\n        /* \"contracts/shiba.sol\":7598:7616  dngToken.burn(100) */\n      mload(0x40)\n      dup3\n      0xffffffff\n      and\n      0xe0\n      shl\n      dup2\n      mstore\n      0x04\n      add\n      tag_67\n      swap2\n      swap1\n      tag_68\n      jump\t// in\n    tag_67:\n      0x00\n      mload(0x40)\n      dup1\n      dup4\n      sub\n      dup2\n      0x00\n      dup8\n      dup1\n      extcodesize\n      iszero\n      dup1\n      iszero\n      tag_69\n      jumpi\n      0x00\n      dup1\n      revert\n    tag_69:\n      pop\n      gas\n      call\n      iszero\n      dup1\n      iszero\n      tag_71\n      jumpi\n      returndatasize\n      0x00\n      dup1\n      returndatacopy\n      revert(0x00, returndatasize)\n    tag_71:\n      pop\n      pop\n      pop\n      pop\n        /* \"contracts/shiba.sol\":7627:7646  uint256 balanceBurn */\n      0x00\n        /* \"contracts/shiba.sol\":7649:7657  dngToken */\n      dup1\n      0x00\n      swap1\n      sload\n      swap1\n      0x0100\n      exp\n      swap1\n      div\n      0xffffffffffffffffffffffffffffffffffffffff\n      and\n        /* \"contracts/shiba.sol\":7649:7667  dngToken.balanceOf */\n      0xffffffffffffffffffffffffffffffffffffffff\n      and\n      0x70a08231\n        /* \"contracts/shiba.sol\":7676:7680  this */\n      address\n        /* \"contracts/shiba.sol\":7649:7682  dngToken.balanceOf(address(this)) */\n      mload(0x40)\n      dup3\n      0xffffffff\n      and\n      0xe0\n      shl\n      dup2\n      mstore\n      0x04\n      add\n      tag_72\n      swap2\n      swap1\n      tag_43\n      jump\t// in\n    tag_72:\n      0x20\n      mload(0x40)\n      dup1\n      dup4\n      sub\n      dup2\n      dup7\n      dup1\n      extcodesize\n      iszero\n      dup1\n      iszero\n      tag_73\n      jumpi\n      0x00\n      dup1\n      revert\n    tag_73:\n      pop\n      gas\n      staticcall\n      iszero\n      dup1\n      iszero\n      tag_75\n      jumpi\n      returndatasize\n      0x00\n      dup1\n      returndatacopy\n      revert(0x00, returndatasize)\n    tag_75:\n      pop\n      pop\n      pop\n      pop\n      mload(0x40)\n      returndatasize\n      not(0x1f)\n      0x1f\n      dup3\n      add\n      and\n      dup3\n      add\n      dup1\n      0x40\n      mstore\n      pop\n      dup2\n      add\n      swap1\n      tag_76\n      swap2\n      swap1\n      tag_48\n      jump\t// in\n    tag_76:\n        /* \"contracts/shiba.sol\":7627:7682  uint256 balanceBurn = dngToken.balanceOf(address(this)) */\n      swap1\n      pop\n        /* \"contracts/shiba.sol\":7560:7755  function testBurn() public {\r... */\n      pop\n      jump\t// out\n        /* \"contracts/shiba.sol\":6687:6859  function testTotalSupply() public view {\r... */\n    tag_40:\n        /* \"contracts/shiba.sol\":6737:6756  uint256 totalSupply */\n      0x00\n        /* \"contracts/shiba.sol\":6759:6767  dngToken */\n      dup1\n      0x00\n      swap1\n      sload\n      swap1\n      0x0100\n      exp\n      swap1\n      div\n      0xffffffffffffffffffffffffffffffffffffffff\n      and\n        /* \"contracts/shiba.sol\":6759:6779  dngToken.totalSupply */\n      0xffffffffffffffffffffffffffffffffffffffff\n      and\n      0x18160ddd\n        /* \"contracts/shiba.sol\":6759:6781  dngToken.totalSupply() */\n      mload(0x40)\n      dup2\n      0xffffffff\n      and\n      0xe0\n      shl\n      dup2\n      mstore\n      0x04\n      add\n      0x20\n      mload(0x40)\n      dup1\n      dup4\n      sub\n      dup2\n      dup7\n      dup1\n      extcodesize\n      iszero\n      dup1\n      iszero\n      tag_78\n      jumpi\n      0x00\n      dup1\n      revert\n    tag_78:\n      pop\n      gas\n      staticcall\n      iszero\n      dup1\n      iszero\n      tag_80\n      jumpi\n      returndatasize\n      0x00\n      dup1\n      returndatacopy\n      revert(0x00, returndatasize)\n    tag_80:\n      pop\n      pop\n      pop\n      pop\n      mload(0x40)\n      returndatasize\n      not(0x1f)\n      0x1f\n      dup3\n      add\n      and\n      dup3\n      add\n      dup1\n      0x40\n      mstore\n      pop\n      dup2\n      add\n      swap1\n      tag_81\n      swap2\n      swap1\n      tag_48\n      jump\t// in\n    tag_81:\n        /* \"contracts/shiba.sol\":6737:6781  uint256 totalSupply = dngToken.totalSupply() */\n      swap1\n      pop\n        /* \"contracts/shiba.sol\":6687:6859  function testTotalSupply() public view {\r... */\n      pop\n      jump\t// out\n        /* \"#utility.yul\":7:360   */\n    tag_83:\n      0x00\n        /* \"#utility.yul\":121:186   */\n      tag_85\n        /* \"#utility.yul\":136:185   */\n      tag_86\n        /* \"#utility.yul\":178:184   */\n      dup5\n        /* \"#utility.yul\":136:185   */\n      tag_87\n      jump\t// in\n    tag_86:\n        /* \"#utility.yul\":121:186   */\n      tag_88\n      jump\t// in\n    tag_85:\n        /* \"#utility.yul\":112:186   */\n      swap1\n      pop\n        /* \"#utility.yul\":209:215   */\n      dup3\n        /* \"#utility.yul\":202:207   */\n      dup2\n        /* \"#utility.yul\":195:216   */\n      mstore\n        /* \"#utility.yul\":247:251   */\n      0x20\n        /* \"#utility.yul\":240:245   */\n      dup2\n        /* \"#utility.yul\":236:252   */\n      add\n        /* \"#utility.yul\":285:288   */\n      dup5\n        /* \"#utility.yul\":276:282   */\n      dup5\n        /* \"#utility.yul\":271:274   */\n      dup5\n        /* \"#utility.yul\":267:283   */\n      add\n        /* \"#utility.yul\":264:289   */\n      gt\n        /* \"#utility.yul\":261:263   */\n      iszero\n      tag_89\n      jumpi\n        /* \"#utility.yul\":302:303   */\n      0x00\n        /* \"#utility.yul\":299:300   */\n      dup1\n        /* \"#utility.yul\":292:304   */\n      revert\n        /* \"#utility.yul\":261:263   */\n    tag_89:\n        /* \"#utility.yul\":315:354   */\n      tag_90\n        /* \"#utility.yul\":347:353   */\n      dup5\n        /* \"#utility.yul\":342:345   */\n      dup3\n        /* \"#utility.yul\":337:340   */\n      dup6\n        /* \"#utility.yul\":315:354   */\n      tag_91\n      jump\t// in\n    tag_90:\n        /* \"#utility.yul\":102:360   */\n      pop\n      swap4\n      swap3\n      pop\n      pop\n      pop\n      jump\t// out\n        /* \"#utility.yul\":380:668   */\n    tag_92:\n      0x00\n        /* \"#utility.yul\":496:499   */\n      dup3\n        /* \"#utility.yul\":489:493   */\n      0x1f\n        /* \"#utility.yul\":481:487   */\n      dup4\n        /* \"#utility.yul\":477:494   */\n      add\n        /* \"#utility.yul\":473:500   */\n      slt\n        /* \"#utility.yul\":463:465   */\n      tag_94\n      jumpi\n        /* \"#utility.yul\":514:515   */\n      0x00\n        /* \"#utility.yul\":511:512   */\n      dup1\n        /* \"#utility.yul\":504:516   */\n      revert\n        /* \"#utility.yul\":463:465   */\n    tag_94:\n        /* \"#utility.yul\":547:553   */\n      dup2\n        /* \"#utility.yul\":541:554   */\n      mload\n        /* \"#utility.yul\":572:662   */\n      tag_95\n        /* \"#utility.yul\":658:661   */\n      dup5\n        /* \"#utility.yul\":650:656   */\n      dup3\n        /* \"#utility.yul\":643:647   */\n      0x20\n        /* \"#utility.yul\":635:641   */\n      dup7\n        /* \"#utility.yul\":631:648   */\n      add\n        /* \"#utility.yul\":572:662   */\n      tag_83\n      jump\t// in\n    tag_95:\n        /* \"#utility.yul\":563:662   */\n      swap2\n      pop\n        /* \"#utility.yul\":453:668   */\n      pop\n      swap3\n      swap2\n      pop\n      pop\n      jump\t// out\n        /* \"#utility.yul\":674:817   */\n    tag_96:\n      0x00\n        /* \"#utility.yul\":762:768   */\n      dup2\n        /* \"#utility.yul\":756:769   */\n      mload\n        /* \"#utility.yul\":747:769   */\n      swap1\n      pop\n        /* \"#utility.yul\":778:811   */\n      tag_98\n        /* \"#utility.yul\":805:810   */\n      dup2\n        /* \"#utility.yul\":778:811   */\n      tag_99\n      jump\t// in\n    tag_98:\n        /* \"#utility.yul\":737:817   */\n      swap3\n      swap2\n      pop\n      pop\n      jump\t// out\n        /* \"#utility.yul\":823:962   */\n    tag_100:\n      0x00\n        /* \"#utility.yul\":909:915   */\n      dup2\n        /* \"#utility.yul\":903:916   */\n      mload\n        /* \"#utility.yul\":894:916   */\n      swap1\n      pop\n        /* \"#utility.yul\":925:956   */\n      tag_102\n        /* \"#utility.yul\":950:955   */\n      dup2\n        /* \"#utility.yul\":925:956   */\n      tag_103\n      jump\t// in\n    tag_102:\n        /* \"#utility.yul\":884:962   */\n      swap3\n      swap2\n      pop\n      pop\n      jump\t// out\n        /* \"#utility.yul\":968:1358   */\n    tag_60:\n      0x00\n        /* \"#utility.yul\":1097:1099   */\n      0x20\n        /* \"#utility.yul\":1085:1094   */\n      dup3\n        /* \"#utility.yul\":1076:1083   */\n      dup5\n        /* \"#utility.yul\":1072:1095   */\n      sub\n        /* \"#utility.yul\":1068:1100   */\n      slt\n        /* \"#utility.yul\":1065:1067   */\n      iszero\n      tag_105\n      jumpi\n        /* \"#utility.yul\":1113:1114   */\n      0x00\n        /* \"#utility.yul\":1110:1111   */\n      dup1\n        /* \"#utility.yul\":1103:1115   */\n      revert\n        /* \"#utility.yul\":1065:1067   */\n    tag_105:\n        /* \"#utility.yul\":1177:1178   */\n      0x00\n        /* \"#utility.yul\":1166:1175   */\n      dup3\n        /* \"#utility.yul\":1162:1179   */\n      add\n        /* \"#utility.yul\":1156:1180   */\n      mload\n        /* \"#utility.yul\":1207:1225   */\n      0xffffffffffffffff\n        /* \"#utility.yul\":1199:1205   */\n      dup2\n        /* \"#utility.yul\":1196:1226   */\n      gt\n        /* \"#utility.yul\":1193:1195   */\n      iszero\n      tag_106\n      jumpi\n        /* \"#utility.yul\":1239:1240   */\n      0x00\n        /* \"#utility.yul\":1236:1237   */\n      dup1\n        /* \"#utility.yul\":1229:1241   */\n      revert\n        /* \"#utility.yul\":1193:1195   */\n    tag_106:\n        /* \"#utility.yul\":1267:1341   */\n      tag_107\n        /* \"#utility.yul\":1333:1340   */\n      dup5\n        /* \"#utility.yul\":1324:1330   */\n      dup3\n        /* \"#utility.yul\":1313:1322   */\n      dup6\n        /* \"#utility.yul\":1309:1331   */\n      add\n        /* \"#utility.yul\":1267:1341   */\n      tag_92\n      jump\t// in\n    tag_107:\n        /* \"#utility.yul\":1257:1341   */\n      swap2\n      pop\n        /* \"#utility.yul\":1127:1351   */\n      pop\n        /* \"#utility.yul\":1055:1358   */\n      swap3\n      swap2\n      pop\n      pop\n      jump\t// out\n        /* \"#utility.yul\":1364:1648   */\n    tag_48:\n      0x00\n        /* \"#utility.yul\":1483:1485   */\n      0x20\n        /* \"#utility.yul\":1471:1480   */\n      dup3\n        /* \"#utility.yul\":1462:1469   */\n      dup5\n        /* \"#utility.yul\":1458:1481   */\n      sub\n        /* \"#utility.yul\":1454:1486   */\n      slt\n        /* \"#utility.yul\":1451:1453   */\n      iszero\n      tag_109\n      jumpi\n        /* \"#utility.yul\":1499:1500   */\n      0x00\n        /* \"#utility.yul\":1496:1497   */\n      dup1\n        /* \"#utility.yul\":1489:1501   */\n      revert\n        /* \"#utility.yul\":1451:1453   */\n    tag_109:\n        /* \"#utility.yul\":1542:1543   */\n      0x00\n        /* \"#utility.yul\":1567:1631   */\n      tag_110\n        /* \"#utility.yul\":1623:1630   */\n      dup5\n        /* \"#utility.yul\":1614:1620   */\n      dup3\n        /* \"#utility.yul\":1603:1612   */\n      dup6\n        /* \"#utility.yul\":1599:1621   */\n      add\n        /* \"#utility.yul\":1567:1631   */\n      tag_96\n      jump\t// in\n    tag_110:\n        /* \"#utility.yul\":1557:1631   */\n      swap2\n      pop\n        /* \"#utility.yul\":1513:1641   */\n      pop\n        /* \"#utility.yul\":1441:1648   */\n      swap3\n      swap2\n      pop\n      pop\n      jump\t// out\n        /* \"#utility.yul\":1654:1934   */\n    tag_54:\n      0x00\n        /* \"#utility.yul\":1771:1773   */\n      0x20\n        /* \"#utility.yul\":1759:1768   */\n      dup3\n        /* \"#utility.yul\":1750:1757   */\n      dup5\n        /* \"#utility.yul\":1746:1769   */\n      sub\n        /* \"#utility.yul\":1742:1774   */\n      slt\n        /* \"#utility.yul\":1739:1741   */\n      iszero\n      tag_112\n      jumpi\n        /* \"#utility.yul\":1787:1788   */\n      0x00\n        /* \"#utility.yul\":1784:1785   */\n      dup1\n        /* \"#utility.yul\":1777:1789   */\n      revert\n        /* \"#utility.yul\":1739:1741   */\n    tag_112:\n        /* \"#utility.yul\":1830:1831   */\n      0x00\n        /* \"#utility.yul\":1855:1917   */\n      tag_113\n        /* \"#utility.yul\":1909:1916   */\n      dup5\n        /* \"#utility.yul\":1900:1906   */\n      dup3\n        /* \"#utility.yul\":1889:1898   */\n      dup6\n        /* \"#utility.yul\":1885:1907   */\n      add\n        /* \"#utility.yul\":1855:1917   */\n      tag_100\n      jump\t// in\n    tag_113:\n        /* \"#utility.yul\":1845:1917   */\n      swap2\n      pop\n        /* \"#utility.yul\":1801:1927   */\n      pop\n        /* \"#utility.yul\":1729:1934   */\n      swap3\n      swap2\n      pop\n      pop\n      jump\t// out\n        /* \"#utility.yul\":1940:2058   */\n    tag_114:\n        /* \"#utility.yul\":2027:2051   */\n      tag_116\n        /* \"#utility.yul\":2045:2050   */\n      dup2\n        /* \"#utility.yul\":2027:2051   */\n      tag_117\n      jump\t// in\n    tag_116:\n        /* \"#utility.yul\":2022:2025   */\n      dup3\n        /* \"#utility.yul\":2015:2052   */\n      mstore\n        /* \"#utility.yul\":2005:2058   */\n      pop\n      pop\n      jump\t// out\n        /* \"#utility.yul\":2064:2215   */\n    tag_118:\n        /* \"#utility.yul\":2161:2208   */\n      tag_120\n        /* \"#utility.yul\":2202:2207   */\n      dup2\n        /* \"#utility.yul\":2161:2208   */\n      tag_121\n      jump\t// in\n    tag_120:\n        /* \"#utility.yul\":2156:2159   */\n      dup3\n        /* \"#utility.yul\":2149:2209   */\n      mstore\n        /* \"#utility.yul\":2139:2215   */\n      pop\n      pop\n      jump\t// out\n        /* \"#utility.yul\":2221:2585   */\n    tag_122:\n      0x00\n        /* \"#utility.yul\":2337:2376   */\n      tag_124\n        /* \"#utility.yul\":2370:2375   */\n      dup3\n        /* \"#utility.yul\":2337:2376   */\n      tag_125\n      jump\t// in\n    tag_124:\n        /* \"#utility.yul\":2392:2463   */\n      tag_126\n        /* \"#utility.yul\":2456:2462   */\n      dup2\n        /* \"#utility.yul\":2451:2454   */\n      dup6\n        /* \"#utility.yul\":2392:2463   */\n      tag_127\n      jump\t// in\n    tag_126:\n        /* \"#utility.yul\":2385:2463   */\n      swap4\n      pop\n        /* \"#utility.yul\":2472:2524   */\n      tag_128\n        /* \"#utility.yul\":2517:2523   */\n      dup2\n        /* \"#utility.yul\":2512:2515   */\n      dup6\n        /* \"#utility.yul\":2505:2509   */\n      0x20\n        /* \"#utility.yul\":2498:2503   */\n      dup7\n        /* \"#utility.yul\":2494:2510   */\n      add\n        /* \"#utility.yul\":2472:2524   */\n      tag_91\n      jump\t// in\n    tag_128:\n        /* \"#utility.yul\":2549:2578   */\n      tag_129\n        /* \"#utility.yul\":2571:2577   */\n      dup2\n        /* \"#utility.yul\":2549:2578   */\n      tag_130\n      jump\t// in\n    tag_129:\n        /* \"#utility.yul\":2544:2547   */\n      dup5\n        /* \"#utility.yul\":2540:2579   */\n      add\n        /* \"#utility.yul\":2533:2579   */\n      swap2\n      pop\n        /* \"#utility.yul\":2313:2585   */\n      pop\n      swap3\n      swap2\n      pop\n      pop\n      jump\t// out\n        /* \"#utility.yul\":2591:2709   */\n    tag_131:\n        /* \"#utility.yul\":2678:2702   */\n      tag_133\n        /* \"#utility.yul\":2696:2701   */\n      dup2\n        /* \"#utility.yul\":2678:2702   */\n      tag_134\n      jump\t// in\n    tag_133:\n        /* \"#utility.yul\":2673:2676   */\n      dup3\n        /* \"#utility.yul\":2666:2703   */\n      mstore\n        /* \"#utility.yul\":2656:2709   */\n      pop\n      pop\n      jump\t// out\n        /* \"#utility.yul\":2715:2827   */\n    tag_135:\n        /* \"#utility.yul\":2798:2820   */\n      tag_137\n        /* \"#utility.yul\":2814:2819   */\n      dup2\n        /* \"#utility.yul\":2798:2820   */\n      tag_138\n      jump\t// in\n    tag_137:\n        /* \"#utility.yul\":2793:2796   */\n      dup3\n        /* \"#utility.yul\":2786:2821   */\n      mstore\n        /* \"#utility.yul\":2776:2827   */\n      pop\n      pop\n      jump\t// out\n        /* \"#utility.yul\":2833:3055   */\n    tag_43:\n      0x00\n        /* \"#utility.yul\":2964:2966   */\n      0x20\n        /* \"#utility.yul\":2953:2962   */\n      dup3\n        /* \"#utility.yul\":2949:2967   */\n      add\n        /* \"#utility.yul\":2941:2967   */\n      swap1\n      pop\n        /* \"#utility.yul\":2977:3048   */\n      tag_140\n        /* \"#utility.yul\":3045:3046   */\n      0x00\n        /* \"#utility.yul\":3034:3043   */\n      dup4\n        /* \"#utility.yul\":3030:3047   */\n      add\n        /* \"#utility.yul\":3021:3027   */\n      dup5\n        /* \"#utility.yul\":2977:3048   */\n      tag_114\n      jump\t// in\n    tag_140:\n        /* \"#utility.yul\":2931:3055   */\n      swap3\n      swap2\n      pop\n      pop\n      jump\t// out\n        /* \"#utility.yul\":3061:3303   */\n    tag_68:\n      0x00\n        /* \"#utility.yul\":3202:3204   */\n      0x20\n        /* \"#utility.yul\":3191:3200   */\n      dup3\n        /* \"#utility.yul\":3187:3205   */\n      add\n        /* \"#utility.yul\":3179:3205   */\n      swap1\n      pop\n        /* \"#utility.yul\":3215:3296   */\n      tag_142\n        /* \"#utility.yul\":3293:3294   */\n      0x00\n        /* \"#utility.yul\":3282:3291   */\n      dup4\n        /* \"#utility.yul\":3278:3295   */\n      add\n        /* \"#utility.yul\":3269:3275   */\n      dup5\n        /* \"#utility.yul\":3215:3296   */\n      tag_118\n      jump\t// in\n    tag_142:\n        /* \"#utility.yul\":3169:3303   */\n      swap3\n      swap2\n      pop\n      pop\n      jump\t// out\n        /* \"#utility.yul\":3309:3622   */\n    tag_17:\n      0x00\n        /* \"#utility.yul\":3460:3462   */\n      0x20\n        /* \"#utility.yul\":3449:3458   */\n      dup3\n        /* \"#utility.yul\":3445:3463   */\n      add\n        /* \"#utility.yul\":3437:3463   */\n      swap1\n      pop\n        /* \"#utility.yul\":3509:3518   */\n      dup2\n        /* \"#utility.yul\":3503:3507   */\n      dup2\n        /* \"#utility.yul\":3499:3519   */\n      sub\n        /* \"#utility.yul\":3495:3496   */\n      0x00\n        /* \"#utility.yul\":3484:3493   */\n      dup4\n        /* \"#utility.yul\":3480:3497   */\n      add\n        /* \"#utility.yul\":3473:3520   */\n      mstore\n        /* \"#utility.yul\":3537:3615   */\n      tag_144\n        /* \"#utility.yul\":3610:3614   */\n      dup2\n        /* \"#utility.yul\":3601:3607   */\n      dup5\n        /* \"#utility.yul\":3537:3615   */\n      tag_122\n      jump\t// in\n    tag_144:\n        /* \"#utility.yul\":3529:3615   */\n      swap1\n      pop\n        /* \"#utility.yul\":3427:3622   */\n      swap3\n      swap2\n      pop\n      pop\n      jump\t// out\n        /* \"#utility.yul\":3628:3850   */\n    tag_31:\n      0x00\n        /* \"#utility.yul\":3759:3761   */\n      0x20\n        /* \"#utility.yul\":3748:3757   */\n      dup3\n        /* \"#utility.yul\":3744:3762   */\n      add\n        /* \"#utility.yul\":3736:3762   */\n      swap1\n      pop\n        /* \"#utility.yul\":3772:3843   */\n      tag_146\n        /* \"#utility.yul\":3840:3841   */\n      0x00\n        /* \"#utility.yul\":3829:3838   */\n      dup4\n        /* \"#utility.yul\":3825:3842   */\n      add\n        /* \"#utility.yul\":3816:3822   */\n      dup5\n        /* \"#utility.yul\":3772:3843   */\n      tag_131\n      jump\t// in\n    tag_146:\n        /* \"#utility.yul\":3726:3850   */\n      swap3\n      swap2\n      pop\n      pop\n      jump\t// out\n        /* \"#utility.yul\":3856:4070   */\n    tag_21:\n      0x00\n        /* \"#utility.yul\":3983:3985   */\n      0x20\n        /* \"#utility.yul\":3972:3981   */\n      dup3\n        /* \"#utility.yul\":3968:3986   */\n      add\n        /* \"#utility.yul\":3960:3986   */\n      swap1\n      pop\n        /* \"#utility.yul\":3996:4063   */\n      tag_148\n        /* \"#utility.yul\":4060:4061   */\n      0x00\n        /* \"#utility.yul\":4049:4058   */\n      dup4\n        /* \"#utility.yul\":4045:4062   */\n      add\n        /* \"#utility.yul\":4036:4042   */\n      dup5\n        /* \"#utility.yul\":3996:4063   */\n      tag_135\n      jump\t// in\n    tag_148:\n        /* \"#utility.yul\":3950:4070   */\n      swap3\n      swap2\n      pop\n      pop\n      jump\t// out\n        /* \"#utility.yul\":4076:4359   */\n    tag_88:\n      0x00\n        /* \"#utility.yul\":4142:4144   */\n      0x40\n        /* \"#utility.yul\":4136:4145   */\n      mload\n        /* \"#utility.yul\":4126:4145   */\n      swap1\n      pop\n        /* \"#utility.yul\":4184:4188   */\n      dup2\n        /* \"#utility.yul\":4176:4182   */\n      dup2\n        /* \"#utility.yul\":4172:4189   */\n      add\n        /* \"#utility.yul\":4291:4297   */\n      dup2\n        /* \"#utility.yul\":4279:4289   */\n      dup2\n        /* \"#utility.yul\":4276:4298   */\n      lt\n        /* \"#utility.yul\":4255:4273   */\n      0xffffffffffffffff\n        /* \"#utility.yul\":4243:4253   */\n      dup3\n        /* \"#utility.yul\":4240:4274   */\n      gt\n        /* \"#utility.yul\":4237:4299   */\n      or\n        /* \"#utility.yul\":4234:4236   */\n      iszero\n      tag_150\n      jumpi\n        /* \"#utility.yul\":4302:4320   */\n      tag_151\n      tag_152\n      jump\t// in\n    tag_151:\n        /* \"#utility.yul\":4234:4236   */\n    tag_150:\n        /* \"#utility.yul\":4342:4352   */\n      dup1\n        /* \"#utility.yul\":4338:4340   */\n      0x40\n        /* \"#utility.yul\":4331:4353   */\n      mstore\n        /* \"#utility.yul\":4116:4359   */\n      pop\n      swap2\n      swap1\n      pop\n      jump\t// out\n        /* \"#utility.yul\":4365:4697   */\n    tag_87:\n      0x00\n        /* \"#utility.yul\":4517:4535   */\n      0xffffffffffffffff\n        /* \"#utility.yul\":4509:4515   */\n      dup3\n        /* \"#utility.yul\":4506:4536   */\n      gt\n        /* \"#utility.yul\":4503:4505   */\n      iszero\n      tag_154\n      jumpi\n        /* \"#utility.yul\":4539:4557   */\n      tag_155\n      tag_152\n      jump\t// in\n    tag_155:\n        /* \"#utility.yul\":4503:4505   */\n    tag_154:\n        /* \"#utility.yul\":4624:4628   */\n      0x1f\n        /* \"#utility.yul\":4620:4629   */\n      not\n        /* \"#utility.yul\":4613:4617   */\n      0x1f\n        /* \"#utility.yul\":4605:4611   */\n      dup4\n        /* \"#utility.yul\":4601:4618   */\n      add\n        /* \"#utility.yul\":4597:4630   */\n      and\n        /* \"#utility.yul\":4589:4630   */\n      swap1\n      pop\n        /* \"#utility.yul\":4685:4689   */\n      0x20\n        /* \"#utility.yul\":4679:4683   */\n      dup2\n        /* \"#utility.yul\":4675:4690   */\n      add\n        /* \"#utility.yul\":4667:4690   */\n      swap1\n      pop\n        /* \"#utility.yul\":4432:4697   */\n      swap2\n      swap1\n      pop\n      jump\t// out\n        /* \"#utility.yul\":4703:4802   */\n    tag_125:\n      0x00\n        /* \"#utility.yul\":4789:4794   */\n      dup2\n        /* \"#utility.yul\":4783:4795   */\n      mload\n        /* \"#utility.yul\":4773:4795   */\n      swap1\n      pop\n        /* \"#utility.yul\":4762:4802   */\n      swap2\n      swap1\n      pop\n      jump\t// out\n        /* \"#utility.yul\":4808:4977   */\n    tag_127:\n      0x00\n        /* \"#utility.yul\":4926:4932   */\n      dup3\n        /* \"#utility.yul\":4921:4924   */\n      dup3\n        /* \"#utility.yul\":4914:4933   */\n      mstore\n        /* \"#utility.yul\":4966:4970   */\n      0x20\n        /* \"#utility.yul\":4961:4964   */\n      dup3\n        /* \"#utility.yul\":4957:4971   */\n      add\n        /* \"#utility.yul\":4942:4971   */\n      swap1\n      pop\n        /* \"#utility.yul\":4904:4977   */\n      swap3\n      swap2\n      pop\n      pop\n      jump\t// out\n        /* \"#utility.yul\":4983:5079   */\n    tag_117:\n      0x00\n        /* \"#utility.yul\":5049:5073   */\n      tag_159\n        /* \"#utility.yul\":5067:5072   */\n      dup3\n        /* \"#utility.yul\":5049:5073   */\n      tag_160\n      jump\t// in\n    tag_159:\n        /* \"#utility.yul\":5038:5073   */\n      swap1\n      pop\n        /* \"#utility.yul\":5028:5079   */\n      swap2\n      swap1\n      pop\n      jump\t// out\n        /* \"#utility.yul\":5085:5211   */\n    tag_160:\n      0x00\n        /* \"#utility.yul\":5162:5204   */\n      0xffffffffffffffffffffffffffffffffffffffff\n        /* \"#utility.yul\":5155:5160   */\n      dup3\n        /* \"#utility.yul\":5151:5205   */\n      and\n        /* \"#utility.yul\":5140:5205   */\n      swap1\n      pop\n        /* \"#utility.yul\":5130:5211   */\n      swap2\n      swap1\n      pop\n      jump\t// out\n        /* \"#utility.yul\":5217:5294   */\n    tag_134:\n      0x00\n        /* \"#utility.yul\":5283:5288   */\n      dup2\n        /* \"#utility.yul\":5272:5288   */\n      swap1\n      pop\n        /* \"#utility.yul\":5262:5294   */\n      swap2\n      swap1\n      pop\n      jump\t// out\n        /* \"#utility.yul\":5300:5386   */\n    tag_138:\n      0x00\n        /* \"#utility.yul\":5375:5379   */\n      0xff\n        /* \"#utility.yul\":5368:5373   */\n      dup3\n        /* \"#utility.yul\":5364:5380   */\n      and\n        /* \"#utility.yul\":5353:5380   */\n      swap1\n      pop\n        /* \"#utility.yul\":5343:5386   */\n      swap2\n      swap1\n      pop\n      jump\t// out\n        /* \"#utility.yul\":5392:5515   */\n    tag_121:\n      0x00\n        /* \"#utility.yul\":5485:5509   */\n      tag_165\n        /* \"#utility.yul\":5503:5508   */\n      dup3\n        /* \"#utility.yul\":5485:5509   */\n      tag_134\n      jump\t// in\n    tag_165:\n        /* \"#utility.yul\":5472:5509   */\n      swap1\n      pop\n        /* \"#utility.yul\":5462:5515   */\n      swap2\n      swap1\n      pop\n      jump\t// out\n        /* \"#utility.yul\":5521:5828   */\n    tag_91:\n        /* \"#utility.yul\":5589:5590   */\n      0x00\n        /* \"#utility.yul\":5599:5712   */\n    tag_167:\n        /* \"#utility.yul\":5613:5619   */\n      dup4\n        /* \"#utility.yul\":5610:5611   */\n      dup2\n        /* \"#utility.yul\":5607:5620   */\n      lt\n        /* \"#utility.yul\":5599:5712   */\n      iszero\n      tag_169\n      jumpi\n        /* \"#utility.yul\":5698:5699   */\n      dup1\n        /* \"#utility.yul\":5693:5696   */\n      dup3\n        /* \"#utility.yul\":5689:5700   */\n      add\n        /* \"#utility.yul\":5683:5701   */\n      mload\n        /* \"#utility.yul\":5679:5680   */\n      dup2\n        /* \"#utility.yul\":5674:5677   */\n      dup5\n        /* \"#utility.yul\":5670:5681   */\n      add\n        /* \"#utility.yul\":5663:5702   */\n      mstore\n        /* \"#utility.yul\":5635:5637   */\n      0x20\n        /* \"#utility.yul\":5632:5633   */\n      dup2\n        /* \"#utility.yul\":5628:5638   */\n      add\n        /* \"#utility.yul\":5623:5638   */\n      swap1\n      pop\n        /* \"#utility.yul\":5599:5712   */\n      jump(tag_167)\n    tag_169:\n        /* \"#utility.yul\":5730:5736   */\n      dup4\n        /* \"#utility.yul\":5727:5728   */\n      dup2\n        /* \"#utility.yul\":5724:5737   */\n      gt\n        /* \"#utility.yul\":5721:5723   */\n      iszero\n      tag_170\n      jumpi\n        /* \"#utility.yul\":5810:5811   */\n      0x00\n        /* \"#utility.yul\":5801:5807   */\n      dup5\n        /* \"#utility.yul\":5796:5799   */\n      dup5\n        /* \"#utility.yul\":5792:5808   */\n      add\n        /* \"#utility.yul\":5785:5812   */\n      mstore\n        /* \"#utility.yul\":5721:5723   */\n    tag_170:\n        /* \"#utility.yul\":5570:5828   */\n      pop\n      pop\n      pop\n      pop\n      jump\t// out\n        /* \"#utility.yul\":5834:6014   */\n    tag_152:\n        /* \"#utility.yul\":5882:5959   */\n      0x4e487b7100000000000000000000000000000000000000000000000000000000\n        /* \"#utility.yul\":5879:5880   */\n      0x00\n        /* \"#utility.yul\":5872:5960   */\n      mstore\n        /* \"#utility.yul\":5979:5983   */\n      0x41\n        /* \"#utility.yul\":5976:5977   */\n      0x04\n        /* \"#utility.yul\":5969:5984   */\n      mstore\n        /* \"#utility.yul\":6003:6007   */\n      0x24\n        /* \"#utility.yul\":6000:6001   */\n      0x00\n        /* \"#utility.yul\":5993:6008   */\n      revert\n        /* \"#utility.yul\":6020:6122   */\n    tag_130:\n      0x00\n        /* \"#utility.yul\":6112:6114   */\n      0x1f\n        /* \"#utility.yul\":6108:6115   */\n      not\n        /* \"#utility.yul\":6103:6105   */\n      0x1f\n        /* \"#utility.yul\":6096:6101   */\n      dup4\n        /* \"#utility.yul\":6092:6106   */\n      add\n        /* \"#utility.yul\":6088:6116   */\n      and\n        /* \"#utility.yul\":6078:6116   */\n      swap1\n      pop\n        /* \"#utility.yul\":6068:6122   */\n      swap2\n      swap1\n      pop\n      jump\t// out\n        /* \"#utility.yul\":6128:6250   */\n    tag_99:\n        /* \"#utility.yul\":6201:6225   */\n      tag_174\n        /* \"#utility.yul\":6219:6224   */\n      dup2\n        /* \"#utility.yul\":6201:6225   */\n      tag_134\n      jump\t// in\n    tag_174:\n        /* \"#utility.yul\":6194:6199   */\n      dup2\n        /* \"#utility.yul\":6191:6226   */\n      eq\n        /* \"#utility.yul\":6181:6183   */\n      tag_175\n      jumpi\n        /* \"#utility.yul\":6240:6241   */\n      0x00\n        /* \"#utility.yul\":6237:6238   */\n      dup1\n        /* \"#utility.yul\":6230:6242   */\n      revert\n        /* \"#utility.yul\":6181:6183   */\n    tag_175:\n        /* \"#utility.yul\":6171:6250   */\n      pop\n      jump\t// out\n        /* \"#utility.yul\":6256:6374   */\n    tag_103:\n        /* \"#utility.yul\":6327:6349   */\n      tag_177\n        /* \"#utility.yul\":6343:6348   */\n      dup2\n        /* \"#utility.yul\":6327:6349   */\n      tag_138\n      jump\t// in\n    tag_177:\n        /* \"#utility.yul\":6320:6325   */\n      dup2\n        /* \"#utility.yul\":6317:6350   */\n      eq\n        /* \"#utility.yul\":6307:6309   */\n      tag_178\n      jumpi\n        /* \"#utility.yul\":6364:6365   */\n      0x00\n        /* \"#utility.yul\":6361:6362   */\n      dup1\n        /* \"#utility.yul\":6354:6366   */\n      revert\n        /* \"#utility.yul\":6307:6309   */\n    tag_178:\n        /* \"#utility.yul\":6297:6374   */\n      pop\n      jump\t// out\n\n    auxdata: 0xa2646970667358221220a2a2d1334ce12bdcef7398f5e8b1cb7d9562391f32e9638177898d32430468f564736f6c63430008000033\n}\n\nsub_1: assembly {\n        /* \"contracts/shiba.sol\":5315:6163  contract DNG_TokenMintERC20Token is wrapERC20 {\r... */\n      mstore(0x40, 0x80)\n        /* \"contracts/shiba.sol\":5454:5795  constructor(string memory name, string memory symbol, uint8 decimals, uint256 totalSupply, address payable feeReceiver, address tokenOwnerAddress) public payable {\r... */\n      mload(0x40)\n      sub(codesize, bytecodeSize)\n      dup1\n      bytecodeSize\n      dup4\n      codecopy\n      dup2\n      dup2\n      add\n      0x40\n      mstore\n      dup2\n      add\n      swap1\n      tag_1\n      swap2\n      swap1\n      tag_2\n      jump\t// in\n    tag_1:\n        /* \"contracts/shiba.sol\":5635:5639  name */\n      dup6\n        /* \"contracts/shiba.sol\":5627:5632  _name */\n      0x03\n        /* \"contracts/shiba.sol\":5627:5639  _name = name */\n      swap1\n      dup1\n      mload\n      swap1\n      0x20\n      add\n      swap1\n      tag_5\n      swap3\n      swap2\n      swap1\n      tag_6\n      jump\t// in\n    tag_5:\n      pop\n        /* \"contracts/shiba.sol\":5660:5666  symbol */\n      dup5\n        /* \"contracts/shiba.sol\":5650:5657  _symbol */\n      0x04\n        /* \"contracts/shiba.sol\":5650:5666  _symbol = symbol */\n      swap1\n      dup1\n      mload\n      swap1\n      0x20\n      add\n      swap1\n      tag_7\n      swap3\n      swap2\n      swap1\n      tag_6\n      jump\t// in\n    tag_7:\n      pop\n        /* \"contracts/shiba.sol\":5689:5697  decimals */\n      dup4\n        /* \"contracts/shiba.sol\":5677:5686  _decimals */\n      0x05\n      0x00\n        /* \"contracts/shiba.sol\":5677:5697  _decimals = decimals */\n      0x0100\n      exp\n      dup2\n      sload\n      dup2\n      0xff\n      mul\n      not\n      and\n      swap1\n      dup4\n      0xff\n      and\n      mul\n      or\n      swap1\n      sstore\n      pop\n        /* \"contracts/shiba.sol\":5708:5745  _mint(tokenOwnerAddress, totalSupply) */\n      tag_8\n        /* \"contracts/shiba.sol\":5714:5731  tokenOwnerAddress */\n      dup2\n        /* \"contracts/shiba.sol\":5733:5744  totalSupply */\n      dup5\n        /* \"contracts/shiba.sol\":5708:5713  _mint */\n      shl(0x20, tag_9)\n        /* \"contracts/shiba.sol\":5708:5745  _mint(tokenOwnerAddress, totalSupply) */\n      0x20\n      shr\n      jump\t// in\n    tag_8:\n        /* \"contracts/shiba.sol\":5756:5767  feeReceiver */\n      dup2\n        /* \"contracts/shiba.sol\":5756:5776  feeReceiver.transfer */\n      0xffffffffffffffffffffffffffffffffffffffff\n      and\n        /* \"contracts/shiba.sol\":5756:5787  feeReceiver.transfer(msg.value) */\n      0x08fc\n        /* \"contracts/shiba.sol\":5777:5786  msg.value */\n      callvalue\n        /* \"contracts/shiba.sol\":5756:5787  feeReceiver.transfer(msg.value) */\n      swap1\n      dup2\n      iszero\n      mul\n      swap1\n      mload(0x40)\n      0x00\n      mload(0x40)\n      dup1\n      dup4\n      sub\n      dup2\n      dup6\n      dup9\n      dup9\n      call\n      swap4\n      pop\n      pop\n      pop\n      pop\n      iszero\n      dup1\n      iszero\n      tag_11\n      jumpi\n      returndatasize\n      0x00\n      dup1\n      returndatacopy\n      revert(0x00, returndatasize)\n    tag_11:\n      pop\n        /* \"contracts/shiba.sol\":5454:5795  constructor(string memory name, string memory symbol, uint8 decimals, uint256 totalSupply, address payable feeReceiver, address tokenOwnerAddress) public payable {\r... */\n      pop\n      pop\n      pop\n      pop\n      pop\n      pop\n        /* \"contracts/shiba.sol\":5315:6163  contract DNG_TokenMintERC20Token is wrapERC20 {\r... */\n      jump(tag_12)\n        /* \"contracts/shiba.sol\":4015:4323  function _mint(address account, uint256 amount) internal {\r... */\n    tag_9:\n        /* \"contracts/shiba.sol\":4110:4111  0 */\n      0x00\n        /* \"contracts/shiba.sol\":4091:4112  account != address(0) */\n      0xffffffffffffffffffffffffffffffffffffffff\n      and\n        /* \"contracts/shiba.sol\":4091:4098  account */\n      dup3\n        /* \"contracts/shiba.sol\":4091:4112  account != address(0) */\n      0xffffffffffffffffffffffffffffffffffffffff\n      and\n      eq\n      iszero\n        /* \"contracts/shiba.sol\":4083:4148  require(account != address(0), \"ERC20: mint to the zero address\") */\n      tag_14\n      jumpi\n      mload(0x40)\n      0x08c379a000000000000000000000000000000000000000000000000000000000\n      dup2\n      mstore\n      0x04\n      add\n      tag_15\n      swap1\n      tag_16\n      jump\t// in\n    tag_15:\n      mload(0x40)\n      dup1\n      swap2\n      sub\n      swap1\n      revert\n    tag_14:\n        /* \"contracts/shiba.sol\":4176:4200  _totalSupply.add(amount) */\n      tag_17\n        /* \"contracts/shiba.sol\":4193:4199  amount */\n      dup2\n        /* \"contracts/shiba.sol\":4176:4188  _totalSupply */\n      sload(0x02)\n        /* \"contracts/shiba.sol\":4176:4192  _totalSupply.add */\n      or(tag_0_68, shl(0x20, tag_18))\n      swap1\n        /* \"contracts/shiba.sol\":4176:4200  _totalSupply.add(amount) */\n      swap2\n      swap1\n      0x20\n      shr\n      jump\t// in\n    tag_17:\n        /* \"contracts/shiba.sol\":4161:4173  _totalSupply */\n      0x02\n        /* \"contracts/shiba.sol\":4161:4200  _totalSupply = _totalSupply.add(amount) */\n      dup2\n      swap1\n      sstore\n      pop\n        /* \"contracts/shiba.sol\":4232:4262  _balances[account].add(amount) */\n      tag_19\n        /* \"contracts/shiba.sol\":4255:4261  amount */\n      dup2\n        /* \"contracts/shiba.sol\":4232:4241  _balances */\n      0x00\n        /* \"contracts/shiba.sol\":4232:4250  _balances[account] */\n      dup1\n        /* \"contracts/shiba.sol\":4242:4249  account */\n      dup6\n        /* \"contracts/shiba.sol\":4232:4250  _balances[account] */\n      0xffffffffffffffffffffffffffffffffffffffff\n      and\n      0xffffffffffffffffffffffffffffffffffffffff\n      and\n      dup2\n      mstore\n      0x20\n      add\n      swap1\n      dup2\n      mstore\n      0x20\n      add\n      0x00\n      keccak256\n      sload\n        /* \"contracts/shiba.sol\":4232:4254  _balances[account].add */\n      or(tag_0_68, shl(0x20, tag_18))\n      swap1\n        /* \"contracts/shiba.sol\":4232:4262  _balances[account].add(amount) */\n      swap2\n      swap1\n      0x20\n      shr\n      jump\t// in\n    tag_19:\n        /* \"contracts/shiba.sol\":4211:4220  _balances */\n      0x00\n        /* \"contracts/shiba.sol\":4211:4229  _balances[account] */\n      dup1\n        /* \"contracts/shiba.sol\":4221:4228  account */\n      dup5\n        /* \"contracts/shiba.sol\":4211:4229  _balances[account] */\n      0xffffffffffffffffffffffffffffffffffffffff\n      and\n      0xffffffffffffffffffffffffffffffffffffffff\n      and\n      dup2\n      mstore\n      0x20\n      add\n      swap1\n      dup2\n      mstore\n      0x20\n      add\n      0x00\n      keccak256\n        /* \"contracts/shiba.sol\":4211:4262  _balances[account] = _balances[account].add(amount) */\n      dup2\n      swap1\n      sstore\n      pop\n        /* \"contracts/shiba.sol\":4299:4306  account */\n      dup2\n        /* \"contracts/shiba.sol\":4278:4315  Transfer(address(0), account, amount) */\n      0xffffffffffffffffffffffffffffffffffffffff\n      and\n        /* \"contracts/shiba.sol\":4295:4296  0 */\n      0x00\n        /* \"contracts/shiba.sol\":4278:4315  Transfer(address(0), account, amount) */\n      0xffffffffffffffffffffffffffffffffffffffff\n      and\n      0xddf252ad1be2c89b69c2b068fc378daa952ba7f163c4a11628f55a4df523b3ef\n        /* \"contracts/shiba.sol\":4308:4314  amount */\n      dup4\n        /* \"contracts/shiba.sol\":4278:4315  Transfer(address(0), account, amount) */\n      mload(0x40)\n      tag_20\n      swap2\n      swap1\n      tag_21\n      jump\t// in\n    tag_20:\n      mload(0x40)\n      dup1\n      swap2\n      sub\n      swap1\n      log3\n        /* \"contracts/shiba.sol\":4015:4323  function _mint(address account, uint256 amount) internal {\r... */\n      pop\n      pop\n      jump\t// out\n        /* \"contracts/shiba.sol\":786:965  function add(uint256 a, uint256 b) internal pure returns (uint256) {\r... */\n    tag_18:\n        /* \"contracts/shiba.sol\":844:851  uint256 */\n      0x00\n        /* \"contracts/shiba.sol\":864:873  uint256 c */\n      dup1\n        /* \"contracts/shiba.sol\":880:881  b */\n      dup3\n        /* \"contracts/shiba.sol\":876:877  a */\n      dup5\n        /* \"contracts/shiba.sol\":876:881  a + b */\n      tag_23\n      swap2\n      swap1\n      tag_24\n      jump\t// in\n    tag_23:\n        /* \"contracts/shiba.sol\":864:881  uint256 c = a + b */\n      swap1\n      pop\n        /* \"contracts/shiba.sol\":905:906  a */\n      dup4\n        /* \"contracts/shiba.sol\":900:901  c */\n      dup2\n        /* \"contracts/shiba.sol\":900:906  c >= a */\n      lt\n      iszero\n        /* \"contracts/shiba.sol\":892:938  require(c >= a, \"SafeMath: addition overflow\") */\n      tag_25\n      jumpi\n      mload(0x40)\n      0x08c379a000000000000000000000000000000000000000000000000000000000\n      dup2\n      mstore\n      0x04\n      add\n      tag_26\n      swap1\n      tag_27\n      jump\t// in\n    tag_26:\n      mload(0x40)\n      dup1\n      swap2\n      sub\n      swap1\n      revert\n    tag_25:\n        /* \"contracts/shiba.sol\":956:957  c */\n      dup1\n        /* \"contracts/shiba.sol\":949:957  return c */\n      swap2\n      pop\n      pop\n        /* \"contracts/shiba.sol\":786:965  function add(uint256 a, uint256 b) internal pure returns (uint256) {\r... */\n      swap3\n      swap2\n      pop\n      pop\n      jump\t// out\n        /* \"contracts/shiba.sol\":5315:6163  contract DNG_TokenMintERC20Token is wrapERC20 {\r... */\n    tag_6:\n      dup3\n      dup1\n      sload\n      tag_28\n      swap1\n      tag_29\n      jump\t// in\n    tag_28:\n      swap1\n      0x00\n      mstore\n      keccak256(0x00, 0x20)\n      swap1\n      0x1f\n      add\n      0x20\n      swap1\n      div\n      dup2\n      add\n      swap3\n      dup3\n      tag_31\n      jumpi\n      0x00\n      dup6\n      sstore\n      jump(tag_30)\n    tag_31:\n      dup3\n      0x1f\n      lt\n      tag_32\n      jumpi\n      dup1\n      mload\n      not(0xff)\n      and\n      dup4\n      dup1\n      add\n      or\n      dup6\n      sstore\n      jump(tag_30)\n    tag_32:\n      dup3\n      dup1\n      add\n      0x01\n      add\n      dup6\n      sstore\n      dup3\n      iszero\n      tag_30\n      jumpi\n      swap2\n      dup3\n      add\n    tag_33:\n      dup3\n      dup2\n      gt\n      iszero\n      tag_34\n      jumpi\n      dup3\n      mload\n      dup3\n      sstore\n      swap2\n      0x20\n      add\n      swap2\n      swap1\n      0x01\n      add\n      swap1\n      jump(tag_33)\n    tag_34:\n    tag_30:\n      pop\n      swap1\n      pop\n      tag_35\n      swap2\n      swap1\n      tag_36\n      jump\t// in\n    tag_35:\n      pop\n      swap1\n      jump\t// out\n    tag_36:\n    tag_37:\n      dup1\n      dup3\n      gt\n      iszero\n      tag_38\n      jumpi\n      0x00\n      dup2\n      0x00\n      swap1\n      sstore\n      pop\n      0x01\n      add\n      jump(tag_37)\n    tag_38:\n      pop\n      swap1\n      jump\t// out\n        /* \"#utility.yul\":7:360   */\n    tag_40:\n      0x00\n        /* \"#utility.yul\":121:186   */\n      tag_42\n        /* \"#utility.yul\":136:185   */\n      tag_43\n        /* \"#utility.yul\":178:184   */\n      dup5\n        /* \"#utility.yul\":136:185   */\n      tag_44\n      jump\t// in\n    tag_43:\n        /* \"#utility.yul\":121:186   */\n      tag_45\n      jump\t// in\n    tag_42:\n        /* \"#utility.yul\":112:186   */\n      swap1\n      pop\n        /* \"#utility.yul\":209:215   */\n      dup3\n        /* \"#utility.yul\":202:207   */\n      dup2\n        /* \"#utility.yul\":195:216   */\n      mstore\n        /* \"#utility.yul\":247:251   */\n      0x20\n        /* \"#utility.yul\":240:245   */\n      dup2\n        /* \"#utility.yul\":236:252   */\n      add\n        /* \"#utility.yul\":285:288   */\n      dup5\n        /* \"#utility.yul\":276:282   */\n      dup5\n        /* \"#utility.yul\":271:274   */\n      dup5\n        /* \"#utility.yul\":267:283   */\n      add\n        /* \"#utility.yul\":264:289   */\n      gt\n        /* \"#utility.yul\":261:263   */\n      iszero\n      tag_46\n      jumpi\n        /* \"#utility.yul\":302:303   */\n      0x00\n        /* \"#utility.yul\":299:300   */\n      dup1\n        /* \"#utility.yul\":292:304   */\n      revert\n        /* \"#utility.yul\":261:263   */\n    tag_46:\n        /* \"#utility.yul\":315:354   */\n      tag_47\n        /* \"#utility.yul\":347:353   */\n      dup5\n        /* \"#utility.yul\":342:345   */\n      dup3\n        /* \"#utility.yul\":337:340   */\n      dup6\n        /* \"#utility.yul\":315:354   */\n      tag_48\n      jump\t// in\n    tag_47:\n        /* \"#utility.yul\":102:360   */\n      pop\n      swap4\n      swap3\n      pop\n      pop\n      pop\n      jump\t// out\n        /* \"#utility.yul\":366:509   */\n    tag_49:\n      0x00\n        /* \"#utility.yul\":454:460   */\n      dup2\n        /* \"#utility.yul\":448:461   */\n      mload\n        /* \"#utility.yul\":439:461   */\n      swap1\n      pop\n        /* \"#utility.yul\":470:503   */\n      tag_51\n        /* \"#utility.yul\":497:502   */\n      dup2\n        /* \"#utility.yul\":470:503   */\n      tag_52\n      jump\t// in\n    tag_51:\n        /* \"#utility.yul\":429:509   */\n      swap3\n      swap2\n      pop\n      pop\n      jump\t// out\n        /* \"#utility.yul\":515:674   */\n    tag_53:\n      0x00\n        /* \"#utility.yul\":611:617   */\n      dup2\n        /* \"#utility.yul\":605:618   */\n      mload\n        /* \"#utility.yul\":596:618   */\n      swap1\n      pop\n        /* \"#utility.yul\":627:668   */\n      tag_55\n        /* \"#utility.yul\":662:667   */\n      dup2\n        /* \"#utility.yul\":627:668   */\n      tag_56\n      jump\t// in\n    tag_55:\n        /* \"#utility.yul\":586:674   */\n      swap3\n      swap2\n      pop\n      pop\n      jump\t// out\n        /* \"#utility.yul\":694:982   */\n    tag_57:\n      0x00\n        /* \"#utility.yul\":810:813   */\n      dup3\n        /* \"#utility.yul\":803:807   */\n      0x1f\n        /* \"#utility.yul\":795:801   */\n      dup4\n        /* \"#utility.yul\":791:808   */\n      add\n        /* \"#utility.yul\":787:814   */\n      slt\n        /* \"#utility.yul\":777:779   */\n      tag_59\n      jumpi\n        /* \"#utility.yul\":828:829   */\n      0x00\n        /* \"#utility.yul\":825:826   */\n      dup1\n        /* \"#utility.yul\":818:830   */\n      revert\n        /* \"#utility.yul\":777:779   */\n    tag_59:\n        /* \"#utility.yul\":861:867   */\n      dup2\n        /* \"#utility.yul\":855:868   */\n      mload\n        /* \"#utility.yul\":886:976   */\n      tag_60\n        /* \"#utility.yul\":972:975   */\n      dup5\n        /* \"#utility.yul\":964:970   */\n      dup3\n        /* \"#utility.yul\":957:961   */\n      0x20\n        /* \"#utility.yul\":949:955   */\n      dup7\n        /* \"#utility.yul\":945:962   */\n      add\n        /* \"#utility.yul\":886:976   */\n      tag_40\n      jump\t// in\n    tag_60:\n        /* \"#utility.yul\":877:976   */\n      swap2\n      pop\n        /* \"#utility.yul\":767:982   */\n      pop\n      swap3\n      swap2\n      pop\n      pop\n      jump\t// out\n        /* \"#utility.yul\":988:1131   */\n    tag_61:\n      0x00\n        /* \"#utility.yul\":1076:1082   */\n      dup2\n        /* \"#utility.yul\":1070:1083   */\n      mload\n        /* \"#utility.yul\":1061:1083   */\n      swap1\n      pop\n        /* \"#utility.yul\":1092:1125   */\n      tag_63\n        /* \"#utility.yul\":1119:1124   */\n      dup2\n        /* \"#utility.yul\":1092:1125   */\n      tag_64\n      jump\t// in\n    tag_63:\n        /* \"#utility.yul\":1051:1131   */\n      swap3\n      swap2\n      pop\n      pop\n      jump\t// out\n        /* \"#utility.yul\":1137:1276   */\n    tag_65:\n      0x00\n        /* \"#utility.yul\":1223:1229   */\n      dup2\n        /* \"#utility.yul\":1217:1230   */\n      mload\n        /* \"#utility.yul\":1208:1230   */\n      swap1\n      pop\n        /* \"#utility.yul\":1239:1270   */\n      tag_67\n        /* \"#utility.yul\":1264:1269   */\n      dup2\n        /* \"#utility.yul\":1239:1270   */\n      tag_68\n      jump\t// in\n    tag_67:\n        /* \"#utility.yul\":1198:1276   */\n      swap3\n      swap2\n      pop\n      pop\n      jump\t// out\n        /* \"#utility.yul\":1282:2573   */\n    tag_2:\n      0x00\n      dup1\n      0x00\n      dup1\n      0x00\n      dup1\n        /* \"#utility.yul\":1512:1515   */\n      0xc0\n        /* \"#utility.yul\":1500:1509   */\n      dup8\n        /* \"#utility.yul\":1491:1498   */\n      dup10\n        /* \"#utility.yul\":1487:1510   */\n      sub\n        /* \"#utility.yul\":1483:1516   */\n      slt\n        /* \"#utility.yul\":1480:1482   */\n      iszero\n      tag_70\n      jumpi\n        /* \"#utility.yul\":1529:1530   */\n      0x00\n        /* \"#utility.yul\":1526:1527   */\n      dup1\n        /* \"#utility.yul\":1519:1531   */\n      revert\n        /* \"#utility.yul\":1480:1482   */\n    tag_70:\n        /* \"#utility.yul\":1593:1594   */\n      0x00\n        /* \"#utility.yul\":1582:1591   */\n      dup8\n        /* \"#utility.yul\":1578:1595   */\n      add\n        /* \"#utility.yul\":1572:1596   */\n      mload\n        /* \"#utility.yul\":1623:1641   */\n      0xffffffffffffffff\n        /* \"#utility.yul\":1615:1621   */\n      dup2\n        /* \"#utility.yul\":1612:1642   */\n      gt\n        /* \"#utility.yul\":1609:1611   */\n      iszero\n      tag_71\n      jumpi\n        /* \"#utility.yul\":1655:1656   */\n      0x00\n        /* \"#utility.yul\":1652:1653   */\n      dup1\n        /* \"#utility.yul\":1645:1657   */\n      revert\n        /* \"#utility.yul\":1609:1611   */\n    tag_71:\n        /* \"#utility.yul\":1683:1757   */\n      tag_72\n        /* \"#utility.yul\":1749:1756   */\n      dup10\n        /* \"#utility.yul\":1740:1746   */\n      dup3\n        /* \"#utility.yul\":1729:1738   */\n      dup11\n        /* \"#utility.yul\":1725:1747   */\n      add\n        /* \"#utility.yul\":1683:1757   */\n      tag_57\n      jump\t// in\n    tag_72:\n        /* \"#utility.yul\":1673:1757   */\n      swap7\n      pop\n        /* \"#utility.yul\":1543:1767   */\n      pop\n        /* \"#utility.yul\":1827:1829   */\n      0x20\n        /* \"#utility.yul\":1816:1825   */\n      dup8\n        /* \"#utility.yul\":1812:1830   */\n      add\n        /* \"#utility.yul\":1806:1831   */\n      mload\n        /* \"#utility.yul\":1858:1876   */\n      0xffffffffffffffff\n        /* \"#utility.yul\":1850:1856   */\n      dup2\n        /* \"#utility.yul\":1847:1877   */\n      gt\n        /* \"#utility.yul\":1844:1846   */\n      iszero\n      tag_73\n      jumpi\n        /* \"#utility.yul\":1890:1891   */\n      0x00\n        /* \"#utility.yul\":1887:1888   */\n      dup1\n        /* \"#utility.yul\":1880:1892   */\n      revert\n        /* \"#utility.yul\":1844:1846   */\n    tag_73:\n        /* \"#utility.yul\":1918:1992   */\n      tag_74\n        /* \"#utility.yul\":1984:1991   */\n      dup10\n        /* \"#utility.yul\":1975:1981   */\n      dup3\n        /* \"#utility.yul\":1964:1973   */\n      dup11\n        /* \"#utility.yul\":1960:1982   */\n      add\n        /* \"#utility.yul\":1918:1992   */\n      tag_57\n      jump\t// in\n    tag_74:\n        /* \"#utility.yul\":1908:1992   */\n      swap6\n      pop\n        /* \"#utility.yul\":1777:2002   */\n      pop\n        /* \"#utility.yul\":2041:2043   */\n      0x40\n        /* \"#utility.yul\":2067:2129   */\n      tag_75\n        /* \"#utility.yul\":2121:2128   */\n      dup10\n        /* \"#utility.yul\":2112:2118   */\n      dup3\n        /* \"#utility.yul\":2101:2110   */\n      dup11\n        /* \"#utility.yul\":2097:2119   */\n      add\n        /* \"#utility.yul\":2067:2129   */\n      tag_65\n      jump\t// in\n    tag_75:\n        /* \"#utility.yul\":2057:2129   */\n      swap5\n      pop\n        /* \"#utility.yul\":2012:2139   */\n      pop\n        /* \"#utility.yul\":2178:2180   */\n      0x60\n        /* \"#utility.yul\":2204:2268   */\n      tag_76\n        /* \"#utility.yul\":2260:2267   */\n      dup10\n        /* \"#utility.yul\":2251:2257   */\n      dup3\n        /* \"#utility.yul\":2240:2249   */\n      dup11\n        /* \"#utility.yul\":2236:2258   */\n      add\n        /* \"#utility.yul\":2204:2268   */\n      tag_61\n      jump\t// in\n    tag_76:\n        /* \"#utility.yul\":2194:2268   */\n      swap4\n      pop\n        /* \"#utility.yul\":2149:2278   */\n      pop\n        /* \"#utility.yul\":2317:2320   */\n      0x80\n        /* \"#utility.yul\":2344:2416   */\n      tag_77\n        /* \"#utility.yul\":2408:2415   */\n      dup10\n        /* \"#utility.yul\":2399:2405   */\n      dup3\n        /* \"#utility.yul\":2388:2397   */\n      dup11\n        /* \"#utility.yul\":2384:2406   */\n      add\n        /* \"#utility.yul\":2344:2416   */\n      tag_53\n      jump\t// in\n    tag_77:\n        /* \"#utility.yul\":2334:2416   */\n      swap3\n      pop\n        /* \"#utility.yul\":2288:2426   */\n      pop\n        /* \"#utility.yul\":2465:2468   */\n      0xa0\n        /* \"#utility.yul\":2492:2556   */\n      tag_78\n        /* \"#utility.yul\":2548:2555   */\n      dup10\n        /* \"#utility.yul\":2539:2545   */\n      dup3\n        /* \"#utility.yul\":2528:2537   */\n      dup11\n        /* \"#utility.yul\":2524:2546   */\n      add\n        /* \"#utility.yul\":2492:2556   */\n      tag_49\n      jump\t// in\n    tag_78:\n        /* \"#utility.yul\":2482:2556   */\n      swap2\n      pop\n        /* \"#utility.yul\":2436:2566   */\n      pop\n        /* \"#utility.yul\":1470:2573   */\n      swap3\n      swap6\n      pop\n      swap3\n      swap6\n      pop\n      swap3\n      swap6\n      jump\t// out\n        /* \"#utility.yul\":2579:2904   */\n    tag_79:\n      0x00\n        /* \"#utility.yul\":2742:2809   */\n      tag_81\n        /* \"#utility.yul\":2806:2808   */\n      0x1b\n        /* \"#utility.yul\":2801:2804   */\n      dup4\n        /* \"#utility.yul\":2742:2809   */\n      tag_82\n      jump\t// in\n    tag_81:\n        /* \"#utility.yul\":2735:2809   */\n      swap2\n      pop\n        /* \"#utility.yul\":2839:2868   */\n      0x536166654d6174683a206164646974696f6e206f766572666c6f770000000000\n        /* \"#utility.yul\":2835:2836   */\n      0x00\n        /* \"#utility.yul\":2830:2833   */\n      dup4\n        /* \"#utility.yul\":2826:2837   */\n      add\n        /* \"#utility.yul\":2819:2869   */\n      mstore\n        /* \"#utility.yul\":2895:2897   */\n      0x20\n        /* \"#utility.yul\":2890:2893   */\n      dup3\n        /* \"#utility.yul\":2886:2898   */\n      add\n        /* \"#utility.yul\":2879:2898   */\n      swap1\n      pop\n        /* \"#utility.yul\":2725:2904   */\n      swap2\n      swap1\n      pop\n      jump\t// out\n        /* \"#utility.yul\":2910:3239   */\n    tag_83:\n      0x00\n        /* \"#utility.yul\":3073:3140   */\n      tag_85\n        /* \"#utility.yul\":3137:3139   */\n      0x1f\n        /* \"#utility.yul\":3132:3135   */\n      dup4\n        /* \"#utility.yul\":3073:3140   */\n      tag_82\n      jump\t// in\n    tag_85:\n        /* \"#utility.yul\":3066:3140   */\n      swap2\n      pop\n        /* \"#utility.yul\":3170:3203   */\n      0x45524332303a206d696e7420746f20746865207a65726f206164647265737300\n        /* \"#utility.yul\":3166:3167   */\n      0x00\n        /* \"#utility.yul\":3161:3164   */\n      dup4\n        /* \"#utility.yul\":3157:3168   */\n      add\n        /* \"#utility.yul\":3150:3204   */\n      mstore\n        /* \"#utility.yul\":3230:3232   */\n      0x20\n        /* \"#utility.yul\":3225:3228   */\n      dup3\n        /* \"#utility.yul\":3221:3233   */\n      add\n        /* \"#utility.yul\":3214:3233   */\n      swap1\n      pop\n        /* \"#utility.yul\":3056:3239   */\n      swap2\n      swap1\n      pop\n      jump\t// out\n        /* \"#utility.yul\":3245:3363   */\n    tag_86:\n        /* \"#utility.yul\":3332:3356   */\n      tag_88\n        /* \"#utility.yul\":3350:3355   */\n      dup2\n        /* \"#utility.yul\":3332:3356   */\n      tag_89\n      jump\t// in\n    tag_88:\n        /* \"#utility.yul\":3327:3330   */\n      dup3\n        /* \"#utility.yul\":3320:3357   */\n      mstore\n        /* \"#utility.yul\":3310:3363   */\n      pop\n      pop\n      jump\t// out\n        /* \"#utility.yul\":3369:3788   */\n    tag_27:\n      0x00\n        /* \"#utility.yul\":3573:3575   */\n      0x20\n        /* \"#utility.yul\":3562:3571   */\n      dup3\n        /* \"#utility.yul\":3558:3576   */\n      add\n        /* \"#utility.yul\":3550:3576   */\n      swap1\n      pop\n        /* \"#utility.yul\":3622:3631   */\n      dup2\n        /* \"#utility.yul\":3616:3620   */\n      dup2\n        /* \"#utility.yul\":3612:3632   */\n      sub\n        /* \"#utility.yul\":3608:3609   */\n      0x00\n        /* \"#utility.yul\":3597:3606   */\n      dup4\n        /* \"#utility.yul\":3593:3610   */\n      add\n        /* \"#utility.yul\":3586:3633   */\n      mstore\n        /* \"#utility.yul\":3650:3781   */\n      tag_91\n        /* \"#utility.yul\":3776:3780   */\n      dup2\n        /* \"#utility.yul\":3650:3781   */\n      tag_79\n      jump\t// in\n    tag_91:\n        /* \"#utility.yul\":3642:3781   */\n      swap1\n      pop\n        /* \"#utility.yul\":3540:3788   */\n      swap2\n      swap1\n      pop\n      jump\t// out\n        /* \"#utility.yul\":3794:4213   */\n    tag_16:\n      0x00\n        /* \"#utility.yul\":3998:4000   */\n      0x20\n        /* \"#utility.yul\":3987:3996   */\n      dup3\n        /* \"#utility.yul\":3983:4001   */\n      add\n        /* \"#utility.yul\":3975:4001   */\n      swap1\n      pop\n        /* \"#utility.yul\":4047:4056   */\n      dup2\n        /* \"#utility.yul\":4041:4045   */\n      dup2\n        /* \"#utility.yul\":4037:4057   */\n      sub\n        /* \"#utility.yul\":4033:4034   */\n      0x00\n        /* \"#utility.yul\":4022:4031   */\n      dup4\n        /* \"#utility.yul\":4018:4035   */\n      add\n        /* \"#utility.yul\":4011:4058   */\n      mstore\n        /* \"#utility.yul\":4075:4206   */\n      tag_93\n        /* \"#utility.yul\":4201:4205   */\n      dup2\n        /* \"#utility.yul\":4075:4206   */\n      tag_83\n      jump\t// in\n    tag_93:\n        /* \"#utility.yul\":4067:4206   */\n      swap1\n      pop\n        /* \"#utility.yul\":3965:4213   */\n      swap2\n      swap1\n      pop\n      jump\t// out\n        /* \"#utility.yul\":4219:4441   */\n    tag_21:\n      0x00\n        /* \"#utility.yul\":4350:4352   */\n      0x20\n        /* \"#utility.yul\":4339:4348   */\n      dup3\n        /* \"#utility.yul\":4335:4353   */\n      add\n        /* \"#utility.yul\":4327:4353   */\n      swap1\n      pop\n        /* \"#utility.yul\":4363:4434   */\n      tag_95\n        /* \"#utility.yul\":4431:4432   */\n      0x00\n        /* \"#utility.yul\":4420:4429   */\n      dup4\n        /* \"#utility.yul\":4416:4433   */\n      add\n        /* \"#utility.yul\":4407:4413   */\n      dup5\n        /* \"#utility.yul\":4363:4434   */\n      tag_86\n      jump\t// in\n    tag_95:\n        /* \"#utility.yul\":4317:4441   */\n      swap3\n      swap2\n      pop\n      pop\n      jump\t// out\n        /* \"#utility.yul\":4447:4730   */\n    tag_45:\n      0x00\n        /* \"#utility.yul\":4513:4515   */\n      0x40\n        /* \"#utility.yul\":4507:4516   */\n      mload\n        /* \"#utility.yul\":4497:4516   */\n      swap1\n      pop\n        /* \"#utility.yul\":4555:4559   */\n      dup2\n        /* \"#utility.yul\":4547:4553   */\n      dup2\n        /* \"#utility.yul\":4543:4560   */\n      add\n        /* \"#utility.yul\":4662:4668   */\n      dup2\n        /* \"#utility.yul\":4650:4660   */\n      dup2\n        /* \"#utility.yul\":4647:4669   */\n      lt\n        /* \"#utility.yul\":4626:4644   */\n      0xffffffffffffffff\n        /* \"#utility.yul\":4614:4624   */\n      dup3\n        /* \"#utility.yul\":4611:4645   */\n      gt\n        /* \"#utility.yul\":4608:4670   */\n      or\n        /* \"#utility.yul\":4605:4607   */\n      iszero\n      tag_97\n      jumpi\n        /* \"#utility.yul\":4673:4691   */\n      tag_98\n      tag_99\n      jump\t// in\n    tag_98:\n        /* \"#utility.yul\":4605:4607   */\n    tag_97:\n        /* \"#utility.yul\":4713:4723   */\n      dup1\n        /* \"#utility.yul\":4709:4711   */\n      0x40\n        /* \"#utility.yul\":4702:4724   */\n      mstore\n        /* \"#utility.yul\":4487:4730   */\n      pop\n      swap2\n      swap1\n      pop\n      jump\t// out\n        /* \"#utility.yul\":4736:5068   */\n    tag_44:\n      0x00\n        /* \"#utility.yul\":4888:4906   */\n      0xffffffffffffffff\n        /* \"#utility.yul\":4880:4886   */\n      dup3\n        /* \"#utility.yul\":4877:4907   */\n      gt\n        /* \"#utility.yul\":4874:4876   */\n      iszero\n      tag_101\n      jumpi\n        /* \"#utility.yul\":4910:4928   */\n      tag_102\n      tag_99\n      jump\t// in\n    tag_102:\n        /* \"#utility.yul\":4874:4876   */\n    tag_101:\n        /* \"#utility.yul\":4995:4999   */\n      0x1f\n        /* \"#utility.yul\":4991:5000   */\n      not\n        /* \"#utility.yul\":4984:4988   */\n      0x1f\n        /* \"#utility.yul\":4976:4982   */\n      dup4\n        /* \"#utility.yul\":4972:4989   */\n      add\n        /* \"#utility.yul\":4968:5001   */\n      and\n        /* \"#utility.yul\":4960:5001   */\n      swap1\n      pop\n        /* \"#utility.yul\":5056:5060   */\n      0x20\n        /* \"#utility.yul\":5050:5054   */\n      dup2\n        /* \"#utility.yul\":5046:5061   */\n      add\n        /* \"#utility.yul\":5038:5061   */\n      swap1\n      pop\n        /* \"#utility.yul\":4803:5068   */\n      swap2\n      swap1\n      pop\n      jump\t// out\n        /* \"#utility.yul\":5074:5243   */\n    tag_82:\n      0x00\n        /* \"#utility.yul\":5192:5198   */\n      dup3\n        /* \"#utility.yul\":5187:5190   */\n      dup3\n        /* \"#utility.yul\":5180:5199   */\n      mstore\n        /* \"#utility.yul\":5232:5236   */\n      0x20\n        /* \"#utility.yul\":5227:5230   */\n      dup3\n        /* \"#utility.yul\":5223:5237   */\n      add\n        /* \"#utility.yul\":5208:5237   */\n      swap1\n      pop\n        /* \"#utility.yul\":5170:5243   */\n      swap3\n      swap2\n      pop\n      pop\n      jump\t// out\n        /* \"#utility.yul\":5249:5554   */\n    tag_24:\n      0x00\n        /* \"#utility.yul\":5308:5328   */\n      tag_105\n        /* \"#utility.yul\":5326:5327   */\n      dup3\n        /* \"#utility.yul\":5308:5328   */\n      tag_89\n      jump\t// in\n    tag_105:\n        /* \"#utility.yul\":5303:5328   */\n      swap2\n      pop\n        /* \"#utility.yul\":5342:5362   */\n      tag_106\n        /* \"#utility.yul\":5360:5361   */\n      dup4\n        /* \"#utility.yul\":5342:5362   */\n      tag_89\n      jump\t// in\n    tag_106:\n        /* \"#utility.yul\":5337:5362   */\n      swap3\n      pop\n        /* \"#utility.yul\":5496:5497   */\n      dup3\n        /* \"#utility.yul\":5428:5494   */\n      0xffffffffffffffffffffffffffffffffffffffffffffffffffffffffffffffff\n        /* \"#utility.yul\":5424:5498   */\n      sub\n        /* \"#utility.yul\":5421:5422   */\n      dup3\n        /* \"#utility.yul\":5418:5499   */\n      gt\n        /* \"#utility.yul\":5415:5417   */\n      iszero\n      tag_107\n      jumpi\n        /* \"#utility.yul\":5502:5520   */\n      tag_108\n      tag_109\n      jump\t// in\n    tag_108:\n        /* \"#utility.yul\":5415:5417   */\n    tag_107:\n        /* \"#utility.yul\":5546:5547   */\n      dup3\n        /* \"#utility.yul\":5543:5544   */\n      dup3\n        /* \"#utility.yul\":5539:5548   */\n      add\n        /* \"#utility.yul\":5532:5548   */\n      swap1\n      pop\n        /* \"#utility.yul\":5293:5554   */\n      swap3\n      swap2\n      pop\n      pop\n      jump\t// out\n        /* \"#utility.yul\":5560:5656   */\n    tag_110:\n      0x00\n        /* \"#utility.yul\":5626:5650   */\n      tag_112\n        /* \"#utility.yul\":5644:5649   */\n      dup3\n        /* \"#utility.yul\":5626:5650   */\n      tag_113\n      jump\t// in\n    tag_112:\n        /* \"#utility.yul\":5615:5650   */\n      swap1\n      pop\n        /* \"#utility.yul\":5605:5656   */\n      swap2\n      swap1\n      pop\n      jump\t// out\n        /* \"#utility.yul\":5662:5766   */\n    tag_114:\n      0x00\n        /* \"#utility.yul\":5736:5760   */\n      tag_116\n        /* \"#utility.yul\":5754:5759   */\n      dup3\n        /* \"#utility.yul\":5736:5760   */\n      tag_113\n      jump\t// in\n    tag_116:\n        /* \"#utility.yul\":5725:5760   */\n      swap1\n      pop\n        /* \"#utility.yul\":5715:5766   */\n      swap2\n      swap1\n      pop\n      jump\t// out\n        /* \"#utility.yul\":5772:5898   */\n    tag_113:\n      0x00\n        /* \"#utility.yul\":5849:5891   */\n      0xffffffffffffffffffffffffffffffffffffffff\n        /* \"#utility.yul\":5842:5847   */\n      dup3\n        /* \"#utility.yul\":5838:5892   */\n      and\n        /* \"#utility.yul\":5827:5892   */\n      swap1\n      pop\n        /* \"#utility.yul\":5817:5898   */\n      swap2\n      swap1\n      pop\n      jump\t// out\n        /* \"#utility.yul\":5904:5981   */\n    tag_89:\n      0x00\n        /* \"#utility.yul\":5970:5975   */\n      dup2\n        /* \"#utility.yul\":5959:5975   */\n      swap1\n      pop\n        /* \"#utility.yul\":5949:5981   */\n      swap2\n      swap1\n      pop\n      jump\t// out\n        /* \"#utility.yul\":5987:6073   */\n    tag_119:\n      0x00\n        /* \"#utility.yul\":6062:6066   */\n      0xff\n        /* \"#utility.yul\":6055:6060   */\n      dup3\n        /* \"#utility.yul\":6051:6067   */\n      and\n        /* \"#utility.yul\":6040:6067   */\n      swap1\n      pop\n        /* \"#utility.yul\":6030:6073   */\n      swap2\n      swap1\n      pop\n      jump\t// out\n        /* \"#utility.yul\":6079:6386   */\n    tag_48:\n        /* \"#utility.yul\":6147:6148   */\n      0x00\n        /* \"#utility.yul\":6157:6270   */\n    tag_122:\n        /* \"#utility.yul\":6171:6177   */\n      dup4\n        /* \"#utility.yul\":6168:6169   */\n      dup2\n        /* \"#utility.yul\":6165:6178   */\n      lt\n        /* \"#utility.yul\":6157:6270   */\n      iszero\n      tag_124\n      jumpi\n        /* \"#utility.yul\":6256:6257   */\n      dup1\n        /* \"#utility.yul\":6251:6254   */\n      dup3\n        /* \"#utility.yul\":6247:6258   */\n      add\n        /* \"#utility.yul\":6241:6259   */\n      mload\n        /* \"#utility.yul\":6237:6238   */\n      dup2\n        /* \"#utility.yul\":6232:6235   */\n      dup5\n        /* \"#utility.yul\":6228:6239   */\n      add\n        /* \"#utility.yul\":6221:6260   */\n      mstore\n        /* \"#utility.yul\":6193:6195   */\n      0x20\n        /* \"#utility.yul\":6190:6191   */\n      dup2\n        /* \"#utility.yul\":6186:6196   */\n      add\n        /* \"#utility.yul\":6181:6196   */\n      swap1\n      pop\n        /* \"#utility.yul\":6157:6270   */\n      jump(tag_122)\n    tag_124:\n        /* \"#utility.yul\":6288:6294   */\n      dup4\n        /* \"#utility.yul\":6285:6286   */\n      dup2\n        /* \"#utility.yul\":6282:6295   */\n      gt\n        /* \"#utility.yul\":6279:6281   */\n      iszero\n      tag_125\n      jumpi\n        /* \"#utility.yul\":6368:6369   */\n      0x00\n        /* \"#utility.yul\":6359:6365   */\n      dup5\n        /* \"#utility.yul\":6354:6357   */\n      dup5\n        /* \"#utility.yul\":6350:6366   */\n      add\n        /* \"#utility.yul\":6343:6370   */\n      mstore\n        /* \"#utility.yul\":6279:6281   */\n    tag_125:\n        /* \"#utility.yul\":6128:6386   */\n      pop\n      pop\n      pop\n      pop\n      jump\t// out\n        /* \"#utility.yul\":6392:6712   */\n    tag_29:\n      0x00\n        /* \"#utility.yul\":6473:6474   */\n      0x02\n        /* \"#utility.yul\":6467:6471   */\n      dup3\n        /* \"#utility.yul\":6463:6475   */\n      div\n        /* \"#utility.yul\":6453:6475   */\n      swap1\n      pop\n        /* \"#utility.yul\":6520:6521   */\n      0x01\n        /* \"#utility.yul\":6514:6518   */\n      dup3\n        /* \"#utility.yul\":6510:6522   */\n      and\n        /* \"#utility.yul\":6541:6559   */\n      dup1\n        /* \"#utility.yul\":6531:6533   */\n      tag_127\n      jumpi\n        /* \"#utility.yul\":6597:6601   */\n      0x7f\n        /* \"#utility.yul\":6589:6595   */\n      dup3\n        /* \"#utility.yul\":6585:6602   */\n      and\n        /* \"#utility.yul\":6575:6602   */\n      swap2\n      pop\n        /* \"#utility.yul\":6531:6533   */\n    tag_127:\n        /* \"#utility.yul\":6659:6661   */\n      0x20\n        /* \"#utility.yul\":6651:6657   */\n      dup3\n        /* \"#utility.yul\":6648:6662   */\n      lt\n        /* \"#utility.yul\":6628:6646   */\n      dup2\n        /* \"#utility.yul\":6625:6663   */\n      eq\n        /* \"#utility.yul\":6622:6624   */\n      iszero\n      tag_128\n      jumpi\n        /* \"#utility.yul\":6678:6696   */\n      tag_129\n      tag_130\n      jump\t// in\n    tag_129:\n        /* \"#utility.yul\":6622:6624   */\n    tag_128:\n        /* \"#utility.yul\":6443:6712   */\n      pop\n      swap2\n      swap1\n      pop\n      jump\t// out\n        /* \"#utility.yul\":6718:6898   */\n    tag_109:\n        /* \"#utility.yul\":6766:6843   */\n      0x4e487b7100000000000000000000000000000000000000000000000000000000\n        /* \"#utility.yul\":6763:6764   */\n      0x00\n        /* \"#utility.yul\":6756:6844   */\n      mstore\n        /* \"#utility.yul\":6863:6867   */\n      0x11\n        /* \"#utility.yul\":6860:6861   */\n      0x04\n        /* \"#utility.yul\":6853:6868   */\n      mstore\n        /* \"#utility.yul\":6887:6891   */\n      0x24\n        /* \"#utility.yul\":6884:6885   */\n      0x00\n        /* \"#utility.yul\":6877:6892   */\n      revert\n        /* \"#utility.yul\":6904:7084   */\n    tag_130:\n        /* \"#utility.yul\":6952:7029   */\n      0x4e487b7100000000000000000000000000000000000000000000000000000000\n        /* \"#utility.yul\":6949:6950   */\n      0x00\n        /* \"#utility.yul\":6942:7030   */\n      mstore\n        /* \"#utility.yul\":7049:7053   */\n      0x22\n        /* \"#utility.yul\":7046:7047   */\n      0x04\n        /* \"#utility.yul\":7039:7054   */\n      mstore\n        /* \"#utility.yul\":7073:7077   */\n      0x24\n        /* \"#utility.yul\":7070:7071   */\n      0x00\n        /* \"#utility.yul\":7063:7078   */\n      revert\n        /* \"#utility.yul\":7090:7270   */\n    tag_99:\n        /* \"#utility.yul\":7138:7215   */\n      0x4e487b7100000000000000000000000000000000000000000000000000000000\n        /* \"#utility.yul\":7135:7136   */\n      0x00\n        /* \"#utility.yul\":7128:7216   */\n      mstore\n        /* \"#utility.yul\":7235:7239   */\n      0x41\n        /* \"#utility.yul\":7232:7233   */\n      0x04\n        /* \"#utility.yul\":7225:7240   */\n      mstore\n        /* \"#utility.yul\":7259:7263   */\n      0x24\n        /* \"#utility.yul\":7256:7257   */\n      0x00\n        /* \"#utility.yul\":7249:7264   */\n      revert\n        /* \"#utility.yul\":7276:7398   */\n    tag_52:\n        /* \"#utility.yul\":7349:7373   */\n      tag_135\n        /* \"#utility.yul\":7367:7372   */\n      dup2\n        /* \"#utility.yul\":7349:7373   */\n      tag_110\n      jump\t// in\n    tag_135:\n        /* \"#utility.yul\":7342:7347   */\n      dup2\n        /* \"#utility.yul\":7339:7374   */\n      eq\n        /* \"#utility.yul\":7329:7331   */\n      tag_136\n      jumpi\n        /* \"#utility.yul\":7388:7389   */\n      0x00\n        /* \"#utility.yul\":7385:7386   */\n      dup1\n        /* \"#utility.yul\":7378:7390   */\n      revert\n        /* \"#utility.yul\":7329:7331   */\n    tag_136:\n        /* \"#utility.yul\":7319:7398   */\n      pop\n      jump\t// out\n        /* \"#utility.yul\":7404:7542   */\n    tag_56:\n        /* \"#utility.yul\":7485:7517   */\n      tag_138\n        /* \"#utility.yul\":7511:7516   */\n      dup2\n        /* \"#utility.yul\":7485:7517   */\n      tag_114\n      jump\t// in\n    tag_138:\n        /* \"#utility.yul\":7478:7483   */\n      dup2\n        /* \"#utility.yul\":7475:7518   */\n      eq\n        /* \"#utility.yul\":7465:7467   */\n      tag_139\n      jumpi\n        /* \"#utility.yul\":7532:7533   */\n      0x00\n        /* \"#utility.yul\":7529:7530   */\n      dup1\n        /* \"#utility.yul\":7522:7534   */\n      revert\n        /* \"#utility.yul\":7465:7467   */\n    tag_139:\n        /* \"#utility.yul\":7455:7542   */\n      pop\n      jump\t// out\n        /* \"#utility.yul\":7548:7670   */\n    tag_64:\n        /* \"#utility.yul\":7621:7645   */\n      tag_141\n        /* \"#utility.yul\":7639:7644   */\n      dup2\n        /* \"#utility.yul\":7621:7645   */\n      tag_89\n      jump\t// in\n    tag_141:\n        /* \"#utility.yul\":7614:7619   */\n      dup2\n        /* \"#utility.yul\":7611:7646   */\n      eq\n        /* \"#utility.yul\":7601:7603   */\n      tag_142\n      jumpi\n        /* \"#utility.yul\":7660:7661   */\n      0x00\n        /* \"#utility.yul\":7657:7658   */\n      dup1\n        /* \"#utility.yul\":7650:7662   */\n      revert\n        /* \"#utility.yul\":7601:7603   */\n    tag_142:\n        /* \"#utility.yul\":7591:7670   */\n      pop\n      jump\t// out\n        /* \"#utility.yul\":7676:7794   */\n    tag_68:\n        /* \"#utility.yul\":7747:7769   */\n      tag_144\n        /* \"#utility.yul\":7763:7768   */\n      dup2\n        /* \"#utility.yul\":7747:7769   */\n      tag_119\n      jump\t// in\n    tag_144:\n        /* \"#utility.yul\":7740:7745   */\n      dup2\n        /* \"#utility.yul\":7737:7770   */\n      eq\n        /* \"#utility.yul\":7727:7729   */\n      tag_145\n      jumpi\n        /* \"#utility.yul\":7784:7785   */\n      0x00\n        /* \"#utility.yul\":7781:7782   */\n      dup1\n        /* \"#utility.yul\":7774:7786   */\n      revert\n        /* \"#utility.yul\":7727:7729   */\n    tag_145:\n        /* \"#utility.yul\":7717:7794   */\n      pop\n      jump\t// out\n        /* \"contracts/shiba.sol\":5315:6163  contract DNG_TokenMintERC20Token is wrapERC20 {\r... */\n    tag_12:\n      dataSize(sub_0)\n      dup1\n      dataOffset(sub_0)\n      0x00\n      codecopy\n      0x00\n      return\n    stop\n\n    sub_0: assembly {\n            /* \"contracts/shiba.sol\":5315:6163  contract DNG_TokenMintERC20Token is wrapERC20 {\r... */\n          mstore(0x40, 0x80)\n          callvalue\n          dup1\n          iszero\n          tag_1\n          jumpi\n          0x00\n          dup1\n          revert\n        tag_1:\n          pop\n          jumpi(tag_2, lt(calldatasize, 0x04))\n          shr(0xe0, calldataload(0x00))\n          dup1\n          0x42966c68\n          gt\n          tag_15\n          jumpi\n          dup1\n          0x42966c68\n          eq\n          tag_9\n          jumpi\n          dup1\n          0x70a08231\n          eq\n          tag_10\n          jumpi\n          dup1\n          0xa457c2d7\n          eq\n          tag_11\n          jumpi\n          dup1\n          0xa9059cbb\n          eq\n          tag_12\n          jumpi\n          dup1\n          0xdd62ed3e\n          eq\n          tag_13\n          jumpi\n          dup1\n          0xf0141d84\n          eq\n          tag_14\n          jumpi\n          jump(tag_2)\n        tag_15:\n          dup1\n          0x095ea7b3\n          eq\n          tag_3\n          jumpi\n          dup1\n          0x15070401\n          eq\n          tag_4\n          jumpi\n          dup1\n          0x17d7de7c\n          eq\n          tag_5\n          jumpi\n          dup1\n          0x18160ddd\n          eq\n          tag_6\n          jumpi\n          dup1\n          0x23b872dd\n          eq\n          tag_7\n          jumpi\n          dup1\n          0x39509351\n          eq\n          tag_8\n          jumpi\n        tag_2:\n          0x00\n          dup1\n          revert\n            /* \"contracts/shiba.sol\":2712:2869  function approve(address spender, uint256 value) public override returns (bool) {\r... */\n        tag_3:\n          tag_16\n          0x04\n          dup1\n          calldatasize\n          sub\n          dup2\n          add\n          swap1\n          tag_17\n          swap2\n          swap1\n          tag_18\n          jump\t// in\n        tag_17:\n          tag_19\n          jump\t// in\n        tag_16:\n          mload(0x40)\n          tag_20\n          swap2\n          swap1\n          tag_21\n          jump\t// in\n        tag_20:\n          mload(0x40)\n          dup1\n          swap2\n          sub\n          swap1\n          return\n            /* \"contracts/shiba.sol\":5978:6068  function getSymbol() public view returns (string memory) {\r... */\n        tag_4:\n          tag_22\n          tag_23\n          jump\t// in\n        tag_22:\n          mload(0x40)\n          tag_24\n          swap2\n          swap1\n          tag_25\n          jump\t// in\n        tag_24:\n          mload(0x40)\n          dup1\n          swap2\n          sub\n          swap1\n          return\n            /* \"contracts/shiba.sol\":5886:5972  function getName() public view returns (string memory) {\r... */\n        tag_5:\n          tag_26\n          tag_27\n          jump\t// in\n        tag_26:\n          mload(0x40)\n          tag_28\n          swap2\n          swap1\n          tag_25\n          jump\t// in\n        tag_28:\n          mload(0x40)\n          dup1\n          swap2\n          sub\n          swap1\n          return\n            /* \"contracts/shiba.sol\":2161:2261  function totalSupply() public view override returns (uint256) {\r... */\n        tag_6:\n          tag_29\n          tag_30\n          jump\t// in\n        tag_29:\n          mload(0x40)\n          tag_31\n          swap2\n          swap1\n          tag_32\n          jump\t// in\n        tag_31:\n          mload(0x40)\n          dup1\n          swap2\n          sub\n          swap1\n          return\n            /* \"contracts/shiba.sol\":2875:3140  function transferFrom(address sender, address recipient, uint256 amount) public override returns (bool) {\r... */\n        tag_7:\n          tag_33\n          0x04\n          dup1\n          calldatasize\n          sub\n          dup2\n          add\n          swap1\n          tag_34\n          swap2\n          swap1\n          tag_35\n          jump\t// in\n        tag_34:\n          tag_36\n          jump\t// in\n        tag_33:\n          mload(0x40)\n          tag_37\n          swap2\n          swap1\n          tag_21\n          jump\t// in\n        tag_37:\n          mload(0x40)\n          dup1\n          swap2\n          sub\n          swap1\n          return\n            /* \"contracts/shiba.sol\":3146:3352  function increaseAllowance(address spender, uint256 addedValue) public returns (bool) {\r... */\n        tag_8:\n          tag_38\n          0x04\n          dup1\n          calldatasize\n          sub\n          dup2\n          add\n          swap1\n          tag_39\n          swap2\n          swap1\n          tag_18\n          jump\t// in\n        tag_39:\n          tag_40\n          jump\t// in\n        tag_38:\n          mload(0x40)\n          tag_41\n          swap2\n          swap1\n          tag_21\n          jump\t// in\n        tag_41:\n          mload(0x40)\n          dup1\n          swap2\n          sub\n          swap1\n          return\n            /* \"contracts/shiba.sol\":5801:5880  function burn(uint256 value) public {\r... */\n        tag_9:\n          tag_42\n          0x04\n          dup1\n          calldatasize\n          sub\n          dup2\n          add\n          swap1\n          tag_43\n          swap2\n          swap1\n          tag_44\n          jump\t// in\n        tag_43:\n          tag_45\n          jump\t// in\n        tag_42:\n          stop\n            /* \"contracts/shiba.sol\":2267:2386  function balanceOf(address account) public view override returns (uint256) {\r... */\n        tag_10:\n          tag_46\n          0x04\n          dup1\n          calldatasize\n          sub\n          dup2\n          add\n          swap1\n          tag_47\n          swap2\n          swap1\n          tag_48\n          jump\t// in\n        tag_47:\n          tag_49\n          jump\t// in\n        tag_46:\n          mload(0x40)\n          tag_50\n          swap2\n          swap1\n          tag_32\n          jump\t// in\n        tag_50:\n          mload(0x40)\n          dup1\n          swap2\n          sub\n          swap1\n          return\n            /* \"contracts/shiba.sol\":3358:3574  function decreaseAllowance(address spender, uint256 subtractedValue) public returns (bool) {\r... */\n        tag_11:\n          tag_51\n          0x04\n          dup1\n          calldatasize\n          sub\n          dup2\n          add\n          swap1\n          tag_52\n          swap2\n          swap1\n          tag_18\n          jump\t// in\n        tag_52:\n          tag_53\n          jump\t// in\n        tag_51:\n          mload(0x40)\n          tag_54\n          swap2\n          swap1\n          tag_21\n          jump\t// in\n        tag_54:\n          mload(0x40)\n          dup1\n          swap2\n          sub\n          swap1\n          return\n            /* \"contracts/shiba.sol\":2392:2557  function transfer(address recipient, uint256 amount) public override returns (bool) {\r... */\n        tag_12:\n          tag_55\n          0x04\n          dup1\n          calldatasize\n          sub\n          dup2\n          add\n          swap1\n          tag_56\n          swap2\n          swap1\n          tag_18\n          jump\t// in\n        tag_56:\n          tag_57\n          jump\t// in\n        tag_55:\n          mload(0x40)\n          tag_58\n          swap2\n          swap1\n          tag_21\n          jump\t// in\n        tag_58:\n          mload(0x40)\n          dup1\n          swap2\n          sub\n          swap1\n          return\n            /* \"contracts/shiba.sol\":2563:2706  function allowance(address owner, address spender) public view override returns (uint256) {\r... */\n        tag_13:\n          tag_59\n          0x04\n          dup1\n          calldatasize\n          sub\n          dup2\n          add\n          swap1\n          tag_60\n          swap2\n          swap1\n          tag_61\n          jump\t// in\n        tag_60:\n          tag_62\n          jump\t// in\n        tag_59:\n          mload(0x40)\n          tag_63\n          swap2\n          swap1\n          tag_32\n          jump\t// in\n        tag_63:\n          mload(0x40)\n          dup1\n          swap2\n          sub\n          swap1\n          return\n            /* \"contracts/shiba.sol\":6074:6160  function getDecimals() public view returns (uint8) {\r... */\n        tag_14:\n          tag_64\n          tag_65\n          jump\t// in\n        tag_64:\n          mload(0x40)\n          tag_66\n          swap2\n          swap1\n          tag_67\n          jump\t// in\n        tag_66:\n          mload(0x40)\n          dup1\n          swap2\n          sub\n          swap1\n          return\n            /* \"contracts/shiba.sol\":2712:2869  function approve(address spender, uint256 value) public override returns (bool) {\r... */\n        tag_19:\n            /* \"contracts/shiba.sol\":2786:2790  bool */\n          0x00\n            /* \"contracts/shiba.sol\":2803:2839  _approve(msg.sender, spender, value) */\n          tag_70\n            /* \"contracts/shiba.sol\":2812:2822  msg.sender */\n          caller\n            /* \"contracts/shiba.sol\":2824:2831  spender */\n          dup5\n            /* \"contracts/shiba.sol\":2833:2838  value */\n          dup5\n            /* \"contracts/shiba.sol\":2803:2811  _approve */\n          tag_71\n            /* \"contracts/shiba.sol\":2803:2839  _approve(msg.sender, spender, value) */\n          jump\t// in\n        tag_70:\n            /* \"contracts/shiba.sol\":2857:2861  true */\n          0x01\n            /* \"contracts/shiba.sol\":2850:2861  return true */\n          swap1\n          pop\n            /* \"contracts/shiba.sol\":2712:2869  function approve(address spender, uint256 value) public override returns (bool) {\r... */\n          swap3\n          swap2\n          pop\n          pop\n          jump\t// out\n            /* \"contracts/shiba.sol\":5978:6068  function getSymbol() public view returns (string memory) {\r... */\n        tag_23:\n            /* \"contracts/shiba.sol\":6020:6033  string memory */\n          0x60\n            /* \"contracts/shiba.sol\":6053:6060  _symbol */\n          0x04\n            /* \"contracts/shiba.sol\":6046:6060  return _symbol */\n          dup1\n          sload\n          tag_73\n          swap1\n          tag_74\n          jump\t// in\n        tag_73:\n          dup1\n          0x1f\n          add\n          0x20\n          dup1\n          swap2\n          div\n          mul\n          0x20\n          add\n          mload(0x40)\n          swap1\n          dup2\n          add\n          0x40\n          mstore\n          dup1\n          swap3\n          swap2\n          swap1\n          dup2\n          dup2\n          mstore\n          0x20\n          add\n          dup3\n          dup1\n          sload\n          tag_75\n          swap1\n          tag_74\n          jump\t// in\n        tag_75:\n          dup1\n          iszero\n          tag_76\n          jumpi\n          dup1\n          0x1f\n          lt\n          tag_77\n          jumpi\n          0x0100\n          dup1\n          dup4\n          sload\n          div\n          mul\n          dup4\n          mstore\n          swap2\n          0x20\n          add\n          swap2\n          jump(tag_76)\n        tag_77:\n          dup3\n          add\n          swap2\n          swap1\n          0x00\n          mstore\n          keccak256(0x00, 0x20)\n          swap1\n        tag_78:\n          dup2\n          sload\n          dup2\n          mstore\n          swap1\n          0x01\n          add\n          swap1\n          0x20\n          add\n          dup1\n          dup4\n          gt\n          tag_78\n          jumpi\n          dup3\n          swap1\n          sub\n          0x1f\n          and\n          dup3\n          add\n          swap2\n        tag_76:\n          pop\n          pop\n          pop\n          pop\n          pop\n          swap1\n          pop\n            /* \"contracts/shiba.sol\":5978:6068  function getSymbol() public view returns (string memory) {\r... */\n          swap1\n          jump\t// out\n            /* \"contracts/shiba.sol\":5886:5972  function getName() public view returns (string memory) {\r... */\n        tag_27:\n            /* \"contracts/shiba.sol\":5926:5939  string memory */\n          0x60\n            /* \"contracts/shiba.sol\":5959:5964  _name */\n          0x03\n            /* \"contracts/shiba.sol\":5952:5964  return _name */\n          dup1\n          sload\n          tag_80\n          swap1\n          tag_74\n          jump\t// in\n        tag_80:\n          dup1\n          0x1f\n          add\n          0x20\n          dup1\n          swap2\n          div\n          mul\n          0x20\n          add\n          mload(0x40)\n          swap1\n          dup2\n          add\n          0x40\n          mstore\n          dup1\n          swap3\n          swap2\n          swap1\n          dup2\n          dup2\n          mstore\n          0x20\n          add\n          dup3\n          dup1\n          sload\n          tag_81\n          swap1\n          tag_74\n          jump\t// in\n        tag_81:\n          dup1\n          iszero\n          tag_82\n          jumpi\n          dup1\n          0x1f\n          lt\n          tag_83\n          jumpi\n          0x0100\n          dup1\n          dup4\n          sload\n          div\n          mul\n          dup4\n          mstore\n          swap2\n          0x20\n          add\n          swap2\n          jump(tag_82)\n        tag_83:\n          dup3\n          add\n          swap2\n          swap1\n          0x00\n          mstore\n          keccak256(0x00, 0x20)\n          swap1\n        tag_84:\n          dup2\n          sload\n          dup2\n          mstore\n          swap1\n          0x01\n          add\n          swap1\n          0x20\n          add\n          dup1\n          dup4\n          gt\n          tag_84\n          jumpi\n          dup3\n          swap1\n          sub\n          0x1f\n          and\n          dup3\n          add\n          swap2\n        tag_82:\n          pop\n          pop\n          pop\n          pop\n          pop\n          swap1\n          pop\n            /* \"contracts/shiba.sol\":5886:5972  function getName() public view returns (string memory) {\r... */\n          swap1\n          jump\t// out\n            /* \"contracts/shiba.sol\":2161:2261  function totalSupply() public view override returns (uint256) {\r... */\n        tag_30:\n            /* \"contracts/shiba.sol\":2214:2221  uint256 */\n          0x00\n            /* \"contracts/shiba.sol\":2241:2253  _totalSupply */\n          sload(0x02)\n            /* \"contracts/shiba.sol\":2234:2253  return _totalSupply */\n          swap1\n          pop\n            /* \"contracts/shiba.sol\":2161:2261  function totalSupply() public view override returns (uint256) {\r... */\n          swap1\n          jump\t// out\n            /* \"contracts/shiba.sol\":2875:3140  function transferFrom(address sender, address recipient, uint256 amount) public override returns (bool) {\r... */\n        tag_36:\n            /* \"contracts/shiba.sol\":2973:2977  bool */\n          0x00\n            /* \"contracts/shiba.sol\":2990:3026  _transfer(sender, recipient, amount) */\n          tag_87\n            /* \"contracts/shiba.sol\":3000:3006  sender */\n          dup5\n            /* \"contracts/shiba.sol\":3008:3017  recipient */\n          dup5\n            /* \"contracts/shiba.sol\":3019:3025  amount */\n          dup5\n            /* \"contracts/shiba.sol\":2990:2999  _transfer */\n          tag_88\n            /* \"contracts/shiba.sol\":2990:3026  _transfer(sender, recipient, amount) */\n          jump\t// in\n        tag_87:\n            /* \"contracts/shiba.sol\":3037:3110  _approve(sender, msg.sender, _allowances[sender][msg.sender].sub(amount)) */\n          tag_89\n            /* \"contracts/shiba.sol\":3046:3052  sender */\n          dup5\n            /* \"contracts/shiba.sol\":3054:3064  msg.sender */\n          caller\n            /* \"contracts/shiba.sol\":3066:3109  _allowances[sender][msg.sender].sub(amount) */\n          tag_90\n            /* \"contracts/shiba.sol\":3102:3108  amount */\n          dup6\n            /* \"contracts/shiba.sol\":3066:3077  _allowances */\n          0x01\n            /* \"contracts/shiba.sol\":3066:3085  _allowances[sender] */\n          0x00\n            /* \"contracts/shiba.sol\":3078:3084  sender */\n          dup11\n            /* \"contracts/shiba.sol\":3066:3085  _allowances[sender] */\n          0xffffffffffffffffffffffffffffffffffffffff\n          and\n          0xffffffffffffffffffffffffffffffffffffffff\n          and\n          dup2\n          mstore\n          0x20\n          add\n          swap1\n          dup2\n          mstore\n          0x20\n          add\n          0x00\n          keccak256\n            /* \"contracts/shiba.sol\":3066:3097  _allowances[sender][msg.sender] */\n          0x00\n            /* \"contracts/shiba.sol\":3086:3096  msg.sender */\n          caller\n            /* \"contracts/shiba.sol\":3066:3097  _allowances[sender][msg.sender] */\n          0xffffffffffffffffffffffffffffffffffffffff\n          and\n          0xffffffffffffffffffffffffffffffffffffffff\n          and\n          dup2\n          mstore\n          0x20\n          add\n          swap1\n          dup2\n          mstore\n          0x20\n          add\n          0x00\n          keccak256\n          sload\n            /* \"contracts/shiba.sol\":3066:3101  _allowances[sender][msg.sender].sub */\n          tag_91\n          swap1\n            /* \"contracts/shiba.sol\":3066:3109  _allowances[sender][msg.sender].sub(amount) */\n          swap2\n          swap1\n          0xffffffff\n          and\n          jump\t// in\n        tag_90:\n            /* \"contracts/shiba.sol\":3037:3045  _approve */\n          tag_71\n            /* \"contracts/shiba.sol\":3037:3110  _approve(sender, msg.sender, _allowances[sender][msg.sender].sub(amount)) */\n          jump\t// in\n        tag_89:\n            /* \"contracts/shiba.sol\":3128:3132  true */\n          0x01\n            /* \"contracts/shiba.sol\":3121:3132  return true */\n          swap1\n          pop\n            /* \"contracts/shiba.sol\":2875:3140  function transferFrom(address sender, address recipient, uint256 amount) public override returns (bool) {\r... */\n          swap4\n          swap3\n          pop\n          pop\n          pop\n          jump\t// out\n            /* \"contracts/shiba.sol\":3146:3352  function increaseAllowance(address spender, uint256 addedValue) public returns (bool) {\r... */\n        tag_40:\n            /* \"contracts/shiba.sol\":3226:3230  bool */\n          0x00\n            /* \"contracts/shiba.sol\":3243:3322  _approve(msg.sender, spender, _allowances[msg.sender][spender].add(addedValue)) */\n          tag_93\n            /* \"contracts/shiba.sol\":3252:3262  msg.sender */\n          caller\n            /* \"contracts/shiba.sol\":3264:3271  spender */\n          dup5\n            /* \"contracts/shiba.sol\":3273:3321  _allowances[msg.sender][spender].add(addedValue) */\n          tag_94\n            /* \"contracts/shiba.sol\":3310:3320  addedValue */\n          dup6\n            /* \"contracts/shiba.sol\":3273:3284  _allowances */\n          0x01\n            /* \"contracts/shiba.sol\":3273:3296  _allowances[msg.sender] */\n          0x00\n            /* \"contracts/shiba.sol\":3285:3295  msg.sender */\n          caller\n            /* \"contracts/shiba.sol\":3273:3296  _allowances[msg.sender] */\n          0xffffffffffffffffffffffffffffffffffffffff\n          and\n          0xffffffffffffffffffffffffffffffffffffffff\n          and\n          dup2\n          mstore\n          0x20\n          add\n          swap1\n          dup2\n          mstore\n          0x20\n          add\n          0x00\n          keccak256\n            /* \"contracts/shiba.sol\":3273:3305  _allowances[msg.sender][spender] */\n          0x00\n            /* \"contracts/shiba.sol\":3297:3304  spender */\n          dup10\n            /* \"contracts/shiba.sol\":3273:3305  _allowances[msg.sender][spender] */\n          0xffffffffffffffffffffffffffffffffffffffff\n          and\n          0xffffffffffffffffffffffffffffffffffffffff\n          and\n          dup2\n          mstore\n          0x20\n          add\n          swap1\n          dup2\n          mstore\n          0x20\n          add\n          0x00\n          keccak256\n          sload\n            /* \"contracts/shiba.sol\":3273:3309  _allowances[msg.sender][spender].add */\n          tag_68\n          swap1\n            /* \"contracts/shiba.sol\":3273:3321  _allowances[msg.sender][spender].add(addedValue) */\n          swap2\n          swap1\n          0xffffffff\n          and\n          jump\t// in\n        tag_94:\n            /* \"contracts/shiba.sol\":3243:3251  _approve */\n          tag_71\n            /* \"contracts/shiba.sol\":3243:3322  _approve(msg.sender, spender, _allowances[msg.sender][spender].add(addedValue)) */\n          jump\t// in\n        tag_93:\n            /* \"contracts/shiba.sol\":3340:3344  true */\n          0x01\n            /* \"contracts/shiba.sol\":3333:3344  return true */\n          swap1\n          pop\n            /* \"contracts/shiba.sol\":3146:3352  function increaseAllowance(address spender, uint256 addedValue) public returns (bool) {\r... */\n          swap3\n          swap2\n          pop\n          pop\n          jump\t// out\n            /* \"contracts/shiba.sol\":5801:5880  function burn(uint256 value) public {\r... */\n        tag_45:\n            /* \"contracts/shiba.sol\":5848:5872  _burn(msg.sender, value) */\n          tag_96\n            /* \"contracts/shiba.sol\":5854:5864  msg.sender */\n          caller\n            /* \"contracts/shiba.sol\":5866:5871  value */\n          dup3\n            /* \"contracts/shiba.sol\":5848:5853  _burn */\n          tag_97\n            /* \"contracts/shiba.sol\":5848:5872  _burn(msg.sender, value) */\n          jump\t// in\n        tag_96:\n            /* \"contracts/shiba.sol\":5801:5880  function burn(uint256 value) public {\r... */\n          pop\n          jump\t// out\n            /* \"contracts/shiba.sol\":2267:2386  function balanceOf(address account) public view override returns (uint256) {\r... */\n        tag_49:\n            /* \"contracts/shiba.sol\":2333:2340  uint256 */\n          0x00\n            /* \"contracts/shiba.sol\":2360:2369  _balances */\n          dup1\n            /* \"contracts/shiba.sol\":2360:2378  _balances[account] */\n          0x00\n            /* \"contracts/shiba.sol\":2370:2377  account */\n          dup4\n            /* \"contracts/shiba.sol\":2360:2378  _balances[account] */\n          0xffffffffffffffffffffffffffffffffffffffff\n          and\n          0xffffffffffffffffffffffffffffffffffffffff\n          and\n          dup2\n          mstore\n          0x20\n          add\n          swap1\n          dup2\n          mstore\n          0x20\n          add\n          0x00\n          keccak256\n          sload\n            /* \"contracts/shiba.sol\":2353:2378  return _balances[account] */\n          swap1\n          pop\n            /* \"contracts/shiba.sol\":2267:2386  function balanceOf(address account) public view override returns (uint256) {\r... */\n          swap2\n          swap1\n          pop\n          jump\t// out\n            /* \"contracts/shiba.sol\":3358:3574  function decreaseAllowance(address spender, uint256 subtractedValue) public returns (bool) {\r... */\n        tag_53:\n            /* \"contracts/shiba.sol\":3443:3447  bool */\n          0x00\n            /* \"contracts/shiba.sol\":3460:3544  _approve(msg.sender, spender, _allowances[msg.sender][spender].sub(subtractedValue)) */\n          tag_100\n            /* \"contracts/shiba.sol\":3469:3479  msg.sender */\n          caller\n            /* \"contracts/shiba.sol\":3481:3488  spender */\n          dup5\n            /* \"contracts/shiba.sol\":3490:3543  _allowances[msg.sender][spender].sub(subtractedValue) */\n          tag_101\n            /* \"contracts/shiba.sol\":3527:3542  subtractedValue */\n          dup6\n            /* \"contracts/shiba.sol\":3490:3501  _allowances */\n          0x01\n            /* \"contracts/shiba.sol\":3490:3513  _allowances[msg.sender] */\n          0x00\n            /* \"contracts/shiba.sol\":3502:3512  msg.sender */\n          caller\n            /* \"contracts/shiba.sol\":3490:3513  _allowances[msg.sender] */\n          0xffffffffffffffffffffffffffffffffffffffff\n          and\n          0xffffffffffffffffffffffffffffffffffffffff\n          and\n          dup2\n          mstore\n          0x20\n          add\n          swap1\n          dup2\n          mstore\n          0x20\n          add\n          0x00\n          keccak256\n            /* \"contracts/shiba.sol\":3490:3522  _allowances[msg.sender][spender] */\n          0x00\n            /* \"contracts/shiba.sol\":3514:3521  spender */\n          dup10\n            /* \"contracts/shiba.sol\":3490:3522  _allowances[msg.sender][spender] */\n          0xffffffffffffffffffffffffffffffffffffffff\n          and\n          0xffffffffffffffffffffffffffffffffffffffff\n          and\n          dup2\n          mstore\n          0x20\n          add\n          swap1\n          dup2\n          mstore\n          0x20\n          add\n          0x00\n          keccak256\n          sload\n            /* \"contracts/shiba.sol\":3490:3526  _allowances[msg.sender][spender].sub */\n          tag_91\n          swap1\n            /* \"contracts/shiba.sol\":3490:3543  _allowances[msg.sender][spender].sub(subtractedValue) */\n          swap2\n          swap1\n          0xffffffff\n          and\n          jump\t// in\n        tag_101:\n            /* \"contracts/shiba.sol\":3460:3468  _approve */\n          tag_71\n            /* \"contracts/shiba.sol\":3460:3544  _approve(msg.sender, spender, _allowances[msg.sender][spender].sub(subtractedValue)) */\n          jump\t// in\n        tag_100:\n            /* \"contracts/shiba.sol\":3562:3566  true */\n          0x01\n            /* \"contracts/shiba.sol\":3555:3566  return true */\n          swap1\n          pop\n            /* \"contracts/shiba.sol\":3358:3574  function decreaseAllowance(address spender, uint256 subtractedValue) public returns (bool) {\r... */\n          swap3\n          swap2\n          pop\n          pop\n          jump\t// out\n            /* \"contracts/shiba.sol\":2392:2557  function transfer(address recipient, uint256 amount) public override returns (bool) {\r... */\n        tag_57:\n            /* \"contracts/shiba.sol\":2470:2474  bool */\n          0x00\n            /* \"contracts/shiba.sol\":2487:2527  _transfer(msg.sender, recipient, amount) */\n          tag_103\n            /* \"contracts/shiba.sol\":2497:2507  msg.sender */\n          caller\n            /* \"contracts/shiba.sol\":2509:2518  recipient */\n          dup5\n            /* \"contracts/shiba.sol\":2520:2526  amount */\n          dup5\n            /* \"contracts/shiba.sol\":2487:2496  _transfer */\n          tag_88\n            /* \"contracts/shiba.sol\":2487:2527  _transfer(msg.sender, recipient, amount) */\n          jump\t// in\n        tag_103:\n            /* \"contracts/shiba.sol\":2545:2549  true */\n          0x01\n            /* \"contracts/shiba.sol\":2538:2549  return true */\n          swap1\n          pop\n            /* \"contracts/shiba.sol\":2392:2557  function transfer(address recipient, uint256 amount) public override returns (bool) {\r... */\n          swap3\n          swap2\n          pop\n          pop\n          jump\t// out\n            /* \"contracts/shiba.sol\":2563:2706  function allowance(address owner, address spender) public view override returns (uint256) {\r... */\n        tag_62:\n            /* \"contracts/shiba.sol\":2644:2651  uint256 */\n          0x00\n            /* \"contracts/shiba.sol\":2671:2682  _allowances */\n          0x01\n            /* \"contracts/shiba.sol\":2671:2689  _allowances[owner] */\n          0x00\n            /* \"contracts/shiba.sol\":2683:2688  owner */\n          dup5\n            /* \"contracts/shiba.sol\":2671:2689  _allowances[owner] */\n          0xffffffffffffffffffffffffffffffffffffffff\n          and\n          0xffffffffffffffffffffffffffffffffffffffff\n          and\n          dup2\n          mstore\n          0x20\n          add\n          swap1\n          dup2\n          mstore\n          0x20\n          add\n          0x00\n          keccak256\n            /* \"contracts/shiba.sol\":2671:2698  _allowances[owner][spender] */\n          0x00\n            /* \"contracts/shiba.sol\":2690:2697  spender */\n          dup4\n            /* \"contracts/shiba.sol\":2671:2698  _allowances[owner][spender] */\n          0xffffffffffffffffffffffffffffffffffffffff\n          and\n          0xffffffffffffffffffffffffffffffffffffffff\n          and\n          dup2\n          mstore\n          0x20\n          add\n          swap1\n          dup2\n          mstore\n          0x20\n          add\n          0x00\n          keccak256\n          sload\n            /* \"contracts/shiba.sol\":2664:2698  return _allowances[owner][spender] */\n          swap1\n          pop\n            /* \"contracts/shiba.sol\":2563:2706  function allowance(address owner, address spender) public view override returns (uint256) {\r... */\n          swap3\n          swap2\n          pop\n          pop\n          jump\t// out\n            /* \"contracts/shiba.sol\":6074:6160  function getDecimals() public view returns (uint8) {\r... */\n        tag_65:\n            /* \"contracts/shiba.sol\":6118:6123  uint8 */\n          0x00\n            /* \"contracts/shiba.sol\":6143:6152  _decimals */\n          0x05\n          0x00\n          swap1\n          sload\n          swap1\n          0x0100\n          exp\n          swap1\n          div\n          0xff\n          and\n            /* \"contracts/shiba.sol\":6136:6152  return _decimals */\n          swap1\n          pop\n            /* \"contracts/shiba.sol\":6074:6160  function getDecimals() public view returns (uint8) {\r... */\n          swap1\n          jump\t// out\n            /* \"contracts/shiba.sol\":786:965  function add(uint256 a, uint256 b) internal pure returns (uint256) {\r... */\n        tag_68:\n            /* \"contracts/shiba.sol\":844:851  uint256 */\n          0x00\n            /* \"contracts/shiba.sol\":864:873  uint256 c */\n          dup1\n            /* \"contracts/shiba.sol\":880:881  b */\n          dup3\n            /* \"contracts/shiba.sol\":876:877  a */\n          dup5\n            /* \"contracts/shiba.sol\":876:881  a + b */\n          tag_107\n          swap2\n          swap1\n          tag_108\n          jump\t// in\n        tag_107:\n            /* \"contracts/shiba.sol\":864:881  uint256 c = a + b */\n          swap1\n          pop\n            /* \"contracts/shiba.sol\":905:906  a */\n          dup4\n            /* \"contracts/shiba.sol\":900:901  c */\n          dup2\n            /* \"contracts/shiba.sol\":900:906  c >= a */\n          lt\n          iszero\n            /* \"contracts/shiba.sol\":892:938  require(c >= a, \"SafeMath: addition overflow\") */\n          tag_109\n          jumpi\n          mload(0x40)\n          0x08c379a000000000000000000000000000000000000000000000000000000000\n          dup2\n          mstore\n          0x04\n          add\n          tag_110\n          swap1\n          tag_111\n          jump\t// in\n        tag_110:\n          mload(0x40)\n          dup1\n          swap2\n          sub\n          swap1\n          revert\n        tag_109:\n            /* \"contracts/shiba.sol\":956:957  c */\n          dup1\n            /* \"contracts/shiba.sol\":949:957  return c */\n          swap2\n          pop\n          pop\n            /* \"contracts/shiba.sol\":786:965  function add(uint256 a, uint256 b) internal pure returns (uint256) {\r... */\n          swap3\n          swap2\n          pop\n          pop\n          jump\t// out\n            /* \"contracts/shiba.sol\":4641:4976  function _approve(address owner, address spender, uint256 value) internal {\r... */\n        tag_71:\n            /* \"contracts/shiba.sol\":4751:4752  0 */\n          0x00\n            /* \"contracts/shiba.sol\":4734:4753  owner != address(0) */\n          0xffffffffffffffffffffffffffffffffffffffff\n          and\n            /* \"contracts/shiba.sol\":4734:4739  owner */\n          dup4\n            /* \"contracts/shiba.sol\":4734:4753  owner != address(0) */\n          0xffffffffffffffffffffffffffffffffffffffff\n          and\n          eq\n          iszero\n            /* \"contracts/shiba.sol\":4726:4794  require(owner != address(0), \"ERC20: approve from the zero address\") */\n          tag_113\n          jumpi\n          mload(0x40)\n          0x08c379a000000000000000000000000000000000000000000000000000000000\n          dup2\n          mstore\n          0x04\n          add\n          tag_114\n          swap1\n          tag_115\n          jump\t// in\n        tag_114:\n          mload(0x40)\n          dup1\n          swap2\n          sub\n          swap1\n          revert\n        tag_113:\n            /* \"contracts/shiba.sol\":4832:4833  0 */\n          0x00\n            /* \"contracts/shiba.sol\":4813:4834  spender != address(0) */\n          0xffffffffffffffffffffffffffffffffffffffff\n          and\n            /* \"contracts/shiba.sol\":4813:4820  spender */\n          dup3\n            /* \"contracts/shiba.sol\":4813:4834  spender != address(0) */\n          0xffffffffffffffffffffffffffffffffffffffff\n          and\n          eq\n          iszero\n            /* \"contracts/shiba.sol\":4805:4873  require(spender != address(0), \"ERC20: approve to the zero address\") */\n          tag_116\n          jumpi\n          mload(0x40)\n          0x08c379a000000000000000000000000000000000000000000000000000000000\n          dup2\n          mstore\n          0x04\n          add\n          tag_117\n          swap1\n          tag_118\n          jump\t// in\n        tag_117:\n          mload(0x40)\n          dup1\n          swap2\n          sub\n          swap1\n          revert\n        tag_116:\n            /* \"contracts/shiba.sol\":4916:4921  value */\n          dup1\n            /* \"contracts/shiba.sol\":4886:4897  _allowances */\n          0x01\n            /* \"contracts/shiba.sol\":4886:4904  _allowances[owner] */\n          0x00\n            /* \"contracts/shiba.sol\":4898:4903  owner */\n          dup6\n            /* \"contracts/shiba.sol\":4886:4904  _allowances[owner] */\n          0xffffffffffffffffffffffffffffffffffffffff\n          and\n          0xffffffffffffffffffffffffffffffffffffffff\n          and\n          dup2\n          mstore\n          0x20\n          add\n          swap1\n          dup2\n          mstore\n          0x20\n          add\n          0x00\n          keccak256\n            /* \"contracts/shiba.sol\":4886:4913  _allowances[owner][spender] */\n          0x00\n            /* \"contracts/shiba.sol\":4905:4912  spender */\n          dup5\n            /* \"contracts/shiba.sol\":4886:4913  _allowances[owner][spender] */\n          0xffffffffffffffffffffffffffffffffffffffff\n          and\n          0xffffffffffffffffffffffffffffffffffffffff\n          and\n          dup2\n          mstore\n          0x20\n          add\n          swap1\n          dup2\n          mstore\n          0x20\n          add\n          0x00\n          keccak256\n            /* \"contracts/shiba.sol\":4886:4921  _allowances[owner][spender] = value */\n          dup2\n          swap1\n          sstore\n          pop\n            /* \"contracts/shiba.sol\":4953:4960  spender */\n          dup2\n            /* \"contracts/shiba.sol\":4937:4968  Approval(owner, spender, value) */\n          0xffffffffffffffffffffffffffffffffffffffff\n          and\n            /* \"contracts/shiba.sol\":4946:4951  owner */\n          dup4\n            /* \"contracts/shiba.sol\":4937:4968  Approval(owner, spender, value) */\n          0xffffffffffffffffffffffffffffffffffffffff\n          and\n          0x8c5be1e5ebec7d5bd14f71427d1e84f3dd0314c0f7b2291e5b200ac8c7c3b925\n            /* \"contracts/shiba.sol\":4962:4967  value */\n          dup4\n            /* \"contracts/shiba.sol\":4937:4968  Approval(owner, spender, value) */\n          mload(0x40)\n          tag_119\n          swap2\n          swap1\n          tag_32\n          jump\t// in\n        tag_119:\n          mload(0x40)\n          dup1\n          swap2\n          sub\n          swap1\n          log3\n            /* \"contracts/shiba.sol\":4641:4976  function _approve(address owner, address spender, uint256 value) internal {\r... */\n          pop\n          pop\n          pop\n          jump\t// out\n            /* \"contracts/shiba.sol\":3580:4009  function _transfer(address sender, address recipient, uint256 amount) internal {\r... */\n        tag_88:\n            /* \"contracts/shiba.sol\":3696:3697  0 */\n          0x00\n            /* \"contracts/shiba.sol\":3678:3698  sender != address(0) */\n          0xffffffffffffffffffffffffffffffffffffffff\n          and\n            /* \"contracts/shiba.sol\":3678:3684  sender */\n          dup4\n            /* \"contracts/shiba.sol\":3678:3698  sender != address(0) */\n          0xffffffffffffffffffffffffffffffffffffffff\n          and\n          eq\n          iszero\n            /* \"contracts/shiba.sol\":3670:3740  require(sender != address(0), \"ERC20: transfer from the zero address\") */\n          tag_121\n          jumpi\n          mload(0x40)\n          0x08c379a000000000000000000000000000000000000000000000000000000000\n          dup2\n          mstore\n          0x04\n          add\n          tag_122\n          swap1\n          tag_123\n          jump\t// in\n        tag_122:\n          mload(0x40)\n          dup1\n          swap2\n          sub\n          swap1\n          revert\n        tag_121:\n            /* \"contracts/shiba.sol\":3780:3781  0 */\n          0x00\n            /* \"contracts/shiba.sol\":3759:3782  recipient != address(0) */\n          0xffffffffffffffffffffffffffffffffffffffff\n          and\n            /* \"contracts/shiba.sol\":3759:3768  recipient */\n          dup3\n            /* \"contracts/shiba.sol\":3759:3782  recipient != address(0) */\n          0xffffffffffffffffffffffffffffffffffffffff\n          and\n          eq\n          iszero\n            /* \"contracts/shiba.sol\":3751:3822  require(recipient != address(0), \"ERC20: transfer to the zero address\") */\n          tag_124\n          jumpi\n          mload(0x40)\n          0x08c379a000000000000000000000000000000000000000000000000000000000\n          dup2\n          mstore\n          0x04\n          add\n          tag_125\n          swap1\n          tag_126\n          jump\t// in\n        tag_125:\n          mload(0x40)\n          dup1\n          swap2\n          sub\n          swap1\n          revert\n        tag_124:\n            /* \"contracts/shiba.sol\":3855:3884  _balances[sender].sub(amount) */\n          tag_127\n            /* \"contracts/shiba.sol\":3877:3883  amount */\n          dup2\n            /* \"contracts/shiba.sol\":3855:3864  _balances */\n          0x00\n            /* \"contracts/shiba.sol\":3855:3872  _balances[sender] */\n          dup1\n            /* \"contracts/shiba.sol\":3865:3871  sender */\n          dup7\n            /* \"contracts/shiba.sol\":3855:3872  _balances[sender] */\n          0xffffffffffffffffffffffffffffffffffffffff\n          and\n          0xffffffffffffffffffffffffffffffffffffffff\n          and\n          dup2\n          mstore\n          0x20\n          add\n          swap1\n          dup2\n          mstore\n          0x20\n          add\n          0x00\n          keccak256\n          sload\n            /* \"contracts/shiba.sol\":3855:3876  _balances[sender].sub */\n          tag_91\n          swap1\n            /* \"contracts/shiba.sol\":3855:3884  _balances[sender].sub(amount) */\n          swap2\n          swap1\n          0xffffffff\n          and\n          jump\t// in\n        tag_127:\n            /* \"contracts/shiba.sol\":3835:3844  _balances */\n          0x00\n            /* \"contracts/shiba.sol\":3835:3852  _balances[sender] */\n          dup1\n            /* \"contracts/shiba.sol\":3845:3851  sender */\n          dup6\n            /* \"contracts/shiba.sol\":3835:3852  _balances[sender] */\n          0xffffffffffffffffffffffffffffffffffffffff\n          and\n          0xffffffffffffffffffffffffffffffffffffffff\n          and\n          dup2\n          mstore\n          0x20\n          add\n          swap1\n          dup2\n          mstore\n          0x20\n          add\n          0x00\n          keccak256\n            /* \"contracts/shiba.sol\":3835:3884  _balances[sender] = _balances[sender].sub(amount) */\n          dup2\n          swap1\n          sstore\n          pop\n            /* \"contracts/shiba.sol\":3918:3950  _balances[recipient].add(amount) */\n          tag_128\n            /* \"contracts/shiba.sol\":3943:3949  amount */\n          dup2\n            /* \"contracts/shiba.sol\":3918:3927  _balances */\n          0x00\n            /* \"contracts/shiba.sol\":3918:3938  _balances[recipient] */\n          dup1\n            /* \"contracts/shiba.sol\":3928:3937  recipient */\n          dup6\n            /* \"contracts/shiba.sol\":3918:3938  _balances[recipient] */\n          0xffffffffffffffffffffffffffffffffffffffff\n          and\n          0xffffffffffffffffffffffffffffffffffffffff\n          and\n          dup2\n          mstore\n          0x20\n          add\n          swap1\n          dup2\n          mstore\n          0x20\n          add\n          0x00\n          keccak256\n          sload\n            /* \"contracts/shiba.sol\":3918:3942  _balances[recipient].add */\n          tag_68\n          swap1\n            /* \"contracts/shiba.sol\":3918:3950  _balances[recipient].add(amount) */\n          swap2\n          swap1\n          0xffffffff\n          and\n          jump\t// in\n        tag_128:\n            /* \"contracts/shiba.sol\":3895:3904  _balances */\n          0x00\n            /* \"contracts/shiba.sol\":3895:3915  _balances[recipient] */\n          dup1\n            /* \"contracts/shiba.sol\":3905:3914  recipient */\n          dup5\n            /* \"contracts/shiba.sol\":3895:3915  _balances[recipient] */\n          0xffffffffffffffffffffffffffffffffffffffff\n          and\n          0xffffffffffffffffffffffffffffffffffffffff\n          and\n          dup2\n          mstore\n          0x20\n          add\n          swap1\n          dup2\n          mstore\n          0x20\n          add\n          0x00\n          keccak256\n            /* \"contracts/shiba.sol\":3895:3950  _balances[recipient] = _balances[recipient].add(amount) */\n          dup2\n          swap1\n          sstore\n          pop\n            /* \"contracts/shiba.sol\":3983:3992  recipient */\n          dup2\n            /* \"contracts/shiba.sol\":3966:4001  Transfer(sender, recipient, amount) */\n          0xffffffffffffffffffffffffffffffffffffffff\n          and\n            /* \"contracts/shiba.sol\":3975:3981  sender */\n          dup4\n            /* \"contracts/shiba.sol\":3966:4001  Transfer(sender, recipient, amount) */\n          0xffffffffffffffffffffffffffffffffffffffff\n          and\n          0xddf252ad1be2c89b69c2b068fc378daa952ba7f163c4a11628f55a4df523b3ef\n            /* \"contracts/shiba.sol\":3994:4000  amount */\n          dup4\n            /* \"contracts/shiba.sol\":3966:4001  Transfer(sender, recipient, amount) */\n          mload(0x40)\n          tag_129\n          swap2\n          swap1\n          tag_32\n          jump\t// in\n        tag_129:\n          mload(0x40)\n          dup1\n          swap2\n          sub\n          swap1\n          log3\n            /* \"contracts/shiba.sol\":3580:4009  function _transfer(address sender, address recipient, uint256 amount) internal {\r... */\n          pop\n          pop\n          pop\n          jump\t// out\n            /* \"contracts/shiba.sol\":971:1153  function sub(uint256 a, uint256 b) internal pure returns (uint256) {\r... */\n        tag_91:\n            /* \"contracts/shiba.sol\":1029:1036  uint256 */\n          0x00\n            /* \"contracts/shiba.sol\":1062:1063  a */\n          dup3\n            /* \"contracts/shiba.sol\":1057:1058  b */\n          dup3\n            /* \"contracts/shiba.sol\":1057:1063  b <= a */\n          gt\n          iszero\n            /* \"contracts/shiba.sol\":1049:1098  require(b <= a, \"SafeMath: subtraction overflow\") */\n          tag_131\n          jumpi\n          mload(0x40)\n          0x08c379a000000000000000000000000000000000000000000000000000000000\n          dup2\n          mstore\n          0x04\n          add\n          tag_132\n          swap1\n          tag_133\n          jump\t// in\n        tag_132:\n          mload(0x40)\n          dup1\n          swap2\n          sub\n          swap1\n          revert\n        tag_131:\n            /* \"contracts/shiba.sol\":1109:1118  uint256 c */\n          0x00\n            /* \"contracts/shiba.sol\":1125:1126  b */\n          dup3\n            /* \"contracts/shiba.sol\":1121:1122  a */\n          dup5\n            /* \"contracts/shiba.sol\":1121:1126  a - b */\n          tag_134\n          swap2\n          swap1\n          tag_135\n          jump\t// in\n        tag_134:\n            /* \"contracts/shiba.sol\":1109:1126  uint256 c = a - b */\n          swap1\n          pop\n            /* \"contracts/shiba.sol\":1144:1145  c */\n          dup1\n            /* \"contracts/shiba.sol\":1137:1145  return c */\n          swap2\n          pop\n          pop\n            /* \"contracts/shiba.sol\":971:1153  function sub(uint256 a, uint256 b) internal pure returns (uint256) {\r... */\n          swap3\n          swap2\n          pop\n          pop\n          jump\t// out\n            /* \"contracts/shiba.sol\":4329:4635  function _burn(address account, uint256 value) internal {\r... */\n        tag_97:\n            /* \"contracts/shiba.sol\":4423:4424  0 */\n          0x00\n            /* \"contracts/shiba.sol\":4404:4425  account != address(0) */\n          0xffffffffffffffffffffffffffffffffffffffff\n          and\n            /* \"contracts/shiba.sol\":4404:4411  account */\n          dup3\n            /* \"contracts/shiba.sol\":4404:4425  account != address(0) */\n          0xffffffffffffffffffffffffffffffffffffffff\n          and\n          eq\n          iszero\n            /* \"contracts/shiba.sol\":4396:4463  require(account != address(0), \"ERC20: burn from the zero address\") */\n          tag_137\n          jumpi\n          mload(0x40)\n          0x08c379a000000000000000000000000000000000000000000000000000000000\n          dup2\n          mstore\n          0x04\n          add\n          tag_138\n          swap1\n          tag_139\n          jump\t// in\n        tag_138:\n          mload(0x40)\n          dup1\n          swap2\n          sub\n          swap1\n          revert\n        tag_137:\n            /* \"contracts/shiba.sol\":4491:4514  _totalSupply.sub(value) */\n          tag_140\n            /* \"contracts/shiba.sol\":4508:4513  value */\n          dup2\n            /* \"contracts/shiba.sol\":4491:4503  _totalSupply */\n          sload(0x02)\n            /* \"contracts/shiba.sol\":4491:4507  _totalSupply.sub */\n          tag_91\n          swap1\n            /* \"contracts/shiba.sol\":4491:4514  _totalSupply.sub(value) */\n          swap2\n          swap1\n          0xffffffff\n          and\n          jump\t// in\n        tag_140:\n            /* \"contracts/shiba.sol\":4476:4488  _totalSupply */\n          0x02\n            /* \"contracts/shiba.sol\":4476:4514  _totalSupply = _totalSupply.sub(value) */\n          dup2\n          swap1\n          sstore\n          pop\n            /* \"contracts/shiba.sol\":4546:4575  _balances[account].sub(value) */\n          tag_141\n            /* \"contracts/shiba.sol\":4569:4574  value */\n          dup2\n            /* \"contracts/shiba.sol\":4546:4555  _balances */\n          0x00\n            /* \"contracts/shiba.sol\":4546:4564  _balances[account] */\n          dup1\n            /* \"contracts/shiba.sol\":4556:4563  account */\n          dup6\n            /* \"contracts/shiba.sol\":4546:4564  _balances[account] */\n          0xffffffffffffffffffffffffffffffffffffffff\n          and\n          0xffffffffffffffffffffffffffffffffffffffff\n          and\n          dup2\n          mstore\n          0x20\n          add\n          swap1\n          dup2\n          mstore\n          0x20\n          add\n          0x00\n          keccak256\n          sload\n            /* \"contracts/shiba.sol\":4546:4568  _balances[account].sub */\n          tag_91\n          swap1\n            /* \"contracts/shiba.sol\":4546:4575  _balances[account].sub(value) */\n          swap2\n          swap1\n          0xffffffff\n          and\n          jump\t// in\n        tag_141:\n            /* \"contracts/shiba.sol\":4525:4534  _balances */\n          0x00\n            /* \"contracts/shiba.sol\":4525:4543  _balances[account] */\n          dup1\n            /* \"contracts/shiba.sol\":4535:4542  account */\n          dup5\n            /* \"contracts/shiba.sol\":4525:4543  _balances[account] */\n          0xffffffffffffffffffffffffffffffffffffffff\n          and\n          0xffffffffffffffffffffffffffffffffffffffff\n          and\n          dup2\n          mstore\n          0x20\n          add\n          swap1\n          dup2\n          mstore\n          0x20\n          add\n          0x00\n          keccak256\n            /* \"contracts/shiba.sol\":4525:4575  _balances[account] = _balances[account].sub(value) */\n          dup2\n          swap1\n          sstore\n          pop\n            /* \"contracts/shiba.sol\":4617:4618  0 */\n          0x00\n            /* \"contracts/shiba.sol\":4591:4627  Transfer(account, address(0), value) */\n          0xffffffffffffffffffffffffffffffffffffffff\n          and\n            /* \"contracts/shiba.sol\":4600:4607  account */\n          dup3\n            /* \"contracts/shiba.sol\":4591:4627  Transfer(account, address(0), value) */\n          0xffffffffffffffffffffffffffffffffffffffff\n          and\n          0xddf252ad1be2c89b69c2b068fc378daa952ba7f163c4a11628f55a4df523b3ef\n            /* \"contracts/shiba.sol\":4621:4626  value */\n          dup4\n            /* \"contracts/shiba.sol\":4591:4627  Transfer(account, address(0), value) */\n          mload(0x40)\n          tag_142\n          swap2\n          swap1\n          tag_32\n          jump\t// in\n        tag_142:\n          mload(0x40)\n          dup1\n          swap2\n          sub\n          swap1\n          log3\n            /* \"contracts/shiba.sol\":4329:4635  function _burn(address account, uint256 value) internal {\r... */\n          pop\n          pop\n          jump\t// out\n            /* \"#utility.yul\":7:146   */\n        tag_144:\n          0x00\n            /* \"#utility.yul\":91:97   */\n          dup2\n            /* \"#utility.yul\":78:98   */\n          calldataload\n            /* \"#utility.yul\":69:98   */\n          swap1\n          pop\n            /* \"#utility.yul\":107:140   */\n          tag_146\n            /* \"#utility.yul\":134:139   */\n          dup2\n            /* \"#utility.yul\":107:140   */\n          tag_147\n          jump\t// in\n        tag_146:\n            /* \"#utility.yul\":59:146   */\n          swap3\n          swap2\n          pop\n          pop\n          jump\t// out\n            /* \"#utility.yul\":152:291   */\n        tag_148:\n          0x00\n            /* \"#utility.yul\":236:242   */\n          dup2\n            /* \"#utility.yul\":223:243   */\n          calldataload\n            /* \"#utility.yul\":214:243   */\n          swap1\n          pop\n            /* \"#utility.yul\":252:285   */\n          tag_150\n            /* \"#utility.yul\":279:284   */\n          dup2\n            /* \"#utility.yul\":252:285   */\n          tag_151\n          jump\t// in\n        tag_150:\n            /* \"#utility.yul\":204:291   */\n          swap3\n          swap2\n          pop\n          pop\n          jump\t// out\n            /* \"#utility.yul\":297:559   */\n        tag_48:\n          0x00\n            /* \"#utility.yul\":405:407   */\n          0x20\n            /* \"#utility.yul\":393:402   */\n          dup3\n            /* \"#utility.yul\":384:391   */\n          dup5\n            /* \"#utility.yul\":380:403   */\n          sub\n            /* \"#utility.yul\":376:408   */\n          slt\n            /* \"#utility.yul\":373:375   */\n          iszero\n          tag_153\n          jumpi\n            /* \"#utility.yul\":421:422   */\n          0x00\n            /* \"#utility.yul\":418:419   */\n          dup1\n            /* \"#utility.yul\":411:423   */\n          revert\n            /* \"#utility.yul\":373:375   */\n        tag_153:\n            /* \"#utility.yul\":464:465   */\n          0x00\n            /* \"#utility.yul\":489:542   */\n          tag_154\n            /* \"#utility.yul\":534:541   */\n          dup5\n            /* \"#utility.yul\":525:531   */\n          dup3\n            /* \"#utility.yul\":514:523   */\n          dup6\n            /* \"#utility.yul\":510:532   */\n          add\n            /* \"#utility.yul\":489:542   */\n          tag_144\n          jump\t// in\n        tag_154:\n            /* \"#utility.yul\":479:542   */\n          swap2\n          pop\n            /* \"#utility.yul\":435:552   */\n          pop\n            /* \"#utility.yul\":363:559   */\n          swap3\n          swap2\n          pop\n          pop\n          jump\t// out\n            /* \"#utility.yul\":565:972   */\n        tag_61:\n          0x00\n          dup1\n            /* \"#utility.yul\":690:692   */\n          0x40\n            /* \"#utility.yul\":678:687   */\n          dup4\n            /* \"#utility.yul\":669:676   */\n          dup6\n            /* \"#utility.yul\":665:688   */\n          sub\n            /* \"#utility.yul\":661:693   */\n          slt\n            /* \"#utility.yul\":658:660   */\n          iszero\n          tag_156\n          jumpi\n            /* \"#utility.yul\":706:707   */\n          0x00\n            /* \"#utility.yul\":703:704   */\n          dup1\n            /* \"#utility.yul\":696:708   */\n          revert\n            /* \"#utility.yul\":658:660   */\n        tag_156:\n            /* \"#utility.yul\":749:750   */\n          0x00\n            /* \"#utility.yul\":774:827   */\n          tag_157\n            /* \"#utility.yul\":819:826   */\n          dup6\n            /* \"#utility.yul\":810:816   */\n          dup3\n            /* \"#utility.yul\":799:808   */\n          dup7\n            /* \"#utility.yul\":795:817   */\n          add\n            /* \"#utility.yul\":774:827   */\n          tag_144\n          jump\t// in\n        tag_157:\n            /* \"#utility.yul\":764:827   */\n          swap3\n          pop\n            /* \"#utility.yul\":720:837   */\n          pop\n            /* \"#utility.yul\":876:878   */\n          0x20\n            /* \"#utility.yul\":902:955   */\n          tag_158\n            /* \"#utility.yul\":947:954   */\n          dup6\n            /* \"#utility.yul\":938:944   */\n          dup3\n            /* \"#utility.yul\":927:936   */\n          dup7\n            /* \"#utility.yul\":923:945   */\n          add\n            /* \"#utility.yul\":902:955   */\n          tag_144\n          jump\t// in\n        tag_158:\n            /* \"#utility.yul\":892:955   */\n          swap2\n          pop\n            /* \"#utility.yul\":847:965   */\n          pop\n            /* \"#utility.yul\":648:972   */\n          swap3\n          pop\n          swap3\n          swap1\n          pop\n          jump\t// out\n            /* \"#utility.yul\":978:1530   */\n        tag_35:\n          0x00\n          dup1\n          0x00\n            /* \"#utility.yul\":1120:1122   */\n          0x60\n            /* \"#utility.yul\":1108:1117   */\n          dup5\n            /* \"#utility.yul\":1099:1106   */\n          dup7\n            /* \"#utility.yul\":1095:1118   */\n          sub\n            /* \"#utility.yul\":1091:1123   */\n          slt\n            /* \"#utility.yul\":1088:1090   */\n          iszero\n          tag_160\n          jumpi\n            /* \"#utility.yul\":1136:1137   */\n          0x00\n            /* \"#utility.yul\":1133:1134   */\n          dup1\n            /* \"#utility.yul\":1126:1138   */\n          revert\n            /* \"#utility.yul\":1088:1090   */\n        tag_160:\n            /* \"#utility.yul\":1179:1180   */\n          0x00\n            /* \"#utility.yul\":1204:1257   */\n          tag_161\n            /* \"#utility.yul\":1249:1256   */\n          dup7\n            /* \"#utility.yul\":1240:1246   */\n          dup3\n            /* \"#utility.yul\":1229:1238   */\n          dup8\n            /* \"#utility.yul\":1225:1247   */\n          add\n            /* \"#utility.yul\":1204:1257   */\n          tag_144\n          jump\t// in\n        tag_161:\n            /* \"#utility.yul\":1194:1257   */\n          swap4\n          pop\n            /* \"#utility.yul\":1150:1267   */\n          pop\n            /* \"#utility.yul\":1306:1308   */\n          0x20\n            /* \"#utility.yul\":1332:1385   */\n          tag_162\n            /* \"#utility.yul\":1377:1384   */\n          dup7\n            /* \"#utility.yul\":1368:1374   */\n          dup3\n            /* \"#utility.yul\":1357:1366   */\n          dup8\n            /* \"#utility.yul\":1353:1375   */\n          add\n            /* \"#utility.yul\":1332:1385   */\n          tag_144\n          jump\t// in\n        tag_162:\n            /* \"#utility.yul\":1322:1385   */\n          swap3\n          pop\n            /* \"#utility.yul\":1277:1395   */\n          pop\n            /* \"#utility.yul\":1434:1436   */\n          0x40\n            /* \"#utility.yul\":1460:1513   */\n          tag_163\n            /* \"#utility.yul\":1505:1512   */\n          dup7\n            /* \"#utility.yul\":1496:1502   */\n          dup3\n            /* \"#utility.yul\":1485:1494   */\n          dup8\n            /* \"#utility.yul\":1481:1503   */\n          add\n            /* \"#utility.yul\":1460:1513   */\n          tag_148\n          jump\t// in\n        tag_163:\n            /* \"#utility.yul\":1450:1513   */\n          swap2\n          pop\n            /* \"#utility.yul\":1405:1523   */\n          pop\n            /* \"#utility.yul\":1078:1530   */\n          swap3\n          pop\n          swap3\n          pop\n          swap3\n          jump\t// out\n            /* \"#utility.yul\":1536:1943   */\n        tag_18:\n          0x00\n          dup1\n            /* \"#utility.yul\":1661:1663   */\n          0x40\n            /* \"#utility.yul\":1649:1658   */\n          dup4\n            /* \"#utility.yul\":1640:1647   */\n          dup6\n            /* \"#utility.yul\":1636:1659   */\n          sub\n            /* \"#utility.yul\":1632:1664   */\n          slt\n            /* \"#utility.yul\":1629:1631   */\n          iszero\n          tag_165\n          jumpi\n            /* \"#utility.yul\":1677:1678   */\n          0x00\n            /* \"#utility.yul\":1674:1675   */\n          dup1\n            /* \"#utility.yul\":1667:1679   */\n          revert\n            /* \"#utility.yul\":1629:1631   */\n        tag_165:\n            /* \"#utility.yul\":1720:1721   */\n          0x00\n            /* \"#utility.yul\":1745:1798   */\n          tag_166\n            /* \"#utility.yul\":1790:1797   */\n          dup6\n            /* \"#utility.yul\":1781:1787   */\n          dup3\n            /* \"#utility.yul\":1770:1779   */\n          dup7\n            /* \"#utility.yul\":1766:1788   */\n          add\n            /* \"#utility.yul\":1745:1798   */\n          tag_144\n          jump\t// in\n        tag_166:\n            /* \"#utility.yul\":1735:1798   */\n          swap3\n          pop\n            /* \"#utility.yul\":1691:1808   */\n          pop\n            /* \"#utility.yul\":1847:1849   */\n          0x20\n            /* \"#utility.yul\":1873:1926   */\n          tag_167\n            /* \"#utility.yul\":1918:1925   */\n          dup6\n            /* \"#utility.yul\":1909:1915   */\n          dup3\n            /* \"#utility.yul\":1898:1907   */\n          dup7\n            /* \"#utility.yul\":1894:1916   */\n          add\n            /* \"#utility.yul\":1873:1926   */\n          tag_148\n          jump\t// in\n        tag_167:\n            /* \"#utility.yul\":1863:1926   */\n          swap2\n          pop\n            /* \"#utility.yul\":1818:1936   */\n          pop\n            /* \"#utility.yul\":1619:1943   */\n          swap3\n          pop\n          swap3\n          swap1\n          pop\n          jump\t// out\n            /* \"#utility.yul\":1949:2211   */\n        tag_44:\n          0x00\n            /* \"#utility.yul\":2057:2059   */\n          0x20\n            /* \"#utility.yul\":2045:2054   */\n          dup3\n            /* \"#utility.yul\":2036:2043   */\n          dup5\n            /* \"#utility.yul\":2032:2055   */\n          sub\n            /* \"#utility.yul\":2028:2060   */\n          slt\n            /* \"#utility.yul\":2025:2027   */\n          iszero\n          tag_169\n          jumpi\n            /* \"#utility.yul\":2073:2074   */\n          0x00\n            /* \"#utility.yul\":2070:2071   */\n          dup1\n            /* \"#utility.yul\":2063:2075   */\n          revert\n            /* \"#utility.yul\":2025:2027   */\n        tag_169:\n            /* \"#utility.yul\":2116:2117   */\n          0x00\n            /* \"#utility.yul\":2141:2194   */\n          tag_170\n            /* \"#utility.yul\":2186:2193   */\n          dup5\n            /* \"#utility.yul\":2177:2183   */\n          dup3\n            /* \"#utility.yul\":2166:2175   */\n          dup6\n            /* \"#utility.yul\":2162:2184   */\n          add\n            /* \"#utility.yul\":2141:2194   */\n          tag_148\n          jump\t// in\n        tag_170:\n            /* \"#utility.yul\":2131:2194   */\n          swap2\n          pop\n            /* \"#utility.yul\":2087:2204   */\n          pop\n            /* \"#utility.yul\":2015:2211   */\n          swap3\n          swap2\n          pop\n          pop\n          jump\t// out\n            /* \"#utility.yul\":2217:2326   */\n        tag_171:\n            /* \"#utility.yul\":2298:2319   */\n          tag_173\n            /* \"#utility.yul\":2313:2318   */\n          dup2\n            /* \"#utility.yul\":2298:2319   */\n          tag_174\n          jump\t// in\n        tag_173:\n            /* \"#utility.yul\":2293:2296   */\n          dup3\n            /* \"#utility.yul\":2286:2320   */\n          mstore\n            /* \"#utility.yul\":2276:2326   */\n          pop\n          pop\n          jump\t// out\n            /* \"#utility.yul\":2332:2696   */\n        tag_175:\n          0x00\n            /* \"#utility.yul\":2448:2487   */\n          tag_177\n            /* \"#utility.yul\":2481:2486   */\n          dup3\n            /* \"#utility.yul\":2448:2487   */\n          tag_178\n          jump\t// in\n        tag_177:\n            /* \"#utility.yul\":2503:2574   */\n          tag_179\n            /* \"#utility.yul\":2567:2573   */\n          dup2\n            /* \"#utility.yul\":2562:2565   */\n          dup6\n            /* \"#utility.yul\":2503:2574   */\n          tag_180\n          jump\t// in\n        tag_179:\n            /* \"#utility.yul\":2496:2574   */\n          swap4\n          pop\n            /* \"#utility.yul\":2583:2635   */\n          tag_181\n            /* \"#utility.yul\":2628:2634   */\n          dup2\n            /* \"#utility.yul\":2623:2626   */\n          dup6\n            /* \"#utility.yul\":2616:2620   */\n          0x20\n            /* \"#utility.yul\":2609:2614   */\n          dup7\n            /* \"#utility.yul\":2605:2621   */\n          add\n            /* \"#utility.yul\":2583:2635   */\n          tag_182\n          jump\t// in\n        tag_181:\n            /* \"#utility.yul\":2660:2689   */\n          tag_183\n            /* \"#utility.yul\":2682:2688   */\n          dup2\n            /* \"#utility.yul\":2660:2689   */\n          tag_184\n          jump\t// in\n        tag_183:\n            /* \"#utility.yul\":2655:2658   */\n          dup5\n            /* \"#utility.yul\":2651:2690   */\n          add\n            /* \"#utility.yul\":2644:2690   */\n          swap2\n          pop\n            /* \"#utility.yul\":2424:2696   */\n          pop\n          swap3\n          swap2\n          pop\n          pop\n          jump\t// out\n            /* \"#utility.yul\":2702:3069   */\n        tag_185:\n          0x00\n            /* \"#utility.yul\":2865:2932   */\n          tag_187\n            /* \"#utility.yul\":2929:2931   */\n          0x23\n            /* \"#utility.yul\":2924:2927   */\n          dup4\n            /* \"#utility.yul\":2865:2932   */\n          tag_180\n          jump\t// in\n        tag_187:\n            /* \"#utility.yul\":2858:2932   */\n          swap2\n          pop\n            /* \"#utility.yul\":2962:2996   */\n          0x45524332303a207472616e7366657220746f20746865207a65726f2061646472\n            /* \"#utility.yul\":2958:2959   */\n          0x00\n            /* \"#utility.yul\":2953:2956   */\n          dup4\n            /* \"#utility.yul\":2949:2960   */\n          add\n            /* \"#utility.yul\":2942:2997   */\n          mstore\n            /* \"#utility.yul\":3028:3033   */\n          0x6573730000000000000000000000000000000000000000000000000000000000\n            /* \"#utility.yul\":3023:3025   */\n          0x20\n            /* \"#utility.yul\":3018:3021   */\n          dup4\n            /* \"#utility.yul\":3014:3026   */\n          add\n            /* \"#utility.yul\":3007:3034   */\n          mstore\n            /* \"#utility.yul\":3060:3062   */\n          0x40\n            /* \"#utility.yul\":3055:3058   */\n          dup3\n            /* \"#utility.yul\":3051:3063   */\n          add\n            /* \"#utility.yul\":3044:3063   */\n          swap1\n          pop\n            /* \"#utility.yul\":2848:3069   */\n          swap2\n          swap1\n          pop\n          jump\t// out\n            /* \"#utility.yul\":3075:3441   */\n        tag_188:\n          0x00\n            /* \"#utility.yul\":3238:3305   */\n          tag_190\n            /* \"#utility.yul\":3302:3304   */\n          0x22\n            /* \"#utility.yul\":3297:3300   */\n          dup4\n            /* \"#utility.yul\":3238:3305   */\n          tag_180\n          jump\t// in\n        tag_190:\n            /* \"#utility.yul\":3231:3305   */\n          swap2\n          pop\n            /* \"#utility.yul\":3335:3369   */\n          0x45524332303a20617070726f766520746f20746865207a65726f206164647265\n            /* \"#utility.yul\":3331:3332   */\n          0x00\n            /* \"#utility.yul\":3326:3329   */\n          dup4\n            /* \"#utility.yul\":3322:3333   */\n          add\n            /* \"#utility.yul\":3315:3370   */\n          mstore\n            /* \"#utility.yul\":3401:3405   */\n          0x7373000000000000000000000000000000000000000000000000000000000000\n            /* \"#utility.yul\":3396:3398   */\n          0x20\n            /* \"#utility.yul\":3391:3394   */\n          dup4\n            /* \"#utility.yul\":3387:3399   */\n          add\n            /* \"#utility.yul\":3380:3406   */\n          mstore\n            /* \"#utility.yul\":3432:3434   */\n          0x40\n            /* \"#utility.yul\":3427:3430   */\n          dup3\n            /* \"#utility.yul\":3423:3435   */\n          add\n            /* \"#utility.yul\":3416:3435   */\n          swap1\n          pop\n            /* \"#utility.yul\":3221:3441   */\n          swap2\n          swap1\n          pop\n          jump\t// out\n            /* \"#utility.yul\":3447:3772   */\n        tag_191:\n          0x00\n            /* \"#utility.yul\":3610:3677   */\n          tag_193\n            /* \"#utility.yul\":3674:3676   */\n          0x1b\n            /* \"#utility.yul\":3669:3672   */\n          dup4\n            /* \"#utility.yul\":3610:3677   */\n          tag_180\n          jump\t// in\n        tag_193:\n            /* \"#utility.yul\":3603:3677   */\n          swap2\n          pop\n            /* \"#utility.yul\":3707:3736   */\n          0x536166654d6174683a206164646974696f6e206f766572666c6f770000000000\n            /* \"#utility.yul\":3703:3704   */\n          0x00\n            /* \"#utility.yul\":3698:3701   */\n          dup4\n            /* \"#utility.yul\":3694:3705   */\n          add\n            /* \"#utility.yul\":3687:3737   */\n          mstore\n            /* \"#utility.yul\":3763:3765   */\n          0x20\n            /* \"#utility.yul\":3758:3761   */\n          dup3\n            /* \"#utility.yul\":3754:3766   */\n          add\n            /* \"#utility.yul\":3747:3766   */\n          swap1\n          pop\n            /* \"#utility.yul\":3593:3772   */\n          swap2\n          swap1\n          pop\n          jump\t// out\n            /* \"#utility.yul\":3778:4106   */\n        tag_194:\n          0x00\n            /* \"#utility.yul\":3941:4008   */\n          tag_196\n            /* \"#utility.yul\":4005:4007   */\n          0x1e\n            /* \"#utility.yul\":4000:4003   */\n          dup4\n            /* \"#utility.yul\":3941:4008   */\n          tag_180\n          jump\t// in\n        tag_196:\n            /* \"#utility.yul\":3934:4008   */\n          swap2\n          pop\n            /* \"#utility.yul\":4038:4070   */\n          0x536166654d6174683a207375627472616374696f6e206f766572666c6f770000\n            /* \"#utility.yul\":4034:4035   */\n          0x00\n            /* \"#utility.yul\":4029:4032   */\n          dup4\n            /* \"#utility.yul\":4025:4036   */\n          add\n            /* \"#utility.yul\":4018:4071   */\n          mstore\n            /* \"#utility.yul\":4097:4099   */\n          0x20\n            /* \"#utility.yul\":4092:4095   */\n          dup3\n            /* \"#utility.yul\":4088:4100   */\n          add\n            /* \"#utility.yul\":4081:4100   */\n          swap1\n          pop\n            /* \"#utility.yul\":3924:4106   */\n          swap2\n          swap1\n          pop\n          jump\t// out\n            /* \"#utility.yul\":4112:4477   */\n        tag_197:\n          0x00\n            /* \"#utility.yul\":4275:4342   */\n          tag_199\n            /* \"#utility.yul\":4339:4341   */\n          0x21\n            /* \"#utility.yul\":4334:4337   */\n          dup4\n            /* \"#utility.yul\":4275:4342   */\n          tag_180\n          jump\t// in\n        tag_199:\n            /* \"#utility.yul\":4268:4342   */\n          swap2\n          pop\n            /* \"#utility.yul\":4372:4406   */\n          0x45524332303a206275726e2066726f6d20746865207a65726f20616464726573\n            /* \"#utility.yul\":4368:4369   */\n          0x00\n            /* \"#utility.yul\":4363:4366   */\n          dup4\n            /* \"#utility.yul\":4359:4370   */\n          add\n            /* \"#utility.yul\":4352:4407   */\n          mstore\n            /* \"#utility.yul\":4438:4441   */\n          0x7300000000000000000000000000000000000000000000000000000000000000\n            /* \"#utility.yul\":4433:4435   */\n          0x20\n            /* \"#utility.yul\":4428:4431   */\n          dup4\n            /* \"#utility.yul\":4424:4436   */\n          add\n            /* \"#utility.yul\":4417:4442   */\n          mstore\n            /* \"#utility.yul\":4468:4470   */\n          0x40\n            /* \"#utility.yul\":4463:4466   */\n          dup3\n            /* \"#utility.yul\":4459:4471   */\n          add\n            /* \"#utility.yul\":4452:4471   */\n          swap1\n          pop\n            /* \"#utility.yul\":4258:4477   */\n          swap2\n          swap1\n          pop\n          jump\t// out\n            /* \"#utility.yul\":4483:4852   */\n        tag_200:\n          0x00\n            /* \"#utility.yul\":4646:4713   */\n          tag_202\n            /* \"#utility.yul\":4710:4712   */\n          0x25\n            /* \"#utility.yul\":4705:4708   */\n          dup4\n            /* \"#utility.yul\":4646:4713   */\n          tag_180\n          jump\t// in\n        tag_202:\n            /* \"#utility.yul\":4639:4713   */\n          swap2\n          pop\n            /* \"#utility.yul\":4743:4777   */\n          0x45524332303a207472616e736665722066726f6d20746865207a65726f206164\n            /* \"#utility.yul\":4739:4740   */\n          0x00\n            /* \"#utility.yul\":4734:4737   */\n          dup4\n            /* \"#utility.yul\":4730:4741   */\n          add\n            /* \"#utility.yul\":4723:4778   */\n          mstore\n            /* \"#utility.yul\":4809:4816   */\n          0x6472657373000000000000000000000000000000000000000000000000000000\n            /* \"#utility.yul\":4804:4806   */\n          0x20\n            /* \"#utility.yul\":4799:4802   */\n          dup4\n            /* \"#utility.yul\":4795:4807   */\n          add\n            /* \"#utility.yul\":4788:4817   */\n          mstore\n            /* \"#utility.yul\":4843:4845   */\n          0x40\n            /* \"#utility.yul\":4838:4841   */\n          dup3\n            /* \"#utility.yul\":4834:4846   */\n          add\n            /* \"#utility.yul\":4827:4846   */\n          swap1\n          pop\n            /* \"#utility.yul\":4629:4852   */\n          swap2\n          swap1\n          pop\n          jump\t// out\n            /* \"#utility.yul\":4858:5226   */\n        tag_203:\n          0x00\n            /* \"#utility.yul\":5021:5088   */\n          tag_205\n            /* \"#utility.yul\":5085:5087   */\n          0x24\n            /* \"#utility.yul\":5080:5083   */\n          dup4\n            /* \"#utility.yul\":5021:5088   */\n          tag_180\n          jump\t// in\n        tag_205:\n            /* \"#utility.yul\":5014:5088   */\n          swap2\n          pop\n            /* \"#utility.yul\":5118:5152   */\n          0x45524332303a20617070726f76652066726f6d20746865207a65726f20616464\n            /* \"#utility.yul\":5114:5115   */\n          0x00\n            /* \"#utility.yul\":5109:5112   */\n          dup4\n            /* \"#utility.yul\":5105:5116   */\n          add\n            /* \"#utility.yul\":5098:5153   */\n          mstore\n            /* \"#utility.yul\":5184:5190   */\n          0x7265737300000000000000000000000000000000000000000000000000000000\n            /* \"#utility.yul\":5179:5181   */\n          0x20\n            /* \"#utility.yul\":5174:5177   */\n          dup4\n            /* \"#utility.yul\":5170:5182   */\n          add\n            /* \"#utility.yul\":5163:5191   */\n          mstore\n            /* \"#utility.yul\":5217:5219   */\n          0x40\n            /* \"#utility.yul\":5212:5215   */\n          dup3\n            /* \"#utility.yul\":5208:5220   */\n          add\n            /* \"#utility.yul\":5201:5220   */\n          swap1\n          pop\n            /* \"#utility.yul\":5004:5226   */\n          swap2\n          swap1\n          pop\n          jump\t// out\n            /* \"#utility.yul\":5232:5350   */\n        tag_206:\n            /* \"#utility.yul\":5319:5343   */\n          tag_208\n            /* \"#utility.yul\":5337:5342   */\n          dup2\n            /* \"#utility.yul\":5319:5343   */\n          tag_209\n          jump\t// in\n        tag_208:\n            /* \"#utility.yul\":5314:5317   */\n          dup3\n            /* \"#utility.yul\":5307:5344   */\n          mstore\n            /* \"#utility.yul\":5297:5350   */\n          pop\n          pop\n          jump\t// out\n            /* \"#utility.yul\":5356:5468   */\n        tag_210:\n            /* \"#utility.yul\":5439:5461   */\n          tag_212\n            /* \"#utility.yul\":5455:5460   */\n          dup2\n            /* \"#utility.yul\":5439:5461   */\n          tag_213\n          jump\t// in\n        tag_212:\n            /* \"#utility.yul\":5434:5437   */\n          dup3\n            /* \"#utility.yul\":5427:5462   */\n          mstore\n            /* \"#utility.yul\":5417:5468   */\n          pop\n          pop\n          jump\t// out\n            /* \"#utility.yul\":5474:5684   */\n        tag_21:\n          0x00\n            /* \"#utility.yul\":5599:5601   */\n          0x20\n            /* \"#utility.yul\":5588:5597   */\n          dup3\n            /* \"#utility.yul\":5584:5602   */\n          add\n            /* \"#utility.yul\":5576:5602   */\n          swap1\n          pop\n            /* \"#utility.yul\":5612:5677   */\n          tag_215\n            /* \"#utility.yul\":5674:5675   */\n          0x00\n            /* \"#utility.yul\":5663:5672   */\n          dup4\n            /* \"#utility.yul\":5659:5676   */\n          add\n            /* \"#utility.yul\":5650:5656   */\n          dup5\n            /* \"#utility.yul\":5612:5677   */\n          tag_171\n          jump\t// in\n        tag_215:\n            /* \"#utility.yul\":5566:5684   */\n          swap3\n          swap2\n          pop\n          pop\n          jump\t// out\n            /* \"#utility.yul\":5690:6003   */\n        tag_25:\n          0x00\n            /* \"#utility.yul\":5841:5843   */\n          0x20\n            /* \"#utility.yul\":5830:5839   */\n          dup3\n            /* \"#utility.yul\":5826:5844   */\n          add\n            /* \"#utility.yul\":5818:5844   */\n          swap1\n          pop\n            /* \"#utility.yul\":5890:5899   */\n          dup2\n            /* \"#utility.yul\":5884:5888   */\n          dup2\n            /* \"#utility.yul\":5880:5900   */\n          sub\n            /* \"#utility.yul\":5876:5877   */\n          0x00\n            /* \"#utility.yul\":5865:5874   */\n          dup4\n            /* \"#utility.yul\":5861:5878   */\n          add\n            /* \"#utility.yul\":5854:5901   */\n          mstore\n            /* \"#utility.yul\":5918:5996   */\n          tag_217\n            /* \"#utility.yul\":5991:5995   */\n          dup2\n            /* \"#utility.yul\":5982:5988   */\n          dup5\n            /* \"#utility.yul\":5918:5996   */\n          tag_175\n          jump\t// in\n        tag_217:\n            /* \"#utility.yul\":5910:5996   */\n          swap1\n          pop\n            /* \"#utility.yul\":5808:6003   */\n          swap3\n          swap2\n          pop\n          pop\n          jump\t// out\n            /* \"#utility.yul\":6009:6428   */\n        tag_126:\n          0x00\n            /* \"#utility.yul\":6213:6215   */\n          0x20\n            /* \"#utility.yul\":6202:6211   */\n          dup3\n            /* \"#utility.yul\":6198:6216   */\n          add\n            /* \"#utility.yul\":6190:6216   */\n          swap1\n          pop\n            /* \"#utility.yul\":6262:6271   */\n          dup2\n            /* \"#utility.yul\":6256:6260   */\n          dup2\n            /* \"#utility.yul\":6252:6272   */\n          sub\n            /* \"#utility.yul\":6248:6249   */\n          0x00\n            /* \"#utility.yul\":6237:6246   */\n          dup4\n            /* \"#utility.yul\":6233:6250   */\n          add\n            /* \"#utility.yul\":6226:6273   */\n          mstore\n            /* \"#utility.yul\":6290:6421   */\n          tag_219\n            /* \"#utility.yul\":6416:6420   */\n          dup2\n            /* \"#utility.yul\":6290:6421   */\n          tag_185\n          jump\t// in\n        tag_219:\n            /* \"#utility.yul\":6282:6421   */\n          swap1\n          pop\n            /* \"#utility.yul\":6180:6428   */\n          swap2\n          swap1\n          pop\n          jump\t// out\n            /* \"#utility.yul\":6434:6853   */\n        tag_118:\n          0x00\n            /* \"#utility.yul\":6638:6640   */\n          0x20\n            /* \"#utility.yul\":6627:6636   */\n          dup3\n            /* \"#utility.yul\":6623:6641   */\n          add\n            /* \"#utility.yul\":6615:6641   */\n          swap1\n          pop\n            /* \"#utility.yul\":6687:6696   */\n          dup2\n            /* \"#utility.yul\":6681:6685   */\n          dup2\n            /* \"#utility.yul\":6677:6697   */\n          sub\n            /* \"#utility.yul\":6673:6674   */\n          0x00\n            /* \"#utility.yul\":6662:6671   */\n          dup4\n            /* \"#utility.yul\":6658:6675   */\n          add\n            /* \"#utility.yul\":6651:6698   */\n          mstore\n            /* \"#utility.yul\":6715:6846   */\n          tag_221\n            /* \"#utility.yul\":6841:6845   */\n          dup2\n            /* \"#utility.yul\":6715:6846   */\n          tag_188\n          jump\t// in\n        tag_221:\n            /* \"#utility.yul\":6707:6846   */\n          swap1\n          pop\n            /* \"#utility.yul\":6605:6853   */\n          swap2\n          swap1\n          pop\n          jump\t// out\n            /* \"#utility.yul\":6859:7278   */\n        tag_111:\n          0x00\n            /* \"#utility.yul\":7063:7065   */\n          0x20\n            /* \"#utility.yul\":7052:7061   */\n          dup3\n            /* \"#utility.yul\":7048:7066   */\n          add\n            /* \"#utility.yul\":7040:7066   */\n          swap1\n          pop\n            /* \"#utility.yul\":7112:7121   */\n          dup2\n            /* \"#utility.yul\":7106:7110   */\n          dup2\n            /* \"#utility.yul\":7102:7122   */\n          sub\n            /* \"#utility.yul\":7098:7099   */\n          0x00\n            /* \"#utility.yul\":7087:7096   */\n          dup4\n            /* \"#utility.yul\":7083:7100   */\n          add\n            /* \"#utility.yul\":7076:7123   */\n          mstore\n            /* \"#utility.yul\":7140:7271   */\n          tag_223\n            /* \"#utility.yul\":7266:7270   */\n          dup2\n            /* \"#utility.yul\":7140:7271   */\n          tag_191\n          jump\t// in\n        tag_223:\n            /* \"#utility.yul\":7132:7271   */\n          swap1\n          pop\n            /* \"#utility.yul\":7030:7278   */\n          swap2\n          swap1\n          pop\n          jump\t// out\n            /* \"#utility.yul\":7284:7703   */\n        tag_133:\n          0x00\n            /* \"#utility.yul\":7488:7490   */\n          0x20\n            /* \"#utility.yul\":7477:7486   */\n          dup3\n            /* \"#utility.yul\":7473:7491   */\n          add\n            /* \"#utility.yul\":7465:7491   */\n          swap1\n          pop\n            /* \"#utility.yul\":7537:7546   */\n          dup2\n            /* \"#utility.yul\":7531:7535   */\n          dup2\n            /* \"#utility.yul\":7527:7547   */\n          sub\n            /* \"#utility.yul\":7523:7524   */\n          0x00\n            /* \"#utility.yul\":7512:7521   */\n          dup4\n            /* \"#utility.yul\":7508:7525   */\n          add\n            /* \"#utility.yul\":7501:7548   */\n          mstore\n            /* \"#utility.yul\":7565:7696   */\n          tag_225\n            /* \"#utility.yul\":7691:7695   */\n          dup2\n            /* \"#utility.yul\":7565:7696   */\n          tag_194\n          jump\t// in\n        tag_225:\n            /* \"#utility.yul\":7557:7696   */\n          swap1\n          pop\n            /* \"#utility.yul\":7455:7703   */\n          swap2\n          swap1\n          pop\n          jump\t// out\n            /* \"#utility.yul\":7709:8128   */\n        tag_139:\n          0x00\n            /* \"#utility.yul\":7913:7915   */\n          0x20\n            /* \"#utility.yul\":7902:7911   */\n          dup3\n            /* \"#utility.yul\":7898:7916   */\n          add\n            /* \"#utility.yul\":7890:7916   */\n          swap1\n          pop\n            /* \"#utility.yul\":7962:7971   */\n          dup2\n            /* \"#utility.yul\":7956:7960   */\n          dup2\n            /* \"#utility.yul\":7952:7972   */\n          sub\n            /* \"#utility.yul\":7948:7949   */\n          0x00\n            /* \"#utility.yul\":7937:7946   */\n          dup4\n            /* \"#utility.yul\":7933:7950   */\n          add\n            /* \"#utility.yul\":7926:7973   */\n          mstore\n            /* \"#utility.yul\":7990:8121   */\n          tag_227\n            /* \"#utility.yul\":8116:8120   */\n          dup2\n            /* \"#utility.yul\":7990:8121   */\n          tag_197\n          jump\t// in\n        tag_227:\n            /* \"#utility.yul\":7982:8121   */\n          swap1\n          pop\n            /* \"#utility.yul\":7880:8128   */\n          swap2\n          swap1\n          pop\n          jump\t// out\n            /* \"#utility.yul\":8134:8553   */\n        tag_123:\n          0x00\n            /* \"#utility.yul\":8338:8340   */\n          0x20\n            /* \"#utility.yul\":8327:8336   */\n          dup3\n            /* \"#utility.yul\":8323:8341   */\n          add\n            /* \"#utility.yul\":8315:8341   */\n          swap1\n          pop\n            /* \"#utility.yul\":8387:8396   */\n          dup2\n            /* \"#utility.yul\":8381:8385   */\n          dup2\n            /* \"#utility.yul\":8377:8397   */\n          sub\n            /* \"#utility.yul\":8373:8374   */\n          0x00\n            /* \"#utility.yul\":8362:8371   */\n          dup4\n            /* \"#utility.yul\":8358:8375   */\n          add\n            /* \"#utility.yul\":8351:8398   */\n          mstore\n            /* \"#utility.yul\":8415:8546   */\n          tag_229\n            /* \"#utility.yul\":8541:8545   */\n          dup2\n            /* \"#utility.yul\":8415:8546   */\n          tag_200\n          jump\t// in\n        tag_229:\n            /* \"#utility.yul\":8407:8546   */\n          swap1\n          pop\n            /* \"#utility.yul\":8305:8553   */\n          swap2\n          swap1\n          pop\n          jump\t// out\n            /* \"#utility.yul\":8559:8978   */\n        tag_115:\n          0x00\n            /* \"#utility.yul\":8763:8765   */\n          0x20\n            /* \"#utility.yul\":8752:8761   */\n          dup3\n            /* \"#utility.yul\":8748:8766   */\n          add\n            /* \"#utility.yul\":8740:8766   */\n          swap1\n          pop\n            /* \"#utility.yul\":8812:8821   */\n          dup2\n            /* \"#utility.yul\":8806:8810   */\n          dup2\n            /* \"#utility.yul\":8802:8822   */\n          sub\n            /* \"#utility.yul\":8798:8799   */\n          0x00\n            /* \"#utility.yul\":8787:8796   */\n          dup4\n            /* \"#utility.yul\":8783:8800   */\n          add\n            /* \"#utility.yul\":8776:8823   */\n          mstore\n            /* \"#utility.yul\":8840:8971   */\n          tag_231\n            /* \"#utility.yul\":8966:8970   */\n          dup2\n            /* \"#utility.yul\":8840:8971   */\n          tag_203\n          jump\t// in\n        tag_231:\n            /* \"#utility.yul\":8832:8971   */\n          swap1\n          pop\n            /* \"#utility.yul\":8730:8978   */\n          swap2\n          swap1\n          pop\n          jump\t// out\n            /* \"#utility.yul\":8984:9206   */\n        tag_32:\n          0x00\n            /* \"#utility.yul\":9115:9117   */\n          0x20\n            /* \"#utility.yul\":9104:9113   */\n          dup3\n            /* \"#utility.yul\":9100:9118   */\n          add\n            /* \"#utility.yul\":9092:9118   */\n          swap1\n          pop\n            /* \"#utility.yul\":9128:9199   */\n          tag_233\n            /* \"#utility.yul\":9196:9197   */\n          0x00\n            /* \"#utility.yul\":9185:9194   */\n          dup4\n            /* \"#utility.yul\":9181:9198   */\n          add\n            /* \"#utility.yul\":9172:9178   */\n          dup5\n            /* \"#utility.yul\":9128:9199   */\n          tag_206\n          jump\t// in\n        tag_233:\n            /* \"#utility.yul\":9082:9206   */\n          swap3\n          swap2\n          pop\n          pop\n          jump\t// out\n            /* \"#utility.yul\":9212:9426   */\n        tag_67:\n          0x00\n            /* \"#utility.yul\":9339:9341   */\n          0x20\n            /* \"#utility.yul\":9328:9337   */\n          dup3\n            /* \"#utility.yul\":9324:9342   */\n          add\n            /* \"#utility.yul\":9316:9342   */\n          swap1\n          pop\n            /* \"#utility.yul\":9352:9419   */\n          tag_235\n            /* \"#utility.yul\":9416:9417   */\n          0x00\n            /* \"#utility.yul\":9405:9414   */\n          dup4\n            /* \"#utility.yul\":9401:9418   */\n          add\n            /* \"#utility.yul\":9392:9398   */\n          dup5\n            /* \"#utility.yul\":9352:9419   */\n          tag_210\n          jump\t// in\n        tag_235:\n            /* \"#utility.yul\":9306:9426   */\n          swap3\n          swap2\n          pop\n          pop\n          jump\t// out\n            /* \"#utility.yul\":9432:9531   */\n        tag_178:\n          0x00\n            /* \"#utility.yul\":9518:9523   */\n          dup2\n            /* \"#utility.yul\":9512:9524   */\n          mload\n            /* \"#utility.yul\":9502:9524   */\n          swap1\n          pop\n            /* \"#utility.yul\":9491:9531   */\n          swap2\n          swap1\n          pop\n          jump\t// out\n            /* \"#utility.yul\":9537:9706   */\n        tag_180:\n          0x00\n            /* \"#utility.yul\":9655:9661   */\n          dup3\n            /* \"#utility.yul\":9650:9653   */\n          dup3\n            /* \"#utility.yul\":9643:9662   */\n          mstore\n            /* \"#utility.yul\":9695:9699   */\n          0x20\n            /* \"#utility.yul\":9690:9693   */\n          dup3\n            /* \"#utility.yul\":9686:9700   */\n          add\n            /* \"#utility.yul\":9671:9700   */\n          swap1\n          pop\n            /* \"#utility.yul\":9633:9706   */\n          swap3\n          swap2\n          pop\n          pop\n          jump\t// out\n            /* \"#utility.yul\":9712:10017   */\n        tag_108:\n          0x00\n            /* \"#utility.yul\":9771:9791   */\n          tag_239\n            /* \"#utility.yul\":9789:9790   */\n          dup3\n            /* \"#utility.yul\":9771:9791   */\n          tag_209\n          jump\t// in\n        tag_239:\n            /* \"#utility.yul\":9766:9791   */\n          swap2\n          pop\n            /* \"#utility.yul\":9805:9825   */\n          tag_240\n            /* \"#utility.yul\":9823:9824   */\n          dup4\n            /* \"#utility.yul\":9805:9825   */\n          tag_209\n          jump\t// in\n        tag_240:\n            /* \"#utility.yul\":9800:9825   */\n          swap3\n          pop\n            /* \"#utility.yul\":9959:9960   */\n          dup3\n            /* \"#utility.yul\":9891:9957   */\n          0xffffffffffffffffffffffffffffffffffffffffffffffffffffffffffffffff\n            /* \"#utility.yul\":9887:9961   */\n          sub\n            /* \"#utility.yul\":9884:9885   */\n          dup3\n            /* \"#utility.yul\":9881:9962   */\n          gt\n            /* \"#utility.yul\":9878:9880   */\n          iszero\n          tag_241\n          jumpi\n            /* \"#utility.yul\":9965:9983   */\n          tag_242\n          tag_243\n          jump\t// in\n        tag_242:\n            /* \"#utility.yul\":9878:9880   */\n        tag_241:\n            /* \"#utility.yul\":10009:10010   */\n          dup3\n            /* \"#utility.yul\":10006:10007   */\n          dup3\n            /* \"#utility.yul\":10002:10011   */\n          add\n            /* \"#utility.yul\":9995:10011   */\n          swap1\n          pop\n            /* \"#utility.yul\":9756:10017   */\n          swap3\n          swap2\n          pop\n          pop\n          jump\t// out\n            /* \"#utility.yul\":10023:10214   */\n        tag_135:\n          0x00\n            /* \"#utility.yul\":10083:10103   */\n          tag_245\n            /* \"#utility.yul\":10101:10102   */\n          dup3\n            /* \"#utility.yul\":10083:10103   */\n          tag_209\n          jump\t// in\n        tag_245:\n            /* \"#utility.yul\":10078:10103   */\n          swap2\n          pop\n            /* \"#utility.yul\":10117:10137   */\n          tag_246\n            /* \"#utility.yul\":10135:10136   */\n          dup4\n            /* \"#utility.yul\":10117:10137   */\n          tag_209\n          jump\t// in\n        tag_246:\n            /* \"#utility.yul\":10112:10137   */\n          swap3\n          pop\n            /* \"#utility.yul\":10156:10157   */\n          dup3\n            /* \"#utility.yul\":10153:10154   */\n          dup3\n            /* \"#utility.yul\":10150:10158   */\n          lt\n            /* \"#utility.yul\":10147:10149   */\n          iszero\n          tag_247\n          jumpi\n            /* \"#utility.yul\":10161:10179   */\n          tag_248\n          tag_243\n          jump\t// in\n        tag_248:\n            /* \"#utility.yul\":10147:10149   */\n        tag_247:\n            /* \"#utility.yul\":10206:10207   */\n          dup3\n            /* \"#utility.yul\":10203:10204   */\n          dup3\n            /* \"#utility.yul\":10199:10208   */\n          sub\n            /* \"#utility.yul\":10191:10208   */\n          swap1\n          pop\n            /* \"#utility.yul\":10068:10214   */\n          swap3\n          swap2\n          pop\n          pop\n          jump\t// out\n            /* \"#utility.yul\":10220:10316   */\n        tag_249:\n          0x00\n            /* \"#utility.yul\":10286:10310   */\n          tag_251\n            /* \"#utility.yul\":10304:10309   */\n          dup3\n            /* \"#utility.yul\":10286:10310   */\n          tag_252\n          jump\t// in\n        tag_251:\n            /* \"#utility.yul\":10275:10310   */\n          swap1\n          pop\n            /* \"#utility.yul\":10265:10316   */\n          swap2\n          swap1\n          pop\n          jump\t// out\n            /* \"#utility.yul\":10322:10412   */\n        tag_174:\n          0x00\n            /* \"#utility.yul\":10399:10404   */\n          dup2\n            /* \"#utility.yul\":10392:10405   */\n          iszero\n            /* \"#utility.yul\":10385:10406   */\n          iszero\n            /* \"#utility.yul\":10374:10406   */\n          swap1\n          pop\n            /* \"#utility.yul\":10364:10412   */\n          swap2\n          swap1\n          pop\n          jump\t// out\n            /* \"#utility.yul\":10418:10544   */\n        tag_252:\n          0x00\n            /* \"#utility.yul\":10495:10537   */\n          0xffffffffffffffffffffffffffffffffffffffff\n            /* \"#utility.yul\":10488:10493   */\n          dup3\n            /* \"#utility.yul\":10484:10538   */\n          and\n            /* \"#utility.yul\":10473:10538   */\n          swap1\n          pop\n            /* \"#utility.yul\":10463:10544   */\n          swap2\n          swap1\n          pop\n          jump\t// out\n            /* \"#utility.yul\":10550:10627   */\n        tag_209:\n          0x00\n            /* \"#utility.yul\":10616:10621   */\n          dup2\n            /* \"#utility.yul\":10605:10621   */\n          swap1\n          pop\n            /* \"#utility.yul\":10595:10627   */\n          swap2\n          swap1\n          pop\n          jump\t// out\n            /* \"#utility.yul\":10633:10719   */\n        tag_213:\n          0x00\n            /* \"#utility.yul\":10708:10712   */\n          0xff\n            /* \"#utility.yul\":10701:10706   */\n          dup3\n            /* \"#utility.yul\":10697:10713   */\n          and\n            /* \"#utility.yul\":10686:10713   */\n          swap1\n          pop\n            /* \"#utility.yul\":10676:10719   */\n          swap2\n          swap1\n          pop\n          jump\t// out\n            /* \"#utility.yul\":10725:11032   */\n        tag_182:\n            /* \"#utility.yul\":10793:10794   */\n          0x00\n            /* \"#utility.yul\":10803:10916   */\n        tag_258:\n            /* \"#utility.yul\":10817:10823   */\n          dup4\n            /* \"#utility.yul\":10814:10815   */\n          dup2\n            /* \"#utility.yul\":10811:10824   */\n          lt\n            /* \"#utility.yul\":10803:10916   */\n          iszero\n          tag_260\n          jumpi\n            /* \"#utility.yul\":10902:10903   */\n          dup1\n            /* \"#utility.yul\":10897:10900   */\n          dup3\n            /* \"#utility.yul\":10893:10904   */\n          add\n            /* \"#utility.yul\":10887:10905   */\n          mload\n            /* \"#utility.yul\":10883:10884   */\n          dup2\n            /* \"#utility.yul\":10878:10881   */\n          dup5\n            /* \"#utility.yul\":10874:10885   */\n          add\n            /* \"#utility.yul\":10867:10906   */\n          mstore\n            /* \"#utility.yul\":10839:10841   */\n          0x20\n            /* \"#utility.yul\":10836:10837   */\n          dup2\n            /* \"#utility.yul\":10832:10842   */\n          add\n            /* \"#utility.yul\":10827:10842   */\n          swap1\n          pop\n            /* \"#utility.yul\":10803:10916   */\n          jump(tag_258)\n        tag_260:\n            /* \"#utility.yul\":10934:10940   */\n          dup4\n            /* \"#utility.yul\":10931:10932   */\n          dup2\n            /* \"#utility.yul\":10928:10941   */\n          gt\n            /* \"#utility.yul\":10925:10927   */\n          iszero\n          tag_261\n          jumpi\n            /* \"#utility.yul\":11014:11015   */\n          0x00\n            /* \"#utility.yul\":11005:11011   */\n          dup5\n            /* \"#utility.yul\":11000:11003   */\n          dup5\n            /* \"#utility.yul\":10996:11012   */\n          add\n            /* \"#utility.yul\":10989:11016   */\n          mstore\n            /* \"#utility.yul\":10925:10927   */\n        tag_261:\n            /* \"#utility.yul\":10774:11032   */\n          pop\n          pop\n          pop\n          pop\n          jump\t// out\n            /* \"#utility.yul\":11038:11358   */\n        tag_74:\n          0x00\n            /* \"#utility.yul\":11119:11120   */\n          0x02\n            /* \"#utility.yul\":11113:11117   */\n          dup3\n            /* \"#utility.yul\":11109:11121   */\n          div\n            /* \"#utility.yul\":11099:11121   */\n          swap1\n          pop\n            /* \"#utility.yul\":11166:11167   */\n          0x01\n            /* \"#utility.yul\":11160:11164   */\n          dup3\n            /* \"#utility.yul\":11156:11168   */\n          and\n            /* \"#utility.yul\":11187:11205   */\n          dup1\n            /* \"#utility.yul\":11177:11179   */\n          tag_263\n          jumpi\n            /* \"#utility.yul\":11243:11247   */\n          0x7f\n            /* \"#utility.yul\":11235:11241   */\n          dup3\n            /* \"#utility.yul\":11231:11248   */\n          and\n            /* \"#utility.yul\":11221:11248   */\n          swap2\n          pop\n            /* \"#utility.yul\":11177:11179   */\n        tag_263:\n            /* \"#utility.yul\":11305:11307   */\n          0x20\n            /* \"#utility.yul\":11297:11303   */\n          dup3\n            /* \"#utility.yul\":11294:11308   */\n          lt\n            /* \"#utility.yul\":11274:11292   */\n          dup2\n            /* \"#utility.yul\":11271:11309   */\n          eq\n            /* \"#utility.yul\":11268:11270   */\n          iszero\n          tag_264\n          jumpi\n            /* \"#utility.yul\":11324:11342   */\n          tag_265\n          tag_266\n          jump\t// in\n        tag_265:\n            /* \"#utility.yul\":11268:11270   */\n        tag_264:\n            /* \"#utility.yul\":11089:11358   */\n          pop\n          swap2\n          swap1\n          pop\n          jump\t// out\n            /* \"#utility.yul\":11364:11544   */\n        tag_243:\n            /* \"#utility.yul\":11412:11489   */\n          0x4e487b7100000000000000000000000000000000000000000000000000000000\n            /* \"#utility.yul\":11409:11410   */\n          0x00\n            /* \"#utility.yul\":11402:11490   */\n          mstore\n            /* \"#utility.yul\":11509:11513   */\n          0x11\n            /* \"#utility.yul\":11506:11507   */\n          0x04\n            /* \"#utility.yul\":11499:11514   */\n          mstore\n            /* \"#utility.yul\":11533:11537   */\n          0x24\n            /* \"#utility.yul\":11530:11531   */\n          0x00\n            /* \"#utility.yul\":11523:11538   */\n          revert\n            /* \"#utility.yul\":11550:11730   */\n        tag_266:\n            /* \"#utility.yul\":11598:11675   */\n          0x4e487b7100000000000000000000000000000000000000000000000000000000\n            /* \"#utility.yul\":11595:11596   */\n          0x00\n            /* \"#utility.yul\":11588:11676   */\n          mstore\n            /* \"#utility.yul\":11695:11699   */\n          0x22\n            /* \"#utility.yul\":11692:11693   */\n          0x04\n            /* \"#utility.yul\":11685:11700   */\n          mstore\n            /* \"#utility.yul\":11719:11723   */\n          0x24\n            /* \"#utility.yul\":11716:11717   */\n          0x00\n            /* \"#utility.yul\":11709:11724   */\n          revert\n            /* \"#utility.yul\":11736:11838   */\n        tag_184:\n          0x00\n            /* \"#utility.yul\":11828:11830   */\n          0x1f\n            /* \"#utility.yul\":11824:11831   */\n          not\n            /* \"#utility.yul\":11819:11821   */\n          0x1f\n            /* \"#utility.yul\":11812:11817   */\n          dup4\n            /* \"#utility.yul\":11808:11822   */\n          add\n            /* \"#utility.yul\":11804:11832   */\n          and\n            /* \"#utility.yul\":11794:11832   */\n          swap1\n          pop\n            /* \"#utility.yul\":11784:11838   */\n          swap2\n          swap1\n          pop\n          jump\t// out\n            /* \"#utility.yul\":11844:11966   */\n        tag_147:\n            /* \"#utility.yul\":11917:11941   */\n          tag_271\n            /* \"#utility.yul\":11935:11940   */\n          dup2\n            /* \"#utility.yul\":11917:11941   */\n          tag_249\n          jump\t// in\n        tag_271:\n            /* \"#utility.yul\":11910:11915   */\n          dup2\n            /* \"#utility.yul\":11907:11942   */\n          eq\n            /* \"#utility.yul\":11897:11899   */\n          tag_272\n          jumpi\n            /* \"#utility.yul\":11956:11957   */\n          0x00\n            /* \"#utility.yul\":11953:11954   */\n          dup1\n            /* \"#utility.yul\":11946:11958   */\n          revert\n            /* \"#utility.yul\":11897:11899   */\n        tag_272:\n            /* \"#utility.yul\":11887:11966   */\n          pop\n          jump\t// out\n            /* \"#utility.yul\":11972:12094   */\n        tag_151:\n            /* \"#utility.yul\":12045:12069   */\n          tag_274\n            /* \"#utility.yul\":12063:12068   */\n          dup2\n            /* \"#utility.yul\":12045:12069   */\n          tag_209\n          jump\t// in\n        tag_274:\n            /* \"#utility.yul\":12038:12043   */\n          dup2\n            /* \"#utility.yul\":12035:12070   */\n          eq\n            /* \"#utility.yul\":12025:12027   */\n          tag_275\n          jumpi\n            /* \"#utility.yul\":12084:12085   */\n          0x00\n            /* \"#utility.yul\":12081:12082   */\n          dup1\n            /* \"#utility.yul\":12074:12086   */\n          revert\n            /* \"#utility.yul\":12025:12027   */\n        tag_275:\n            /* \"#utility.yul\":12015:12094   */\n          pop\n          jump\t// out\n\n        auxdata: 0xa26469706673582212204f4df141a254ad2fef1ed85fdf358adb543a9b310f04c2d4098985c7404d387e64736f6c63430008000033\n    }\n}\n",
				"bytecode": {
					"linkReferences": {},
					"object": "60806040526127106001553480156200001757600080fd5b506040518060400160405280600981526020017f444e4720546f6b656e00000000000000000000000000000000000000000000008152506040518060400160405280600381526020017f444e4700000000000000000000000000000000000000000000000000000000008152506012600154600260009054906101000a900473ffffffffffffffffffffffffffffffffffffffff16600360009054906101000a900473ffffffffffffffffffffffffffffffffffffffff16604051620000dd9062000151565b620000ee96959493929190620001e4565b604051809103906000f0801580156200010b573d6000803e3d6000fd5b506000806101000a81548173ffffffffffffffffffffffffffffffffffffffff021916908373ffffffffffffffffffffffffffffffffffffffff16021790555062000321565b611dcf8062000d6c83390190565b6200016a816200028f565b82525050565b6200017b816200027b565b82525050565b60006200018e826200025f565b6200019a81856200026a565b9350620001ac818560208601620002da565b620001b78162000310565b840191505092915050565b620001cd81620002c3565b82525050565b620001de81620002cd565b82525050565b600060c082019050818103600083015262000200818962000181565b9050818103602083015262000216818862000181565b9050620002276040830187620001d3565b620002366060830186620001c2565b6200024560808301856200015f565b6200025460a083018462000170565b979650505050505050565b600081519050919050565b600082825260208201905092915050565b60006200028882620002a3565b9050919050565b60006200029c82620002a3565b9050919050565b600073ffffffffffffffffffffffffffffffffffffffff82169050919050565b6000819050919050565b600060ff82169050919050565b60005b83811015620002fa578082015181840152602081019050620002dd565b838111156200030a576000848401525b50505050565b6000601f19601f8301169050919050565b610a3b80620003316000396000f3fe608060405234801561001057600080fd5b506004361061009e5760003560e01c806380fc5d171161006657806380fc5d17146100fd57806395d89b411461011b578063cc8668de14610139578063e13aba4814610143578063eb7492d11461014d5761009e565b806306fdde03146100a3578063313ce567146100c15780633df77c0e146100df5780635d4696cf146100e957806377fc70c6146100f3575b600080fd5b6100ab610157565b6040516100b89190610834565b60405180910390f35b6100c9610190565b6040516100d69190610871565b60405180910390f35b6100e7610195565b005b6100f1610246565b005b6100fb6102ec565b005b610105610397565b6040516101129190610856565b60405180910390f35b61012361039d565b6040516101309190610834565b60405180910390f35b6101416103d6565b005b61014b610481565b005b6101556105be565b005b6040518060400160405280600981526020017f444e4720546f6b656e000000000000000000000000000000000000000000000081525081565b601281565b60008060009054906101000a900473ffffffffffffffffffffffffffffffffffffffff1673ffffffffffffffffffffffffffffffffffffffff166370a08231306040518263ffffffff1660e01b81526004016101f191906107fe565b60206040518083038186803b15801561020957600080fd5b505afa15801561021d573d6000803e3d6000fd5b505050506040513d601f19601f820116820180604052508101906102419190610737565b905050565b60008060009054906101000a900473ffffffffffffffffffffffffffffffffffffffff1673ffffffffffffffffffffffffffffffffffffffff1663f0141d846040518163ffffffff1660e01b815260040160206040518083038186803b1580156102af57600080fd5b505afa1580156102c3573d6000803e3d6000fd5b505050506040513d601f19601f820116820180604052508101906102e79190610760565b905050565b60008060009054906101000a900473ffffffffffffffffffffffffffffffffffffffff1673ffffffffffffffffffffffffffffffffffffffff1663150704016040518163ffffffff1660e01b815260040160006040518083038186803b15801561035557600080fd5b505afa158015610369573d6000803e3d6000fd5b505050506040513d6000823e3d601f19601f8201168201806040525081019061039291906106f6565b905050565b60015481565b6040518060400160405280600381526020017f444e47000000000000000000000000000000000000000000000000000000000081525081565b60008060009054906101000a900473ffffffffffffffffffffffffffffffffffffffff1673ffffffffffffffffffffffffffffffffffffffff166317d7de7c6040518163ffffffff1660e01b815260040160006040518083038186803b15801561043f57600080fd5b505afa158015610453573d6000803e3d6000fd5b505050506040513d6000823e3d601f19601f8201168201806040525081019061047c91906106f6565b905050565b60008054906101000a900473ffffffffffffffffffffffffffffffffffffffff1673ffffffffffffffffffffffffffffffffffffffff166342966c6860646040518263ffffffff1660e01b81526004016104db9190610819565b600060405180830381600087803b1580156104f557600080fd5b505af1158015610509573d6000803e3d6000fd5b5050505060008060009054906101000a900473ffffffffffffffffffffffffffffffffffffffff1673ffffffffffffffffffffffffffffffffffffffff166370a08231306040518263ffffffff1660e01b815260040161056991906107fe565b60206040518083038186803b15801561058157600080fd5b505afa158015610595573d6000803e3d6000fd5b505050506040513d601f19601f820116820180604052508101906105b99190610737565b905050565b60008060009054906101000a900473ffffffffffffffffffffffffffffffffffffffff1673ffffffffffffffffffffffffffffffffffffffff166318160ddd6040518163ffffffff1660e01b815260040160206040518083038186803b15801561062757600080fd5b505afa15801561063b573d6000803e3d6000fd5b505050506040513d601f19601f8201168201806040525081019061065f9190610737565b905050565b6000610677610672846108bd565b61088c565b90508281526020810184848401111561068f57600080fd5b61069a848285610964565b509392505050565b600082601f8301126106b357600080fd5b81516106c3848260208601610664565b91505092915050565b6000815190506106db816109d7565b92915050565b6000815190506106f0816109ee565b92915050565b60006020828403121561070857600080fd5b600082015167ffffffffffffffff81111561072257600080fd5b61072e848285016106a2565b91505092915050565b60006020828403121561074957600080fd5b6000610757848285016106cc565b91505092915050565b60006020828403121561077257600080fd5b6000610780848285016106e1565b91505092915050565b61079281610909565b82525050565b6107a181610952565b82525050565b60006107b2826108ed565b6107bc81856108f8565b93506107cc818560208601610964565b6107d5816109c6565b840191505092915050565b6107e98161093b565b82525050565b6107f881610945565b82525050565b60006020820190506108136000830184610789565b92915050565b600060208201905061082e6000830184610798565b92915050565b6000602082019050818103600083015261084e81846107a7565b905092915050565b600060208201905061086b60008301846107e0565b92915050565b600060208201905061088660008301846107ef565b92915050565b6000604051905081810181811067ffffffffffffffff821117156108b3576108b2610997565b5b8060405250919050565b600067ffffffffffffffff8211156108d8576108d7610997565b5b601f19601f8301169050602081019050919050565b600081519050919050565b600082825260208201905092915050565b60006109148261091b565b9050919050565b600073ffffffffffffffffffffffffffffffffffffffff82169050919050565b6000819050919050565b600060ff82169050919050565b600061095d8261093b565b9050919050565b60005b83811015610982578082015181840152602081019050610967565b83811115610991576000848401525b50505050565b7f4e487b7100000000000000000000000000000000000000000000000000000000600052604160045260246000fd5b6000601f19601f8301169050919050565b6109e08161093b565b81146109eb57600080fd5b50565b6109f781610945565b8114610a0257600080fd5b5056fea2646970667358221220a2a2d1334ce12bdcef7398f5e8b1cb7d9562391f32e9638177898d32430468f564736f6c63430008000033608060405260405162001dcf38038062001dcf833981810160405281019062000029919062000458565b856003908051906020019062000041929190620002da565b5084600490805190602001906200005a929190620002da565b5083600560006101000a81548160ff021916908360ff160217905550620000888184620000dc60201b60201c565b8173ffffffffffffffffffffffffffffffffffffffff166108fc349081150290604051600060405180830381858888f19350505050158015620000cf573d6000803e3d6000fd5b50505050505050620008ab565b600073ffffffffffffffffffffffffffffffffffffffff168273ffffffffffffffffffffffffffffffffffffffff1614156200014f576040517f08c379a00000000000000000000000000000000000000000000000000000000081526004016200014690620005d7565b60405180910390fd5b6200016b816002546200027760201b620006e71790919060201c565b600281905550620001c9816000808573ffffffffffffffffffffffffffffffffffffffff1673ffffffffffffffffffffffffffffffffffffffff168152602001908152602001600020546200027760201b620006e71790919060201c565b6000808473ffffffffffffffffffffffffffffffffffffffff1673ffffffffffffffffffffffffffffffffffffffff168152602001908152602001600020819055508173ffffffffffffffffffffffffffffffffffffffff16600073ffffffffffffffffffffffffffffffffffffffff167fddf252ad1be2c89b69c2b068fc378daa952ba7f163c4a11628f55a4df523b3ef836040516200026b9190620005f9565b60405180910390a35050565b60008082846200028891906200068e565b905083811015620002d0576040517f08c379a0000000000000000000000000000000000000000000000000000000008152600401620002c790620005b5565b60405180910390fd5b8091505092915050565b828054620002e89062000780565b90600052602060002090601f0160209004810192826200030c576000855562000358565b82601f106200032757805160ff191683800117855562000358565b8280016001018555821562000358579182015b82811115620003575782518255916020019190600101906200033a565b5b5090506200036791906200036b565b5090565b5b80821115620003865760008160009055506001016200036c565b5090565b6000620003a16200039b846200064a565b62000616565b905082815260208101848484011115620003ba57600080fd5b620003c78482856200074a565b509392505050565b600081519050620003e08162000843565b92915050565b600081519050620003f7816200085d565b92915050565b600082601f8301126200040f57600080fd5b8151620004218482602086016200038a565b91505092915050565b6000815190506200043b8162000877565b92915050565b600081519050620004528162000891565b92915050565b60008060008060008060c087890312156200047257600080fd5b600087015167ffffffffffffffff8111156200048d57600080fd5b6200049b89828a01620003fd565b965050602087015167ffffffffffffffff811115620004b957600080fd5b620004c789828a01620003fd565b9550506040620004da89828a0162000441565b9450506060620004ed89828a016200042a565b93505060806200050089828a01620003e6565b92505060a06200051389828a01620003cf565b9150509295509295509295565b60006200052f601b836200067d565b91507f536166654d6174683a206164646974696f6e206f766572666c6f7700000000006000830152602082019050919050565b600062000571601f836200067d565b91507f45524332303a206d696e7420746f20746865207a65726f2061646472657373006000830152602082019050919050565b620005af8162000733565b82525050565b60006020820190508181036000830152620005d08162000520565b9050919050565b60006020820190508181036000830152620005f28162000562565b9050919050565b6000602082019050620006106000830184620005a4565b92915050565b6000604051905081810181811067ffffffffffffffff8211171562000640576200063f62000814565b5b8060405250919050565b600067ffffffffffffffff82111562000668576200066762000814565b5b601f19601f8301169050602081019050919050565b600082825260208201905092915050565b60006200069b8262000733565b9150620006a88362000733565b9250827fffffffffffffffffffffffffffffffffffffffffffffffffffffffffffffffff03821115620006e057620006df620007b6565b5b828201905092915050565b6000620006f88262000713565b9050919050565b60006200070c8262000713565b9050919050565b600073ffffffffffffffffffffffffffffffffffffffff82169050919050565b6000819050919050565b600060ff82169050919050565b60005b838110156200076a5780820151818401526020810190506200074d565b838111156200077a576000848401525b50505050565b600060028204905060018216806200079957607f821691505b60208210811415620007b057620007af620007e5565b5b50919050565b7f4e487b7100000000000000000000000000000000000000000000000000000000600052601160045260246000fd5b7f4e487b7100000000000000000000000000000000000000000000000000000000600052602260045260246000fd5b7f4e487b7100000000000000000000000000000000000000000000000000000000600052604160045260246000fd5b6200084e81620006eb565b81146200085a57600080fd5b50565b6200086881620006ff565b81146200087457600080fd5b50565b620008828162000733565b81146200088e57600080fd5b50565b6200089c816200073d565b8114620008a857600080fd5b50565b61151480620008bb6000396000f3fe608060405234801561001057600080fd5b50600436106100b45760003560e01c806342966c681161007157806342966c68146101a357806370a08231146101bf578063a457c2d7146101ef578063a9059cbb1461021f578063dd62ed3e1461024f578063f0141d841461027f576100b4565b8063095ea7b3146100b957806315070401146100e957806317d7de7c1461010757806318160ddd1461012557806323b872dd146101435780633950935114610173575b600080fd5b6100d360048036038101906100ce9190610e45565b61029d565b6040516100e0919061118e565b60405180910390f35b6100f16102b4565b6040516100fe91906111a9565b60405180910390f35b61010f610346565b60405161011c91906111a9565b60405180910390f35b61012d6103d8565b60405161013a91906112ab565b60405180910390f35b61015d60048036038101906101589190610df6565b6103e2565b60405161016a919061118e565b60405180910390f35b61018d60048036038101906101889190610e45565b610493565b60405161019a919061118e565b60405180910390f35b6101bd60048036038101906101b89190610e81565b610538565b005b6101d960048036038101906101d49190610d91565b610545565b6040516101e691906112ab565b60405180910390f35b61020960048036038101906102049190610e45565b61058d565b604051610216919061118e565b60405180910390f35b61023960048036038101906102349190610e45565b610632565b604051610246919061118e565b60405180910390f35b61026960048036038101906102649190610dba565b610649565b60405161027691906112ab565b60405180910390f35b6102876106d0565b60405161029491906112c6565b60405180910390f35b60006102aa338484610745565b6001905092915050565b6060600480546102c39061140f565b80601f01602080910402602001604051908101604052809291908181526020018280546102ef9061140f565b801561033c5780601f106103115761010080835404028352916020019161033c565b820191906000526020600020905b81548152906001019060200180831161031f57829003601f168201915b5050505050905090565b6060600380546103559061140f565b80601f01602080910402602001604051908101604052809291908181526020018280546103819061140f565b80156103ce5780601f106103a3576101008083540402835291602001916103ce565b820191906000526020600020905b8154815290600101906020018083116103b157829003601f168201915b5050505050905090565b6000600254905090565b60006103ef848484610910565b610488843361048385600160008a73ffffffffffffffffffffffffffffffffffffffff1673ffffffffffffffffffffffffffffffffffffffff16815260200190815260200160002060003373ffffffffffffffffffffffffffffffffffffffff1673ffffffffffffffffffffffffffffffffffffffff16815260200190815260200160002054610b8090919063ffffffff16565b610745565b600190509392505050565b600061052e338461052985600160003373ffffffffffffffffffffffffffffffffffffffff1673ffffffffffffffffffffffffffffffffffffffff16815260200190815260200160002060008973ffffffffffffffffffffffffffffffffffffffff1673ffffffffffffffffffffffffffffffffffffffff168152602001908152602001600020546106e790919063ffffffff16565b610745565b6001905092915050565b6105423382610bdf565b50565b60008060008373ffffffffffffffffffffffffffffffffffffffff1673ffffffffffffffffffffffffffffffffffffffff168152602001908152602001600020549050919050565b6000610628338461062385600160003373ffffffffffffffffffffffffffffffffffffffff1673ffffffffffffffffffffffffffffffffffffffff16815260200190815260200160002060008973ffffffffffffffffffffffffffffffffffffffff1673ffffffffffffffffffffffffffffffffffffffff16815260200190815260200160002054610b8090919063ffffffff16565b610745565b6001905092915050565b600061063f338484610910565b6001905092915050565b6000600160008473ffffffffffffffffffffffffffffffffffffffff1673ffffffffffffffffffffffffffffffffffffffff16815260200190815260200160002060008373ffffffffffffffffffffffffffffffffffffffff1673ffffffffffffffffffffffffffffffffffffffff16815260200190815260200160002054905092915050565b6000600560009054906101000a900460ff16905090565b60008082846106f691906112fd565b90508381101561073b576040517f08c379a00000000000000000000000000000000000000000000000000000000081526004016107329061120b565b60405180910390fd5b8091505092915050565b600073ffffffffffffffffffffffffffffffffffffffff168373ffffffffffffffffffffffffffffffffffffffff1614156107b5576040517f08c379a00000000000000000000000000000000000000000000000000000000081526004016107ac9061128b565b60405180910390fd5b600073ffffffffffffffffffffffffffffffffffffffff168273ffffffffffffffffffffffffffffffffffffffff161415610825576040517f08c379a000000000000000000000000000000000000000000000000000000000815260040161081c906111eb565b60405180910390fd5b80600160008573ffffffffffffffffffffffffffffffffffffffff1673ffffffffffffffffffffffffffffffffffffffff16815260200190815260200160002060008473ffffffffffffffffffffffffffffffffffffffff1673ffffffffffffffffffffffffffffffffffffffff168152602001908152602001600020819055508173ffffffffffffffffffffffffffffffffffffffff168373ffffffffffffffffffffffffffffffffffffffff167f8c5be1e5ebec7d5bd14f71427d1e84f3dd0314c0f7b2291e5b200ac8c7c3b9258360405161090391906112ab565b60405180910390a3505050565b600073ffffffffffffffffffffffffffffffffffffffff168373ffffffffffffffffffffffffffffffffffffffff161415610980576040517f08c379a00000000000000000000000000000000000000000000000000000000081526004016109779061126b565b60405180910390fd5b600073ffffffffffffffffffffffffffffffffffffffff168273ffffffffffffffffffffffffffffffffffffffff1614156109f0576040517f08c379a00000000000000000000000000000000000000000000000000000000081526004016109e7906111cb565b60405180910390fd5b610a41816000808673ffffffffffffffffffffffffffffffffffffffff1673ffffffffffffffffffffffffffffffffffffffff16815260200190815260200160002054610b8090919063ffffffff16565b6000808573ffffffffffffffffffffffffffffffffffffffff1673ffffffffffffffffffffffffffffffffffffffff16815260200190815260200160002081905550610ad4816000808573ffffffffffffffffffffffffffffffffffffffff1673ffffffffffffffffffffffffffffffffffffffff168152602001908152602001600020546106e790919063ffffffff16565b6000808473ffffffffffffffffffffffffffffffffffffffff1673ffffffffffffffffffffffffffffffffffffffff168152602001908152602001600020819055508173ffffffffffffffffffffffffffffffffffffffff168373ffffffffffffffffffffffffffffffffffffffff167fddf252ad1be2c89b69c2b068fc378daa952ba7f163c4a11628f55a4df523b3ef83604051610b7391906112ab565b60405180910390a3505050565b600082821115610bc5576040517f08c379a0000000000000000000000000000000000000000000000000000000008152600401610bbc9061122b565b60405180910390fd5b60008284610bd39190611353565b90508091505092915050565b600073ffffffffffffffffffffffffffffffffffffffff168273ffffffffffffffffffffffffffffffffffffffff161415610c4f576040517f08c379a0000000000000000000000000000000000000000000000000000000008152600401610c469061124b565b60405180910390fd5b610c6481600254610b8090919063ffffffff16565b600281905550610cbb816000808573ffffffffffffffffffffffffffffffffffffffff1673ffffffffffffffffffffffffffffffffffffffff16815260200190815260200160002054610b8090919063ffffffff16565b6000808473ffffffffffffffffffffffffffffffffffffffff1673ffffffffffffffffffffffffffffffffffffffff16815260200190815260200160002081905550600073ffffffffffffffffffffffffffffffffffffffff168273ffffffffffffffffffffffffffffffffffffffff167fddf252ad1be2c89b69c2b068fc378daa952ba7f163c4a11628f55a4df523b3ef83604051610d5b91906112ab565b60405180910390a35050565b600081359050610d76816114b0565b92915050565b600081359050610d8b816114c7565b92915050565b600060208284031215610da357600080fd5b6000610db184828501610d67565b91505092915050565b60008060408385031215610dcd57600080fd5b6000610ddb85828601610d67565b9250506020610dec85828601610d67565b9150509250929050565b600080600060608486031215610e0b57600080fd5b6000610e1986828701610d67565b9350506020610e2a86828701610d67565b9250506040610e3b86828701610d7c565b9150509250925092565b60008060408385031215610e5857600080fd5b6000610e6685828601610d67565b9250506020610e7785828601610d7c565b9150509250929050565b600060208284031215610e9357600080fd5b6000610ea184828501610d7c565b91505092915050565b610eb381611399565b82525050565b6000610ec4826112e1565b610ece81856112ec565b9350610ede8185602086016113dc565b610ee78161149f565b840191505092915050565b6000610eff6023836112ec565b91507f45524332303a207472616e7366657220746f20746865207a65726f206164647260008301527f65737300000000000000000000000000000000000000000000000000000000006020830152604082019050919050565b6000610f656022836112ec565b91507f45524332303a20617070726f766520746f20746865207a65726f20616464726560008301527f73730000000000000000000000000000000000000000000000000000000000006020830152604082019050919050565b6000610fcb601b836112ec565b91507f536166654d6174683a206164646974696f6e206f766572666c6f7700000000006000830152602082019050919050565b600061100b601e836112ec565b91507f536166654d6174683a207375627472616374696f6e206f766572666c6f7700006000830152602082019050919050565b600061104b6021836112ec565b91507f45524332303a206275726e2066726f6d20746865207a65726f2061646472657360008301527f73000000000000000000000000000000000000000000000000000000000000006020830152604082019050919050565b60006110b16025836112ec565b91507f45524332303a207472616e736665722066726f6d20746865207a65726f20616460008301527f64726573730000000000000000000000000000000000000000000000000000006020830152604082019050919050565b60006111176024836112ec565b91507f45524332303a20617070726f76652066726f6d20746865207a65726f2061646460008301527f72657373000000000000000000000000000000000000000000000000000000006020830152604082019050919050565b611179816113c5565b82525050565b611188816113cf565b82525050565b60006020820190506111a36000830184610eaa565b92915050565b600060208201905081810360008301526111c38184610eb9565b905092915050565b600060208201905081810360008301526111e481610ef2565b9050919050565b6000602082019050818103600083015261120481610f58565b9050919050565b6000602082019050818103600083015261122481610fbe565b9050919050565b6000602082019050818103600083015261124481610ffe565b9050919050565b600060208201905081810360008301526112648161103e565b9050919050565b60006020820190508181036000830152611284816110a4565b9050919050565b600060208201905081810360008301526112a48161110a565b9050919050565b60006020820190506112c06000830184611170565b92915050565b60006020820190506112db600083018461117f565b92915050565b600081519050919050565b600082825260208201905092915050565b6000611308826113c5565b9150611313836113c5565b9250827fffffffffffffffffffffffffffffffffffffffffffffffffffffffffffffffff0382111561134857611347611441565b5b828201905092915050565b600061135e826113c5565b9150611369836113c5565b92508282101561137c5761137b611441565b5b828203905092915050565b6000611392826113a5565b9050919050565b60008115159050919050565b600073ffffffffffffffffffffffffffffffffffffffff82169050919050565b6000819050919050565b600060ff82169050919050565b60005b838110156113fa5780820151818401526020810190506113df565b83811115611409576000848401525b50505050565b6000600282049050600182168061142757607f821691505b6020821081141561143b5761143a611470565b5b50919050565b7f4e487b7100000000000000000000000000000000000000000000000000000000600052601160045260246000fd5b7f4e487b7100000000000000000000000000000000000000000000000000000000600052602260045260246000fd5b6000601f19601f8301169050919050565b6114b981611387565b81146114c457600080fd5b50565b6114d0816113c5565b81146114db57600080fd5b5056fea26469706673582212204f4df141a254ad2fef1ed85fdf358adb543a9b310f04c2d4098985c7404d387e64736f6c63430008000033",
					"opcodes": "PUSH1 0x80 PUSH1 0x40 MSTORE PUSH2 0x2710 PUSH1 0x1 SSTORE CALLVALUE DUP1 ISZERO PUSH3 0x17 JUMPI PUSH1 0x0 DUP1 REVERT JUMPDEST POP PUSH1 0x40 MLOAD DUP1 PUSH1 0x40 ADD PUSH1 0x40 MSTORE DUP1 PUSH1 0x9 DUP2 MSTORE PUSH1 0x20 ADD PUSH32 0x444E4720546F6B656E0000000000000000000000000000000000000000000000 DUP2 MSTORE POP PUSH1 0x40 MLOAD DUP1 PUSH1 0x40 ADD PUSH1 0x40 MSTORE DUP1 PUSH1 0x3 DUP2 MSTORE PUSH1 0x20 ADD PUSH32 0x444E470000000000000000000000000000000000000000000000000000000000 DUP2 MSTORE POP PUSH1 0x12 PUSH1 0x1 SLOAD PUSH1 0x2 PUSH1 0x0 SWAP1 SLOAD SWAP1 PUSH2 0x100 EXP SWAP1 DIV PUSH20 0xFFFFFFFFFFFFFFFFFFFFFFFFFFFFFFFFFFFFFFFF AND PUSH1 0x3 PUSH1 0x0 SWAP1 SLOAD SWAP1 PUSH2 0x100 EXP SWAP1 DIV PUSH20 0xFFFFFFFFFFFFFFFFFFFFFFFFFFFFFFFFFFFFFFFF AND PUSH1 0x40 MLOAD PUSH3 0xDD SWAP1 PUSH3 0x151 JUMP JUMPDEST PUSH3 0xEE SWAP7 SWAP6 SWAP5 SWAP4 SWAP3 SWAP2 SWAP1 PUSH3 0x1E4 JUMP JUMPDEST PUSH1 0x40 MLOAD DUP1 SWAP2 SUB SWAP1 PUSH1 0x0 CREATE DUP1 ISZERO DUP1 ISZERO PUSH3 0x10B JUMPI RETURNDATASIZE PUSH1 0x0 DUP1 RETURNDATACOPY RETURNDATASIZE PUSH1 0x0 REVERT JUMPDEST POP PUSH1 0x0 DUP1 PUSH2 0x100 EXP DUP2 SLOAD DUP2 PUSH20 0xFFFFFFFFFFFFFFFFFFFFFFFFFFFFFFFFFFFFFFFF MUL NOT AND SWAP1 DUP4 PUSH20 0xFFFFFFFFFFFFFFFFFFFFFFFFFFFFFFFFFFFFFFFF AND MUL OR SWAP1 SSTORE POP PUSH3 0x321 JUMP JUMPDEST PUSH2 0x1DCF DUP1 PUSH3 0xD6C DUP4 CODECOPY ADD SWAP1 JUMP JUMPDEST PUSH3 0x16A DUP2 PUSH3 0x28F JUMP JUMPDEST DUP3 MSTORE POP POP JUMP JUMPDEST PUSH3 0x17B DUP2 PUSH3 0x27B JUMP JUMPDEST DUP3 MSTORE POP POP JUMP JUMPDEST PUSH1 0x0 PUSH3 0x18E DUP3 PUSH3 0x25F JUMP JUMPDEST PUSH3 0x19A DUP2 DUP6 PUSH3 0x26A JUMP JUMPDEST SWAP4 POP PUSH3 0x1AC DUP2 DUP6 PUSH1 0x20 DUP7 ADD PUSH3 0x2DA JUMP JUMPDEST PUSH3 0x1B7 DUP2 PUSH3 0x310 JUMP JUMPDEST DUP5 ADD SWAP2 POP POP SWAP3 SWAP2 POP POP JUMP JUMPDEST PUSH3 0x1CD DUP2 PUSH3 0x2C3 JUMP JUMPDEST DUP3 MSTORE POP POP JUMP JUMPDEST PUSH3 0x1DE DUP2 PUSH3 0x2CD JUMP JUMPDEST DUP3 MSTORE POP POP JUMP JUMPDEST PUSH1 0x0 PUSH1 0xC0 DUP3 ADD SWAP1 POP DUP2 DUP2 SUB PUSH1 0x0 DUP4 ADD MSTORE PUSH3 0x200 DUP2 DUP10 PUSH3 0x181 JUMP JUMPDEST SWAP1 POP DUP2 DUP2 SUB PUSH1 0x20 DUP4 ADD MSTORE PUSH3 0x216 DUP2 DUP9 PUSH3 0x181 JUMP JUMPDEST SWAP1 POP PUSH3 0x227 PUSH1 0x40 DUP4 ADD DUP8 PUSH3 0x1D3 JUMP JUMPDEST PUSH3 0x236 PUSH1 0x60 DUP4 ADD DUP7 PUSH3 0x1C2 JUMP JUMPDEST PUSH3 0x245 PUSH1 0x80 DUP4 ADD DUP6 PUSH3 0x15F JUMP JUMPDEST PUSH3 0x254 PUSH1 0xA0 DUP4 ADD DUP5 PUSH3 0x170 JUMP JUMPDEST SWAP8 SWAP7 POP POP POP POP POP POP POP JUMP JUMPDEST PUSH1 0x0 DUP2 MLOAD SWAP1 POP SWAP2 SWAP1 POP JUMP JUMPDEST PUSH1 0x0 DUP3 DUP3 MSTORE PUSH1 0x20 DUP3 ADD SWAP1 POP SWAP3 SWAP2 POP POP JUMP JUMPDEST PUSH1 0x0 PUSH3 0x288 DUP3 PUSH3 0x2A3 JUMP JUMPDEST SWAP1 POP SWAP2 SWAP1 POP JUMP JUMPDEST PUSH1 0x0 PUSH3 0x29C DUP3 PUSH3 0x2A3 JUMP JUMPDEST SWAP1 POP SWAP2 SWAP1 POP JUMP JUMPDEST PUSH1 0x0 PUSH20 0xFFFFFFFFFFFFFFFFFFFFFFFFFFFFFFFFFFFFFFFF DUP3 AND SWAP1 POP SWAP2 SWAP1 POP JUMP JUMPDEST PUSH1 0x0 DUP2 SWAP1 POP SWAP2 SWAP1 POP JUMP JUMPDEST PUSH1 0x0 PUSH1 0xFF DUP3 AND SWAP1 POP SWAP2 SWAP1 POP JUMP JUMPDEST PUSH1 0x0 JUMPDEST DUP4 DUP2 LT ISZERO PUSH3 0x2FA JUMPI DUP1 DUP3 ADD MLOAD DUP2 DUP5 ADD MSTORE PUSH1 0x20 DUP2 ADD SWAP1 POP PUSH3 0x2DD JUMP JUMPDEST DUP4 DUP2 GT ISZERO PUSH3 0x30A JUMPI PUSH1 0x0 DUP5 DUP5 ADD MSTORE JUMPDEST POP POP POP POP JUMP JUMPDEST PUSH1 0x0 PUSH1 0x1F NOT PUSH1 0x1F DUP4 ADD AND SWAP1 POP SWAP2 SWAP1 POP JUMP JUMPDEST PUSH2 0xA3B DUP1 PUSH3 0x331 PUSH1 0x0 CODECOPY PUSH1 0x0 RETURN INVALID PUSH1 0x80 PUSH1 0x40 MSTORE CALLVALUE DUP1 ISZERO PUSH2 0x10 JUMPI PUSH1 0x0 DUP1 REVERT JUMPDEST POP PUSH1 0x4 CALLDATASIZE LT PUSH2 0x9E JUMPI PUSH1 0x0 CALLDATALOAD PUSH1 0xE0 SHR DUP1 PUSH4 0x80FC5D17 GT PUSH2 0x66 JUMPI DUP1 PUSH4 0x80FC5D17 EQ PUSH2 0xFD JUMPI DUP1 PUSH4 0x95D89B41 EQ PUSH2 0x11B JUMPI DUP1 PUSH4 0xCC8668DE EQ PUSH2 0x139 JUMPI DUP1 PUSH4 0xE13ABA48 EQ PUSH2 0x143 JUMPI DUP1 PUSH4 0xEB7492D1 EQ PUSH2 0x14D JUMPI PUSH2 0x9E JUMP JUMPDEST DUP1 PUSH4 0x6FDDE03 EQ PUSH2 0xA3 JUMPI DUP1 PUSH4 0x313CE567 EQ PUSH2 0xC1 JUMPI DUP1 PUSH4 0x3DF77C0E EQ PUSH2 0xDF JUMPI DUP1 PUSH4 0x5D4696CF EQ PUSH2 0xE9 JUMPI DUP1 PUSH4 0x77FC70C6 EQ PUSH2 0xF3 JUMPI JUMPDEST PUSH1 0x0 DUP1 REVERT JUMPDEST PUSH2 0xAB PUSH2 0x157 JUMP JUMPDEST PUSH1 0x40 MLOAD PUSH2 0xB8 SWAP2 SWAP1 PUSH2 0x834 JUMP JUMPDEST PUSH1 0x40 MLOAD DUP1 SWAP2 SUB SWAP1 RETURN JUMPDEST PUSH2 0xC9 PUSH2 0x190 JUMP JUMPDEST PUSH1 0x40 MLOAD PUSH2 0xD6 SWAP2 SWAP1 PUSH2 0x871 JUMP JUMPDEST PUSH1 0x40 MLOAD DUP1 SWAP2 SUB SWAP1 RETURN JUMPDEST PUSH2 0xE7 PUSH2 0x195 JUMP JUMPDEST STOP JUMPDEST PUSH2 0xF1 PUSH2 0x246 JUMP JUMPDEST STOP JUMPDEST PUSH2 0xFB PUSH2 0x2EC JUMP JUMPDEST STOP JUMPDEST PUSH2 0x105 PUSH2 0x397 JUMP JUMPDEST PUSH1 0x40 MLOAD PUSH2 0x112 SWAP2 SWAP1 PUSH2 0x856 JUMP JUMPDEST PUSH1 0x40 MLOAD DUP1 SWAP2 SUB SWAP1 RETURN JUMPDEST PUSH2 0x123 PUSH2 0x39D JUMP JUMPDEST PUSH1 0x40 MLOAD PUSH2 0x130 SWAP2 SWAP1 PUSH2 0x834 JUMP JUMPDEST PUSH1 0x40 MLOAD DUP1 SWAP2 SUB SWAP1 RETURN JUMPDEST PUSH2 0x141 PUSH2 0x3D6 JUMP JUMPDEST STOP JUMPDEST PUSH2 0x14B PUSH2 0x481 JUMP JUMPDEST STOP JUMPDEST PUSH2 0x155 PUSH2 0x5BE JUMP JUMPDEST STOP JUMPDEST PUSH1 0x40 MLOAD DUP1 PUSH1 0x40 ADD PUSH1 0x40 MSTORE DUP1 PUSH1 0x9 DUP2 MSTORE PUSH1 0x20 ADD PUSH32 0x444E4720546F6B656E0000000000000000000000000000000000000000000000 DUP2 MSTORE POP DUP2 JUMP JUMPDEST PUSH1 0x12 DUP2 JUMP JUMPDEST PUSH1 0x0 DUP1 PUSH1 0x0 SWAP1 SLOAD SWAP1 PUSH2 0x100 EXP SWAP1 DIV PUSH20 0xFFFFFFFFFFFFFFFFFFFFFFFFFFFFFFFFFFFFFFFF AND PUSH20 0xFFFFFFFFFFFFFFFFFFFFFFFFFFFFFFFFFFFFFFFF AND PUSH4 0x70A08231 ADDRESS PUSH1 0x40 MLOAD DUP3 PUSH4 0xFFFFFFFF AND PUSH1 0xE0 SHL DUP2 MSTORE PUSH1 0x4 ADD PUSH2 0x1F1 SWAP2 SWAP1 PUSH2 0x7FE JUMP JUMPDEST PUSH1 0x20 PUSH1 0x40 MLOAD DUP1 DUP4 SUB DUP2 DUP7 DUP1 EXTCODESIZE ISZERO DUP1 ISZERO PUSH2 0x209 JUMPI PUSH1 0x0 DUP1 REVERT JUMPDEST POP GAS STATICCALL ISZERO DUP1 ISZERO PUSH2 0x21D JUMPI RETURNDATASIZE PUSH1 0x0 DUP1 RETURNDATACOPY RETURNDATASIZE PUSH1 0x0 REVERT JUMPDEST POP POP POP POP PUSH1 0x40 MLOAD RETURNDATASIZE PUSH1 0x1F NOT PUSH1 0x1F DUP3 ADD AND DUP3 ADD DUP1 PUSH1 0x40 MSTORE POP DUP2 ADD SWAP1 PUSH2 0x241 SWAP2 SWAP1 PUSH2 0x737 JUMP JUMPDEST SWAP1 POP POP JUMP JUMPDEST PUSH1 0x0 DUP1 PUSH1 0x0 SWAP1 SLOAD SWAP1 PUSH2 0x100 EXP SWAP1 DIV PUSH20 0xFFFFFFFFFFFFFFFFFFFFFFFFFFFFFFFFFFFFFFFF AND PUSH20 0xFFFFFFFFFFFFFFFFFFFFFFFFFFFFFFFFFFFFFFFF AND PUSH4 0xF0141D84 PUSH1 0x40 MLOAD DUP2 PUSH4 0xFFFFFFFF AND PUSH1 0xE0 SHL DUP2 MSTORE PUSH1 0x4 ADD PUSH1 0x20 PUSH1 0x40 MLOAD DUP1 DUP4 SUB DUP2 DUP7 DUP1 EXTCODESIZE ISZERO DUP1 ISZERO PUSH2 0x2AF JUMPI PUSH1 0x0 DUP1 REVERT JUMPDEST POP GAS STATICCALL ISZERO DUP1 ISZERO PUSH2 0x2C3 JUMPI RETURNDATASIZE PUSH1 0x0 DUP1 RETURNDATACOPY RETURNDATASIZE PUSH1 0x0 REVERT JUMPDEST POP POP POP POP PUSH1 0x40 MLOAD RETURNDATASIZE PUSH1 0x1F NOT PUSH1 0x1F DUP3 ADD AND DUP3 ADD DUP1 PUSH1 0x40 MSTORE POP DUP2 ADD SWAP1 PUSH2 0x2E7 SWAP2 SWAP1 PUSH2 0x760 JUMP JUMPDEST SWAP1 POP POP JUMP JUMPDEST PUSH1 0x0 DUP1 PUSH1 0x0 SWAP1 SLOAD SWAP1 PUSH2 0x100 EXP SWAP1 DIV PUSH20 0xFFFFFFFFFFFFFFFFFFFFFFFFFFFFFFFFFFFFFFFF AND PUSH20 0xFFFFFFFFFFFFFFFFFFFFFFFFFFFFFFFFFFFFFFFF AND PUSH4 0x15070401 PUSH1 0x40 MLOAD DUP2 PUSH4 0xFFFFFFFF AND PUSH1 0xE0 SHL DUP2 MSTORE PUSH1 0x4 ADD PUSH1 0x0 PUSH1 0x40 MLOAD DUP1 DUP4 SUB DUP2 DUP7 DUP1 EXTCODESIZE ISZERO DUP1 ISZERO PUSH2 0x355 JUMPI PUSH1 0x0 DUP1 REVERT JUMPDEST POP GAS STATICCALL ISZERO DUP1 ISZERO PUSH2 0x369 JUMPI RETURNDATASIZE PUSH1 0x0 DUP1 RETURNDATACOPY RETURNDATASIZE PUSH1 0x0 REVERT JUMPDEST POP POP POP POP PUSH1 0x40 MLOAD RETURNDATASIZE PUSH1 0x0 DUP3 RETURNDATACOPY RETURNDATASIZE PUSH1 0x1F NOT PUSH1 0x1F DUP3 ADD AND DUP3 ADD DUP1 PUSH1 0x40 MSTORE POP DUP2 ADD SWAP1 PUSH2 0x392 SWAP2 SWAP1 PUSH2 0x6F6 JUMP JUMPDEST SWAP1 POP POP JUMP JUMPDEST PUSH1 0x1 SLOAD DUP2 JUMP JUMPDEST PUSH1 0x40 MLOAD DUP1 PUSH1 0x40 ADD PUSH1 0x40 MSTORE DUP1 PUSH1 0x3 DUP2 MSTORE PUSH1 0x20 ADD PUSH32 0x444E470000000000000000000000000000000000000000000000000000000000 DUP2 MSTORE POP DUP2 JUMP JUMPDEST PUSH1 0x0 DUP1 PUSH1 0x0 SWAP1 SLOAD SWAP1 PUSH2 0x100 EXP SWAP1 DIV PUSH20 0xFFFFFFFFFFFFFFFFFFFFFFFFFFFFFFFFFFFFFFFF AND PUSH20 0xFFFFFFFFFFFFFFFFFFFFFFFFFFFFFFFFFFFFFFFF AND PUSH4 0x17D7DE7C PUSH1 0x40 MLOAD DUP2 PUSH4 0xFFFFFFFF AND PUSH1 0xE0 SHL DUP2 MSTORE PUSH1 0x4 ADD PUSH1 0x0 PUSH1 0x40 MLOAD DUP1 DUP4 SUB DUP2 DUP7 DUP1 EXTCODESIZE ISZERO DUP1 ISZERO PUSH2 0x43F JUMPI PUSH1 0x0 DUP1 REVERT JUMPDEST POP GAS STATICCALL ISZERO DUP1 ISZERO PUSH2 0x453 JUMPI RETURNDATASIZE PUSH1 0x0 DUP1 RETURNDATACOPY RETURNDATASIZE PUSH1 0x0 REVERT JUMPDEST POP POP POP POP PUSH1 0x40 MLOAD RETURNDATASIZE PUSH1 0x0 DUP3 RETURNDATACOPY RETURNDATASIZE PUSH1 0x1F NOT PUSH1 0x1F DUP3 ADD AND DUP3 ADD DUP1 PUSH1 0x40 MSTORE POP DUP2 ADD SWAP1 PUSH2 0x47C SWAP2 SWAP1 PUSH2 0x6F6 JUMP JUMPDEST SWAP1 POP POP JUMP JUMPDEST PUSH1 0x0 DUP1 SLOAD SWAP1 PUSH2 0x100 EXP SWAP1 DIV PUSH20 0xFFFFFFFFFFFFFFFFFFFFFFFFFFFFFFFFFFFFFFFF AND PUSH20 0xFFFFFFFFFFFFFFFFFFFFFFFFFFFFFFFFFFFFFFFF AND PUSH4 0x42966C68 PUSH1 0x64 PUSH1 0x40 MLOAD DUP3 PUSH4 0xFFFFFFFF AND PUSH1 0xE0 SHL DUP2 MSTORE PUSH1 0x4 ADD PUSH2 0x4DB SWAP2 SWAP1 PUSH2 0x819 JUMP JUMPDEST PUSH1 0x0 PUSH1 0x40 MLOAD DUP1 DUP4 SUB DUP2 PUSH1 0x0 DUP8 DUP1 EXTCODESIZE ISZERO DUP1 ISZERO PUSH2 0x4F5 JUMPI PUSH1 0x0 DUP1 REVERT JUMPDEST POP GAS CALL ISZERO DUP1 ISZERO PUSH2 0x509 JUMPI RETURNDATASIZE PUSH1 0x0 DUP1 RETURNDATACOPY RETURNDATASIZE PUSH1 0x0 REVERT JUMPDEST POP POP POP POP PUSH1 0x0 DUP1 PUSH1 0x0 SWAP1 SLOAD SWAP1 PUSH2 0x100 EXP SWAP1 DIV PUSH20 0xFFFFFFFFFFFFFFFFFFFFFFFFFFFFFFFFFFFFFFFF AND PUSH20 0xFFFFFFFFFFFFFFFFFFFFFFFFFFFFFFFFFFFFFFFF AND PUSH4 0x70A08231 ADDRESS PUSH1 0x40 MLOAD DUP3 PUSH4 0xFFFFFFFF AND PUSH1 0xE0 SHL DUP2 MSTORE PUSH1 0x4 ADD PUSH2 0x569 SWAP2 SWAP1 PUSH2 0x7FE JUMP JUMPDEST PUSH1 0x20 PUSH1 0x40 MLOAD DUP1 DUP4 SUB DUP2 DUP7 DUP1 EXTCODESIZE ISZERO DUP1 ISZERO PUSH2 0x581 JUMPI PUSH1 0x0 DUP1 REVERT JUMPDEST POP GAS STATICCALL ISZERO DUP1 ISZERO PUSH2 0x595 JUMPI RETURNDATASIZE PUSH1 0x0 DUP1 RETURNDATACOPY RETURNDATASIZE PUSH1 0x0 REVERT JUMPDEST POP POP POP POP PUSH1 0x40 MLOAD RETURNDATASIZE PUSH1 0x1F NOT PUSH1 0x1F DUP3 ADD AND DUP3 ADD DUP1 PUSH1 0x40 MSTORE POP DUP2 ADD SWAP1 PUSH2 0x5B9 SWAP2 SWAP1 PUSH2 0x737 JUMP JUMPDEST SWAP1 POP POP JUMP JUMPDEST PUSH1 0x0 DUP1 PUSH1 0x0 SWAP1 SLOAD SWAP1 PUSH2 0x100 EXP SWAP1 DIV PUSH20 0xFFFFFFFFFFFFFFFFFFFFFFFFFFFFFFFFFFFFFFFF AND PUSH20 0xFFFFFFFFFFFFFFFFFFFFFFFFFFFFFFFFFFFFFFFF AND PUSH4 0x18160DDD PUSH1 0x40 MLOAD DUP2 PUSH4 0xFFFFFFFF AND PUSH1 0xE0 SHL DUP2 MSTORE PUSH1 0x4 ADD PUSH1 0x20 PUSH1 0x40 MLOAD DUP1 DUP4 SUB DUP2 DUP7 DUP1 EXTCODESIZE ISZERO DUP1 ISZERO PUSH2 0x627 JUMPI PUSH1 0x0 DUP1 REVERT JUMPDEST POP GAS STATICCALL ISZERO DUP1 ISZERO PUSH2 0x63B JUMPI RETURNDATASIZE PUSH1 0x0 DUP1 RETURNDATACOPY RETURNDATASIZE PUSH1 0x0 REVERT JUMPDEST POP POP POP POP PUSH1 0x40 MLOAD RETURNDATASIZE PUSH1 0x1F NOT PUSH1 0x1F DUP3 ADD AND DUP3 ADD DUP1 PUSH1 0x40 MSTORE POP DUP2 ADD SWAP1 PUSH2 0x65F SWAP2 SWAP1 PUSH2 0x737 JUMP JUMPDEST SWAP1 POP POP JUMP JUMPDEST PUSH1 0x0 PUSH2 0x677 PUSH2 0x672 DUP5 PUSH2 0x8BD JUMP JUMPDEST PUSH2 0x88C JUMP JUMPDEST SWAP1 POP DUP3 DUP2 MSTORE PUSH1 0x20 DUP2 ADD DUP5 DUP5 DUP5 ADD GT ISZERO PUSH2 0x68F JUMPI PUSH1 0x0 DUP1 REVERT JUMPDEST PUSH2 0x69A DUP5 DUP3 DUP6 PUSH2 0x964 JUMP JUMPDEST POP SWAP4 SWAP3 POP POP POP JUMP JUMPDEST PUSH1 0x0 DUP3 PUSH1 0x1F DUP4 ADD SLT PUSH2 0x6B3 JUMPI PUSH1 0x0 DUP1 REVERT JUMPDEST DUP2 MLOAD PUSH2 0x6C3 DUP5 DUP3 PUSH1 0x20 DUP7 ADD PUSH2 0x664 JUMP JUMPDEST SWAP2 POP POP SWAP3 SWAP2 POP POP JUMP JUMPDEST PUSH1 0x0 DUP2 MLOAD SWAP1 POP PUSH2 0x6DB DUP2 PUSH2 0x9D7 JUMP JUMPDEST SWAP3 SWAP2 POP POP JUMP JUMPDEST PUSH1 0x0 DUP2 MLOAD SWAP1 POP PUSH2 0x6F0 DUP2 PUSH2 0x9EE JUMP JUMPDEST SWAP3 SWAP2 POP POP JUMP JUMPDEST PUSH1 0x0 PUSH1 0x20 DUP3 DUP5 SUB SLT ISZERO PUSH2 0x708 JUMPI PUSH1 0x0 DUP1 REVERT JUMPDEST PUSH1 0x0 DUP3 ADD MLOAD PUSH8 0xFFFFFFFFFFFFFFFF DUP2 GT ISZERO PUSH2 0x722 JUMPI PUSH1 0x0 DUP1 REVERT JUMPDEST PUSH2 0x72E DUP5 DUP3 DUP6 ADD PUSH2 0x6A2 JUMP JUMPDEST SWAP2 POP POP SWAP3 SWAP2 POP POP JUMP JUMPDEST PUSH1 0x0 PUSH1 0x20 DUP3 DUP5 SUB SLT ISZERO PUSH2 0x749 JUMPI PUSH1 0x0 DUP1 REVERT JUMPDEST PUSH1 0x0 PUSH2 0x757 DUP5 DUP3 DUP6 ADD PUSH2 0x6CC JUMP JUMPDEST SWAP2 POP POP SWAP3 SWAP2 POP POP JUMP JUMPDEST PUSH1 0x0 PUSH1 0x20 DUP3 DUP5 SUB SLT ISZERO PUSH2 0x772 JUMPI PUSH1 0x0 DUP1 REVERT JUMPDEST PUSH1 0x0 PUSH2 0x780 DUP5 DUP3 DUP6 ADD PUSH2 0x6E1 JUMP JUMPDEST SWAP2 POP POP SWAP3 SWAP2 POP POP JUMP JUMPDEST PUSH2 0x792 DUP2 PUSH2 0x909 JUMP JUMPDEST DUP3 MSTORE POP POP JUMP JUMPDEST PUSH2 0x7A1 DUP2 PUSH2 0x952 JUMP JUMPDEST DUP3 MSTORE POP POP JUMP JUMPDEST PUSH1 0x0 PUSH2 0x7B2 DUP3 PUSH2 0x8ED JUMP JUMPDEST PUSH2 0x7BC DUP2 DUP6 PUSH2 0x8F8 JUMP JUMPDEST SWAP4 POP PUSH2 0x7CC DUP2 DUP6 PUSH1 0x20 DUP7 ADD PUSH2 0x964 JUMP JUMPDEST PUSH2 0x7D5 DUP2 PUSH2 0x9C6 JUMP JUMPDEST DUP5 ADD SWAP2 POP POP SWAP3 SWAP2 POP POP JUMP JUMPDEST PUSH2 0x7E9 DUP2 PUSH2 0x93B JUMP JUMPDEST DUP3 MSTORE POP POP JUMP JUMPDEST PUSH2 0x7F8 DUP2 PUSH2 0x945 JUMP JUMPDEST DUP3 MSTORE POP POP JUMP JUMPDEST PUSH1 0x0 PUSH1 0x20 DUP3 ADD SWAP1 POP PUSH2 0x813 PUSH1 0x0 DUP4 ADD DUP5 PUSH2 0x789 JUMP JUMPDEST SWAP3 SWAP2 POP POP JUMP JUMPDEST PUSH1 0x0 PUSH1 0x20 DUP3 ADD SWAP1 POP PUSH2 0x82E PUSH1 0x0 DUP4 ADD DUP5 PUSH2 0x798 JUMP JUMPDEST SWAP3 SWAP2 POP POP JUMP JUMPDEST PUSH1 0x0 PUSH1 0x20 DUP3 ADD SWAP1 POP DUP2 DUP2 SUB PUSH1 0x0 DUP4 ADD MSTORE PUSH2 0x84E DUP2 DUP5 PUSH2 0x7A7 JUMP JUMPDEST SWAP1 POP SWAP3 SWAP2 POP POP JUMP JUMPDEST PUSH1 0x0 PUSH1 0x20 DUP3 ADD SWAP1 POP PUSH2 0x86B PUSH1 0x0 DUP4 ADD DUP5 PUSH2 0x7E0 JUMP JUMPDEST SWAP3 SWAP2 POP POP JUMP JUMPDEST PUSH1 0x0 PUSH1 0x20 DUP3 ADD SWAP1 POP PUSH2 0x886 PUSH1 0x0 DUP4 ADD DUP5 PUSH2 0x7EF JUMP JUMPDEST SWAP3 SWAP2 POP POP JUMP JUMPDEST PUSH1 0x0 PUSH1 0x40 MLOAD SWAP1 POP DUP2 DUP2 ADD DUP2 DUP2 LT PUSH8 0xFFFFFFFFFFFFFFFF DUP3 GT OR ISZERO PUSH2 0x8B3 JUMPI PUSH2 0x8B2 PUSH2 0x997 JUMP JUMPDEST JUMPDEST DUP1 PUSH1 0x40 MSTORE POP SWAP2 SWAP1 POP JUMP JUMPDEST PUSH1 0x0 PUSH8 0xFFFFFFFFFFFFFFFF DUP3 GT ISZERO PUSH2 0x8D8 JUMPI PUSH2 0x8D7 PUSH2 0x997 JUMP JUMPDEST JUMPDEST PUSH1 0x1F NOT PUSH1 0x1F DUP4 ADD AND SWAP1 POP PUSH1 0x20 DUP2 ADD SWAP1 POP SWAP2 SWAP1 POP JUMP JUMPDEST PUSH1 0x0 DUP2 MLOAD SWAP1 POP SWAP2 SWAP1 POP JUMP JUMPDEST PUSH1 0x0 DUP3 DUP3 MSTORE PUSH1 0x20 DUP3 ADD SWAP1 POP SWAP3 SWAP2 POP POP JUMP JUMPDEST PUSH1 0x0 PUSH2 0x914 DUP3 PUSH2 0x91B JUMP JUMPDEST SWAP1 POP SWAP2 SWAP1 POP JUMP JUMPDEST PUSH1 0x0 PUSH20 0xFFFFFFFFFFFFFFFFFFFFFFFFFFFFFFFFFFFFFFFF DUP3 AND SWAP1 POP SWAP2 SWAP1 POP JUMP JUMPDEST PUSH1 0x0 DUP2 SWAP1 POP SWAP2 SWAP1 POP JUMP JUMPDEST PUSH1 0x0 PUSH1 0xFF DUP3 AND SWAP1 POP SWAP2 SWAP1 POP JUMP JUMPDEST PUSH1 0x0 PUSH2 0x95D DUP3 PUSH2 0x93B JUMP JUMPDEST SWAP1 POP SWAP2 SWAP1 POP JUMP JUMPDEST PUSH1 0x0 JUMPDEST DUP4 DUP2 LT ISZERO PUSH2 0x982 JUMPI DUP1 DUP3 ADD MLOAD DUP2 DUP5 ADD MSTORE PUSH1 0x20 DUP2 ADD SWAP1 POP PUSH2 0x967 JUMP JUMPDEST DUP4 DUP2 GT ISZERO PUSH2 0x991 JUMPI PUSH1 0x0 DUP5 DUP5 ADD MSTORE JUMPDEST POP POP POP POP JUMP JUMPDEST PUSH32 0x4E487B7100000000000000000000000000000000000000000000000000000000 PUSH1 0x0 MSTORE PUSH1 0x41 PUSH1 0x4 MSTORE PUSH1 0x24 PUSH1 0x0 REVERT JUMPDEST PUSH1 0x0 PUSH1 0x1F NOT PUSH1 0x1F DUP4 ADD AND SWAP1 POP SWAP2 SWAP1 POP JUMP JUMPDEST PUSH2 0x9E0 DUP2 PUSH2 0x93B JUMP JUMPDEST DUP2 EQ PUSH2 0x9EB JUMPI PUSH1 0x0 DUP1 REVERT JUMPDEST POP JUMP JUMPDEST PUSH2 0x9F7 DUP2 PUSH2 0x945 JUMP JUMPDEST DUP2 EQ PUSH2 0xA02 JUMPI PUSH1 0x0 DUP1 REVERT JUMPDEST POP JUMP INVALID LOG2 PUSH5 0x6970667358 0x22 SLT KECCAK256 LOG2 LOG2 0xD1 CALLER 0x4C 0xE1 0x2B 0xDC 0xEF PUSH20 0x98F5E8B1CB7D9562391F32E9638177898D324304 PUSH9 0xF564736F6C63430008 STOP STOP CALLER PUSH1 0x80 PUSH1 0x40 MSTORE PUSH1 0x40 MLOAD PUSH3 0x1DCF CODESIZE SUB DUP1 PUSH3 0x1DCF DUP4 CODECOPY DUP2 DUP2 ADD PUSH1 0x40 MSTORE DUP2 ADD SWAP1 PUSH3 0x29 SWAP2 SWAP1 PUSH3 0x458 JUMP JUMPDEST DUP6 PUSH1 0x3 SWAP1 DUP1 MLOAD SWAP1 PUSH1 0x20 ADD SWAP1 PUSH3 0x41 SWAP3 SWAP2 SWAP1 PUSH3 0x2DA JUMP JUMPDEST POP DUP5 PUSH1 0x4 SWAP1 DUP1 MLOAD SWAP1 PUSH1 0x20 ADD SWAP1 PUSH3 0x5A SWAP3 SWAP2 SWAP1 PUSH3 0x2DA JUMP JUMPDEST POP DUP4 PUSH1 0x5 PUSH1 0x0 PUSH2 0x100 EXP DUP2 SLOAD DUP2 PUSH1 0xFF MUL NOT AND SWAP1 DUP4 PUSH1 0xFF AND MUL OR SWAP1 SSTORE POP PUSH3 0x88 DUP2 DUP5 PUSH3 0xDC PUSH1 0x20 SHL PUSH1 0x20 SHR JUMP JUMPDEST DUP2 PUSH20 0xFFFFFFFFFFFFFFFFFFFFFFFFFFFFFFFFFFFFFFFF AND PUSH2 0x8FC CALLVALUE SWAP1 DUP2 ISZERO MUL SWAP1 PUSH1 0x40 MLOAD PUSH1 0x0 PUSH1 0x40 MLOAD DUP1 DUP4 SUB DUP2 DUP6 DUP9 DUP9 CALL SWAP4 POP POP POP POP ISZERO DUP1 ISZERO PUSH3 0xCF JUMPI RETURNDATASIZE PUSH1 0x0 DUP1 RETURNDATACOPY RETURNDATASIZE PUSH1 0x0 REVERT JUMPDEST POP POP POP POP POP POP POP PUSH3 0x8AB JUMP JUMPDEST PUSH1 0x0 PUSH20 0xFFFFFFFFFFFFFFFFFFFFFFFFFFFFFFFFFFFFFFFF AND DUP3 PUSH20 0xFFFFFFFFFFFFFFFFFFFFFFFFFFFFFFFFFFFFFFFF AND EQ ISZERO PUSH3 0x14F JUMPI PUSH1 0x40 MLOAD PUSH32 0x8C379A000000000000000000000000000000000000000000000000000000000 DUP2 MSTORE PUSH1 0x4 ADD PUSH3 0x146 SWAP1 PUSH3 0x5D7 JUMP JUMPDEST PUSH1 0x40 MLOAD DUP1 SWAP2 SUB SWAP1 REVERT JUMPDEST PUSH3 0x16B DUP2 PUSH1 0x2 SLOAD PUSH3 0x277 PUSH1 0x20 SHL PUSH3 0x6E7 OR SWAP1 SWAP2 SWAP1 PUSH1 0x20 SHR JUMP JUMPDEST PUSH1 0x2 DUP2 SWAP1 SSTORE POP PUSH3 0x1C9 DUP2 PUSH1 0x0 DUP1 DUP6 PUSH20 0xFFFFFFFFFFFFFFFFFFFFFFFFFFFFFFFFFFFFFFFF AND PUSH20 0xFFFFFFFFFFFFFFFFFFFFFFFFFFFFFFFFFFFFFFFF AND DUP2 MSTORE PUSH1 0x20 ADD SWAP1 DUP2 MSTORE PUSH1 0x20 ADD PUSH1 0x0 KECCAK256 SLOAD PUSH3 0x277 PUSH1 0x20 SHL PUSH3 0x6E7 OR SWAP1 SWAP2 SWAP1 PUSH1 0x20 SHR JUMP JUMPDEST PUSH1 0x0 DUP1 DUP5 PUSH20 0xFFFFFFFFFFFFFFFFFFFFFFFFFFFFFFFFFFFFFFFF AND PUSH20 0xFFFFFFFFFFFFFFFFFFFFFFFFFFFFFFFFFFFFFFFF AND DUP2 MSTORE PUSH1 0x20 ADD SWAP1 DUP2 MSTORE PUSH1 0x20 ADD PUSH1 0x0 KECCAK256 DUP2 SWAP1 SSTORE POP DUP2 PUSH20 0xFFFFFFFFFFFFFFFFFFFFFFFFFFFFFFFFFFFFFFFF AND PUSH1 0x0 PUSH20 0xFFFFFFFFFFFFFFFFFFFFFFFFFFFFFFFFFFFFFFFF AND PUSH32 0xDDF252AD1BE2C89B69C2B068FC378DAA952BA7F163C4A11628F55A4DF523B3EF DUP4 PUSH1 0x40 MLOAD PUSH3 0x26B SWAP2 SWAP1 PUSH3 0x5F9 JUMP JUMPDEST PUSH1 0x40 MLOAD DUP1 SWAP2 SUB SWAP1 LOG3 POP POP JUMP JUMPDEST PUSH1 0x0 DUP1 DUP3 DUP5 PUSH3 0x288 SWAP2 SWAP1 PUSH3 0x68E JUMP JUMPDEST SWAP1 POP DUP4 DUP2 LT ISZERO PUSH3 0x2D0 JUMPI PUSH1 0x40 MLOAD PUSH32 0x8C379A000000000000000000000000000000000000000000000000000000000 DUP2 MSTORE PUSH1 0x4 ADD PUSH3 0x2C7 SWAP1 PUSH3 0x5B5 JUMP JUMPDEST PUSH1 0x40 MLOAD DUP1 SWAP2 SUB SWAP1 REVERT JUMPDEST DUP1 SWAP2 POP POP SWAP3 SWAP2 POP POP JUMP JUMPDEST DUP3 DUP1 SLOAD PUSH3 0x2E8 SWAP1 PUSH3 0x780 JUMP JUMPDEST SWAP1 PUSH1 0x0 MSTORE PUSH1 0x20 PUSH1 0x0 KECCAK256 SWAP1 PUSH1 0x1F ADD PUSH1 0x20 SWAP1 DIV DUP2 ADD SWAP3 DUP3 PUSH3 0x30C JUMPI PUSH1 0x0 DUP6 SSTORE PUSH3 0x358 JUMP JUMPDEST DUP3 PUSH1 0x1F LT PUSH3 0x327 JUMPI DUP1 MLOAD PUSH1 0xFF NOT AND DUP4 DUP1 ADD OR DUP6 SSTORE PUSH3 0x358 JUMP JUMPDEST DUP3 DUP1 ADD PUSH1 0x1 ADD DUP6 SSTORE DUP3 ISZERO PUSH3 0x358 JUMPI SWAP2 DUP3 ADD JUMPDEST DUP3 DUP2 GT ISZERO PUSH3 0x357 JUMPI DUP3 MLOAD DUP3 SSTORE SWAP2 PUSH1 0x20 ADD SWAP2 SWAP1 PUSH1 0x1 ADD SWAP1 PUSH3 0x33A JUMP JUMPDEST JUMPDEST POP SWAP1 POP PUSH3 0x367 SWAP2 SWAP1 PUSH3 0x36B JUMP JUMPDEST POP SWAP1 JUMP JUMPDEST JUMPDEST DUP1 DUP3 GT ISZERO PUSH3 0x386 JUMPI PUSH1 0x0 DUP2 PUSH1 0x0 SWAP1 SSTORE POP PUSH1 0x1 ADD PUSH3 0x36C JUMP JUMPDEST POP SWAP1 JUMP JUMPDEST PUSH1 0x0 PUSH3 0x3A1 PUSH3 0x39B DUP5 PUSH3 0x64A JUMP JUMPDEST PUSH3 0x616 JUMP JUMPDEST SWAP1 POP DUP3 DUP2 MSTORE PUSH1 0x20 DUP2 ADD DUP5 DUP5 DUP5 ADD GT ISZERO PUSH3 0x3BA JUMPI PUSH1 0x0 DUP1 REVERT JUMPDEST PUSH3 0x3C7 DUP5 DUP3 DUP6 PUSH3 0x74A JUMP JUMPDEST POP SWAP4 SWAP3 POP POP POP JUMP JUMPDEST PUSH1 0x0 DUP2 MLOAD SWAP1 POP PUSH3 0x3E0 DUP2 PUSH3 0x843 JUMP JUMPDEST SWAP3 SWAP2 POP POP JUMP JUMPDEST PUSH1 0x0 DUP2 MLOAD SWAP1 POP PUSH3 0x3F7 DUP2 PUSH3 0x85D JUMP JUMPDEST SWAP3 SWAP2 POP POP JUMP JUMPDEST PUSH1 0x0 DUP3 PUSH1 0x1F DUP4 ADD SLT PUSH3 0x40F JUMPI PUSH1 0x0 DUP1 REVERT JUMPDEST DUP2 MLOAD PUSH3 0x421 DUP5 DUP3 PUSH1 0x20 DUP7 ADD PUSH3 0x38A JUMP JUMPDEST SWAP2 POP POP SWAP3 SWAP2 POP POP JUMP JUMPDEST PUSH1 0x0 DUP2 MLOAD SWAP1 POP PUSH3 0x43B DUP2 PUSH3 0x877 JUMP JUMPDEST SWAP3 SWAP2 POP POP JUMP JUMPDEST PUSH1 0x0 DUP2 MLOAD SWAP1 POP PUSH3 0x452 DUP2 PUSH3 0x891 JUMP JUMPDEST SWAP3 SWAP2 POP POP JUMP JUMPDEST PUSH1 0x0 DUP1 PUSH1 0x0 DUP1 PUSH1 0x0 DUP1 PUSH1 0xC0 DUP8 DUP10 SUB SLT ISZERO PUSH3 0x472 JUMPI PUSH1 0x0 DUP1 REVERT JUMPDEST PUSH1 0x0 DUP8 ADD MLOAD PUSH8 0xFFFFFFFFFFFFFFFF DUP2 GT ISZERO PUSH3 0x48D JUMPI PUSH1 0x0 DUP1 REVERT JUMPDEST PUSH3 0x49B DUP10 DUP3 DUP11 ADD PUSH3 0x3FD JUMP JUMPDEST SWAP7 POP POP PUSH1 0x20 DUP8 ADD MLOAD PUSH8 0xFFFFFFFFFFFFFFFF DUP2 GT ISZERO PUSH3 0x4B9 JUMPI PUSH1 0x0 DUP1 REVERT JUMPDEST PUSH3 0x4C7 DUP10 DUP3 DUP11 ADD PUSH3 0x3FD JUMP JUMPDEST SWAP6 POP POP PUSH1 0x40 PUSH3 0x4DA DUP10 DUP3 DUP11 ADD PUSH3 0x441 JUMP JUMPDEST SWAP5 POP POP PUSH1 0x60 PUSH3 0x4ED DUP10 DUP3 DUP11 ADD PUSH3 0x42A JUMP JUMPDEST SWAP4 POP POP PUSH1 0x80 PUSH3 0x500 DUP10 DUP3 DUP11 ADD PUSH3 0x3E6 JUMP JUMPDEST SWAP3 POP POP PUSH1 0xA0 PUSH3 0x513 DUP10 DUP3 DUP11 ADD PUSH3 0x3CF JUMP JUMPDEST SWAP2 POP POP SWAP3 SWAP6 POP SWAP3 SWAP6 POP SWAP3 SWAP6 JUMP JUMPDEST PUSH1 0x0 PUSH3 0x52F PUSH1 0x1B DUP4 PUSH3 0x67D JUMP JUMPDEST SWAP2 POP PUSH32 0x536166654D6174683A206164646974696F6E206F766572666C6F770000000000 PUSH1 0x0 DUP4 ADD MSTORE PUSH1 0x20 DUP3 ADD SWAP1 POP SWAP2 SWAP1 POP JUMP JUMPDEST PUSH1 0x0 PUSH3 0x571 PUSH1 0x1F DUP4 PUSH3 0x67D JUMP JUMPDEST SWAP2 POP PUSH32 0x45524332303A206D696E7420746F20746865207A65726F206164647265737300 PUSH1 0x0 DUP4 ADD MSTORE PUSH1 0x20 DUP3 ADD SWAP1 POP SWAP2 SWAP1 POP JUMP JUMPDEST PUSH3 0x5AF DUP2 PUSH3 0x733 JUMP JUMPDEST DUP3 MSTORE POP POP JUMP JUMPDEST PUSH1 0x0 PUSH1 0x20 DUP3 ADD SWAP1 POP DUP2 DUP2 SUB PUSH1 0x0 DUP4 ADD MSTORE PUSH3 0x5D0 DUP2 PUSH3 0x520 JUMP JUMPDEST SWAP1 POP SWAP2 SWAP1 POP JUMP JUMPDEST PUSH1 0x0 PUSH1 0x20 DUP3 ADD SWAP1 POP DUP2 DUP2 SUB PUSH1 0x0 DUP4 ADD MSTORE PUSH3 0x5F2 DUP2 PUSH3 0x562 JUMP JUMPDEST SWAP1 POP SWAP2 SWAP1 POP JUMP JUMPDEST PUSH1 0x0 PUSH1 0x20 DUP3 ADD SWAP1 POP PUSH3 0x610 PUSH1 0x0 DUP4 ADD DUP5 PUSH3 0x5A4 JUMP JUMPDEST SWAP3 SWAP2 POP POP JUMP JUMPDEST PUSH1 0x0 PUSH1 0x40 MLOAD SWAP1 POP DUP2 DUP2 ADD DUP2 DUP2 LT PUSH8 0xFFFFFFFFFFFFFFFF DUP3 GT OR ISZERO PUSH3 0x640 JUMPI PUSH3 0x63F PUSH3 0x814 JUMP JUMPDEST JUMPDEST DUP1 PUSH1 0x40 MSTORE POP SWAP2 SWAP1 POP JUMP JUMPDEST PUSH1 0x0 PUSH8 0xFFFFFFFFFFFFFFFF DUP3 GT ISZERO PUSH3 0x668 JUMPI PUSH3 0x667 PUSH3 0x814 JUMP JUMPDEST JUMPDEST PUSH1 0x1F NOT PUSH1 0x1F DUP4 ADD AND SWAP1 POP PUSH1 0x20 DUP2 ADD SWAP1 POP SWAP2 SWAP1 POP JUMP JUMPDEST PUSH1 0x0 DUP3 DUP3 MSTORE PUSH1 0x20 DUP3 ADD SWAP1 POP SWAP3 SWAP2 POP POP JUMP JUMPDEST PUSH1 0x0 PUSH3 0x69B DUP3 PUSH3 0x733 JUMP JUMPDEST SWAP2 POP PUSH3 0x6A8 DUP4 PUSH3 0x733 JUMP JUMPDEST SWAP3 POP DUP3 PUSH32 0xFFFFFFFFFFFFFFFFFFFFFFFFFFFFFFFFFFFFFFFFFFFFFFFFFFFFFFFFFFFFFFFF SUB DUP3 GT ISZERO PUSH3 0x6E0 JUMPI PUSH3 0x6DF PUSH3 0x7B6 JUMP JUMPDEST JUMPDEST DUP3 DUP3 ADD SWAP1 POP SWAP3 SWAP2 POP POP JUMP JUMPDEST PUSH1 0x0 PUSH3 0x6F8 DUP3 PUSH3 0x713 JUMP JUMPDEST SWAP1 POP SWAP2 SWAP1 POP JUMP JUMPDEST PUSH1 0x0 PUSH3 0x70C DUP3 PUSH3 0x713 JUMP JUMPDEST SWAP1 POP SWAP2 SWAP1 POP JUMP JUMPDEST PUSH1 0x0 PUSH20 0xFFFFFFFFFFFFFFFFFFFFFFFFFFFFFFFFFFFFFFFF DUP3 AND SWAP1 POP SWAP2 SWAP1 POP JUMP JUMPDEST PUSH1 0x0 DUP2 SWAP1 POP SWAP2 SWAP1 POP JUMP JUMPDEST PUSH1 0x0 PUSH1 0xFF DUP3 AND SWAP1 POP SWAP2 SWAP1 POP JUMP JUMPDEST PUSH1 0x0 JUMPDEST DUP4 DUP2 LT ISZERO PUSH3 0x76A JUMPI DUP1 DUP3 ADD MLOAD DUP2 DUP5 ADD MSTORE PUSH1 0x20 DUP2 ADD SWAP1 POP PUSH3 0x74D JUMP JUMPDEST DUP4 DUP2 GT ISZERO PUSH3 0x77A JUMPI PUSH1 0x0 DUP5 DUP5 ADD MSTORE JUMPDEST POP POP POP POP JUMP JUMPDEST PUSH1 0x0 PUSH1 0x2 DUP3 DIV SWAP1 POP PUSH1 0x1 DUP3 AND DUP1 PUSH3 0x799 JUMPI PUSH1 0x7F DUP3 AND SWAP2 POP JUMPDEST PUSH1 0x20 DUP3 LT DUP2 EQ ISZERO PUSH3 0x7B0 JUMPI PUSH3 0x7AF PUSH3 0x7E5 JUMP JUMPDEST JUMPDEST POP SWAP2 SWAP1 POP JUMP JUMPDEST PUSH32 0x4E487B7100000000000000000000000000000000000000000000000000000000 PUSH1 0x0 MSTORE PUSH1 0x11 PUSH1 0x4 MSTORE PUSH1 0x24 PUSH1 0x0 REVERT JUMPDEST PUSH32 0x4E487B7100000000000000000000000000000000000000000000000000000000 PUSH1 0x0 MSTORE PUSH1 0x22 PUSH1 0x4 MSTORE PUSH1 0x24 PUSH1 0x0 REVERT JUMPDEST PUSH32 0x4E487B7100000000000000000000000000000000000000000000000000000000 PUSH1 0x0 MSTORE PUSH1 0x41 PUSH1 0x4 MSTORE PUSH1 0x24 PUSH1 0x0 REVERT JUMPDEST PUSH3 0x84E DUP2 PUSH3 0x6EB JUMP JUMPDEST DUP2 EQ PUSH3 0x85A JUMPI PUSH1 0x0 DUP1 REVERT JUMPDEST POP JUMP JUMPDEST PUSH3 0x868 DUP2 PUSH3 0x6FF JUMP JUMPDEST DUP2 EQ PUSH3 0x874 JUMPI PUSH1 0x0 DUP1 REVERT JUMPDEST POP JUMP JUMPDEST PUSH3 0x882 DUP2 PUSH3 0x733 JUMP JUMPDEST DUP2 EQ PUSH3 0x88E JUMPI PUSH1 0x0 DUP1 REVERT JUMPDEST POP JUMP JUMPDEST PUSH3 0x89C DUP2 PUSH3 0x73D JUMP JUMPDEST DUP2 EQ PUSH3 0x8A8 JUMPI PUSH1 0x0 DUP1 REVERT JUMPDEST POP JUMP JUMPDEST PUSH2 0x1514 DUP1 PUSH3 0x8BB PUSH1 0x0 CODECOPY PUSH1 0x0 RETURN INVALID PUSH1 0x80 PUSH1 0x40 MSTORE CALLVALUE DUP1 ISZERO PUSH2 0x10 JUMPI PUSH1 0x0 DUP1 REVERT JUMPDEST POP PUSH1 0x4 CALLDATASIZE LT PUSH2 0xB4 JUMPI PUSH1 0x0 CALLDATALOAD PUSH1 0xE0 SHR DUP1 PUSH4 0x42966C68 GT PUSH2 0x71 JUMPI DUP1 PUSH4 0x42966C68 EQ PUSH2 0x1A3 JUMPI DUP1 PUSH4 0x70A08231 EQ PUSH2 0x1BF JUMPI DUP1 PUSH4 0xA457C2D7 EQ PUSH2 0x1EF JUMPI DUP1 PUSH4 0xA9059CBB EQ PUSH2 0x21F JUMPI DUP1 PUSH4 0xDD62ED3E EQ PUSH2 0x24F JUMPI DUP1 PUSH4 0xF0141D84 EQ PUSH2 0x27F JUMPI PUSH2 0xB4 JUMP JUMPDEST DUP1 PUSH4 0x95EA7B3 EQ PUSH2 0xB9 JUMPI DUP1 PUSH4 0x15070401 EQ PUSH2 0xE9 JUMPI DUP1 PUSH4 0x17D7DE7C EQ PUSH2 0x107 JUMPI DUP1 PUSH4 0x18160DDD EQ PUSH2 0x125 JUMPI DUP1 PUSH4 0x23B872DD EQ PUSH2 0x143 JUMPI DUP1 PUSH4 0x39509351 EQ PUSH2 0x173 JUMPI JUMPDEST PUSH1 0x0 DUP1 REVERT JUMPDEST PUSH2 0xD3 PUSH1 0x4 DUP1 CALLDATASIZE SUB DUP2 ADD SWAP1 PUSH2 0xCE SWAP2 SWAP1 PUSH2 0xE45 JUMP JUMPDEST PUSH2 0x29D JUMP JUMPDEST PUSH1 0x40 MLOAD PUSH2 0xE0 SWAP2 SWAP1 PUSH2 0x118E JUMP JUMPDEST PUSH1 0x40 MLOAD DUP1 SWAP2 SUB SWAP1 RETURN JUMPDEST PUSH2 0xF1 PUSH2 0x2B4 JUMP JUMPDEST PUSH1 0x40 MLOAD PUSH2 0xFE SWAP2 SWAP1 PUSH2 0x11A9 JUMP JUMPDEST PUSH1 0x40 MLOAD DUP1 SWAP2 SUB SWAP1 RETURN JUMPDEST PUSH2 0x10F PUSH2 0x346 JUMP JUMPDEST PUSH1 0x40 MLOAD PUSH2 0x11C SWAP2 SWAP1 PUSH2 0x11A9 JUMP JUMPDEST PUSH1 0x40 MLOAD DUP1 SWAP2 SUB SWAP1 RETURN JUMPDEST PUSH2 0x12D PUSH2 0x3D8 JUMP JUMPDEST PUSH1 0x40 MLOAD PUSH2 0x13A SWAP2 SWAP1 PUSH2 0x12AB JUMP JUMPDEST PUSH1 0x40 MLOAD DUP1 SWAP2 SUB SWAP1 RETURN JUMPDEST PUSH2 0x15D PUSH1 0x4 DUP1 CALLDATASIZE SUB DUP2 ADD SWAP1 PUSH2 0x158 SWAP2 SWAP1 PUSH2 0xDF6 JUMP JUMPDEST PUSH2 0x3E2 JUMP JUMPDEST PUSH1 0x40 MLOAD PUSH2 0x16A SWAP2 SWAP1 PUSH2 0x118E JUMP JUMPDEST PUSH1 0x40 MLOAD DUP1 SWAP2 SUB SWAP1 RETURN JUMPDEST PUSH2 0x18D PUSH1 0x4 DUP1 CALLDATASIZE SUB DUP2 ADD SWAP1 PUSH2 0x188 SWAP2 SWAP1 PUSH2 0xE45 JUMP JUMPDEST PUSH2 0x493 JUMP JUMPDEST PUSH1 0x40 MLOAD PUSH2 0x19A SWAP2 SWAP1 PUSH2 0x118E JUMP JUMPDEST PUSH1 0x40 MLOAD DUP1 SWAP2 SUB SWAP1 RETURN JUMPDEST PUSH2 0x1BD PUSH1 0x4 DUP1 CALLDATASIZE SUB DUP2 ADD SWAP1 PUSH2 0x1B8 SWAP2 SWAP1 PUSH2 0xE81 JUMP JUMPDEST PUSH2 0x538 JUMP JUMPDEST STOP JUMPDEST PUSH2 0x1D9 PUSH1 0x4 DUP1 CALLDATASIZE SUB DUP2 ADD SWAP1 PUSH2 0x1D4 SWAP2 SWAP1 PUSH2 0xD91 JUMP JUMPDEST PUSH2 0x545 JUMP JUMPDEST PUSH1 0x40 MLOAD PUSH2 0x1E6 SWAP2 SWAP1 PUSH2 0x12AB JUMP JUMPDEST PUSH1 0x40 MLOAD DUP1 SWAP2 SUB SWAP1 RETURN JUMPDEST PUSH2 0x209 PUSH1 0x4 DUP1 CALLDATASIZE SUB DUP2 ADD SWAP1 PUSH2 0x204 SWAP2 SWAP1 PUSH2 0xE45 JUMP JUMPDEST PUSH2 0x58D JUMP JUMPDEST PUSH1 0x40 MLOAD PUSH2 0x216 SWAP2 SWAP1 PUSH2 0x118E JUMP JUMPDEST PUSH1 0x40 MLOAD DUP1 SWAP2 SUB SWAP1 RETURN JUMPDEST PUSH2 0x239 PUSH1 0x4 DUP1 CALLDATASIZE SUB DUP2 ADD SWAP1 PUSH2 0x234 SWAP2 SWAP1 PUSH2 0xE45 JUMP JUMPDEST PUSH2 0x632 JUMP JUMPDEST PUSH1 0x40 MLOAD PUSH2 0x246 SWAP2 SWAP1 PUSH2 0x118E JUMP JUMPDEST PUSH1 0x40 MLOAD DUP1 SWAP2 SUB SWAP1 RETURN JUMPDEST PUSH2 0x269 PUSH1 0x4 DUP1 CALLDATASIZE SUB DUP2 ADD SWAP1 PUSH2 0x264 SWAP2 SWAP1 PUSH2 0xDBA JUMP JUMPDEST PUSH2 0x649 JUMP JUMPDEST PUSH1 0x40 MLOAD PUSH2 0x276 SWAP2 SWAP1 PUSH2 0x12AB JUMP JUMPDEST PUSH1 0x40 MLOAD DUP1 SWAP2 SUB SWAP1 RETURN JUMPDEST PUSH2 0x287 PUSH2 0x6D0 JUMP JUMPDEST PUSH1 0x40 MLOAD PUSH2 0x294 SWAP2 SWAP1 PUSH2 0x12C6 JUMP JUMPDEST PUSH1 0x40 MLOAD DUP1 SWAP2 SUB SWAP1 RETURN JUMPDEST PUSH1 0x0 PUSH2 0x2AA CALLER DUP5 DUP5 PUSH2 0x745 JUMP JUMPDEST PUSH1 0x1 SWAP1 POP SWAP3 SWAP2 POP POP JUMP JUMPDEST PUSH1 0x60 PUSH1 0x4 DUP1 SLOAD PUSH2 0x2C3 SWAP1 PUSH2 0x140F JUMP JUMPDEST DUP1 PUSH1 0x1F ADD PUSH1 0x20 DUP1 SWAP2 DIV MUL PUSH1 0x20 ADD PUSH1 0x40 MLOAD SWAP1 DUP2 ADD PUSH1 0x40 MSTORE DUP1 SWAP3 SWAP2 SWAP1 DUP2 DUP2 MSTORE PUSH1 0x20 ADD DUP3 DUP1 SLOAD PUSH2 0x2EF SWAP1 PUSH2 0x140F JUMP JUMPDEST DUP1 ISZERO PUSH2 0x33C JUMPI DUP1 PUSH1 0x1F LT PUSH2 0x311 JUMPI PUSH2 0x100 DUP1 DUP4 SLOAD DIV MUL DUP4 MSTORE SWAP2 PUSH1 0x20 ADD SWAP2 PUSH2 0x33C JUMP JUMPDEST DUP3 ADD SWAP2 SWAP1 PUSH1 0x0 MSTORE PUSH1 0x20 PUSH1 0x0 KECCAK256 SWAP1 JUMPDEST DUP2 SLOAD DUP2 MSTORE SWAP1 PUSH1 0x1 ADD SWAP1 PUSH1 0x20 ADD DUP1 DUP4 GT PUSH2 0x31F JUMPI DUP3 SWAP1 SUB PUSH1 0x1F AND DUP3 ADD SWAP2 JUMPDEST POP POP POP POP POP SWAP1 POP SWAP1 JUMP JUMPDEST PUSH1 0x60 PUSH1 0x3 DUP1 SLOAD PUSH2 0x355 SWAP1 PUSH2 0x140F JUMP JUMPDEST DUP1 PUSH1 0x1F ADD PUSH1 0x20 DUP1 SWAP2 DIV MUL PUSH1 0x20 ADD PUSH1 0x40 MLOAD SWAP1 DUP2 ADD PUSH1 0x40 MSTORE DUP1 SWAP3 SWAP2 SWAP1 DUP2 DUP2 MSTORE PUSH1 0x20 ADD DUP3 DUP1 SLOAD PUSH2 0x381 SWAP1 PUSH2 0x140F JUMP JUMPDEST DUP1 ISZERO PUSH2 0x3CE JUMPI DUP1 PUSH1 0x1F LT PUSH2 0x3A3 JUMPI PUSH2 0x100 DUP1 DUP4 SLOAD DIV MUL DUP4 MSTORE SWAP2 PUSH1 0x20 ADD SWAP2 PUSH2 0x3CE JUMP JUMPDEST DUP3 ADD SWAP2 SWAP1 PUSH1 0x0 MSTORE PUSH1 0x20 PUSH1 0x0 KECCAK256 SWAP1 JUMPDEST DUP2 SLOAD DUP2 MSTORE SWAP1 PUSH1 0x1 ADD SWAP1 PUSH1 0x20 ADD DUP1 DUP4 GT PUSH2 0x3B1 JUMPI DUP3 SWAP1 SUB PUSH1 0x1F AND DUP3 ADD SWAP2 JUMPDEST POP POP POP POP POP SWAP1 POP SWAP1 JUMP JUMPDEST PUSH1 0x0 PUSH1 0x2 SLOAD SWAP1 POP SWAP1 JUMP JUMPDEST PUSH1 0x0 PUSH2 0x3EF DUP5 DUP5 DUP5 PUSH2 0x910 JUMP JUMPDEST PUSH2 0x488 DUP5 CALLER PUSH2 0x483 DUP6 PUSH1 0x1 PUSH1 0x0 DUP11 PUSH20 0xFFFFFFFFFFFFFFFFFFFFFFFFFFFFFFFFFFFFFFFF AND PUSH20 0xFFFFFFFFFFFFFFFFFFFFFFFFFFFFFFFFFFFFFFFF AND DUP2 MSTORE PUSH1 0x20 ADD SWAP1 DUP2 MSTORE PUSH1 0x20 ADD PUSH1 0x0 KECCAK256 PUSH1 0x0 CALLER PUSH20 0xFFFFFFFFFFFFFFFFFFFFFFFFFFFFFFFFFFFFFFFF AND PUSH20 0xFFFFFFFFFFFFFFFFFFFFFFFFFFFFFFFFFFFFFFFF AND DUP2 MSTORE PUSH1 0x20 ADD SWAP1 DUP2 MSTORE PUSH1 0x20 ADD PUSH1 0x0 KECCAK256 SLOAD PUSH2 0xB80 SWAP1 SWAP2 SWAP1 PUSH4 0xFFFFFFFF AND JUMP JUMPDEST PUSH2 0x745 JUMP JUMPDEST PUSH1 0x1 SWAP1 POP SWAP4 SWAP3 POP POP POP JUMP JUMPDEST PUSH1 0x0 PUSH2 0x52E CALLER DUP5 PUSH2 0x529 DUP6 PUSH1 0x1 PUSH1 0x0 CALLER PUSH20 0xFFFFFFFFFFFFFFFFFFFFFFFFFFFFFFFFFFFFFFFF AND PUSH20 0xFFFFFFFFFFFFFFFFFFFFFFFFFFFFFFFFFFFFFFFF AND DUP2 MSTORE PUSH1 0x20 ADD SWAP1 DUP2 MSTORE PUSH1 0x20 ADD PUSH1 0x0 KECCAK256 PUSH1 0x0 DUP10 PUSH20 0xFFFFFFFFFFFFFFFFFFFFFFFFFFFFFFFFFFFFFFFF AND PUSH20 0xFFFFFFFFFFFFFFFFFFFFFFFFFFFFFFFFFFFFFFFF AND DUP2 MSTORE PUSH1 0x20 ADD SWAP1 DUP2 MSTORE PUSH1 0x20 ADD PUSH1 0x0 KECCAK256 SLOAD PUSH2 0x6E7 SWAP1 SWAP2 SWAP1 PUSH4 0xFFFFFFFF AND JUMP JUMPDEST PUSH2 0x745 JUMP JUMPDEST PUSH1 0x1 SWAP1 POP SWAP3 SWAP2 POP POP JUMP JUMPDEST PUSH2 0x542 CALLER DUP3 PUSH2 0xBDF JUMP JUMPDEST POP JUMP JUMPDEST PUSH1 0x0 DUP1 PUSH1 0x0 DUP4 PUSH20 0xFFFFFFFFFFFFFFFFFFFFFFFFFFFFFFFFFFFFFFFF AND PUSH20 0xFFFFFFFFFFFFFFFFFFFFFFFFFFFFFFFFFFFFFFFF AND DUP2 MSTORE PUSH1 0x20 ADD SWAP1 DUP2 MSTORE PUSH1 0x20 ADD PUSH1 0x0 KECCAK256 SLOAD SWAP1 POP SWAP2 SWAP1 POP JUMP JUMPDEST PUSH1 0x0 PUSH2 0x628 CALLER DUP5 PUSH2 0x623 DUP6 PUSH1 0x1 PUSH1 0x0 CALLER PUSH20 0xFFFFFFFFFFFFFFFFFFFFFFFFFFFFFFFFFFFFFFFF AND PUSH20 0xFFFFFFFFFFFFFFFFFFFFFFFFFFFFFFFFFFFFFFFF AND DUP2 MSTORE PUSH1 0x20 ADD SWAP1 DUP2 MSTORE PUSH1 0x20 ADD PUSH1 0x0 KECCAK256 PUSH1 0x0 DUP10 PUSH20 0xFFFFFFFFFFFFFFFFFFFFFFFFFFFFFFFFFFFFFFFF AND PUSH20 0xFFFFFFFFFFFFFFFFFFFFFFFFFFFFFFFFFFFFFFFF AND DUP2 MSTORE PUSH1 0x20 ADD SWAP1 DUP2 MSTORE PUSH1 0x20 ADD PUSH1 0x0 KECCAK256 SLOAD PUSH2 0xB80 SWAP1 SWAP2 SWAP1 PUSH4 0xFFFFFFFF AND JUMP JUMPDEST PUSH2 0x745 JUMP JUMPDEST PUSH1 0x1 SWAP1 POP SWAP3 SWAP2 POP POP JUMP JUMPDEST PUSH1 0x0 PUSH2 0x63F CALLER DUP5 DUP5 PUSH2 0x910 JUMP JUMPDEST PUSH1 0x1 SWAP1 POP SWAP3 SWAP2 POP POP JUMP JUMPDEST PUSH1 0x0 PUSH1 0x1 PUSH1 0x0 DUP5 PUSH20 0xFFFFFFFFFFFFFFFFFFFFFFFFFFFFFFFFFFFFFFFF AND PUSH20 0xFFFFFFFFFFFFFFFFFFFFFFFFFFFFFFFFFFFFFFFF AND DUP2 MSTORE PUSH1 0x20 ADD SWAP1 DUP2 MSTORE PUSH1 0x20 ADD PUSH1 0x0 KECCAK256 PUSH1 0x0 DUP4 PUSH20 0xFFFFFFFFFFFFFFFFFFFFFFFFFFFFFFFFFFFFFFFF AND PUSH20 0xFFFFFFFFFFFFFFFFFFFFFFFFFFFFFFFFFFFFFFFF AND DUP2 MSTORE PUSH1 0x20 ADD SWAP1 DUP2 MSTORE PUSH1 0x20 ADD PUSH1 0x0 KECCAK256 SLOAD SWAP1 POP SWAP3 SWAP2 POP POP JUMP JUMPDEST PUSH1 0x0 PUSH1 0x5 PUSH1 0x0 SWAP1 SLOAD SWAP1 PUSH2 0x100 EXP SWAP1 DIV PUSH1 0xFF AND SWAP1 POP SWAP1 JUMP JUMPDEST PUSH1 0x0 DUP1 DUP3 DUP5 PUSH2 0x6F6 SWAP2 SWAP1 PUSH2 0x12FD JUMP JUMPDEST SWAP1 POP DUP4 DUP2 LT ISZERO PUSH2 0x73B JUMPI PUSH1 0x40 MLOAD PUSH32 0x8C379A000000000000000000000000000000000000000000000000000000000 DUP2 MSTORE PUSH1 0x4 ADD PUSH2 0x732 SWAP1 PUSH2 0x120B JUMP JUMPDEST PUSH1 0x40 MLOAD DUP1 SWAP2 SUB SWAP1 REVERT JUMPDEST DUP1 SWAP2 POP POP SWAP3 SWAP2 POP POP JUMP JUMPDEST PUSH1 0x0 PUSH20 0xFFFFFFFFFFFFFFFFFFFFFFFFFFFFFFFFFFFFFFFF AND DUP4 PUSH20 0xFFFFFFFFFFFFFFFFFFFFFFFFFFFFFFFFFFFFFFFF AND EQ ISZERO PUSH2 0x7B5 JUMPI PUSH1 0x40 MLOAD PUSH32 0x8C379A000000000000000000000000000000000000000000000000000000000 DUP2 MSTORE PUSH1 0x4 ADD PUSH2 0x7AC SWAP1 PUSH2 0x128B JUMP JUMPDEST PUSH1 0x40 MLOAD DUP1 SWAP2 SUB SWAP1 REVERT JUMPDEST PUSH1 0x0 PUSH20 0xFFFFFFFFFFFFFFFFFFFFFFFFFFFFFFFFFFFFFFFF AND DUP3 PUSH20 0xFFFFFFFFFFFFFFFFFFFFFFFFFFFFFFFFFFFFFFFF AND EQ ISZERO PUSH2 0x825 JUMPI PUSH1 0x40 MLOAD PUSH32 0x8C379A000000000000000000000000000000000000000000000000000000000 DUP2 MSTORE PUSH1 0x4 ADD PUSH2 0x81C SWAP1 PUSH2 0x11EB JUMP JUMPDEST PUSH1 0x40 MLOAD DUP1 SWAP2 SUB SWAP1 REVERT JUMPDEST DUP1 PUSH1 0x1 PUSH1 0x0 DUP6 PUSH20 0xFFFFFFFFFFFFFFFFFFFFFFFFFFFFFFFFFFFFFFFF AND PUSH20 0xFFFFFFFFFFFFFFFFFFFFFFFFFFFFFFFFFFFFFFFF AND DUP2 MSTORE PUSH1 0x20 ADD SWAP1 DUP2 MSTORE PUSH1 0x20 ADD PUSH1 0x0 KECCAK256 PUSH1 0x0 DUP5 PUSH20 0xFFFFFFFFFFFFFFFFFFFFFFFFFFFFFFFFFFFFFFFF AND PUSH20 0xFFFFFFFFFFFFFFFFFFFFFFFFFFFFFFFFFFFFFFFF AND DUP2 MSTORE PUSH1 0x20 ADD SWAP1 DUP2 MSTORE PUSH1 0x20 ADD PUSH1 0x0 KECCAK256 DUP2 SWAP1 SSTORE POP DUP2 PUSH20 0xFFFFFFFFFFFFFFFFFFFFFFFFFFFFFFFFFFFFFFFF AND DUP4 PUSH20 0xFFFFFFFFFFFFFFFFFFFFFFFFFFFFFFFFFFFFFFFF AND PUSH32 0x8C5BE1E5EBEC7D5BD14F71427D1E84F3DD0314C0F7B2291E5B200AC8C7C3B925 DUP4 PUSH1 0x40 MLOAD PUSH2 0x903 SWAP2 SWAP1 PUSH2 0x12AB JUMP JUMPDEST PUSH1 0x40 MLOAD DUP1 SWAP2 SUB SWAP1 LOG3 POP POP POP JUMP JUMPDEST PUSH1 0x0 PUSH20 0xFFFFFFFFFFFFFFFFFFFFFFFFFFFFFFFFFFFFFFFF AND DUP4 PUSH20 0xFFFFFFFFFFFFFFFFFFFFFFFFFFFFFFFFFFFFFFFF AND EQ ISZERO PUSH2 0x980 JUMPI PUSH1 0x40 MLOAD PUSH32 0x8C379A000000000000000000000000000000000000000000000000000000000 DUP2 MSTORE PUSH1 0x4 ADD PUSH2 0x977 SWAP1 PUSH2 0x126B JUMP JUMPDEST PUSH1 0x40 MLOAD DUP1 SWAP2 SUB SWAP1 REVERT JUMPDEST PUSH1 0x0 PUSH20 0xFFFFFFFFFFFFFFFFFFFFFFFFFFFFFFFFFFFFFFFF AND DUP3 PUSH20 0xFFFFFFFFFFFFFFFFFFFFFFFFFFFFFFFFFFFFFFFF AND EQ ISZERO PUSH2 0x9F0 JUMPI PUSH1 0x40 MLOAD PUSH32 0x8C379A000000000000000000000000000000000000000000000000000000000 DUP2 MSTORE PUSH1 0x4 ADD PUSH2 0x9E7 SWAP1 PUSH2 0x11CB JUMP JUMPDEST PUSH1 0x40 MLOAD DUP1 SWAP2 SUB SWAP1 REVERT JUMPDEST PUSH2 0xA41 DUP2 PUSH1 0x0 DUP1 DUP7 PUSH20 0xFFFFFFFFFFFFFFFFFFFFFFFFFFFFFFFFFFFFFFFF AND PUSH20 0xFFFFFFFFFFFFFFFFFFFFFFFFFFFFFFFFFFFFFFFF AND DUP2 MSTORE PUSH1 0x20 ADD SWAP1 DUP2 MSTORE PUSH1 0x20 ADD PUSH1 0x0 KECCAK256 SLOAD PUSH2 0xB80 SWAP1 SWAP2 SWAP1 PUSH4 0xFFFFFFFF AND JUMP JUMPDEST PUSH1 0x0 DUP1 DUP6 PUSH20 0xFFFFFFFFFFFFFFFFFFFFFFFFFFFFFFFFFFFFFFFF AND PUSH20 0xFFFFFFFFFFFFFFFFFFFFFFFFFFFFFFFFFFFFFFFF AND DUP2 MSTORE PUSH1 0x20 ADD SWAP1 DUP2 MSTORE PUSH1 0x20 ADD PUSH1 0x0 KECCAK256 DUP2 SWAP1 SSTORE POP PUSH2 0xAD4 DUP2 PUSH1 0x0 DUP1 DUP6 PUSH20 0xFFFFFFFFFFFFFFFFFFFFFFFFFFFFFFFFFFFFFFFF AND PUSH20 0xFFFFFFFFFFFFFFFFFFFFFFFFFFFFFFFFFFFFFFFF AND DUP2 MSTORE PUSH1 0x20 ADD SWAP1 DUP2 MSTORE PUSH1 0x20 ADD PUSH1 0x0 KECCAK256 SLOAD PUSH2 0x6E7 SWAP1 SWAP2 SWAP1 PUSH4 0xFFFFFFFF AND JUMP JUMPDEST PUSH1 0x0 DUP1 DUP5 PUSH20 0xFFFFFFFFFFFFFFFFFFFFFFFFFFFFFFFFFFFFFFFF AND PUSH20 0xFFFFFFFFFFFFFFFFFFFFFFFFFFFFFFFFFFFFFFFF AND DUP2 MSTORE PUSH1 0x20 ADD SWAP1 DUP2 MSTORE PUSH1 0x20 ADD PUSH1 0x0 KECCAK256 DUP2 SWAP1 SSTORE POP DUP2 PUSH20 0xFFFFFFFFFFFFFFFFFFFFFFFFFFFFFFFFFFFFFFFF AND DUP4 PUSH20 0xFFFFFFFFFFFFFFFFFFFFFFFFFFFFFFFFFFFFFFFF AND PUSH32 0xDDF252AD1BE2C89B69C2B068FC378DAA952BA7F163C4A11628F55A4DF523B3EF DUP4 PUSH1 0x40 MLOAD PUSH2 0xB73 SWAP2 SWAP1 PUSH2 0x12AB JUMP JUMPDEST PUSH1 0x40 MLOAD DUP1 SWAP2 SUB SWAP1 LOG3 POP POP POP JUMP JUMPDEST PUSH1 0x0 DUP3 DUP3 GT ISZERO PUSH2 0xBC5 JUMPI PUSH1 0x40 MLOAD PUSH32 0x8C379A000000000000000000000000000000000000000000000000000000000 DUP2 MSTORE PUSH1 0x4 ADD PUSH2 0xBBC SWAP1 PUSH2 0x122B JUMP JUMPDEST PUSH1 0x40 MLOAD DUP1 SWAP2 SUB SWAP1 REVERT JUMPDEST PUSH1 0x0 DUP3 DUP5 PUSH2 0xBD3 SWAP2 SWAP1 PUSH2 0x1353 JUMP JUMPDEST SWAP1 POP DUP1 SWAP2 POP POP SWAP3 SWAP2 POP POP JUMP JUMPDEST PUSH1 0x0 PUSH20 0xFFFFFFFFFFFFFFFFFFFFFFFFFFFFFFFFFFFFFFFF AND DUP3 PUSH20 0xFFFFFFFFFFFFFFFFFFFFFFFFFFFFFFFFFFFFFFFF AND EQ ISZERO PUSH2 0xC4F JUMPI PUSH1 0x40 MLOAD PUSH32 0x8C379A000000000000000000000000000000000000000000000000000000000 DUP2 MSTORE PUSH1 0x4 ADD PUSH2 0xC46 SWAP1 PUSH2 0x124B JUMP JUMPDEST PUSH1 0x40 MLOAD DUP1 SWAP2 SUB SWAP1 REVERT JUMPDEST PUSH2 0xC64 DUP2 PUSH1 0x2 SLOAD PUSH2 0xB80 SWAP1 SWAP2 SWAP1 PUSH4 0xFFFFFFFF AND JUMP JUMPDEST PUSH1 0x2 DUP2 SWAP1 SSTORE POP PUSH2 0xCBB DUP2 PUSH1 0x0 DUP1 DUP6 PUSH20 0xFFFFFFFFFFFFFFFFFFFFFFFFFFFFFFFFFFFFFFFF AND PUSH20 0xFFFFFFFFFFFFFFFFFFFFFFFFFFFFFFFFFFFFFFFF AND DUP2 MSTORE PUSH1 0x20 ADD SWAP1 DUP2 MSTORE PUSH1 0x20 ADD PUSH1 0x0 KECCAK256 SLOAD PUSH2 0xB80 SWAP1 SWAP2 SWAP1 PUSH4 0xFFFFFFFF AND JUMP JUMPDEST PUSH1 0x0 DUP1 DUP5 PUSH20 0xFFFFFFFFFFFFFFFFFFFFFFFFFFFFFFFFFFFFFFFF AND PUSH20 0xFFFFFFFFFFFFFFFFFFFFFFFFFFFFFFFFFFFFFFFF AND DUP2 MSTORE PUSH1 0x20 ADD SWAP1 DUP2 MSTORE PUSH1 0x20 ADD PUSH1 0x0 KECCAK256 DUP2 SWAP1 SSTORE POP PUSH1 0x0 PUSH20 0xFFFFFFFFFFFFFFFFFFFFFFFFFFFFFFFFFFFFFFFF AND DUP3 PUSH20 0xFFFFFFFFFFFFFFFFFFFFFFFFFFFFFFFFFFFFFFFF AND PUSH32 0xDDF252AD1BE2C89B69C2B068FC378DAA952BA7F163C4A11628F55A4DF523B3EF DUP4 PUSH1 0x40 MLOAD PUSH2 0xD5B SWAP2 SWAP1 PUSH2 0x12AB JUMP JUMPDEST PUSH1 0x40 MLOAD DUP1 SWAP2 SUB SWAP1 LOG3 POP POP JUMP JUMPDEST PUSH1 0x0 DUP2 CALLDATALOAD SWAP1 POP PUSH2 0xD76 DUP2 PUSH2 0x14B0 JUMP JUMPDEST SWAP3 SWAP2 POP POP JUMP JUMPDEST PUSH1 0x0 DUP2 CALLDATALOAD SWAP1 POP PUSH2 0xD8B DUP2 PUSH2 0x14C7 JUMP JUMPDEST SWAP3 SWAP2 POP POP JUMP JUMPDEST PUSH1 0x0 PUSH1 0x20 DUP3 DUP5 SUB SLT ISZERO PUSH2 0xDA3 JUMPI PUSH1 0x0 DUP1 REVERT JUMPDEST PUSH1 0x0 PUSH2 0xDB1 DUP5 DUP3 DUP6 ADD PUSH2 0xD67 JUMP JUMPDEST SWAP2 POP POP SWAP3 SWAP2 POP POP JUMP JUMPDEST PUSH1 0x0 DUP1 PUSH1 0x40 DUP4 DUP6 SUB SLT ISZERO PUSH2 0xDCD JUMPI PUSH1 0x0 DUP1 REVERT JUMPDEST PUSH1 0x0 PUSH2 0xDDB DUP6 DUP3 DUP7 ADD PUSH2 0xD67 JUMP JUMPDEST SWAP3 POP POP PUSH1 0x20 PUSH2 0xDEC DUP6 DUP3 DUP7 ADD PUSH2 0xD67 JUMP JUMPDEST SWAP2 POP POP SWAP3 POP SWAP3 SWAP1 POP JUMP JUMPDEST PUSH1 0x0 DUP1 PUSH1 0x0 PUSH1 0x60 DUP5 DUP7 SUB SLT ISZERO PUSH2 0xE0B JUMPI PUSH1 0x0 DUP1 REVERT JUMPDEST PUSH1 0x0 PUSH2 0xE19 DUP7 DUP3 DUP8 ADD PUSH2 0xD67 JUMP JUMPDEST SWAP4 POP POP PUSH1 0x20 PUSH2 0xE2A DUP7 DUP3 DUP8 ADD PUSH2 0xD67 JUMP JUMPDEST SWAP3 POP POP PUSH1 0x40 PUSH2 0xE3B DUP7 DUP3 DUP8 ADD PUSH2 0xD7C JUMP JUMPDEST SWAP2 POP POP SWAP3 POP SWAP3 POP SWAP3 JUMP JUMPDEST PUSH1 0x0 DUP1 PUSH1 0x40 DUP4 DUP6 SUB SLT ISZERO PUSH2 0xE58 JUMPI PUSH1 0x0 DUP1 REVERT JUMPDEST PUSH1 0x0 PUSH2 0xE66 DUP6 DUP3 DUP7 ADD PUSH2 0xD67 JUMP JUMPDEST SWAP3 POP POP PUSH1 0x20 PUSH2 0xE77 DUP6 DUP3 DUP7 ADD PUSH2 0xD7C JUMP JUMPDEST SWAP2 POP POP SWAP3 POP SWAP3 SWAP1 POP JUMP JUMPDEST PUSH1 0x0 PUSH1 0x20 DUP3 DUP5 SUB SLT ISZERO PUSH2 0xE93 JUMPI PUSH1 0x0 DUP1 REVERT JUMPDEST PUSH1 0x0 PUSH2 0xEA1 DUP5 DUP3 DUP6 ADD PUSH2 0xD7C JUMP JUMPDEST SWAP2 POP POP SWAP3 SWAP2 POP POP JUMP JUMPDEST PUSH2 0xEB3 DUP2 PUSH2 0x1399 JUMP JUMPDEST DUP3 MSTORE POP POP JUMP JUMPDEST PUSH1 0x0 PUSH2 0xEC4 DUP3 PUSH2 0x12E1 JUMP JUMPDEST PUSH2 0xECE DUP2 DUP6 PUSH2 0x12EC JUMP JUMPDEST SWAP4 POP PUSH2 0xEDE DUP2 DUP6 PUSH1 0x20 DUP7 ADD PUSH2 0x13DC JUMP JUMPDEST PUSH2 0xEE7 DUP2 PUSH2 0x149F JUMP JUMPDEST DUP5 ADD SWAP2 POP POP SWAP3 SWAP2 POP POP JUMP JUMPDEST PUSH1 0x0 PUSH2 0xEFF PUSH1 0x23 DUP4 PUSH2 0x12EC JUMP JUMPDEST SWAP2 POP PUSH32 0x45524332303A207472616E7366657220746F20746865207A65726F2061646472 PUSH1 0x0 DUP4 ADD MSTORE PUSH32 0x6573730000000000000000000000000000000000000000000000000000000000 PUSH1 0x20 DUP4 ADD MSTORE PUSH1 0x40 DUP3 ADD SWAP1 POP SWAP2 SWAP1 POP JUMP JUMPDEST PUSH1 0x0 PUSH2 0xF65 PUSH1 0x22 DUP4 PUSH2 0x12EC JUMP JUMPDEST SWAP2 POP PUSH32 0x45524332303A20617070726F766520746F20746865207A65726F206164647265 PUSH1 0x0 DUP4 ADD MSTORE PUSH32 0x7373000000000000000000000000000000000000000000000000000000000000 PUSH1 0x20 DUP4 ADD MSTORE PUSH1 0x40 DUP3 ADD SWAP1 POP SWAP2 SWAP1 POP JUMP JUMPDEST PUSH1 0x0 PUSH2 0xFCB PUSH1 0x1B DUP4 PUSH2 0x12EC JUMP JUMPDEST SWAP2 POP PUSH32 0x536166654D6174683A206164646974696F6E206F766572666C6F770000000000 PUSH1 0x0 DUP4 ADD MSTORE PUSH1 0x20 DUP3 ADD SWAP1 POP SWAP2 SWAP1 POP JUMP JUMPDEST PUSH1 0x0 PUSH2 0x100B PUSH1 0x1E DUP4 PUSH2 0x12EC JUMP JUMPDEST SWAP2 POP PUSH32 0x536166654D6174683A207375627472616374696F6E206F766572666C6F770000 PUSH1 0x0 DUP4 ADD MSTORE PUSH1 0x20 DUP3 ADD SWAP1 POP SWAP2 SWAP1 POP JUMP JUMPDEST PUSH1 0x0 PUSH2 0x104B PUSH1 0x21 DUP4 PUSH2 0x12EC JUMP JUMPDEST SWAP2 POP PUSH32 0x45524332303A206275726E2066726F6D20746865207A65726F20616464726573 PUSH1 0x0 DUP4 ADD MSTORE PUSH32 0x7300000000000000000000000000000000000000000000000000000000000000 PUSH1 0x20 DUP4 ADD MSTORE PUSH1 0x40 DUP3 ADD SWAP1 POP SWAP2 SWAP1 POP JUMP JUMPDEST PUSH1 0x0 PUSH2 0x10B1 PUSH1 0x25 DUP4 PUSH2 0x12EC JUMP JUMPDEST SWAP2 POP PUSH32 0x45524332303A207472616E736665722066726F6D20746865207A65726F206164 PUSH1 0x0 DUP4 ADD MSTORE PUSH32 0x6472657373000000000000000000000000000000000000000000000000000000 PUSH1 0x20 DUP4 ADD MSTORE PUSH1 0x40 DUP3 ADD SWAP1 POP SWAP2 SWAP1 POP JUMP JUMPDEST PUSH1 0x0 PUSH2 0x1117 PUSH1 0x24 DUP4 PUSH2 0x12EC JUMP JUMPDEST SWAP2 POP PUSH32 0x45524332303A20617070726F76652066726F6D20746865207A65726F20616464 PUSH1 0x0 DUP4 ADD MSTORE PUSH32 0x7265737300000000000000000000000000000000000000000000000000000000 PUSH1 0x20 DUP4 ADD MSTORE PUSH1 0x40 DUP3 ADD SWAP1 POP SWAP2 SWAP1 POP JUMP JUMPDEST PUSH2 0x1179 DUP2 PUSH2 0x13C5 JUMP JUMPDEST DUP3 MSTORE POP POP JUMP JUMPDEST PUSH2 0x1188 DUP2 PUSH2 0x13CF JUMP JUMPDEST DUP3 MSTORE POP POP JUMP JUMPDEST PUSH1 0x0 PUSH1 0x20 DUP3 ADD SWAP1 POP PUSH2 0x11A3 PUSH1 0x0 DUP4 ADD DUP5 PUSH2 0xEAA JUMP JUMPDEST SWAP3 SWAP2 POP POP JUMP JUMPDEST PUSH1 0x0 PUSH1 0x20 DUP3 ADD SWAP1 POP DUP2 DUP2 SUB PUSH1 0x0 DUP4 ADD MSTORE PUSH2 0x11C3 DUP2 DUP5 PUSH2 0xEB9 JUMP JUMPDEST SWAP1 POP SWAP3 SWAP2 POP POP JUMP JUMPDEST PUSH1 0x0 PUSH1 0x20 DUP3 ADD SWAP1 POP DUP2 DUP2 SUB PUSH1 0x0 DUP4 ADD MSTORE PUSH2 0x11E4 DUP2 PUSH2 0xEF2 JUMP JUMPDEST SWAP1 POP SWAP2 SWAP1 POP JUMP JUMPDEST PUSH1 0x0 PUSH1 0x20 DUP3 ADD SWAP1 POP DUP2 DUP2 SUB PUSH1 0x0 DUP4 ADD MSTORE PUSH2 0x1204 DUP2 PUSH2 0xF58 JUMP JUMPDEST SWAP1 POP SWAP2 SWAP1 POP JUMP JUMPDEST PUSH1 0x0 PUSH1 0x20 DUP3 ADD SWAP1 POP DUP2 DUP2 SUB PUSH1 0x0 DUP4 ADD MSTORE PUSH2 0x1224 DUP2 PUSH2 0xFBE JUMP JUMPDEST SWAP1 POP SWAP2 SWAP1 POP JUMP JUMPDEST PUSH1 0x0 PUSH1 0x20 DUP3 ADD SWAP1 POP DUP2 DUP2 SUB PUSH1 0x0 DUP4 ADD MSTORE PUSH2 0x1244 DUP2 PUSH2 0xFFE JUMP JUMPDEST SWAP1 POP SWAP2 SWAP1 POP JUMP JUMPDEST PUSH1 0x0 PUSH1 0x20 DUP3 ADD SWAP1 POP DUP2 DUP2 SUB PUSH1 0x0 DUP4 ADD MSTORE PUSH2 0x1264 DUP2 PUSH2 0x103E JUMP JUMPDEST SWAP1 POP SWAP2 SWAP1 POP JUMP JUMPDEST PUSH1 0x0 PUSH1 0x20 DUP3 ADD SWAP1 POP DUP2 DUP2 SUB PUSH1 0x0 DUP4 ADD MSTORE PUSH2 0x1284 DUP2 PUSH2 0x10A4 JUMP JUMPDEST SWAP1 POP SWAP2 SWAP1 POP JUMP JUMPDEST PUSH1 0x0 PUSH1 0x20 DUP3 ADD SWAP1 POP DUP2 DUP2 SUB PUSH1 0x0 DUP4 ADD MSTORE PUSH2 0x12A4 DUP2 PUSH2 0x110A JUMP JUMPDEST SWAP1 POP SWAP2 SWAP1 POP JUMP JUMPDEST PUSH1 0x0 PUSH1 0x20 DUP3 ADD SWAP1 POP PUSH2 0x12C0 PUSH1 0x0 DUP4 ADD DUP5 PUSH2 0x1170 JUMP JUMPDEST SWAP3 SWAP2 POP POP JUMP JUMPDEST PUSH1 0x0 PUSH1 0x20 DUP3 ADD SWAP1 POP PUSH2 0x12DB PUSH1 0x0 DUP4 ADD DUP5 PUSH2 0x117F JUMP JUMPDEST SWAP3 SWAP2 POP POP JUMP JUMPDEST PUSH1 0x0 DUP2 MLOAD SWAP1 POP SWAP2 SWAP1 POP JUMP JUMPDEST PUSH1 0x0 DUP3 DUP3 MSTORE PUSH1 0x20 DUP3 ADD SWAP1 POP SWAP3 SWAP2 POP POP JUMP JUMPDEST PUSH1 0x0 PUSH2 0x1308 DUP3 PUSH2 0x13C5 JUMP JUMPDEST SWAP2 POP PUSH2 0x1313 DUP4 PUSH2 0x13C5 JUMP JUMPDEST SWAP3 POP DUP3 PUSH32 0xFFFFFFFFFFFFFFFFFFFFFFFFFFFFFFFFFFFFFFFFFFFFFFFFFFFFFFFFFFFFFFFF SUB DUP3 GT ISZERO PUSH2 0x1348 JUMPI PUSH2 0x1347 PUSH2 0x1441 JUMP JUMPDEST JUMPDEST DUP3 DUP3 ADD SWAP1 POP SWAP3 SWAP2 POP POP JUMP JUMPDEST PUSH1 0x0 PUSH2 0x135E DUP3 PUSH2 0x13C5 JUMP JUMPDEST SWAP2 POP PUSH2 0x1369 DUP4 PUSH2 0x13C5 JUMP JUMPDEST SWAP3 POP DUP3 DUP3 LT ISZERO PUSH2 0x137C JUMPI PUSH2 0x137B PUSH2 0x1441 JUMP JUMPDEST JUMPDEST DUP3 DUP3 SUB SWAP1 POP SWAP3 SWAP2 POP POP JUMP JUMPDEST PUSH1 0x0 PUSH2 0x1392 DUP3 PUSH2 0x13A5 JUMP JUMPDEST SWAP1 POP SWAP2 SWAP1 POP JUMP JUMPDEST PUSH1 0x0 DUP2 ISZERO ISZERO SWAP1 POP SWAP2 SWAP1 POP JUMP JUMPDEST PUSH1 0x0 PUSH20 0xFFFFFFFFFFFFFFFFFFFFFFFFFFFFFFFFFFFFFFFF DUP3 AND SWAP1 POP SWAP2 SWAP1 POP JUMP JUMPDEST PUSH1 0x0 DUP2 SWAP1 POP SWAP2 SWAP1 POP JUMP JUMPDEST PUSH1 0x0 PUSH1 0xFF DUP3 AND SWAP1 POP SWAP2 SWAP1 POP JUMP JUMPDEST PUSH1 0x0 JUMPDEST DUP4 DUP2 LT ISZERO PUSH2 0x13FA JUMPI DUP1 DUP3 ADD MLOAD DUP2 DUP5 ADD MSTORE PUSH1 0x20 DUP2 ADD SWAP1 POP PUSH2 0x13DF JUMP JUMPDEST DUP4 DUP2 GT ISZERO PUSH2 0x1409 JUMPI PUSH1 0x0 DUP5 DUP5 ADD MSTORE JUMPDEST POP POP POP POP JUMP JUMPDEST PUSH1 0x0 PUSH1 0x2 DUP3 DIV SWAP1 POP PUSH1 0x1 DUP3 AND DUP1 PUSH2 0x1427 JUMPI PUSH1 0x7F DUP3 AND SWAP2 POP JUMPDEST PUSH1 0x20 DUP3 LT DUP2 EQ ISZERO PUSH2 0x143B JUMPI PUSH2 0x143A PUSH2 0x1470 JUMP JUMPDEST JUMPDEST POP SWAP2 SWAP1 POP JUMP JUMPDEST PUSH32 0x4E487B7100000000000000000000000000000000000000000000000000000000 PUSH1 0x0 MSTORE PUSH1 0x11 PUSH1 0x4 MSTORE PUSH1 0x24 PUSH1 0x0 REVERT JUMPDEST PUSH32 0x4E487B7100000000000000000000000000000000000000000000000000000000 PUSH1 0x0 MSTORE PUSH1 0x22 PUSH1 0x4 MSTORE PUSH1 0x24 PUSH1 0x0 REVERT JUMPDEST PUSH1 0x0 PUSH1 0x1F NOT PUSH1 0x1F DUP4 ADD AND SWAP1 POP SWAP2 SWAP1 POP JUMP JUMPDEST PUSH2 0x14B9 DUP2 PUSH2 0x1387 JUMP JUMPDEST DUP2 EQ PUSH2 0x14C4 JUMPI PUSH1 0x0 DUP1 REVERT JUMPDEST POP JUMP JUMPDEST PUSH2 0x14D0 DUP2 PUSH2 0x13C5 JUMP JUMPDEST DUP2 EQ PUSH2 0x14DB JUMPI PUSH1 0x0 DUP1 REVERT JUMPDEST POP JUMP INVALID LOG2 PUSH5 0x6970667358 0x22 SLT KECCAK256 0x4F 0x4D CALL COINBASE LOG2 SLOAD 0xAD 0x2F 0xEF 0x1E 0xD8 0x5F 0xDF CALLDATALOAD DUP11 0xDB SLOAD GASPRICE SWAP12 BALANCE 0xF DIV 0xC2 0xD4 MULMOD DUP10 DUP6 0xC7 BLOCKHASH 0x4D CODESIZE PUSH31 0x64736F6C634300080000330000000000000000000000000000000000000000 "
				},
				"gasEstimates": {
					"creation": {
						"codeDepositCost": "523800",
						"executionCost": "infinite",
						"totalCost": "infinite"
					},
					"external": {
						"decimals()": "358",
						"name()": "infinite",
						"symbol()": "infinite",
						"testBalanceOf()": "infinite",
						"testBurn()": "infinite",
						"testDecimals()": "infinite",
						"testName()": "infinite",
						"testSymbol()": "infinite",
						"testTotalSupply()": "infinite",
						"totalSup()": "1129"
					}
				},
				"methodIdentifiers": {
					"decimals()": "313ce567",
					"name()": "06fdde03",
					"symbol()": "95d89b41",
					"testBalanceOf()": "3df77c0e",
					"testBurn()": "e13aba48",
					"testDecimals()": "5d4696cf",
					"testName()": "cc8668de",
					"testSymbol()": "77fc70c6",
					"testTotalSupply()": "eb7492d1",
					"totalSup()": "80fc5d17"
				}
			},
			"storageLayout": {
				"storage": [
					{
						"astId": 702,
						"contract": "contracts/shiba.sol:TestDNG_TokenMintERC20Token",
						"label": "dngToken",
						"offset": 0,
						"slot": "0",
						"type": "t_contract(DNG_TokenMintERC20Token)698"
					},
					{
						"astId": 711,
						"contract": "contracts/shiba.sol:TestDNG_TokenMintERC20Token",
						"label": "totalSup",
						"offset": 0,
						"slot": "1",
						"type": "t_uint256"
					},
					{
						"astId": 716,
						"contract": "contracts/shiba.sol:TestDNG_TokenMintERC20Token",
						"label": "feeReceiver",
						"offset": 0,
						"slot": "2",
						"type": "t_address_payable"
					},
					{
						"astId": 718,
						"contract": "contracts/shiba.sol:TestDNG_TokenMintERC20Token",
						"label": "tokenOwnerAddress",
						"offset": 0,
						"slot": "3",
						"type": "t_address"
					}
				],
				"types": {
					"t_address": {
						"encoding": "inplace",
						"label": "address",
						"numberOfBytes": "20"
					},
					"t_address_payable": {
						"encoding": "inplace",
						"label": "address payable",
						"numberOfBytes": "20"
					},
					"t_contract(DNG_TokenMintERC20Token)698": {
						"encoding": "inplace",
						"label": "contract DNG_TokenMintERC20Token",
						"numberOfBytes": "20"
					},
					"t_uint256": {
						"encoding": "inplace",
						"label": "uint256",
						"numberOfBytes": "32"
					}
				}
			},
			"userdoc": {
				"kind": "user",
				"methods": {},
				"version": 1
			}
		}
	}
}