{
	"contracts/DNG.sol": {
		"DNG": {
			"abi": [
				{
					"inputs": [],
					"stateMutability": "nonpayable",
					"type": "constructor"
				},
				{
					"anonymous": false,
					"inputs": [
						{
							"indexed": true,
							"internalType": "address",
							"name": "owner",
							"type": "address"
						},
						{
							"indexed": true,
							"internalType": "address",
							"name": "spender",
							"type": "address"
						},
						{
							"indexed": false,
							"internalType": "uint256",
							"name": "value",
							"type": "uint256"
						}
					],
					"name": "Approval",
					"type": "event"
				},
				{
					"anonymous": false,
					"inputs": [
						{
							"indexed": true,
							"internalType": "address",
							"name": "owner",
							"type": "address"
						},
						{
							"indexed": true,
							"internalType": "bytes32",
							"name": "dataHash",
							"type": "bytes32"
						}
					],
					"name": "StoreData",
					"type": "event"
				},
				{
					"anonymous": false,
					"inputs": [
						{
							"indexed": true,
							"internalType": "address",
							"name": "from",
							"type": "address"
						},
						{
							"indexed": true,
							"internalType": "address",
							"name": "to",
							"type": "address"
						},
						{
							"indexed": false,
							"internalType": "uint256",
							"name": "value",
							"type": "uint256"
						}
					],
					"name": "Transfer",
					"type": "event"
				},
				{
					"inputs": [
						{
							"internalType": "address",
							"name": "",
							"type": "address"
						},
						{
							"internalType": "address",
							"name": "",
							"type": "address"
						}
					],
					"name": "allowance",
					"outputs": [
						{
							"internalType": "uint256",
							"name": "",
							"type": "uint256"
						}
					],
					"stateMutability": "view",
					"type": "function"
				},
				{
					"inputs": [
						{
							"internalType": "address",
							"name": "_owner",
							"type": "address"
						},
						{
							"internalType": "address",
							"name": "_spender",
							"type": "address"
						}
					],
					"name": "allowance2",
					"outputs": [
						{
							"internalType": "uint256",
							"name": "",
							"type": "uint256"
						}
					],
					"stateMutability": "view",
					"type": "function"
				},
				{
					"inputs": [
						{
							"internalType": "address",
							"name": "_spender",
							"type": "address"
						},
						{
							"internalType": "uint256",
							"name": "_value",
							"type": "uint256"
						}
					],
					"name": "approve",
					"outputs": [
						{
							"internalType": "bool",
							"name": "",
							"type": "bool"
						}
					],
					"stateMutability": "nonpayable",
					"type": "function"
				},
				{
					"inputs": [
						{
							"internalType": "address",
							"name": "",
							"type": "address"
						}
					],
					"name": "balanceOf",
					"outputs": [
						{
							"internalType": "uint256",
							"name": "",
							"type": "uint256"
						}
					],
					"stateMutability": "view",
					"type": "function"
				},
				{
					"inputs": [
						{
							"internalType": "bytes32",
							"name": "hash",
							"type": "bytes32"
						}
					],
					"name": "getData",
					"outputs": [
						{
							"internalType": "bytes",
							"name": "",
							"type": "bytes"
						}
					],
					"stateMutability": "view",
					"type": "function"
				},
				{
					"inputs": [
						{
							"internalType": "bytes32",
							"name": "_dataHash",
							"type": "bytes32"
						}
					],
					"name": "getData2",
					"outputs": [
						{
							"internalType": "bytes",
							"name": "",
							"type": "bytes"
						}
					],
					"stateMutability": "view",
					"type": "function"
				},
				{
					"inputs": [],
					"name": "getDataHash",
					"outputs": [
						{
							"internalType": "bytes32",
							"name": "",
							"type": "bytes32"
						}
					],
					"stateMutability": "view",
					"type": "function"
				},
				{
					"inputs": [
						{
							"internalType": "bytes",
							"name": "data",
							"type": "bytes"
						}
					],
					"name": "storeData",
					"outputs": [],
					"stateMutability": "nonpayable",
					"type": "function"
				},
				{
					"inputs": [
						{
							"internalType": "bytes",
							"name": "data",
							"type": "bytes"
						},
						{
							"internalType": "bytes32",
							"name": "dataHash",
							"type": "bytes32"
						}
					],
					"name": "storeData2",
					"outputs": [],
					"stateMutability": "nonpayable",
					"type": "function"
				},
				{
					"inputs": [
						{
							"internalType": "bytes",
							"name": "_data2",
							"type": "bytes"
						}
					],
					"name": "storeData3",
					"outputs": [],
					"stateMutability": "nonpayable",
					"type": "function"
				},
				{
					"inputs": [],
					"name": "totalSupply",
					"outputs": [
						{
							"internalType": "uint256",
							"name": "",
							"type": "uint256"
						}
					],
					"stateMutability": "view",
					"type": "function"
				},
				{
					"inputs": [
						{
							"internalType": "address",
							"name": "_to",
							"type": "address"
						},
						{
							"internalType": "uint256",
							"name": "_value",
							"type": "uint256"
						}
					],
					"name": "transfer",
					"outputs": [
						{
							"internalType": "bool",
							"name": "",
							"type": "bool"
						}
					],
					"stateMutability": "nonpayable",
					"type": "function"
				},
				{
					"inputs": [
						{
							"internalType": "address",
							"name": "_from",
							"type": "address"
						},
						{
							"internalType": "address",
							"name": "_to",
							"type": "address"
						},
						{
							"internalType": "uint256",
							"name": "_value",
							"type": "uint256"
						}
					],
					"name": "transferFrom",
					"outputs": [
						{
							"internalType": "bool",
							"name": "",
							"type": "bool"
						}
					],
					"stateMutability": "nonpayable",
					"type": "function"
				},
				{
					"inputs": [
						{
							"internalType": "address",
							"name": "_from",
							"type": "address"
						},
						{
							"internalType": "address",
							"name": "_to",
							"type": "address"
						},
						{
							"internalType": "uint256",
							"name": "_value",
							"type": "uint256"
						}
					],
					"name": "transferFrom2",
					"outputs": [],
					"stateMutability": "nonpayable",
					"type": "function"
				},
				{
					"inputs": [
						{
							"internalType": "bytes",
							"name": "data",
							"type": "bytes"
						}
					],
					"name": "uploadData",
					"outputs": [],
					"stateMutability": "nonpayable",
					"type": "function"
				}
			],
			"devdoc": {
				"kind": "dev",
				"methods": {},
				"version": 1
			},
			"evm": {
				"assembly": "    /* \"contracts/DNG.sol\":284:4182  contract DNG {\r... */\n  mstore(0x40, 0x80)\n    /* \"contracts/DNG.sol\":333:337  1e12 */\n  0xe8d4a51000\n    /* \"contracts/DNG.sol\":304:337  uint256 public totalSupply = 1e12 */\n  0x00\n  sstore\n    /* \"contracts/DNG.sol\":957:1032  constructor() public {\r... */\n  callvalue\n  dup1\n  iszero\n  tag_1\n  jumpi\n  0x00\n  dup1\n  revert\ntag_1:\n  pop\n    /* \"contracts/DNG.sol\":1013:1024  totalSupply */\n  sload(0x00)\n    /* \"contracts/DNG.sol\":989:998  balanceOf */\n  0x01\n    /* \"contracts/DNG.sol\":989:1010  balanceOf[msg.sender] */\n  0x00\n    /* \"contracts/DNG.sol\":999:1009  msg.sender */\n  caller\n    /* \"contracts/DNG.sol\":989:1010  balanceOf[msg.sender] */\n  0xffffffffffffffffffffffffffffffffffffffff\n  and\n  0xffffffffffffffffffffffffffffffffffffffff\n  and\n  dup2\n  mstore\n  0x20\n  add\n  swap1\n  dup2\n  mstore\n  0x20\n  add\n  0x00\n  keccak256\n    /* \"contracts/DNG.sol\":989:1024  balanceOf[msg.sender] = totalSupply */\n  dup2\n  swap1\n  sstore\n  pop\n    /* \"contracts/DNG.sol\":284:4182  contract DNG {\r... */\n  dataSize(sub_0)\n  dup1\n  dataOffset(sub_0)\n  0x00\n  codecopy\n  0x00\n  return\nstop\n\nsub_0: assembly {\n        /* \"contracts/DNG.sol\":284:4182  contract DNG {\r... */\n      mstore(0x40, 0x80)\n      callvalue\n      dup1\n      iszero\n      tag_1\n      jumpi\n      0x00\n      dup1\n      revert\n    tag_1:\n      pop\n      jumpi(tag_2, lt(calldatasize, 0x04))\n      shr(0xe0, calldataload(0x00))\n      dup1\n      0x70a08231\n      gt\n      tag_18\n      jumpi\n      dup1\n      0xa9059cbb\n      gt\n      tag_19\n      jumpi\n      dup1\n      0xa9059cbb\n      eq\n      tag_14\n      jumpi\n      dup1\n      0xac5c8535\n      eq\n      tag_15\n      jumpi\n      dup1\n      0xd8218148\n      eq\n      tag_16\n      jumpi\n      dup1\n      0xdd62ed3e\n      eq\n      tag_17\n      jumpi\n      jump(tag_2)\n    tag_19:\n      dup1\n      0x70a08231\n      eq\n      tag_10\n      jumpi\n      dup1\n      0x8bd40c3b\n      eq\n      tag_11\n      jumpi\n      dup1\n      0x965d68d9\n      eq\n      tag_12\n      jumpi\n      dup1\n      0xa4da2290\n      eq\n      tag_13\n      jumpi\n      jump(tag_2)\n    tag_18:\n      dup1\n      0x54f6127f\n      gt\n      tag_20\n      jumpi\n      dup1\n      0x54f6127f\n      eq\n      tag_6\n      jumpi\n      dup1\n      0x6377fc8b\n      eq\n      tag_7\n      jumpi\n      dup1\n      0x69cef46c\n      eq\n      tag_8\n      jumpi\n      dup1\n      0x6c12ed28\n      eq\n      tag_9\n      jumpi\n      jump(tag_2)\n    tag_20:\n      dup1\n      0x095ea7b3\n      eq\n      tag_3\n      jumpi\n      dup1\n      0x18160ddd\n      eq\n      tag_4\n      jumpi\n      dup1\n      0x23b872dd\n      eq\n      tag_5\n      jumpi\n    tag_2:\n      0x00\n      dup1\n      revert\n        /* \"contracts/DNG.sol\":1370:1578  function approve(address _spender, uint256 _value) public returns (bool) {\r... */\n    tag_3:\n      tag_21\n      0x04\n      dup1\n      calldatasize\n      sub\n      dup2\n      add\n      swap1\n      tag_22\n      swap2\n      swap1\n      tag_23\n      jump\t// in\n    tag_22:\n      tag_24\n      jump\t// in\n    tag_21:\n      mload(0x40)\n      tag_25\n      swap2\n      swap1\n      tag_26\n      jump\t// in\n    tag_25:\n      mload(0x40)\n      dup1\n      swap2\n      sub\n      swap1\n      return\n        /* \"contracts/DNG.sol\":304:337  uint256 public totalSupply = 1e12 */\n    tag_4:\n      tag_27\n      tag_28\n      jump\t// in\n    tag_27:\n      mload(0x40)\n      tag_29\n      swap2\n      swap1\n      tag_30\n      jump\t// in\n    tag_29:\n      mload(0x40)\n      dup1\n      swap2\n      sub\n      swap1\n      return\n        /* \"contracts/DNG.sol\":1735:2143  function transferFrom(address _from, address _to, uint256 _value) public returns (bool) {\r... */\n    tag_5:\n      tag_31\n      0x04\n      dup1\n      calldatasize\n      sub\n      dup2\n      add\n      swap1\n      tag_32\n      swap2\n      swap1\n      tag_33\n      jump\t// in\n    tag_32:\n      tag_34\n      jump\t// in\n    tag_31:\n      mload(0x40)\n      tag_35\n      swap2\n      swap1\n      tag_26\n      jump\t// in\n    tag_35:\n      mload(0x40)\n      dup1\n      swap2\n      sub\n      swap1\n      return\n        /* \"contracts/DNG.sol\":3943:4052  function getData(bytes32 hash) public view returns (bytes memory) {\r... */\n    tag_6:\n      tag_36\n      0x04\n      dup1\n      calldatasize\n      sub\n      dup2\n      add\n      swap1\n      tag_37\n      swap2\n      swap1\n      tag_38\n      jump\t// in\n    tag_37:\n      tag_39\n      jump\t// in\n    tag_36:\n      mload(0x40)\n      tag_40\n      swap2\n      swap1\n      tag_41\n      jump\t// in\n    tag_40:\n      mload(0x40)\n      dup1\n      swap2\n      sub\n      swap1\n      return\n        /* \"contracts/DNG.sol\":2994:3129  function storeData3(bytes memory _data2) public {\r... */\n    tag_7:\n      tag_42\n      0x04\n      dup1\n      calldatasize\n      sub\n      dup2\n      add\n      swap1\n      tag_43\n      swap2\n      swap1\n      tag_44\n      jump\t// in\n    tag_43:\n      tag_45\n      jump\t// in\n    tag_42:\n      stop\n        /* \"contracts/DNG.sol\":3635:3840  function uploadData(bytes memory data) public {\r... */\n    tag_8:\n      tag_46\n      0x04\n      dup1\n      calldatasize\n      sub\n      dup2\n      add\n      swap1\n      tag_47\n      swap2\n      swap1\n      tag_44\n      jump\t// in\n    tag_47:\n      tag_48\n      jump\t// in\n    tag_46:\n      stop\n        /* \"contracts/DNG.sol\":2151:2504  function transferFrom2(address _from, address _to, uint256 _value) public {\r... */\n    tag_9:\n      tag_49\n      0x04\n      dup1\n      calldatasize\n      sub\n      dup2\n      add\n      swap1\n      tag_50\n      swap2\n      swap1\n      tag_33\n      jump\t// in\n    tag_50:\n      tag_51\n      jump\t// in\n    tag_49:\n      stop\n        /* \"contracts/DNG.sol\":344:389  mapping (address => uint256) public balanceOf */\n    tag_10:\n      tag_52\n      0x04\n      dup1\n      calldatasize\n      sub\n      dup2\n      add\n      swap1\n      tag_53\n      swap2\n      swap1\n      tag_54\n      jump\t// in\n    tag_53:\n      tag_55\n      jump\t// in\n    tag_52:\n      mload(0x40)\n      tag_56\n      swap2\n      swap1\n      tag_30\n      jump\t// in\n    tag_56:\n      mload(0x40)\n      dup1\n      swap2\n      sub\n      swap1\n      return\n        /* \"contracts/DNG.sol\":2740:2988  function storeData2(bytes memory data, bytes32 dataHash) public {\r... */\n    tag_11:\n      tag_57\n      0x04\n      dup1\n      calldatasize\n      sub\n      dup2\n      add\n      swap1\n      tag_58\n      swap2\n      swap1\n      tag_59\n      jump\t// in\n    tag_58:\n      tag_60\n      jump\t// in\n    tag_57:\n      stop\n        /* \"contracts/DNG.sol\":4063:4177  function getData2(bytes32 _dataHash) public view returns (bytes memory) {\r... */\n    tag_12:\n      tag_61\n      0x04\n      dup1\n      calldatasize\n      sub\n      dup2\n      add\n      swap1\n      tag_62\n      swap2\n      swap1\n      tag_38\n      jump\t// in\n    tag_62:\n      tag_63\n      jump\t// in\n    tag_61:\n      mload(0x40)\n      tag_64\n      swap2\n      swap1\n      tag_41\n      jump\t// in\n    tag_64:\n      mload(0x40)\n      dup1\n      swap2\n      sub\n      swap1\n      return\n        /* \"contracts/DNG.sol\":3848:3935  function getDataHash() public view returns (bytes32) {\r... */\n    tag_13:\n      tag_65\n      tag_66\n      jump\t// in\n    tag_65:\n      mload(0x40)\n      tag_67\n      swap2\n      swap1\n      tag_68\n      jump\t// in\n    tag_67:\n      mload(0x40)\n      dup1\n      swap2\n      sub\n      swap1\n      return\n        /* \"contracts/DNG.sol\":1044:1358  function transfer(address _to, uint256 _value) public returns (bool) {\r... */\n    tag_14:\n      tag_69\n      0x04\n      dup1\n      calldatasize\n      sub\n      dup2\n      add\n      swap1\n      tag_70\n      swap2\n      swap1\n      tag_23\n      jump\t// in\n    tag_70:\n      tag_71\n      jump\t// in\n    tag_69:\n      mload(0x40)\n      tag_72\n      swap2\n      swap1\n      tag_26\n      jump\t// in\n    tag_72:\n      mload(0x40)\n      dup1\n      swap2\n      sub\n      swap1\n      return\n        /* \"contracts/DNG.sol\":3137:3629  function storeData(bytes memory data) public {\r... */\n    tag_15:\n      tag_73\n      0x04\n      dup1\n      calldatasize\n      sub\n      dup2\n      add\n      swap1\n      tag_74\n      swap2\n      swap1\n      tag_44\n      jump\t// in\n    tag_74:\n      tag_75\n      jump\t// in\n    tag_73:\n      stop\n        /* \"contracts/DNG.sol\":1586:1723  function allowance2(address _owner, address _spender) public view returns (uint256) {\r... */\n    tag_16:\n      tag_76\n      0x04\n      dup1\n      calldatasize\n      sub\n      dup2\n      add\n      swap1\n      tag_77\n      swap2\n      swap1\n      tag_78\n      jump\t// in\n    tag_77:\n      tag_79\n      jump\t// in\n    tag_76:\n      mload(0x40)\n      tag_80\n      swap2\n      swap1\n      tag_30\n      jump\t// in\n    tag_80:\n      mload(0x40)\n      dup1\n      swap2\n      sub\n      swap1\n      return\n        /* \"contracts/DNG.sol\":396:462  mapping (address => mapping (address => uint256)) public allowance */\n    tag_17:\n      tag_81\n      0x04\n      dup1\n      calldatasize\n      sub\n      dup2\n      add\n      swap1\n      tag_82\n      swap2\n      swap1\n      tag_78\n      jump\t// in\n    tag_82:\n      tag_83\n      jump\t// in\n    tag_81:\n      mload(0x40)\n      tag_84\n      swap2\n      swap1\n      tag_30\n      jump\t// in\n    tag_84:\n      mload(0x40)\n      dup1\n      swap2\n      sub\n      swap1\n      return\n        /* \"contracts/DNG.sol\":1370:1578  function approve(address _spender, uint256 _value) public returns (bool) {\r... */\n    tag_24:\n        /* \"contracts/DNG.sol\":1437:1441  bool */\n      0x00\n        /* \"contracts/DNG.sol\":1488:1494  _value */\n      dup2\n        /* \"contracts/DNG.sol\":1454:1463  allowance */\n      0x02\n        /* \"contracts/DNG.sol\":1454:1475  allowance[msg.sender] */\n      0x00\n        /* \"contracts/DNG.sol\":1464:1474  msg.sender */\n      caller\n        /* \"contracts/DNG.sol\":1454:1475  allowance[msg.sender] */\n      0xffffffffffffffffffffffffffffffffffffffff\n      and\n      0xffffffffffffffffffffffffffffffffffffffff\n      and\n      dup2\n      mstore\n      0x20\n      add\n      swap1\n      dup2\n      mstore\n      0x20\n      add\n      0x00\n      keccak256\n        /* \"contracts/DNG.sol\":1454:1485  allowance[msg.sender][_spender] */\n      0x00\n        /* \"contracts/DNG.sol\":1476:1484  _spender */\n      dup6\n        /* \"contracts/DNG.sol\":1454:1485  allowance[msg.sender][_spender] */\n      0xffffffffffffffffffffffffffffffffffffffff\n      and\n      0xffffffffffffffffffffffffffffffffffffffff\n      and\n      dup2\n      mstore\n      0x20\n      add\n      swap1\n      dup2\n      mstore\n      0x20\n      add\n      0x00\n      keccak256\n        /* \"contracts/DNG.sol\":1454:1494  allowance[msg.sender][_spender] = _value */\n      dup2\n      swap1\n      sstore\n      pop\n        /* \"contracts/DNG.sol\":1531:1539  _spender */\n      dup3\n        /* \"contracts/DNG.sol\":1510:1548  Approval(msg.sender, _spender, _value) */\n      0xffffffffffffffffffffffffffffffffffffffff\n      and\n        /* \"contracts/DNG.sol\":1519:1529  msg.sender */\n      caller\n        /* \"contracts/DNG.sol\":1510:1548  Approval(msg.sender, _spender, _value) */\n      0xffffffffffffffffffffffffffffffffffffffff\n      and\n      0x8c5be1e5ebec7d5bd14f71427d1e84f3dd0314c0f7b2291e5b200ac8c7c3b925\n        /* \"contracts/DNG.sol\":1541:1547  _value */\n      dup5\n        /* \"contracts/DNG.sol\":1510:1548  Approval(msg.sender, _spender, _value) */\n      mload(0x40)\n      tag_86\n      swap2\n      swap1\n      tag_30\n      jump\t// in\n    tag_86:\n      mload(0x40)\n      dup1\n      swap2\n      sub\n      swap1\n      log3\n        /* \"contracts/DNG.sol\":1566:1570  true */\n      0x01\n        /* \"contracts/DNG.sol\":1559:1570  return true */\n      swap1\n      pop\n        /* \"contracts/DNG.sol\":1370:1578  function approve(address _spender, uint256 _value) public returns (bool) {\r... */\n      swap3\n      swap2\n      pop\n      pop\n      jump\t// out\n        /* \"contracts/DNG.sol\":304:337  uint256 public totalSupply = 1e12 */\n    tag_28:\n      sload(0x00)\n      dup2\n      jump\t// out\n        /* \"contracts/DNG.sol\":1735:2143  function transferFrom(address _from, address _to, uint256 _value) public returns (bool) {\r... */\n    tag_34:\n        /* \"contracts/DNG.sol\":1817:1821  bool */\n      0x00\n        /* \"contracts/DNG.sol\":1862:1868  _value */\n      dup2\n        /* \"contracts/DNG.sol\":1842:1851  balanceOf */\n      0x01\n        /* \"contracts/DNG.sol\":1842:1858  balanceOf[_from] */\n      0x00\n        /* \"contracts/DNG.sol\":1852:1857  _from */\n      dup7\n        /* \"contracts/DNG.sol\":1842:1858  balanceOf[_from] */\n      0xffffffffffffffffffffffffffffffffffffffff\n      and\n      0xffffffffffffffffffffffffffffffffffffffff\n      and\n      dup2\n      mstore\n      0x20\n      add\n      swap1\n      dup2\n      mstore\n      0x20\n      add\n      0x00\n      keccak256\n      sload\n        /* \"contracts/DNG.sol\":1842:1868  balanceOf[_from] >= _value */\n      lt\n      iszero\n        /* \"contracts/DNG.sol\":1842:1910  balanceOf[_from] >= _value && allowance[_from][msg.sender] >= _value */\n      dup1\n      iszero\n      tag_88\n      jumpi\n      pop\n        /* \"contracts/DNG.sol\":1904:1910  _value */\n      dup2\n        /* \"contracts/DNG.sol\":1872:1881  allowance */\n      0x02\n        /* \"contracts/DNG.sol\":1872:1888  allowance[_from] */\n      0x00\n        /* \"contracts/DNG.sol\":1882:1887  _from */\n      dup7\n        /* \"contracts/DNG.sol\":1872:1888  allowance[_from] */\n      0xffffffffffffffffffffffffffffffffffffffff\n      and\n      0xffffffffffffffffffffffffffffffffffffffff\n      and\n      dup2\n      mstore\n      0x20\n      add\n      swap1\n      dup2\n      mstore\n      0x20\n      add\n      0x00\n      keccak256\n        /* \"contracts/DNG.sol\":1872:1900  allowance[_from][msg.sender] */\n      0x00\n        /* \"contracts/DNG.sol\":1889:1899  msg.sender */\n      caller\n        /* \"contracts/DNG.sol\":1872:1900  allowance[_from][msg.sender] */\n      0xffffffffffffffffffffffffffffffffffffffff\n      and\n      0xffffffffffffffffffffffffffffffffffffffff\n      and\n      dup2\n      mstore\n      0x20\n      add\n      swap1\n      dup2\n      mstore\n      0x20\n      add\n      0x00\n      keccak256\n      sload\n        /* \"contracts/DNG.sol\":1872:1910  allowance[_from][msg.sender] >= _value */\n      lt\n      iszero\n        /* \"contracts/DNG.sol\":1842:1910  balanceOf[_from] >= _value && allowance[_from][msg.sender] >= _value */\n    tag_88:\n        /* \"contracts/DNG.sol\":1834:1948  require(balanceOf[_from] >= _value && allowance[_from][msg.sender] >= _value, \"Insufficient balance or allowance\") */\n      tag_89\n      jumpi\n      mload(0x40)\n      0x08c379a000000000000000000000000000000000000000000000000000000000\n      dup2\n      mstore\n      0x04\n      add\n      tag_90\n      swap1\n      tag_91\n      jump\t// in\n    tag_90:\n      mload(0x40)\n      dup1\n      swap2\n      sub\n      swap1\n      revert\n    tag_89:\n        /* \"contracts/DNG.sol\":1979:1985  _value */\n      dup2\n        /* \"contracts/DNG.sol\":1959:1968  balanceOf */\n      0x01\n        /* \"contracts/DNG.sol\":1959:1975  balanceOf[_from] */\n      0x00\n        /* \"contracts/DNG.sol\":1969:1974  _from */\n      dup7\n        /* \"contracts/DNG.sol\":1959:1975  balanceOf[_from] */\n      0xffffffffffffffffffffffffffffffffffffffff\n      and\n      0xffffffffffffffffffffffffffffffffffffffff\n      and\n      dup2\n      mstore\n      0x20\n      add\n      swap1\n      dup2\n      mstore\n      0x20\n      add\n      0x00\n      keccak256\n      0x00\n        /* \"contracts/DNG.sol\":1959:1985  balanceOf[_from] -= _value */\n      dup3\n      dup3\n      sload\n      tag_92\n      swap2\n      swap1\n      tag_93\n      jump\t// in\n    tag_92:\n      swap3\n      pop\n      pop\n      dup2\n      swap1\n      sstore\n      pop\n        /* \"contracts/DNG.sol\":2014:2020  _value */\n      dup2\n        /* \"contracts/DNG.sol\":1996:2005  balanceOf */\n      0x01\n        /* \"contracts/DNG.sol\":1996:2010  balanceOf[_to] */\n      0x00\n        /* \"contracts/DNG.sol\":2006:2009  _to */\n      dup6\n        /* \"contracts/DNG.sol\":1996:2010  balanceOf[_to] */\n      0xffffffffffffffffffffffffffffffffffffffff\n      and\n      0xffffffffffffffffffffffffffffffffffffffff\n      and\n      dup2\n      mstore\n      0x20\n      add\n      swap1\n      dup2\n      mstore\n      0x20\n      add\n      0x00\n      keccak256\n      0x00\n        /* \"contracts/DNG.sol\":1996:2020  balanceOf[_to] += _value */\n      dup3\n      dup3\n      sload\n      tag_94\n      swap2\n      swap1\n      tag_95\n      jump\t// in\n    tag_94:\n      swap3\n      pop\n      pop\n      dup2\n      swap1\n      sstore\n      pop\n        /* \"contracts/DNG.sol\":2063:2069  _value */\n      dup2\n        /* \"contracts/DNG.sol\":2031:2040  allowance */\n      0x02\n        /* \"contracts/DNG.sol\":2031:2047  allowance[_from] */\n      0x00\n        /* \"contracts/DNG.sol\":2041:2046  _from */\n      dup7\n        /* \"contracts/DNG.sol\":2031:2047  allowance[_from] */\n      0xffffffffffffffffffffffffffffffffffffffff\n      and\n      0xffffffffffffffffffffffffffffffffffffffff\n      and\n      dup2\n      mstore\n      0x20\n      add\n      swap1\n      dup2\n      mstore\n      0x20\n      add\n      0x00\n      keccak256\n        /* \"contracts/DNG.sol\":2031:2059  allowance[_from][msg.sender] */\n      0x00\n        /* \"contracts/DNG.sol\":2048:2058  msg.sender */\n      caller\n        /* \"contracts/DNG.sol\":2031:2059  allowance[_from][msg.sender] */\n      0xffffffffffffffffffffffffffffffffffffffff\n      and\n      0xffffffffffffffffffffffffffffffffffffffff\n      and\n      dup2\n      mstore\n      0x20\n      add\n      swap1\n      dup2\n      mstore\n      0x20\n      add\n      0x00\n      keccak256\n      0x00\n        /* \"contracts/DNG.sol\":2031:2069  allowance[_from][msg.sender] -= _value */\n      dup3\n      dup3\n      sload\n      tag_96\n      swap2\n      swap1\n      tag_93\n      jump\t// in\n    tag_96:\n      swap3\n      pop\n      pop\n      dup2\n      swap1\n      sstore\n      pop\n        /* \"contracts/DNG.sol\":2101:2104  _to */\n      dup3\n        /* \"contracts/DNG.sol\":2085:2113  Transfer(_from, _to, _value) */\n      0xffffffffffffffffffffffffffffffffffffffff\n      and\n        /* \"contracts/DNG.sol\":2094:2099  _from */\n      dup5\n        /* \"contracts/DNG.sol\":2085:2113  Transfer(_from, _to, _value) */\n      0xffffffffffffffffffffffffffffffffffffffff\n      and\n      0xddf252ad1be2c89b69c2b068fc378daa952ba7f163c4a11628f55a4df523b3ef\n        /* \"contracts/DNG.sol\":2106:2112  _value */\n      dup5\n        /* \"contracts/DNG.sol\":2085:2113  Transfer(_from, _to, _value) */\n      mload(0x40)\n      tag_97\n      swap2\n      swap1\n      tag_30\n      jump\t// in\n    tag_97:\n      mload(0x40)\n      dup1\n      swap2\n      sub\n      swap1\n      log3\n        /* \"contracts/DNG.sol\":2131:2135  true */\n      0x01\n        /* \"contracts/DNG.sol\":2124:2135  return true */\n      swap1\n      pop\n        /* \"contracts/DNG.sol\":1735:2143  function transferFrom(address _from, address _to, uint256 _value) public returns (bool) {\r... */\n      swap4\n      swap3\n      pop\n      pop\n      pop\n      jump\t// out\n        /* \"contracts/DNG.sol\":3943:4052  function getData(bytes32 hash) public view returns (bytes memory) {\r... */\n    tag_39:\n        /* \"contracts/DNG.sol\":3995:4007  bytes memory */\n      0x60\n        /* \"contracts/DNG.sol\":4027:4038  dataStorage */\n      0x03\n        /* \"contracts/DNG.sol\":4027:4044  dataStorage[hash] */\n      0x00\n        /* \"contracts/DNG.sol\":4039:4043  hash */\n      dup4\n        /* \"contracts/DNG.sol\":4027:4044  dataStorage[hash] */\n      dup2\n      mstore\n      0x20\n      add\n      swap1\n      dup2\n      mstore\n      0x20\n      add\n      0x00\n      keccak256\n        /* \"contracts/DNG.sol\":4020:4044  return dataStorage[hash] */\n      dup1\n      sload\n      tag_99\n      swap1\n      tag_100\n      jump\t// in\n    tag_99:\n      dup1\n      0x1f\n      add\n      0x20\n      dup1\n      swap2\n      div\n      mul\n      0x20\n      add\n      mload(0x40)\n      swap1\n      dup2\n      add\n      0x40\n      mstore\n      dup1\n      swap3\n      swap2\n      swap1\n      dup2\n      dup2\n      mstore\n      0x20\n      add\n      dup3\n      dup1\n      sload\n      tag_101\n      swap1\n      tag_100\n      jump\t// in\n    tag_101:\n      dup1\n      iszero\n      tag_102\n      jumpi\n      dup1\n      0x1f\n      lt\n      tag_103\n      jumpi\n      0x0100\n      dup1\n      dup4\n      sload\n      div\n      mul\n      dup4\n      mstore\n      swap2\n      0x20\n      add\n      swap2\n      jump(tag_102)\n    tag_103:\n      dup3\n      add\n      swap2\n      swap1\n      0x00\n      mstore\n      keccak256(0x00, 0x20)\n      swap1\n    tag_104:\n      dup2\n      sload\n      dup2\n      mstore\n      swap1\n      0x01\n      add\n      swap1\n      0x20\n      add\n      dup1\n      dup4\n      gt\n      tag_104\n      jumpi\n      dup3\n      swap1\n      sub\n      0x1f\n      and\n      dup3\n      add\n      swap2\n    tag_102:\n      pop\n      pop\n      pop\n      pop\n      pop\n      swap1\n      pop\n        /* \"contracts/DNG.sol\":3943:4052  function getData(bytes32 hash) public view returns (bytes memory) {\r... */\n      swap2\n      swap1\n      pop\n      jump\t// out\n        /* \"contracts/DNG.sol\":2994:3129  function storeData3(bytes memory _data2) public {\r... */\n    tag_45:\n        /* \"contracts/DNG.sol\":3053:3069  bytes32 dataHash */\n      0x00\n        /* \"contracts/DNG.sol\":3072:3086  sha256(_data2) */\n      0x02\n        /* \"contracts/DNG.sol\":3079:3085  _data2 */\n      dup3\n        /* \"contracts/DNG.sol\":3072:3086  sha256(_data2) */\n      mload(0x40)\n      tag_106\n      swap2\n      swap1\n      tag_107\n      jump\t// in\n    tag_106:\n      0x20\n      mload(0x40)\n      dup1\n      dup4\n      sub\n      dup2\n      dup6\n      gas\n      staticcall\n      iszero\n      dup1\n      iszero\n      tag_109\n      jumpi\n      returndatasize\n      0x00\n      dup1\n      returndatacopy\n      revert(0x00, returndatasize)\n    tag_109:\n      pop\n      pop\n      pop\n      mload(0x40)\n      returndatasize\n      not(0x1f)\n      0x1f\n      dup3\n      add\n      and\n      dup3\n      add\n      dup1\n      0x40\n      mstore\n      pop\n      dup2\n      add\n      swap1\n      tag_110\n      swap2\n      swap1\n      tag_111\n      jump\t// in\n    tag_110:\n        /* \"contracts/DNG.sol\":3053:3086  bytes32 dataHash = sha256(_data2) */\n      swap1\n      pop\n        /* \"contracts/DNG.sol\":3115:3121  _data2 */\n      dup2\n        /* \"contracts/DNG.sol\":3097:3102  data2 */\n      0x04\n        /* \"contracts/DNG.sol\":3097:3112  data2[dataHash] */\n      0x00\n        /* \"contracts/DNG.sol\":3103:3111  dataHash */\n      dup4\n        /* \"contracts/DNG.sol\":3097:3112  data2[dataHash] */\n      dup2\n      mstore\n      0x20\n      add\n      swap1\n      dup2\n      mstore\n      0x20\n      add\n      0x00\n      keccak256\n        /* \"contracts/DNG.sol\":3097:3121  data2[dataHash] = _data2 */\n      swap1\n      dup1\n      mload\n      swap1\n      0x20\n      add\n      swap1\n      tag_112\n      swap3\n      swap2\n      swap1\n      tag_113\n      jump\t// in\n    tag_112:\n      pop\n        /* \"contracts/DNG.sol\":3042:3129  {\r... */\n      pop\n        /* \"contracts/DNG.sol\":2994:3129  function storeData3(bytes memory _data2) public {\r... */\n      pop\n      jump\t// out\n        /* \"contracts/DNG.sol\":3635:3840  function uploadData(bytes memory data) public {\r... */\n    tag_48:\n        /* \"contracts/DNG.sol\":3715:3723  10485760 */\n      0xa00000\n        /* \"contracts/DNG.sol\":3700:3704  data */\n      dup2\n        /* \"contracts/DNG.sol\":3700:3711  data.length */\n      mload\n        /* \"contracts/DNG.sol\":3700:3723  data.length <= 10485760 */\n      gt\n      iszero\n        /* \"contracts/DNG.sol\":3692:3756  require(data.length <= 10485760, \"Data size exceeds 10MB limit\") */\n      tag_115\n      jumpi\n      mload(0x40)\n      0x08c379a000000000000000000000000000000000000000000000000000000000\n      dup2\n      mstore\n      0x04\n      add\n      tag_116\n      swap1\n      tag_117\n      jump\t// in\n    tag_116:\n      mload(0x40)\n      dup1\n      swap2\n      sub\n      swap1\n      revert\n    tag_115:\n        /* \"contracts/DNG.sol\":3788:3792  data */\n      dup1\n        /* \"contracts/DNG.sol\":3778:3793  keccak256(data) */\n      dup1\n      mload\n      swap1\n      0x20\n      add\n      keccak256\n        /* \"contracts/DNG.sol\":3767:3775  dataHash */\n      0x05\n        /* \"contracts/DNG.sol\":3767:3793  dataHash = keccak256(data) */\n      dup2\n      swap1\n      sstore\n      pop\n        /* \"contracts/DNG.sol\":3828:3832  data */\n      dup1\n        /* \"contracts/DNG.sol\":3804:3815  dataStorage */\n      0x03\n        /* \"contracts/DNG.sol\":3804:3825  dataStorage[dataHash] */\n      0x00\n        /* \"contracts/DNG.sol\":3816:3824  dataHash */\n      sload(0x05)\n        /* \"contracts/DNG.sol\":3804:3825  dataStorage[dataHash] */\n      dup2\n      mstore\n      0x20\n      add\n      swap1\n      dup2\n      mstore\n      0x20\n      add\n      0x00\n      keccak256\n        /* \"contracts/DNG.sol\":3804:3832  dataStorage[dataHash] = data */\n      swap1\n      dup1\n      mload\n      swap1\n      0x20\n      add\n      swap1\n      tag_118\n      swap3\n      swap2\n      swap1\n      tag_113\n      jump\t// in\n    tag_118:\n      pop\n        /* \"contracts/DNG.sol\":3635:3840  function uploadData(bytes memory data) public {\r... */\n      pop\n      jump\t// out\n        /* \"contracts/DNG.sol\":2151:2504  function transferFrom2(address _from, address _to, uint256 _value) public {\r... */\n    tag_51:\n        /* \"contracts/DNG.sol\":2264:2270  _value */\n      dup1\n        /* \"contracts/DNG.sol\":2244:2253  balanceOf */\n      0x01\n        /* \"contracts/DNG.sol\":2244:2260  balanceOf[_from] */\n      0x00\n        /* \"contracts/DNG.sol\":2254:2259  _from */\n      dup6\n        /* \"contracts/DNG.sol\":2244:2260  balanceOf[_from] */\n      0xffffffffffffffffffffffffffffffffffffffff\n      and\n      0xffffffffffffffffffffffffffffffffffffffff\n      and\n      dup2\n      mstore\n      0x20\n      add\n      swap1\n      dup2\n      mstore\n      0x20\n      add\n      0x00\n      keccak256\n      sload\n        /* \"contracts/DNG.sol\":2244:2270  balanceOf[_from] >= _value */\n      lt\n      iszero\n        /* \"contracts/DNG.sol\":2236:2293  require(balanceOf[_from] >= _value, \"Not enough balance\") */\n      tag_120\n      jumpi\n      mload(0x40)\n      0x08c379a000000000000000000000000000000000000000000000000000000000\n      dup2\n      mstore\n      0x04\n      add\n      tag_121\n      swap1\n      tag_122\n      jump\t// in\n    tag_121:\n      mload(0x40)\n      dup1\n      swap2\n      sub\n      swap1\n      revert\n    tag_120:\n        /* \"contracts/DNG.sol\":2344:2350  _value */\n      dup1\n        /* \"contracts/DNG.sol\":2312:2321  allowance */\n      0x02\n        /* \"contracts/DNG.sol\":2312:2328  allowance[_from] */\n      0x00\n        /* \"contracts/DNG.sol\":2322:2327  _from */\n      dup6\n        /* \"contracts/DNG.sol\":2312:2328  allowance[_from] */\n      0xffffffffffffffffffffffffffffffffffffffff\n      and\n      0xffffffffffffffffffffffffffffffffffffffff\n      and\n      dup2\n      mstore\n      0x20\n      add\n      swap1\n      dup2\n      mstore\n      0x20\n      add\n      0x00\n      keccak256\n        /* \"contracts/DNG.sol\":2312:2340  allowance[_from][msg.sender] */\n      0x00\n        /* \"contracts/DNG.sol\":2329:2339  msg.sender */\n      caller\n        /* \"contracts/DNG.sol\":2312:2340  allowance[_from][msg.sender] */\n      0xffffffffffffffffffffffffffffffffffffffff\n      and\n      0xffffffffffffffffffffffffffffffffffffffff\n      and\n      dup2\n      mstore\n      0x20\n      add\n      swap1\n      dup2\n      mstore\n      0x20\n      add\n      0x00\n      keccak256\n      sload\n        /* \"contracts/DNG.sol\":2312:2350  allowance[_from][msg.sender] >= _value */\n      lt\n      iszero\n        /* \"contracts/DNG.sol\":2304:2375  require(allowance[_from][msg.sender] >= _value, \"Not enough allowance\") */\n      tag_123\n      jumpi\n      mload(0x40)\n      0x08c379a000000000000000000000000000000000000000000000000000000000\n      dup2\n      mstore\n      0x04\n      add\n      tag_124\n      swap1\n      tag_125\n      jump\t// in\n    tag_124:\n      mload(0x40)\n      dup1\n      swap2\n      sub\n      swap1\n      revert\n    tag_123:\n        /* \"contracts/DNG.sol\":2406:2412  _value */\n      dup1\n        /* \"contracts/DNG.sol\":2386:2395  balanceOf */\n      0x01\n        /* \"contracts/DNG.sol\":2386:2402  balanceOf[_from] */\n      0x00\n        /* \"contracts/DNG.sol\":2396:2401  _from */\n      dup6\n        /* \"contracts/DNG.sol\":2386:2402  balanceOf[_from] */\n      0xffffffffffffffffffffffffffffffffffffffff\n      and\n      0xffffffffffffffffffffffffffffffffffffffff\n      and\n      dup2\n      mstore\n      0x20\n      add\n      swap1\n      dup2\n      mstore\n      0x20\n      add\n      0x00\n      keccak256\n      0x00\n        /* \"contracts/DNG.sol\":2386:2412  balanceOf[_from] -= _value */\n      dup3\n      dup3\n      sload\n      tag_126\n      swap2\n      swap1\n      tag_93\n      jump\t// in\n    tag_126:\n      swap3\n      pop\n      pop\n      dup2\n      swap1\n      sstore\n      pop\n        /* \"contracts/DNG.sol\":2455:2461  _value */\n      dup1\n        /* \"contracts/DNG.sol\":2423:2432  allowance */\n      0x02\n        /* \"contracts/DNG.sol\":2423:2439  allowance[_from] */\n      0x00\n        /* \"contracts/DNG.sol\":2433:2438  _from */\n      dup6\n        /* \"contracts/DNG.sol\":2423:2439  allowance[_from] */\n      0xffffffffffffffffffffffffffffffffffffffff\n      and\n      0xffffffffffffffffffffffffffffffffffffffff\n      and\n      dup2\n      mstore\n      0x20\n      add\n      swap1\n      dup2\n      mstore\n      0x20\n      add\n      0x00\n      keccak256\n        /* \"contracts/DNG.sol\":2423:2451  allowance[_from][msg.sender] */\n      0x00\n        /* \"contracts/DNG.sol\":2440:2450  msg.sender */\n      caller\n        /* \"contracts/DNG.sol\":2423:2451  allowance[_from][msg.sender] */\n      0xffffffffffffffffffffffffffffffffffffffff\n      and\n      0xffffffffffffffffffffffffffffffffffffffff\n      and\n      dup2\n      mstore\n      0x20\n      add\n      swap1\n      dup2\n      mstore\n      0x20\n      add\n      0x00\n      keccak256\n      0x00\n        /* \"contracts/DNG.sol\":2423:2461  allowance[_from][msg.sender] -= _value */\n      dup3\n      dup3\n      sload\n      tag_127\n      swap2\n      swap1\n      tag_93\n      jump\t// in\n    tag_127:\n      swap3\n      pop\n      pop\n      dup2\n      swap1\n      sstore\n      pop\n        /* \"contracts/DNG.sol\":2490:2496  _value */\n      dup1\n        /* \"contracts/DNG.sol\":2472:2481  balanceOf */\n      0x01\n        /* \"contracts/DNG.sol\":2472:2486  balanceOf[_to] */\n      0x00\n        /* \"contracts/DNG.sol\":2482:2485  _to */\n      dup5\n        /* \"contracts/DNG.sol\":2472:2486  balanceOf[_to] */\n      0xffffffffffffffffffffffffffffffffffffffff\n      and\n      0xffffffffffffffffffffffffffffffffffffffff\n      and\n      dup2\n      mstore\n      0x20\n      add\n      swap1\n      dup2\n      mstore\n      0x20\n      add\n      0x00\n      keccak256\n      0x00\n        /* \"contracts/DNG.sol\":2472:2496  balanceOf[_to] += _value */\n      dup3\n      dup3\n      sload\n      tag_128\n      swap2\n      swap1\n      tag_95\n      jump\t// in\n    tag_128:\n      swap3\n      pop\n      pop\n      dup2\n      swap1\n      sstore\n      pop\n        /* \"contracts/DNG.sol\":2151:2504  function transferFrom2(address _from, address _to, uint256 _value) public {\r... */\n      pop\n      pop\n      pop\n      jump\t// out\n        /* \"contracts/DNG.sol\":344:389  mapping (address => uint256) public balanceOf */\n    tag_55:\n      mstore(0x20, 0x01)\n      dup1\n      0x00\n      mstore\n      keccak256(0x00, 0x40)\n      0x00\n      swap2\n      pop\n      swap1\n      pop\n      sload\n      dup2\n      jump\t// out\n        /* \"contracts/DNG.sol\":2740:2988  function storeData2(bytes memory data, bytes32 dataHash) public {\r... */\n    tag_60:\n        /* \"contracts/DNG.sol\":2838:2854  10 * 1024 * 1024 */\n      0xa00000\n        /* \"contracts/DNG.sol\":2823:2827  data */\n      dup3\n        /* \"contracts/DNG.sol\":2823:2834  data.length */\n      mload\n        /* \"contracts/DNG.sol\":2823:2854  data.length <= 10 * 1024 * 1024 */\n      gt\n      iszero\n        /* \"contracts/DNG.sol\":2815:2894  require(data.length <= 10 * 1024 * 1024, \"Data size exceeds the limit of 10MB\") */\n      tag_130\n      jumpi\n      mload(0x40)\n      0x08c379a000000000000000000000000000000000000000000000000000000000\n      dup2\n      mstore\n      0x04\n      add\n      tag_131\n      swap1\n      tag_132\n      jump\t// in\n    tag_131:\n      mload(0x40)\n      dup1\n      swap2\n      sub\n      swap1\n      revert\n    tag_130:\n        /* \"contracts/DNG.sol\":2929:2933  data */\n      dup2\n        /* \"contracts/DNG.sol\":2905:2916  dataStorage */\n      0x03\n        /* \"contracts/DNG.sol\":2905:2926  dataStorage[dataHash] */\n      0x00\n        /* \"contracts/DNG.sol\":2917:2925  dataHash */\n      dup4\n        /* \"contracts/DNG.sol\":2905:2926  dataStorage[dataHash] */\n      dup2\n      mstore\n      0x20\n      add\n      swap1\n      dup2\n      mstore\n      0x20\n      add\n      0x00\n      keccak256\n        /* \"contracts/DNG.sol\":2905:2933  dataStorage[dataHash] = data */\n      swap1\n      dup1\n      mload\n      swap1\n      0x20\n      add\n      swap1\n      tag_133\n      swap3\n      swap2\n      swap1\n      tag_113\n      jump\t// in\n    tag_133:\n      pop\n        /* \"contracts/DNG.sol\":2971:2979  dataHash */\n      dup1\n        /* \"contracts/DNG.sol\":2959:2969  msg.sender */\n      caller\n        /* \"contracts/DNG.sol\":2949:2980  StoreData(msg.sender, dataHash) */\n      0xffffffffffffffffffffffffffffffffffffffff\n      and\n      0xed4db59f1764789ecac8e436bc4ffbd671282c22b4d3860cba3aaf331b45f6cb\n      mload(0x40)\n      mload(0x40)\n      dup1\n      swap2\n      sub\n      swap1\n      log3\n        /* \"contracts/DNG.sol\":2740:2988  function storeData2(bytes memory data, bytes32 dataHash) public {\r... */\n      pop\n      pop\n      jump\t// out\n        /* \"contracts/DNG.sol\":4063:4177  function getData2(bytes32 _dataHash) public view returns (bytes memory) {\r... */\n    tag_63:\n        /* \"contracts/DNG.sol\":4121:4133  bytes memory */\n      0x60\n        /* \"contracts/DNG.sol\":4153:4158  data2 */\n      0x04\n        /* \"contracts/DNG.sol\":4153:4169  data2[_dataHash] */\n      0x00\n        /* \"contracts/DNG.sol\":4159:4168  _dataHash */\n      dup4\n        /* \"contracts/DNG.sol\":4153:4169  data2[_dataHash] */\n      dup2\n      mstore\n      0x20\n      add\n      swap1\n      dup2\n      mstore\n      0x20\n      add\n      0x00\n      keccak256\n        /* \"contracts/DNG.sol\":4146:4169  return data2[_dataHash] */\n      dup1\n      sload\n      tag_135\n      swap1\n      tag_100\n      jump\t// in\n    tag_135:\n      dup1\n      0x1f\n      add\n      0x20\n      dup1\n      swap2\n      div\n      mul\n      0x20\n      add\n      mload(0x40)\n      swap1\n      dup2\n      add\n      0x40\n      mstore\n      dup1\n      swap3\n      swap2\n      swap1\n      dup2\n      dup2\n      mstore\n      0x20\n      add\n      dup3\n      dup1\n      sload\n      tag_136\n      swap1\n      tag_100\n      jump\t// in\n    tag_136:\n      dup1\n      iszero\n      tag_137\n      jumpi\n      dup1\n      0x1f\n      lt\n      tag_138\n      jumpi\n      0x0100\n      dup1\n      dup4\n      sload\n      div\n      mul\n      dup4\n      mstore\n      swap2\n      0x20\n      add\n      swap2\n      jump(tag_137)\n    tag_138:\n      dup3\n      add\n      swap2\n      swap1\n      0x00\n      mstore\n      keccak256(0x00, 0x20)\n      swap1\n    tag_139:\n      dup2\n      sload\n      dup2\n      mstore\n      swap1\n      0x01\n      add\n      swap1\n      0x20\n      add\n      dup1\n      dup4\n      gt\n      tag_139\n      jumpi\n      dup3\n      swap1\n      sub\n      0x1f\n      and\n      dup3\n      add\n      swap2\n    tag_137:\n      pop\n      pop\n      pop\n      pop\n      pop\n      swap1\n      pop\n        /* \"contracts/DNG.sol\":4063:4177  function getData2(bytes32 _dataHash) public view returns (bytes memory) {\r... */\n      swap2\n      swap1\n      pop\n      jump\t// out\n        /* \"contracts/DNG.sol\":3848:3935  function getDataHash() public view returns (bytes32) {\r... */\n    tag_66:\n        /* \"contracts/DNG.sol\":3892:3899  bytes32 */\n      0x00\n        /* \"contracts/DNG.sol\":3919:3927  dataHash */\n      sload(0x05)\n        /* \"contracts/DNG.sol\":3912:3927  return dataHash */\n      swap1\n      pop\n        /* \"contracts/DNG.sol\":3848:3935  function getDataHash() public view returns (bytes32) {\r... */\n      swap1\n      jump\t// out\n        /* \"contracts/DNG.sol\":1044:1358  function transfer(address _to, uint256 _value) public returns (bool) {\r... */\n    tag_71:\n        /* \"contracts/DNG.sol\":1107:1111  bool */\n      0x00\n        /* \"contracts/DNG.sol\":1157:1163  _value */\n      dup2\n        /* \"contracts/DNG.sol\":1132:1141  balanceOf */\n      0x01\n        /* \"contracts/DNG.sol\":1132:1153  balanceOf[msg.sender] */\n      0x00\n        /* \"contracts/DNG.sol\":1142:1152  msg.sender */\n      caller\n        /* \"contracts/DNG.sol\":1132:1153  balanceOf[msg.sender] */\n      0xffffffffffffffffffffffffffffffffffffffff\n      and\n      0xffffffffffffffffffffffffffffffffffffffff\n      and\n      dup2\n      mstore\n      0x20\n      add\n      swap1\n      dup2\n      mstore\n      0x20\n      add\n      0x00\n      keccak256\n      sload\n        /* \"contracts/DNG.sol\":1132:1163  balanceOf[msg.sender] >= _value */\n      lt\n      iszero\n        /* \"contracts/DNG.sol\":1132:1177  balanceOf[msg.sender] >= _value && _value > 0 */\n      dup1\n      iszero\n      tag_142\n      jumpi\n      pop\n        /* \"contracts/DNG.sol\":1176:1177  0 */\n      0x00\n        /* \"contracts/DNG.sol\":1167:1173  _value */\n      dup3\n        /* \"contracts/DNG.sol\":1167:1177  _value > 0 */\n      gt\n        /* \"contracts/DNG.sol\":1132:1177  balanceOf[msg.sender] >= _value && _value > 0 */\n    tag_142:\n        /* \"contracts/DNG.sol\":1124:1202  require(balanceOf[msg.sender] >= _value && _value > 0, \"Insufficient balance\") */\n      tag_143\n      jumpi\n      mload(0x40)\n      0x08c379a000000000000000000000000000000000000000000000000000000000\n      dup2\n      mstore\n      0x04\n      add\n      tag_144\n      swap1\n      tag_145\n      jump\t// in\n    tag_144:\n      mload(0x40)\n      dup1\n      swap2\n      sub\n      swap1\n      revert\n    tag_143:\n        /* \"contracts/DNG.sol\":1238:1244  _value */\n      dup2\n        /* \"contracts/DNG.sol\":1213:1222  balanceOf */\n      0x01\n        /* \"contracts/DNG.sol\":1213:1234  balanceOf[msg.sender] */\n      0x00\n        /* \"contracts/DNG.sol\":1223:1233  msg.sender */\n      caller\n        /* \"contracts/DNG.sol\":1213:1234  balanceOf[msg.sender] */\n      0xffffffffffffffffffffffffffffffffffffffff\n      and\n      0xffffffffffffffffffffffffffffffffffffffff\n      and\n      dup2\n      mstore\n      0x20\n      add\n      swap1\n      dup2\n      mstore\n      0x20\n      add\n      0x00\n      keccak256\n      0x00\n        /* \"contracts/DNG.sol\":1213:1244  balanceOf[msg.sender] -= _value */\n      dup3\n      dup3\n      sload\n      tag_146\n      swap2\n      swap1\n      tag_93\n      jump\t// in\n    tag_146:\n      swap3\n      pop\n      pop\n      dup2\n      swap1\n      sstore\n      pop\n        /* \"contracts/DNG.sol\":1273:1279  _value */\n      dup2\n        /* \"contracts/DNG.sol\":1255:1264  balanceOf */\n      0x01\n        /* \"contracts/DNG.sol\":1255:1269  balanceOf[_to] */\n      0x00\n        /* \"contracts/DNG.sol\":1265:1268  _to */\n      dup6\n        /* \"contracts/DNG.sol\":1255:1269  balanceOf[_to] */\n      0xffffffffffffffffffffffffffffffffffffffff\n      and\n      0xffffffffffffffffffffffffffffffffffffffff\n      and\n      dup2\n      mstore\n      0x20\n      add\n      swap1\n      dup2\n      mstore\n      0x20\n      add\n      0x00\n      keccak256\n      0x00\n        /* \"contracts/DNG.sol\":1255:1279  balanceOf[_to] += _value */\n      dup3\n      dup3\n      sload\n      tag_147\n      swap2\n      swap1\n      tag_95\n      jump\t// in\n    tag_147:\n      swap3\n      pop\n      pop\n      dup2\n      swap1\n      sstore\n      pop\n        /* \"contracts/DNG.sol\":1316:1319  _to */\n      dup3\n        /* \"contracts/DNG.sol\":1295:1328  Transfer(msg.sender, _to, _value) */\n      0xffffffffffffffffffffffffffffffffffffffff\n      and\n        /* \"contracts/DNG.sol\":1304:1314  msg.sender */\n      caller\n        /* \"contracts/DNG.sol\":1295:1328  Transfer(msg.sender, _to, _value) */\n      0xffffffffffffffffffffffffffffffffffffffff\n      and\n      0xddf252ad1be2c89b69c2b068fc378daa952ba7f163c4a11628f55a4df523b3ef\n        /* \"contracts/DNG.sol\":1321:1327  _value */\n      dup5\n        /* \"contracts/DNG.sol\":1295:1328  Transfer(msg.sender, _to, _value) */\n      mload(0x40)\n      tag_148\n      swap2\n      swap1\n      tag_30\n      jump\t// in\n    tag_148:\n      mload(0x40)\n      dup1\n      swap2\n      sub\n      swap1\n      log3\n        /* \"contracts/DNG.sol\":1346:1350  true */\n      0x01\n        /* \"contracts/DNG.sol\":1339:1350  return true */\n      swap1\n      pop\n        /* \"contracts/DNG.sol\":1044:1358  function transfer(address _to, uint256 _value) public returns (bool) {\r... */\n      swap3\n      swap2\n      pop\n      pop\n      jump\t// out\n        /* \"contracts/DNG.sol\":3137:3629  function storeData(bytes memory data) public {\r... */\n    tag_75:\n        /* \"contracts/DNG.sol\":3216:3232  10 * 1024 * 1024 */\n      0xa00000\n        /* \"contracts/DNG.sol\":3201:3205  data */\n      dup2\n        /* \"contracts/DNG.sol\":3201:3212  data.length */\n      mload\n        /* \"contracts/DNG.sol\":3201:3232  data.length <= 10 * 1024 * 1024 */\n      gt\n      iszero\n        /* \"contracts/DNG.sol\":3193:3272  require(data.length <= 10 * 1024 * 1024, \"Data size exceeds the limit of 10MB\") */\n      tag_150\n      jumpi\n      mload(0x40)\n      0x08c379a000000000000000000000000000000000000000000000000000000000\n      dup2\n      mstore\n      0x04\n      add\n      tag_151\n      swap1\n      tag_132\n      jump\t// in\n    tag_151:\n      mload(0x40)\n      dup1\n      swap2\n      sub\n      swap1\n      revert\n    tag_150:\n        /* \"contracts/DNG.sol\":3313:3331  bytes32 binaryData */\n      0x00\n        /* \"contracts/DNG.sol\":3342:3346  data */\n      dup2\n        /* \"contracts/DNG.sol\":3334:3347  bytes32(data) */\n      tag_152\n      swap1\n      tag_153\n      jump\t// in\n    tag_152:\n        /* \"contracts/DNG.sol\":3313:3347  bytes32 binaryData = bytes32(data) */\n      swap1\n      pop\n        /* \"contracts/DNG.sol\":3388:3412  bytes memory encodedData */\n      0x00\n        /* \"contracts/DNG.sol\":3432:3442  binaryData */\n      dup2\n        /* \"contracts/DNG.sol\":3415:3443  abi.encodePacked(binaryData) */\n      add(0x20, mload(0x40))\n      tag_154\n      swap2\n      swap1\n      tag_155\n      jump\t// in\n    tag_154:\n      mload(0x40)\n      0x20\n      dup2\n      dup4\n      sub\n      sub\n      dup2\n      mstore\n      swap1\n      0x40\n      mstore\n        /* \"contracts/DNG.sol\":3388:3443  bytes memory encodedData = abi.encodePacked(binaryData) */\n      swap1\n      pop\n        /* \"contracts/DNG.sol\":3477:3488  encodedData */\n      dup1\n        /* \"contracts/DNG.sol\":3467:3489  keccak256(encodedData) */\n      dup1\n      mload\n      swap1\n      0x20\n      add\n      keccak256\n        /* \"contracts/DNG.sol\":3454:3489  binaryData = keccak256(encodedData) */\n      swap2\n      pop\n        /* \"contracts/DNG.sol\":3545:3561  bytes32 dataHash */\n      0x00\n        /* \"contracts/DNG.sol\":3564:3574  binaryData */\n      dup3\n        /* \"contracts/DNG.sol\":3545:3574  bytes32 dataHash = binaryData */\n      swap1\n      pop\n        /* \"contracts/DNG.sol\":3612:3620  dataHash */\n      dup1\n        /* \"contracts/DNG.sol\":3600:3610  msg.sender */\n      caller\n        /* \"contracts/DNG.sol\":3590:3621  StoreData(msg.sender, dataHash) */\n      0xffffffffffffffffffffffffffffffffffffffff\n      and\n      0xed4db59f1764789ecac8e436bc4ffbd671282c22b4d3860cba3aaf331b45f6cb\n      mload(0x40)\n      mload(0x40)\n      dup1\n      swap2\n      sub\n      swap1\n      log3\n        /* \"contracts/DNG.sol\":3182:3629  {\r... */\n      pop\n      pop\n      pop\n        /* \"contracts/DNG.sol\":3137:3629  function storeData(bytes memory data) public {\r... */\n      pop\n      jump\t// out\n        /* \"contracts/DNG.sol\":1586:1723  function allowance2(address _owner, address _spender) public view returns (uint256) {\r... */\n    tag_79:\n        /* \"contracts/DNG.sol\":1661:1668  uint256 */\n      0x00\n        /* \"contracts/DNG.sol\":1688:1697  allowance */\n      0x02\n        /* \"contracts/DNG.sol\":1688:1705  allowance[_owner] */\n      0x00\n        /* \"contracts/DNG.sol\":1698:1704  _owner */\n      dup5\n        /* \"contracts/DNG.sol\":1688:1705  allowance[_owner] */\n      0xffffffffffffffffffffffffffffffffffffffff\n      and\n      0xffffffffffffffffffffffffffffffffffffffff\n      and\n      dup2\n      mstore\n      0x20\n      add\n      swap1\n      dup2\n      mstore\n      0x20\n      add\n      0x00\n      keccak256\n        /* \"contracts/DNG.sol\":1688:1715  allowance[_owner][_spender] */\n      0x00\n        /* \"contracts/DNG.sol\":1706:1714  _spender */\n      dup4\n        /* \"contracts/DNG.sol\":1688:1715  allowance[_owner][_spender] */\n      0xffffffffffffffffffffffffffffffffffffffff\n      and\n      0xffffffffffffffffffffffffffffffffffffffff\n      and\n      dup2\n      mstore\n      0x20\n      add\n      swap1\n      dup2\n      mstore\n      0x20\n      add\n      0x00\n      keccak256\n      sload\n        /* \"contracts/DNG.sol\":1681:1715  return allowance[_owner][_spender] */\n      swap1\n      pop\n        /* \"contracts/DNG.sol\":1586:1723  function allowance2(address _owner, address _spender) public view returns (uint256) {\r... */\n      swap3\n      swap2\n      pop\n      pop\n      jump\t// out\n        /* \"contracts/DNG.sol\":396:462  mapping (address => mapping (address => uint256)) public allowance */\n    tag_83:\n      mstore(0x20, 0x02)\n      dup2\n      0x00\n      mstore\n      mstore(0x20, keccak256(0x00, 0x40))\n      dup1\n      0x00\n      mstore\n      keccak256(0x00, 0x40)\n      0x00\n      swap2\n      pop\n      swap2\n      pop\n      pop\n      sload\n      dup2\n      jump\t// out\n    tag_113:\n      dup3\n      dup1\n      sload\n      tag_157\n      swap1\n      tag_100\n      jump\t// in\n    tag_157:\n      swap1\n      0x00\n      mstore\n      keccak256(0x00, 0x20)\n      swap1\n      0x1f\n      add\n      0x20\n      swap1\n      div\n      dup2\n      add\n      swap3\n      dup3\n      tag_159\n      jumpi\n      0x00\n      dup6\n      sstore\n      jump(tag_158)\n    tag_159:\n      dup3\n      0x1f\n      lt\n      tag_160\n      jumpi\n      dup1\n      mload\n      not(0xff)\n      and\n      dup4\n      dup1\n      add\n      or\n      dup6\n      sstore\n      jump(tag_158)\n    tag_160:\n      dup3\n      dup1\n      add\n      0x01\n      add\n      dup6\n      sstore\n      dup3\n      iszero\n      tag_158\n      jumpi\n      swap2\n      dup3\n      add\n    tag_161:\n      dup3\n      dup2\n      gt\n      iszero\n      tag_162\n      jumpi\n      dup3\n      mload\n      dup3\n      sstore\n      swap2\n      0x20\n      add\n      swap2\n      swap1\n      0x01\n      add\n      swap1\n      jump(tag_161)\n    tag_162:\n    tag_158:\n      pop\n      swap1\n      pop\n      tag_163\n      swap2\n      swap1\n      tag_164\n      jump\t// in\n    tag_163:\n      pop\n      swap1\n      jump\t// out\n    tag_164:\n    tag_165:\n      dup1\n      dup3\n      gt\n      iszero\n      tag_166\n      jumpi\n      0x00\n      dup2\n      0x00\n      swap1\n      sstore\n      pop\n      0x01\n      add\n      jump(tag_165)\n    tag_166:\n      pop\n      swap1\n      jump\t// out\n        /* \"#utility.yul\":7:417   */\n    tag_168:\n        /* \"#utility.yul\":84:89   */\n      0x00\n        /* \"#utility.yul\":109:174   */\n      tag_170\n        /* \"#utility.yul\":125:173   */\n      tag_171\n        /* \"#utility.yul\":166:172   */\n      dup5\n        /* \"#utility.yul\":125:173   */\n      tag_172\n      jump\t// in\n    tag_171:\n        /* \"#utility.yul\":109:174   */\n      tag_173\n      jump\t// in\n    tag_170:\n        /* \"#utility.yul\":100:174   */\n      swap1\n      pop\n        /* \"#utility.yul\":197:203   */\n      dup3\n        /* \"#utility.yul\":190:195   */\n      dup2\n        /* \"#utility.yul\":183:204   */\n      mstore\n        /* \"#utility.yul\":235:239   */\n      0x20\n        /* \"#utility.yul\":228:233   */\n      dup2\n        /* \"#utility.yul\":224:240   */\n      add\n        /* \"#utility.yul\":273:276   */\n      dup5\n        /* \"#utility.yul\":264:270   */\n      dup5\n        /* \"#utility.yul\":259:262   */\n      dup5\n        /* \"#utility.yul\":255:271   */\n      add\n        /* \"#utility.yul\":252:277   */\n      gt\n        /* \"#utility.yul\":249:361   */\n      iszero\n      tag_174\n      jumpi\n        /* \"#utility.yul\":280:359   */\n      tag_175\n      tag_176\n      jump\t// in\n    tag_175:\n        /* \"#utility.yul\":249:361   */\n    tag_174:\n        /* \"#utility.yul\":370:411   */\n      tag_177\n        /* \"#utility.yul\":404:410   */\n      dup5\n        /* \"#utility.yul\":399:402   */\n      dup3\n        /* \"#utility.yul\":394:397   */\n      dup6\n        /* \"#utility.yul\":370:411   */\n      tag_178\n      jump\t// in\n    tag_177:\n        /* \"#utility.yul\":90:417   */\n      pop\n        /* \"#utility.yul\":7:417   */\n      swap4\n      swap3\n      pop\n      pop\n      pop\n      jump\t// out\n        /* \"#utility.yul\":423:562   */\n    tag_179:\n        /* \"#utility.yul\":469:474   */\n      0x00\n        /* \"#utility.yul\":507:513   */\n      dup2\n        /* \"#utility.yul\":494:514   */\n      calldataload\n        /* \"#utility.yul\":485:514   */\n      swap1\n      pop\n        /* \"#utility.yul\":523:556   */\n      tag_181\n        /* \"#utility.yul\":550:555   */\n      dup2\n        /* \"#utility.yul\":523:556   */\n      tag_182\n      jump\t// in\n    tag_181:\n        /* \"#utility.yul\":423:562   */\n      swap3\n      swap2\n      pop\n      pop\n      jump\t// out\n        /* \"#utility.yul\":568:707   */\n    tag_183:\n        /* \"#utility.yul\":614:619   */\n      0x00\n        /* \"#utility.yul\":652:658   */\n      dup2\n        /* \"#utility.yul\":639:659   */\n      calldataload\n        /* \"#utility.yul\":630:659   */\n      swap1\n      pop\n        /* \"#utility.yul\":668:701   */\n      tag_185\n        /* \"#utility.yul\":695:700   */\n      dup2\n        /* \"#utility.yul\":668:701   */\n      tag_186\n      jump\t// in\n    tag_185:\n        /* \"#utility.yul\":568:707   */\n      swap3\n      swap2\n      pop\n      pop\n      jump\t// out\n        /* \"#utility.yul\":713:856   */\n    tag_187:\n        /* \"#utility.yul\":770:775   */\n      0x00\n        /* \"#utility.yul\":801:807   */\n      dup2\n        /* \"#utility.yul\":795:808   */\n      mload\n        /* \"#utility.yul\":786:808   */\n      swap1\n      pop\n        /* \"#utility.yul\":817:850   */\n      tag_189\n        /* \"#utility.yul\":844:849   */\n      dup2\n        /* \"#utility.yul\":817:850   */\n      tag_186\n      jump\t// in\n    tag_189:\n        /* \"#utility.yul\":713:856   */\n      swap3\n      swap2\n      pop\n      pop\n      jump\t// out\n        /* \"#utility.yul\":875:1213   */\n    tag_190:\n        /* \"#utility.yul\":930:935   */\n      0x00\n        /* \"#utility.yul\":979:982   */\n      dup3\n        /* \"#utility.yul\":972:976   */\n      0x1f\n        /* \"#utility.yul\":964:970   */\n      dup4\n        /* \"#utility.yul\":960:977   */\n      add\n        /* \"#utility.yul\":956:983   */\n      slt\n        /* \"#utility.yul\":946:1068   */\n      tag_192\n      jumpi\n        /* \"#utility.yul\":987:1066   */\n      tag_193\n      tag_194\n      jump\t// in\n    tag_193:\n        /* \"#utility.yul\":946:1068   */\n    tag_192:\n        /* \"#utility.yul\":1104:1110   */\n      dup2\n        /* \"#utility.yul\":1091:1111   */\n      calldataload\n        /* \"#utility.yul\":1129:1207   */\n      tag_195\n        /* \"#utility.yul\":1203:1206   */\n      dup5\n        /* \"#utility.yul\":1195:1201   */\n      dup3\n        /* \"#utility.yul\":1188:1192   */\n      0x20\n        /* \"#utility.yul\":1180:1186   */\n      dup7\n        /* \"#utility.yul\":1176:1193   */\n      add\n        /* \"#utility.yul\":1129:1207   */\n      tag_168\n      jump\t// in\n    tag_195:\n        /* \"#utility.yul\":1120:1207   */\n      swap2\n      pop\n        /* \"#utility.yul\":936:1213   */\n      pop\n        /* \"#utility.yul\":875:1213   */\n      swap3\n      swap2\n      pop\n      pop\n      jump\t// out\n        /* \"#utility.yul\":1219:1358   */\n    tag_196:\n        /* \"#utility.yul\":1265:1270   */\n      0x00\n        /* \"#utility.yul\":1303:1309   */\n      dup2\n        /* \"#utility.yul\":1290:1310   */\n      calldataload\n        /* \"#utility.yul\":1281:1310   */\n      swap1\n      pop\n        /* \"#utility.yul\":1319:1352   */\n      tag_198\n        /* \"#utility.yul\":1346:1351   */\n      dup2\n        /* \"#utility.yul\":1319:1352   */\n      tag_199\n      jump\t// in\n    tag_198:\n        /* \"#utility.yul\":1219:1358   */\n      swap3\n      swap2\n      pop\n      pop\n      jump\t// out\n        /* \"#utility.yul\":1364:1693   */\n    tag_54:\n        /* \"#utility.yul\":1423:1429   */\n      0x00\n        /* \"#utility.yul\":1472:1474   */\n      0x20\n        /* \"#utility.yul\":1460:1469   */\n      dup3\n        /* \"#utility.yul\":1451:1458   */\n      dup5\n        /* \"#utility.yul\":1447:1470   */\n      sub\n        /* \"#utility.yul\":1443:1475   */\n      slt\n        /* \"#utility.yul\":1440:1559   */\n      iszero\n      tag_201\n      jumpi\n        /* \"#utility.yul\":1478:1557   */\n      tag_202\n      tag_203\n      jump\t// in\n    tag_202:\n        /* \"#utility.yul\":1440:1559   */\n    tag_201:\n        /* \"#utility.yul\":1598:1599   */\n      0x00\n        /* \"#utility.yul\":1623:1676   */\n      tag_204\n        /* \"#utility.yul\":1668:1675   */\n      dup5\n        /* \"#utility.yul\":1659:1665   */\n      dup3\n        /* \"#utility.yul\":1648:1657   */\n      dup6\n        /* \"#utility.yul\":1644:1666   */\n      add\n        /* \"#utility.yul\":1623:1676   */\n      tag_179\n      jump\t// in\n    tag_204:\n        /* \"#utility.yul\":1613:1676   */\n      swap2\n      pop\n        /* \"#utility.yul\":1569:1686   */\n      pop\n        /* \"#utility.yul\":1364:1693   */\n      swap3\n      swap2\n      pop\n      pop\n      jump\t// out\n        /* \"#utility.yul\":1699:2173   */\n    tag_78:\n        /* \"#utility.yul\":1767:1773   */\n      0x00\n        /* \"#utility.yul\":1775:1781   */\n      dup1\n        /* \"#utility.yul\":1824:1826   */\n      0x40\n        /* \"#utility.yul\":1812:1821   */\n      dup4\n        /* \"#utility.yul\":1803:1810   */\n      dup6\n        /* \"#utility.yul\":1799:1822   */\n      sub\n        /* \"#utility.yul\":1795:1827   */\n      slt\n        /* \"#utility.yul\":1792:1911   */\n      iszero\n      tag_206\n      jumpi\n        /* \"#utility.yul\":1830:1909   */\n      tag_207\n      tag_203\n      jump\t// in\n    tag_207:\n        /* \"#utility.yul\":1792:1911   */\n    tag_206:\n        /* \"#utility.yul\":1950:1951   */\n      0x00\n        /* \"#utility.yul\":1975:2028   */\n      tag_208\n        /* \"#utility.yul\":2020:2027   */\n      dup6\n        /* \"#utility.yul\":2011:2017   */\n      dup3\n        /* \"#utility.yul\":2000:2009   */\n      dup7\n        /* \"#utility.yul\":1996:2018   */\n      add\n        /* \"#utility.yul\":1975:2028   */\n      tag_179\n      jump\t// in\n    tag_208:\n        /* \"#utility.yul\":1965:2028   */\n      swap3\n      pop\n        /* \"#utility.yul\":1921:2038   */\n      pop\n        /* \"#utility.yul\":2077:2079   */\n      0x20\n        /* \"#utility.yul\":2103:2156   */\n      tag_209\n        /* \"#utility.yul\":2148:2155   */\n      dup6\n        /* \"#utility.yul\":2139:2145   */\n      dup3\n        /* \"#utility.yul\":2128:2137   */\n      dup7\n        /* \"#utility.yul\":2124:2146   */\n      add\n        /* \"#utility.yul\":2103:2156   */\n      tag_179\n      jump\t// in\n    tag_209:\n        /* \"#utility.yul\":2093:2156   */\n      swap2\n      pop\n        /* \"#utility.yul\":2048:2166   */\n      pop\n        /* \"#utility.yul\":1699:2173   */\n      swap3\n      pop\n      swap3\n      swap1\n      pop\n      jump\t// out\n        /* \"#utility.yul\":2179:2798   */\n    tag_33:\n        /* \"#utility.yul\":2256:2262   */\n      0x00\n        /* \"#utility.yul\":2264:2270   */\n      dup1\n        /* \"#utility.yul\":2272:2278   */\n      0x00\n        /* \"#utility.yul\":2321:2323   */\n      0x60\n        /* \"#utility.yul\":2309:2318   */\n      dup5\n        /* \"#utility.yul\":2300:2307   */\n      dup7\n        /* \"#utility.yul\":2296:2319   */\n      sub\n        /* \"#utility.yul\":2292:2324   */\n      slt\n        /* \"#utility.yul\":2289:2408   */\n      iszero\n      tag_211\n      jumpi\n        /* \"#utility.yul\":2327:2406   */\n      tag_212\n      tag_203\n      jump\t// in\n    tag_212:\n        /* \"#utility.yul\":2289:2408   */\n    tag_211:\n        /* \"#utility.yul\":2447:2448   */\n      0x00\n        /* \"#utility.yul\":2472:2525   */\n      tag_213\n        /* \"#utility.yul\":2517:2524   */\n      dup7\n        /* \"#utility.yul\":2508:2514   */\n      dup3\n        /* \"#utility.yul\":2497:2506   */\n      dup8\n        /* \"#utility.yul\":2493:2515   */\n      add\n        /* \"#utility.yul\":2472:2525   */\n      tag_179\n      jump\t// in\n    tag_213:\n        /* \"#utility.yul\":2462:2525   */\n      swap4\n      pop\n        /* \"#utility.yul\":2418:2535   */\n      pop\n        /* \"#utility.yul\":2574:2576   */\n      0x20\n        /* \"#utility.yul\":2600:2653   */\n      tag_214\n        /* \"#utility.yul\":2645:2652   */\n      dup7\n        /* \"#utility.yul\":2636:2642   */\n      dup3\n        /* \"#utility.yul\":2625:2634   */\n      dup8\n        /* \"#utility.yul\":2621:2643   */\n      add\n        /* \"#utility.yul\":2600:2653   */\n      tag_179\n      jump\t// in\n    tag_214:\n        /* \"#utility.yul\":2590:2653   */\n      swap3\n      pop\n        /* \"#utility.yul\":2545:2663   */\n      pop\n        /* \"#utility.yul\":2702:2704   */\n      0x40\n        /* \"#utility.yul\":2728:2781   */\n      tag_215\n        /* \"#utility.yul\":2773:2780   */\n      dup7\n        /* \"#utility.yul\":2764:2770   */\n      dup3\n        /* \"#utility.yul\":2753:2762   */\n      dup8\n        /* \"#utility.yul\":2749:2771   */\n      add\n        /* \"#utility.yul\":2728:2781   */\n      tag_196\n      jump\t// in\n    tag_215:\n        /* \"#utility.yul\":2718:2781   */\n      swap2\n      pop\n        /* \"#utility.yul\":2673:2791   */\n      pop\n        /* \"#utility.yul\":2179:2798   */\n      swap3\n      pop\n      swap3\n      pop\n      swap3\n      jump\t// out\n        /* \"#utility.yul\":2804:3278   */\n    tag_23:\n        /* \"#utility.yul\":2872:2878   */\n      0x00\n        /* \"#utility.yul\":2880:2886   */\n      dup1\n        /* \"#utility.yul\":2929:2931   */\n      0x40\n        /* \"#utility.yul\":2917:2926   */\n      dup4\n        /* \"#utility.yul\":2908:2915   */\n      dup6\n        /* \"#utility.yul\":2904:2927   */\n      sub\n        /* \"#utility.yul\":2900:2932   */\n      slt\n        /* \"#utility.yul\":2897:3016   */\n      iszero\n      tag_217\n      jumpi\n        /* \"#utility.yul\":2935:3014   */\n      tag_218\n      tag_203\n      jump\t// in\n    tag_218:\n        /* \"#utility.yul\":2897:3016   */\n    tag_217:\n        /* \"#utility.yul\":3055:3056   */\n      0x00\n        /* \"#utility.yul\":3080:3133   */\n      tag_219\n        /* \"#utility.yul\":3125:3132   */\n      dup6\n        /* \"#utility.yul\":3116:3122   */\n      dup3\n        /* \"#utility.yul\":3105:3114   */\n      dup7\n        /* \"#utility.yul\":3101:3123   */\n      add\n        /* \"#utility.yul\":3080:3133   */\n      tag_179\n      jump\t// in\n    tag_219:\n        /* \"#utility.yul\":3070:3133   */\n      swap3\n      pop\n        /* \"#utility.yul\":3026:3143   */\n      pop\n        /* \"#utility.yul\":3182:3184   */\n      0x20\n        /* \"#utility.yul\":3208:3261   */\n      tag_220\n        /* \"#utility.yul\":3253:3260   */\n      dup6\n        /* \"#utility.yul\":3244:3250   */\n      dup3\n        /* \"#utility.yul\":3233:3242   */\n      dup7\n        /* \"#utility.yul\":3229:3251   */\n      add\n        /* \"#utility.yul\":3208:3261   */\n      tag_196\n      jump\t// in\n    tag_220:\n        /* \"#utility.yul\":3198:3261   */\n      swap2\n      pop\n        /* \"#utility.yul\":3153:3271   */\n      pop\n        /* \"#utility.yul\":2804:3278   */\n      swap3\n      pop\n      swap3\n      swap1\n      pop\n      jump\t// out\n        /* \"#utility.yul\":3284:3613   */\n    tag_38:\n        /* \"#utility.yul\":3343:3349   */\n      0x00\n        /* \"#utility.yul\":3392:3394   */\n      0x20\n        /* \"#utility.yul\":3380:3389   */\n      dup3\n        /* \"#utility.yul\":3371:3378   */\n      dup5\n        /* \"#utility.yul\":3367:3390   */\n      sub\n        /* \"#utility.yul\":3363:3395   */\n      slt\n        /* \"#utility.yul\":3360:3479   */\n      iszero\n      tag_222\n      jumpi\n        /* \"#utility.yul\":3398:3477   */\n      tag_223\n      tag_203\n      jump\t// in\n    tag_223:\n        /* \"#utility.yul\":3360:3479   */\n    tag_222:\n        /* \"#utility.yul\":3518:3519   */\n      0x00\n        /* \"#utility.yul\":3543:3596   */\n      tag_224\n        /* \"#utility.yul\":3588:3595   */\n      dup5\n        /* \"#utility.yul\":3579:3585   */\n      dup3\n        /* \"#utility.yul\":3568:3577   */\n      dup6\n        /* \"#utility.yul\":3564:3586   */\n      add\n        /* \"#utility.yul\":3543:3596   */\n      tag_183\n      jump\t// in\n    tag_224:\n        /* \"#utility.yul\":3533:3596   */\n      swap2\n      pop\n        /* \"#utility.yul\":3489:3606   */\n      pop\n        /* \"#utility.yul\":3284:3613   */\n      swap3\n      swap2\n      pop\n      pop\n      jump\t// out\n        /* \"#utility.yul\":3619:3970   */\n    tag_111:\n        /* \"#utility.yul\":3689:3695   */\n      0x00\n        /* \"#utility.yul\":3738:3740   */\n      0x20\n        /* \"#utility.yul\":3726:3735   */\n      dup3\n        /* \"#utility.yul\":3717:3724   */\n      dup5\n        /* \"#utility.yul\":3713:3736   */\n      sub\n        /* \"#utility.yul\":3709:3741   */\n      slt\n        /* \"#utility.yul\":3706:3825   */\n      iszero\n      tag_226\n      jumpi\n        /* \"#utility.yul\":3744:3823   */\n      tag_227\n      tag_203\n      jump\t// in\n    tag_227:\n        /* \"#utility.yul\":3706:3825   */\n    tag_226:\n        /* \"#utility.yul\":3864:3865   */\n      0x00\n        /* \"#utility.yul\":3889:3953   */\n      tag_228\n        /* \"#utility.yul\":3945:3952   */\n      dup5\n        /* \"#utility.yul\":3936:3942   */\n      dup3\n        /* \"#utility.yul\":3925:3934   */\n      dup6\n        /* \"#utility.yul\":3921:3943   */\n      add\n        /* \"#utility.yul\":3889:3953   */\n      tag_187\n      jump\t// in\n    tag_228:\n        /* \"#utility.yul\":3879:3953   */\n      swap2\n      pop\n        /* \"#utility.yul\":3835:3963   */\n      pop\n        /* \"#utility.yul\":3619:3970   */\n      swap3\n      swap2\n      pop\n      pop\n      jump\t// out\n        /* \"#utility.yul\":3976:4483   */\n    tag_44:\n        /* \"#utility.yul\":4044:4050   */\n      0x00\n        /* \"#utility.yul\":4093:4095   */\n      0x20\n        /* \"#utility.yul\":4081:4090   */\n      dup3\n        /* \"#utility.yul\":4072:4079   */\n      dup5\n        /* \"#utility.yul\":4068:4091   */\n      sub\n        /* \"#utility.yul\":4064:4096   */\n      slt\n        /* \"#utility.yul\":4061:4180   */\n      iszero\n      tag_230\n      jumpi\n        /* \"#utility.yul\":4099:4178   */\n      tag_231\n      tag_203\n      jump\t// in\n    tag_231:\n        /* \"#utility.yul\":4061:4180   */\n    tag_230:\n        /* \"#utility.yul\":4247:4248   */\n      0x00\n        /* \"#utility.yul\":4236:4245   */\n      dup3\n        /* \"#utility.yul\":4232:4249   */\n      add\n        /* \"#utility.yul\":4219:4250   */\n      calldataload\n        /* \"#utility.yul\":4277:4295   */\n      0xffffffffffffffff\n        /* \"#utility.yul\":4269:4275   */\n      dup2\n        /* \"#utility.yul\":4266:4296   */\n      gt\n        /* \"#utility.yul\":4263:4380   */\n      iszero\n      tag_232\n      jumpi\n        /* \"#utility.yul\":4299:4378   */\n      tag_233\n      tag_234\n      jump\t// in\n    tag_233:\n        /* \"#utility.yul\":4263:4380   */\n    tag_232:\n        /* \"#utility.yul\":4404:4466   */\n      tag_235\n        /* \"#utility.yul\":4458:4465   */\n      dup5\n        /* \"#utility.yul\":4449:4455   */\n      dup3\n        /* \"#utility.yul\":4438:4447   */\n      dup6\n        /* \"#utility.yul\":4434:4456   */\n      add\n        /* \"#utility.yul\":4404:4466   */\n      tag_190\n      jump\t// in\n    tag_235:\n        /* \"#utility.yul\":4394:4466   */\n      swap2\n      pop\n        /* \"#utility.yul\":4190:4476   */\n      pop\n        /* \"#utility.yul\":3976:4483   */\n      swap3\n      swap2\n      pop\n      pop\n      jump\t// out\n        /* \"#utility.yul\":4489:5141   */\n    tag_59:\n        /* \"#utility.yul\":4566:4572   */\n      0x00\n        /* \"#utility.yul\":4574:4580   */\n      dup1\n        /* \"#utility.yul\":4623:4625   */\n      0x40\n        /* \"#utility.yul\":4611:4620   */\n      dup4\n        /* \"#utility.yul\":4602:4609   */\n      dup6\n        /* \"#utility.yul\":4598:4621   */\n      sub\n        /* \"#utility.yul\":4594:4626   */\n      slt\n        /* \"#utility.yul\":4591:4710   */\n      iszero\n      tag_237\n      jumpi\n        /* \"#utility.yul\":4629:4708   */\n      tag_238\n      tag_203\n      jump\t// in\n    tag_238:\n        /* \"#utility.yul\":4591:4710   */\n    tag_237:\n        /* \"#utility.yul\":4777:4778   */\n      0x00\n        /* \"#utility.yul\":4766:4775   */\n      dup4\n        /* \"#utility.yul\":4762:4779   */\n      add\n        /* \"#utility.yul\":4749:4780   */\n      calldataload\n        /* \"#utility.yul\":4807:4825   */\n      0xffffffffffffffff\n        /* \"#utility.yul\":4799:4805   */\n      dup2\n        /* \"#utility.yul\":4796:4826   */\n      gt\n        /* \"#utility.yul\":4793:4910   */\n      iszero\n      tag_239\n      jumpi\n        /* \"#utility.yul\":4829:4908   */\n      tag_240\n      tag_234\n      jump\t// in\n    tag_240:\n        /* \"#utility.yul\":4793:4910   */\n    tag_239:\n        /* \"#utility.yul\":4934:4996   */\n      tag_241\n        /* \"#utility.yul\":4988:4995   */\n      dup6\n        /* \"#utility.yul\":4979:4985   */\n      dup3\n        /* \"#utility.yul\":4968:4977   */\n      dup7\n        /* \"#utility.yul\":4964:4986   */\n      add\n        /* \"#utility.yul\":4934:4996   */\n      tag_190\n      jump\t// in\n    tag_241:\n        /* \"#utility.yul\":4924:4996   */\n      swap3\n      pop\n        /* \"#utility.yul\":4720:5006   */\n      pop\n        /* \"#utility.yul\":5045:5047   */\n      0x20\n        /* \"#utility.yul\":5071:5124   */\n      tag_242\n        /* \"#utility.yul\":5116:5123   */\n      dup6\n        /* \"#utility.yul\":5107:5113   */\n      dup3\n        /* \"#utility.yul\":5096:5105   */\n      dup7\n        /* \"#utility.yul\":5092:5114   */\n      add\n        /* \"#utility.yul\":5071:5124   */\n      tag_183\n      jump\t// in\n    tag_242:\n        /* \"#utility.yul\":5061:5124   */\n      swap2\n      pop\n        /* \"#utility.yul\":5016:5134   */\n      pop\n        /* \"#utility.yul\":4489:5141   */\n      swap3\n      pop\n      swap3\n      swap1\n      pop\n      jump\t// out\n        /* \"#utility.yul\":5147:5256   */\n    tag_243:\n        /* \"#utility.yul\":5228:5249   */\n      tag_245\n        /* \"#utility.yul\":5243:5248   */\n      dup2\n        /* \"#utility.yul\":5228:5249   */\n      tag_246\n      jump\t// in\n    tag_245:\n        /* \"#utility.yul\":5223:5226   */\n      dup3\n        /* \"#utility.yul\":5216:5250   */\n      mstore\n        /* \"#utility.yul\":5147:5256   */\n      pop\n      pop\n      jump\t// out\n        /* \"#utility.yul\":5262:5380   */\n    tag_247:\n        /* \"#utility.yul\":5349:5373   */\n      tag_249\n        /* \"#utility.yul\":5367:5372   */\n      dup2\n        /* \"#utility.yul\":5349:5373   */\n      tag_250\n      jump\t// in\n    tag_249:\n        /* \"#utility.yul\":5344:5347   */\n      dup3\n        /* \"#utility.yul\":5337:5374   */\n      mstore\n        /* \"#utility.yul\":5262:5380   */\n      pop\n      pop\n      jump\t// out\n        /* \"#utility.yul\":5386:5543   */\n    tag_251:\n        /* \"#utility.yul\":5491:5536   */\n      tag_253\n        /* \"#utility.yul\":5511:5535   */\n      tag_254\n        /* \"#utility.yul\":5529:5534   */\n      dup3\n        /* \"#utility.yul\":5511:5535   */\n      tag_250\n      jump\t// in\n    tag_254:\n        /* \"#utility.yul\":5491:5536   */\n      tag_255\n      jump\t// in\n    tag_253:\n        /* \"#utility.yul\":5486:5489   */\n      dup3\n        /* \"#utility.yul\":5479:5537   */\n      mstore\n        /* \"#utility.yul\":5386:5543   */\n      pop\n      pop\n      jump\t// out\n        /* \"#utility.yul\":5549:5909   */\n    tag_256:\n        /* \"#utility.yul\":5635:5638   */\n      0x00\n        /* \"#utility.yul\":5663:5701   */\n      tag_258\n        /* \"#utility.yul\":5695:5700   */\n      dup3\n        /* \"#utility.yul\":5663:5701   */\n      tag_259\n      jump\t// in\n    tag_258:\n        /* \"#utility.yul\":5717:5787   */\n      tag_260\n        /* \"#utility.yul\":5780:5786   */\n      dup2\n        /* \"#utility.yul\":5775:5778   */\n      dup6\n        /* \"#utility.yul\":5717:5787   */\n      tag_261\n      jump\t// in\n    tag_260:\n        /* \"#utility.yul\":5710:5787   */\n      swap4\n      pop\n        /* \"#utility.yul\":5796:5848   */\n      tag_262\n        /* \"#utility.yul\":5841:5847   */\n      dup2\n        /* \"#utility.yul\":5836:5839   */\n      dup6\n        /* \"#utility.yul\":5829:5833   */\n      0x20\n        /* \"#utility.yul\":5822:5827   */\n      dup7\n        /* \"#utility.yul\":5818:5834   */\n      add\n        /* \"#utility.yul\":5796:5848   */\n      tag_263\n      jump\t// in\n    tag_262:\n        /* \"#utility.yul\":5873:5902   */\n      tag_264\n        /* \"#utility.yul\":5895:5901   */\n      dup2\n        /* \"#utility.yul\":5873:5902   */\n      tag_265\n      jump\t// in\n    tag_264:\n        /* \"#utility.yul\":5868:5871   */\n      dup5\n        /* \"#utility.yul\":5864:5903   */\n      add\n        /* \"#utility.yul\":5857:5903   */\n      swap2\n      pop\n        /* \"#utility.yul\":5639:5909   */\n      pop\n        /* \"#utility.yul\":5549:5909   */\n      swap3\n      swap2\n      pop\n      pop\n      jump\t// out\n        /* \"#utility.yul\":5915:6288   */\n    tag_266:\n        /* \"#utility.yul\":6019:6022   */\n      0x00\n        /* \"#utility.yul\":6047:6085   */\n      tag_268\n        /* \"#utility.yul\":6079:6084   */\n      dup3\n        /* \"#utility.yul\":6047:6085   */\n      tag_259\n      jump\t// in\n    tag_268:\n        /* \"#utility.yul\":6101:6189   */\n      tag_269\n        /* \"#utility.yul\":6182:6188   */\n      dup2\n        /* \"#utility.yul\":6177:6180   */\n      dup6\n        /* \"#utility.yul\":6101:6189   */\n      tag_270\n      jump\t// in\n    tag_269:\n        /* \"#utility.yul\":6094:6189   */\n      swap4\n      pop\n        /* \"#utility.yul\":6198:6250   */\n      tag_271\n        /* \"#utility.yul\":6243:6249   */\n      dup2\n        /* \"#utility.yul\":6238:6241   */\n      dup6\n        /* \"#utility.yul\":6231:6235   */\n      0x20\n        /* \"#utility.yul\":6224:6229   */\n      dup7\n        /* \"#utility.yul\":6220:6236   */\n      add\n        /* \"#utility.yul\":6198:6250   */\n      tag_263\n      jump\t// in\n    tag_271:\n        /* \"#utility.yul\":6275:6281   */\n      dup1\n        /* \"#utility.yul\":6270:6273   */\n      dup5\n        /* \"#utility.yul\":6266:6282   */\n      add\n        /* \"#utility.yul\":6259:6282   */\n      swap2\n      pop\n        /* \"#utility.yul\":6023:6288   */\n      pop\n        /* \"#utility.yul\":5915:6288   */\n      swap3\n      swap2\n      pop\n      pop\n      jump\t// out\n        /* \"#utility.yul\":6294:6660   */\n    tag_272:\n        /* \"#utility.yul\":6436:6439   */\n      0x00\n        /* \"#utility.yul\":6457:6524   */\n      tag_274\n        /* \"#utility.yul\":6521:6523   */\n      0x21\n        /* \"#utility.yul\":6516:6519   */\n      dup4\n        /* \"#utility.yul\":6457:6524   */\n      tag_275\n      jump\t// in\n    tag_274:\n        /* \"#utility.yul\":6450:6524   */\n      swap2\n      pop\n        /* \"#utility.yul\":6533:6626   */\n      tag_276\n        /* \"#utility.yul\":6622:6625   */\n      dup3\n        /* \"#utility.yul\":6533:6626   */\n      tag_277\n      jump\t// in\n    tag_276:\n        /* \"#utility.yul\":6651:6653   */\n      0x40\n        /* \"#utility.yul\":6646:6649   */\n      dup3\n        /* \"#utility.yul\":6642:6654   */\n      add\n        /* \"#utility.yul\":6635:6654   */\n      swap1\n      pop\n        /* \"#utility.yul\":6294:6660   */\n      swap2\n      swap1\n      pop\n      jump\t// out\n        /* \"#utility.yul\":6666:7032   */\n    tag_278:\n        /* \"#utility.yul\":6808:6811   */\n      0x00\n        /* \"#utility.yul\":6829:6896   */\n      tag_280\n        /* \"#utility.yul\":6893:6895   */\n      0x14\n        /* \"#utility.yul\":6888:6891   */\n      dup4\n        /* \"#utility.yul\":6829:6896   */\n      tag_275\n      jump\t// in\n    tag_280:\n        /* \"#utility.yul\":6822:6896   */\n      swap2\n      pop\n        /* \"#utility.yul\":6905:6998   */\n      tag_281\n        /* \"#utility.yul\":6994:6997   */\n      dup3\n        /* \"#utility.yul\":6905:6998   */\n      tag_282\n      jump\t// in\n    tag_281:\n        /* \"#utility.yul\":7023:7025   */\n      0x20\n        /* \"#utility.yul\":7018:7021   */\n      dup3\n        /* \"#utility.yul\":7014:7026   */\n      add\n        /* \"#utility.yul\":7007:7026   */\n      swap1\n      pop\n        /* \"#utility.yul\":6666:7032   */\n      swap2\n      swap1\n      pop\n      jump\t// out\n        /* \"#utility.yul\":7038:7404   */\n    tag_283:\n        /* \"#utility.yul\":7180:7183   */\n      0x00\n        /* \"#utility.yul\":7201:7268   */\n      tag_285\n        /* \"#utility.yul\":7265:7267   */\n      0x12\n        /* \"#utility.yul\":7260:7263   */\n      dup4\n        /* \"#utility.yul\":7201:7268   */\n      tag_275\n      jump\t// in\n    tag_285:\n        /* \"#utility.yul\":7194:7268   */\n      swap2\n      pop\n        /* \"#utility.yul\":7277:7370   */\n      tag_286\n        /* \"#utility.yul\":7366:7369   */\n      dup3\n        /* \"#utility.yul\":7277:7370   */\n      tag_287\n      jump\t// in\n    tag_286:\n        /* \"#utility.yul\":7395:7397   */\n      0x20\n        /* \"#utility.yul\":7390:7393   */\n      dup3\n        /* \"#utility.yul\":7386:7398   */\n      add\n        /* \"#utility.yul\":7379:7398   */\n      swap1\n      pop\n        /* \"#utility.yul\":7038:7404   */\n      swap2\n      swap1\n      pop\n      jump\t// out\n        /* \"#utility.yul\":7410:7776   */\n    tag_288:\n        /* \"#utility.yul\":7552:7555   */\n      0x00\n        /* \"#utility.yul\":7573:7640   */\n      tag_290\n        /* \"#utility.yul\":7637:7639   */\n      0x23\n        /* \"#utility.yul\":7632:7635   */\n      dup4\n        /* \"#utility.yul\":7573:7640   */\n      tag_275\n      jump\t// in\n    tag_290:\n        /* \"#utility.yul\":7566:7640   */\n      swap2\n      pop\n        /* \"#utility.yul\":7649:7742   */\n      tag_291\n        /* \"#utility.yul\":7738:7741   */\n      dup3\n        /* \"#utility.yul\":7649:7742   */\n      tag_292\n      jump\t// in\n    tag_291:\n        /* \"#utility.yul\":7767:7769   */\n      0x40\n        /* \"#utility.yul\":7762:7765   */\n      dup3\n        /* \"#utility.yul\":7758:7770   */\n      add\n        /* \"#utility.yul\":7751:7770   */\n      swap1\n      pop\n        /* \"#utility.yul\":7410:7776   */\n      swap2\n      swap1\n      pop\n      jump\t// out\n        /* \"#utility.yul\":7782:8148   */\n    tag_293:\n        /* \"#utility.yul\":7924:7927   */\n      0x00\n        /* \"#utility.yul\":7945:8012   */\n      tag_295\n        /* \"#utility.yul\":8009:8011   */\n      0x14\n        /* \"#utility.yul\":8004:8007   */\n      dup4\n        /* \"#utility.yul\":7945:8012   */\n      tag_275\n      jump\t// in\n    tag_295:\n        /* \"#utility.yul\":7938:8012   */\n      swap2\n      pop\n        /* \"#utility.yul\":8021:8114   */\n      tag_296\n        /* \"#utility.yul\":8110:8113   */\n      dup3\n        /* \"#utility.yul\":8021:8114   */\n      tag_297\n      jump\t// in\n    tag_296:\n        /* \"#utility.yul\":8139:8141   */\n      0x20\n        /* \"#utility.yul\":8134:8137   */\n      dup3\n        /* \"#utility.yul\":8130:8142   */\n      add\n        /* \"#utility.yul\":8123:8142   */\n      swap1\n      pop\n        /* \"#utility.yul\":7782:8148   */\n      swap2\n      swap1\n      pop\n      jump\t// out\n        /* \"#utility.yul\":8154:8520   */\n    tag_298:\n        /* \"#utility.yul\":8296:8299   */\n      0x00\n        /* \"#utility.yul\":8317:8384   */\n      tag_300\n        /* \"#utility.yul\":8381:8383   */\n      0x1c\n        /* \"#utility.yul\":8376:8379   */\n      dup4\n        /* \"#utility.yul\":8317:8384   */\n      tag_275\n      jump\t// in\n    tag_300:\n        /* \"#utility.yul\":8310:8384   */\n      swap2\n      pop\n        /* \"#utility.yul\":8393:8486   */\n      tag_301\n        /* \"#utility.yul\":8482:8485   */\n      dup3\n        /* \"#utility.yul\":8393:8486   */\n      tag_302\n      jump\t// in\n    tag_301:\n        /* \"#utility.yul\":8511:8513   */\n      0x20\n        /* \"#utility.yul\":8506:8509   */\n      dup3\n        /* \"#utility.yul\":8502:8514   */\n      add\n        /* \"#utility.yul\":8495:8514   */\n      swap1\n      pop\n        /* \"#utility.yul\":8154:8520   */\n      swap2\n      swap1\n      pop\n      jump\t// out\n        /* \"#utility.yul\":8526:8644   */\n    tag_303:\n        /* \"#utility.yul\":8613:8637   */\n      tag_305\n        /* \"#utility.yul\":8631:8636   */\n      dup2\n        /* \"#utility.yul\":8613:8637   */\n      tag_306\n      jump\t// in\n    tag_305:\n        /* \"#utility.yul\":8608:8611   */\n      dup3\n        /* \"#utility.yul\":8601:8638   */\n      mstore\n        /* \"#utility.yul\":8526:8644   */\n      pop\n      pop\n      jump\t// out\n        /* \"#utility.yul\":8650:8906   */\n    tag_155:\n        /* \"#utility.yul\":8762:8765   */\n      0x00\n        /* \"#utility.yul\":8777:8852   */\n      tag_308\n        /* \"#utility.yul\":8848:8851   */\n      dup3\n        /* \"#utility.yul\":8839:8845   */\n      dup5\n        /* \"#utility.yul\":8777:8852   */\n      tag_251\n      jump\t// in\n    tag_308:\n        /* \"#utility.yul\":8877:8879   */\n      0x20\n        /* \"#utility.yul\":8872:8875   */\n      dup3\n        /* \"#utility.yul\":8868:8880   */\n      add\n        /* \"#utility.yul\":8861:8880   */\n      swap2\n      pop\n        /* \"#utility.yul\":8897:8900   */\n      dup2\n        /* \"#utility.yul\":8890:8900   */\n      swap1\n      pop\n        /* \"#utility.yul\":8650:8906   */\n      swap3\n      swap2\n      pop\n      pop\n      jump\t// out\n        /* \"#utility.yul\":8912:9183   */\n    tag_107:\n        /* \"#utility.yul\":9042:9045   */\n      0x00\n        /* \"#utility.yul\":9064:9157   */\n      tag_310\n        /* \"#utility.yul\":9153:9156   */\n      dup3\n        /* \"#utility.yul\":9144:9150   */\n      dup5\n        /* \"#utility.yul\":9064:9157   */\n      tag_266\n      jump\t// in\n    tag_310:\n        /* \"#utility.yul\":9057:9157   */\n      swap2\n      pop\n        /* \"#utility.yul\":9174:9177   */\n      dup2\n        /* \"#utility.yul\":9167:9177   */\n      swap1\n      pop\n        /* \"#utility.yul\":8912:9183   */\n      swap3\n      swap2\n      pop\n      pop\n      jump\t// out\n        /* \"#utility.yul\":9189:9399   */\n    tag_26:\n        /* \"#utility.yul\":9276:9280   */\n      0x00\n        /* \"#utility.yul\":9314:9316   */\n      0x20\n        /* \"#utility.yul\":9303:9312   */\n      dup3\n        /* \"#utility.yul\":9299:9317   */\n      add\n        /* \"#utility.yul\":9291:9317   */\n      swap1\n      pop\n        /* \"#utility.yul\":9327:9392   */\n      tag_312\n        /* \"#utility.yul\":9389:9390   */\n      0x00\n        /* \"#utility.yul\":9378:9387   */\n      dup4\n        /* \"#utility.yul\":9374:9391   */\n      add\n        /* \"#utility.yul\":9365:9371   */\n      dup5\n        /* \"#utility.yul\":9327:9392   */\n      tag_243\n      jump\t// in\n    tag_312:\n        /* \"#utility.yul\":9189:9399   */\n      swap3\n      swap2\n      pop\n      pop\n      jump\t// out\n        /* \"#utility.yul\":9405:9627   */\n    tag_68:\n        /* \"#utility.yul\":9498:9502   */\n      0x00\n        /* \"#utility.yul\":9536:9538   */\n      0x20\n        /* \"#utility.yul\":9525:9534   */\n      dup3\n        /* \"#utility.yul\":9521:9539   */\n      add\n        /* \"#utility.yul\":9513:9539   */\n      swap1\n      pop\n        /* \"#utility.yul\":9549:9620   */\n      tag_314\n        /* \"#utility.yul\":9617:9618   */\n      0x00\n        /* \"#utility.yul\":9606:9615   */\n      dup4\n        /* \"#utility.yul\":9602:9619   */\n      add\n        /* \"#utility.yul\":9593:9599   */\n      dup5\n        /* \"#utility.yul\":9549:9620   */\n      tag_247\n      jump\t// in\n    tag_314:\n        /* \"#utility.yul\":9405:9627   */\n      swap3\n      swap2\n      pop\n      pop\n      jump\t// out\n        /* \"#utility.yul\":9633:9942   */\n    tag_41:\n        /* \"#utility.yul\":9744:9748   */\n      0x00\n        /* \"#utility.yul\":9782:9784   */\n      0x20\n        /* \"#utility.yul\":9771:9780   */\n      dup3\n        /* \"#utility.yul\":9767:9785   */\n      add\n        /* \"#utility.yul\":9759:9785   */\n      swap1\n      pop\n        /* \"#utility.yul\":9831:9840   */\n      dup2\n        /* \"#utility.yul\":9825:9829   */\n      dup2\n        /* \"#utility.yul\":9821:9841   */\n      sub\n        /* \"#utility.yul\":9817:9818   */\n      0x00\n        /* \"#utility.yul\":9806:9815   */\n      dup4\n        /* \"#utility.yul\":9802:9819   */\n      add\n        /* \"#utility.yul\":9795:9842   */\n      mstore\n        /* \"#utility.yul\":9859:9935   */\n      tag_316\n        /* \"#utility.yul\":9930:9934   */\n      dup2\n        /* \"#utility.yul\":9921:9927   */\n      dup5\n        /* \"#utility.yul\":9859:9935   */\n      tag_256\n      jump\t// in\n    tag_316:\n        /* \"#utility.yul\":9851:9935   */\n      swap1\n      pop\n        /* \"#utility.yul\":9633:9942   */\n      swap3\n      swap2\n      pop\n      pop\n      jump\t// out\n        /* \"#utility.yul\":9948:10367   */\n    tag_91:\n        /* \"#utility.yul\":10114:10118   */\n      0x00\n        /* \"#utility.yul\":10152:10154   */\n      0x20\n        /* \"#utility.yul\":10141:10150   */\n      dup3\n        /* \"#utility.yul\":10137:10155   */\n      add\n        /* \"#utility.yul\":10129:10155   */\n      swap1\n      pop\n        /* \"#utility.yul\":10201:10210   */\n      dup2\n        /* \"#utility.yul\":10195:10199   */\n      dup2\n        /* \"#utility.yul\":10191:10211   */\n      sub\n        /* \"#utility.yul\":10187:10188   */\n      0x00\n        /* \"#utility.yul\":10176:10185   */\n      dup4\n        /* \"#utility.yul\":10172:10189   */\n      add\n        /* \"#utility.yul\":10165:10212   */\n      mstore\n        /* \"#utility.yul\":10229:10360   */\n      tag_318\n        /* \"#utility.yul\":10355:10359   */\n      dup2\n        /* \"#utility.yul\":10229:10360   */\n      tag_272\n      jump\t// in\n    tag_318:\n        /* \"#utility.yul\":10221:10360   */\n      swap1\n      pop\n        /* \"#utility.yul\":9948:10367   */\n      swap2\n      swap1\n      pop\n      jump\t// out\n        /* \"#utility.yul\":10373:10792   */\n    tag_145:\n        /* \"#utility.yul\":10539:10543   */\n      0x00\n        /* \"#utility.yul\":10577:10579   */\n      0x20\n        /* \"#utility.yul\":10566:10575   */\n      dup3\n        /* \"#utility.yul\":10562:10580   */\n      add\n        /* \"#utility.yul\":10554:10580   */\n      swap1\n      pop\n        /* \"#utility.yul\":10626:10635   */\n      dup2\n        /* \"#utility.yul\":10620:10624   */\n      dup2\n        /* \"#utility.yul\":10616:10636   */\n      sub\n        /* \"#utility.yul\":10612:10613   */\n      0x00\n        /* \"#utility.yul\":10601:10610   */\n      dup4\n        /* \"#utility.yul\":10597:10614   */\n      add\n        /* \"#utility.yul\":10590:10637   */\n      mstore\n        /* \"#utility.yul\":10654:10785   */\n      tag_320\n        /* \"#utility.yul\":10780:10784   */\n      dup2\n        /* \"#utility.yul\":10654:10785   */\n      tag_278\n      jump\t// in\n    tag_320:\n        /* \"#utility.yul\":10646:10785   */\n      swap1\n      pop\n        /* \"#utility.yul\":10373:10792   */\n      swap2\n      swap1\n      pop\n      jump\t// out\n        /* \"#utility.yul\":10798:11217   */\n    tag_122:\n        /* \"#utility.yul\":10964:10968   */\n      0x00\n        /* \"#utility.yul\":11002:11004   */\n      0x20\n        /* \"#utility.yul\":10991:11000   */\n      dup3\n        /* \"#utility.yul\":10987:11005   */\n      add\n        /* \"#utility.yul\":10979:11005   */\n      swap1\n      pop\n        /* \"#utility.yul\":11051:11060   */\n      dup2\n        /* \"#utility.yul\":11045:11049   */\n      dup2\n        /* \"#utility.yul\":11041:11061   */\n      sub\n        /* \"#utility.yul\":11037:11038   */\n      0x00\n        /* \"#utility.yul\":11026:11035   */\n      dup4\n        /* \"#utility.yul\":11022:11039   */\n      add\n        /* \"#utility.yul\":11015:11062   */\n      mstore\n        /* \"#utility.yul\":11079:11210   */\n      tag_322\n        /* \"#utility.yul\":11205:11209   */\n      dup2\n        /* \"#utility.yul\":11079:11210   */\n      tag_283\n      jump\t// in\n    tag_322:\n        /* \"#utility.yul\":11071:11210   */\n      swap1\n      pop\n        /* \"#utility.yul\":10798:11217   */\n      swap2\n      swap1\n      pop\n      jump\t// out\n        /* \"#utility.yul\":11223:11642   */\n    tag_132:\n        /* \"#utility.yul\":11389:11393   */\n      0x00\n        /* \"#utility.yul\":11427:11429   */\n      0x20\n        /* \"#utility.yul\":11416:11425   */\n      dup3\n        /* \"#utility.yul\":11412:11430   */\n      add\n        /* \"#utility.yul\":11404:11430   */\n      swap1\n      pop\n        /* \"#utility.yul\":11476:11485   */\n      dup2\n        /* \"#utility.yul\":11470:11474   */\n      dup2\n        /* \"#utility.yul\":11466:11486   */\n      sub\n        /* \"#utility.yul\":11462:11463   */\n      0x00\n        /* \"#utility.yul\":11451:11460   */\n      dup4\n        /* \"#utility.yul\":11447:11464   */\n      add\n        /* \"#utility.yul\":11440:11487   */\n      mstore\n        /* \"#utility.yul\":11504:11635   */\n      tag_324\n        /* \"#utility.yul\":11630:11634   */\n      dup2\n        /* \"#utility.yul\":11504:11635   */\n      tag_288\n      jump\t// in\n    tag_324:\n        /* \"#utility.yul\":11496:11635   */\n      swap1\n      pop\n        /* \"#utility.yul\":11223:11642   */\n      swap2\n      swap1\n      pop\n      jump\t// out\n        /* \"#utility.yul\":11648:12067   */\n    tag_125:\n        /* \"#utility.yul\":11814:11818   */\n      0x00\n        /* \"#utility.yul\":11852:11854   */\n      0x20\n        /* \"#utility.yul\":11841:11850   */\n      dup3\n        /* \"#utility.yul\":11837:11855   */\n      add\n        /* \"#utility.yul\":11829:11855   */\n      swap1\n      pop\n        /* \"#utility.yul\":11901:11910   */\n      dup2\n        /* \"#utility.yul\":11895:11899   */\n      dup2\n        /* \"#utility.yul\":11891:11911   */\n      sub\n        /* \"#utility.yul\":11887:11888   */\n      0x00\n        /* \"#utility.yul\":11876:11885   */\n      dup4\n        /* \"#utility.yul\":11872:11889   */\n      add\n        /* \"#utility.yul\":11865:11912   */\n      mstore\n        /* \"#utility.yul\":11929:12060   */\n      tag_326\n        /* \"#utility.yul\":12055:12059   */\n      dup2\n        /* \"#utility.yul\":11929:12060   */\n      tag_293\n      jump\t// in\n    tag_326:\n        /* \"#utility.yul\":11921:12060   */\n      swap1\n      pop\n        /* \"#utility.yul\":11648:12067   */\n      swap2\n      swap1\n      pop\n      jump\t// out\n        /* \"#utility.yul\":12073:12492   */\n    tag_117:\n        /* \"#utility.yul\":12239:12243   */\n      0x00\n        /* \"#utility.yul\":12277:12279   */\n      0x20\n        /* \"#utility.yul\":12266:12275   */\n      dup3\n        /* \"#utility.yul\":12262:12280   */\n      add\n        /* \"#utility.yul\":12254:12280   */\n      swap1\n      pop\n        /* \"#utility.yul\":12326:12335   */\n      dup2\n        /* \"#utility.yul\":12320:12324   */\n      dup2\n        /* \"#utility.yul\":12316:12336   */\n      sub\n        /* \"#utility.yul\":12312:12313   */\n      0x00\n        /* \"#utility.yul\":12301:12310   */\n      dup4\n        /* \"#utility.yul\":12297:12314   */\n      add\n        /* \"#utility.yul\":12290:12337   */\n      mstore\n        /* \"#utility.yul\":12354:12485   */\n      tag_328\n        /* \"#utility.yul\":12480:12484   */\n      dup2\n        /* \"#utility.yul\":12354:12485   */\n      tag_298\n      jump\t// in\n    tag_328:\n        /* \"#utility.yul\":12346:12485   */\n      swap1\n      pop\n        /* \"#utility.yul\":12073:12492   */\n      swap2\n      swap1\n      pop\n      jump\t// out\n        /* \"#utility.yul\":12498:12720   */\n    tag_30:\n        /* \"#utility.yul\":12591:12595   */\n      0x00\n        /* \"#utility.yul\":12629:12631   */\n      0x20\n        /* \"#utility.yul\":12618:12627   */\n      dup3\n        /* \"#utility.yul\":12614:12632   */\n      add\n        /* \"#utility.yul\":12606:12632   */\n      swap1\n      pop\n        /* \"#utility.yul\":12642:12713   */\n      tag_330\n        /* \"#utility.yul\":12710:12711   */\n      0x00\n        /* \"#utility.yul\":12699:12708   */\n      dup4\n        /* \"#utility.yul\":12695:12712   */\n      add\n        /* \"#utility.yul\":12686:12692   */\n      dup5\n        /* \"#utility.yul\":12642:12713   */\n      tag_303\n      jump\t// in\n    tag_330:\n        /* \"#utility.yul\":12498:12720   */\n      swap3\n      swap2\n      pop\n      pop\n      jump\t// out\n        /* \"#utility.yul\":12726:12855   */\n    tag_173:\n        /* \"#utility.yul\":12760:12766   */\n      0x00\n        /* \"#utility.yul\":12787:12807   */\n      tag_332\n      tag_333\n      jump\t// in\n    tag_332:\n        /* \"#utility.yul\":12777:12807   */\n      swap1\n      pop\n        /* \"#utility.yul\":12816:12849   */\n      tag_334\n        /* \"#utility.yul\":12844:12848   */\n      dup3\n        /* \"#utility.yul\":12836:12842   */\n      dup3\n        /* \"#utility.yul\":12816:12849   */\n      tag_335\n      jump\t// in\n    tag_334:\n        /* \"#utility.yul\":12726:12855   */\n      swap2\n      swap1\n      pop\n      jump\t// out\n        /* \"#utility.yul\":12861:12936   */\n    tag_333:\n        /* \"#utility.yul\":12894:12900   */\n      0x00\n        /* \"#utility.yul\":12927:12929   */\n      0x40\n        /* \"#utility.yul\":12921:12930   */\n      mload\n        /* \"#utility.yul\":12911:12930   */\n      swap1\n      pop\n        /* \"#utility.yul\":12861:12936   */\n      swap1\n      jump\t// out\n        /* \"#utility.yul\":12942:13249   */\n    tag_172:\n        /* \"#utility.yul\":13003:13007   */\n      0x00\n        /* \"#utility.yul\":13093:13111   */\n      0xffffffffffffffff\n        /* \"#utility.yul\":13085:13091   */\n      dup3\n        /* \"#utility.yul\":13082:13112   */\n      gt\n        /* \"#utility.yul\":13079:13135   */\n      iszero\n      tag_338\n      jumpi\n        /* \"#utility.yul\":13115:13133   */\n      tag_339\n      tag_340\n      jump\t// in\n    tag_339:\n        /* \"#utility.yul\":13079:13135   */\n    tag_338:\n        /* \"#utility.yul\":13153:13182   */\n      tag_341\n        /* \"#utility.yul\":13175:13181   */\n      dup3\n        /* \"#utility.yul\":13153:13182   */\n      tag_265\n      jump\t// in\n    tag_341:\n        /* \"#utility.yul\":13145:13182   */\n      swap1\n      pop\n        /* \"#utility.yul\":13237:13241   */\n      0x20\n        /* \"#utility.yul\":13231:13235   */\n      dup2\n        /* \"#utility.yul\":13227:13242   */\n      add\n        /* \"#utility.yul\":13219:13242   */\n      swap1\n      pop\n        /* \"#utility.yul\":12942:13249   */\n      swap2\n      swap1\n      pop\n      jump\t// out\n        /* \"#utility.yul\":13255:13371   */\n    tag_342:\n        /* \"#utility.yul\":13306:13310   */\n      0x00\n        /* \"#utility.yul\":13329:13332   */\n      dup2\n        /* \"#utility.yul\":13321:13332   */\n      swap1\n      pop\n        /* \"#utility.yul\":13359:13363   */\n      0x20\n        /* \"#utility.yul\":13354:13357   */\n      dup3\n        /* \"#utility.yul\":13350:13364   */\n      add\n        /* \"#utility.yul\":13342:13364   */\n      swap1\n      pop\n        /* \"#utility.yul\":13255:13371   */\n      swap2\n      swap1\n      pop\n      jump\t// out\n        /* \"#utility.yul\":13377:13475   */\n    tag_259:\n        /* \"#utility.yul\":13428:13434   */\n      0x00\n        /* \"#utility.yul\":13462:13467   */\n      dup2\n        /* \"#utility.yul\":13456:13468   */\n      mload\n        /* \"#utility.yul\":13446:13468   */\n      swap1\n      pop\n        /* \"#utility.yul\":13377:13475   */\n      swap2\n      swap1\n      pop\n      jump\t// out\n        /* \"#utility.yul\":13481:13649   */\n    tag_261:\n        /* \"#utility.yul\":13564:13575   */\n      0x00\n        /* \"#utility.yul\":13598:13604   */\n      dup3\n        /* \"#utility.yul\":13593:13596   */\n      dup3\n        /* \"#utility.yul\":13586:13605   */\n      mstore\n        /* \"#utility.yul\":13638:13642   */\n      0x20\n        /* \"#utility.yul\":13633:13636   */\n      dup3\n        /* \"#utility.yul\":13629:13643   */\n      add\n        /* \"#utility.yul\":13614:13643   */\n      swap1\n      pop\n        /* \"#utility.yul\":13481:13649   */\n      swap3\n      swap2\n      pop\n      pop\n      jump\t// out\n        /* \"#utility.yul\":13655:13802   */\n    tag_270:\n        /* \"#utility.yul\":13756:13767   */\n      0x00\n        /* \"#utility.yul\":13793:13796   */\n      dup2\n        /* \"#utility.yul\":13778:13796   */\n      swap1\n      pop\n        /* \"#utility.yul\":13655:13802   */\n      swap3\n      swap2\n      pop\n      pop\n      jump\t// out\n        /* \"#utility.yul\":13808:13977   */\n    tag_275:\n        /* \"#utility.yul\":13892:13903   */\n      0x00\n        /* \"#utility.yul\":13926:13932   */\n      dup3\n        /* \"#utility.yul\":13921:13924   */\n      dup3\n        /* \"#utility.yul\":13914:13933   */\n      mstore\n        /* \"#utility.yul\":13966:13970   */\n      0x20\n        /* \"#utility.yul\":13961:13964   */\n      dup3\n        /* \"#utility.yul\":13957:13971   */\n      add\n        /* \"#utility.yul\":13942:13971   */\n      swap1\n      pop\n        /* \"#utility.yul\":13808:13977   */\n      swap3\n      swap2\n      pop\n      pop\n      jump\t// out\n        /* \"#utility.yul\":13983:14288   */\n    tag_95:\n        /* \"#utility.yul\":14023:14026   */\n      0x00\n        /* \"#utility.yul\":14042:14062   */\n      tag_349\n        /* \"#utility.yul\":14060:14061   */\n      dup3\n        /* \"#utility.yul\":14042:14062   */\n      tag_306\n      jump\t// in\n    tag_349:\n        /* \"#utility.yul\":14037:14062   */\n      swap2\n      pop\n        /* \"#utility.yul\":14076:14096   */\n      tag_350\n        /* \"#utility.yul\":14094:14095   */\n      dup4\n        /* \"#utility.yul\":14076:14096   */\n      tag_306\n      jump\t// in\n    tag_350:\n        /* \"#utility.yul\":14071:14096   */\n      swap3\n      pop\n        /* \"#utility.yul\":14230:14231   */\n      dup3\n        /* \"#utility.yul\":14162:14228   */\n      0xffffffffffffffffffffffffffffffffffffffffffffffffffffffffffffffff\n        /* \"#utility.yul\":14158:14232   */\n      sub\n        /* \"#utility.yul\":14155:14156   */\n      dup3\n        /* \"#utility.yul\":14152:14233   */\n      gt\n        /* \"#utility.yul\":14149:14256   */\n      iszero\n      tag_351\n      jumpi\n        /* \"#utility.yul\":14236:14254   */\n      tag_352\n      tag_353\n      jump\t// in\n    tag_352:\n        /* \"#utility.yul\":14149:14256   */\n    tag_351:\n        /* \"#utility.yul\":14280:14281   */\n      dup3\n        /* \"#utility.yul\":14277:14278   */\n      dup3\n        /* \"#utility.yul\":14273:14282   */\n      add\n        /* \"#utility.yul\":14266:14282   */\n      swap1\n      pop\n        /* \"#utility.yul\":13983:14288   */\n      swap3\n      swap2\n      pop\n      pop\n      jump\t// out\n        /* \"#utility.yul\":14294:14485   */\n    tag_93:\n        /* \"#utility.yul\":14334:14338   */\n      0x00\n        /* \"#utility.yul\":14354:14374   */\n      tag_355\n        /* \"#utility.yul\":14372:14373   */\n      dup3\n        /* \"#utility.yul\":14354:14374   */\n      tag_306\n      jump\t// in\n    tag_355:\n        /* \"#utility.yul\":14349:14374   */\n      swap2\n      pop\n        /* \"#utility.yul\":14388:14408   */\n      tag_356\n        /* \"#utility.yul\":14406:14407   */\n      dup4\n        /* \"#utility.yul\":14388:14408   */\n      tag_306\n      jump\t// in\n    tag_356:\n        /* \"#utility.yul\":14383:14408   */\n      swap3\n      pop\n        /* \"#utility.yul\":14427:14428   */\n      dup3\n        /* \"#utility.yul\":14424:14425   */\n      dup3\n        /* \"#utility.yul\":14421:14429   */\n      lt\n        /* \"#utility.yul\":14418:14452   */\n      iszero\n      tag_357\n      jumpi\n        /* \"#utility.yul\":14432:14450   */\n      tag_358\n      tag_353\n      jump\t// in\n    tag_358:\n        /* \"#utility.yul\":14418:14452   */\n    tag_357:\n        /* \"#utility.yul\":14477:14478   */\n      dup3\n        /* \"#utility.yul\":14474:14475   */\n      dup3\n        /* \"#utility.yul\":14470:14479   */\n      sub\n        /* \"#utility.yul\":14462:14479   */\n      swap1\n      pop\n        /* \"#utility.yul\":14294:14485   */\n      swap3\n      swap2\n      pop\n      pop\n      jump\t// out\n        /* \"#utility.yul\":14491:14587   */\n    tag_359:\n        /* \"#utility.yul\":14528:14535   */\n      0x00\n        /* \"#utility.yul\":14557:14581   */\n      tag_361\n        /* \"#utility.yul\":14575:14580   */\n      dup3\n        /* \"#utility.yul\":14557:14581   */\n      tag_362\n      jump\t// in\n    tag_361:\n        /* \"#utility.yul\":14546:14581   */\n      swap1\n      pop\n        /* \"#utility.yul\":14491:14587   */\n      swap2\n      swap1\n      pop\n      jump\t// out\n        /* \"#utility.yul\":14593:14683   */\n    tag_246:\n        /* \"#utility.yul\":14627:14634   */\n      0x00\n        /* \"#utility.yul\":14670:14675   */\n      dup2\n        /* \"#utility.yul\":14663:14676   */\n      iszero\n        /* \"#utility.yul\":14656:14677   */\n      iszero\n        /* \"#utility.yul\":14645:14677   */\n      swap1\n      pop\n        /* \"#utility.yul\":14593:14683   */\n      swap2\n      swap1\n      pop\n      jump\t// out\n        /* \"#utility.yul\":14689:14766   */\n    tag_250:\n        /* \"#utility.yul\":14726:14733   */\n      0x00\n        /* \"#utility.yul\":14755:14760   */\n      dup2\n        /* \"#utility.yul\":14744:14760   */\n      swap1\n      pop\n        /* \"#utility.yul\":14689:14766   */\n      swap2\n      swap1\n      pop\n      jump\t// out\n        /* \"#utility.yul\":14772:14898   */\n    tag_362:\n        /* \"#utility.yul\":14809:14816   */\n      0x00\n        /* \"#utility.yul\":14849:14891   */\n      0xffffffffffffffffffffffffffffffffffffffff\n        /* \"#utility.yul\":14842:14847   */\n      dup3\n        /* \"#utility.yul\":14838:14892   */\n      and\n        /* \"#utility.yul\":14827:14892   */\n      swap1\n      pop\n        /* \"#utility.yul\":14772:14898   */\n      swap2\n      swap1\n      pop\n      jump\t// out\n        /* \"#utility.yul\":14904:14981   */\n    tag_306:\n        /* \"#utility.yul\":14941:14948   */\n      0x00\n        /* \"#utility.yul\":14970:14975   */\n      dup2\n        /* \"#utility.yul\":14959:14975   */\n      swap1\n      pop\n        /* \"#utility.yul\":14904:14981   */\n      swap2\n      swap1\n      pop\n      jump\t// out\n        /* \"#utility.yul\":14987:15581   */\n    tag_153:\n        /* \"#utility.yul\":15071:15076   */\n      0x00\n        /* \"#utility.yul\":15102:15140   */\n      tag_368\n        /* \"#utility.yul\":15134:15139   */\n      dup3\n        /* \"#utility.yul\":15102:15140   */\n      tag_259\n      jump\t// in\n    tag_368:\n        /* \"#utility.yul\":15165:15170   */\n      dup3\n        /* \"#utility.yul\":15192:15232   */\n      tag_369\n        /* \"#utility.yul\":15226:15231   */\n      dup5\n        /* \"#utility.yul\":15192:15232   */\n      tag_342\n      jump\t// in\n    tag_369:\n        /* \"#utility.yul\":15180:15232   */\n      swap1\n      pop\n        /* \"#utility.yul\":15251:15286   */\n      tag_370\n        /* \"#utility.yul\":15277:15285   */\n      dup2\n        /* \"#utility.yul\":15251:15286   */\n      tag_371\n      jump\t// in\n    tag_370:\n        /* \"#utility.yul\":15242:15286   */\n      swap3\n      pop\n        /* \"#utility.yul\":15310:15312   */\n      0x20\n        /* \"#utility.yul\":15302:15308   */\n      dup3\n        /* \"#utility.yul\":15299:15313   */\n      lt\n        /* \"#utility.yul\":15296:15574   */\n      iszero\n      tag_372\n      jumpi\n        /* \"#utility.yul\":15381:15550   */\n      tag_373\n        /* \"#utility.yul\":15466:15532   */\n      0xffffffffffffffffffffffffffffffffffffffffffffffffffffffffffffffff\n        /* \"#utility.yul\":15436:15442   */\n      dup4\n        /* \"#utility.yul\":15432:15434   */\n      0x20\n        /* \"#utility.yul\":15428:15443   */\n      sub\n        /* \"#utility.yul\":15425:15426   */\n      0x08\n        /* \"#utility.yul\":15421:15444   */\n      mul\n        /* \"#utility.yul\":15381:15550   */\n      tag_374\n      jump\t// in\n    tag_373:\n        /* \"#utility.yul\":15358:15363   */\n      dup4\n        /* \"#utility.yul\":15337:15564   */\n      and\n        /* \"#utility.yul\":15328:15564   */\n      swap3\n      pop\n        /* \"#utility.yul\":15296:15574   */\n    tag_372:\n        /* \"#utility.yul\":15077:15581   */\n      pop\n      pop\n        /* \"#utility.yul\":14987:15581   */\n      swap2\n      swap1\n      pop\n      jump\t// out\n        /* \"#utility.yul\":15587:15741   */\n    tag_178:\n        /* \"#utility.yul\":15671:15677   */\n      dup3\n        /* \"#utility.yul\":15666:15669   */\n      dup2\n        /* \"#utility.yul\":15661:15664   */\n      dup4\n        /* \"#utility.yul\":15648:15678   */\n      calldatacopy\n        /* \"#utility.yul\":15733:15734   */\n      0x00\n        /* \"#utility.yul\":15724:15730   */\n      dup4\n        /* \"#utility.yul\":15719:15722   */\n      dup4\n        /* \"#utility.yul\":15715:15731   */\n      add\n        /* \"#utility.yul\":15708:15735   */\n      mstore\n        /* \"#utility.yul\":15587:15741   */\n      pop\n      pop\n      pop\n      jump\t// out\n        /* \"#utility.yul\":15747:16054   */\n    tag_263:\n        /* \"#utility.yul\":15815:15816   */\n      0x00\n        /* \"#utility.yul\":15825:15938   */\n    tag_377:\n        /* \"#utility.yul\":15839:15845   */\n      dup4\n        /* \"#utility.yul\":15836:15837   */\n      dup2\n        /* \"#utility.yul\":15833:15846   */\n      lt\n        /* \"#utility.yul\":15825:15938   */\n      iszero\n      tag_379\n      jumpi\n        /* \"#utility.yul\":15924:15925   */\n      dup1\n        /* \"#utility.yul\":15919:15922   */\n      dup3\n        /* \"#utility.yul\":15915:15926   */\n      add\n        /* \"#utility.yul\":15909:15927   */\n      mload\n        /* \"#utility.yul\":15905:15906   */\n      dup2\n        /* \"#utility.yul\":15900:15903   */\n      dup5\n        /* \"#utility.yul\":15896:15907   */\n      add\n        /* \"#utility.yul\":15889:15928   */\n      mstore\n        /* \"#utility.yul\":15861:15863   */\n      0x20\n        /* \"#utility.yul\":15858:15859   */\n      dup2\n        /* \"#utility.yul\":15854:15864   */\n      add\n        /* \"#utility.yul\":15849:15864   */\n      swap1\n      pop\n        /* \"#utility.yul\":15825:15938   */\n      jump(tag_377)\n    tag_379:\n        /* \"#utility.yul\":15956:15962   */\n      dup4\n        /* \"#utility.yul\":15953:15954   */\n      dup2\n        /* \"#utility.yul\":15950:15963   */\n      gt\n        /* \"#utility.yul\":15947:16048   */\n      iszero\n      tag_380\n      jumpi\n        /* \"#utility.yul\":16036:16037   */\n      0x00\n        /* \"#utility.yul\":16027:16033   */\n      dup5\n        /* \"#utility.yul\":16022:16025   */\n      dup5\n        /* \"#utility.yul\":16018:16034   */\n      add\n        /* \"#utility.yul\":16011:16038   */\n      mstore\n        /* \"#utility.yul\":15947:16048   */\n    tag_380:\n        /* \"#utility.yul\":15796:16054   */\n      pop\n        /* \"#utility.yul\":15747:16054   */\n      pop\n      pop\n      pop\n      jump\t// out\n        /* \"#utility.yul\":16060:16380   */\n    tag_100:\n        /* \"#utility.yul\":16104:16110   */\n      0x00\n        /* \"#utility.yul\":16141:16142   */\n      0x02\n        /* \"#utility.yul\":16135:16139   */\n      dup3\n        /* \"#utility.yul\":16131:16143   */\n      div\n        /* \"#utility.yul\":16121:16143   */\n      swap1\n      pop\n        /* \"#utility.yul\":16188:16189   */\n      0x01\n        /* \"#utility.yul\":16182:16186   */\n      dup3\n        /* \"#utility.yul\":16178:16190   */\n      and\n        /* \"#utility.yul\":16209:16227   */\n      dup1\n        /* \"#utility.yul\":16199:16280   */\n      tag_382\n      jumpi\n        /* \"#utility.yul\":16265:16269   */\n      0x7f\n        /* \"#utility.yul\":16257:16263   */\n      dup3\n        /* \"#utility.yul\":16253:16270   */\n      and\n        /* \"#utility.yul\":16243:16270   */\n      swap2\n      pop\n        /* \"#utility.yul\":16199:16280   */\n    tag_382:\n        /* \"#utility.yul\":16327:16329   */\n      0x20\n        /* \"#utility.yul\":16319:16325   */\n      dup3\n        /* \"#utility.yul\":16316:16330   */\n      lt\n        /* \"#utility.yul\":16296:16314   */\n      dup2\n        /* \"#utility.yul\":16293:16331   */\n      eq\n        /* \"#utility.yul\":16290:16374   */\n      iszero\n      tag_383\n      jumpi\n        /* \"#utility.yul\":16346:16364   */\n      tag_384\n      tag_385\n      jump\t// in\n    tag_384:\n        /* \"#utility.yul\":16290:16374   */\n    tag_383:\n        /* \"#utility.yul\":16111:16380   */\n      pop\n        /* \"#utility.yul\":16060:16380   */\n      swap2\n      swap1\n      pop\n      jump\t// out\n        /* \"#utility.yul\":16386:16667   */\n    tag_335:\n        /* \"#utility.yul\":16469:16496   */\n      tag_387\n        /* \"#utility.yul\":16491:16495   */\n      dup3\n        /* \"#utility.yul\":16469:16496   */\n      tag_265\n      jump\t// in\n    tag_387:\n        /* \"#utility.yul\":16461:16467   */\n      dup2\n        /* \"#utility.yul\":16457:16497   */\n      add\n        /* \"#utility.yul\":16599:16605   */\n      dup2\n        /* \"#utility.yul\":16587:16597   */\n      dup2\n        /* \"#utility.yul\":16584:16606   */\n      lt\n        /* \"#utility.yul\":16563:16581   */\n      0xffffffffffffffff\n        /* \"#utility.yul\":16551:16561   */\n      dup3\n        /* \"#utility.yul\":16548:16582   */\n      gt\n        /* \"#utility.yul\":16545:16607   */\n      or\n        /* \"#utility.yul\":16542:16630   */\n      iszero\n      tag_388\n      jumpi\n        /* \"#utility.yul\":16610:16628   */\n      tag_389\n      tag_340\n      jump\t// in\n    tag_389:\n        /* \"#utility.yul\":16542:16630   */\n    tag_388:\n        /* \"#utility.yul\":16650:16660   */\n      dup1\n        /* \"#utility.yul\":16646:16648   */\n      0x40\n        /* \"#utility.yul\":16639:16661   */\n      mstore\n        /* \"#utility.yul\":16429:16667   */\n      pop\n        /* \"#utility.yul\":16386:16667   */\n      pop\n      pop\n      jump\t// out\n        /* \"#utility.yul\":16673:16752   */\n    tag_255:\n        /* \"#utility.yul\":16712:16719   */\n      0x00\n        /* \"#utility.yul\":16741:16746   */\n      dup2\n        /* \"#utility.yul\":16730:16746   */\n      swap1\n      pop\n        /* \"#utility.yul\":16673:16752   */\n      swap2\n      swap1\n      pop\n      jump\t// out\n        /* \"#utility.yul\":16758:16938   */\n    tag_353:\n        /* \"#utility.yul\":16806:16883   */\n      0x4e487b7100000000000000000000000000000000000000000000000000000000\n        /* \"#utility.yul\":16803:16804   */\n      0x00\n        /* \"#utility.yul\":16796:16884   */\n      mstore\n        /* \"#utility.yul\":16903:16907   */\n      0x11\n        /* \"#utility.yul\":16900:16901   */\n      0x04\n        /* \"#utility.yul\":16893:16908   */\n      mstore\n        /* \"#utility.yul\":16927:16931   */\n      0x24\n        /* \"#utility.yul\":16924:16925   */\n      0x00\n        /* \"#utility.yul\":16917:16932   */\n      revert\n        /* \"#utility.yul\":16944:17124   */\n    tag_385:\n        /* \"#utility.yul\":16992:17069   */\n      0x4e487b7100000000000000000000000000000000000000000000000000000000\n        /* \"#utility.yul\":16989:16990   */\n      0x00\n        /* \"#utility.yul\":16982:17070   */\n      mstore\n        /* \"#utility.yul\":17089:17093   */\n      0x22\n        /* \"#utility.yul\":17086:17087   */\n      0x04\n        /* \"#utility.yul\":17079:17094   */\n      mstore\n        /* \"#utility.yul\":17113:17117   */\n      0x24\n        /* \"#utility.yul\":17110:17111   */\n      0x00\n        /* \"#utility.yul\":17103:17118   */\n      revert\n        /* \"#utility.yul\":17130:17310   */\n    tag_340:\n        /* \"#utility.yul\":17178:17255   */\n      0x4e487b7100000000000000000000000000000000000000000000000000000000\n        /* \"#utility.yul\":17175:17176   */\n      0x00\n        /* \"#utility.yul\":17168:17256   */\n      mstore\n        /* \"#utility.yul\":17275:17279   */\n      0x41\n        /* \"#utility.yul\":17272:17273   */\n      0x04\n        /* \"#utility.yul\":17265:17280   */\n      mstore\n        /* \"#utility.yul\":17299:17303   */\n      0x24\n        /* \"#utility.yul\":17296:17297   */\n      0x00\n        /* \"#utility.yul\":17289:17304   */\n      revert\n        /* \"#utility.yul\":17316:17470   */\n    tag_371:\n        /* \"#utility.yul\":17359:17370   */\n      0x00\n        /* \"#utility.yul\":17395:17424   */\n      tag_395\n        /* \"#utility.yul\":17419:17422   */\n      dup3\n        /* \"#utility.yul\":17413:17423   */\n      mload\n        /* \"#utility.yul\":17395:17424   */\n      tag_250\n      jump\t// in\n    tag_395:\n        /* \"#utility.yul\":17458:17463   */\n      dup1\n        /* \"#utility.yul\":17434:17463   */\n      swap2\n      pop\n        /* \"#utility.yul\":17371:17470   */\n      pop\n        /* \"#utility.yul\":17316:17470   */\n      swap2\n      swap1\n      pop\n      jump\t// out\n        /* \"#utility.yul\":17476:17593   */\n    tag_194:\n        /* \"#utility.yul\":17585:17586   */\n      0x00\n        /* \"#utility.yul\":17582:17583   */\n      dup1\n        /* \"#utility.yul\":17575:17587   */\n      revert\n        /* \"#utility.yul\":17599:17716   */\n    tag_176:\n        /* \"#utility.yul\":17708:17709   */\n      0x00\n        /* \"#utility.yul\":17705:17706   */\n      dup1\n        /* \"#utility.yul\":17698:17710   */\n      revert\n        /* \"#utility.yul\":17722:17839   */\n    tag_234:\n        /* \"#utility.yul\":17831:17832   */\n      0x00\n        /* \"#utility.yul\":17828:17829   */\n      dup1\n        /* \"#utility.yul\":17821:17833   */\n      revert\n        /* \"#utility.yul\":17845:17962   */\n    tag_203:\n        /* \"#utility.yul\":17954:17955   */\n      0x00\n        /* \"#utility.yul\":17951:17952   */\n      dup1\n        /* \"#utility.yul\":17944:17956   */\n      revert\n        /* \"#utility.yul\":17968:18070   */\n    tag_265:\n        /* \"#utility.yul\":18009:18015   */\n      0x00\n        /* \"#utility.yul\":18060:18062   */\n      0x1f\n        /* \"#utility.yul\":18056:18063   */\n      not\n        /* \"#utility.yul\":18051:18053   */\n      0x1f\n        /* \"#utility.yul\":18044:18049   */\n      dup4\n        /* \"#utility.yul\":18040:18054   */\n      add\n        /* \"#utility.yul\":18036:18064   */\n      and\n        /* \"#utility.yul\":18026:18064   */\n      swap1\n      pop\n        /* \"#utility.yul\":17968:18070   */\n      swap2\n      swap1\n      pop\n      jump\t// out\n        /* \"#utility.yul\":18076:18183   */\n    tag_374:\n        /* \"#utility.yul\":18120:18128   */\n      0x00\n        /* \"#utility.yul\":18170:18175   */\n      dup3\n        /* \"#utility.yul\":18164:18168   */\n      dup3\n        /* \"#utility.yul\":18160:18176   */\n      shl\n        /* \"#utility.yul\":18139:18176   */\n      swap1\n      pop\n        /* \"#utility.yul\":18076:18183   */\n      swap3\n      swap2\n      pop\n      pop\n      jump\t// out\n        /* \"#utility.yul\":18189:18409   */\n    tag_277:\n        /* \"#utility.yul\":18329:18363   */\n      0x496e73756666696369656e742062616c616e6365206f7220616c6c6f77616e63\n        /* \"#utility.yul\":18325:18326   */\n      0x00\n        /* \"#utility.yul\":18317:18323   */\n      dup3\n        /* \"#utility.yul\":18313:18327   */\n      add\n        /* \"#utility.yul\":18306:18364   */\n      mstore\n        /* \"#utility.yul\":18398:18401   */\n      0x6500000000000000000000000000000000000000000000000000000000000000\n        /* \"#utility.yul\":18393:18395   */\n      0x20\n        /* \"#utility.yul\":18385:18391   */\n      dup3\n        /* \"#utility.yul\":18381:18396   */\n      add\n        /* \"#utility.yul\":18374:18402   */\n      mstore\n        /* \"#utility.yul\":18189:18409   */\n      pop\n      jump\t// out\n        /* \"#utility.yul\":18415:18585   */\n    tag_282:\n        /* \"#utility.yul\":18555:18577   */\n      0x496e73756666696369656e742062616c616e6365000000000000000000000000\n        /* \"#utility.yul\":18551:18552   */\n      0x00\n        /* \"#utility.yul\":18543:18549   */\n      dup3\n        /* \"#utility.yul\":18539:18553   */\n      add\n        /* \"#utility.yul\":18532:18578   */\n      mstore\n        /* \"#utility.yul\":18415:18585   */\n      pop\n      jump\t// out\n        /* \"#utility.yul\":18591:18759   */\n    tag_287:\n        /* \"#utility.yul\":18731:18751   */\n      0x4e6f7420656e6f7567682062616c616e63650000000000000000000000000000\n        /* \"#utility.yul\":18727:18728   */\n      0x00\n        /* \"#utility.yul\":18719:18725   */\n      dup3\n        /* \"#utility.yul\":18715:18729   */\n      add\n        /* \"#utility.yul\":18708:18752   */\n      mstore\n        /* \"#utility.yul\":18591:18759   */\n      pop\n      jump\t// out\n        /* \"#utility.yul\":18765:18987   */\n    tag_292:\n        /* \"#utility.yul\":18905:18939   */\n      0x446174612073697a65206578636565647320746865206c696d6974206f662031\n        /* \"#utility.yul\":18901:18902   */\n      0x00\n        /* \"#utility.yul\":18893:18899   */\n      dup3\n        /* \"#utility.yul\":18889:18903   */\n      add\n        /* \"#utility.yul\":18882:18940   */\n      mstore\n        /* \"#utility.yul\":18974:18979   */\n      0x304d420000000000000000000000000000000000000000000000000000000000\n        /* \"#utility.yul\":18969:18971   */\n      0x20\n        /* \"#utility.yul\":18961:18967   */\n      dup3\n        /* \"#utility.yul\":18957:18972   */\n      add\n        /* \"#utility.yul\":18950:18980   */\n      mstore\n        /* \"#utility.yul\":18765:18987   */\n      pop\n      jump\t// out\n        /* \"#utility.yul\":18993:19163   */\n    tag_297:\n        /* \"#utility.yul\":19133:19155   */\n      0x4e6f7420656e6f75676820616c6c6f77616e6365000000000000000000000000\n        /* \"#utility.yul\":19129:19130   */\n      0x00\n        /* \"#utility.yul\":19121:19127   */\n      dup3\n        /* \"#utility.yul\":19117:19131   */\n      add\n        /* \"#utility.yul\":19110:19156   */\n      mstore\n        /* \"#utility.yul\":18993:19163   */\n      pop\n      jump\t// out\n        /* \"#utility.yul\":19169:19347   */\n    tag_302:\n        /* \"#utility.yul\":19309:19339   */\n      0x446174612073697a6520657863656564732031304d42206c696d697400000000\n        /* \"#utility.yul\":19305:19306   */\n      0x00\n        /* \"#utility.yul\":19297:19303   */\n      dup3\n        /* \"#utility.yul\":19293:19307   */\n      add\n        /* \"#utility.yul\":19286:19340   */\n      mstore\n        /* \"#utility.yul\":19169:19347   */\n      pop\n      jump\t// out\n        /* \"#utility.yul\":19353:19475   */\n    tag_182:\n        /* \"#utility.yul\":19426:19450   */\n      tag_409\n        /* \"#utility.yul\":19444:19449   */\n      dup2\n        /* \"#utility.yul\":19426:19450   */\n      tag_359\n      jump\t// in\n    tag_409:\n        /* \"#utility.yul\":19419:19424   */\n      dup2\n        /* \"#utility.yul\":19416:19451   */\n      eq\n        /* \"#utility.yul\":19406:19469   */\n      tag_410\n      jumpi\n        /* \"#utility.yul\":19465:19466   */\n      0x00\n        /* \"#utility.yul\":19462:19463   */\n      dup1\n        /* \"#utility.yul\":19455:19467   */\n      revert\n        /* \"#utility.yul\":19406:19469   */\n    tag_410:\n        /* \"#utility.yul\":19353:19475   */\n      pop\n      jump\t// out\n        /* \"#utility.yul\":19481:19603   */\n    tag_186:\n        /* \"#utility.yul\":19554:19578   */\n      tag_412\n        /* \"#utility.yul\":19572:19577   */\n      dup2\n        /* \"#utility.yul\":19554:19578   */\n      tag_250\n      jump\t// in\n    tag_412:\n        /* \"#utility.yul\":19547:19552   */\n      dup2\n        /* \"#utility.yul\":19544:19579   */\n      eq\n        /* \"#utility.yul\":19534:19597   */\n      tag_413\n      jumpi\n        /* \"#utility.yul\":19593:19594   */\n      0x00\n        /* \"#utility.yul\":19590:19591   */\n      dup1\n        /* \"#utility.yul\":19583:19595   */\n      revert\n        /* \"#utility.yul\":19534:19597   */\n    tag_413:\n        /* \"#utility.yul\":19481:19603   */\n      pop\n      jump\t// out\n        /* \"#utility.yul\":19609:19731   */\n    tag_199:\n        /* \"#utility.yul\":19682:19706   */\n      tag_415\n        /* \"#utility.yul\":19700:19705   */\n      dup2\n        /* \"#utility.yul\":19682:19706   */\n      tag_306\n      jump\t// in\n    tag_415:\n        /* \"#utility.yul\":19675:19680   */\n      dup2\n        /* \"#utility.yul\":19672:19707   */\n      eq\n        /* \"#utility.yul\":19662:19725   */\n      tag_416\n      jumpi\n        /* \"#utility.yul\":19721:19722   */\n      0x00\n        /* \"#utility.yul\":19718:19719   */\n      dup1\n        /* \"#utility.yul\":19711:19723   */\n      revert\n        /* \"#utility.yul\":19662:19725   */\n    tag_416:\n        /* \"#utility.yul\":19609:19731   */\n      pop\n      jump\t// out\n\n    auxdata: 0xa26469706673582212204a115901fb7d7b7daf1b09a32398a437b4610429a11bf4307ce51aa65df7bb5264736f6c63430008070033\n}\n",
				"bytecode": {
					"linkReferences": {},
					"object": "608060405264e8d4a5100060005534801561001957600080fd5b50600054600160003373ffffffffffffffffffffffffffffffffffffffff1673ffffffffffffffffffffffffffffffffffffffff16815260200190815260200160002081905550611b348061006f6000396000f3fe608060405234801561001057600080fd5b50600436106100f55760003560e01c806370a0823111610097578063a9059cbb11610066578063a9059cbb14610296578063ac5c8535146102c6578063d8218148146102e2578063dd62ed3e14610312576100f5565b806370a08231146101fc5780638bd40c3b1461022c578063965d68d914610248578063a4da229014610278576100f5565b806354f6127f116100d357806354f6127f146101785780636377fc8b146101a857806369cef46c146101c45780636c12ed28146101e0576100f5565b8063095ea7b3146100fa57806318160ddd1461012a57806323b872dd14610148575b600080fd5b610114600480360381019061010f91906111ef565b610342565b60405161012191906114e0565b60405180910390f35b610132610434565b60405161013f91906115f8565b60405180910390f35b610162600480360381019061015d919061119c565b61043a565b60405161016f91906114e0565b60405180910390f35b610192600480360381019061018d919061122f565b6106f5565b60405161019f9190611516565b60405180910390f35b6101c260048036038101906101bd9190611289565b61079a565b005b6101de60048036038101906101d99190611289565b61081a565b005b6101fa60048036038101906101f5919061119c565b61089c565b005b6102166004803603810190610211919061112f565b610b21565b60405161022391906115f8565b60405180910390f35b610246600480360381019061024191906112d2565b610b39565b005b610262600480360381019061025d919061122f565b610bf0565b60405161026f9190611516565b60405180910390f35b610280610c95565b60405161028d91906114fb565b60405180910390f35b6102b060048036038101906102ab91906111ef565b610c9f565b6040516102bd91906114e0565b60405180910390f35b6102e060048036038101906102db9190611289565b610e4a565b005b6102fc60048036038101906102f7919061115c565b610f1c565b60405161030991906115f8565b60405180910390f35b61032c6004803603810190610327919061115c565b610fa3565b60405161033991906115f8565b60405180910390f35b600081600260003373ffffffffffffffffffffffffffffffffffffffff1673ffffffffffffffffffffffffffffffffffffffff16815260200190815260200160002060008573ffffffffffffffffffffffffffffffffffffffff1673ffffffffffffffffffffffffffffffffffffffff168152602001908152602001600020819055508273ffffffffffffffffffffffffffffffffffffffff163373ffffffffffffffffffffffffffffffffffffffff167f8c5be1e5ebec7d5bd14f71427d1e84f3dd0314c0f7b2291e5b200ac8c7c3b9258460405161042291906115f8565b60405180910390a36001905092915050565b60005481565b600081600160008673ffffffffffffffffffffffffffffffffffffffff1673ffffffffffffffffffffffffffffffffffffffff1681526020019081526020016000205410158015610507575081600260008673ffffffffffffffffffffffffffffffffffffffff1673ffffffffffffffffffffffffffffffffffffffff16815260200190815260200160002060003373ffffffffffffffffffffffffffffffffffffffff1673ffffffffffffffffffffffffffffffffffffffff1681526020019081526020016000205410155b610546576040517f08c379a000000000000000000000000000000000000000000000000000000000815260040161053d90611538565b60405180910390fd5b81600160008673ffffffffffffffffffffffffffffffffffffffff1673ffffffffffffffffffffffffffffffffffffffff16815260200190815260200160002060008282546105959190611707565b9250508190555081600160008573ffffffffffffffffffffffffffffffffffffffff1673ffffffffffffffffffffffffffffffffffffffff16815260200190815260200160002060008282546105eb91906116b1565b9250508190555081600260008673ffffffffffffffffffffffffffffffffffffffff1673ffffffffffffffffffffffffffffffffffffffff16815260200190815260200160002060003373ffffffffffffffffffffffffffffffffffffffff1673ffffffffffffffffffffffffffffffffffffffff168152602001908152602001600020600082825461067e9190611707565b925050819055508273ffffffffffffffffffffffffffffffffffffffff168473ffffffffffffffffffffffffffffffffffffffff167fddf252ad1be2c89b69c2b068fc378daa952ba7f163c4a11628f55a4df523b3ef846040516106e291906115f8565b60405180910390a3600190509392505050565b606060036000838152602001908152602001600020805461071590611836565b80601f016020809104026020016040519081016040528092919081815260200182805461074190611836565b801561078e5780601f106107635761010080835404028352916020019161078e565b820191906000526020600020905b81548152906001019060200180831161077157829003601f168201915b50505050509050919050565b60006002826040516107ac91906114c9565b602060405180830381855afa1580156107c9573d6000803e3d6000fd5b5050506040513d601f19601f820116820180604052508101906107ec919061125c565b905081600460008381526020019081526020016000209080519060200190610815929190610fc8565b505050565b62a0000081511115610861576040517f08c379a0000000000000000000000000000000000000000000000000000000008152600401610858906115d8565b60405180910390fd5b8080519060200120600581905550806003600060055481526020019081526020016000209080519060200190610898929190610fc8565b5050565b80600160008573ffffffffffffffffffffffffffffffffffffffff1673ffffffffffffffffffffffffffffffffffffffff16815260200190815260200160002054101561091e576040517f08c379a000000000000000000000000000000000000000000000000000000000815260040161091590611578565b60405180910390fd5b80600260008573ffffffffffffffffffffffffffffffffffffffff1673ffffffffffffffffffffffffffffffffffffffff16815260200190815260200160002060003373ffffffffffffffffffffffffffffffffffffffff1673ffffffffffffffffffffffffffffffffffffffff1681526020019081526020016000205410156109dd576040517f08c379a00000000000000000000000000000000000000000000000000000000081526004016109d4906115b8565b60405180910390fd5b80600160008573ffffffffffffffffffffffffffffffffffffffff1673ffffffffffffffffffffffffffffffffffffffff1681526020019081526020016000206000828254610a2c9190611707565b9250508190555080600260008573ffffffffffffffffffffffffffffffffffffffff1673ffffffffffffffffffffffffffffffffffffffff16815260200190815260200160002060003373ffffffffffffffffffffffffffffffffffffffff1673ffffffffffffffffffffffffffffffffffffffff1681526020019081526020016000206000828254610abf9190611707565b9250508190555080600160008473ffffffffffffffffffffffffffffffffffffffff1673ffffffffffffffffffffffffffffffffffffffff1681526020019081526020016000206000828254610b1591906116b1565b92505081905550505050565b60016020528060005260406000206000915090505481565b62a0000082511115610b80576040517f08c379a0000000000000000000000000000000000000000000000000000000008152600401610b7790611598565b60405180910390fd5b81600360008381526020019081526020016000209080519060200190610ba7929190610fc8565b50803373ffffffffffffffffffffffffffffffffffffffff167fed4db59f1764789ecac8e436bc4ffbd671282c22b4d3860cba3aaf331b45f6cb60405160405180910390a35050565b6060600460008381526020019081526020016000208054610c1090611836565b80601f0160208091040260200160405190810160405280929190818152602001828054610c3c90611836565b8015610c895780601f10610c5e57610100808354040283529160200191610c89565b820191906000526020600020905b815481529060010190602001808311610c6c57829003601f168201915b50505050509050919050565b6000600554905090565b600081600160003373ffffffffffffffffffffffffffffffffffffffff1673ffffffffffffffffffffffffffffffffffffffff1681526020019081526020016000205410158015610cf05750600082115b610d2f576040517f08c379a0000000000000000000000000000000000000000000000000000000008152600401610d2690611558565b60405180910390fd5b81600160003373ffffffffffffffffffffffffffffffffffffffff1673ffffffffffffffffffffffffffffffffffffffff1681526020019081526020016000206000828254610d7e9190611707565b9250508190555081600160008573ffffffffffffffffffffffffffffffffffffffff1673ffffffffffffffffffffffffffffffffffffffff1681526020019081526020016000206000828254610dd491906116b1565b925050819055508273ffffffffffffffffffffffffffffffffffffffff163373ffffffffffffffffffffffffffffffffffffffff167fddf252ad1be2c89b69c2b068fc378daa952ba7f163c4a11628f55a4df523b3ef84604051610e3891906115f8565b60405180910390a36001905092915050565b62a0000081511115610e91576040517f08c379a0000000000000000000000000000000000000000000000000000000008152600401610e8890611598565b60405180910390fd5b600081610e9d9061178d565b9050600081604051602001610eb291906114ae565b6040516020818303038152906040529050808051906020012091506000829050803373ffffffffffffffffffffffffffffffffffffffff167fed4db59f1764789ecac8e436bc4ffbd671282c22b4d3860cba3aaf331b45f6cb60405160405180910390a350505050565b6000600260008473ffffffffffffffffffffffffffffffffffffffff1673ffffffffffffffffffffffffffffffffffffffff16815260200190815260200160002060008373ffffffffffffffffffffffffffffffffffffffff1673ffffffffffffffffffffffffffffffffffffffff16815260200190815260200160002054905092915050565b6002602052816000526040600020602052806000526040600020600091509150505481565b828054610fd490611836565b90600052602060002090601f016020900481019282610ff6576000855561103d565b82601f1061100f57805160ff191683800117855561103d565b8280016001018555821561103d579182015b8281111561103c578251825591602001919060010190611021565b5b50905061104a919061104e565b5090565b5b8082111561106757600081600090555060010161104f565b5090565b600061107e61107984611638565b611613565b90508281526020810184848401111561109a5761109961194a565b5b6110a58482856117f4565b509392505050565b6000813590506110bc81611ab9565b92915050565b6000813590506110d181611ad0565b92915050565b6000815190506110e681611ad0565b92915050565b600082601f83011261110157611100611945565b5b813561111184826020860161106b565b91505092915050565b60008135905061112981611ae7565b92915050565b60006020828403121561114557611144611954565b5b6000611153848285016110ad565b91505092915050565b6000806040838503121561117357611172611954565b5b6000611181858286016110ad565b9250506020611192858286016110ad565b9150509250929050565b6000806000606084860312156111b5576111b4611954565b5b60006111c3868287016110ad565b93505060206111d4868287016110ad565b92505060406111e58682870161111a565b9150509250925092565b6000806040838503121561120657611205611954565b5b6000611214858286016110ad565b92505060206112258582860161111a565b9150509250929050565b60006020828403121561124557611244611954565b5b6000611253848285016110c2565b91505092915050565b60006020828403121561127257611271611954565b5b6000611280848285016110d7565b91505092915050565b60006020828403121561129f5761129e611954565b5b600082013567ffffffffffffffff8111156112bd576112bc61194f565b5b6112c9848285016110ec565b91505092915050565b600080604083850312156112e9576112e8611954565b5b600083013567ffffffffffffffff8111156113075761130661194f565b5b611313858286016110ec565b9250506020611324858286016110c2565b9150509250929050565b6113378161174d565b82525050565b61134681611759565b82525050565b61135d61135882611759565b611899565b82525050565b600061136e82611679565b6113788185611684565b9350611388818560208601611803565b61139181611959565b840191505092915050565b60006113a782611679565b6113b18185611695565b93506113c1818560208601611803565b80840191505092915050565b60006113da6021836116a0565b91506113e582611977565b604082019050919050565b60006113fd6014836116a0565b9150611408826119c6565b602082019050919050565b60006114206012836116a0565b915061142b826119ef565b602082019050919050565b60006114436023836116a0565b915061144e82611a18565b604082019050919050565b60006114666014836116a0565b915061147182611a67565b602082019050919050565b6000611489601c836116a0565b915061149482611a90565b602082019050919050565b6114a881611783565b82525050565b60006114ba828461134c565b60208201915081905092915050565b60006114d5828461139c565b915081905092915050565b60006020820190506114f5600083018461132e565b92915050565b6000602082019050611510600083018461133d565b92915050565b600060208201905081810360008301526115308184611363565b905092915050565b60006020820190508181036000830152611551816113cd565b9050919050565b60006020820190508181036000830152611571816113f0565b9050919050565b6000602082019050818103600083015261159181611413565b9050919050565b600060208201905081810360008301526115b181611436565b9050919050565b600060208201905081810360008301526115d181611459565b9050919050565b600060208201905081810360008301526115f18161147c565b9050919050565b600060208201905061160d600083018461149f565b92915050565b600061161d61162e565b90506116298282611868565b919050565b6000604051905090565b600067ffffffffffffffff82111561165357611652611901565b5b61165c82611959565b9050602081019050919050565b6000819050602082019050919050565b600081519050919050565b600082825260208201905092915050565b600081905092915050565b600082825260208201905092915050565b60006116bc82611783565b91506116c783611783565b9250827fffffffffffffffffffffffffffffffffffffffffffffffffffffffffffffffff038211156116fc576116fb6118a3565b5b828201905092915050565b600061171282611783565b915061171d83611783565b9250828210156117305761172f6118a3565b5b828203905092915050565b600061174682611763565b9050919050565b60008115159050919050565b6000819050919050565b600073ffffffffffffffffffffffffffffffffffffffff82169050919050565b6000819050919050565b600061179882611679565b826117a284611669565b90506117ad81611930565b925060208210156117ed576117e87fffffffffffffffffffffffffffffffffffffffffffffffffffffffffffffffff8360200360080261196a565b831692505b5050919050565b82818337600083830152505050565b60005b83811015611821578082015181840152602081019050611806565b83811115611830576000848401525b50505050565b6000600282049050600182168061184e57607f821691505b60208210811415611862576118616118d2565b5b50919050565b61187182611959565b810181811067ffffffffffffffff821117156118905761188f611901565b5b80604052505050565b6000819050919050565b7f4e487b7100000000000000000000000000000000000000000000000000000000600052601160045260246000fd5b7f4e487b7100000000000000000000000000000000000000000000000000000000600052602260045260246000fd5b7f4e487b7100000000000000000000000000000000000000000000000000000000600052604160045260246000fd5b600061193c8251611759565b80915050919050565b600080fd5b600080fd5b600080fd5b600080fd5b6000601f19601f8301169050919050565b600082821b905092915050565b7f496e73756666696369656e742062616c616e6365206f7220616c6c6f77616e6360008201527f6500000000000000000000000000000000000000000000000000000000000000602082015250565b7f496e73756666696369656e742062616c616e6365000000000000000000000000600082015250565b7f4e6f7420656e6f7567682062616c616e63650000000000000000000000000000600082015250565b7f446174612073697a65206578636565647320746865206c696d6974206f66203160008201527f304d420000000000000000000000000000000000000000000000000000000000602082015250565b7f4e6f7420656e6f75676820616c6c6f77616e6365000000000000000000000000600082015250565b7f446174612073697a6520657863656564732031304d42206c696d697400000000600082015250565b611ac28161173b565b8114611acd57600080fd5b50565b611ad981611759565b8114611ae457600080fd5b50565b611af081611783565b8114611afb57600080fd5b5056fea26469706673582212204a115901fb7d7b7daf1b09a32398a437b4610429a11bf4307ce51aa65df7bb5264736f6c63430008070033",
					"opcodes": "PUSH1 0x80 PUSH1 0x40 MSTORE PUSH5 0xE8D4A51000 PUSH1 0x0 SSTORE CALLVALUE DUP1 ISZERO PUSH2 0x19 JUMPI PUSH1 0x0 DUP1 REVERT JUMPDEST POP PUSH1 0x0 SLOAD PUSH1 0x1 PUSH1 0x0 CALLER PUSH20 0xFFFFFFFFFFFFFFFFFFFFFFFFFFFFFFFFFFFFFFFF AND PUSH20 0xFFFFFFFFFFFFFFFFFFFFFFFFFFFFFFFFFFFFFFFF AND DUP2 MSTORE PUSH1 0x20 ADD SWAP1 DUP2 MSTORE PUSH1 0x20 ADD PUSH1 0x0 KECCAK256 DUP2 SWAP1 SSTORE POP PUSH2 0x1B34 DUP1 PUSH2 0x6F PUSH1 0x0 CODECOPY PUSH1 0x0 RETURN INVALID PUSH1 0x80 PUSH1 0x40 MSTORE CALLVALUE DUP1 ISZERO PUSH2 0x10 JUMPI PUSH1 0x0 DUP1 REVERT JUMPDEST POP PUSH1 0x4 CALLDATASIZE LT PUSH2 0xF5 JUMPI PUSH1 0x0 CALLDATALOAD PUSH1 0xE0 SHR DUP1 PUSH4 0x70A08231 GT PUSH2 0x97 JUMPI DUP1 PUSH4 0xA9059CBB GT PUSH2 0x66 JUMPI DUP1 PUSH4 0xA9059CBB EQ PUSH2 0x296 JUMPI DUP1 PUSH4 0xAC5C8535 EQ PUSH2 0x2C6 JUMPI DUP1 PUSH4 0xD8218148 EQ PUSH2 0x2E2 JUMPI DUP1 PUSH4 0xDD62ED3E EQ PUSH2 0x312 JUMPI PUSH2 0xF5 JUMP JUMPDEST DUP1 PUSH4 0x70A08231 EQ PUSH2 0x1FC JUMPI DUP1 PUSH4 0x8BD40C3B EQ PUSH2 0x22C JUMPI DUP1 PUSH4 0x965D68D9 EQ PUSH2 0x248 JUMPI DUP1 PUSH4 0xA4DA2290 EQ PUSH2 0x278 JUMPI PUSH2 0xF5 JUMP JUMPDEST DUP1 PUSH4 0x54F6127F GT PUSH2 0xD3 JUMPI DUP1 PUSH4 0x54F6127F EQ PUSH2 0x178 JUMPI DUP1 PUSH4 0x6377FC8B EQ PUSH2 0x1A8 JUMPI DUP1 PUSH4 0x69CEF46C EQ PUSH2 0x1C4 JUMPI DUP1 PUSH4 0x6C12ED28 EQ PUSH2 0x1E0 JUMPI PUSH2 0xF5 JUMP JUMPDEST DUP1 PUSH4 0x95EA7B3 EQ PUSH2 0xFA JUMPI DUP1 PUSH4 0x18160DDD EQ PUSH2 0x12A JUMPI DUP1 PUSH4 0x23B872DD EQ PUSH2 0x148 JUMPI JUMPDEST PUSH1 0x0 DUP1 REVERT JUMPDEST PUSH2 0x114 PUSH1 0x4 DUP1 CALLDATASIZE SUB DUP2 ADD SWAP1 PUSH2 0x10F SWAP2 SWAP1 PUSH2 0x11EF JUMP JUMPDEST PUSH2 0x342 JUMP JUMPDEST PUSH1 0x40 MLOAD PUSH2 0x121 SWAP2 SWAP1 PUSH2 0x14E0 JUMP JUMPDEST PUSH1 0x40 MLOAD DUP1 SWAP2 SUB SWAP1 RETURN JUMPDEST PUSH2 0x132 PUSH2 0x434 JUMP JUMPDEST PUSH1 0x40 MLOAD PUSH2 0x13F SWAP2 SWAP1 PUSH2 0x15F8 JUMP JUMPDEST PUSH1 0x40 MLOAD DUP1 SWAP2 SUB SWAP1 RETURN JUMPDEST PUSH2 0x162 PUSH1 0x4 DUP1 CALLDATASIZE SUB DUP2 ADD SWAP1 PUSH2 0x15D SWAP2 SWAP1 PUSH2 0x119C JUMP JUMPDEST PUSH2 0x43A JUMP JUMPDEST PUSH1 0x40 MLOAD PUSH2 0x16F SWAP2 SWAP1 PUSH2 0x14E0 JUMP JUMPDEST PUSH1 0x40 MLOAD DUP1 SWAP2 SUB SWAP1 RETURN JUMPDEST PUSH2 0x192 PUSH1 0x4 DUP1 CALLDATASIZE SUB DUP2 ADD SWAP1 PUSH2 0x18D SWAP2 SWAP1 PUSH2 0x122F JUMP JUMPDEST PUSH2 0x6F5 JUMP JUMPDEST PUSH1 0x40 MLOAD PUSH2 0x19F SWAP2 SWAP1 PUSH2 0x1516 JUMP JUMPDEST PUSH1 0x40 MLOAD DUP1 SWAP2 SUB SWAP1 RETURN JUMPDEST PUSH2 0x1C2 PUSH1 0x4 DUP1 CALLDATASIZE SUB DUP2 ADD SWAP1 PUSH2 0x1BD SWAP2 SWAP1 PUSH2 0x1289 JUMP JUMPDEST PUSH2 0x79A JUMP JUMPDEST STOP JUMPDEST PUSH2 0x1DE PUSH1 0x4 DUP1 CALLDATASIZE SUB DUP2 ADD SWAP1 PUSH2 0x1D9 SWAP2 SWAP1 PUSH2 0x1289 JUMP JUMPDEST PUSH2 0x81A JUMP JUMPDEST STOP JUMPDEST PUSH2 0x1FA PUSH1 0x4 DUP1 CALLDATASIZE SUB DUP2 ADD SWAP1 PUSH2 0x1F5 SWAP2 SWAP1 PUSH2 0x119C JUMP JUMPDEST PUSH2 0x89C JUMP JUMPDEST STOP JUMPDEST PUSH2 0x216 PUSH1 0x4 DUP1 CALLDATASIZE SUB DUP2 ADD SWAP1 PUSH2 0x211 SWAP2 SWAP1 PUSH2 0x112F JUMP JUMPDEST PUSH2 0xB21 JUMP JUMPDEST PUSH1 0x40 MLOAD PUSH2 0x223 SWAP2 SWAP1 PUSH2 0x15F8 JUMP JUMPDEST PUSH1 0x40 MLOAD DUP1 SWAP2 SUB SWAP1 RETURN JUMPDEST PUSH2 0x246 PUSH1 0x4 DUP1 CALLDATASIZE SUB DUP2 ADD SWAP1 PUSH2 0x241 SWAP2 SWAP1 PUSH2 0x12D2 JUMP JUMPDEST PUSH2 0xB39 JUMP JUMPDEST STOP JUMPDEST PUSH2 0x262 PUSH1 0x4 DUP1 CALLDATASIZE SUB DUP2 ADD SWAP1 PUSH2 0x25D SWAP2 SWAP1 PUSH2 0x122F JUMP JUMPDEST PUSH2 0xBF0 JUMP JUMPDEST PUSH1 0x40 MLOAD PUSH2 0x26F SWAP2 SWAP1 PUSH2 0x1516 JUMP JUMPDEST PUSH1 0x40 MLOAD DUP1 SWAP2 SUB SWAP1 RETURN JUMPDEST PUSH2 0x280 PUSH2 0xC95 JUMP JUMPDEST PUSH1 0x40 MLOAD PUSH2 0x28D SWAP2 SWAP1 PUSH2 0x14FB JUMP JUMPDEST PUSH1 0x40 MLOAD DUP1 SWAP2 SUB SWAP1 RETURN JUMPDEST PUSH2 0x2B0 PUSH1 0x4 DUP1 CALLDATASIZE SUB DUP2 ADD SWAP1 PUSH2 0x2AB SWAP2 SWAP1 PUSH2 0x11EF JUMP JUMPDEST PUSH2 0xC9F JUMP JUMPDEST PUSH1 0x40 MLOAD PUSH2 0x2BD SWAP2 SWAP1 PUSH2 0x14E0 JUMP JUMPDEST PUSH1 0x40 MLOAD DUP1 SWAP2 SUB SWAP1 RETURN JUMPDEST PUSH2 0x2E0 PUSH1 0x4 DUP1 CALLDATASIZE SUB DUP2 ADD SWAP1 PUSH2 0x2DB SWAP2 SWAP1 PUSH2 0x1289 JUMP JUMPDEST PUSH2 0xE4A JUMP JUMPDEST STOP JUMPDEST PUSH2 0x2FC PUSH1 0x4 DUP1 CALLDATASIZE SUB DUP2 ADD SWAP1 PUSH2 0x2F7 SWAP2 SWAP1 PUSH2 0x115C JUMP JUMPDEST PUSH2 0xF1C JUMP JUMPDEST PUSH1 0x40 MLOAD PUSH2 0x309 SWAP2 SWAP1 PUSH2 0x15F8 JUMP JUMPDEST PUSH1 0x40 MLOAD DUP1 SWAP2 SUB SWAP1 RETURN JUMPDEST PUSH2 0x32C PUSH1 0x4 DUP1 CALLDATASIZE SUB DUP2 ADD SWAP1 PUSH2 0x327 SWAP2 SWAP1 PUSH2 0x115C JUMP JUMPDEST PUSH2 0xFA3 JUMP JUMPDEST PUSH1 0x40 MLOAD PUSH2 0x339 SWAP2 SWAP1 PUSH2 0x15F8 JUMP JUMPDEST PUSH1 0x40 MLOAD DUP1 SWAP2 SUB SWAP1 RETURN JUMPDEST PUSH1 0x0 DUP2 PUSH1 0x2 PUSH1 0x0 CALLER PUSH20 0xFFFFFFFFFFFFFFFFFFFFFFFFFFFFFFFFFFFFFFFF AND PUSH20 0xFFFFFFFFFFFFFFFFFFFFFFFFFFFFFFFFFFFFFFFF AND DUP2 MSTORE PUSH1 0x20 ADD SWAP1 DUP2 MSTORE PUSH1 0x20 ADD PUSH1 0x0 KECCAK256 PUSH1 0x0 DUP6 PUSH20 0xFFFFFFFFFFFFFFFFFFFFFFFFFFFFFFFFFFFFFFFF AND PUSH20 0xFFFFFFFFFFFFFFFFFFFFFFFFFFFFFFFFFFFFFFFF AND DUP2 MSTORE PUSH1 0x20 ADD SWAP1 DUP2 MSTORE PUSH1 0x20 ADD PUSH1 0x0 KECCAK256 DUP2 SWAP1 SSTORE POP DUP3 PUSH20 0xFFFFFFFFFFFFFFFFFFFFFFFFFFFFFFFFFFFFFFFF AND CALLER PUSH20 0xFFFFFFFFFFFFFFFFFFFFFFFFFFFFFFFFFFFFFFFF AND PUSH32 0x8C5BE1E5EBEC7D5BD14F71427D1E84F3DD0314C0F7B2291E5B200AC8C7C3B925 DUP5 PUSH1 0x40 MLOAD PUSH2 0x422 SWAP2 SWAP1 PUSH2 0x15F8 JUMP JUMPDEST PUSH1 0x40 MLOAD DUP1 SWAP2 SUB SWAP1 LOG3 PUSH1 0x1 SWAP1 POP SWAP3 SWAP2 POP POP JUMP JUMPDEST PUSH1 0x0 SLOAD DUP2 JUMP JUMPDEST PUSH1 0x0 DUP2 PUSH1 0x1 PUSH1 0x0 DUP7 PUSH20 0xFFFFFFFFFFFFFFFFFFFFFFFFFFFFFFFFFFFFFFFF AND PUSH20 0xFFFFFFFFFFFFFFFFFFFFFFFFFFFFFFFFFFFFFFFF AND DUP2 MSTORE PUSH1 0x20 ADD SWAP1 DUP2 MSTORE PUSH1 0x20 ADD PUSH1 0x0 KECCAK256 SLOAD LT ISZERO DUP1 ISZERO PUSH2 0x507 JUMPI POP DUP2 PUSH1 0x2 PUSH1 0x0 DUP7 PUSH20 0xFFFFFFFFFFFFFFFFFFFFFFFFFFFFFFFFFFFFFFFF AND PUSH20 0xFFFFFFFFFFFFFFFFFFFFFFFFFFFFFFFFFFFFFFFF AND DUP2 MSTORE PUSH1 0x20 ADD SWAP1 DUP2 MSTORE PUSH1 0x20 ADD PUSH1 0x0 KECCAK256 PUSH1 0x0 CALLER PUSH20 0xFFFFFFFFFFFFFFFFFFFFFFFFFFFFFFFFFFFFFFFF AND PUSH20 0xFFFFFFFFFFFFFFFFFFFFFFFFFFFFFFFFFFFFFFFF AND DUP2 MSTORE PUSH1 0x20 ADD SWAP1 DUP2 MSTORE PUSH1 0x20 ADD PUSH1 0x0 KECCAK256 SLOAD LT ISZERO JUMPDEST PUSH2 0x546 JUMPI PUSH1 0x40 MLOAD PUSH32 0x8C379A000000000000000000000000000000000000000000000000000000000 DUP2 MSTORE PUSH1 0x4 ADD PUSH2 0x53D SWAP1 PUSH2 0x1538 JUMP JUMPDEST PUSH1 0x40 MLOAD DUP1 SWAP2 SUB SWAP1 REVERT JUMPDEST DUP2 PUSH1 0x1 PUSH1 0x0 DUP7 PUSH20 0xFFFFFFFFFFFFFFFFFFFFFFFFFFFFFFFFFFFFFFFF AND PUSH20 0xFFFFFFFFFFFFFFFFFFFFFFFFFFFFFFFFFFFFFFFF AND DUP2 MSTORE PUSH1 0x20 ADD SWAP1 DUP2 MSTORE PUSH1 0x20 ADD PUSH1 0x0 KECCAK256 PUSH1 0x0 DUP3 DUP3 SLOAD PUSH2 0x595 SWAP2 SWAP1 PUSH2 0x1707 JUMP JUMPDEST SWAP3 POP POP DUP2 SWAP1 SSTORE POP DUP2 PUSH1 0x1 PUSH1 0x0 DUP6 PUSH20 0xFFFFFFFFFFFFFFFFFFFFFFFFFFFFFFFFFFFFFFFF AND PUSH20 0xFFFFFFFFFFFFFFFFFFFFFFFFFFFFFFFFFFFFFFFF AND DUP2 MSTORE PUSH1 0x20 ADD SWAP1 DUP2 MSTORE PUSH1 0x20 ADD PUSH1 0x0 KECCAK256 PUSH1 0x0 DUP3 DUP3 SLOAD PUSH2 0x5EB SWAP2 SWAP1 PUSH2 0x16B1 JUMP JUMPDEST SWAP3 POP POP DUP2 SWAP1 SSTORE POP DUP2 PUSH1 0x2 PUSH1 0x0 DUP7 PUSH20 0xFFFFFFFFFFFFFFFFFFFFFFFFFFFFFFFFFFFFFFFF AND PUSH20 0xFFFFFFFFFFFFFFFFFFFFFFFFFFFFFFFFFFFFFFFF AND DUP2 MSTORE PUSH1 0x20 ADD SWAP1 DUP2 MSTORE PUSH1 0x20 ADD PUSH1 0x0 KECCAK256 PUSH1 0x0 CALLER PUSH20 0xFFFFFFFFFFFFFFFFFFFFFFFFFFFFFFFFFFFFFFFF AND PUSH20 0xFFFFFFFFFFFFFFFFFFFFFFFFFFFFFFFFFFFFFFFF AND DUP2 MSTORE PUSH1 0x20 ADD SWAP1 DUP2 MSTORE PUSH1 0x20 ADD PUSH1 0x0 KECCAK256 PUSH1 0x0 DUP3 DUP3 SLOAD PUSH2 0x67E SWAP2 SWAP1 PUSH2 0x1707 JUMP JUMPDEST SWAP3 POP POP DUP2 SWAP1 SSTORE POP DUP3 PUSH20 0xFFFFFFFFFFFFFFFFFFFFFFFFFFFFFFFFFFFFFFFF AND DUP5 PUSH20 0xFFFFFFFFFFFFFFFFFFFFFFFFFFFFFFFFFFFFFFFF AND PUSH32 0xDDF252AD1BE2C89B69C2B068FC378DAA952BA7F163C4A11628F55A4DF523B3EF DUP5 PUSH1 0x40 MLOAD PUSH2 0x6E2 SWAP2 SWAP1 PUSH2 0x15F8 JUMP JUMPDEST PUSH1 0x40 MLOAD DUP1 SWAP2 SUB SWAP1 LOG3 PUSH1 0x1 SWAP1 POP SWAP4 SWAP3 POP POP POP JUMP JUMPDEST PUSH1 0x60 PUSH1 0x3 PUSH1 0x0 DUP4 DUP2 MSTORE PUSH1 0x20 ADD SWAP1 DUP2 MSTORE PUSH1 0x20 ADD PUSH1 0x0 KECCAK256 DUP1 SLOAD PUSH2 0x715 SWAP1 PUSH2 0x1836 JUMP JUMPDEST DUP1 PUSH1 0x1F ADD PUSH1 0x20 DUP1 SWAP2 DIV MUL PUSH1 0x20 ADD PUSH1 0x40 MLOAD SWAP1 DUP2 ADD PUSH1 0x40 MSTORE DUP1 SWAP3 SWAP2 SWAP1 DUP2 DUP2 MSTORE PUSH1 0x20 ADD DUP3 DUP1 SLOAD PUSH2 0x741 SWAP1 PUSH2 0x1836 JUMP JUMPDEST DUP1 ISZERO PUSH2 0x78E JUMPI DUP1 PUSH1 0x1F LT PUSH2 0x763 JUMPI PUSH2 0x100 DUP1 DUP4 SLOAD DIV MUL DUP4 MSTORE SWAP2 PUSH1 0x20 ADD SWAP2 PUSH2 0x78E JUMP JUMPDEST DUP3 ADD SWAP2 SWAP1 PUSH1 0x0 MSTORE PUSH1 0x20 PUSH1 0x0 KECCAK256 SWAP1 JUMPDEST DUP2 SLOAD DUP2 MSTORE SWAP1 PUSH1 0x1 ADD SWAP1 PUSH1 0x20 ADD DUP1 DUP4 GT PUSH2 0x771 JUMPI DUP3 SWAP1 SUB PUSH1 0x1F AND DUP3 ADD SWAP2 JUMPDEST POP POP POP POP POP SWAP1 POP SWAP2 SWAP1 POP JUMP JUMPDEST PUSH1 0x0 PUSH1 0x2 DUP3 PUSH1 0x40 MLOAD PUSH2 0x7AC SWAP2 SWAP1 PUSH2 0x14C9 JUMP JUMPDEST PUSH1 0x20 PUSH1 0x40 MLOAD DUP1 DUP4 SUB DUP2 DUP6 GAS STATICCALL ISZERO DUP1 ISZERO PUSH2 0x7C9 JUMPI RETURNDATASIZE PUSH1 0x0 DUP1 RETURNDATACOPY RETURNDATASIZE PUSH1 0x0 REVERT JUMPDEST POP POP POP PUSH1 0x40 MLOAD RETURNDATASIZE PUSH1 0x1F NOT PUSH1 0x1F DUP3 ADD AND DUP3 ADD DUP1 PUSH1 0x40 MSTORE POP DUP2 ADD SWAP1 PUSH2 0x7EC SWAP2 SWAP1 PUSH2 0x125C JUMP JUMPDEST SWAP1 POP DUP2 PUSH1 0x4 PUSH1 0x0 DUP4 DUP2 MSTORE PUSH1 0x20 ADD SWAP1 DUP2 MSTORE PUSH1 0x20 ADD PUSH1 0x0 KECCAK256 SWAP1 DUP1 MLOAD SWAP1 PUSH1 0x20 ADD SWAP1 PUSH2 0x815 SWAP3 SWAP2 SWAP1 PUSH2 0xFC8 JUMP JUMPDEST POP POP POP JUMP JUMPDEST PUSH3 0xA00000 DUP2 MLOAD GT ISZERO PUSH2 0x861 JUMPI PUSH1 0x40 MLOAD PUSH32 0x8C379A000000000000000000000000000000000000000000000000000000000 DUP2 MSTORE PUSH1 0x4 ADD PUSH2 0x858 SWAP1 PUSH2 0x15D8 JUMP JUMPDEST PUSH1 0x40 MLOAD DUP1 SWAP2 SUB SWAP1 REVERT JUMPDEST DUP1 DUP1 MLOAD SWAP1 PUSH1 0x20 ADD KECCAK256 PUSH1 0x5 DUP2 SWAP1 SSTORE POP DUP1 PUSH1 0x3 PUSH1 0x0 PUSH1 0x5 SLOAD DUP2 MSTORE PUSH1 0x20 ADD SWAP1 DUP2 MSTORE PUSH1 0x20 ADD PUSH1 0x0 KECCAK256 SWAP1 DUP1 MLOAD SWAP1 PUSH1 0x20 ADD SWAP1 PUSH2 0x898 SWAP3 SWAP2 SWAP1 PUSH2 0xFC8 JUMP JUMPDEST POP POP JUMP JUMPDEST DUP1 PUSH1 0x1 PUSH1 0x0 DUP6 PUSH20 0xFFFFFFFFFFFFFFFFFFFFFFFFFFFFFFFFFFFFFFFF AND PUSH20 0xFFFFFFFFFFFFFFFFFFFFFFFFFFFFFFFFFFFFFFFF AND DUP2 MSTORE PUSH1 0x20 ADD SWAP1 DUP2 MSTORE PUSH1 0x20 ADD PUSH1 0x0 KECCAK256 SLOAD LT ISZERO PUSH2 0x91E JUMPI PUSH1 0x40 MLOAD PUSH32 0x8C379A000000000000000000000000000000000000000000000000000000000 DUP2 MSTORE PUSH1 0x4 ADD PUSH2 0x915 SWAP1 PUSH2 0x1578 JUMP JUMPDEST PUSH1 0x40 MLOAD DUP1 SWAP2 SUB SWAP1 REVERT JUMPDEST DUP1 PUSH1 0x2 PUSH1 0x0 DUP6 PUSH20 0xFFFFFFFFFFFFFFFFFFFFFFFFFFFFFFFFFFFFFFFF AND PUSH20 0xFFFFFFFFFFFFFFFFFFFFFFFFFFFFFFFFFFFFFFFF AND DUP2 MSTORE PUSH1 0x20 ADD SWAP1 DUP2 MSTORE PUSH1 0x20 ADD PUSH1 0x0 KECCAK256 PUSH1 0x0 CALLER PUSH20 0xFFFFFFFFFFFFFFFFFFFFFFFFFFFFFFFFFFFFFFFF AND PUSH20 0xFFFFFFFFFFFFFFFFFFFFFFFFFFFFFFFFFFFFFFFF AND DUP2 MSTORE PUSH1 0x20 ADD SWAP1 DUP2 MSTORE PUSH1 0x20 ADD PUSH1 0x0 KECCAK256 SLOAD LT ISZERO PUSH2 0x9DD JUMPI PUSH1 0x40 MLOAD PUSH32 0x8C379A000000000000000000000000000000000000000000000000000000000 DUP2 MSTORE PUSH1 0x4 ADD PUSH2 0x9D4 SWAP1 PUSH2 0x15B8 JUMP JUMPDEST PUSH1 0x40 MLOAD DUP1 SWAP2 SUB SWAP1 REVERT JUMPDEST DUP1 PUSH1 0x1 PUSH1 0x0 DUP6 PUSH20 0xFFFFFFFFFFFFFFFFFFFFFFFFFFFFFFFFFFFFFFFF AND PUSH20 0xFFFFFFFFFFFFFFFFFFFFFFFFFFFFFFFFFFFFFFFF AND DUP2 MSTORE PUSH1 0x20 ADD SWAP1 DUP2 MSTORE PUSH1 0x20 ADD PUSH1 0x0 KECCAK256 PUSH1 0x0 DUP3 DUP3 SLOAD PUSH2 0xA2C SWAP2 SWAP1 PUSH2 0x1707 JUMP JUMPDEST SWAP3 POP POP DUP2 SWAP1 SSTORE POP DUP1 PUSH1 0x2 PUSH1 0x0 DUP6 PUSH20 0xFFFFFFFFFFFFFFFFFFFFFFFFFFFFFFFFFFFFFFFF AND PUSH20 0xFFFFFFFFFFFFFFFFFFFFFFFFFFFFFFFFFFFFFFFF AND DUP2 MSTORE PUSH1 0x20 ADD SWAP1 DUP2 MSTORE PUSH1 0x20 ADD PUSH1 0x0 KECCAK256 PUSH1 0x0 CALLER PUSH20 0xFFFFFFFFFFFFFFFFFFFFFFFFFFFFFFFFFFFFFFFF AND PUSH20 0xFFFFFFFFFFFFFFFFFFFFFFFFFFFFFFFFFFFFFFFF AND DUP2 MSTORE PUSH1 0x20 ADD SWAP1 DUP2 MSTORE PUSH1 0x20 ADD PUSH1 0x0 KECCAK256 PUSH1 0x0 DUP3 DUP3 SLOAD PUSH2 0xABF SWAP2 SWAP1 PUSH2 0x1707 JUMP JUMPDEST SWAP3 POP POP DUP2 SWAP1 SSTORE POP DUP1 PUSH1 0x1 PUSH1 0x0 DUP5 PUSH20 0xFFFFFFFFFFFFFFFFFFFFFFFFFFFFFFFFFFFFFFFF AND PUSH20 0xFFFFFFFFFFFFFFFFFFFFFFFFFFFFFFFFFFFFFFFF AND DUP2 MSTORE PUSH1 0x20 ADD SWAP1 DUP2 MSTORE PUSH1 0x20 ADD PUSH1 0x0 KECCAK256 PUSH1 0x0 DUP3 DUP3 SLOAD PUSH2 0xB15 SWAP2 SWAP1 PUSH2 0x16B1 JUMP JUMPDEST SWAP3 POP POP DUP2 SWAP1 SSTORE POP POP POP POP JUMP JUMPDEST PUSH1 0x1 PUSH1 0x20 MSTORE DUP1 PUSH1 0x0 MSTORE PUSH1 0x40 PUSH1 0x0 KECCAK256 PUSH1 0x0 SWAP2 POP SWAP1 POP SLOAD DUP2 JUMP JUMPDEST PUSH3 0xA00000 DUP3 MLOAD GT ISZERO PUSH2 0xB80 JUMPI PUSH1 0x40 MLOAD PUSH32 0x8C379A000000000000000000000000000000000000000000000000000000000 DUP2 MSTORE PUSH1 0x4 ADD PUSH2 0xB77 SWAP1 PUSH2 0x1598 JUMP JUMPDEST PUSH1 0x40 MLOAD DUP1 SWAP2 SUB SWAP1 REVERT JUMPDEST DUP2 PUSH1 0x3 PUSH1 0x0 DUP4 DUP2 MSTORE PUSH1 0x20 ADD SWAP1 DUP2 MSTORE PUSH1 0x20 ADD PUSH1 0x0 KECCAK256 SWAP1 DUP1 MLOAD SWAP1 PUSH1 0x20 ADD SWAP1 PUSH2 0xBA7 SWAP3 SWAP2 SWAP1 PUSH2 0xFC8 JUMP JUMPDEST POP DUP1 CALLER PUSH20 0xFFFFFFFFFFFFFFFFFFFFFFFFFFFFFFFFFFFFFFFF AND PUSH32 0xED4DB59F1764789ECAC8E436BC4FFBD671282C22B4D3860CBA3AAF331B45F6CB PUSH1 0x40 MLOAD PUSH1 0x40 MLOAD DUP1 SWAP2 SUB SWAP1 LOG3 POP POP JUMP JUMPDEST PUSH1 0x60 PUSH1 0x4 PUSH1 0x0 DUP4 DUP2 MSTORE PUSH1 0x20 ADD SWAP1 DUP2 MSTORE PUSH1 0x20 ADD PUSH1 0x0 KECCAK256 DUP1 SLOAD PUSH2 0xC10 SWAP1 PUSH2 0x1836 JUMP JUMPDEST DUP1 PUSH1 0x1F ADD PUSH1 0x20 DUP1 SWAP2 DIV MUL PUSH1 0x20 ADD PUSH1 0x40 MLOAD SWAP1 DUP2 ADD PUSH1 0x40 MSTORE DUP1 SWAP3 SWAP2 SWAP1 DUP2 DUP2 MSTORE PUSH1 0x20 ADD DUP3 DUP1 SLOAD PUSH2 0xC3C SWAP1 PUSH2 0x1836 JUMP JUMPDEST DUP1 ISZERO PUSH2 0xC89 JUMPI DUP1 PUSH1 0x1F LT PUSH2 0xC5E JUMPI PUSH2 0x100 DUP1 DUP4 SLOAD DIV MUL DUP4 MSTORE SWAP2 PUSH1 0x20 ADD SWAP2 PUSH2 0xC89 JUMP JUMPDEST DUP3 ADD SWAP2 SWAP1 PUSH1 0x0 MSTORE PUSH1 0x20 PUSH1 0x0 KECCAK256 SWAP1 JUMPDEST DUP2 SLOAD DUP2 MSTORE SWAP1 PUSH1 0x1 ADD SWAP1 PUSH1 0x20 ADD DUP1 DUP4 GT PUSH2 0xC6C JUMPI DUP3 SWAP1 SUB PUSH1 0x1F AND DUP3 ADD SWAP2 JUMPDEST POP POP POP POP POP SWAP1 POP SWAP2 SWAP1 POP JUMP JUMPDEST PUSH1 0x0 PUSH1 0x5 SLOAD SWAP1 POP SWAP1 JUMP JUMPDEST PUSH1 0x0 DUP2 PUSH1 0x1 PUSH1 0x0 CALLER PUSH20 0xFFFFFFFFFFFFFFFFFFFFFFFFFFFFFFFFFFFFFFFF AND PUSH20 0xFFFFFFFFFFFFFFFFFFFFFFFFFFFFFFFFFFFFFFFF AND DUP2 MSTORE PUSH1 0x20 ADD SWAP1 DUP2 MSTORE PUSH1 0x20 ADD PUSH1 0x0 KECCAK256 SLOAD LT ISZERO DUP1 ISZERO PUSH2 0xCF0 JUMPI POP PUSH1 0x0 DUP3 GT JUMPDEST PUSH2 0xD2F JUMPI PUSH1 0x40 MLOAD PUSH32 0x8C379A000000000000000000000000000000000000000000000000000000000 DUP2 MSTORE PUSH1 0x4 ADD PUSH2 0xD26 SWAP1 PUSH2 0x1558 JUMP JUMPDEST PUSH1 0x40 MLOAD DUP1 SWAP2 SUB SWAP1 REVERT JUMPDEST DUP2 PUSH1 0x1 PUSH1 0x0 CALLER PUSH20 0xFFFFFFFFFFFFFFFFFFFFFFFFFFFFFFFFFFFFFFFF AND PUSH20 0xFFFFFFFFFFFFFFFFFFFFFFFFFFFFFFFFFFFFFFFF AND DUP2 MSTORE PUSH1 0x20 ADD SWAP1 DUP2 MSTORE PUSH1 0x20 ADD PUSH1 0x0 KECCAK256 PUSH1 0x0 DUP3 DUP3 SLOAD PUSH2 0xD7E SWAP2 SWAP1 PUSH2 0x1707 JUMP JUMPDEST SWAP3 POP POP DUP2 SWAP1 SSTORE POP DUP2 PUSH1 0x1 PUSH1 0x0 DUP6 PUSH20 0xFFFFFFFFFFFFFFFFFFFFFFFFFFFFFFFFFFFFFFFF AND PUSH20 0xFFFFFFFFFFFFFFFFFFFFFFFFFFFFFFFFFFFFFFFF AND DUP2 MSTORE PUSH1 0x20 ADD SWAP1 DUP2 MSTORE PUSH1 0x20 ADD PUSH1 0x0 KECCAK256 PUSH1 0x0 DUP3 DUP3 SLOAD PUSH2 0xDD4 SWAP2 SWAP1 PUSH2 0x16B1 JUMP JUMPDEST SWAP3 POP POP DUP2 SWAP1 SSTORE POP DUP3 PUSH20 0xFFFFFFFFFFFFFFFFFFFFFFFFFFFFFFFFFFFFFFFF AND CALLER PUSH20 0xFFFFFFFFFFFFFFFFFFFFFFFFFFFFFFFFFFFFFFFF AND PUSH32 0xDDF252AD1BE2C89B69C2B068FC378DAA952BA7F163C4A11628F55A4DF523B3EF DUP5 PUSH1 0x40 MLOAD PUSH2 0xE38 SWAP2 SWAP1 PUSH2 0x15F8 JUMP JUMPDEST PUSH1 0x40 MLOAD DUP1 SWAP2 SUB SWAP1 LOG3 PUSH1 0x1 SWAP1 POP SWAP3 SWAP2 POP POP JUMP JUMPDEST PUSH3 0xA00000 DUP2 MLOAD GT ISZERO PUSH2 0xE91 JUMPI PUSH1 0x40 MLOAD PUSH32 0x8C379A000000000000000000000000000000000000000000000000000000000 DUP2 MSTORE PUSH1 0x4 ADD PUSH2 0xE88 SWAP1 PUSH2 0x1598 JUMP JUMPDEST PUSH1 0x40 MLOAD DUP1 SWAP2 SUB SWAP1 REVERT JUMPDEST PUSH1 0x0 DUP2 PUSH2 0xE9D SWAP1 PUSH2 0x178D JUMP JUMPDEST SWAP1 POP PUSH1 0x0 DUP2 PUSH1 0x40 MLOAD PUSH1 0x20 ADD PUSH2 0xEB2 SWAP2 SWAP1 PUSH2 0x14AE JUMP JUMPDEST PUSH1 0x40 MLOAD PUSH1 0x20 DUP2 DUP4 SUB SUB DUP2 MSTORE SWAP1 PUSH1 0x40 MSTORE SWAP1 POP DUP1 DUP1 MLOAD SWAP1 PUSH1 0x20 ADD KECCAK256 SWAP2 POP PUSH1 0x0 DUP3 SWAP1 POP DUP1 CALLER PUSH20 0xFFFFFFFFFFFFFFFFFFFFFFFFFFFFFFFFFFFFFFFF AND PUSH32 0xED4DB59F1764789ECAC8E436BC4FFBD671282C22B4D3860CBA3AAF331B45F6CB PUSH1 0x40 MLOAD PUSH1 0x40 MLOAD DUP1 SWAP2 SUB SWAP1 LOG3 POP POP POP POP JUMP JUMPDEST PUSH1 0x0 PUSH1 0x2 PUSH1 0x0 DUP5 PUSH20 0xFFFFFFFFFFFFFFFFFFFFFFFFFFFFFFFFFFFFFFFF AND PUSH20 0xFFFFFFFFFFFFFFFFFFFFFFFFFFFFFFFFFFFFFFFF AND DUP2 MSTORE PUSH1 0x20 ADD SWAP1 DUP2 MSTORE PUSH1 0x20 ADD PUSH1 0x0 KECCAK256 PUSH1 0x0 DUP4 PUSH20 0xFFFFFFFFFFFFFFFFFFFFFFFFFFFFFFFFFFFFFFFF AND PUSH20 0xFFFFFFFFFFFFFFFFFFFFFFFFFFFFFFFFFFFFFFFF AND DUP2 MSTORE PUSH1 0x20 ADD SWAP1 DUP2 MSTORE PUSH1 0x20 ADD PUSH1 0x0 KECCAK256 SLOAD SWAP1 POP SWAP3 SWAP2 POP POP JUMP JUMPDEST PUSH1 0x2 PUSH1 0x20 MSTORE DUP2 PUSH1 0x0 MSTORE PUSH1 0x40 PUSH1 0x0 KECCAK256 PUSH1 0x20 MSTORE DUP1 PUSH1 0x0 MSTORE PUSH1 0x40 PUSH1 0x0 KECCAK256 PUSH1 0x0 SWAP2 POP SWAP2 POP POP SLOAD DUP2 JUMP JUMPDEST DUP3 DUP1 SLOAD PUSH2 0xFD4 SWAP1 PUSH2 0x1836 JUMP JUMPDEST SWAP1 PUSH1 0x0 MSTORE PUSH1 0x20 PUSH1 0x0 KECCAK256 SWAP1 PUSH1 0x1F ADD PUSH1 0x20 SWAP1 DIV DUP2 ADD SWAP3 DUP3 PUSH2 0xFF6 JUMPI PUSH1 0x0 DUP6 SSTORE PUSH2 0x103D JUMP JUMPDEST DUP3 PUSH1 0x1F LT PUSH2 0x100F JUMPI DUP1 MLOAD PUSH1 0xFF NOT AND DUP4 DUP1 ADD OR DUP6 SSTORE PUSH2 0x103D JUMP JUMPDEST DUP3 DUP1 ADD PUSH1 0x1 ADD DUP6 SSTORE DUP3 ISZERO PUSH2 0x103D JUMPI SWAP2 DUP3 ADD JUMPDEST DUP3 DUP2 GT ISZERO PUSH2 0x103C JUMPI DUP3 MLOAD DUP3 SSTORE SWAP2 PUSH1 0x20 ADD SWAP2 SWAP1 PUSH1 0x1 ADD SWAP1 PUSH2 0x1021 JUMP JUMPDEST JUMPDEST POP SWAP1 POP PUSH2 0x104A SWAP2 SWAP1 PUSH2 0x104E JUMP JUMPDEST POP SWAP1 JUMP JUMPDEST JUMPDEST DUP1 DUP3 GT ISZERO PUSH2 0x1067 JUMPI PUSH1 0x0 DUP2 PUSH1 0x0 SWAP1 SSTORE POP PUSH1 0x1 ADD PUSH2 0x104F JUMP JUMPDEST POP SWAP1 JUMP JUMPDEST PUSH1 0x0 PUSH2 0x107E PUSH2 0x1079 DUP5 PUSH2 0x1638 JUMP JUMPDEST PUSH2 0x1613 JUMP JUMPDEST SWAP1 POP DUP3 DUP2 MSTORE PUSH1 0x20 DUP2 ADD DUP5 DUP5 DUP5 ADD GT ISZERO PUSH2 0x109A JUMPI PUSH2 0x1099 PUSH2 0x194A JUMP JUMPDEST JUMPDEST PUSH2 0x10A5 DUP5 DUP3 DUP6 PUSH2 0x17F4 JUMP JUMPDEST POP SWAP4 SWAP3 POP POP POP JUMP JUMPDEST PUSH1 0x0 DUP2 CALLDATALOAD SWAP1 POP PUSH2 0x10BC DUP2 PUSH2 0x1AB9 JUMP JUMPDEST SWAP3 SWAP2 POP POP JUMP JUMPDEST PUSH1 0x0 DUP2 CALLDATALOAD SWAP1 POP PUSH2 0x10D1 DUP2 PUSH2 0x1AD0 JUMP JUMPDEST SWAP3 SWAP2 POP POP JUMP JUMPDEST PUSH1 0x0 DUP2 MLOAD SWAP1 POP PUSH2 0x10E6 DUP2 PUSH2 0x1AD0 JUMP JUMPDEST SWAP3 SWAP2 POP POP JUMP JUMPDEST PUSH1 0x0 DUP3 PUSH1 0x1F DUP4 ADD SLT PUSH2 0x1101 JUMPI PUSH2 0x1100 PUSH2 0x1945 JUMP JUMPDEST JUMPDEST DUP2 CALLDATALOAD PUSH2 0x1111 DUP5 DUP3 PUSH1 0x20 DUP7 ADD PUSH2 0x106B JUMP JUMPDEST SWAP2 POP POP SWAP3 SWAP2 POP POP JUMP JUMPDEST PUSH1 0x0 DUP2 CALLDATALOAD SWAP1 POP PUSH2 0x1129 DUP2 PUSH2 0x1AE7 JUMP JUMPDEST SWAP3 SWAP2 POP POP JUMP JUMPDEST PUSH1 0x0 PUSH1 0x20 DUP3 DUP5 SUB SLT ISZERO PUSH2 0x1145 JUMPI PUSH2 0x1144 PUSH2 0x1954 JUMP JUMPDEST JUMPDEST PUSH1 0x0 PUSH2 0x1153 DUP5 DUP3 DUP6 ADD PUSH2 0x10AD JUMP JUMPDEST SWAP2 POP POP SWAP3 SWAP2 POP POP JUMP JUMPDEST PUSH1 0x0 DUP1 PUSH1 0x40 DUP4 DUP6 SUB SLT ISZERO PUSH2 0x1173 JUMPI PUSH2 0x1172 PUSH2 0x1954 JUMP JUMPDEST JUMPDEST PUSH1 0x0 PUSH2 0x1181 DUP6 DUP3 DUP7 ADD PUSH2 0x10AD JUMP JUMPDEST SWAP3 POP POP PUSH1 0x20 PUSH2 0x1192 DUP6 DUP3 DUP7 ADD PUSH2 0x10AD JUMP JUMPDEST SWAP2 POP POP SWAP3 POP SWAP3 SWAP1 POP JUMP JUMPDEST PUSH1 0x0 DUP1 PUSH1 0x0 PUSH1 0x60 DUP5 DUP7 SUB SLT ISZERO PUSH2 0x11B5 JUMPI PUSH2 0x11B4 PUSH2 0x1954 JUMP JUMPDEST JUMPDEST PUSH1 0x0 PUSH2 0x11C3 DUP7 DUP3 DUP8 ADD PUSH2 0x10AD JUMP JUMPDEST SWAP4 POP POP PUSH1 0x20 PUSH2 0x11D4 DUP7 DUP3 DUP8 ADD PUSH2 0x10AD JUMP JUMPDEST SWAP3 POP POP PUSH1 0x40 PUSH2 0x11E5 DUP7 DUP3 DUP8 ADD PUSH2 0x111A JUMP JUMPDEST SWAP2 POP POP SWAP3 POP SWAP3 POP SWAP3 JUMP JUMPDEST PUSH1 0x0 DUP1 PUSH1 0x40 DUP4 DUP6 SUB SLT ISZERO PUSH2 0x1206 JUMPI PUSH2 0x1205 PUSH2 0x1954 JUMP JUMPDEST JUMPDEST PUSH1 0x0 PUSH2 0x1214 DUP6 DUP3 DUP7 ADD PUSH2 0x10AD JUMP JUMPDEST SWAP3 POP POP PUSH1 0x20 PUSH2 0x1225 DUP6 DUP3 DUP7 ADD PUSH2 0x111A JUMP JUMPDEST SWAP2 POP POP SWAP3 POP SWAP3 SWAP1 POP JUMP JUMPDEST PUSH1 0x0 PUSH1 0x20 DUP3 DUP5 SUB SLT ISZERO PUSH2 0x1245 JUMPI PUSH2 0x1244 PUSH2 0x1954 JUMP JUMPDEST JUMPDEST PUSH1 0x0 PUSH2 0x1253 DUP5 DUP3 DUP6 ADD PUSH2 0x10C2 JUMP JUMPDEST SWAP2 POP POP SWAP3 SWAP2 POP POP JUMP JUMPDEST PUSH1 0x0 PUSH1 0x20 DUP3 DUP5 SUB SLT ISZERO PUSH2 0x1272 JUMPI PUSH2 0x1271 PUSH2 0x1954 JUMP JUMPDEST JUMPDEST PUSH1 0x0 PUSH2 0x1280 DUP5 DUP3 DUP6 ADD PUSH2 0x10D7 JUMP JUMPDEST SWAP2 POP POP SWAP3 SWAP2 POP POP JUMP JUMPDEST PUSH1 0x0 PUSH1 0x20 DUP3 DUP5 SUB SLT ISZERO PUSH2 0x129F JUMPI PUSH2 0x129E PUSH2 0x1954 JUMP JUMPDEST JUMPDEST PUSH1 0x0 DUP3 ADD CALLDATALOAD PUSH8 0xFFFFFFFFFFFFFFFF DUP2 GT ISZERO PUSH2 0x12BD JUMPI PUSH2 0x12BC PUSH2 0x194F JUMP JUMPDEST JUMPDEST PUSH2 0x12C9 DUP5 DUP3 DUP6 ADD PUSH2 0x10EC JUMP JUMPDEST SWAP2 POP POP SWAP3 SWAP2 POP POP JUMP JUMPDEST PUSH1 0x0 DUP1 PUSH1 0x40 DUP4 DUP6 SUB SLT ISZERO PUSH2 0x12E9 JUMPI PUSH2 0x12E8 PUSH2 0x1954 JUMP JUMPDEST JUMPDEST PUSH1 0x0 DUP4 ADD CALLDATALOAD PUSH8 0xFFFFFFFFFFFFFFFF DUP2 GT ISZERO PUSH2 0x1307 JUMPI PUSH2 0x1306 PUSH2 0x194F JUMP JUMPDEST JUMPDEST PUSH2 0x1313 DUP6 DUP3 DUP7 ADD PUSH2 0x10EC JUMP JUMPDEST SWAP3 POP POP PUSH1 0x20 PUSH2 0x1324 DUP6 DUP3 DUP7 ADD PUSH2 0x10C2 JUMP JUMPDEST SWAP2 POP POP SWAP3 POP SWAP3 SWAP1 POP JUMP JUMPDEST PUSH2 0x1337 DUP2 PUSH2 0x174D JUMP JUMPDEST DUP3 MSTORE POP POP JUMP JUMPDEST PUSH2 0x1346 DUP2 PUSH2 0x1759 JUMP JUMPDEST DUP3 MSTORE POP POP JUMP JUMPDEST PUSH2 0x135D PUSH2 0x1358 DUP3 PUSH2 0x1759 JUMP JUMPDEST PUSH2 0x1899 JUMP JUMPDEST DUP3 MSTORE POP POP JUMP JUMPDEST PUSH1 0x0 PUSH2 0x136E DUP3 PUSH2 0x1679 JUMP JUMPDEST PUSH2 0x1378 DUP2 DUP6 PUSH2 0x1684 JUMP JUMPDEST SWAP4 POP PUSH2 0x1388 DUP2 DUP6 PUSH1 0x20 DUP7 ADD PUSH2 0x1803 JUMP JUMPDEST PUSH2 0x1391 DUP2 PUSH2 0x1959 JUMP JUMPDEST DUP5 ADD SWAP2 POP POP SWAP3 SWAP2 POP POP JUMP JUMPDEST PUSH1 0x0 PUSH2 0x13A7 DUP3 PUSH2 0x1679 JUMP JUMPDEST PUSH2 0x13B1 DUP2 DUP6 PUSH2 0x1695 JUMP JUMPDEST SWAP4 POP PUSH2 0x13C1 DUP2 DUP6 PUSH1 0x20 DUP7 ADD PUSH2 0x1803 JUMP JUMPDEST DUP1 DUP5 ADD SWAP2 POP POP SWAP3 SWAP2 POP POP JUMP JUMPDEST PUSH1 0x0 PUSH2 0x13DA PUSH1 0x21 DUP4 PUSH2 0x16A0 JUMP JUMPDEST SWAP2 POP PUSH2 0x13E5 DUP3 PUSH2 0x1977 JUMP JUMPDEST PUSH1 0x40 DUP3 ADD SWAP1 POP SWAP2 SWAP1 POP JUMP JUMPDEST PUSH1 0x0 PUSH2 0x13FD PUSH1 0x14 DUP4 PUSH2 0x16A0 JUMP JUMPDEST SWAP2 POP PUSH2 0x1408 DUP3 PUSH2 0x19C6 JUMP JUMPDEST PUSH1 0x20 DUP3 ADD SWAP1 POP SWAP2 SWAP1 POP JUMP JUMPDEST PUSH1 0x0 PUSH2 0x1420 PUSH1 0x12 DUP4 PUSH2 0x16A0 JUMP JUMPDEST SWAP2 POP PUSH2 0x142B DUP3 PUSH2 0x19EF JUMP JUMPDEST PUSH1 0x20 DUP3 ADD SWAP1 POP SWAP2 SWAP1 POP JUMP JUMPDEST PUSH1 0x0 PUSH2 0x1443 PUSH1 0x23 DUP4 PUSH2 0x16A0 JUMP JUMPDEST SWAP2 POP PUSH2 0x144E DUP3 PUSH2 0x1A18 JUMP JUMPDEST PUSH1 0x40 DUP3 ADD SWAP1 POP SWAP2 SWAP1 POP JUMP JUMPDEST PUSH1 0x0 PUSH2 0x1466 PUSH1 0x14 DUP4 PUSH2 0x16A0 JUMP JUMPDEST SWAP2 POP PUSH2 0x1471 DUP3 PUSH2 0x1A67 JUMP JUMPDEST PUSH1 0x20 DUP3 ADD SWAP1 POP SWAP2 SWAP1 POP JUMP JUMPDEST PUSH1 0x0 PUSH2 0x1489 PUSH1 0x1C DUP4 PUSH2 0x16A0 JUMP JUMPDEST SWAP2 POP PUSH2 0x1494 DUP3 PUSH2 0x1A90 JUMP JUMPDEST PUSH1 0x20 DUP3 ADD SWAP1 POP SWAP2 SWAP1 POP JUMP JUMPDEST PUSH2 0x14A8 DUP2 PUSH2 0x1783 JUMP JUMPDEST DUP3 MSTORE POP POP JUMP JUMPDEST PUSH1 0x0 PUSH2 0x14BA DUP3 DUP5 PUSH2 0x134C JUMP JUMPDEST PUSH1 0x20 DUP3 ADD SWAP2 POP DUP2 SWAP1 POP SWAP3 SWAP2 POP POP JUMP JUMPDEST PUSH1 0x0 PUSH2 0x14D5 DUP3 DUP5 PUSH2 0x139C JUMP JUMPDEST SWAP2 POP DUP2 SWAP1 POP SWAP3 SWAP2 POP POP JUMP JUMPDEST PUSH1 0x0 PUSH1 0x20 DUP3 ADD SWAP1 POP PUSH2 0x14F5 PUSH1 0x0 DUP4 ADD DUP5 PUSH2 0x132E JUMP JUMPDEST SWAP3 SWAP2 POP POP JUMP JUMPDEST PUSH1 0x0 PUSH1 0x20 DUP3 ADD SWAP1 POP PUSH2 0x1510 PUSH1 0x0 DUP4 ADD DUP5 PUSH2 0x133D JUMP JUMPDEST SWAP3 SWAP2 POP POP JUMP JUMPDEST PUSH1 0x0 PUSH1 0x20 DUP3 ADD SWAP1 POP DUP2 DUP2 SUB PUSH1 0x0 DUP4 ADD MSTORE PUSH2 0x1530 DUP2 DUP5 PUSH2 0x1363 JUMP JUMPDEST SWAP1 POP SWAP3 SWAP2 POP POP JUMP JUMPDEST PUSH1 0x0 PUSH1 0x20 DUP3 ADD SWAP1 POP DUP2 DUP2 SUB PUSH1 0x0 DUP4 ADD MSTORE PUSH2 0x1551 DUP2 PUSH2 0x13CD JUMP JUMPDEST SWAP1 POP SWAP2 SWAP1 POP JUMP JUMPDEST PUSH1 0x0 PUSH1 0x20 DUP3 ADD SWAP1 POP DUP2 DUP2 SUB PUSH1 0x0 DUP4 ADD MSTORE PUSH2 0x1571 DUP2 PUSH2 0x13F0 JUMP JUMPDEST SWAP1 POP SWAP2 SWAP1 POP JUMP JUMPDEST PUSH1 0x0 PUSH1 0x20 DUP3 ADD SWAP1 POP DUP2 DUP2 SUB PUSH1 0x0 DUP4 ADD MSTORE PUSH2 0x1591 DUP2 PUSH2 0x1413 JUMP JUMPDEST SWAP1 POP SWAP2 SWAP1 POP JUMP JUMPDEST PUSH1 0x0 PUSH1 0x20 DUP3 ADD SWAP1 POP DUP2 DUP2 SUB PUSH1 0x0 DUP4 ADD MSTORE PUSH2 0x15B1 DUP2 PUSH2 0x1436 JUMP JUMPDEST SWAP1 POP SWAP2 SWAP1 POP JUMP JUMPDEST PUSH1 0x0 PUSH1 0x20 DUP3 ADD SWAP1 POP DUP2 DUP2 SUB PUSH1 0x0 DUP4 ADD MSTORE PUSH2 0x15D1 DUP2 PUSH2 0x1459 JUMP JUMPDEST SWAP1 POP SWAP2 SWAP1 POP JUMP JUMPDEST PUSH1 0x0 PUSH1 0x20 DUP3 ADD SWAP1 POP DUP2 DUP2 SUB PUSH1 0x0 DUP4 ADD MSTORE PUSH2 0x15F1 DUP2 PUSH2 0x147C JUMP JUMPDEST SWAP1 POP SWAP2 SWAP1 POP JUMP JUMPDEST PUSH1 0x0 PUSH1 0x20 DUP3 ADD SWAP1 POP PUSH2 0x160D PUSH1 0x0 DUP4 ADD DUP5 PUSH2 0x149F JUMP JUMPDEST SWAP3 SWAP2 POP POP JUMP JUMPDEST PUSH1 0x0 PUSH2 0x161D PUSH2 0x162E JUMP JUMPDEST SWAP1 POP PUSH2 0x1629 DUP3 DUP3 PUSH2 0x1868 JUMP JUMPDEST SWAP2 SWAP1 POP JUMP JUMPDEST PUSH1 0x0 PUSH1 0x40 MLOAD SWAP1 POP SWAP1 JUMP JUMPDEST PUSH1 0x0 PUSH8 0xFFFFFFFFFFFFFFFF DUP3 GT ISZERO PUSH2 0x1653 JUMPI PUSH2 0x1652 PUSH2 0x1901 JUMP JUMPDEST JUMPDEST PUSH2 0x165C DUP3 PUSH2 0x1959 JUMP JUMPDEST SWAP1 POP PUSH1 0x20 DUP2 ADD SWAP1 POP SWAP2 SWAP1 POP JUMP JUMPDEST PUSH1 0x0 DUP2 SWAP1 POP PUSH1 0x20 DUP3 ADD SWAP1 POP SWAP2 SWAP1 POP JUMP JUMPDEST PUSH1 0x0 DUP2 MLOAD SWAP1 POP SWAP2 SWAP1 POP JUMP JUMPDEST PUSH1 0x0 DUP3 DUP3 MSTORE PUSH1 0x20 DUP3 ADD SWAP1 POP SWAP3 SWAP2 POP POP JUMP JUMPDEST PUSH1 0x0 DUP2 SWAP1 POP SWAP3 SWAP2 POP POP JUMP JUMPDEST PUSH1 0x0 DUP3 DUP3 MSTORE PUSH1 0x20 DUP3 ADD SWAP1 POP SWAP3 SWAP2 POP POP JUMP JUMPDEST PUSH1 0x0 PUSH2 0x16BC DUP3 PUSH2 0x1783 JUMP JUMPDEST SWAP2 POP PUSH2 0x16C7 DUP4 PUSH2 0x1783 JUMP JUMPDEST SWAP3 POP DUP3 PUSH32 0xFFFFFFFFFFFFFFFFFFFFFFFFFFFFFFFFFFFFFFFFFFFFFFFFFFFFFFFFFFFFFFFF SUB DUP3 GT ISZERO PUSH2 0x16FC JUMPI PUSH2 0x16FB PUSH2 0x18A3 JUMP JUMPDEST JUMPDEST DUP3 DUP3 ADD SWAP1 POP SWAP3 SWAP2 POP POP JUMP JUMPDEST PUSH1 0x0 PUSH2 0x1712 DUP3 PUSH2 0x1783 JUMP JUMPDEST SWAP2 POP PUSH2 0x171D DUP4 PUSH2 0x1783 JUMP JUMPDEST SWAP3 POP DUP3 DUP3 LT ISZERO PUSH2 0x1730 JUMPI PUSH2 0x172F PUSH2 0x18A3 JUMP JUMPDEST JUMPDEST DUP3 DUP3 SUB SWAP1 POP SWAP3 SWAP2 POP POP JUMP JUMPDEST PUSH1 0x0 PUSH2 0x1746 DUP3 PUSH2 0x1763 JUMP JUMPDEST SWAP1 POP SWAP2 SWAP1 POP JUMP JUMPDEST PUSH1 0x0 DUP2 ISZERO ISZERO SWAP1 POP SWAP2 SWAP1 POP JUMP JUMPDEST PUSH1 0x0 DUP2 SWAP1 POP SWAP2 SWAP1 POP JUMP JUMPDEST PUSH1 0x0 PUSH20 0xFFFFFFFFFFFFFFFFFFFFFFFFFFFFFFFFFFFFFFFF DUP3 AND SWAP1 POP SWAP2 SWAP1 POP JUMP JUMPDEST PUSH1 0x0 DUP2 SWAP1 POP SWAP2 SWAP1 POP JUMP JUMPDEST PUSH1 0x0 PUSH2 0x1798 DUP3 PUSH2 0x1679 JUMP JUMPDEST DUP3 PUSH2 0x17A2 DUP5 PUSH2 0x1669 JUMP JUMPDEST SWAP1 POP PUSH2 0x17AD DUP2 PUSH2 0x1930 JUMP JUMPDEST SWAP3 POP PUSH1 0x20 DUP3 LT ISZERO PUSH2 0x17ED JUMPI PUSH2 0x17E8 PUSH32 0xFFFFFFFFFFFFFFFFFFFFFFFFFFFFFFFFFFFFFFFFFFFFFFFFFFFFFFFFFFFFFFFF DUP4 PUSH1 0x20 SUB PUSH1 0x8 MUL PUSH2 0x196A JUMP JUMPDEST DUP4 AND SWAP3 POP JUMPDEST POP POP SWAP2 SWAP1 POP JUMP JUMPDEST DUP3 DUP2 DUP4 CALLDATACOPY PUSH1 0x0 DUP4 DUP4 ADD MSTORE POP POP POP JUMP JUMPDEST PUSH1 0x0 JUMPDEST DUP4 DUP2 LT ISZERO PUSH2 0x1821 JUMPI DUP1 DUP3 ADD MLOAD DUP2 DUP5 ADD MSTORE PUSH1 0x20 DUP2 ADD SWAP1 POP PUSH2 0x1806 JUMP JUMPDEST DUP4 DUP2 GT ISZERO PUSH2 0x1830 JUMPI PUSH1 0x0 DUP5 DUP5 ADD MSTORE JUMPDEST POP POP POP POP JUMP JUMPDEST PUSH1 0x0 PUSH1 0x2 DUP3 DIV SWAP1 POP PUSH1 0x1 DUP3 AND DUP1 PUSH2 0x184E JUMPI PUSH1 0x7F DUP3 AND SWAP2 POP JUMPDEST PUSH1 0x20 DUP3 LT DUP2 EQ ISZERO PUSH2 0x1862 JUMPI PUSH2 0x1861 PUSH2 0x18D2 JUMP JUMPDEST JUMPDEST POP SWAP2 SWAP1 POP JUMP JUMPDEST PUSH2 0x1871 DUP3 PUSH2 0x1959 JUMP JUMPDEST DUP2 ADD DUP2 DUP2 LT PUSH8 0xFFFFFFFFFFFFFFFF DUP3 GT OR ISZERO PUSH2 0x1890 JUMPI PUSH2 0x188F PUSH2 0x1901 JUMP JUMPDEST JUMPDEST DUP1 PUSH1 0x40 MSTORE POP POP POP JUMP JUMPDEST PUSH1 0x0 DUP2 SWAP1 POP SWAP2 SWAP1 POP JUMP JUMPDEST PUSH32 0x4E487B7100000000000000000000000000000000000000000000000000000000 PUSH1 0x0 MSTORE PUSH1 0x11 PUSH1 0x4 MSTORE PUSH1 0x24 PUSH1 0x0 REVERT JUMPDEST PUSH32 0x4E487B7100000000000000000000000000000000000000000000000000000000 PUSH1 0x0 MSTORE PUSH1 0x22 PUSH1 0x4 MSTORE PUSH1 0x24 PUSH1 0x0 REVERT JUMPDEST PUSH32 0x4E487B7100000000000000000000000000000000000000000000000000000000 PUSH1 0x0 MSTORE PUSH1 0x41 PUSH1 0x4 MSTORE PUSH1 0x24 PUSH1 0x0 REVERT JUMPDEST PUSH1 0x0 PUSH2 0x193C DUP3 MLOAD PUSH2 0x1759 JUMP JUMPDEST DUP1 SWAP2 POP POP SWAP2 SWAP1 POP JUMP JUMPDEST PUSH1 0x0 DUP1 REVERT JUMPDEST PUSH1 0x0 DUP1 REVERT JUMPDEST PUSH1 0x0 DUP1 REVERT JUMPDEST PUSH1 0x0 DUP1 REVERT JUMPDEST PUSH1 0x0 PUSH1 0x1F NOT PUSH1 0x1F DUP4 ADD AND SWAP1 POP SWAP2 SWAP1 POP JUMP JUMPDEST PUSH1 0x0 DUP3 DUP3 SHL SWAP1 POP SWAP3 SWAP2 POP POP JUMP JUMPDEST PUSH32 0x496E73756666696369656E742062616C616E6365206F7220616C6C6F77616E63 PUSH1 0x0 DUP3 ADD MSTORE PUSH32 0x6500000000000000000000000000000000000000000000000000000000000000 PUSH1 0x20 DUP3 ADD MSTORE POP JUMP JUMPDEST PUSH32 0x496E73756666696369656E742062616C616E6365000000000000000000000000 PUSH1 0x0 DUP3 ADD MSTORE POP JUMP JUMPDEST PUSH32 0x4E6F7420656E6F7567682062616C616E63650000000000000000000000000000 PUSH1 0x0 DUP3 ADD MSTORE POP JUMP JUMPDEST PUSH32 0x446174612073697A65206578636565647320746865206C696D6974206F662031 PUSH1 0x0 DUP3 ADD MSTORE PUSH32 0x304D420000000000000000000000000000000000000000000000000000000000 PUSH1 0x20 DUP3 ADD MSTORE POP JUMP JUMPDEST PUSH32 0x4E6F7420656E6F75676820616C6C6F77616E6365000000000000000000000000 PUSH1 0x0 DUP3 ADD MSTORE POP JUMP JUMPDEST PUSH32 0x446174612073697A6520657863656564732031304D42206C696D697400000000 PUSH1 0x0 DUP3 ADD MSTORE POP JUMP JUMPDEST PUSH2 0x1AC2 DUP2 PUSH2 0x173B JUMP JUMPDEST DUP2 EQ PUSH2 0x1ACD JUMPI PUSH1 0x0 DUP1 REVERT JUMPDEST POP JUMP JUMPDEST PUSH2 0x1AD9 DUP2 PUSH2 0x1759 JUMP JUMPDEST DUP2 EQ PUSH2 0x1AE4 JUMPI PUSH1 0x0 DUP1 REVERT JUMPDEST POP JUMP JUMPDEST PUSH2 0x1AF0 DUP2 PUSH2 0x1783 JUMP JUMPDEST DUP2 EQ PUSH2 0x1AFB JUMPI PUSH1 0x0 DUP1 REVERT JUMPDEST POP JUMP INVALID LOG2 PUSH5 0x6970667358 0x22 SLT KECCAK256 0x4A GT MSIZE ADD 0xFB PUSH30 0x7B7DAF1B09A32398A437B4610429A11BF4307CE51AA65DF7BB5264736F6C PUSH4 0x43000807 STOP CALLER "
				},
				"gasEstimates": {
					"creation": {
						"codeDepositCost": "1392800",
						"executionCost": "47860",
						"totalCost": "1440660"
					},
					"external": {
						"allowance(address,address)": "infinite",
						"allowance2(address,address)": "infinite",
						"approve(address,uint256)": "infinite",
						"balanceOf(address)": "2837",
						"getData(bytes32)": "infinite",
						"getData2(bytes32)": "infinite",
						"getDataHash()": "2526",
						"storeData(bytes)": "infinite",
						"storeData2(bytes,bytes32)": "infinite",
						"storeData3(bytes)": "infinite",
						"totalSupply()": "2475",
						"transfer(address,uint256)": "infinite",
						"transferFrom(address,address,uint256)": "infinite",
						"transferFrom2(address,address,uint256)": "infinite",
						"uploadData(bytes)": "infinite"
					}
				},
				"methodIdentifiers": {
					"allowance(address,address)": "dd62ed3e",
					"allowance2(address,address)": "d8218148",
					"approve(address,uint256)": "095ea7b3",
					"balanceOf(address)": "70a08231",
					"getData(bytes32)": "54f6127f",
					"getData2(bytes32)": "965d68d9",
					"getDataHash()": "a4da2290",
					"storeData(bytes)": "ac5c8535",
					"storeData2(bytes,bytes32)": "8bd40c3b",
					"storeData3(bytes)": "6377fc8b",
					"totalSupply()": "18160ddd",
					"transfer(address,uint256)": "a9059cbb",
					"transferFrom(address,address,uint256)": "23b872dd",
					"transferFrom2(address,address,uint256)": "6c12ed28",
					"uploadData(bytes)": "69cef46c"
				}
			},
			"storageLayout": {
				"storage": [
					{
						"astId": 5,
						"contract": "contracts/DNG.sol:DNG",
						"label": "totalSupply",
						"offset": 0,
						"slot": "0",
						"type": "t_uint256"
					},
					{
						"astId": 9,
						"contract": "contracts/DNG.sol:DNG",
						"label": "balanceOf",
						"offset": 0,
						"slot": "1",
						"type": "t_mapping(t_address,t_uint256)"
					},
					{
						"astId": 15,
						"contract": "contracts/DNG.sol:DNG",
						"label": "allowance",
						"offset": 0,
						"slot": "2",
						"type": "t_mapping(t_address,t_mapping(t_address,t_uint256))"
					},
					{
						"astId": 19,
						"contract": "contracts/DNG.sol:DNG",
						"label": "dataStorage",
						"offset": 0,
						"slot": "3",
						"type": "t_mapping(t_bytes32,t_bytes_storage)"
					},
					{
						"astId": 23,
						"contract": "contracts/DNG.sol:DNG",
						"label": "data2",
						"offset": 0,
						"slot": "4",
						"type": "t_mapping(t_bytes32,t_bytes_storage)"
					},
					{
						"astId": 25,
						"contract": "contracts/DNG.sol:DNG",
						"label": "dataHash",
						"offset": 0,
						"slot": "5",
						"type": "t_bytes32"
					}
				],
				"types": {
					"t_address": {
						"encoding": "inplace",
						"label": "address",
						"numberOfBytes": "20"
					},
					"t_bytes32": {
						"encoding": "inplace",
						"label": "bytes32",
						"numberOfBytes": "32"
					},
					"t_bytes_storage": {
						"encoding": "bytes",
						"label": "bytes",
						"numberOfBytes": "32"
					},
					"t_mapping(t_address,t_mapping(t_address,t_uint256))": {
						"encoding": "mapping",
						"key": "t_address",
						"label": "mapping(address => mapping(address => uint256))",
						"numberOfBytes": "32",
						"value": "t_mapping(t_address,t_uint256)"
					},
					"t_mapping(t_address,t_uint256)": {
						"encoding": "mapping",
						"key": "t_address",
						"label": "mapping(address => uint256)",
						"numberOfBytes": "32",
						"value": "t_uint256"
					},
					"t_mapping(t_bytes32,t_bytes_storage)": {
						"encoding": "mapping",
						"key": "t_bytes32",
						"label": "mapping(bytes32 => bytes)",
						"numberOfBytes": "32",
						"value": "t_bytes_storage"
					},
					"t_uint256": {
						"encoding": "inplace",
						"label": "uint256",
						"numberOfBytes": "32"
					}
				}
			},
			"userdoc": {
				"kind": "user",
				"methods": {},
				"version": 1
			}
		}
	}
}