{
	"contracts/1_Storage.sol": {
		"DarkPool": {
			"abi": [
				{
					"inputs": [
						{
							"internalType": "address",
							"name": "_router",
							"type": "address"
						}
					],
					"stateMutability": "nonpayable",
					"type": "constructor"
				},
				{
					"anonymous": false,
					"inputs": [
						{
							"indexed": false,
							"internalType": "address",
							"name": "trader1",
							"type": "address"
						},
						{
							"indexed": false,
							"internalType": "address",
							"name": "trader2",
							"type": "address"
						},
						{
							"indexed": false,
							"internalType": "uint256",
							"name": "amountIn",
							"type": "uint256"
						},
						{
							"indexed": false,
							"internalType": "string",
							"name": "symbol",
							"type": "string"
						},
						{
							"indexed": false,
							"internalType": "uint256",
							"name": "price",
							"type": "uint256"
						},
						{
							"indexed": false,
							"internalType": "address[]",
							"name": "symbolAdr",
							"type": "address[]"
						}
					],
					"name": "Trade",
					"type": "event"
				},
				{
					"inputs": [
						{
							"internalType": "string",
							"name": "_symbol",
							"type": "string"
						},
						{
							"internalType": "uint256",
							"name": "_price",
							"type": "uint256"
						},
						{
							"internalType": "uint256",
							"name": "_shares",
							"type": "uint256"
						},
						{
							"internalType": "address[]",
							"name": "_symbolAdr",
							"type": "address[]"
						}
					],
					"name": "addOrder",
					"outputs": [],
					"stateMutability": "nonpayable",
					"type": "function"
				},
				{
					"inputs": [],
					"name": "matchOrders",
					"outputs": [],
					"stateMutability": "nonpayable",
					"type": "function"
				},
				{
					"inputs": [],
					"name": "orderCount",
					"outputs": [
						{
							"internalType": "uint256",
							"name": "",
							"type": "uint256"
						}
					],
					"stateMutability": "view",
					"type": "function"
				},
				{
					"inputs": [
						{
							"internalType": "uint256",
							"name": "",
							"type": "uint256"
						}
					],
					"name": "orders",
					"outputs": [
						{
							"internalType": "address",
							"name": "trader",
							"type": "address"
						},
						{
							"internalType": "string",
							"name": "symbol",
							"type": "string"
						},
						{
							"internalType": "uint256",
							"name": "price",
							"type": "uint256"
						},
						{
							"internalType": "uint256",
							"name": "shares",
							"type": "uint256"
						}
					],
					"stateMutability": "view",
					"type": "function"
				},
				{
					"inputs": [],
					"name": "router",
					"outputs": [
						{
							"internalType": "contract IUniswapV2Router02",
							"name": "",
							"type": "address"
						}
					],
					"stateMutability": "view",
					"type": "function"
				}
			],
			"devdoc": {
				"kind": "dev",
				"methods": {},
				"version": 1
			},
			"evm": {
				"assembly": "    /* \"contracts/1_Storage.sol\":6626:8834  contract DarkPool {... */\n  mstore(0x40, 0x80)\n    /* \"contracts/1_Storage.sol\":6906:6996  constructor (address _router) public {... */\n  callvalue\n  dup1\n  iszero\n  tag_1\n  jumpi\n  0x00\n  dup1\n  revert\ntag_1:\n  pop\n  mload(0x40)\n  sub(codesize, bytecodeSize)\n  dup1\n  bytecodeSize\n  dup4\n  codecopy\n  dup2\n  dup2\n  add\n  0x40\n  mstore\n  dup2\n  add\n  swap1\n  tag_2\n  swap2\n  swap1\n  tag_3\n  jump\t// in\ntag_2:\n    /* \"contracts/1_Storage.sol\":6981:6988  _router */\n  dup1\n    /* \"contracts/1_Storage.sol\":6953:6959  router */\n  0x00\n  dup1\n    /* \"contracts/1_Storage.sol\":6953:6989  router = IUniswapV2Router02(_router) */\n  0x0100\n  exp\n  dup2\n  sload\n  dup2\n  0xffffffffffffffffffffffffffffffffffffffff\n  mul\n  not\n  and\n  swap1\n  dup4\n  0xffffffffffffffffffffffffffffffffffffffff\n  and\n  mul\n  or\n  swap1\n  sstore\n  pop\n    /* \"contracts/1_Storage.sol\":6906:6996  constructor (address _router) public {... */\n  pop\n    /* \"contracts/1_Storage.sol\":6626:8834  contract DarkPool {... */\n  jump(tag_6)\n    /* \"#utility.yul\":7:150   */\ntag_8:\n    /* \"#utility.yul\":64:69   */\n  0x00\n    /* \"#utility.yul\":95:101   */\n  dup2\n    /* \"#utility.yul\":89:102   */\n  mload\n    /* \"#utility.yul\":80:102   */\n  swap1\n  pop\n    /* \"#utility.yul\":111:144   */\n  tag_10\n    /* \"#utility.yul\":138:143   */\n  dup2\n    /* \"#utility.yul\":111:144   */\n  tag_11\n  jump\t// in\ntag_10:\n    /* \"#utility.yul\":7:150   */\n  swap3\n  swap2\n  pop\n  pop\n  jump\t// out\n    /* \"#utility.yul\":156:507   */\ntag_3:\n    /* \"#utility.yul\":226:232   */\n  0x00\n    /* \"#utility.yul\":275:277   */\n  0x20\n    /* \"#utility.yul\":263:272   */\n  dup3\n    /* \"#utility.yul\":254:261   */\n  dup5\n    /* \"#utility.yul\":250:273   */\n  sub\n    /* \"#utility.yul\":246:278   */\n  slt\n    /* \"#utility.yul\":243:362   */\n  iszero\n  tag_13\n  jumpi\n    /* \"#utility.yul\":281:360   */\n  tag_14\n  tag_15\n  jump\t// in\ntag_14:\n    /* \"#utility.yul\":243:362   */\ntag_13:\n    /* \"#utility.yul\":401:402   */\n  0x00\n    /* \"#utility.yul\":426:490   */\n  tag_16\n    /* \"#utility.yul\":482:489   */\n  dup5\n    /* \"#utility.yul\":473:479   */\n  dup3\n    /* \"#utility.yul\":462:471   */\n  dup6\n    /* \"#utility.yul\":458:480   */\n  add\n    /* \"#utility.yul\":426:490   */\n  tag_8\n  jump\t// in\ntag_16:\n    /* \"#utility.yul\":416:490   */\n  swap2\n  pop\n    /* \"#utility.yul\":372:500   */\n  pop\n    /* \"#utility.yul\":156:507   */\n  swap3\n  swap2\n  pop\n  pop\n  jump\t// out\n    /* \"#utility.yul\":594:690   */\ntag_19:\n    /* \"#utility.yul\":631:638   */\n  0x00\n    /* \"#utility.yul\":660:684   */\n  tag_21\n    /* \"#utility.yul\":678:683   */\n  dup3\n    /* \"#utility.yul\":660:684   */\n  tag_22\n  jump\t// in\ntag_21:\n    /* \"#utility.yul\":649:684   */\n  swap1\n  pop\n    /* \"#utility.yul\":594:690   */\n  swap2\n  swap1\n  pop\n  jump\t// out\n    /* \"#utility.yul\":696:822   */\ntag_22:\n    /* \"#utility.yul\":733:740   */\n  0x00\n    /* \"#utility.yul\":773:815   */\n  0xffffffffffffffffffffffffffffffffffffffff\n    /* \"#utility.yul\":766:771   */\n  dup3\n    /* \"#utility.yul\":762:816   */\n  and\n    /* \"#utility.yul\":751:816   */\n  swap1\n  pop\n    /* \"#utility.yul\":696:822   */\n  swap2\n  swap1\n  pop\n  jump\t// out\n    /* \"#utility.yul\":951:1068   */\ntag_15:\n    /* \"#utility.yul\":1060:1061   */\n  0x00\n    /* \"#utility.yul\":1057:1058   */\n  dup1\n    /* \"#utility.yul\":1050:1062   */\n  revert\n    /* \"#utility.yul\":1074:1196   */\ntag_11:\n    /* \"#utility.yul\":1147:1171   */\n  tag_28\n    /* \"#utility.yul\":1165:1170   */\n  dup2\n    /* \"#utility.yul\":1147:1171   */\n  tag_19\n  jump\t// in\ntag_28:\n    /* \"#utility.yul\":1140:1145   */\n  dup2\n    /* \"#utility.yul\":1137:1172   */\n  eq\n    /* \"#utility.yul\":1127:1190   */\n  tag_29\n  jumpi\n    /* \"#utility.yul\":1186:1187   */\n  0x00\n    /* \"#utility.yul\":1183:1184   */\n  dup1\n    /* \"#utility.yul\":1176:1188   */\n  revert\n    /* \"#utility.yul\":1127:1190   */\ntag_29:\n    /* \"#utility.yul\":1074:1196   */\n  pop\n  jump\t// out\n    /* \"contracts/1_Storage.sol\":6626:8834  contract DarkPool {... */\ntag_6:\n  dataSize(sub_0)\n  dup1\n  dataOffset(sub_0)\n  0x00\n  codecopy\n  0x00\n  return\nstop\n\nsub_0: assembly {\n        /* \"contracts/1_Storage.sol\":6626:8834  contract DarkPool {... */\n      mstore(0x40, 0x80)\n      callvalue\n      dup1\n      iszero\n      tag_1\n      jumpi\n      0x00\n      dup1\n      revert\n    tag_1:\n      pop\n      jumpi(tag_2, lt(calldatasize, 0x04))\n      shr(0xe0, calldataload(0x00))\n      dup1\n      0x2453ffa8\n      eq\n      tag_3\n      jumpi\n      dup1\n      0x7ee68546\n      eq\n      tag_4\n      jumpi\n      dup1\n      0xa85c38ef\n      eq\n      tag_5\n      jumpi\n      dup1\n      0xe9a2755f\n      eq\n      tag_6\n      jumpi\n      dup1\n      0xf887ea40\n      eq\n      tag_7\n      jumpi\n    tag_2:\n      0x00\n      dup1\n      revert\n        /* \"contracts/1_Storage.sol\":6877:6899  uint public orderCount */\n    tag_3:\n      tag_8\n      tag_9\n      jump\t// in\n    tag_8:\n      mload(0x40)\n      tag_10\n      swap2\n      swap1\n      tag_11\n      jump\t// in\n    tag_10:\n      mload(0x40)\n      dup1\n      swap2\n      sub\n      swap1\n      return\n        /* \"contracts/1_Storage.sol\":7335:8714  function matchOrders() public {... */\n    tag_4:\n      tag_12\n      tag_13\n      jump\t// in\n    tag_12:\n      stop\n        /* \"contracts/1_Storage.sol\":6834:6871  mapping (uint => Order) public orders */\n    tag_5:\n      tag_14\n      0x04\n      dup1\n      calldatasize\n      sub\n      dup2\n      add\n      swap1\n      tag_15\n      swap2\n      swap1\n      tag_16\n      jump\t// in\n    tag_15:\n      tag_17\n      jump\t// in\n    tag_14:\n      mload(0x40)\n      tag_18\n      swap5\n      swap4\n      swap3\n      swap2\n      swap1\n      tag_19\n      jump\t// in\n    tag_18:\n      mload(0x40)\n      dup1\n      swap2\n      sub\n      swap1\n      return\n        /* \"contracts/1_Storage.sol\":7003:7225  function addOrder(string memory _symbol, uint256 _price, uint _shares, address[] memory _symbolAdr) public {... */\n    tag_6:\n      tag_20\n      0x04\n      dup1\n      calldatasize\n      sub\n      dup2\n      add\n      swap1\n      tag_21\n      swap2\n      swap1\n      tag_22\n      jump\t// in\n    tag_21:\n      tag_23\n      jump\t// in\n    tag_20:\n      stop\n        /* \"contracts/1_Storage.sol\":6796:6828  IUniswapV2Router02 public router */\n    tag_7:\n      tag_24\n      tag_25\n      jump\t// in\n    tag_24:\n      mload(0x40)\n      tag_26\n      swap2\n      swap1\n      tag_27\n      jump\t// in\n    tag_26:\n      mload(0x40)\n      dup1\n      swap2\n      sub\n      swap1\n      return\n        /* \"contracts/1_Storage.sol\":6877:6899  uint public orderCount */\n    tag_9:\n      sload(0x02)\n      dup2\n      jump\t// out\n        /* \"contracts/1_Storage.sol\":7335:8714  function matchOrders() public {... */\n    tag_13:\n        /* \"contracts/1_Storage.sol\":7380:7386  uint i */\n      0x00\n        /* \"contracts/1_Storage.sol\":7375:8708  for (uint i = 0; i < orderCount; i++) {... */\n    tag_29:\n        /* \"contracts/1_Storage.sol\":7396:7406  orderCount */\n      sload(0x02)\n        /* \"contracts/1_Storage.sol\":7392:7393  i */\n      dup2\n        /* \"contracts/1_Storage.sol\":7392:7406  i < orderCount */\n      lt\n        /* \"contracts/1_Storage.sol\":7375:8708  for (uint i = 0; i < orderCount; i++) {... */\n      iszero\n      tag_30\n      jumpi\n        /* \"contracts/1_Storage.sol\":7432:7438  uint j */\n      0x00\n        /* \"contracts/1_Storage.sol\":7445:7446  1 */\n      0x01\n        /* \"contracts/1_Storage.sol\":7441:7442  i */\n      dup3\n        /* \"contracts/1_Storage.sol\":7441:7446  i + 1 */\n      tag_35\n      swap2\n      swap1\n      tag_36\n      jump\t// in\n    tag_35:\n        /* \"contracts/1_Storage.sol\":7432:7446  uint j = i + 1 */\n      swap1\n      pop\n        /* \"contracts/1_Storage.sol\":7427:8698  for (uint j = i + 1; j < orderCount; j++) {... */\n    tag_32:\n        /* \"contracts/1_Storage.sol\":7452:7462  orderCount */\n      sload(0x02)\n        /* \"contracts/1_Storage.sol\":7448:7449  j */\n      dup2\n        /* \"contracts/1_Storage.sol\":7448:7462  j < orderCount */\n      lt\n        /* \"contracts/1_Storage.sol\":7427:8698  for (uint j = i + 1; j < orderCount; j++) {... */\n      iszero\n      tag_33\n      jumpi\n        /* \"contracts/1_Storage.sol\":7567:7573  orders */\n      0x01\n        /* \"contracts/1_Storage.sol\":7567:7576  orders[j] */\n      0x00\n        /* \"contracts/1_Storage.sol\":7574:7575  j */\n      dup3\n        /* \"contracts/1_Storage.sol\":7567:7576  orders[j] */\n      dup2\n      mstore\n      0x20\n      add\n      swap1\n      dup2\n      mstore\n      0x20\n      add\n      0x00\n      keccak256\n        /* \"contracts/1_Storage.sol\":7567:7583  orders[j].symbol */\n      0x01\n      add\n        /* \"contracts/1_Storage.sol\":7550:7584  abi.encodePacked(orders[j].symbol) */\n      add(0x20, mload(0x40))\n      tag_37\n      swap2\n      swap1\n      tag_38\n      jump\t// in\n    tag_37:\n      mload(0x40)\n      0x20\n      dup2\n      dup4\n      sub\n      sub\n      dup2\n      mstore\n      swap1\n      0x40\n      mstore\n        /* \"contracts/1_Storage.sol\":7540:7585  keccak256(abi.encodePacked(orders[j].symbol)) */\n      dup1\n      mload\n      swap1\n      0x20\n      add\n      keccak256\n        /* \"contracts/1_Storage.sol\":7518:7524  orders */\n      0x01\n        /* \"contracts/1_Storage.sol\":7518:7527  orders[i] */\n      0x00\n        /* \"contracts/1_Storage.sol\":7525:7526  i */\n      dup5\n        /* \"contracts/1_Storage.sol\":7518:7527  orders[i] */\n      dup2\n      mstore\n      0x20\n      add\n      swap1\n      dup2\n      mstore\n      0x20\n      add\n      0x00\n      keccak256\n        /* \"contracts/1_Storage.sol\":7518:7534  orders[i].symbol */\n      0x01\n      add\n        /* \"contracts/1_Storage.sol\":7501:7535  abi.encodePacked(orders[i].symbol) */\n      add(0x20, mload(0x40))\n      tag_39\n      swap2\n      swap1\n      tag_38\n      jump\t// in\n    tag_39:\n      mload(0x40)\n      0x20\n      dup2\n      dup4\n      sub\n      sub\n      dup2\n      mstore\n      swap1\n      0x40\n      mstore\n        /* \"contracts/1_Storage.sol\":7491:7536  keccak256(abi.encodePacked(orders[i].symbol)) */\n      dup1\n      mload\n      swap1\n      0x20\n      add\n      keccak256\n        /* \"contracts/1_Storage.sol\":7491:7585  keccak256(abi.encodePacked(orders[i].symbol)) == keccak256(abi.encodePacked(orders[j].symbol)) */\n      eq\n        /* \"contracts/1_Storage.sol\":7491:7698  keccak256(abi.encodePacked(orders[i].symbol)) == keccak256(abi.encodePacked(orders[j].symbol)) && ... */\n      dup1\n      iszero\n      tag_40\n      jumpi\n      pop\n        /* \"contracts/1_Storage.sol\":7681:7687  orders */\n      0x01\n        /* \"contracts/1_Storage.sol\":7681:7690  orders[j] */\n      0x00\n        /* \"contracts/1_Storage.sol\":7688:7689  j */\n      dup3\n        /* \"contracts/1_Storage.sol\":7681:7690  orders[j] */\n      dup2\n      mstore\n      0x20\n      add\n      swap1\n      dup2\n      mstore\n      0x20\n      add\n      0x00\n      keccak256\n        /* \"contracts/1_Storage.sol\":7681:7696  orders[j].price */\n      0x02\n      add\n      sload\n        /* \"contracts/1_Storage.sol\":7664:7697  abi.encodePacked(orders[j].price) */\n      add(0x20, mload(0x40))\n      tag_41\n      swap2\n      swap1\n      tag_42\n      jump\t// in\n    tag_41:\n      mload(0x40)\n      0x20\n      dup2\n      dup4\n      sub\n      sub\n      dup2\n      mstore\n      swap1\n      0x40\n      mstore\n        /* \"contracts/1_Storage.sol\":7654:7698  keccak256(abi.encodePacked(orders[j].price)) */\n      dup1\n      mload\n      swap1\n      0x20\n      add\n      keccak256\n        /* \"contracts/1_Storage.sol\":7633:7639  orders */\n      0x01\n        /* \"contracts/1_Storage.sol\":7633:7642  orders[i] */\n      0x00\n        /* \"contracts/1_Storage.sol\":7640:7641  i */\n      dup5\n        /* \"contracts/1_Storage.sol\":7633:7642  orders[i] */\n      dup2\n      mstore\n      0x20\n      add\n      swap1\n      dup2\n      mstore\n      0x20\n      add\n      0x00\n      keccak256\n        /* \"contracts/1_Storage.sol\":7633:7648  orders[i].price */\n      0x02\n      add\n      sload\n        /* \"contracts/1_Storage.sol\":7616:7649  abi.encodePacked(orders[i].price) */\n      add(0x20, mload(0x40))\n      tag_43\n      swap2\n      swap1\n      tag_42\n      jump\t// in\n    tag_43:\n      mload(0x40)\n      0x20\n      dup2\n      dup4\n      sub\n      sub\n      dup2\n      mstore\n      swap1\n      0x40\n      mstore\n        /* \"contracts/1_Storage.sol\":7606:7650  keccak256(abi.encodePacked(orders[i].price)) */\n      dup1\n      mload\n      swap1\n      0x20\n      add\n      keccak256\n        /* \"contracts/1_Storage.sol\":7606:7698  keccak256(abi.encodePacked(orders[i].price)) == keccak256(abi.encodePacked(orders[j].price)) */\n      eq\n        /* \"contracts/1_Storage.sol\":7491:7698  keccak256(abi.encodePacked(orders[i].symbol)) == keccak256(abi.encodePacked(orders[j].symbol)) && ... */\n    tag_40:\n        /* \"contracts/1_Storage.sol\":7487:8684  if (keccak256(abi.encodePacked(orders[i].symbol)) == keccak256(abi.encodePacked(orders[j].symbol)) && ... */\n      iszero\n      tag_44\n      jumpi\n        /* \"contracts/1_Storage.sol\":7722:7735  uint amountIn */\n      0x00\n        /* \"contracts/1_Storage.sol\":7738:7777  min(orders[i].shares, orders[j].shares) */\n      tag_45\n        /* \"contracts/1_Storage.sol\":7742:7748  orders */\n      0x01\n        /* \"contracts/1_Storage.sol\":7742:7751  orders[i] */\n      0x00\n        /* \"contracts/1_Storage.sol\":7749:7750  i */\n      dup6\n        /* \"contracts/1_Storage.sol\":7742:7751  orders[i] */\n      dup2\n      mstore\n      0x20\n      add\n      swap1\n      dup2\n      mstore\n      0x20\n      add\n      0x00\n      keccak256\n        /* \"contracts/1_Storage.sol\":7742:7758  orders[i].shares */\n      0x03\n      add\n      sload\n        /* \"contracts/1_Storage.sol\":7760:7766  orders */\n      0x01\n        /* \"contracts/1_Storage.sol\":7760:7769  orders[j] */\n      0x00\n        /* \"contracts/1_Storage.sol\":7767:7768  j */\n      dup6\n        /* \"contracts/1_Storage.sol\":7760:7769  orders[j] */\n      dup2\n      mstore\n      0x20\n      add\n      swap1\n      dup2\n      mstore\n      0x20\n      add\n      0x00\n      keccak256\n        /* \"contracts/1_Storage.sol\":7760:7776  orders[j].shares */\n      0x03\n      add\n      sload\n        /* \"contracts/1_Storage.sol\":7738:7741  min */\n      tag_46\n        /* \"contracts/1_Storage.sol\":7738:7777  min(orders[i].shares, orders[j].shares) */\n      jump\t// in\n    tag_45:\n        /* \"contracts/1_Storage.sol\":7722:7777  uint amountIn = min(orders[i].shares, orders[j].shares) */\n      swap1\n      pop\n        /* \"contracts/1_Storage.sol\":7839:7860  uint[] memory amounts */\n      0x00\n        /* \"contracts/1_Storage.sol\":7864:7870  router */\n      dup1\n      0x00\n      swap1\n      sload\n      swap1\n      0x0100\n      exp\n      swap1\n      div\n      0xffffffffffffffffffffffffffffffffffffffff\n      and\n        /* \"contracts/1_Storage.sol\":7864:7884  router.getAmountsOut */\n      0xffffffffffffffffffffffffffffffffffffffff\n      and\n      0xd06ca61f\n        /* \"contracts/1_Storage.sol\":7885:7891  orders */\n      0x01\n        /* \"contracts/1_Storage.sol\":7885:7894  orders[i] */\n      0x00\n        /* \"contracts/1_Storage.sol\":7892:7893  i */\n      dup8\n        /* \"contracts/1_Storage.sol\":7885:7894  orders[i] */\n      dup2\n      mstore\n      0x20\n      add\n      swap1\n      dup2\n      mstore\n      0x20\n      add\n      0x00\n      keccak256\n        /* \"contracts/1_Storage.sol\":7885:7901  orders[i].shares */\n      0x03\n      add\n      sload\n        /* \"contracts/1_Storage.sol\":7903:7909  orders */\n      0x01\n        /* \"contracts/1_Storage.sol\":7903:7912  orders[i] */\n      0x00\n        /* \"contracts/1_Storage.sol\":7910:7911  i */\n      dup9\n        /* \"contracts/1_Storage.sol\":7903:7912  orders[i] */\n      dup2\n      mstore\n      0x20\n      add\n      swap1\n      dup2\n      mstore\n      0x20\n      add\n      0x00\n      keccak256\n        /* \"contracts/1_Storage.sol\":7903:7922  orders[i].symbolAdr */\n      0x04\n      add\n        /* \"contracts/1_Storage.sol\":7864:7923  router.getAmountsOut(orders[i].shares, orders[i].symbolAdr) */\n      mload(0x40)\n      dup4\n      0xffffffff\n      and\n      0xe0\n      shl\n      dup2\n      mstore\n      0x04\n      add\n      tag_47\n      swap3\n      swap2\n      swap1\n      tag_48\n      jump\t// in\n    tag_47:\n      0x00\n      mload(0x40)\n      dup1\n      dup4\n      sub\n      dup2\n      dup7\n      dup1\n      extcodesize\n      iszero\n      dup1\n      iszero\n      tag_49\n      jumpi\n      0x00\n      dup1\n      revert\n    tag_49:\n      pop\n      gas\n      staticcall\n      iszero\n      dup1\n      iszero\n      tag_51\n      jumpi\n      returndatasize\n      0x00\n      dup1\n      returndatacopy\n      revert(0x00, returndatasize)\n    tag_51:\n      pop\n      pop\n      pop\n      pop\n      mload(0x40)\n      returndatasize\n      0x00\n      dup3\n      returndatacopy\n      returndatasize\n      not(0x1f)\n      0x1f\n      dup3\n      add\n      and\n      dup3\n      add\n      dup1\n      0x40\n      mstore\n      pop\n      dup2\n      add\n      swap1\n      tag_52\n      swap2\n      swap1\n      tag_53\n      jump\t// in\n    tag_52:\n        /* \"contracts/1_Storage.sol\":7838:7923  (uint[] memory amounts) = router.getAmountsOut(orders[i].shares, orders[i].symbolAdr) */\n      swap1\n      pop\n        /* \"contracts/1_Storage.sol\":7946:7968  uint[] memory amounts2 */\n      0x00\n        /* \"contracts/1_Storage.sol\":7972:7978  router */\n      dup1\n      0x00\n      swap1\n      sload\n      swap1\n      0x0100\n      exp\n      swap1\n      div\n      0xffffffffffffffffffffffffffffffffffffffff\n      and\n        /* \"contracts/1_Storage.sol\":7972:7992  router.getAmountsOut */\n      0xffffffffffffffffffffffffffffffffffffffff\n      and\n      0xd06ca61f\n        /* \"contracts/1_Storage.sol\":7993:7999  orders */\n      0x01\n        /* \"contracts/1_Storage.sol\":7993:8002  orders[j] */\n      0x00\n        /* \"contracts/1_Storage.sol\":8000:8001  j */\n      dup8\n        /* \"contracts/1_Storage.sol\":7993:8002  orders[j] */\n      dup2\n      mstore\n      0x20\n      add\n      swap1\n      dup2\n      mstore\n      0x20\n      add\n      0x00\n      keccak256\n        /* \"contracts/1_Storage.sol\":7993:8009  orders[j].shares */\n      0x03\n      add\n      sload\n        /* \"contracts/1_Storage.sol\":8011:8017  orders */\n      0x01\n        /* \"contracts/1_Storage.sol\":8011:8020  orders[j] */\n      0x00\n        /* \"contracts/1_Storage.sol\":8018:8019  j */\n      dup9\n        /* \"contracts/1_Storage.sol\":8011:8020  orders[j] */\n      dup2\n      mstore\n      0x20\n      add\n      swap1\n      dup2\n      mstore\n      0x20\n      add\n      0x00\n      keccak256\n        /* \"contracts/1_Storage.sol\":8011:8030  orders[j].symbolAdr */\n      0x04\n      add\n        /* \"contracts/1_Storage.sol\":7972:8031  router.getAmountsOut(orders[j].shares, orders[j].symbolAdr) */\n      mload(0x40)\n      dup4\n      0xffffffff\n      and\n      0xe0\n      shl\n      dup2\n      mstore\n      0x04\n      add\n      tag_54\n      swap3\n      swap2\n      swap1\n      tag_48\n      jump\t// in\n    tag_54:\n      0x00\n      mload(0x40)\n      dup1\n      dup4\n      sub\n      dup2\n      dup7\n      dup1\n      extcodesize\n      iszero\n      dup1\n      iszero\n      tag_55\n      jumpi\n      0x00\n      dup1\n      revert\n    tag_55:\n      pop\n      gas\n      staticcall\n      iszero\n      dup1\n      iszero\n      tag_57\n      jumpi\n      returndatasize\n      0x00\n      dup1\n      returndatacopy\n      revert(0x00, returndatasize)\n    tag_57:\n      pop\n      pop\n      pop\n      pop\n      mload(0x40)\n      returndatasize\n      0x00\n      dup3\n      returndatacopy\n      returndatasize\n      not(0x1f)\n      0x1f\n      dup3\n      add\n      and\n      dup3\n      add\n      dup1\n      0x40\n      mstore\n      pop\n      dup2\n      add\n      swap1\n      tag_58\n      swap2\n      swap1\n      tag_53\n      jump\t// in\n    tag_58:\n        /* \"contracts/1_Storage.sol\":7945:8031  (uint[] memory amounts2) = router.getAmountsOut(orders[j].shares, orders[j].symbolAdr) */\n      swap1\n      pop\n        /* \"contracts/1_Storage.sol\":8069:8077  amountIn */\n      dup3\n        /* \"contracts/1_Storage.sol\":8056:8063  amounts */\n      dup3\n        /* \"contracts/1_Storage.sol\":8064:8065  0 */\n      0x00\n        /* \"contracts/1_Storage.sol\":8056:8066  amounts[0] */\n      dup2\n      mload\n      dup2\n      lt\n      tag_59\n      jumpi\n      tag_60\n      tag_61\n      jump\t// in\n    tag_60:\n    tag_59:\n      0x20\n      mul\n      0x20\n      add\n      add\n      mload\n        /* \"contracts/1_Storage.sol\":8056:8077  amounts[0] < amountIn */\n      lt\n        /* \"contracts/1_Storage.sol\":8052:8211  if (amounts[0] < amountIn) {... */\n      iszero\n      tag_62\n      jumpi\n        /* \"contracts/1_Storage.sol\":8180:8188  continue */\n      pop\n      pop\n      pop\n      jump(tag_34)\n        /* \"contracts/1_Storage.sol\":8052:8211  if (amounts[0] < amountIn) {... */\n    tag_62:\n        /* \"contracts/1_Storage.sol\":8249:8257  amountIn */\n      dup3\n        /* \"contracts/1_Storage.sol\":8235:8243  amounts2 */\n      dup2\n        /* \"contracts/1_Storage.sol\":8244:8245  0 */\n      0x00\n        /* \"contracts/1_Storage.sol\":8235:8246  amounts2[0] */\n      dup2\n      mload\n      dup2\n      lt\n      tag_63\n      jumpi\n      tag_64\n      tag_61\n      jump\t// in\n    tag_64:\n    tag_63:\n      0x20\n      mul\n      0x20\n      add\n      add\n      mload\n        /* \"contracts/1_Storage.sol\":8235:8257  amounts2[0] < amountIn */\n      lt\n        /* \"contracts/1_Storage.sol\":8231:8391  if (amounts2[0] < amountIn) {... */\n      iszero\n      tag_65\n      jumpi\n        /* \"contracts/1_Storage.sol\":8360:8368  continue */\n      pop\n      pop\n      pop\n      jump(tag_34)\n        /* \"contracts/1_Storage.sol\":8231:8391  if (amounts2[0] < amountIn) {... */\n    tag_65:\n        /* \"contracts/1_Storage.sol\":8473:8481  amountIn */\n      dup3\n        /* \"contracts/1_Storage.sol\":8453:8459  orders */\n      0x01\n        /* \"contracts/1_Storage.sol\":8453:8462  orders[i] */\n      0x00\n        /* \"contracts/1_Storage.sol\":8460:8461  i */\n      dup8\n        /* \"contracts/1_Storage.sol\":8453:8462  orders[i] */\n      dup2\n      mstore\n      0x20\n      add\n      swap1\n      dup2\n      mstore\n      0x20\n      add\n      0x00\n      keccak256\n        /* \"contracts/1_Storage.sol\":8453:8469  orders[i].shares */\n      0x03\n      add\n      0x00\n        /* \"contracts/1_Storage.sol\":8453:8481  orders[i].shares -= amountIn */\n      dup3\n      dup3\n      sload\n      tag_66\n      swap2\n      swap1\n      tag_67\n      jump\t// in\n    tag_66:\n      swap3\n      pop\n      pop\n      dup2\n      swap1\n      sstore\n      pop\n        /* \"contracts/1_Storage.sol\":8523:8531  amountIn */\n      dup3\n        /* \"contracts/1_Storage.sol\":8503:8509  orders */\n      0x01\n        /* \"contracts/1_Storage.sol\":8503:8512  orders[j] */\n      0x00\n        /* \"contracts/1_Storage.sol\":8510:8511  j */\n      dup7\n        /* \"contracts/1_Storage.sol\":8503:8512  orders[j] */\n      dup2\n      mstore\n      0x20\n      add\n      swap1\n      dup2\n      mstore\n      0x20\n      add\n      0x00\n      keccak256\n        /* \"contracts/1_Storage.sol\":8503:8519  orders[j].shares */\n      0x03\n      add\n      0x00\n        /* \"contracts/1_Storage.sol\":8503:8531  orders[j].shares -= amountIn */\n      dup3\n      dup3\n      sload\n      tag_68\n      swap2\n      swap1\n      tag_67\n      jump\t// in\n    tag_68:\n      swap3\n      pop\n      pop\n      dup2\n      swap1\n      sstore\n      pop\n        /* \"contracts/1_Storage.sol\":8558:8665  Trade(orders[i].trader, orders[j].trader, amountIn, orders[i].symbol, orders[i].price, orders[i].symbolAdr) */\n      0x159257f1367cfc494b9c1317fd1fa534f1636358b225b64240542fb36a56fb77\n        /* \"contracts/1_Storage.sol\":8564:8570  orders */\n      0x01\n        /* \"contracts/1_Storage.sol\":8564:8573  orders[i] */\n      0x00\n        /* \"contracts/1_Storage.sol\":8571:8572  i */\n      dup8\n        /* \"contracts/1_Storage.sol\":8564:8573  orders[i] */\n      dup2\n      mstore\n      0x20\n      add\n      swap1\n      dup2\n      mstore\n      0x20\n      add\n      0x00\n      keccak256\n        /* \"contracts/1_Storage.sol\":8564:8580  orders[i].trader */\n      0x00\n      add\n      0x00\n      swap1\n      sload\n      swap1\n      0x0100\n      exp\n      swap1\n      div\n      0xffffffffffffffffffffffffffffffffffffffff\n      and\n        /* \"contracts/1_Storage.sol\":8582:8588  orders */\n      0x01\n        /* \"contracts/1_Storage.sol\":8582:8591  orders[j] */\n      0x00\n        /* \"contracts/1_Storage.sol\":8589:8590  j */\n      dup8\n        /* \"contracts/1_Storage.sol\":8582:8591  orders[j] */\n      dup2\n      mstore\n      0x20\n      add\n      swap1\n      dup2\n      mstore\n      0x20\n      add\n      0x00\n      keccak256\n        /* \"contracts/1_Storage.sol\":8582:8598  orders[j].trader */\n      0x00\n      add\n      0x00\n      swap1\n      sload\n      swap1\n      0x0100\n      exp\n      swap1\n      div\n      0xffffffffffffffffffffffffffffffffffffffff\n      and\n        /* \"contracts/1_Storage.sol\":8600:8608  amountIn */\n      dup6\n        /* \"contracts/1_Storage.sol\":8610:8616  orders */\n      0x01\n        /* \"contracts/1_Storage.sol\":8610:8619  orders[i] */\n      0x00\n        /* \"contracts/1_Storage.sol\":8617:8618  i */\n      dup11\n        /* \"contracts/1_Storage.sol\":8610:8619  orders[i] */\n      dup2\n      mstore\n      0x20\n      add\n      swap1\n      dup2\n      mstore\n      0x20\n      add\n      0x00\n      keccak256\n        /* \"contracts/1_Storage.sol\":8610:8626  orders[i].symbol */\n      0x01\n      add\n        /* \"contracts/1_Storage.sol\":8628:8634  orders */\n      0x01\n        /* \"contracts/1_Storage.sol\":8628:8637  orders[i] */\n      0x00\n        /* \"contracts/1_Storage.sol\":8635:8636  i */\n      dup12\n        /* \"contracts/1_Storage.sol\":8628:8637  orders[i] */\n      dup2\n      mstore\n      0x20\n      add\n      swap1\n      dup2\n      mstore\n      0x20\n      add\n      0x00\n      keccak256\n        /* \"contracts/1_Storage.sol\":8628:8643  orders[i].price */\n      0x02\n      add\n      sload\n        /* \"contracts/1_Storage.sol\":8645:8651  orders */\n      0x01\n        /* \"contracts/1_Storage.sol\":8645:8654  orders[i] */\n      0x00\n        /* \"contracts/1_Storage.sol\":8652:8653  i */\n      dup13\n        /* \"contracts/1_Storage.sol\":8645:8654  orders[i] */\n      dup2\n      mstore\n      0x20\n      add\n      swap1\n      dup2\n      mstore\n      0x20\n      add\n      0x00\n      keccak256\n        /* \"contracts/1_Storage.sol\":8645:8664  orders[i].symbolAdr */\n      0x04\n      add\n        /* \"contracts/1_Storage.sol\":8558:8665  Trade(orders[i].trader, orders[j].trader, amountIn, orders[i].symbol, orders[i].price, orders[i].symbolAdr) */\n      mload(0x40)\n      tag_69\n      swap7\n      swap6\n      swap5\n      swap4\n      swap3\n      swap2\n      swap1\n      tag_70\n      jump\t// in\n    tag_69:\n      mload(0x40)\n      dup1\n      swap2\n      sub\n      swap1\n      log1\n        /* \"contracts/1_Storage.sol\":7700:8684  {... */\n      pop\n      pop\n      pop\n        /* \"contracts/1_Storage.sol\":7487:8684  if (keccak256(abi.encodePacked(orders[i].symbol)) == keccak256(abi.encodePacked(orders[j].symbol)) && ... */\n    tag_44:\n        /* \"contracts/1_Storage.sol\":7427:8698  for (uint j = i + 1; j < orderCount; j++) {... */\n    tag_34:\n        /* \"contracts/1_Storage.sol\":7464:7467  j++ */\n      dup1\n      dup1\n      tag_71\n      swap1\n      tag_72\n      jump\t// in\n    tag_71:\n      swap2\n      pop\n      pop\n        /* \"contracts/1_Storage.sol\":7427:8698  for (uint j = i + 1; j < orderCount; j++) {... */\n      jump(tag_32)\n    tag_33:\n      pop\n        /* \"contracts/1_Storage.sol\":7408:7411  i++ */\n      dup1\n      dup1\n      tag_73\n      swap1\n      tag_72\n      jump\t// in\n    tag_73:\n      swap2\n      pop\n      pop\n        /* \"contracts/1_Storage.sol\":7375:8708  for (uint i = 0; i < orderCount; i++) {... */\n      jump(tag_29)\n    tag_30:\n      pop\n        /* \"contracts/1_Storage.sol\":7335:8714  function matchOrders() public {... */\n      jump\t// out\n        /* \"contracts/1_Storage.sol\":6834:6871  mapping (uint => Order) public orders */\n    tag_17:\n      mstore(0x20, 0x01)\n      dup1\n      0x00\n      mstore\n      keccak256(0x00, 0x40)\n      0x00\n      swap2\n      pop\n      swap1\n      pop\n      dup1\n      0x00\n      add\n      0x00\n      swap1\n      sload\n      swap1\n      0x0100\n      exp\n      swap1\n      div\n      0xffffffffffffffffffffffffffffffffffffffff\n      and\n      swap1\n      dup1\n      0x01\n      add\n      dup1\n      sload\n      tag_74\n      swap1\n      tag_75\n      jump\t// in\n    tag_74:\n      dup1\n      0x1f\n      add\n      0x20\n      dup1\n      swap2\n      div\n      mul\n      0x20\n      add\n      mload(0x40)\n      swap1\n      dup2\n      add\n      0x40\n      mstore\n      dup1\n      swap3\n      swap2\n      swap1\n      dup2\n      dup2\n      mstore\n      0x20\n      add\n      dup3\n      dup1\n      sload\n      tag_76\n      swap1\n      tag_75\n      jump\t// in\n    tag_76:\n      dup1\n      iszero\n      tag_77\n      jumpi\n      dup1\n      0x1f\n      lt\n      tag_78\n      jumpi\n      0x0100\n      dup1\n      dup4\n      sload\n      div\n      mul\n      dup4\n      mstore\n      swap2\n      0x20\n      add\n      swap2\n      jump(tag_77)\n    tag_78:\n      dup3\n      add\n      swap2\n      swap1\n      0x00\n      mstore\n      keccak256(0x00, 0x20)\n      swap1\n    tag_79:\n      dup2\n      sload\n      dup2\n      mstore\n      swap1\n      0x01\n      add\n      swap1\n      0x20\n      add\n      dup1\n      dup4\n      gt\n      tag_79\n      jumpi\n      dup3\n      swap1\n      sub\n      0x1f\n      and\n      dup3\n      add\n      swap2\n    tag_77:\n      pop\n      pop\n      pop\n      pop\n      pop\n      swap1\n      dup1\n      0x02\n      add\n      sload\n      swap1\n      dup1\n      0x03\n      add\n      sload\n      swap1\n      pop\n      dup5\n      jump\t// out\n        /* \"contracts/1_Storage.sol\":7003:7225  function addOrder(string memory _symbol, uint256 _price, uint _shares, address[] memory _symbolAdr) public {... */\n    tag_23:\n        /* \"contracts/1_Storage.sol\":7141:7196  Order(msg.sender, _symbol, _price, _shares, _symbolAdr) */\n      mload(0x40)\n      dup1\n      0xa0\n      add\n      0x40\n      mstore\n      dup1\n        /* \"contracts/1_Storage.sol\":7147:7157  msg.sender */\n      caller\n        /* \"contracts/1_Storage.sol\":7141:7196  Order(msg.sender, _symbol, _price, _shares, _symbolAdr) */\n      0xffffffffffffffffffffffffffffffffffffffff\n      and\n      dup2\n      mstore\n      0x20\n      add\n        /* \"contracts/1_Storage.sol\":7159:7166  _symbol */\n      dup6\n        /* \"contracts/1_Storage.sol\":7141:7196  Order(msg.sender, _symbol, _price, _shares, _symbolAdr) */\n      dup2\n      mstore\n      0x20\n      add\n        /* \"contracts/1_Storage.sol\":7168:7174  _price */\n      dup5\n        /* \"contracts/1_Storage.sol\":7141:7196  Order(msg.sender, _symbol, _price, _shares, _symbolAdr) */\n      dup2\n      mstore\n      0x20\n      add\n        /* \"contracts/1_Storage.sol\":7176:7183  _shares */\n      dup4\n        /* \"contracts/1_Storage.sol\":7141:7196  Order(msg.sender, _symbol, _price, _shares, _symbolAdr) */\n      dup2\n      mstore\n      0x20\n      add\n        /* \"contracts/1_Storage.sol\":7185:7195  _symbolAdr */\n      dup3\n        /* \"contracts/1_Storage.sol\":7141:7196  Order(msg.sender, _symbol, _price, _shares, _symbolAdr) */\n      dup2\n      mstore\n      pop\n        /* \"contracts/1_Storage.sol\":7120:7126  orders */\n      0x01\n        /* \"contracts/1_Storage.sol\":7120:7138  orders[orderCount] */\n      0x00\n        /* \"contracts/1_Storage.sol\":7127:7137  orderCount */\n      sload(0x02)\n        /* \"contracts/1_Storage.sol\":7120:7138  orders[orderCount] */\n      dup2\n      mstore\n      0x20\n      add\n      swap1\n      dup2\n      mstore\n      0x20\n      add\n      0x00\n      keccak256\n        /* \"contracts/1_Storage.sol\":7120:7196  orders[orderCount] = Order(msg.sender, _symbol, _price, _shares, _symbolAdr) */\n      0x00\n      dup3\n      add\n      mload\n      dup2\n      0x00\n      add\n      exp(0x0100, 0x00)\n      dup2\n      sload\n      dup2\n      0xffffffffffffffffffffffffffffffffffffffff\n      mul\n      not\n      and\n      swap1\n      dup4\n      0xffffffffffffffffffffffffffffffffffffffff\n      and\n      mul\n      or\n      swap1\n      sstore\n      pop\n      0x20\n      dup3\n      add\n      mload\n      dup2\n      0x01\n      add\n      swap1\n      dup1\n      mload\n      swap1\n      0x20\n      add\n      swap1\n      tag_81\n      swap3\n      swap2\n      swap1\n      tag_82\n      jump\t// in\n    tag_81:\n      pop\n      0x40\n      dup3\n      add\n      mload\n      dup2\n      0x02\n      add\n      sstore\n      0x60\n      dup3\n      add\n      mload\n      dup2\n      0x03\n      add\n      sstore\n      0x80\n      dup3\n      add\n      mload\n      dup2\n      0x04\n      add\n      swap1\n      dup1\n      mload\n      swap1\n      0x20\n      add\n      swap1\n      tag_83\n      swap3\n      swap2\n      swap1\n      tag_84\n      jump\t// in\n    tag_83:\n      pop\n      swap1\n      pop\n      pop\n        /* \"contracts/1_Storage.sol\":7206:7216  orderCount */\n      0x02\n      0x00\n        /* \"contracts/1_Storage.sol\":7206:7218  orderCount++ */\n      dup2\n      sload\n      dup1\n      swap3\n      swap2\n      swap1\n      tag_85\n      swap1\n      tag_72\n      jump\t// in\n    tag_85:\n      swap2\n      swap1\n      pop\n      sstore\n      pop\n        /* \"contracts/1_Storage.sol\":7003:7225  function addOrder(string memory _symbol, uint256 _price, uint _shares, address[] memory _symbolAdr) public {... */\n      pop\n      pop\n      pop\n      pop\n      jump\t// out\n        /* \"contracts/1_Storage.sol\":6796:6828  IUniswapV2Router02 public router */\n    tag_25:\n      0x00\n      dup1\n      sload\n      swap1\n      0x0100\n      exp\n      swap1\n      div\n      0xffffffffffffffffffffffffffffffffffffffff\n      and\n      dup2\n      jump\t// out\n        /* \"contracts/1_Storage.sol\":7231:7326  function min(uint a, uint b) internal pure returns (uint) {... */\n    tag_46:\n        /* \"contracts/1_Storage.sol\":7283:7287  uint */\n      0x00\n        /* \"contracts/1_Storage.sol\":7310:7311  b */\n      dup2\n        /* \"contracts/1_Storage.sol\":7306:7307  a */\n      dup4\n        /* \"contracts/1_Storage.sol\":7306:7311  a < b */\n      lt\n        /* \"contracts/1_Storage.sol\":7306:7319  a < b ? a : b */\n      tag_87\n      jumpi\n        /* \"contracts/1_Storage.sol\":7318:7319  b */\n      dup2\n        /* \"contracts/1_Storage.sol\":7306:7319  a < b ? a : b */\n      jump(tag_88)\n    tag_87:\n        /* \"contracts/1_Storage.sol\":7314:7315  a */\n      dup3\n        /* \"contracts/1_Storage.sol\":7306:7319  a < b ? a : b */\n    tag_88:\n        /* \"contracts/1_Storage.sol\":7299:7319  return a < b ? a : b */\n      swap1\n      pop\n        /* \"contracts/1_Storage.sol\":7231:7326  function min(uint a, uint b) internal pure returns (uint) {... */\n      swap3\n      swap2\n      pop\n      pop\n      jump\t// out\n    tag_82:\n      dup3\n      dup1\n      sload\n      tag_89\n      swap1\n      tag_75\n      jump\t// in\n    tag_89:\n      swap1\n      0x00\n      mstore\n      keccak256(0x00, 0x20)\n      swap1\n      0x1f\n      add\n      0x20\n      swap1\n      div\n      dup2\n      add\n      swap3\n      dup3\n      tag_91\n      jumpi\n      0x00\n      dup6\n      sstore\n      jump(tag_90)\n    tag_91:\n      dup3\n      0x1f\n      lt\n      tag_92\n      jumpi\n      dup1\n      mload\n      not(0xff)\n      and\n      dup4\n      dup1\n      add\n      or\n      dup6\n      sstore\n      jump(tag_90)\n    tag_92:\n      dup3\n      dup1\n      add\n      0x01\n      add\n      dup6\n      sstore\n      dup3\n      iszero\n      tag_90\n      jumpi\n      swap2\n      dup3\n      add\n    tag_93:\n      dup3\n      dup2\n      gt\n      iszero\n      tag_94\n      jumpi\n      dup3\n      mload\n      dup3\n      sstore\n      swap2\n      0x20\n      add\n      swap2\n      swap1\n      0x01\n      add\n      swap1\n      jump(tag_93)\n    tag_94:\n    tag_90:\n      pop\n      swap1\n      pop\n      tag_95\n      swap2\n      swap1\n      tag_96\n      jump\t// in\n    tag_95:\n      pop\n      swap1\n      jump\t// out\n    tag_84:\n      dup3\n      dup1\n      sload\n      dup3\n      dup3\n      sstore\n      swap1\n      0x00\n      mstore\n      keccak256(0x00, 0x20)\n      swap1\n      dup2\n      add\n      swap3\n      dup3\n      iszero\n      tag_97\n      jumpi\n      swap2\n      0x20\n      mul\n      dup3\n      add\n    tag_98:\n      dup3\n      dup2\n      gt\n      iszero\n      tag_99\n      jumpi\n      dup3\n      mload\n      dup3\n      exp(0x0100, 0x00)\n      dup2\n      sload\n      dup2\n      0xffffffffffffffffffffffffffffffffffffffff\n      mul\n      not\n      and\n      swap1\n      dup4\n      0xffffffffffffffffffffffffffffffffffffffff\n      and\n      mul\n      or\n      swap1\n      sstore\n      pop\n      swap2\n      0x20\n      add\n      swap2\n      swap1\n      0x01\n      add\n      swap1\n      jump(tag_98)\n    tag_99:\n    tag_97:\n      pop\n      swap1\n      pop\n      tag_100\n      swap2\n      swap1\n      tag_96\n      jump\t// in\n    tag_100:\n      pop\n      swap1\n      jump\t// out\n    tag_96:\n    tag_101:\n      dup1\n      dup3\n      gt\n      iszero\n      tag_102\n      jumpi\n      0x00\n      dup2\n      0x00\n      swap1\n      sstore\n      pop\n      0x01\n      add\n      jump(tag_101)\n    tag_102:\n      pop\n      swap1\n      jump\t// out\n        /* \"#utility.yul\":24:746   */\n    tag_104:\n        /* \"#utility.yul\":120:125   */\n      0x00\n        /* \"#utility.yul\":145:226   */\n      tag_106\n        /* \"#utility.yul\":161:225   */\n      tag_107\n        /* \"#utility.yul\":218:224   */\n      dup5\n        /* \"#utility.yul\":161:225   */\n      tag_108\n      jump\t// in\n    tag_107:\n        /* \"#utility.yul\":145:226   */\n      tag_109\n      jump\t// in\n    tag_106:\n        /* \"#utility.yul\":136:226   */\n      swap1\n      pop\n        /* \"#utility.yul\":246:251   */\n      dup1\n        /* \"#utility.yul\":275:281   */\n      dup4\n        /* \"#utility.yul\":268:273   */\n      dup3\n        /* \"#utility.yul\":261:282   */\n      mstore\n        /* \"#utility.yul\":309:313   */\n      0x20\n        /* \"#utility.yul\":302:307   */\n      dup3\n        /* \"#utility.yul\":298:314   */\n      add\n        /* \"#utility.yul\":291:314   */\n      swap1\n      pop\n        /* \"#utility.yul\":335:341   */\n      dup3\n        /* \"#utility.yul\":385:388   */\n      dup6\n        /* \"#utility.yul\":377:381   */\n      0x20\n        /* \"#utility.yul\":369:375   */\n      dup7\n        /* \"#utility.yul\":365:382   */\n      mul\n        /* \"#utility.yul\":360:363   */\n      dup3\n        /* \"#utility.yul\":356:383   */\n      add\n        /* \"#utility.yul\":353:389   */\n      gt\n        /* \"#utility.yul\":350:493   */\n      iszero\n      tag_110\n      jumpi\n        /* \"#utility.yul\":404:483   */\n      tag_111\n      tag_112\n      jump\t// in\n    tag_111:\n        /* \"#utility.yul\":350:493   */\n    tag_110:\n        /* \"#utility.yul\":517:518   */\n      0x00\n        /* \"#utility.yul\":502:740   */\n    tag_113:\n        /* \"#utility.yul\":527:533   */\n      dup6\n        /* \"#utility.yul\":524:525   */\n      dup2\n        /* \"#utility.yul\":521:534   */\n      lt\n        /* \"#utility.yul\":502:740   */\n      iszero\n      tag_115\n      jumpi\n        /* \"#utility.yul\":595:598   */\n      dup2\n        /* \"#utility.yul\":624:661   */\n      tag_116\n        /* \"#utility.yul\":657:660   */\n      dup9\n        /* \"#utility.yul\":645:655   */\n      dup3\n        /* \"#utility.yul\":624:661   */\n      tag_117\n      jump\t// in\n    tag_116:\n        /* \"#utility.yul\":619:622   */\n      dup5\n        /* \"#utility.yul\":612:662   */\n      mstore\n        /* \"#utility.yul\":691:695   */\n      0x20\n        /* \"#utility.yul\":686:689   */\n      dup5\n        /* \"#utility.yul\":682:696   */\n      add\n        /* \"#utility.yul\":675:696   */\n      swap4\n      pop\n        /* \"#utility.yul\":725:729   */\n      0x20\n        /* \"#utility.yul\":720:723   */\n      dup4\n        /* \"#utility.yul\":716:730   */\n      add\n        /* \"#utility.yul\":709:730   */\n      swap3\n      pop\n        /* \"#utility.yul\":562:740   */\n      pop\n        /* \"#utility.yul\":549:550   */\n      0x01\n        /* \"#utility.yul\":546:547   */\n      dup2\n        /* \"#utility.yul\":542:551   */\n      add\n        /* \"#utility.yul\":537:551   */\n      swap1\n      pop\n        /* \"#utility.yul\":502:740   */\n      jump(tag_113)\n    tag_115:\n        /* \"#utility.yul\":506:520   */\n      pop\n        /* \"#utility.yul\":126:746   */\n      pop\n      pop\n        /* \"#utility.yul\":24:746   */\n      swap4\n      swap3\n      pop\n      pop\n      pop\n      jump\t// out\n        /* \"#utility.yul\":769:1513   */\n    tag_118:\n        /* \"#utility.yul\":876:881   */\n      0x00\n        /* \"#utility.yul\":901:982   */\n      tag_120\n        /* \"#utility.yul\":917:981   */\n      tag_121\n        /* \"#utility.yul\":974:980   */\n      dup5\n        /* \"#utility.yul\":917:981   */\n      tag_122\n      jump\t// in\n    tag_121:\n        /* \"#utility.yul\":901:982   */\n      tag_109\n      jump\t// in\n    tag_120:\n        /* \"#utility.yul\":892:982   */\n      swap1\n      pop\n        /* \"#utility.yul\":1002:1007   */\n      dup1\n        /* \"#utility.yul\":1031:1037   */\n      dup4\n        /* \"#utility.yul\":1024:1029   */\n      dup3\n        /* \"#utility.yul\":1017:1038   */\n      mstore\n        /* \"#utility.yul\":1065:1069   */\n      0x20\n        /* \"#utility.yul\":1058:1063   */\n      dup3\n        /* \"#utility.yul\":1054:1070   */\n      add\n        /* \"#utility.yul\":1047:1070   */\n      swap1\n      pop\n        /* \"#utility.yul\":1091:1097   */\n      dup3\n        /* \"#utility.yul\":1141:1144   */\n      dup6\n        /* \"#utility.yul\":1133:1137   */\n      0x20\n        /* \"#utility.yul\":1125:1131   */\n      dup7\n        /* \"#utility.yul\":1121:1138   */\n      mul\n        /* \"#utility.yul\":1116:1119   */\n      dup3\n        /* \"#utility.yul\":1112:1139   */\n      add\n        /* \"#utility.yul\":1109:1145   */\n      gt\n        /* \"#utility.yul\":1106:1249   */\n      iszero\n      tag_123\n      jumpi\n        /* \"#utility.yul\":1160:1239   */\n      tag_124\n      tag_112\n      jump\t// in\n    tag_124:\n        /* \"#utility.yul\":1106:1249   */\n    tag_123:\n        /* \"#utility.yul\":1273:1274   */\n      0x00\n        /* \"#utility.yul\":1258:1507   */\n    tag_125:\n        /* \"#utility.yul\":1283:1289   */\n      dup6\n        /* \"#utility.yul\":1280:1281   */\n      dup2\n        /* \"#utility.yul\":1277:1290   */\n      lt\n        /* \"#utility.yul\":1258:1507   */\n      iszero\n      tag_127\n      jumpi\n        /* \"#utility.yul\":1351:1354   */\n      dup2\n        /* \"#utility.yul\":1380:1428   */\n      tag_128\n        /* \"#utility.yul\":1424:1427   */\n      dup9\n        /* \"#utility.yul\":1412:1422   */\n      dup3\n        /* \"#utility.yul\":1380:1428   */\n      tag_129\n      jump\t// in\n    tag_128:\n        /* \"#utility.yul\":1375:1378   */\n      dup5\n        /* \"#utility.yul\":1368:1429   */\n      mstore\n        /* \"#utility.yul\":1458:1462   */\n      0x20\n        /* \"#utility.yul\":1453:1456   */\n      dup5\n        /* \"#utility.yul\":1449:1463   */\n      add\n        /* \"#utility.yul\":1442:1463   */\n      swap4\n      pop\n        /* \"#utility.yul\":1492:1496   */\n      0x20\n        /* \"#utility.yul\":1487:1490   */\n      dup4\n        /* \"#utility.yul\":1483:1497   */\n      add\n        /* \"#utility.yul\":1476:1497   */\n      swap3\n      pop\n        /* \"#utility.yul\":1318:1507   */\n      pop\n        /* \"#utility.yul\":1305:1306   */\n      0x01\n        /* \"#utility.yul\":1302:1303   */\n      dup2\n        /* \"#utility.yul\":1298:1307   */\n      add\n        /* \"#utility.yul\":1293:1307   */\n      swap1\n      pop\n        /* \"#utility.yul\":1258:1507   */\n      jump(tag_125)\n    tag_127:\n        /* \"#utility.yul\":1262:1276   */\n      pop\n        /* \"#utility.yul\":882:1513   */\n      pop\n      pop\n        /* \"#utility.yul\":769:1513   */\n      swap4\n      swap3\n      pop\n      pop\n      pop\n      jump\t// out\n        /* \"#utility.yul\":1519:1931   */\n    tag_130:\n        /* \"#utility.yul\":1597:1602   */\n      0x00\n        /* \"#utility.yul\":1622:1688   */\n      tag_132\n        /* \"#utility.yul\":1638:1687   */\n      tag_133\n        /* \"#utility.yul\":1680:1686   */\n      dup5\n        /* \"#utility.yul\":1638:1687   */\n      tag_134\n      jump\t// in\n    tag_133:\n        /* \"#utility.yul\":1622:1688   */\n      tag_109\n      jump\t// in\n    tag_132:\n        /* \"#utility.yul\":1613:1688   */\n      swap1\n      pop\n        /* \"#utility.yul\":1711:1717   */\n      dup3\n        /* \"#utility.yul\":1704:1709   */\n      dup2\n        /* \"#utility.yul\":1697:1718   */\n      mstore\n        /* \"#utility.yul\":1749:1753   */\n      0x20\n        /* \"#utility.yul\":1742:1747   */\n      dup2\n        /* \"#utility.yul\":1738:1754   */\n      add\n        /* \"#utility.yul\":1787:1790   */\n      dup5\n        /* \"#utility.yul\":1778:1784   */\n      dup5\n        /* \"#utility.yul\":1773:1776   */\n      dup5\n        /* \"#utility.yul\":1769:1785   */\n      add\n        /* \"#utility.yul\":1766:1791   */\n      gt\n        /* \"#utility.yul\":1763:1875   */\n      iszero\n      tag_135\n      jumpi\n        /* \"#utility.yul\":1794:1873   */\n      tag_136\n      tag_137\n      jump\t// in\n    tag_136:\n        /* \"#utility.yul\":1763:1875   */\n    tag_135:\n        /* \"#utility.yul\":1884:1925   */\n      tag_138\n        /* \"#utility.yul\":1918:1924   */\n      dup5\n        /* \"#utility.yul\":1913:1916   */\n      dup3\n        /* \"#utility.yul\":1908:1911   */\n      dup6\n        /* \"#utility.yul\":1884:1925   */\n      tag_139\n      jump\t// in\n    tag_138:\n        /* \"#utility.yul\":1603:1931   */\n      pop\n        /* \"#utility.yul\":1519:1931   */\n      swap4\n      swap3\n      pop\n      pop\n      pop\n      jump\t// out\n        /* \"#utility.yul\":1937:2076   */\n    tag_117:\n        /* \"#utility.yul\":1983:1988   */\n      0x00\n        /* \"#utility.yul\":2021:2027   */\n      dup2\n        /* \"#utility.yul\":2008:2028   */\n      calldataload\n        /* \"#utility.yul\":1999:2028   */\n      swap1\n      pop\n        /* \"#utility.yul\":2037:2070   */\n      tag_141\n        /* \"#utility.yul\":2064:2069   */\n      dup2\n        /* \"#utility.yul\":2037:2070   */\n      tag_142\n      jump\t// in\n    tag_141:\n        /* \"#utility.yul\":1937:2076   */\n      swap3\n      swap2\n      pop\n      pop\n      jump\t// out\n        /* \"#utility.yul\":2099:2469   */\n    tag_143:\n        /* \"#utility.yul\":2170:2175   */\n      0x00\n        /* \"#utility.yul\":2219:2222   */\n      dup3\n        /* \"#utility.yul\":2212:2216   */\n      0x1f\n        /* \"#utility.yul\":2204:2210   */\n      dup4\n        /* \"#utility.yul\":2200:2217   */\n      add\n        /* \"#utility.yul\":2196:2223   */\n      slt\n        /* \"#utility.yul\":2186:2308   */\n      tag_145\n      jumpi\n        /* \"#utility.yul\":2227:2306   */\n      tag_146\n      tag_147\n      jump\t// in\n    tag_146:\n        /* \"#utility.yul\":2186:2308   */\n    tag_145:\n        /* \"#utility.yul\":2344:2350   */\n      dup2\n        /* \"#utility.yul\":2331:2351   */\n      calldataload\n        /* \"#utility.yul\":2369:2463   */\n      tag_148\n        /* \"#utility.yul\":2459:2462   */\n      dup5\n        /* \"#utility.yul\":2451:2457   */\n      dup3\n        /* \"#utility.yul\":2444:2448   */\n      0x20\n        /* \"#utility.yul\":2436:2442   */\n      dup7\n        /* \"#utility.yul\":2432:2449   */\n      add\n        /* \"#utility.yul\":2369:2463   */\n      tag_104\n      jump\t// in\n    tag_148:\n        /* \"#utility.yul\":2360:2463   */\n      swap2\n      pop\n        /* \"#utility.yul\":2176:2469   */\n      pop\n        /* \"#utility.yul\":2099:2469   */\n      swap3\n      swap2\n      pop\n      pop\n      jump\t// out\n        /* \"#utility.yul\":2492:2877   */\n    tag_149:\n        /* \"#utility.yul\":2574:2579   */\n      0x00\n        /* \"#utility.yul\":2623:2626   */\n      dup3\n        /* \"#utility.yul\":2616:2620   */\n      0x1f\n        /* \"#utility.yul\":2608:2614   */\n      dup4\n        /* \"#utility.yul\":2604:2621   */\n      add\n        /* \"#utility.yul\":2600:2627   */\n      slt\n        /* \"#utility.yul\":2590:2712   */\n      tag_151\n      jumpi\n        /* \"#utility.yul\":2631:2710   */\n      tag_152\n      tag_147\n      jump\t// in\n    tag_152:\n        /* \"#utility.yul\":2590:2712   */\n    tag_151:\n        /* \"#utility.yul\":2741:2747   */\n      dup2\n        /* \"#utility.yul\":2735:2748   */\n      mload\n        /* \"#utility.yul\":2766:2871   */\n      tag_153\n        /* \"#utility.yul\":2867:2870   */\n      dup5\n        /* \"#utility.yul\":2859:2865   */\n      dup3\n        /* \"#utility.yul\":2852:2856   */\n      0x20\n        /* \"#utility.yul\":2844:2850   */\n      dup7\n        /* \"#utility.yul\":2840:2857   */\n      add\n        /* \"#utility.yul\":2766:2871   */\n      tag_118\n      jump\t// in\n    tag_153:\n        /* \"#utility.yul\":2757:2871   */\n      swap2\n      pop\n        /* \"#utility.yul\":2580:2877   */\n      pop\n        /* \"#utility.yul\":2492:2877   */\n      swap3\n      swap2\n      pop\n      pop\n      jump\t// out\n        /* \"#utility.yul\":2897:3237   */\n    tag_154:\n        /* \"#utility.yul\":2953:2958   */\n      0x00\n        /* \"#utility.yul\":3002:3005   */\n      dup3\n        /* \"#utility.yul\":2995:2999   */\n      0x1f\n        /* \"#utility.yul\":2987:2993   */\n      dup4\n        /* \"#utility.yul\":2983:3000   */\n      add\n        /* \"#utility.yul\":2979:3006   */\n      slt\n        /* \"#utility.yul\":2969:3091   */\n      tag_156\n      jumpi\n        /* \"#utility.yul\":3010:3089   */\n      tag_157\n      tag_147\n      jump\t// in\n    tag_157:\n        /* \"#utility.yul\":2969:3091   */\n    tag_156:\n        /* \"#utility.yul\":3127:3133   */\n      dup2\n        /* \"#utility.yul\":3114:3134   */\n      calldataload\n        /* \"#utility.yul\":3152:3231   */\n      tag_158\n        /* \"#utility.yul\":3227:3230   */\n      dup5\n        /* \"#utility.yul\":3219:3225   */\n      dup3\n        /* \"#utility.yul\":3212:3216   */\n      0x20\n        /* \"#utility.yul\":3204:3210   */\n      dup7\n        /* \"#utility.yul\":3200:3217   */\n      add\n        /* \"#utility.yul\":3152:3231   */\n      tag_130\n      jump\t// in\n    tag_158:\n        /* \"#utility.yul\":3143:3231   */\n      swap2\n      pop\n        /* \"#utility.yul\":2959:3237   */\n      pop\n        /* \"#utility.yul\":2897:3237   */\n      swap3\n      swap2\n      pop\n      pop\n      jump\t// out\n        /* \"#utility.yul\":3243:3382   */\n    tag_159:\n        /* \"#utility.yul\":3289:3294   */\n      0x00\n        /* \"#utility.yul\":3327:3333   */\n      dup2\n        /* \"#utility.yul\":3314:3334   */\n      calldataload\n        /* \"#utility.yul\":3305:3334   */\n      swap1\n      pop\n        /* \"#utility.yul\":3343:3376   */\n      tag_161\n        /* \"#utility.yul\":3370:3375   */\n      dup2\n        /* \"#utility.yul\":3343:3376   */\n      tag_162\n      jump\t// in\n    tag_161:\n        /* \"#utility.yul\":3243:3382   */\n      swap3\n      swap2\n      pop\n      pop\n      jump\t// out\n        /* \"#utility.yul\":3388:3531   */\n    tag_129:\n        /* \"#utility.yul\":3445:3450   */\n      0x00\n        /* \"#utility.yul\":3476:3482   */\n      dup2\n        /* \"#utility.yul\":3470:3483   */\n      mload\n        /* \"#utility.yul\":3461:3483   */\n      swap1\n      pop\n        /* \"#utility.yul\":3492:3525   */\n      tag_164\n        /* \"#utility.yul\":3519:3524   */\n      dup2\n        /* \"#utility.yul\":3492:3525   */\n      tag_162\n      jump\t// in\n    tag_164:\n        /* \"#utility.yul\":3388:3531   */\n      swap3\n      swap2\n      pop\n      pop\n      jump\t// out\n        /* \"#utility.yul\":3537:4091   */\n    tag_53:\n        /* \"#utility.yul\":3632:3638   */\n      0x00\n        /* \"#utility.yul\":3681:3683   */\n      0x20\n        /* \"#utility.yul\":3669:3678   */\n      dup3\n        /* \"#utility.yul\":3660:3667   */\n      dup5\n        /* \"#utility.yul\":3656:3679   */\n      sub\n        /* \"#utility.yul\":3652:3684   */\n      slt\n        /* \"#utility.yul\":3649:3768   */\n      iszero\n      tag_166\n      jumpi\n        /* \"#utility.yul\":3687:3766   */\n      tag_167\n      tag_168\n      jump\t// in\n    tag_167:\n        /* \"#utility.yul\":3649:3768   */\n    tag_166:\n        /* \"#utility.yul\":3828:3829   */\n      0x00\n        /* \"#utility.yul\":3817:3826   */\n      dup3\n        /* \"#utility.yul\":3813:3830   */\n      add\n        /* \"#utility.yul\":3807:3831   */\n      mload\n        /* \"#utility.yul\":3858:3876   */\n      0xffffffffffffffff\n        /* \"#utility.yul\":3850:3856   */\n      dup2\n        /* \"#utility.yul\":3847:3877   */\n      gt\n        /* \"#utility.yul\":3844:3961   */\n      iszero\n      tag_169\n      jumpi\n        /* \"#utility.yul\":3880:3959   */\n      tag_170\n      tag_171\n      jump\t// in\n    tag_170:\n        /* \"#utility.yul\":3844:3961   */\n    tag_169:\n        /* \"#utility.yul\":3985:4074   */\n      tag_172\n        /* \"#utility.yul\":4066:4073   */\n      dup5\n        /* \"#utility.yul\":4057:4063   */\n      dup3\n        /* \"#utility.yul\":4046:4055   */\n      dup6\n        /* \"#utility.yul\":4042:4064   */\n      add\n        /* \"#utility.yul\":3985:4074   */\n      tag_149\n      jump\t// in\n    tag_172:\n        /* \"#utility.yul\":3975:4074   */\n      swap2\n      pop\n        /* \"#utility.yul\":3778:4084   */\n      pop\n        /* \"#utility.yul\":3537:4091   */\n      swap3\n      swap2\n      pop\n      pop\n      jump\t// out\n        /* \"#utility.yul\":4097:5252   */\n    tag_22:\n        /* \"#utility.yul\":4218:4224   */\n      0x00\n        /* \"#utility.yul\":4226:4232   */\n      dup1\n        /* \"#utility.yul\":4234:4240   */\n      0x00\n        /* \"#utility.yul\":4242:4248   */\n      dup1\n        /* \"#utility.yul\":4291:4294   */\n      0x80\n        /* \"#utility.yul\":4279:4288   */\n      dup6\n        /* \"#utility.yul\":4270:4277   */\n      dup8\n        /* \"#utility.yul\":4266:4289   */\n      sub\n        /* \"#utility.yul\":4262:4295   */\n      slt\n        /* \"#utility.yul\":4259:4379   */\n      iszero\n      tag_174\n      jumpi\n        /* \"#utility.yul\":4298:4377   */\n      tag_175\n      tag_168\n      jump\t// in\n    tag_175:\n        /* \"#utility.yul\":4259:4379   */\n    tag_174:\n        /* \"#utility.yul\":4446:4447   */\n      0x00\n        /* \"#utility.yul\":4435:4444   */\n      dup6\n        /* \"#utility.yul\":4431:4448   */\n      add\n        /* \"#utility.yul\":4418:4449   */\n      calldataload\n        /* \"#utility.yul\":4476:4494   */\n      0xffffffffffffffff\n        /* \"#utility.yul\":4468:4474   */\n      dup2\n        /* \"#utility.yul\":4465:4495   */\n      gt\n        /* \"#utility.yul\":4462:4579   */\n      iszero\n      tag_176\n      jumpi\n        /* \"#utility.yul\":4498:4577   */\n      tag_177\n      tag_171\n      jump\t// in\n    tag_177:\n        /* \"#utility.yul\":4462:4579   */\n    tag_176:\n        /* \"#utility.yul\":4603:4666   */\n      tag_178\n        /* \"#utility.yul\":4658:4665   */\n      dup8\n        /* \"#utility.yul\":4649:4655   */\n      dup3\n        /* \"#utility.yul\":4638:4647   */\n      dup9\n        /* \"#utility.yul\":4634:4656   */\n      add\n        /* \"#utility.yul\":4603:4666   */\n      tag_154\n      jump\t// in\n    tag_178:\n        /* \"#utility.yul\":4593:4666   */\n      swap5\n      pop\n        /* \"#utility.yul\":4389:4676   */\n      pop\n        /* \"#utility.yul\":4715:4717   */\n      0x20\n        /* \"#utility.yul\":4741:4794   */\n      tag_179\n        /* \"#utility.yul\":4786:4793   */\n      dup8\n        /* \"#utility.yul\":4777:4783   */\n      dup3\n        /* \"#utility.yul\":4766:4775   */\n      dup9\n        /* \"#utility.yul\":4762:4784   */\n      add\n        /* \"#utility.yul\":4741:4794   */\n      tag_159\n      jump\t// in\n    tag_179:\n        /* \"#utility.yul\":4731:4794   */\n      swap4\n      pop\n        /* \"#utility.yul\":4686:4804   */\n      pop\n        /* \"#utility.yul\":4843:4845   */\n      0x40\n        /* \"#utility.yul\":4869:4922   */\n      tag_180\n        /* \"#utility.yul\":4914:4921   */\n      dup8\n        /* \"#utility.yul\":4905:4911   */\n      dup3\n        /* \"#utility.yul\":4894:4903   */\n      dup9\n        /* \"#utility.yul\":4890:4912   */\n      add\n        /* \"#utility.yul\":4869:4922   */\n      tag_159\n      jump\t// in\n    tag_180:\n        /* \"#utility.yul\":4859:4922   */\n      swap3\n      pop\n        /* \"#utility.yul\":4814:4932   */\n      pop\n        /* \"#utility.yul\":4999:5001   */\n      0x60\n        /* \"#utility.yul\":4988:4997   */\n      dup6\n        /* \"#utility.yul\":4984:5002   */\n      add\n        /* \"#utility.yul\":4971:5003   */\n      calldataload\n        /* \"#utility.yul\":5030:5048   */\n      0xffffffffffffffff\n        /* \"#utility.yul\":5022:5028   */\n      dup2\n        /* \"#utility.yul\":5019:5049   */\n      gt\n        /* \"#utility.yul\":5016:5133   */\n      iszero\n      tag_181\n      jumpi\n        /* \"#utility.yul\":5052:5131   */\n      tag_182\n      tag_171\n      jump\t// in\n    tag_182:\n        /* \"#utility.yul\":5016:5133   */\n    tag_181:\n        /* \"#utility.yul\":5157:5235   */\n      tag_183\n        /* \"#utility.yul\":5227:5234   */\n      dup8\n        /* \"#utility.yul\":5218:5224   */\n      dup3\n        /* \"#utility.yul\":5207:5216   */\n      dup9\n        /* \"#utility.yul\":5203:5225   */\n      add\n        /* \"#utility.yul\":5157:5235   */\n      tag_143\n      jump\t// in\n    tag_183:\n        /* \"#utility.yul\":5147:5235   */\n      swap2\n      pop\n        /* \"#utility.yul\":4942:5245   */\n      pop\n        /* \"#utility.yul\":4097:5252   */\n      swap3\n      swap6\n      swap2\n      swap5\n      pop\n      swap3\n      pop\n      jump\t// out\n        /* \"#utility.yul\":5258:5587   */\n    tag_16:\n        /* \"#utility.yul\":5317:5323   */\n      0x00\n        /* \"#utility.yul\":5366:5368   */\n      0x20\n        /* \"#utility.yul\":5354:5363   */\n      dup3\n        /* \"#utility.yul\":5345:5352   */\n      dup5\n        /* \"#utility.yul\":5341:5364   */\n      sub\n        /* \"#utility.yul\":5337:5369   */\n      slt\n        /* \"#utility.yul\":5334:5453   */\n      iszero\n      tag_185\n      jumpi\n        /* \"#utility.yul\":5372:5451   */\n      tag_186\n      tag_168\n      jump\t// in\n    tag_186:\n        /* \"#utility.yul\":5334:5453   */\n    tag_185:\n        /* \"#utility.yul\":5492:5493   */\n      0x00\n        /* \"#utility.yul\":5517:5570   */\n      tag_187\n        /* \"#utility.yul\":5562:5569   */\n      dup5\n        /* \"#utility.yul\":5553:5559   */\n      dup3\n        /* \"#utility.yul\":5542:5551   */\n      dup6\n        /* \"#utility.yul\":5538:5560   */\n      add\n        /* \"#utility.yul\":5517:5570   */\n      tag_159\n      jump\t// in\n    tag_187:\n        /* \"#utility.yul\":5507:5570   */\n      swap2\n      pop\n        /* \"#utility.yul\":5463:5580   */\n      pop\n        /* \"#utility.yul\":5258:5587   */\n      swap3\n      swap2\n      pop\n      pop\n      jump\t// out\n        /* \"#utility.yul\":5593:5772   */\n    tag_188:\n        /* \"#utility.yul\":5662:5672   */\n      0x00\n        /* \"#utility.yul\":5683:5729   */\n      tag_190\n        /* \"#utility.yul\":5725:5728   */\n      dup4\n        /* \"#utility.yul\":5717:5723   */\n      dup4\n        /* \"#utility.yul\":5683:5729   */\n      tag_191\n      jump\t// in\n    tag_190:\n        /* \"#utility.yul\":5761:5765   */\n      0x20\n        /* \"#utility.yul\":5756:5759   */\n      dup4\n        /* \"#utility.yul\":5752:5766   */\n      add\n        /* \"#utility.yul\":5738:5766   */\n      swap1\n      pop\n        /* \"#utility.yul\":5593:5772   */\n      swap3\n      swap2\n      pop\n      pop\n      jump\t// out\n        /* \"#utility.yul\":5778:5886   */\n    tag_191:\n        /* \"#utility.yul\":5855:5879   */\n      tag_193\n        /* \"#utility.yul\":5873:5878   */\n      dup2\n        /* \"#utility.yul\":5855:5879   */\n      tag_194\n      jump\t// in\n    tag_193:\n        /* \"#utility.yul\":5850:5853   */\n      dup3\n        /* \"#utility.yul\":5843:5880   */\n      mstore\n        /* \"#utility.yul\":5778:5886   */\n      pop\n      pop\n      jump\t// out\n        /* \"#utility.yul\":5892:6010   */\n    tag_195:\n        /* \"#utility.yul\":5979:6003   */\n      tag_197\n        /* \"#utility.yul\":5997:6002   */\n      dup2\n        /* \"#utility.yul\":5979:6003   */\n      tag_194\n      jump\t// in\n    tag_197:\n        /* \"#utility.yul\":5974:5977   */\n      dup3\n        /* \"#utility.yul\":5967:6004   */\n      mstore\n        /* \"#utility.yul\":5892:6010   */\n      pop\n      pop\n      jump\t// out\n        /* \"#utility.yul\":6046:6797   */\n    tag_198:\n        /* \"#utility.yul\":6162:6165   */\n      0x00\n        /* \"#utility.yul\":6191:6242   */\n      tag_200\n        /* \"#utility.yul\":6236:6241   */\n      dup3\n        /* \"#utility.yul\":6191:6242   */\n      tag_201\n      jump\t// in\n    tag_200:\n        /* \"#utility.yul\":6258:6344   */\n      tag_202\n        /* \"#utility.yul\":6337:6343   */\n      dup2\n        /* \"#utility.yul\":6332:6335   */\n      dup6\n        /* \"#utility.yul\":6258:6344   */\n      tag_203\n      jump\t// in\n    tag_202:\n        /* \"#utility.yul\":6251:6344   */\n      swap4\n      pop\n        /* \"#utility.yul\":6368:6421   */\n      tag_204\n        /* \"#utility.yul\":6415:6420   */\n      dup4\n        /* \"#utility.yul\":6368:6421   */\n      tag_205\n      jump\t// in\n    tag_204:\n        /* \"#utility.yul\":6444:6451   */\n      dup1\n        /* \"#utility.yul\":6475:6476   */\n      0x00\n        /* \"#utility.yul\":6460:6772   */\n    tag_206:\n        /* \"#utility.yul\":6485:6491   */\n      dup4\n        /* \"#utility.yul\":6482:6483   */\n      dup2\n        /* \"#utility.yul\":6479:6492   */\n      lt\n        /* \"#utility.yul\":6460:6772   */\n      iszero\n      tag_208\n      jumpi\n        /* \"#utility.yul\":6555:6599   */\n      tag_209\n        /* \"#utility.yul\":6592:6598   */\n      dup3\n        /* \"#utility.yul\":6555:6599   */\n      tag_210\n      jump\t// in\n    tag_209:\n        /* \"#utility.yul\":6619:6682   */\n      tag_211\n        /* \"#utility.yul\":6678:6681   */\n      dup9\n        /* \"#utility.yul\":6663:6676   */\n      dup3\n        /* \"#utility.yul\":6619:6682   */\n      tag_188\n      jump\t// in\n    tag_211:\n        /* \"#utility.yul\":6612:6682   */\n      swap8\n      pop\n        /* \"#utility.yul\":6705:6762   */\n      tag_212\n        /* \"#utility.yul\":6755:6761   */\n      dup4\n        /* \"#utility.yul\":6705:6762   */\n      tag_213\n      jump\t// in\n    tag_212:\n        /* \"#utility.yul\":6695:6762   */\n      swap3\n      pop\n        /* \"#utility.yul\":6520:6772   */\n      pop\n        /* \"#utility.yul\":6507:6508   */\n      0x01\n        /* \"#utility.yul\":6504:6505   */\n      dup2\n        /* \"#utility.yul\":6500:6509   */\n      add\n        /* \"#utility.yul\":6495:6509   */\n      swap1\n      pop\n        /* \"#utility.yul\":6460:6772   */\n      jump(tag_206)\n    tag_208:\n        /* \"#utility.yul\":6464:6478   */\n      pop\n        /* \"#utility.yul\":6788:6791   */\n      dup6\n        /* \"#utility.yul\":6781:6791   */\n      swap4\n      pop\n        /* \"#utility.yul\":6167:6797   */\n      pop\n      pop\n      pop\n        /* \"#utility.yul\":6046:6797   */\n      swap3\n      swap2\n      pop\n      pop\n      jump\t// out\n        /* \"#utility.yul\":6803:6988   */\n    tag_214:\n        /* \"#utility.yul\":6917:6981   */\n      tag_216\n        /* \"#utility.yul\":6975:6980   */\n      dup2\n        /* \"#utility.yul\":6917:6981   */\n      tag_217\n      jump\t// in\n    tag_216:\n        /* \"#utility.yul\":6912:6915   */\n      dup3\n        /* \"#utility.yul\":6905:6982   */\n      mstore\n        /* \"#utility.yul\":6803:6988   */\n      pop\n      pop\n      jump\t// out\n        /* \"#utility.yul\":6994:7358   */\n    tag_218:\n        /* \"#utility.yul\":7082:7085   */\n      0x00\n        /* \"#utility.yul\":7110:7149   */\n      tag_220\n        /* \"#utility.yul\":7143:7148   */\n      dup3\n        /* \"#utility.yul\":7110:7149   */\n      tag_221\n      jump\t// in\n    tag_220:\n        /* \"#utility.yul\":7165:7236   */\n      tag_222\n        /* \"#utility.yul\":7229:7235   */\n      dup2\n        /* \"#utility.yul\":7224:7227   */\n      dup6\n        /* \"#utility.yul\":7165:7236   */\n      tag_223\n      jump\t// in\n    tag_222:\n        /* \"#utility.yul\":7158:7236   */\n      swap4\n      pop\n        /* \"#utility.yul\":7245:7297   */\n      tag_224\n        /* \"#utility.yul\":7290:7296   */\n      dup2\n        /* \"#utility.yul\":7285:7288   */\n      dup6\n        /* \"#utility.yul\":7278:7282   */\n      0x20\n        /* \"#utility.yul\":7271:7276   */\n      dup7\n        /* \"#utility.yul\":7267:7283   */\n      add\n        /* \"#utility.yul\":7245:7297   */\n      tag_225\n      jump\t// in\n    tag_224:\n        /* \"#utility.yul\":7322:7351   */\n      tag_226\n        /* \"#utility.yul\":7344:7350   */\n      dup2\n        /* \"#utility.yul\":7322:7351   */\n      tag_227\n      jump\t// in\n    tag_226:\n        /* \"#utility.yul\":7317:7320   */\n      dup5\n        /* \"#utility.yul\":7313:7352   */\n      add\n        /* \"#utility.yul\":7306:7352   */\n      swap2\n      pop\n        /* \"#utility.yul\":7086:7358   */\n      pop\n        /* \"#utility.yul\":6994:7358   */\n      swap3\n      swap2\n      pop\n      pop\n      jump\t// out\n        /* \"#utility.yul\":7388:8190   */\n    tag_228:\n        /* \"#utility.yul\":7473:7476   */\n      0x00\n        /* \"#utility.yul\":7510:7515   */\n      dup2\n        /* \"#utility.yul\":7504:7516   */\n      sload\n        /* \"#utility.yul\":7539:7575   */\n      tag_230\n        /* \"#utility.yul\":7565:7574   */\n      dup2\n        /* \"#utility.yul\":7539:7575   */\n      tag_75\n      jump\t// in\n    tag_230:\n        /* \"#utility.yul\":7591:7662   */\n      tag_231\n        /* \"#utility.yul\":7655:7661   */\n      dup2\n        /* \"#utility.yul\":7650:7653   */\n      dup7\n        /* \"#utility.yul\":7591:7662   */\n      tag_223\n      jump\t// in\n    tag_231:\n        /* \"#utility.yul\":7584:7662   */\n      swap5\n      pop\n        /* \"#utility.yul\":7693:7694   */\n      0x01\n        /* \"#utility.yul\":7682:7691   */\n      dup3\n        /* \"#utility.yul\":7678:7695   */\n      and\n        /* \"#utility.yul\":7709:7710   */\n      0x00\n        /* \"#utility.yul\":7704:7839   */\n      dup2\n      eq\n      tag_233\n      jumpi\n        /* \"#utility.yul\":7853:7854   */\n      0x01\n        /* \"#utility.yul\":7848:8184   */\n      dup2\n      eq\n      tag_234\n      jumpi\n        /* \"#utility.yul\":7671:8184   */\n      jump(tag_232)\n        /* \"#utility.yul\":7704:7839   */\n    tag_233:\n        /* \"#utility.yul\":7788:7792   */\n      0xff\n        /* \"#utility.yul\":7784:7793   */\n      not\n        /* \"#utility.yul\":7773:7782   */\n      dup4\n        /* \"#utility.yul\":7769:7794   */\n      and\n        /* \"#utility.yul\":7764:7767   */\n      dup7\n        /* \"#utility.yul\":7757:7795   */\n      mstore\n        /* \"#utility.yul\":7824:7828   */\n      0x20\n        /* \"#utility.yul\":7819:7822   */\n      dup7\n        /* \"#utility.yul\":7815:7829   */\n      add\n        /* \"#utility.yul\":7808:7829   */\n      swap4\n      pop\n        /* \"#utility.yul\":7704:7839   */\n      jump(tag_232)\n        /* \"#utility.yul\":7848:8184   */\n    tag_234:\n        /* \"#utility.yul\":7915:7953   */\n      tag_235\n        /* \"#utility.yul\":7947:7952   */\n      dup6\n        /* \"#utility.yul\":7915:7953   */\n      tag_236\n      jump\t// in\n    tag_235:\n        /* \"#utility.yul\":7975:7976   */\n      0x00\n        /* \"#utility.yul\":7989:8143   */\n    tag_237:\n        /* \"#utility.yul\":8003:8009   */\n      dup4\n        /* \"#utility.yul\":8000:8001   */\n      dup2\n        /* \"#utility.yul\":7997:8010   */\n      lt\n        /* \"#utility.yul\":7989:8143   */\n      iszero\n      tag_239\n      jumpi\n        /* \"#utility.yul\":8077:8084   */\n      dup2\n        /* \"#utility.yul\":8071:8085   */\n      sload\n        /* \"#utility.yul\":8067:8068   */\n      dup2\n        /* \"#utility.yul\":8062:8065   */\n      dup10\n        /* \"#utility.yul\":8058:8069   */\n      add\n        /* \"#utility.yul\":8051:8086   */\n      mstore\n        /* \"#utility.yul\":8127:8128   */\n      0x01\n        /* \"#utility.yul\":8118:8125   */\n      dup3\n        /* \"#utility.yul\":8114:8129   */\n      add\n        /* \"#utility.yul\":8103:8129   */\n      swap2\n      pop\n        /* \"#utility.yul\":8025:8029   */\n      0x20\n        /* \"#utility.yul\":8022:8023   */\n      dup2\n        /* \"#utility.yul\":8018:8030   */\n      add\n        /* \"#utility.yul\":8013:8030   */\n      swap1\n      pop\n        /* \"#utility.yul\":7989:8143   */\n      jump(tag_237)\n    tag_239:\n        /* \"#utility.yul\":8172:8173   */\n      dup1\n        /* \"#utility.yul\":8167:8170   */\n      dup9\n        /* \"#utility.yul\":8163:8174   */\n      add\n        /* \"#utility.yul\":8156:8174   */\n      swap6\n      pop\n        /* \"#utility.yul\":7855:8184   */\n      pop\n      pop\n        /* \"#utility.yul\":7671:8184   */\n    tag_232:\n      pop\n        /* \"#utility.yul\":7477:8190   */\n      pop\n      pop\n        /* \"#utility.yul\":7388:8190   */\n      swap3\n      swap2\n      pop\n      pop\n      jump\t// out\n        /* \"#utility.yul\":8220:9065   */\n    tag_240:\n        /* \"#utility.yul\":8323:8326   */\n      0x00\n        /* \"#utility.yul\":8360:8365   */\n      dup2\n        /* \"#utility.yul\":8354:8366   */\n      sload\n        /* \"#utility.yul\":8389:8425   */\n      tag_242\n        /* \"#utility.yul\":8415:8424   */\n      dup2\n        /* \"#utility.yul\":8389:8425   */\n      tag_75\n      jump\t// in\n    tag_242:\n        /* \"#utility.yul\":8441:8530   */\n      tag_243\n        /* \"#utility.yul\":8523:8529   */\n      dup2\n        /* \"#utility.yul\":8518:8521   */\n      dup7\n        /* \"#utility.yul\":8441:8530   */\n      tag_244\n      jump\t// in\n    tag_243:\n        /* \"#utility.yul\":8434:8530   */\n      swap5\n      pop\n        /* \"#utility.yul\":8561:8562   */\n      0x01\n        /* \"#utility.yul\":8550:8559   */\n      dup3\n        /* \"#utility.yul\":8546:8563   */\n      and\n        /* \"#utility.yul\":8577:8578   */\n      0x00\n        /* \"#utility.yul\":8572:8709   */\n      dup2\n      eq\n      tag_246\n      jumpi\n        /* \"#utility.yul\":8723:8724   */\n      0x01\n        /* \"#utility.yul\":8718:9059   */\n      dup2\n      eq\n      tag_247\n      jumpi\n        /* \"#utility.yul\":8539:9059   */\n      jump(tag_245)\n        /* \"#utility.yul\":8572:8709   */\n    tag_246:\n        /* \"#utility.yul\":8656:8660   */\n      0xff\n        /* \"#utility.yul\":8652:8661   */\n      not\n        /* \"#utility.yul\":8641:8650   */\n      dup4\n        /* \"#utility.yul\":8637:8662   */\n      and\n        /* \"#utility.yul\":8632:8635   */\n      dup7\n        /* \"#utility.yul\":8625:8663   */\n      mstore\n        /* \"#utility.yul\":8692:8698   */\n      dup2\n        /* \"#utility.yul\":8687:8690   */\n      dup7\n        /* \"#utility.yul\":8683:8699   */\n      add\n        /* \"#utility.yul\":8676:8699   */\n      swap4\n      pop\n        /* \"#utility.yul\":8572:8709   */\n      jump(tag_245)\n        /* \"#utility.yul\":8718:9059   */\n    tag_247:\n        /* \"#utility.yul\":8785:8823   */\n      tag_248\n        /* \"#utility.yul\":8817:8822   */\n      dup6\n        /* \"#utility.yul\":8785:8823   */\n      tag_236\n      jump\t// in\n    tag_248:\n        /* \"#utility.yul\":8845:8846   */\n      0x00\n        /* \"#utility.yul\":8859:9013   */\n    tag_249:\n        /* \"#utility.yul\":8873:8879   */\n      dup4\n        /* \"#utility.yul\":8870:8871   */\n      dup2\n        /* \"#utility.yul\":8867:8880   */\n      lt\n        /* \"#utility.yul\":8859:9013   */\n      iszero\n      tag_251\n      jumpi\n        /* \"#utility.yul\":8947:8954   */\n      dup2\n        /* \"#utility.yul\":8941:8955   */\n      sload\n        /* \"#utility.yul\":8937:8938   */\n      dup2\n        /* \"#utility.yul\":8932:8935   */\n      dup10\n        /* \"#utility.yul\":8928:8939   */\n      add\n        /* \"#utility.yul\":8921:8956   */\n      mstore\n        /* \"#utility.yul\":8997:8998   */\n      0x01\n        /* \"#utility.yul\":8988:8995   */\n      dup3\n        /* \"#utility.yul\":8984:8999   */\n      add\n        /* \"#utility.yul\":8973:8999   */\n      swap2\n      pop\n        /* \"#utility.yul\":8895:8899   */\n      0x20\n        /* \"#utility.yul\":8892:8893   */\n      dup2\n        /* \"#utility.yul\":8888:8900   */\n      add\n        /* \"#utility.yul\":8883:8900   */\n      swap1\n      pop\n        /* \"#utility.yul\":8859:9013   */\n      jump(tag_249)\n    tag_251:\n        /* \"#utility.yul\":9042:9048   */\n      dup4\n        /* \"#utility.yul\":9037:9040   */\n      dup9\n        /* \"#utility.yul\":9033:9049   */\n      add\n        /* \"#utility.yul\":9026:9049   */\n      swap6\n      pop\n        /* \"#utility.yul\":8725:9059   */\n      pop\n      pop\n        /* \"#utility.yul\":8539:9059   */\n    tag_245:\n      pop\n        /* \"#utility.yul\":8327:9065   */\n      pop\n      pop\n        /* \"#utility.yul\":8220:9065   */\n      swap3\n      swap2\n      pop\n      pop\n      jump\t// out\n        /* \"#utility.yul\":9071:9189   */\n    tag_252:\n        /* \"#utility.yul\":9158:9182   */\n      tag_254\n        /* \"#utility.yul\":9176:9181   */\n      dup2\n        /* \"#utility.yul\":9158:9182   */\n      tag_255\n      jump\t// in\n    tag_254:\n        /* \"#utility.yul\":9153:9156   */\n      dup3\n        /* \"#utility.yul\":9146:9183   */\n      mstore\n        /* \"#utility.yul\":9071:9189   */\n      pop\n      pop\n      jump\t// out\n        /* \"#utility.yul\":9195:9352   */\n    tag_256:\n        /* \"#utility.yul\":9300:9345   */\n      tag_258\n        /* \"#utility.yul\":9320:9344   */\n      tag_259\n        /* \"#utility.yul\":9338:9343   */\n      dup3\n        /* \"#utility.yul\":9320:9344   */\n      tag_255\n      jump\t// in\n    tag_259:\n        /* \"#utility.yul\":9300:9345   */\n      tag_260\n      jump\t// in\n    tag_258:\n        /* \"#utility.yul\":9295:9298   */\n      dup3\n        /* \"#utility.yul\":9288:9346   */\n      mstore\n        /* \"#utility.yul\":9195:9352   */\n      pop\n      pop\n      jump\t// out\n        /* \"#utility.yul\":9358:9627   */\n    tag_38:\n        /* \"#utility.yul\":9487:9490   */\n      0x00\n        /* \"#utility.yul\":9509:9601   */\n      tag_262\n        /* \"#utility.yul\":9597:9600   */\n      dup3\n        /* \"#utility.yul\":9588:9594   */\n      dup5\n        /* \"#utility.yul\":9509:9601   */\n      tag_240\n      jump\t// in\n    tag_262:\n        /* \"#utility.yul\":9502:9601   */\n      swap2\n      pop\n        /* \"#utility.yul\":9618:9621   */\n      dup2\n        /* \"#utility.yul\":9611:9621   */\n      swap1\n      pop\n        /* \"#utility.yul\":9358:9627   */\n      swap3\n      swap2\n      pop\n      pop\n      jump\t// out\n        /* \"#utility.yul\":9633:9889   */\n    tag_42:\n        /* \"#utility.yul\":9745:9748   */\n      0x00\n        /* \"#utility.yul\":9760:9835   */\n      tag_264\n        /* \"#utility.yul\":9831:9834   */\n      dup3\n        /* \"#utility.yul\":9822:9828   */\n      dup5\n        /* \"#utility.yul\":9760:9835   */\n      tag_256\n      jump\t// in\n    tag_264:\n        /* \"#utility.yul\":9860:9862   */\n      0x20\n        /* \"#utility.yul\":9855:9858   */\n      dup3\n        /* \"#utility.yul\":9851:9863   */\n      add\n        /* \"#utility.yul\":9844:9863   */\n      swap2\n      pop\n        /* \"#utility.yul\":9880:9883   */\n      dup2\n        /* \"#utility.yul\":9873:9883   */\n      swap1\n      pop\n        /* \"#utility.yul\":9633:9889   */\n      swap3\n      swap2\n      pop\n      pop\n      jump\t// out\n        /* \"#utility.yul\":9895:10900   */\n    tag_70:\n        /* \"#utility.yul\":10192:10196   */\n      0x00\n        /* \"#utility.yul\":10230:10233   */\n      0xc0\n        /* \"#utility.yul\":10219:10228   */\n      dup3\n        /* \"#utility.yul\":10215:10234   */\n      add\n        /* \"#utility.yul\":10207:10234   */\n      swap1\n      pop\n        /* \"#utility.yul\":10244:10315   */\n      tag_266\n        /* \"#utility.yul\":10312:10313   */\n      0x00\n        /* \"#utility.yul\":10301:10310   */\n      dup4\n        /* \"#utility.yul\":10297:10314   */\n      add\n        /* \"#utility.yul\":10288:10294   */\n      dup10\n        /* \"#utility.yul\":10244:10315   */\n      tag_195\n      jump\t// in\n    tag_266:\n        /* \"#utility.yul\":10325:10397   */\n      tag_267\n        /* \"#utility.yul\":10393:10395   */\n      0x20\n        /* \"#utility.yul\":10382:10391   */\n      dup4\n        /* \"#utility.yul\":10378:10396   */\n      add\n        /* \"#utility.yul\":10369:10375   */\n      dup9\n        /* \"#utility.yul\":10325:10397   */\n      tag_195\n      jump\t// in\n    tag_267:\n        /* \"#utility.yul\":10407:10479   */\n      tag_268\n        /* \"#utility.yul\":10475:10477   */\n      0x40\n        /* \"#utility.yul\":10464:10473   */\n      dup4\n        /* \"#utility.yul\":10460:10478   */\n      add\n        /* \"#utility.yul\":10451:10457   */\n      dup8\n        /* \"#utility.yul\":10407:10479   */\n      tag_252\n      jump\t// in\n    tag_268:\n        /* \"#utility.yul\":10526:10535   */\n      dup2\n        /* \"#utility.yul\":10520:10524   */\n      dup2\n        /* \"#utility.yul\":10516:10536   */\n      sub\n        /* \"#utility.yul\":10511:10513   */\n      0x60\n        /* \"#utility.yul\":10500:10509   */\n      dup4\n        /* \"#utility.yul\":10496:10514   */\n      add\n        /* \"#utility.yul\":10489:10537   */\n      mstore\n        /* \"#utility.yul\":10554:10629   */\n      tag_269\n        /* \"#utility.yul\":10624:10628   */\n      dup2\n        /* \"#utility.yul\":10615:10621   */\n      dup7\n        /* \"#utility.yul\":10554:10629   */\n      tag_228\n      jump\t// in\n    tag_269:\n        /* \"#utility.yul\":10546:10629   */\n      swap1\n      pop\n        /* \"#utility.yul\":10639:10712   */\n      tag_270\n        /* \"#utility.yul\":10707:10710   */\n      0x80\n        /* \"#utility.yul\":10696:10705   */\n      dup4\n        /* \"#utility.yul\":10692:10711   */\n      add\n        /* \"#utility.yul\":10683:10689   */\n      dup6\n        /* \"#utility.yul\":10639:10712   */\n      tag_252\n      jump\t// in\n    tag_270:\n        /* \"#utility.yul\":10760:10769   */\n      dup2\n        /* \"#utility.yul\":10754:10758   */\n      dup2\n        /* \"#utility.yul\":10750:10770   */\n      sub\n        /* \"#utility.yul\":10744:10747   */\n      0xa0\n        /* \"#utility.yul\":10733:10742   */\n      dup4\n        /* \"#utility.yul\":10729:10748   */\n      add\n        /* \"#utility.yul\":10722:10771   */\n      mstore\n        /* \"#utility.yul\":10788:10893   */\n      tag_271\n        /* \"#utility.yul\":10888:10892   */\n      dup2\n        /* \"#utility.yul\":10879:10885   */\n      dup5\n        /* \"#utility.yul\":10788:10893   */\n      tag_198\n      jump\t// in\n    tag_271:\n        /* \"#utility.yul\":10780:10893   */\n      swap1\n      pop\n        /* \"#utility.yul\":9895:10900   */\n      swap8\n      swap7\n      pop\n      pop\n      pop\n      pop\n      pop\n      pop\n      pop\n      jump\t// out\n        /* \"#utility.yul\":10906:11550   */\n    tag_19:\n        /* \"#utility.yul\":11103:11107   */\n      0x00\n        /* \"#utility.yul\":11141:11144   */\n      0x80\n        /* \"#utility.yul\":11130:11139   */\n      dup3\n        /* \"#utility.yul\":11126:11145   */\n      add\n        /* \"#utility.yul\":11118:11145   */\n      swap1\n      pop\n        /* \"#utility.yul\":11155:11226   */\n      tag_273\n        /* \"#utility.yul\":11223:11224   */\n      0x00\n        /* \"#utility.yul\":11212:11221   */\n      dup4\n        /* \"#utility.yul\":11208:11225   */\n      add\n        /* \"#utility.yul\":11199:11205   */\n      dup8\n        /* \"#utility.yul\":11155:11226   */\n      tag_195\n      jump\t// in\n    tag_273:\n        /* \"#utility.yul\":11273:11282   */\n      dup2\n        /* \"#utility.yul\":11267:11271   */\n      dup2\n        /* \"#utility.yul\":11263:11283   */\n      sub\n        /* \"#utility.yul\":11258:11260   */\n      0x20\n        /* \"#utility.yul\":11247:11256   */\n      dup4\n        /* \"#utility.yul\":11243:11261   */\n      add\n        /* \"#utility.yul\":11236:11284   */\n      mstore\n        /* \"#utility.yul\":11301:11379   */\n      tag_274\n        /* \"#utility.yul\":11374:11378   */\n      dup2\n        /* \"#utility.yul\":11365:11371   */\n      dup7\n        /* \"#utility.yul\":11301:11379   */\n      tag_218\n      jump\t// in\n    tag_274:\n        /* \"#utility.yul\":11293:11379   */\n      swap1\n      pop\n        /* \"#utility.yul\":11389:11461   */\n      tag_275\n        /* \"#utility.yul\":11457:11459   */\n      0x40\n        /* \"#utility.yul\":11446:11455   */\n      dup4\n        /* \"#utility.yul\":11442:11460   */\n      add\n        /* \"#utility.yul\":11433:11439   */\n      dup6\n        /* \"#utility.yul\":11389:11461   */\n      tag_252\n      jump\t// in\n    tag_275:\n        /* \"#utility.yul\":11471:11543   */\n      tag_276\n        /* \"#utility.yul\":11539:11541   */\n      0x60\n        /* \"#utility.yul\":11528:11537   */\n      dup4\n        /* \"#utility.yul\":11524:11542   */\n      add\n        /* \"#utility.yul\":11515:11521   */\n      dup5\n        /* \"#utility.yul\":11471:11543   */\n      tag_252\n      jump\t// in\n    tag_276:\n        /* \"#utility.yul\":10906:11550   */\n      swap6\n      swap5\n      pop\n      pop\n      pop\n      pop\n      pop\n      jump\t// out\n        /* \"#utility.yul\":11556:11832   */\n    tag_27:\n        /* \"#utility.yul\":11676:11680   */\n      0x00\n        /* \"#utility.yul\":11714:11716   */\n      0x20\n        /* \"#utility.yul\":11703:11712   */\n      dup3\n        /* \"#utility.yul\":11699:11717   */\n      add\n        /* \"#utility.yul\":11691:11717   */\n      swap1\n      pop\n        /* \"#utility.yul\":11727:11825   */\n      tag_278\n        /* \"#utility.yul\":11822:11823   */\n      0x00\n        /* \"#utility.yul\":11811:11820   */\n      dup4\n        /* \"#utility.yul\":11807:11824   */\n      add\n        /* \"#utility.yul\":11798:11804   */\n      dup5\n        /* \"#utility.yul\":11727:11825   */\n      tag_214\n      jump\t// in\n    tag_278:\n        /* \"#utility.yul\":11556:11832   */\n      swap3\n      swap2\n      pop\n      pop\n      jump\t// out\n        /* \"#utility.yul\":11838:12060   */\n    tag_11:\n        /* \"#utility.yul\":11931:11935   */\n      0x00\n        /* \"#utility.yul\":11969:11971   */\n      0x20\n        /* \"#utility.yul\":11958:11967   */\n      dup3\n        /* \"#utility.yul\":11954:11972   */\n      add\n        /* \"#utility.yul\":11946:11972   */\n      swap1\n      pop\n        /* \"#utility.yul\":11982:12053   */\n      tag_280\n        /* \"#utility.yul\":12050:12051   */\n      0x00\n        /* \"#utility.yul\":12039:12048   */\n      dup4\n        /* \"#utility.yul\":12035:12052   */\n      add\n        /* \"#utility.yul\":12026:12032   */\n      dup5\n        /* \"#utility.yul\":11982:12053   */\n      tag_252\n      jump\t// in\n    tag_280:\n        /* \"#utility.yul\":11838:12060   */\n      swap3\n      swap2\n      pop\n      pop\n      jump\t// out\n        /* \"#utility.yul\":12066:12543   */\n    tag_48:\n        /* \"#utility.yul\":12234:12238   */\n      0x00\n        /* \"#utility.yul\":12272:12274   */\n      0x40\n        /* \"#utility.yul\":12261:12270   */\n      dup3\n        /* \"#utility.yul\":12257:12275   */\n      add\n        /* \"#utility.yul\":12249:12275   */\n      swap1\n      pop\n        /* \"#utility.yul\":12285:12356   */\n      tag_282\n        /* \"#utility.yul\":12353:12354   */\n      0x00\n        /* \"#utility.yul\":12342:12351   */\n      dup4\n        /* \"#utility.yul\":12338:12355   */\n      add\n        /* \"#utility.yul\":12329:12335   */\n      dup6\n        /* \"#utility.yul\":12285:12356   */\n      tag_252\n      jump\t// in\n    tag_282:\n        /* \"#utility.yul\":12403:12412   */\n      dup2\n        /* \"#utility.yul\":12397:12401   */\n      dup2\n        /* \"#utility.yul\":12393:12413   */\n      sub\n        /* \"#utility.yul\":12388:12390   */\n      0x20\n        /* \"#utility.yul\":12377:12386   */\n      dup4\n        /* \"#utility.yul\":12373:12391   */\n      add\n        /* \"#utility.yul\":12366:12414   */\n      mstore\n        /* \"#utility.yul\":12431:12536   */\n      tag_283\n        /* \"#utility.yul\":12531:12535   */\n      dup2\n        /* \"#utility.yul\":12522:12528   */\n      dup5\n        /* \"#utility.yul\":12431:12536   */\n      tag_198\n      jump\t// in\n    tag_283:\n        /* \"#utility.yul\":12423:12536   */\n      swap1\n      pop\n        /* \"#utility.yul\":12066:12543   */\n      swap4\n      swap3\n      pop\n      pop\n      pop\n      jump\t// out\n        /* \"#utility.yul\":12549:12678   */\n    tag_109:\n        /* \"#utility.yul\":12583:12589   */\n      0x00\n        /* \"#utility.yul\":12610:12630   */\n      tag_285\n      tag_286\n      jump\t// in\n    tag_285:\n        /* \"#utility.yul\":12600:12630   */\n      swap1\n      pop\n        /* \"#utility.yul\":12639:12672   */\n      tag_287\n        /* \"#utility.yul\":12667:12671   */\n      dup3\n        /* \"#utility.yul\":12659:12665   */\n      dup3\n        /* \"#utility.yul\":12639:12672   */\n      tag_288\n      jump\t// in\n    tag_287:\n        /* \"#utility.yul\":12549:12678   */\n      swap2\n      swap1\n      pop\n      jump\t// out\n        /* \"#utility.yul\":12684:12759   */\n    tag_286:\n        /* \"#utility.yul\":12717:12723   */\n      0x00\n        /* \"#utility.yul\":12750:12752   */\n      0x40\n        /* \"#utility.yul\":12744:12753   */\n      mload\n        /* \"#utility.yul\":12734:12753   */\n      swap1\n      pop\n        /* \"#utility.yul\":12684:12759   */\n      swap1\n      jump\t// out\n        /* \"#utility.yul\":12765:13076   */\n    tag_108:\n        /* \"#utility.yul\":12842:12846   */\n      0x00\n        /* \"#utility.yul\":12932:12950   */\n      0xffffffffffffffff\n        /* \"#utility.yul\":12924:12930   */\n      dup3\n        /* \"#utility.yul\":12921:12951   */\n      gt\n        /* \"#utility.yul\":12918:12974   */\n      iszero\n      tag_291\n      jumpi\n        /* \"#utility.yul\":12954:12972   */\n      tag_292\n      tag_293\n      jump\t// in\n    tag_292:\n        /* \"#utility.yul\":12918:12974   */\n    tag_291:\n        /* \"#utility.yul\":13004:13008   */\n      0x20\n        /* \"#utility.yul\":12996:13002   */\n      dup3\n        /* \"#utility.yul\":12992:13009   */\n      mul\n        /* \"#utility.yul\":12984:13009   */\n      swap1\n      pop\n        /* \"#utility.yul\":13064:13068   */\n      0x20\n        /* \"#utility.yul\":13058:13062   */\n      dup2\n        /* \"#utility.yul\":13054:13069   */\n      add\n        /* \"#utility.yul\":13046:13069   */\n      swap1\n      pop\n        /* \"#utility.yul\":12765:13076   */\n      swap2\n      swap1\n      pop\n      jump\t// out\n        /* \"#utility.yul\":13082:13393   */\n    tag_122:\n        /* \"#utility.yul\":13159:13163   */\n      0x00\n        /* \"#utility.yul\":13249:13267   */\n      0xffffffffffffffff\n        /* \"#utility.yul\":13241:13247   */\n      dup3\n        /* \"#utility.yul\":13238:13268   */\n      gt\n        /* \"#utility.yul\":13235:13291   */\n      iszero\n      tag_295\n      jumpi\n        /* \"#utility.yul\":13271:13289   */\n      tag_296\n      tag_293\n      jump\t// in\n    tag_296:\n        /* \"#utility.yul\":13235:13291   */\n    tag_295:\n        /* \"#utility.yul\":13321:13325   */\n      0x20\n        /* \"#utility.yul\":13313:13319   */\n      dup3\n        /* \"#utility.yul\":13309:13326   */\n      mul\n        /* \"#utility.yul\":13301:13326   */\n      swap1\n      pop\n        /* \"#utility.yul\":13381:13385   */\n      0x20\n        /* \"#utility.yul\":13375:13379   */\n      dup2\n        /* \"#utility.yul\":13371:13386   */\n      add\n        /* \"#utility.yul\":13363:13386   */\n      swap1\n      pop\n        /* \"#utility.yul\":13082:13393   */\n      swap2\n      swap1\n      pop\n      jump\t// out\n        /* \"#utility.yul\":13399:13707   */\n    tag_134:\n        /* \"#utility.yul\":13461:13465   */\n      0x00\n        /* \"#utility.yul\":13551:13569   */\n      0xffffffffffffffff\n        /* \"#utility.yul\":13543:13549   */\n      dup3\n        /* \"#utility.yul\":13540:13570   */\n      gt\n        /* \"#utility.yul\":13537:13593   */\n      iszero\n      tag_298\n      jumpi\n        /* \"#utility.yul\":13573:13591   */\n      tag_299\n      tag_293\n      jump\t// in\n    tag_299:\n        /* \"#utility.yul\":13537:13593   */\n    tag_298:\n        /* \"#utility.yul\":13611:13640   */\n      tag_300\n        /* \"#utility.yul\":13633:13639   */\n      dup3\n        /* \"#utility.yul\":13611:13640   */\n      tag_227\n      jump\t// in\n    tag_300:\n        /* \"#utility.yul\":13603:13640   */\n      swap1\n      pop\n        /* \"#utility.yul\":13695:13699   */\n      0x20\n        /* \"#utility.yul\":13689:13693   */\n      dup2\n        /* \"#utility.yul\":13685:13700   */\n      add\n        /* \"#utility.yul\":13677:13700   */\n      swap1\n      pop\n        /* \"#utility.yul\":13399:13707   */\n      swap2\n      swap1\n      pop\n      jump\t// out\n        /* \"#utility.yul\":13713:13869   */\n    tag_205:\n        /* \"#utility.yul\":13777:13781   */\n      0x00\n        /* \"#utility.yul\":13800:13803   */\n      dup2\n        /* \"#utility.yul\":13792:13803   */\n      swap1\n      pop\n        /* \"#utility.yul\":13823:13826   */\n      dup2\n        /* \"#utility.yul\":13820:13821   */\n      0x00\n        /* \"#utility.yul\":13813:13827   */\n      mstore\n        /* \"#utility.yul\":13857:13861   */\n      0x20\n        /* \"#utility.yul\":13854:13855   */\n      0x00\n        /* \"#utility.yul\":13844:13862   */\n      keccak256\n        /* \"#utility.yul\":13836:13862   */\n      swap1\n      pop\n        /* \"#utility.yul\":13713:13869   */\n      swap2\n      swap1\n      pop\n      jump\t// out\n        /* \"#utility.yul\":13875:14016   */\n    tag_236:\n        /* \"#utility.yul\":13924:13928   */\n      0x00\n        /* \"#utility.yul\":13947:13950   */\n      dup2\n        /* \"#utility.yul\":13939:13950   */\n      swap1\n      pop\n        /* \"#utility.yul\":13970:13973   */\n      dup2\n        /* \"#utility.yul\":13967:13968   */\n      0x00\n        /* \"#utility.yul\":13960:13974   */\n      mstore\n        /* \"#utility.yul\":14004:14008   */\n      0x20\n        /* \"#utility.yul\":14001:14002   */\n      0x00\n        /* \"#utility.yul\":13991:14009   */\n      keccak256\n        /* \"#utility.yul\":13983:14009   */\n      swap1\n      pop\n        /* \"#utility.yul\":13875:14016   */\n      swap2\n      swap1\n      pop\n      jump\t// out\n        /* \"#utility.yul\":14022:14133   */\n    tag_201:\n        /* \"#utility.yul\":14086:14092   */\n      0x00\n        /* \"#utility.yul\":14120:14125   */\n      dup2\n        /* \"#utility.yul\":14114:14126   */\n      sload\n        /* \"#utility.yul\":14104:14126   */\n      swap1\n      pop\n        /* \"#utility.yul\":14022:14133   */\n      swap2\n      swap1\n      pop\n      jump\t// out\n        /* \"#utility.yul\":14139:14238   */\n    tag_221:\n        /* \"#utility.yul\":14191:14197   */\n      0x00\n        /* \"#utility.yul\":14225:14230   */\n      dup2\n        /* \"#utility.yul\":14219:14231   */\n      mload\n        /* \"#utility.yul\":14209:14231   */\n      swap1\n      pop\n        /* \"#utility.yul\":14139:14238   */\n      swap2\n      swap1\n      pop\n      jump\t// out\n        /* \"#utility.yul\":14244:14354   */\n    tag_213:\n        /* \"#utility.yul\":14311:14315   */\n      0x00\n        /* \"#utility.yul\":14343:14347   */\n      0x01\n        /* \"#utility.yul\":14338:14341   */\n      dup3\n        /* \"#utility.yul\":14334:14348   */\n      add\n        /* \"#utility.yul\":14326:14348   */\n      swap1\n      pop\n        /* \"#utility.yul\":14244:14354   */\n      swap2\n      swap1\n      pop\n      jump\t// out\n        /* \"#utility.yul\":14360:14544   */\n    tag_203:\n        /* \"#utility.yul\":14459:14470   */\n      0x00\n        /* \"#utility.yul\":14493:14499   */\n      dup3\n        /* \"#utility.yul\":14488:14491   */\n      dup3\n        /* \"#utility.yul\":14481:14500   */\n      mstore\n        /* \"#utility.yul\":14533:14537   */\n      0x20\n        /* \"#utility.yul\":14528:14531   */\n      dup3\n        /* \"#utility.yul\":14524:14538   */\n      add\n        /* \"#utility.yul\":14509:14538   */\n      swap1\n      pop\n        /* \"#utility.yul\":14360:14544   */\n      swap3\n      swap2\n      pop\n      pop\n      jump\t// out\n        /* \"#utility.yul\":14550:14719   */\n    tag_223:\n        /* \"#utility.yul\":14634:14645   */\n      0x00\n        /* \"#utility.yul\":14668:14674   */\n      dup3\n        /* \"#utility.yul\":14663:14666   */\n      dup3\n        /* \"#utility.yul\":14656:14675   */\n      mstore\n        /* \"#utility.yul\":14708:14712   */\n      0x20\n        /* \"#utility.yul\":14703:14706   */\n      dup3\n        /* \"#utility.yul\":14699:14713   */\n      add\n        /* \"#utility.yul\":14684:14713   */\n      swap1\n      pop\n        /* \"#utility.yul\":14550:14719   */\n      swap3\n      swap2\n      pop\n      pop\n      jump\t// out\n        /* \"#utility.yul\":14725:14873   */\n    tag_244:\n        /* \"#utility.yul\":14827:14838   */\n      0x00\n        /* \"#utility.yul\":14864:14867   */\n      dup2\n        /* \"#utility.yul\":14849:14867   */\n      swap1\n      pop\n        /* \"#utility.yul\":14725:14873   */\n      swap3\n      swap2\n      pop\n      pop\n      jump\t// out\n        /* \"#utility.yul\":14879:15184   */\n    tag_36:\n        /* \"#utility.yul\":14919:14922   */\n      0x00\n        /* \"#utility.yul\":14938:14958   */\n      tag_310\n        /* \"#utility.yul\":14956:14957   */\n      dup3\n        /* \"#utility.yul\":14938:14958   */\n      tag_255\n      jump\t// in\n    tag_310:\n        /* \"#utility.yul\":14933:14958   */\n      swap2\n      pop\n        /* \"#utility.yul\":14972:14992   */\n      tag_311\n        /* \"#utility.yul\":14990:14991   */\n      dup4\n        /* \"#utility.yul\":14972:14992   */\n      tag_255\n      jump\t// in\n    tag_311:\n        /* \"#utility.yul\":14967:14992   */\n      swap3\n      pop\n        /* \"#utility.yul\":15126:15127   */\n      dup3\n        /* \"#utility.yul\":15058:15124   */\n      0xffffffffffffffffffffffffffffffffffffffffffffffffffffffffffffffff\n        /* \"#utility.yul\":15054:15128   */\n      sub\n        /* \"#utility.yul\":15051:15052   */\n      dup3\n        /* \"#utility.yul\":15048:15129   */\n      gt\n        /* \"#utility.yul\":15045:15152   */\n      iszero\n      tag_312\n      jumpi\n        /* \"#utility.yul\":15132:15150   */\n      tag_313\n      tag_314\n      jump\t// in\n    tag_313:\n        /* \"#utility.yul\":15045:15152   */\n    tag_312:\n        /* \"#utility.yul\":15176:15177   */\n      dup3\n        /* \"#utility.yul\":15173:15174   */\n      dup3\n        /* \"#utility.yul\":15169:15178   */\n      add\n        /* \"#utility.yul\":15162:15178   */\n      swap1\n      pop\n        /* \"#utility.yul\":14879:15184   */\n      swap3\n      swap2\n      pop\n      pop\n      jump\t// out\n        /* \"#utility.yul\":15190:15381   */\n    tag_67:\n        /* \"#utility.yul\":15230:15234   */\n      0x00\n        /* \"#utility.yul\":15250:15270   */\n      tag_316\n        /* \"#utility.yul\":15268:15269   */\n      dup3\n        /* \"#utility.yul\":15250:15270   */\n      tag_255\n      jump\t// in\n    tag_316:\n        /* \"#utility.yul\":15245:15270   */\n      swap2\n      pop\n        /* \"#utility.yul\":15284:15304   */\n      tag_317\n        /* \"#utility.yul\":15302:15303   */\n      dup4\n        /* \"#utility.yul\":15284:15304   */\n      tag_255\n      jump\t// in\n    tag_317:\n        /* \"#utility.yul\":15279:15304   */\n      swap3\n      pop\n        /* \"#utility.yul\":15323:15324   */\n      dup3\n        /* \"#utility.yul\":15320:15321   */\n      dup3\n        /* \"#utility.yul\":15317:15325   */\n      lt\n        /* \"#utility.yul\":15314:15348   */\n      iszero\n      tag_318\n      jumpi\n        /* \"#utility.yul\":15328:15346   */\n      tag_319\n      tag_314\n      jump\t// in\n    tag_319:\n        /* \"#utility.yul\":15314:15348   */\n    tag_318:\n        /* \"#utility.yul\":15373:15374   */\n      dup3\n        /* \"#utility.yul\":15370:15371   */\n      dup3\n        /* \"#utility.yul\":15366:15375   */\n      sub\n        /* \"#utility.yul\":15358:15375   */\n      swap1\n      pop\n        /* \"#utility.yul\":15190:15381   */\n      swap3\n      swap2\n      pop\n      pop\n      jump\t// out\n        /* \"#utility.yul\":15387:15526   */\n    tag_320:\n        /* \"#utility.yul\":15437:15444   */\n      0x00\n        /* \"#utility.yul\":15477:15519   */\n      0xffffffffffffffffffffffffffffffffffffffff\n        /* \"#utility.yul\":15470:15475   */\n      dup3\n        /* \"#utility.yul\":15466:15520   */\n      and\n        /* \"#utility.yul\":15455:15520   */\n      swap1\n      pop\n        /* \"#utility.yul\":15387:15526   */\n      swap2\n      swap1\n      pop\n      jump\t// out\n        /* \"#utility.yul\":15532:15628   */\n    tag_194:\n        /* \"#utility.yul\":15569:15576   */\n      0x00\n        /* \"#utility.yul\":15598:15622   */\n      tag_323\n        /* \"#utility.yul\":15616:15621   */\n      dup3\n        /* \"#utility.yul\":15598:15622   */\n      tag_324\n      jump\t// in\n    tag_323:\n        /* \"#utility.yul\":15587:15622   */\n      swap1\n      pop\n        /* \"#utility.yul\":15532:15628   */\n      swap2\n      swap1\n      pop\n      jump\t// out\n        /* \"#utility.yul\":15634:15760   */\n    tag_324:\n        /* \"#utility.yul\":15671:15678   */\n      0x00\n        /* \"#utility.yul\":15711:15753   */\n      0xffffffffffffffffffffffffffffffffffffffff\n        /* \"#utility.yul\":15704:15709   */\n      dup3\n        /* \"#utility.yul\":15700:15754   */\n      and\n        /* \"#utility.yul\":15689:15754   */\n      swap1\n      pop\n        /* \"#utility.yul\":15634:15760   */\n      swap2\n      swap1\n      pop\n      jump\t// out\n        /* \"#utility.yul\":15766:15843   */\n    tag_255:\n        /* \"#utility.yul\":15803:15810   */\n      0x00\n        /* \"#utility.yul\":15832:15837   */\n      dup2\n        /* \"#utility.yul\":15821:15837   */\n      swap1\n      pop\n        /* \"#utility.yul\":15766:15843   */\n      swap2\n      swap1\n      pop\n      jump\t// out\n        /* \"#utility.yul\":15849:16002   */\n    tag_217:\n        /* \"#utility.yul\":15926:15935   */\n      0x00\n        /* \"#utility.yul\":15959:15996   */\n      tag_328\n        /* \"#utility.yul\":15990:15995   */\n      dup3\n        /* \"#utility.yul\":15959:15996   */\n      tag_329\n      jump\t// in\n    tag_328:\n        /* \"#utility.yul\":15946:15996   */\n      swap1\n      pop\n        /* \"#utility.yul\":15849:16002   */\n      swap2\n      swap1\n      pop\n      jump\t// out\n        /* \"#utility.yul\":16008:16134   */\n    tag_329:\n        /* \"#utility.yul\":16058:16067   */\n      0x00\n        /* \"#utility.yul\":16091:16128   */\n      tag_331\n        /* \"#utility.yul\":16122:16127   */\n      dup3\n        /* \"#utility.yul\":16091:16128   */\n      tag_332\n      jump\t// in\n    tag_331:\n        /* \"#utility.yul\":16078:16128   */\n      swap1\n      pop\n        /* \"#utility.yul\":16008:16134   */\n      swap2\n      swap1\n      pop\n      jump\t// out\n        /* \"#utility.yul\":16140:16253   */\n    tag_332:\n        /* \"#utility.yul\":16190:16199   */\n      0x00\n        /* \"#utility.yul\":16223:16247   */\n      tag_334\n        /* \"#utility.yul\":16241:16246   */\n      dup3\n        /* \"#utility.yul\":16223:16247   */\n      tag_324\n      jump\t// in\n    tag_334:\n        /* \"#utility.yul\":16210:16247   */\n      swap1\n      pop\n        /* \"#utility.yul\":16140:16253   */\n      swap2\n      swap1\n      pop\n      jump\t// out\n        /* \"#utility.yul\":16259:16413   */\n    tag_139:\n        /* \"#utility.yul\":16343:16349   */\n      dup3\n        /* \"#utility.yul\":16338:16341   */\n      dup2\n        /* \"#utility.yul\":16333:16336   */\n      dup4\n        /* \"#utility.yul\":16320:16350   */\n      calldatacopy\n        /* \"#utility.yul\":16405:16406   */\n      0x00\n        /* \"#utility.yul\":16396:16402   */\n      dup4\n        /* \"#utility.yul\":16391:16394   */\n      dup4\n        /* \"#utility.yul\":16387:16403   */\n      add\n        /* \"#utility.yul\":16380:16407   */\n      mstore\n        /* \"#utility.yul\":16259:16413   */\n      pop\n      pop\n      pop\n      jump\t// out\n        /* \"#utility.yul\":16419:16726   */\n    tag_225:\n        /* \"#utility.yul\":16487:16488   */\n      0x00\n        /* \"#utility.yul\":16497:16610   */\n    tag_337:\n        /* \"#utility.yul\":16511:16517   */\n      dup4\n        /* \"#utility.yul\":16508:16509   */\n      dup2\n        /* \"#utility.yul\":16505:16518   */\n      lt\n        /* \"#utility.yul\":16497:16610   */\n      iszero\n      tag_339\n      jumpi\n        /* \"#utility.yul\":16596:16597   */\n      dup1\n        /* \"#utility.yul\":16591:16594   */\n      dup3\n        /* \"#utility.yul\":16587:16598   */\n      add\n        /* \"#utility.yul\":16581:16599   */\n      mload\n        /* \"#utility.yul\":16577:16578   */\n      dup2\n        /* \"#utility.yul\":16572:16575   */\n      dup5\n        /* \"#utility.yul\":16568:16579   */\n      add\n        /* \"#utility.yul\":16561:16600   */\n      mstore\n        /* \"#utility.yul\":16533:16535   */\n      0x20\n        /* \"#utility.yul\":16530:16531   */\n      dup2\n        /* \"#utility.yul\":16526:16536   */\n      add\n        /* \"#utility.yul\":16521:16536   */\n      swap1\n      pop\n        /* \"#utility.yul\":16497:16610   */\n      jump(tag_337)\n    tag_339:\n        /* \"#utility.yul\":16628:16634   */\n      dup4\n        /* \"#utility.yul\":16625:16626   */\n      dup2\n        /* \"#utility.yul\":16622:16635   */\n      gt\n        /* \"#utility.yul\":16619:16720   */\n      iszero\n      tag_340\n      jumpi\n        /* \"#utility.yul\":16708:16709   */\n      0x00\n        /* \"#utility.yul\":16699:16705   */\n      dup5\n        /* \"#utility.yul\":16694:16697   */\n      dup5\n        /* \"#utility.yul\":16690:16706   */\n      add\n        /* \"#utility.yul\":16683:16710   */\n      mstore\n        /* \"#utility.yul\":16619:16720   */\n    tag_340:\n        /* \"#utility.yul\":16468:16726   */\n      pop\n        /* \"#utility.yul\":16419:16726   */\n      pop\n      pop\n      pop\n      jump\t// out\n        /* \"#utility.yul\":16732:17052   */\n    tag_75:\n        /* \"#utility.yul\":16776:16782   */\n      0x00\n        /* \"#utility.yul\":16813:16814   */\n      0x02\n        /* \"#utility.yul\":16807:16811   */\n      dup3\n        /* \"#utility.yul\":16803:16815   */\n      div\n        /* \"#utility.yul\":16793:16815   */\n      swap1\n      pop\n        /* \"#utility.yul\":16860:16861   */\n      0x01\n        /* \"#utility.yul\":16854:16858   */\n      dup3\n        /* \"#utility.yul\":16850:16862   */\n      and\n        /* \"#utility.yul\":16881:16899   */\n      dup1\n        /* \"#utility.yul\":16871:16952   */\n      tag_342\n      jumpi\n        /* \"#utility.yul\":16937:16941   */\n      0x7f\n        /* \"#utility.yul\":16929:16935   */\n      dup3\n        /* \"#utility.yul\":16925:16942   */\n      and\n        /* \"#utility.yul\":16915:16942   */\n      swap2\n      pop\n        /* \"#utility.yul\":16871:16952   */\n    tag_342:\n        /* \"#utility.yul\":16999:17001   */\n      0x20\n        /* \"#utility.yul\":16991:16997   */\n      dup3\n        /* \"#utility.yul\":16988:17002   */\n      lt\n        /* \"#utility.yul\":16968:16986   */\n      dup2\n        /* \"#utility.yul\":16965:17003   */\n      eq\n        /* \"#utility.yul\":16962:17046   */\n      iszero\n      tag_343\n      jumpi\n        /* \"#utility.yul\":17018:17036   */\n      tag_344\n      tag_345\n      jump\t// in\n    tag_344:\n        /* \"#utility.yul\":16962:17046   */\n    tag_343:\n        /* \"#utility.yul\":16783:17052   */\n      pop\n        /* \"#utility.yul\":16732:17052   */\n      swap2\n      swap1\n      pop\n      jump\t// out\n        /* \"#utility.yul\":17058:17224   */\n    tag_346:\n        /* \"#utility.yul\":17127:17132   */\n      0x00\n        /* \"#utility.yul\":17152:17218   */\n      tag_348\n        /* \"#utility.yul\":17183:17217   */\n      tag_349\n        /* \"#utility.yul\":17206:17216   */\n      dup4\n        /* \"#utility.yul\":17183:17217   */\n      tag_350\n      jump\t// in\n    tag_349:\n        /* \"#utility.yul\":17152:17218   */\n      tag_320\n      jump\t// in\n    tag_348:\n        /* \"#utility.yul\":17143:17218   */\n      swap1\n      pop\n        /* \"#utility.yul\":17058:17224   */\n      swap2\n      swap1\n      pop\n      jump\t// out\n        /* \"#utility.yul\":17230:17511   */\n    tag_288:\n        /* \"#utility.yul\":17313:17340   */\n      tag_352\n        /* \"#utility.yul\":17335:17339   */\n      dup3\n        /* \"#utility.yul\":17313:17340   */\n      tag_227\n      jump\t// in\n    tag_352:\n        /* \"#utility.yul\":17305:17311   */\n      dup2\n        /* \"#utility.yul\":17301:17341   */\n      add\n        /* \"#utility.yul\":17443:17449   */\n      dup2\n        /* \"#utility.yul\":17431:17441   */\n      dup2\n        /* \"#utility.yul\":17428:17450   */\n      lt\n        /* \"#utility.yul\":17407:17425   */\n      0xffffffffffffffff\n        /* \"#utility.yul\":17395:17405   */\n      dup3\n        /* \"#utility.yul\":17392:17426   */\n      gt\n        /* \"#utility.yul\":17389:17451   */\n      or\n        /* \"#utility.yul\":17386:17474   */\n      iszero\n      tag_353\n      jumpi\n        /* \"#utility.yul\":17454:17472   */\n      tag_354\n      tag_293\n      jump\t// in\n    tag_354:\n        /* \"#utility.yul\":17386:17474   */\n    tag_353:\n        /* \"#utility.yul\":17494:17504   */\n      dup1\n        /* \"#utility.yul\":17490:17492   */\n      0x40\n        /* \"#utility.yul\":17483:17505   */\n      mstore\n        /* \"#utility.yul\":17273:17511   */\n      pop\n        /* \"#utility.yul\":17230:17511   */\n      pop\n      pop\n      jump\t// out\n        /* \"#utility.yul\":17517:17750   */\n    tag_72:\n        /* \"#utility.yul\":17556:17559   */\n      0x00\n        /* \"#utility.yul\":17579:17603   */\n      tag_356\n        /* \"#utility.yul\":17597:17602   */\n      dup3\n        /* \"#utility.yul\":17579:17603   */\n      tag_255\n      jump\t// in\n    tag_356:\n        /* \"#utility.yul\":17570:17603   */\n      swap2\n      pop\n        /* \"#utility.yul\":17625:17691   */\n      0xffffffffffffffffffffffffffffffffffffffffffffffffffffffffffffffff\n        /* \"#utility.yul\":17618:17623   */\n      dup3\n        /* \"#utility.yul\":17615:17692   */\n      eq\n        /* \"#utility.yul\":17612:17715   */\n      iszero\n      tag_357\n      jumpi\n        /* \"#utility.yul\":17695:17713   */\n      tag_358\n      tag_314\n      jump\t// in\n    tag_358:\n        /* \"#utility.yul\":17612:17715   */\n    tag_357:\n        /* \"#utility.yul\":17742:17743   */\n      0x01\n        /* \"#utility.yul\":17735:17740   */\n      dup3\n        /* \"#utility.yul\":17731:17744   */\n      add\n        /* \"#utility.yul\":17724:17744   */\n      swap1\n      pop\n        /* \"#utility.yul\":17517:17750   */\n      swap2\n      swap1\n      pop\n      jump\t// out\n        /* \"#utility.yul\":17756:17835   */\n    tag_260:\n        /* \"#utility.yul\":17795:17802   */\n      0x00\n        /* \"#utility.yul\":17824:17829   */\n      dup2\n        /* \"#utility.yul\":17813:17829   */\n      swap1\n      pop\n        /* \"#utility.yul\":17756:17835   */\n      swap2\n      swap1\n      pop\n      jump\t// out\n        /* \"#utility.yul\":17841:18021   */\n    tag_314:\n        /* \"#utility.yul\":17889:17966   */\n      0x4e487b7100000000000000000000000000000000000000000000000000000000\n        /* \"#utility.yul\":17886:17887   */\n      0x00\n        /* \"#utility.yul\":17879:17967   */\n      mstore\n        /* \"#utility.yul\":17986:17990   */\n      0x11\n        /* \"#utility.yul\":17983:17984   */\n      0x04\n        /* \"#utility.yul\":17976:17991   */\n      mstore\n        /* \"#utility.yul\":18010:18014   */\n      0x24\n        /* \"#utility.yul\":18007:18008   */\n      0x00\n        /* \"#utility.yul\":18000:18015   */\n      revert\n        /* \"#utility.yul\":18027:18207   */\n    tag_345:\n        /* \"#utility.yul\":18075:18152   */\n      0x4e487b7100000000000000000000000000000000000000000000000000000000\n        /* \"#utility.yul\":18072:18073   */\n      0x00\n        /* \"#utility.yul\":18065:18153   */\n      mstore\n        /* \"#utility.yul\":18172:18176   */\n      0x22\n        /* \"#utility.yul\":18169:18170   */\n      0x04\n        /* \"#utility.yul\":18162:18177   */\n      mstore\n        /* \"#utility.yul\":18196:18200   */\n      0x24\n        /* \"#utility.yul\":18193:18194   */\n      0x00\n        /* \"#utility.yul\":18186:18201   */\n      revert\n        /* \"#utility.yul\":18213:18393   */\n    tag_61:\n        /* \"#utility.yul\":18261:18338   */\n      0x4e487b7100000000000000000000000000000000000000000000000000000000\n        /* \"#utility.yul\":18258:18259   */\n      0x00\n        /* \"#utility.yul\":18251:18339   */\n      mstore\n        /* \"#utility.yul\":18358:18362   */\n      0x32\n        /* \"#utility.yul\":18355:18356   */\n      0x04\n        /* \"#utility.yul\":18348:18363   */\n      mstore\n        /* \"#utility.yul\":18382:18386   */\n      0x24\n        /* \"#utility.yul\":18379:18380   */\n      0x00\n        /* \"#utility.yul\":18372:18387   */\n      revert\n        /* \"#utility.yul\":18399:18579   */\n    tag_293:\n        /* \"#utility.yul\":18447:18524   */\n      0x4e487b7100000000000000000000000000000000000000000000000000000000\n        /* \"#utility.yul\":18444:18445   */\n      0x00\n        /* \"#utility.yul\":18437:18525   */\n      mstore\n        /* \"#utility.yul\":18544:18548   */\n      0x41\n        /* \"#utility.yul\":18541:18542   */\n      0x04\n        /* \"#utility.yul\":18534:18549   */\n      mstore\n        /* \"#utility.yul\":18568:18572   */\n      0x24\n        /* \"#utility.yul\":18565:18566   */\n      0x00\n        /* \"#utility.yul\":18558:18573   */\n      revert\n        /* \"#utility.yul\":18585:18729   */\n    tag_210:\n        /* \"#utility.yul\":18640:18645   */\n      0x00\n        /* \"#utility.yul\":18665:18722   */\n      tag_365\n        /* \"#utility.yul\":18716:18720   */\n      dup3\n        /* \"#utility.yul\":18710:18721   */\n      sload\n        /* \"#utility.yul\":18665:18722   */\n      tag_346\n      jump\t// in\n    tag_365:\n        /* \"#utility.yul\":18656:18722   */\n      swap1\n      pop\n        /* \"#utility.yul\":18585:18729   */\n      swap2\n      swap1\n      pop\n      jump\t// out\n        /* \"#utility.yul\":18735:18852   */\n    tag_147:\n        /* \"#utility.yul\":18844:18845   */\n      0x00\n        /* \"#utility.yul\":18841:18842   */\n      dup1\n        /* \"#utility.yul\":18834:18846   */\n      revert\n        /* \"#utility.yul\":18858:18975   */\n    tag_112:\n        /* \"#utility.yul\":18967:18968   */\n      0x00\n        /* \"#utility.yul\":18964:18965   */\n      dup1\n        /* \"#utility.yul\":18957:18969   */\n      revert\n        /* \"#utility.yul\":18981:19098   */\n    tag_137:\n        /* \"#utility.yul\":19090:19091   */\n      0x00\n        /* \"#utility.yul\":19087:19088   */\n      dup1\n        /* \"#utility.yul\":19080:19092   */\n      revert\n        /* \"#utility.yul\":19104:19221   */\n    tag_171:\n        /* \"#utility.yul\":19213:19214   */\n      0x00\n        /* \"#utility.yul\":19210:19211   */\n      dup1\n        /* \"#utility.yul\":19203:19215   */\n      revert\n        /* \"#utility.yul\":19227:19344   */\n    tag_168:\n        /* \"#utility.yul\":19336:19337   */\n      0x00\n        /* \"#utility.yul\":19333:19334   */\n      dup1\n        /* \"#utility.yul\":19326:19338   */\n      revert\n        /* \"#utility.yul\":19350:19452   */\n    tag_227:\n        /* \"#utility.yul\":19391:19397   */\n      0x00\n        /* \"#utility.yul\":19442:19444   */\n      0x1f\n        /* \"#utility.yul\":19438:19445   */\n      not\n        /* \"#utility.yul\":19433:19435   */\n      0x1f\n        /* \"#utility.yul\":19426:19431   */\n      dup4\n        /* \"#utility.yul\":19422:19436   */\n      add\n        /* \"#utility.yul\":19418:19446   */\n      and\n        /* \"#utility.yul\":19408:19446   */\n      swap1\n      pop\n        /* \"#utility.yul\":19350:19452   */\n      swap2\n      swap1\n      pop\n      jump\t// out\n        /* \"#utility.yul\":19458:19560   */\n    tag_350:\n        /* \"#utility.yul\":19500:19508   */\n      0x00\n        /* \"#utility.yul\":19547:19552   */\n      dup2\n        /* \"#utility.yul\":19544:19545   */\n      0x00\n        /* \"#utility.yul\":19540:19553   */\n      shr\n        /* \"#utility.yul\":19519:19553   */\n      swap1\n      pop\n        /* \"#utility.yul\":19458:19560   */\n      swap2\n      swap1\n      pop\n      jump\t// out\n        /* \"#utility.yul\":19566:19688   */\n    tag_142:\n        /* \"#utility.yul\":19639:19663   */\n      tag_374\n        /* \"#utility.yul\":19657:19662   */\n      dup2\n        /* \"#utility.yul\":19639:19663   */\n      tag_194\n      jump\t// in\n    tag_374:\n        /* \"#utility.yul\":19632:19637   */\n      dup2\n        /* \"#utility.yul\":19629:19664   */\n      eq\n        /* \"#utility.yul\":19619:19682   */\n      tag_375\n      jumpi\n        /* \"#utility.yul\":19678:19679   */\n      0x00\n        /* \"#utility.yul\":19675:19676   */\n      dup1\n        /* \"#utility.yul\":19668:19680   */\n      revert\n        /* \"#utility.yul\":19619:19682   */\n    tag_375:\n        /* \"#utility.yul\":19566:19688   */\n      pop\n      jump\t// out\n        /* \"#utility.yul\":19694:19816   */\n    tag_162:\n        /* \"#utility.yul\":19767:19791   */\n      tag_377\n        /* \"#utility.yul\":19785:19790   */\n      dup2\n        /* \"#utility.yul\":19767:19791   */\n      tag_255\n      jump\t// in\n    tag_377:\n        /* \"#utility.yul\":19760:19765   */\n      dup2\n        /* \"#utility.yul\":19757:19792   */\n      eq\n        /* \"#utility.yul\":19747:19810   */\n      tag_378\n      jumpi\n        /* \"#utility.yul\":19806:19807   */\n      0x00\n        /* \"#utility.yul\":19803:19804   */\n      dup1\n        /* \"#utility.yul\":19796:19808   */\n      revert\n        /* \"#utility.yul\":19747:19810   */\n    tag_378:\n        /* \"#utility.yul\":19694:19816   */\n      pop\n      jump\t// out\n\n    auxdata: 0xa2646970667358221220fd043b08ddbfa4d458972cab95060b8cbe7e2885e5344cffbfe6e3c69689198464736f6c63430008070033\n}\n",
				"bytecode": {
					"linkReferences": {},
					"object": "60806040523480156200001157600080fd5b506040516200157638038062001576833981810160405281019062000037919062000095565b806000806101000a81548173ffffffffffffffffffffffffffffffffffffffff021916908373ffffffffffffffffffffffffffffffffffffffff160217905550506200011a565b6000815190506200008f8162000100565b92915050565b600060208284031215620000ae57620000ad620000fb565b5b6000620000be848285016200007e565b91505092915050565b6000620000d482620000db565b9050919050565b600073ffffffffffffffffffffffffffffffffffffffff82169050919050565b600080fd5b6200010b81620000c7565b81146200011757600080fd5b50565b61144c806200012a6000396000f3fe608060405234801561001057600080fd5b50600436106100575760003560e01c80632453ffa81461005c5780637ee685461461007a578063a85c38ef14610084578063e9a2755f146100b7578063f887ea40146100d3575b600080fd5b6100646100f1565b6040516100719190610f41565b60405180910390f35b6100826100f7565b005b61009e60048036038101906100999190610c04565b6105e7565b6040516100ae9493929190610eda565b60405180910390f35b6100d160048036038101906100cc9190610b65565b6106bf565b005b6100db6107c7565b6040516100e89190610f26565b60405180910390f35b60025481565b60005b6002548110156105e457600060018261011391906110b4565b90505b6002548110156105d057600160008281526020019081526020016000206001016040516020016101469190610e39565b60405160208183030381529060405280519060200120600160008481526020019081526020016000206001016040516020016101829190610e39565b6040516020818303038152906040528051906020012014801561021c575060016000828152602001908152602001600020600201546040516020016101c79190610e50565b6040516020818303038152906040528051906020012060016000848152602001908152602001600020600201546040516020016102049190610e50565b60405160208183030381529060405280519060200120145b156105bc576000610259600160008581526020019081526020016000206003015460016000858152602001908152602001600020600301546107eb565b905060008060009054906101000a900473ffffffffffffffffffffffffffffffffffffffff1673ffffffffffffffffffffffffffffffffffffffff1663d06ca61f6001600087815260200190815260200160002060030154600160008881526020019081526020016000206004016040518363ffffffff1660e01b81526004016102e4929190610f5c565b60006040518083038186803b1580156102fc57600080fd5b505afa158015610310573d6000803e3d6000fd5b505050506040513d6000823e3d601f19601f820116820180604052508101906103399190610b1c565b905060008060009054906101000a900473ffffffffffffffffffffffffffffffffffffffff1673ffffffffffffffffffffffffffffffffffffffff1663d06ca61f6001600087815260200190815260200160002060030154600160008881526020019081526020016000206004016040518363ffffffff1660e01b81526004016103c4929190610f5c565b60006040518083038186803b1580156103dc57600080fd5b505afa1580156103f0573d6000803e3d6000fd5b505050506040513d6000823e3d601f19601f820116820180604052508101906104199190610b1c565b905082826000815181106104305761042f611340565b5b60200260200101511015610446575050506105bd565b828160008151811061045b5761045a611340565b5b60200260200101511015610471575050506105bd565b82600160008781526020019081526020016000206003016000828254610497919061110a565b92505081905550826001600086815260200190815260200160002060030160008282546104c4919061110a565b925050819055507f159257f1367cfc494b9c1317fd1fa534f1636358b225b64240542fb36a56fb776001600087815260200190815260200160002060000160009054906101000a900473ffffffffffffffffffffffffffffffffffffffff166001600087815260200190815260200160002060000160009054906101000a900473ffffffffffffffffffffffffffffffffffffffff1685600160008a8152602001908152602001600020600101600160008b815260200190815260200160002060020154600160008c81526020019081526020016000206004016040516105b096959493929190610e6b565b60405180910390a15050505b5b80806105c89061128f565b915050610116565b5080806105dc9061128f565b9150506100fa565b50565b60016020528060005260406000206000915090508060000160009054906101000a900473ffffffffffffffffffffffffffffffffffffffff169080600101805461063090611212565b80601f016020809104026020016040519081016040528092919081815260200182805461065c90611212565b80156106a95780601f1061067e576101008083540402835291602001916106a9565b820191906000526020600020905b81548152906001019060200180831161068c57829003601f168201915b5050505050908060020154908060030154905084565b6040518060a001604052803373ffffffffffffffffffffffffffffffffffffffff1681526020018581526020018481526020018381526020018281525060016000600254815260200190815260200160002060008201518160000160006101000a81548173ffffffffffffffffffffffffffffffffffffffff021916908373ffffffffffffffffffffffffffffffffffffffff1602179055506020820151816001019080519060200190610774929190610804565b50604082015181600201556060820151816003015560808201518160040190805190602001906107a592919061088a565b50905050600260008154809291906107bc9061128f565b919050555050505050565b60008054906101000a900473ffffffffffffffffffffffffffffffffffffffff1681565b60008183106107fa57816107fc565b825b905092915050565b82805461081090611212565b90600052602060002090601f0160209004810192826108325760008555610879565b82601f1061084b57805160ff1916838001178555610879565b82800160010185558215610879579182015b8281111561087857825182559160200191906001019061085d565b5b5090506108869190610914565b5090565b828054828255906000526020600020908101928215610903579160200282015b828111156109025782518260006101000a81548173ffffffffffffffffffffffffffffffffffffffff021916908373ffffffffffffffffffffffffffffffffffffffff160217905550916020019190600101906108aa565b5b5090506109109190610914565b5090565b5b8082111561092d576000816000905550600101610915565b5090565b600061094461093f84610fb1565b610f8c565b90508083825260208201905082856020860282011115610967576109666113b6565b5b60005b85811015610997578161097d8882610a53565b84526020840193506020830192505060018101905061096a565b5050509392505050565b60006109b46109af84610fdd565b610f8c565b905080838252602082019050828560208602820111156109d7576109d66113b6565b5b60005b85811015610a0757816109ed8882610b07565b8452602084019350602083019250506001810190506109da565b5050509392505050565b6000610a24610a1f84611009565b610f8c565b905082815260208101848484011115610a4057610a3f6113bb565b5b610a4b8482856111d0565b509392505050565b600081359050610a62816113e8565b92915050565b600082601f830112610a7d57610a7c6113b1565b5b8135610a8d848260208601610931565b91505092915050565b600082601f830112610aab57610aaa6113b1565b5b8151610abb8482602086016109a1565b91505092915050565b600082601f830112610ad957610ad86113b1565b5b8135610ae9848260208601610a11565b91505092915050565b600081359050610b01816113ff565b92915050565b600081519050610b16816113ff565b92915050565b600060208284031215610b3257610b316113c5565b5b600082015167ffffffffffffffff811115610b5057610b4f6113c0565b5b610b5c84828501610a96565b91505092915050565b60008060008060808587031215610b7f57610b7e6113c5565b5b600085013567ffffffffffffffff811115610b9d57610b9c6113c0565b5b610ba987828801610ac4565b9450506020610bba87828801610af2565b9350506040610bcb87828801610af2565b925050606085013567ffffffffffffffff811115610bec57610beb6113c0565b5b610bf887828801610a68565b91505092959194509250565b600060208284031215610c1a57610c196113c5565b5b6000610c2884828501610af2565b91505092915050565b6000610c3d8383610c49565b60208301905092915050565b610c528161115e565b82525050565b610c618161115e565b82525050565b6000610c7282611064565b610c7c8185611087565b9350610c878361103a565b8060005b83811015610cbf57610c9c8261139e565b610ca68882610c31565b9750610cb18361107a565b925050600181019050610c8b565b5085935050505092915050565b610cd58161119a565b82525050565b6000610ce68261106f565b610cf08185611098565b9350610d008185602086016111df565b610d09816113ca565b840191505092915050565b60008154610d2181611212565b610d2b8186611098565b94506001821660008114610d465760018114610d5857610d8b565b60ff1983168652602086019350610d8b565b610d618561104f565b60005b83811015610d8357815481890152600182019150602081019050610d64565b808801955050505b50505092915050565b60008154610da181611212565b610dab81866110a9565b94506001821660008114610dc65760018114610dd757610e0a565b60ff19831686528186019350610e0a565b610de08561104f565b60005b83811015610e0257815481890152600182019150602081019050610de3565b838801955050505b50505092915050565b610e1c81611190565b82525050565b610e33610e2e82611190565b6112d8565b82525050565b6000610e458284610d94565b915081905092915050565b6000610e5c8284610e22565b60208201915081905092915050565b600060c082019050610e806000830189610c58565b610e8d6020830188610c58565b610e9a6040830187610e13565b8181036060830152610eac8186610d14565b9050610ebb6080830185610e13565b81810360a0830152610ecd8184610c67565b9050979650505050505050565b6000608082019050610eef6000830187610c58565b8181036020830152610f018186610cdb565b9050610f106040830185610e13565b610f1d6060830184610e13565b95945050505050565b6000602082019050610f3b6000830184610ccc565b92915050565b6000602082019050610f566000830184610e13565b92915050565b6000604082019050610f716000830185610e13565b8181036020830152610f838184610c67565b90509392505050565b6000610f96610fa7565b9050610fa2828261125e565b919050565b6000604051905090565b600067ffffffffffffffff821115610fcc57610fcb61136f565b5b602082029050602081019050919050565b600067ffffffffffffffff821115610ff857610ff761136f565b5b602082029050602081019050919050565b600067ffffffffffffffff8211156110245761102361136f565b5b61102d826113ca565b9050602081019050919050565b60008190508160005260206000209050919050565b60008190508160005260206000209050919050565b600081549050919050565b600081519050919050565b6000600182019050919050565b600082825260208201905092915050565b600082825260208201905092915050565b600081905092915050565b60006110bf82611190565b91506110ca83611190565b9250827fffffffffffffffffffffffffffffffffffffffffffffffffffffffffffffffff038211156110ff576110fe6112e2565b5b828201905092915050565b600061111582611190565b915061112083611190565b925082821015611133576111326112e2565b5b828203905092915050565b600073ffffffffffffffffffffffffffffffffffffffff82169050919050565b600061116982611170565b9050919050565b600073ffffffffffffffffffffffffffffffffffffffff82169050919050565b6000819050919050565b60006111a5826111ac565b9050919050565b60006111b7826111be565b9050919050565b60006111c982611170565b9050919050565b82818337600083830152505050565b60005b838110156111fd5780820151818401526020810190506111e2565b8381111561120c576000848401525b50505050565b6000600282049050600182168061122a57607f821691505b6020821081141561123e5761123d611311565b5b50919050565b6000611257611252836113db565b61113e565b9050919050565b611267826113ca565b810181811067ffffffffffffffff821117156112865761128561136f565b5b80604052505050565b600061129a82611190565b91507fffffffffffffffffffffffffffffffffffffffffffffffffffffffffffffffff8214156112cd576112cc6112e2565b5b600182019050919050565b6000819050919050565b7f4e487b7100000000000000000000000000000000000000000000000000000000600052601160045260246000fd5b7f4e487b7100000000000000000000000000000000000000000000000000000000600052602260045260246000fd5b7f4e487b7100000000000000000000000000000000000000000000000000000000600052603260045260246000fd5b7f4e487b7100000000000000000000000000000000000000000000000000000000600052604160045260246000fd5b60006113aa8254611244565b9050919050565b600080fd5b600080fd5b600080fd5b600080fd5b600080fd5b6000601f19601f8301169050919050565b60008160001c9050919050565b6113f18161115e565b81146113fc57600080fd5b50565b61140881611190565b811461141357600080fd5b5056fea2646970667358221220fd043b08ddbfa4d458972cab95060b8cbe7e2885e5344cffbfe6e3c69689198464736f6c63430008070033",
					"opcodes": "PUSH1 0x80 PUSH1 0x40 MSTORE CALLVALUE DUP1 ISZERO PUSH3 0x11 JUMPI PUSH1 0x0 DUP1 REVERT JUMPDEST POP PUSH1 0x40 MLOAD PUSH3 0x1576 CODESIZE SUB DUP1 PUSH3 0x1576 DUP4 CODECOPY DUP2 DUP2 ADD PUSH1 0x40 MSTORE DUP2 ADD SWAP1 PUSH3 0x37 SWAP2 SWAP1 PUSH3 0x95 JUMP JUMPDEST DUP1 PUSH1 0x0 DUP1 PUSH2 0x100 EXP DUP2 SLOAD DUP2 PUSH20 0xFFFFFFFFFFFFFFFFFFFFFFFFFFFFFFFFFFFFFFFF MUL NOT AND SWAP1 DUP4 PUSH20 0xFFFFFFFFFFFFFFFFFFFFFFFFFFFFFFFFFFFFFFFF AND MUL OR SWAP1 SSTORE POP POP PUSH3 0x11A JUMP JUMPDEST PUSH1 0x0 DUP2 MLOAD SWAP1 POP PUSH3 0x8F DUP2 PUSH3 0x100 JUMP JUMPDEST SWAP3 SWAP2 POP POP JUMP JUMPDEST PUSH1 0x0 PUSH1 0x20 DUP3 DUP5 SUB SLT ISZERO PUSH3 0xAE JUMPI PUSH3 0xAD PUSH3 0xFB JUMP JUMPDEST JUMPDEST PUSH1 0x0 PUSH3 0xBE DUP5 DUP3 DUP6 ADD PUSH3 0x7E JUMP JUMPDEST SWAP2 POP POP SWAP3 SWAP2 POP POP JUMP JUMPDEST PUSH1 0x0 PUSH3 0xD4 DUP3 PUSH3 0xDB JUMP JUMPDEST SWAP1 POP SWAP2 SWAP1 POP JUMP JUMPDEST PUSH1 0x0 PUSH20 0xFFFFFFFFFFFFFFFFFFFFFFFFFFFFFFFFFFFFFFFF DUP3 AND SWAP1 POP SWAP2 SWAP1 POP JUMP JUMPDEST PUSH1 0x0 DUP1 REVERT JUMPDEST PUSH3 0x10B DUP2 PUSH3 0xC7 JUMP JUMPDEST DUP2 EQ PUSH3 0x117 JUMPI PUSH1 0x0 DUP1 REVERT JUMPDEST POP JUMP JUMPDEST PUSH2 0x144C DUP1 PUSH3 0x12A PUSH1 0x0 CODECOPY PUSH1 0x0 RETURN INVALID PUSH1 0x80 PUSH1 0x40 MSTORE CALLVALUE DUP1 ISZERO PUSH2 0x10 JUMPI PUSH1 0x0 DUP1 REVERT JUMPDEST POP PUSH1 0x4 CALLDATASIZE LT PUSH2 0x57 JUMPI PUSH1 0x0 CALLDATALOAD PUSH1 0xE0 SHR DUP1 PUSH4 0x2453FFA8 EQ PUSH2 0x5C JUMPI DUP1 PUSH4 0x7EE68546 EQ PUSH2 0x7A JUMPI DUP1 PUSH4 0xA85C38EF EQ PUSH2 0x84 JUMPI DUP1 PUSH4 0xE9A2755F EQ PUSH2 0xB7 JUMPI DUP1 PUSH4 0xF887EA40 EQ PUSH2 0xD3 JUMPI JUMPDEST PUSH1 0x0 DUP1 REVERT JUMPDEST PUSH2 0x64 PUSH2 0xF1 JUMP JUMPDEST PUSH1 0x40 MLOAD PUSH2 0x71 SWAP2 SWAP1 PUSH2 0xF41 JUMP JUMPDEST PUSH1 0x40 MLOAD DUP1 SWAP2 SUB SWAP1 RETURN JUMPDEST PUSH2 0x82 PUSH2 0xF7 JUMP JUMPDEST STOP JUMPDEST PUSH2 0x9E PUSH1 0x4 DUP1 CALLDATASIZE SUB DUP2 ADD SWAP1 PUSH2 0x99 SWAP2 SWAP1 PUSH2 0xC04 JUMP JUMPDEST PUSH2 0x5E7 JUMP JUMPDEST PUSH1 0x40 MLOAD PUSH2 0xAE SWAP5 SWAP4 SWAP3 SWAP2 SWAP1 PUSH2 0xEDA JUMP JUMPDEST PUSH1 0x40 MLOAD DUP1 SWAP2 SUB SWAP1 RETURN JUMPDEST PUSH2 0xD1 PUSH1 0x4 DUP1 CALLDATASIZE SUB DUP2 ADD SWAP1 PUSH2 0xCC SWAP2 SWAP1 PUSH2 0xB65 JUMP JUMPDEST PUSH2 0x6BF JUMP JUMPDEST STOP JUMPDEST PUSH2 0xDB PUSH2 0x7C7 JUMP JUMPDEST PUSH1 0x40 MLOAD PUSH2 0xE8 SWAP2 SWAP1 PUSH2 0xF26 JUMP JUMPDEST PUSH1 0x40 MLOAD DUP1 SWAP2 SUB SWAP1 RETURN JUMPDEST PUSH1 0x2 SLOAD DUP2 JUMP JUMPDEST PUSH1 0x0 JUMPDEST PUSH1 0x2 SLOAD DUP2 LT ISZERO PUSH2 0x5E4 JUMPI PUSH1 0x0 PUSH1 0x1 DUP3 PUSH2 0x113 SWAP2 SWAP1 PUSH2 0x10B4 JUMP JUMPDEST SWAP1 POP JUMPDEST PUSH1 0x2 SLOAD DUP2 LT ISZERO PUSH2 0x5D0 JUMPI PUSH1 0x1 PUSH1 0x0 DUP3 DUP2 MSTORE PUSH1 0x20 ADD SWAP1 DUP2 MSTORE PUSH1 0x20 ADD PUSH1 0x0 KECCAK256 PUSH1 0x1 ADD PUSH1 0x40 MLOAD PUSH1 0x20 ADD PUSH2 0x146 SWAP2 SWAP1 PUSH2 0xE39 JUMP JUMPDEST PUSH1 0x40 MLOAD PUSH1 0x20 DUP2 DUP4 SUB SUB DUP2 MSTORE SWAP1 PUSH1 0x40 MSTORE DUP1 MLOAD SWAP1 PUSH1 0x20 ADD KECCAK256 PUSH1 0x1 PUSH1 0x0 DUP5 DUP2 MSTORE PUSH1 0x20 ADD SWAP1 DUP2 MSTORE PUSH1 0x20 ADD PUSH1 0x0 KECCAK256 PUSH1 0x1 ADD PUSH1 0x40 MLOAD PUSH1 0x20 ADD PUSH2 0x182 SWAP2 SWAP1 PUSH2 0xE39 JUMP JUMPDEST PUSH1 0x40 MLOAD PUSH1 0x20 DUP2 DUP4 SUB SUB DUP2 MSTORE SWAP1 PUSH1 0x40 MSTORE DUP1 MLOAD SWAP1 PUSH1 0x20 ADD KECCAK256 EQ DUP1 ISZERO PUSH2 0x21C JUMPI POP PUSH1 0x1 PUSH1 0x0 DUP3 DUP2 MSTORE PUSH1 0x20 ADD SWAP1 DUP2 MSTORE PUSH1 0x20 ADD PUSH1 0x0 KECCAK256 PUSH1 0x2 ADD SLOAD PUSH1 0x40 MLOAD PUSH1 0x20 ADD PUSH2 0x1C7 SWAP2 SWAP1 PUSH2 0xE50 JUMP JUMPDEST PUSH1 0x40 MLOAD PUSH1 0x20 DUP2 DUP4 SUB SUB DUP2 MSTORE SWAP1 PUSH1 0x40 MSTORE DUP1 MLOAD SWAP1 PUSH1 0x20 ADD KECCAK256 PUSH1 0x1 PUSH1 0x0 DUP5 DUP2 MSTORE PUSH1 0x20 ADD SWAP1 DUP2 MSTORE PUSH1 0x20 ADD PUSH1 0x0 KECCAK256 PUSH1 0x2 ADD SLOAD PUSH1 0x40 MLOAD PUSH1 0x20 ADD PUSH2 0x204 SWAP2 SWAP1 PUSH2 0xE50 JUMP JUMPDEST PUSH1 0x40 MLOAD PUSH1 0x20 DUP2 DUP4 SUB SUB DUP2 MSTORE SWAP1 PUSH1 0x40 MSTORE DUP1 MLOAD SWAP1 PUSH1 0x20 ADD KECCAK256 EQ JUMPDEST ISZERO PUSH2 0x5BC JUMPI PUSH1 0x0 PUSH2 0x259 PUSH1 0x1 PUSH1 0x0 DUP6 DUP2 MSTORE PUSH1 0x20 ADD SWAP1 DUP2 MSTORE PUSH1 0x20 ADD PUSH1 0x0 KECCAK256 PUSH1 0x3 ADD SLOAD PUSH1 0x1 PUSH1 0x0 DUP6 DUP2 MSTORE PUSH1 0x20 ADD SWAP1 DUP2 MSTORE PUSH1 0x20 ADD PUSH1 0x0 KECCAK256 PUSH1 0x3 ADD SLOAD PUSH2 0x7EB JUMP JUMPDEST SWAP1 POP PUSH1 0x0 DUP1 PUSH1 0x0 SWAP1 SLOAD SWAP1 PUSH2 0x100 EXP SWAP1 DIV PUSH20 0xFFFFFFFFFFFFFFFFFFFFFFFFFFFFFFFFFFFFFFFF AND PUSH20 0xFFFFFFFFFFFFFFFFFFFFFFFFFFFFFFFFFFFFFFFF AND PUSH4 0xD06CA61F PUSH1 0x1 PUSH1 0x0 DUP8 DUP2 MSTORE PUSH1 0x20 ADD SWAP1 DUP2 MSTORE PUSH1 0x20 ADD PUSH1 0x0 KECCAK256 PUSH1 0x3 ADD SLOAD PUSH1 0x1 PUSH1 0x0 DUP9 DUP2 MSTORE PUSH1 0x20 ADD SWAP1 DUP2 MSTORE PUSH1 0x20 ADD PUSH1 0x0 KECCAK256 PUSH1 0x4 ADD PUSH1 0x40 MLOAD DUP4 PUSH4 0xFFFFFFFF AND PUSH1 0xE0 SHL DUP2 MSTORE PUSH1 0x4 ADD PUSH2 0x2E4 SWAP3 SWAP2 SWAP1 PUSH2 0xF5C JUMP JUMPDEST PUSH1 0x0 PUSH1 0x40 MLOAD DUP1 DUP4 SUB DUP2 DUP7 DUP1 EXTCODESIZE ISZERO DUP1 ISZERO PUSH2 0x2FC JUMPI PUSH1 0x0 DUP1 REVERT JUMPDEST POP GAS STATICCALL ISZERO DUP1 ISZERO PUSH2 0x310 JUMPI RETURNDATASIZE PUSH1 0x0 DUP1 RETURNDATACOPY RETURNDATASIZE PUSH1 0x0 REVERT JUMPDEST POP POP POP POP PUSH1 0x40 MLOAD RETURNDATASIZE PUSH1 0x0 DUP3 RETURNDATACOPY RETURNDATASIZE PUSH1 0x1F NOT PUSH1 0x1F DUP3 ADD AND DUP3 ADD DUP1 PUSH1 0x40 MSTORE POP DUP2 ADD SWAP1 PUSH2 0x339 SWAP2 SWAP1 PUSH2 0xB1C JUMP JUMPDEST SWAP1 POP PUSH1 0x0 DUP1 PUSH1 0x0 SWAP1 SLOAD SWAP1 PUSH2 0x100 EXP SWAP1 DIV PUSH20 0xFFFFFFFFFFFFFFFFFFFFFFFFFFFFFFFFFFFFFFFF AND PUSH20 0xFFFFFFFFFFFFFFFFFFFFFFFFFFFFFFFFFFFFFFFF AND PUSH4 0xD06CA61F PUSH1 0x1 PUSH1 0x0 DUP8 DUP2 MSTORE PUSH1 0x20 ADD SWAP1 DUP2 MSTORE PUSH1 0x20 ADD PUSH1 0x0 KECCAK256 PUSH1 0x3 ADD SLOAD PUSH1 0x1 PUSH1 0x0 DUP9 DUP2 MSTORE PUSH1 0x20 ADD SWAP1 DUP2 MSTORE PUSH1 0x20 ADD PUSH1 0x0 KECCAK256 PUSH1 0x4 ADD PUSH1 0x40 MLOAD DUP4 PUSH4 0xFFFFFFFF AND PUSH1 0xE0 SHL DUP2 MSTORE PUSH1 0x4 ADD PUSH2 0x3C4 SWAP3 SWAP2 SWAP1 PUSH2 0xF5C JUMP JUMPDEST PUSH1 0x0 PUSH1 0x40 MLOAD DUP1 DUP4 SUB DUP2 DUP7 DUP1 EXTCODESIZE ISZERO DUP1 ISZERO PUSH2 0x3DC JUMPI PUSH1 0x0 DUP1 REVERT JUMPDEST POP GAS STATICCALL ISZERO DUP1 ISZERO PUSH2 0x3F0 JUMPI RETURNDATASIZE PUSH1 0x0 DUP1 RETURNDATACOPY RETURNDATASIZE PUSH1 0x0 REVERT JUMPDEST POP POP POP POP PUSH1 0x40 MLOAD RETURNDATASIZE PUSH1 0x0 DUP3 RETURNDATACOPY RETURNDATASIZE PUSH1 0x1F NOT PUSH1 0x1F DUP3 ADD AND DUP3 ADD DUP1 PUSH1 0x40 MSTORE POP DUP2 ADD SWAP1 PUSH2 0x419 SWAP2 SWAP1 PUSH2 0xB1C JUMP JUMPDEST SWAP1 POP DUP3 DUP3 PUSH1 0x0 DUP2 MLOAD DUP2 LT PUSH2 0x430 JUMPI PUSH2 0x42F PUSH2 0x1340 JUMP JUMPDEST JUMPDEST PUSH1 0x20 MUL PUSH1 0x20 ADD ADD MLOAD LT ISZERO PUSH2 0x446 JUMPI POP POP POP PUSH2 0x5BD JUMP JUMPDEST DUP3 DUP2 PUSH1 0x0 DUP2 MLOAD DUP2 LT PUSH2 0x45B JUMPI PUSH2 0x45A PUSH2 0x1340 JUMP JUMPDEST JUMPDEST PUSH1 0x20 MUL PUSH1 0x20 ADD ADD MLOAD LT ISZERO PUSH2 0x471 JUMPI POP POP POP PUSH2 0x5BD JUMP JUMPDEST DUP3 PUSH1 0x1 PUSH1 0x0 DUP8 DUP2 MSTORE PUSH1 0x20 ADD SWAP1 DUP2 MSTORE PUSH1 0x20 ADD PUSH1 0x0 KECCAK256 PUSH1 0x3 ADD PUSH1 0x0 DUP3 DUP3 SLOAD PUSH2 0x497 SWAP2 SWAP1 PUSH2 0x110A JUMP JUMPDEST SWAP3 POP POP DUP2 SWAP1 SSTORE POP DUP3 PUSH1 0x1 PUSH1 0x0 DUP7 DUP2 MSTORE PUSH1 0x20 ADD SWAP1 DUP2 MSTORE PUSH1 0x20 ADD PUSH1 0x0 KECCAK256 PUSH1 0x3 ADD PUSH1 0x0 DUP3 DUP3 SLOAD PUSH2 0x4C4 SWAP2 SWAP1 PUSH2 0x110A JUMP JUMPDEST SWAP3 POP POP DUP2 SWAP1 SSTORE POP PUSH32 0x159257F1367CFC494B9C1317FD1FA534F1636358B225B64240542FB36A56FB77 PUSH1 0x1 PUSH1 0x0 DUP8 DUP2 MSTORE PUSH1 0x20 ADD SWAP1 DUP2 MSTORE PUSH1 0x20 ADD PUSH1 0x0 KECCAK256 PUSH1 0x0 ADD PUSH1 0x0 SWAP1 SLOAD SWAP1 PUSH2 0x100 EXP SWAP1 DIV PUSH20 0xFFFFFFFFFFFFFFFFFFFFFFFFFFFFFFFFFFFFFFFF AND PUSH1 0x1 PUSH1 0x0 DUP8 DUP2 MSTORE PUSH1 0x20 ADD SWAP1 DUP2 MSTORE PUSH1 0x20 ADD PUSH1 0x0 KECCAK256 PUSH1 0x0 ADD PUSH1 0x0 SWAP1 SLOAD SWAP1 PUSH2 0x100 EXP SWAP1 DIV PUSH20 0xFFFFFFFFFFFFFFFFFFFFFFFFFFFFFFFFFFFFFFFF AND DUP6 PUSH1 0x1 PUSH1 0x0 DUP11 DUP2 MSTORE PUSH1 0x20 ADD SWAP1 DUP2 MSTORE PUSH1 0x20 ADD PUSH1 0x0 KECCAK256 PUSH1 0x1 ADD PUSH1 0x1 PUSH1 0x0 DUP12 DUP2 MSTORE PUSH1 0x20 ADD SWAP1 DUP2 MSTORE PUSH1 0x20 ADD PUSH1 0x0 KECCAK256 PUSH1 0x2 ADD SLOAD PUSH1 0x1 PUSH1 0x0 DUP13 DUP2 MSTORE PUSH1 0x20 ADD SWAP1 DUP2 MSTORE PUSH1 0x20 ADD PUSH1 0x0 KECCAK256 PUSH1 0x4 ADD PUSH1 0x40 MLOAD PUSH2 0x5B0 SWAP7 SWAP6 SWAP5 SWAP4 SWAP3 SWAP2 SWAP1 PUSH2 0xE6B JUMP JUMPDEST PUSH1 0x40 MLOAD DUP1 SWAP2 SUB SWAP1 LOG1 POP POP POP JUMPDEST JUMPDEST DUP1 DUP1 PUSH2 0x5C8 SWAP1 PUSH2 0x128F JUMP JUMPDEST SWAP2 POP POP PUSH2 0x116 JUMP JUMPDEST POP DUP1 DUP1 PUSH2 0x5DC SWAP1 PUSH2 0x128F JUMP JUMPDEST SWAP2 POP POP PUSH2 0xFA JUMP JUMPDEST POP JUMP JUMPDEST PUSH1 0x1 PUSH1 0x20 MSTORE DUP1 PUSH1 0x0 MSTORE PUSH1 0x40 PUSH1 0x0 KECCAK256 PUSH1 0x0 SWAP2 POP SWAP1 POP DUP1 PUSH1 0x0 ADD PUSH1 0x0 SWAP1 SLOAD SWAP1 PUSH2 0x100 EXP SWAP1 DIV PUSH20 0xFFFFFFFFFFFFFFFFFFFFFFFFFFFFFFFFFFFFFFFF AND SWAP1 DUP1 PUSH1 0x1 ADD DUP1 SLOAD PUSH2 0x630 SWAP1 PUSH2 0x1212 JUMP JUMPDEST DUP1 PUSH1 0x1F ADD PUSH1 0x20 DUP1 SWAP2 DIV MUL PUSH1 0x20 ADD PUSH1 0x40 MLOAD SWAP1 DUP2 ADD PUSH1 0x40 MSTORE DUP1 SWAP3 SWAP2 SWAP1 DUP2 DUP2 MSTORE PUSH1 0x20 ADD DUP3 DUP1 SLOAD PUSH2 0x65C SWAP1 PUSH2 0x1212 JUMP JUMPDEST DUP1 ISZERO PUSH2 0x6A9 JUMPI DUP1 PUSH1 0x1F LT PUSH2 0x67E JUMPI PUSH2 0x100 DUP1 DUP4 SLOAD DIV MUL DUP4 MSTORE SWAP2 PUSH1 0x20 ADD SWAP2 PUSH2 0x6A9 JUMP JUMPDEST DUP3 ADD SWAP2 SWAP1 PUSH1 0x0 MSTORE PUSH1 0x20 PUSH1 0x0 KECCAK256 SWAP1 JUMPDEST DUP2 SLOAD DUP2 MSTORE SWAP1 PUSH1 0x1 ADD SWAP1 PUSH1 0x20 ADD DUP1 DUP4 GT PUSH2 0x68C JUMPI DUP3 SWAP1 SUB PUSH1 0x1F AND DUP3 ADD SWAP2 JUMPDEST POP POP POP POP POP SWAP1 DUP1 PUSH1 0x2 ADD SLOAD SWAP1 DUP1 PUSH1 0x3 ADD SLOAD SWAP1 POP DUP5 JUMP JUMPDEST PUSH1 0x40 MLOAD DUP1 PUSH1 0xA0 ADD PUSH1 0x40 MSTORE DUP1 CALLER PUSH20 0xFFFFFFFFFFFFFFFFFFFFFFFFFFFFFFFFFFFFFFFF AND DUP2 MSTORE PUSH1 0x20 ADD DUP6 DUP2 MSTORE PUSH1 0x20 ADD DUP5 DUP2 MSTORE PUSH1 0x20 ADD DUP4 DUP2 MSTORE PUSH1 0x20 ADD DUP3 DUP2 MSTORE POP PUSH1 0x1 PUSH1 0x0 PUSH1 0x2 SLOAD DUP2 MSTORE PUSH1 0x20 ADD SWAP1 DUP2 MSTORE PUSH1 0x20 ADD PUSH1 0x0 KECCAK256 PUSH1 0x0 DUP3 ADD MLOAD DUP2 PUSH1 0x0 ADD PUSH1 0x0 PUSH2 0x100 EXP DUP2 SLOAD DUP2 PUSH20 0xFFFFFFFFFFFFFFFFFFFFFFFFFFFFFFFFFFFFFFFF MUL NOT AND SWAP1 DUP4 PUSH20 0xFFFFFFFFFFFFFFFFFFFFFFFFFFFFFFFFFFFFFFFF AND MUL OR SWAP1 SSTORE POP PUSH1 0x20 DUP3 ADD MLOAD DUP2 PUSH1 0x1 ADD SWAP1 DUP1 MLOAD SWAP1 PUSH1 0x20 ADD SWAP1 PUSH2 0x774 SWAP3 SWAP2 SWAP1 PUSH2 0x804 JUMP JUMPDEST POP PUSH1 0x40 DUP3 ADD MLOAD DUP2 PUSH1 0x2 ADD SSTORE PUSH1 0x60 DUP3 ADD MLOAD DUP2 PUSH1 0x3 ADD SSTORE PUSH1 0x80 DUP3 ADD MLOAD DUP2 PUSH1 0x4 ADD SWAP1 DUP1 MLOAD SWAP1 PUSH1 0x20 ADD SWAP1 PUSH2 0x7A5 SWAP3 SWAP2 SWAP1 PUSH2 0x88A JUMP JUMPDEST POP SWAP1 POP POP PUSH1 0x2 PUSH1 0x0 DUP2 SLOAD DUP1 SWAP3 SWAP2 SWAP1 PUSH2 0x7BC SWAP1 PUSH2 0x128F JUMP JUMPDEST SWAP2 SWAP1 POP SSTORE POP POP POP POP POP JUMP JUMPDEST PUSH1 0x0 DUP1 SLOAD SWAP1 PUSH2 0x100 EXP SWAP1 DIV PUSH20 0xFFFFFFFFFFFFFFFFFFFFFFFFFFFFFFFFFFFFFFFF AND DUP2 JUMP JUMPDEST PUSH1 0x0 DUP2 DUP4 LT PUSH2 0x7FA JUMPI DUP2 PUSH2 0x7FC JUMP JUMPDEST DUP3 JUMPDEST SWAP1 POP SWAP3 SWAP2 POP POP JUMP JUMPDEST DUP3 DUP1 SLOAD PUSH2 0x810 SWAP1 PUSH2 0x1212 JUMP JUMPDEST SWAP1 PUSH1 0x0 MSTORE PUSH1 0x20 PUSH1 0x0 KECCAK256 SWAP1 PUSH1 0x1F ADD PUSH1 0x20 SWAP1 DIV DUP2 ADD SWAP3 DUP3 PUSH2 0x832 JUMPI PUSH1 0x0 DUP6 SSTORE PUSH2 0x879 JUMP JUMPDEST DUP3 PUSH1 0x1F LT PUSH2 0x84B JUMPI DUP1 MLOAD PUSH1 0xFF NOT AND DUP4 DUP1 ADD OR DUP6 SSTORE PUSH2 0x879 JUMP JUMPDEST DUP3 DUP1 ADD PUSH1 0x1 ADD DUP6 SSTORE DUP3 ISZERO PUSH2 0x879 JUMPI SWAP2 DUP3 ADD JUMPDEST DUP3 DUP2 GT ISZERO PUSH2 0x878 JUMPI DUP3 MLOAD DUP3 SSTORE SWAP2 PUSH1 0x20 ADD SWAP2 SWAP1 PUSH1 0x1 ADD SWAP1 PUSH2 0x85D JUMP JUMPDEST JUMPDEST POP SWAP1 POP PUSH2 0x886 SWAP2 SWAP1 PUSH2 0x914 JUMP JUMPDEST POP SWAP1 JUMP JUMPDEST DUP3 DUP1 SLOAD DUP3 DUP3 SSTORE SWAP1 PUSH1 0x0 MSTORE PUSH1 0x20 PUSH1 0x0 KECCAK256 SWAP1 DUP2 ADD SWAP3 DUP3 ISZERO PUSH2 0x903 JUMPI SWAP2 PUSH1 0x20 MUL DUP3 ADD JUMPDEST DUP3 DUP2 GT ISZERO PUSH2 0x902 JUMPI DUP3 MLOAD DUP3 PUSH1 0x0 PUSH2 0x100 EXP DUP2 SLOAD DUP2 PUSH20 0xFFFFFFFFFFFFFFFFFFFFFFFFFFFFFFFFFFFFFFFF MUL NOT AND SWAP1 DUP4 PUSH20 0xFFFFFFFFFFFFFFFFFFFFFFFFFFFFFFFFFFFFFFFF AND MUL OR SWAP1 SSTORE POP SWAP2 PUSH1 0x20 ADD SWAP2 SWAP1 PUSH1 0x1 ADD SWAP1 PUSH2 0x8AA JUMP JUMPDEST JUMPDEST POP SWAP1 POP PUSH2 0x910 SWAP2 SWAP1 PUSH2 0x914 JUMP JUMPDEST POP SWAP1 JUMP JUMPDEST JUMPDEST DUP1 DUP3 GT ISZERO PUSH2 0x92D JUMPI PUSH1 0x0 DUP2 PUSH1 0x0 SWAP1 SSTORE POP PUSH1 0x1 ADD PUSH2 0x915 JUMP JUMPDEST POP SWAP1 JUMP JUMPDEST PUSH1 0x0 PUSH2 0x944 PUSH2 0x93F DUP5 PUSH2 0xFB1 JUMP JUMPDEST PUSH2 0xF8C JUMP JUMPDEST SWAP1 POP DUP1 DUP4 DUP3 MSTORE PUSH1 0x20 DUP3 ADD SWAP1 POP DUP3 DUP6 PUSH1 0x20 DUP7 MUL DUP3 ADD GT ISZERO PUSH2 0x967 JUMPI PUSH2 0x966 PUSH2 0x13B6 JUMP JUMPDEST JUMPDEST PUSH1 0x0 JUMPDEST DUP6 DUP2 LT ISZERO PUSH2 0x997 JUMPI DUP2 PUSH2 0x97D DUP9 DUP3 PUSH2 0xA53 JUMP JUMPDEST DUP5 MSTORE PUSH1 0x20 DUP5 ADD SWAP4 POP PUSH1 0x20 DUP4 ADD SWAP3 POP POP PUSH1 0x1 DUP2 ADD SWAP1 POP PUSH2 0x96A JUMP JUMPDEST POP POP POP SWAP4 SWAP3 POP POP POP JUMP JUMPDEST PUSH1 0x0 PUSH2 0x9B4 PUSH2 0x9AF DUP5 PUSH2 0xFDD JUMP JUMPDEST PUSH2 0xF8C JUMP JUMPDEST SWAP1 POP DUP1 DUP4 DUP3 MSTORE PUSH1 0x20 DUP3 ADD SWAP1 POP DUP3 DUP6 PUSH1 0x20 DUP7 MUL DUP3 ADD GT ISZERO PUSH2 0x9D7 JUMPI PUSH2 0x9D6 PUSH2 0x13B6 JUMP JUMPDEST JUMPDEST PUSH1 0x0 JUMPDEST DUP6 DUP2 LT ISZERO PUSH2 0xA07 JUMPI DUP2 PUSH2 0x9ED DUP9 DUP3 PUSH2 0xB07 JUMP JUMPDEST DUP5 MSTORE PUSH1 0x20 DUP5 ADD SWAP4 POP PUSH1 0x20 DUP4 ADD SWAP3 POP POP PUSH1 0x1 DUP2 ADD SWAP1 POP PUSH2 0x9DA JUMP JUMPDEST POP POP POP SWAP4 SWAP3 POP POP POP JUMP JUMPDEST PUSH1 0x0 PUSH2 0xA24 PUSH2 0xA1F DUP5 PUSH2 0x1009 JUMP JUMPDEST PUSH2 0xF8C JUMP JUMPDEST SWAP1 POP DUP3 DUP2 MSTORE PUSH1 0x20 DUP2 ADD DUP5 DUP5 DUP5 ADD GT ISZERO PUSH2 0xA40 JUMPI PUSH2 0xA3F PUSH2 0x13BB JUMP JUMPDEST JUMPDEST PUSH2 0xA4B DUP5 DUP3 DUP6 PUSH2 0x11D0 JUMP JUMPDEST POP SWAP4 SWAP3 POP POP POP JUMP JUMPDEST PUSH1 0x0 DUP2 CALLDATALOAD SWAP1 POP PUSH2 0xA62 DUP2 PUSH2 0x13E8 JUMP JUMPDEST SWAP3 SWAP2 POP POP JUMP JUMPDEST PUSH1 0x0 DUP3 PUSH1 0x1F DUP4 ADD SLT PUSH2 0xA7D JUMPI PUSH2 0xA7C PUSH2 0x13B1 JUMP JUMPDEST JUMPDEST DUP2 CALLDATALOAD PUSH2 0xA8D DUP5 DUP3 PUSH1 0x20 DUP7 ADD PUSH2 0x931 JUMP JUMPDEST SWAP2 POP POP SWAP3 SWAP2 POP POP JUMP JUMPDEST PUSH1 0x0 DUP3 PUSH1 0x1F DUP4 ADD SLT PUSH2 0xAAB JUMPI PUSH2 0xAAA PUSH2 0x13B1 JUMP JUMPDEST JUMPDEST DUP2 MLOAD PUSH2 0xABB DUP5 DUP3 PUSH1 0x20 DUP7 ADD PUSH2 0x9A1 JUMP JUMPDEST SWAP2 POP POP SWAP3 SWAP2 POP POP JUMP JUMPDEST PUSH1 0x0 DUP3 PUSH1 0x1F DUP4 ADD SLT PUSH2 0xAD9 JUMPI PUSH2 0xAD8 PUSH2 0x13B1 JUMP JUMPDEST JUMPDEST DUP2 CALLDATALOAD PUSH2 0xAE9 DUP5 DUP3 PUSH1 0x20 DUP7 ADD PUSH2 0xA11 JUMP JUMPDEST SWAP2 POP POP SWAP3 SWAP2 POP POP JUMP JUMPDEST PUSH1 0x0 DUP2 CALLDATALOAD SWAP1 POP PUSH2 0xB01 DUP2 PUSH2 0x13FF JUMP JUMPDEST SWAP3 SWAP2 POP POP JUMP JUMPDEST PUSH1 0x0 DUP2 MLOAD SWAP1 POP PUSH2 0xB16 DUP2 PUSH2 0x13FF JUMP JUMPDEST SWAP3 SWAP2 POP POP JUMP JUMPDEST PUSH1 0x0 PUSH1 0x20 DUP3 DUP5 SUB SLT ISZERO PUSH2 0xB32 JUMPI PUSH2 0xB31 PUSH2 0x13C5 JUMP JUMPDEST JUMPDEST PUSH1 0x0 DUP3 ADD MLOAD PUSH8 0xFFFFFFFFFFFFFFFF DUP2 GT ISZERO PUSH2 0xB50 JUMPI PUSH2 0xB4F PUSH2 0x13C0 JUMP JUMPDEST JUMPDEST PUSH2 0xB5C DUP5 DUP3 DUP6 ADD PUSH2 0xA96 JUMP JUMPDEST SWAP2 POP POP SWAP3 SWAP2 POP POP JUMP JUMPDEST PUSH1 0x0 DUP1 PUSH1 0x0 DUP1 PUSH1 0x80 DUP6 DUP8 SUB SLT ISZERO PUSH2 0xB7F JUMPI PUSH2 0xB7E PUSH2 0x13C5 JUMP JUMPDEST JUMPDEST PUSH1 0x0 DUP6 ADD CALLDATALOAD PUSH8 0xFFFFFFFFFFFFFFFF DUP2 GT ISZERO PUSH2 0xB9D JUMPI PUSH2 0xB9C PUSH2 0x13C0 JUMP JUMPDEST JUMPDEST PUSH2 0xBA9 DUP8 DUP3 DUP9 ADD PUSH2 0xAC4 JUMP JUMPDEST SWAP5 POP POP PUSH1 0x20 PUSH2 0xBBA DUP8 DUP3 DUP9 ADD PUSH2 0xAF2 JUMP JUMPDEST SWAP4 POP POP PUSH1 0x40 PUSH2 0xBCB DUP8 DUP3 DUP9 ADD PUSH2 0xAF2 JUMP JUMPDEST SWAP3 POP POP PUSH1 0x60 DUP6 ADD CALLDATALOAD PUSH8 0xFFFFFFFFFFFFFFFF DUP2 GT ISZERO PUSH2 0xBEC JUMPI PUSH2 0xBEB PUSH2 0x13C0 JUMP JUMPDEST JUMPDEST PUSH2 0xBF8 DUP8 DUP3 DUP9 ADD PUSH2 0xA68 JUMP JUMPDEST SWAP2 POP POP SWAP3 SWAP6 SWAP2 SWAP5 POP SWAP3 POP JUMP JUMPDEST PUSH1 0x0 PUSH1 0x20 DUP3 DUP5 SUB SLT ISZERO PUSH2 0xC1A JUMPI PUSH2 0xC19 PUSH2 0x13C5 JUMP JUMPDEST JUMPDEST PUSH1 0x0 PUSH2 0xC28 DUP5 DUP3 DUP6 ADD PUSH2 0xAF2 JUMP JUMPDEST SWAP2 POP POP SWAP3 SWAP2 POP POP JUMP JUMPDEST PUSH1 0x0 PUSH2 0xC3D DUP4 DUP4 PUSH2 0xC49 JUMP JUMPDEST PUSH1 0x20 DUP4 ADD SWAP1 POP SWAP3 SWAP2 POP POP JUMP JUMPDEST PUSH2 0xC52 DUP2 PUSH2 0x115E JUMP JUMPDEST DUP3 MSTORE POP POP JUMP JUMPDEST PUSH2 0xC61 DUP2 PUSH2 0x115E JUMP JUMPDEST DUP3 MSTORE POP POP JUMP JUMPDEST PUSH1 0x0 PUSH2 0xC72 DUP3 PUSH2 0x1064 JUMP JUMPDEST PUSH2 0xC7C DUP2 DUP6 PUSH2 0x1087 JUMP JUMPDEST SWAP4 POP PUSH2 0xC87 DUP4 PUSH2 0x103A JUMP JUMPDEST DUP1 PUSH1 0x0 JUMPDEST DUP4 DUP2 LT ISZERO PUSH2 0xCBF JUMPI PUSH2 0xC9C DUP3 PUSH2 0x139E JUMP JUMPDEST PUSH2 0xCA6 DUP9 DUP3 PUSH2 0xC31 JUMP JUMPDEST SWAP8 POP PUSH2 0xCB1 DUP4 PUSH2 0x107A JUMP JUMPDEST SWAP3 POP POP PUSH1 0x1 DUP2 ADD SWAP1 POP PUSH2 0xC8B JUMP JUMPDEST POP DUP6 SWAP4 POP POP POP POP SWAP3 SWAP2 POP POP JUMP JUMPDEST PUSH2 0xCD5 DUP2 PUSH2 0x119A JUMP JUMPDEST DUP3 MSTORE POP POP JUMP JUMPDEST PUSH1 0x0 PUSH2 0xCE6 DUP3 PUSH2 0x106F JUMP JUMPDEST PUSH2 0xCF0 DUP2 DUP6 PUSH2 0x1098 JUMP JUMPDEST SWAP4 POP PUSH2 0xD00 DUP2 DUP6 PUSH1 0x20 DUP7 ADD PUSH2 0x11DF JUMP JUMPDEST PUSH2 0xD09 DUP2 PUSH2 0x13CA JUMP JUMPDEST DUP5 ADD SWAP2 POP POP SWAP3 SWAP2 POP POP JUMP JUMPDEST PUSH1 0x0 DUP2 SLOAD PUSH2 0xD21 DUP2 PUSH2 0x1212 JUMP JUMPDEST PUSH2 0xD2B DUP2 DUP7 PUSH2 0x1098 JUMP JUMPDEST SWAP5 POP PUSH1 0x1 DUP3 AND PUSH1 0x0 DUP2 EQ PUSH2 0xD46 JUMPI PUSH1 0x1 DUP2 EQ PUSH2 0xD58 JUMPI PUSH2 0xD8B JUMP JUMPDEST PUSH1 0xFF NOT DUP4 AND DUP7 MSTORE PUSH1 0x20 DUP7 ADD SWAP4 POP PUSH2 0xD8B JUMP JUMPDEST PUSH2 0xD61 DUP6 PUSH2 0x104F JUMP JUMPDEST PUSH1 0x0 JUMPDEST DUP4 DUP2 LT ISZERO PUSH2 0xD83 JUMPI DUP2 SLOAD DUP2 DUP10 ADD MSTORE PUSH1 0x1 DUP3 ADD SWAP2 POP PUSH1 0x20 DUP2 ADD SWAP1 POP PUSH2 0xD64 JUMP JUMPDEST DUP1 DUP9 ADD SWAP6 POP POP POP JUMPDEST POP POP POP SWAP3 SWAP2 POP POP JUMP JUMPDEST PUSH1 0x0 DUP2 SLOAD PUSH2 0xDA1 DUP2 PUSH2 0x1212 JUMP JUMPDEST PUSH2 0xDAB DUP2 DUP7 PUSH2 0x10A9 JUMP JUMPDEST SWAP5 POP PUSH1 0x1 DUP3 AND PUSH1 0x0 DUP2 EQ PUSH2 0xDC6 JUMPI PUSH1 0x1 DUP2 EQ PUSH2 0xDD7 JUMPI PUSH2 0xE0A JUMP JUMPDEST PUSH1 0xFF NOT DUP4 AND DUP7 MSTORE DUP2 DUP7 ADD SWAP4 POP PUSH2 0xE0A JUMP JUMPDEST PUSH2 0xDE0 DUP6 PUSH2 0x104F JUMP JUMPDEST PUSH1 0x0 JUMPDEST DUP4 DUP2 LT ISZERO PUSH2 0xE02 JUMPI DUP2 SLOAD DUP2 DUP10 ADD MSTORE PUSH1 0x1 DUP3 ADD SWAP2 POP PUSH1 0x20 DUP2 ADD SWAP1 POP PUSH2 0xDE3 JUMP JUMPDEST DUP4 DUP9 ADD SWAP6 POP POP POP JUMPDEST POP POP POP SWAP3 SWAP2 POP POP JUMP JUMPDEST PUSH2 0xE1C DUP2 PUSH2 0x1190 JUMP JUMPDEST DUP3 MSTORE POP POP JUMP JUMPDEST PUSH2 0xE33 PUSH2 0xE2E DUP3 PUSH2 0x1190 JUMP JUMPDEST PUSH2 0x12D8 JUMP JUMPDEST DUP3 MSTORE POP POP JUMP JUMPDEST PUSH1 0x0 PUSH2 0xE45 DUP3 DUP5 PUSH2 0xD94 JUMP JUMPDEST SWAP2 POP DUP2 SWAP1 POP SWAP3 SWAP2 POP POP JUMP JUMPDEST PUSH1 0x0 PUSH2 0xE5C DUP3 DUP5 PUSH2 0xE22 JUMP JUMPDEST PUSH1 0x20 DUP3 ADD SWAP2 POP DUP2 SWAP1 POP SWAP3 SWAP2 POP POP JUMP JUMPDEST PUSH1 0x0 PUSH1 0xC0 DUP3 ADD SWAP1 POP PUSH2 0xE80 PUSH1 0x0 DUP4 ADD DUP10 PUSH2 0xC58 JUMP JUMPDEST PUSH2 0xE8D PUSH1 0x20 DUP4 ADD DUP9 PUSH2 0xC58 JUMP JUMPDEST PUSH2 0xE9A PUSH1 0x40 DUP4 ADD DUP8 PUSH2 0xE13 JUMP JUMPDEST DUP2 DUP2 SUB PUSH1 0x60 DUP4 ADD MSTORE PUSH2 0xEAC DUP2 DUP7 PUSH2 0xD14 JUMP JUMPDEST SWAP1 POP PUSH2 0xEBB PUSH1 0x80 DUP4 ADD DUP6 PUSH2 0xE13 JUMP JUMPDEST DUP2 DUP2 SUB PUSH1 0xA0 DUP4 ADD MSTORE PUSH2 0xECD DUP2 DUP5 PUSH2 0xC67 JUMP JUMPDEST SWAP1 POP SWAP8 SWAP7 POP POP POP POP POP POP POP JUMP JUMPDEST PUSH1 0x0 PUSH1 0x80 DUP3 ADD SWAP1 POP PUSH2 0xEEF PUSH1 0x0 DUP4 ADD DUP8 PUSH2 0xC58 JUMP JUMPDEST DUP2 DUP2 SUB PUSH1 0x20 DUP4 ADD MSTORE PUSH2 0xF01 DUP2 DUP7 PUSH2 0xCDB JUMP JUMPDEST SWAP1 POP PUSH2 0xF10 PUSH1 0x40 DUP4 ADD DUP6 PUSH2 0xE13 JUMP JUMPDEST PUSH2 0xF1D PUSH1 0x60 DUP4 ADD DUP5 PUSH2 0xE13 JUMP JUMPDEST SWAP6 SWAP5 POP POP POP POP POP JUMP JUMPDEST PUSH1 0x0 PUSH1 0x20 DUP3 ADD SWAP1 POP PUSH2 0xF3B PUSH1 0x0 DUP4 ADD DUP5 PUSH2 0xCCC JUMP JUMPDEST SWAP3 SWAP2 POP POP JUMP JUMPDEST PUSH1 0x0 PUSH1 0x20 DUP3 ADD SWAP1 POP PUSH2 0xF56 PUSH1 0x0 DUP4 ADD DUP5 PUSH2 0xE13 JUMP JUMPDEST SWAP3 SWAP2 POP POP JUMP JUMPDEST PUSH1 0x0 PUSH1 0x40 DUP3 ADD SWAP1 POP PUSH2 0xF71 PUSH1 0x0 DUP4 ADD DUP6 PUSH2 0xE13 JUMP JUMPDEST DUP2 DUP2 SUB PUSH1 0x20 DUP4 ADD MSTORE PUSH2 0xF83 DUP2 DUP5 PUSH2 0xC67 JUMP JUMPDEST SWAP1 POP SWAP4 SWAP3 POP POP POP JUMP JUMPDEST PUSH1 0x0 PUSH2 0xF96 PUSH2 0xFA7 JUMP JUMPDEST SWAP1 POP PUSH2 0xFA2 DUP3 DUP3 PUSH2 0x125E JUMP JUMPDEST SWAP2 SWAP1 POP JUMP JUMPDEST PUSH1 0x0 PUSH1 0x40 MLOAD SWAP1 POP SWAP1 JUMP JUMPDEST PUSH1 0x0 PUSH8 0xFFFFFFFFFFFFFFFF DUP3 GT ISZERO PUSH2 0xFCC JUMPI PUSH2 0xFCB PUSH2 0x136F JUMP JUMPDEST JUMPDEST PUSH1 0x20 DUP3 MUL SWAP1 POP PUSH1 0x20 DUP2 ADD SWAP1 POP SWAP2 SWAP1 POP JUMP JUMPDEST PUSH1 0x0 PUSH8 0xFFFFFFFFFFFFFFFF DUP3 GT ISZERO PUSH2 0xFF8 JUMPI PUSH2 0xFF7 PUSH2 0x136F JUMP JUMPDEST JUMPDEST PUSH1 0x20 DUP3 MUL SWAP1 POP PUSH1 0x20 DUP2 ADD SWAP1 POP SWAP2 SWAP1 POP JUMP JUMPDEST PUSH1 0x0 PUSH8 0xFFFFFFFFFFFFFFFF DUP3 GT ISZERO PUSH2 0x1024 JUMPI PUSH2 0x1023 PUSH2 0x136F JUMP JUMPDEST JUMPDEST PUSH2 0x102D DUP3 PUSH2 0x13CA JUMP JUMPDEST SWAP1 POP PUSH1 0x20 DUP2 ADD SWAP1 POP SWAP2 SWAP1 POP JUMP JUMPDEST PUSH1 0x0 DUP2 SWAP1 POP DUP2 PUSH1 0x0 MSTORE PUSH1 0x20 PUSH1 0x0 KECCAK256 SWAP1 POP SWAP2 SWAP1 POP JUMP JUMPDEST PUSH1 0x0 DUP2 SWAP1 POP DUP2 PUSH1 0x0 MSTORE PUSH1 0x20 PUSH1 0x0 KECCAK256 SWAP1 POP SWAP2 SWAP1 POP JUMP JUMPDEST PUSH1 0x0 DUP2 SLOAD SWAP1 POP SWAP2 SWAP1 POP JUMP JUMPDEST PUSH1 0x0 DUP2 MLOAD SWAP1 POP SWAP2 SWAP1 POP JUMP JUMPDEST PUSH1 0x0 PUSH1 0x1 DUP3 ADD SWAP1 POP SWAP2 SWAP1 POP JUMP JUMPDEST PUSH1 0x0 DUP3 DUP3 MSTORE PUSH1 0x20 DUP3 ADD SWAP1 POP SWAP3 SWAP2 POP POP JUMP JUMPDEST PUSH1 0x0 DUP3 DUP3 MSTORE PUSH1 0x20 DUP3 ADD SWAP1 POP SWAP3 SWAP2 POP POP JUMP JUMPDEST PUSH1 0x0 DUP2 SWAP1 POP SWAP3 SWAP2 POP POP JUMP JUMPDEST PUSH1 0x0 PUSH2 0x10BF DUP3 PUSH2 0x1190 JUMP JUMPDEST SWAP2 POP PUSH2 0x10CA DUP4 PUSH2 0x1190 JUMP JUMPDEST SWAP3 POP DUP3 PUSH32 0xFFFFFFFFFFFFFFFFFFFFFFFFFFFFFFFFFFFFFFFFFFFFFFFFFFFFFFFFFFFFFFFF SUB DUP3 GT ISZERO PUSH2 0x10FF JUMPI PUSH2 0x10FE PUSH2 0x12E2 JUMP JUMPDEST JUMPDEST DUP3 DUP3 ADD SWAP1 POP SWAP3 SWAP2 POP POP JUMP JUMPDEST PUSH1 0x0 PUSH2 0x1115 DUP3 PUSH2 0x1190 JUMP JUMPDEST SWAP2 POP PUSH2 0x1120 DUP4 PUSH2 0x1190 JUMP JUMPDEST SWAP3 POP DUP3 DUP3 LT ISZERO PUSH2 0x1133 JUMPI PUSH2 0x1132 PUSH2 0x12E2 JUMP JUMPDEST JUMPDEST DUP3 DUP3 SUB SWAP1 POP SWAP3 SWAP2 POP POP JUMP JUMPDEST PUSH1 0x0 PUSH20 0xFFFFFFFFFFFFFFFFFFFFFFFFFFFFFFFFFFFFFFFF DUP3 AND SWAP1 POP SWAP2 SWAP1 POP JUMP JUMPDEST PUSH1 0x0 PUSH2 0x1169 DUP3 PUSH2 0x1170 JUMP JUMPDEST SWAP1 POP SWAP2 SWAP1 POP JUMP JUMPDEST PUSH1 0x0 PUSH20 0xFFFFFFFFFFFFFFFFFFFFFFFFFFFFFFFFFFFFFFFF DUP3 AND SWAP1 POP SWAP2 SWAP1 POP JUMP JUMPDEST PUSH1 0x0 DUP2 SWAP1 POP SWAP2 SWAP1 POP JUMP JUMPDEST PUSH1 0x0 PUSH2 0x11A5 DUP3 PUSH2 0x11AC JUMP JUMPDEST SWAP1 POP SWAP2 SWAP1 POP JUMP JUMPDEST PUSH1 0x0 PUSH2 0x11B7 DUP3 PUSH2 0x11BE JUMP JUMPDEST SWAP1 POP SWAP2 SWAP1 POP JUMP JUMPDEST PUSH1 0x0 PUSH2 0x11C9 DUP3 PUSH2 0x1170 JUMP JUMPDEST SWAP1 POP SWAP2 SWAP1 POP JUMP JUMPDEST DUP3 DUP2 DUP4 CALLDATACOPY PUSH1 0x0 DUP4 DUP4 ADD MSTORE POP POP POP JUMP JUMPDEST PUSH1 0x0 JUMPDEST DUP4 DUP2 LT ISZERO PUSH2 0x11FD JUMPI DUP1 DUP3 ADD MLOAD DUP2 DUP5 ADD MSTORE PUSH1 0x20 DUP2 ADD SWAP1 POP PUSH2 0x11E2 JUMP JUMPDEST DUP4 DUP2 GT ISZERO PUSH2 0x120C JUMPI PUSH1 0x0 DUP5 DUP5 ADD MSTORE JUMPDEST POP POP POP POP JUMP JUMPDEST PUSH1 0x0 PUSH1 0x2 DUP3 DIV SWAP1 POP PUSH1 0x1 DUP3 AND DUP1 PUSH2 0x122A JUMPI PUSH1 0x7F DUP3 AND SWAP2 POP JUMPDEST PUSH1 0x20 DUP3 LT DUP2 EQ ISZERO PUSH2 0x123E JUMPI PUSH2 0x123D PUSH2 0x1311 JUMP JUMPDEST JUMPDEST POP SWAP2 SWAP1 POP JUMP JUMPDEST PUSH1 0x0 PUSH2 0x1257 PUSH2 0x1252 DUP4 PUSH2 0x13DB JUMP JUMPDEST PUSH2 0x113E JUMP JUMPDEST SWAP1 POP SWAP2 SWAP1 POP JUMP JUMPDEST PUSH2 0x1267 DUP3 PUSH2 0x13CA JUMP JUMPDEST DUP2 ADD DUP2 DUP2 LT PUSH8 0xFFFFFFFFFFFFFFFF DUP3 GT OR ISZERO PUSH2 0x1286 JUMPI PUSH2 0x1285 PUSH2 0x136F JUMP JUMPDEST JUMPDEST DUP1 PUSH1 0x40 MSTORE POP POP POP JUMP JUMPDEST PUSH1 0x0 PUSH2 0x129A DUP3 PUSH2 0x1190 JUMP JUMPDEST SWAP2 POP PUSH32 0xFFFFFFFFFFFFFFFFFFFFFFFFFFFFFFFFFFFFFFFFFFFFFFFFFFFFFFFFFFFFFFFF DUP3 EQ ISZERO PUSH2 0x12CD JUMPI PUSH2 0x12CC PUSH2 0x12E2 JUMP JUMPDEST JUMPDEST PUSH1 0x1 DUP3 ADD SWAP1 POP SWAP2 SWAP1 POP JUMP JUMPDEST PUSH1 0x0 DUP2 SWAP1 POP SWAP2 SWAP1 POP JUMP JUMPDEST PUSH32 0x4E487B7100000000000000000000000000000000000000000000000000000000 PUSH1 0x0 MSTORE PUSH1 0x11 PUSH1 0x4 MSTORE PUSH1 0x24 PUSH1 0x0 REVERT JUMPDEST PUSH32 0x4E487B7100000000000000000000000000000000000000000000000000000000 PUSH1 0x0 MSTORE PUSH1 0x22 PUSH1 0x4 MSTORE PUSH1 0x24 PUSH1 0x0 REVERT JUMPDEST PUSH32 0x4E487B7100000000000000000000000000000000000000000000000000000000 PUSH1 0x0 MSTORE PUSH1 0x32 PUSH1 0x4 MSTORE PUSH1 0x24 PUSH1 0x0 REVERT JUMPDEST PUSH32 0x4E487B7100000000000000000000000000000000000000000000000000000000 PUSH1 0x0 MSTORE PUSH1 0x41 PUSH1 0x4 MSTORE PUSH1 0x24 PUSH1 0x0 REVERT JUMPDEST PUSH1 0x0 PUSH2 0x13AA DUP3 SLOAD PUSH2 0x1244 JUMP JUMPDEST SWAP1 POP SWAP2 SWAP1 POP JUMP JUMPDEST PUSH1 0x0 DUP1 REVERT JUMPDEST PUSH1 0x0 DUP1 REVERT JUMPDEST PUSH1 0x0 DUP1 REVERT JUMPDEST PUSH1 0x0 DUP1 REVERT JUMPDEST PUSH1 0x0 DUP1 REVERT JUMPDEST PUSH1 0x0 PUSH1 0x1F NOT PUSH1 0x1F DUP4 ADD AND SWAP1 POP SWAP2 SWAP1 POP JUMP JUMPDEST PUSH1 0x0 DUP2 PUSH1 0x0 SHR SWAP1 POP SWAP2 SWAP1 POP JUMP JUMPDEST PUSH2 0x13F1 DUP2 PUSH2 0x115E JUMP JUMPDEST DUP2 EQ PUSH2 0x13FC JUMPI PUSH1 0x0 DUP1 REVERT JUMPDEST POP JUMP JUMPDEST PUSH2 0x1408 DUP2 PUSH2 0x1190 JUMP JUMPDEST DUP2 EQ PUSH2 0x1413 JUMPI PUSH1 0x0 DUP1 REVERT JUMPDEST POP JUMP INVALID LOG2 PUSH5 0x6970667358 0x22 SLT KECCAK256 REVERT DIV EXTCODESIZE ADDMOD 0xDD 0xBF LOG4 0xD4 PC SWAP8 0x2C 0xAB SWAP6 MOD SIGNEXTEND DUP13 0xBE PUSH31 0x2885E5344CFFBFE6E3C69689198464736F6C63430008070033000000000000 "
				},
				"gasEstimates": {
					"creation": {
						"codeDepositCost": "1039200",
						"executionCost": "infinite",
						"totalCost": "infinite"
					},
					"external": {
						"addOrder(string,uint256,uint256,address[])": "infinite",
						"matchOrders()": "infinite",
						"orderCount()": "2407",
						"orders(uint256)": "infinite",
						"router()": "2663"
					},
					"internal": {
						"min(uint256,uint256)": "64"
					}
				},
				"methodIdentifiers": {
					"addOrder(string,uint256,uint256,address[])": "e9a2755f",
					"matchOrders()": "7ee68546",
					"orderCount()": "2453ffa8",
					"orders(uint256)": "a85c38ef",
					"router()": "f887ea40"
				}
			},
			"storageLayout": {
				"storage": [
					{
						"astId": 522,
						"contract": "contracts/1_Storage.sol:DarkPool",
						"label": "router",
						"offset": 0,
						"slot": "0",
						"type": "t_contract(IUniswapV2Router02)1171"
					},
					{
						"astId": 527,
						"contract": "contracts/1_Storage.sol:DarkPool",
						"label": "orders",
						"offset": 0,
						"slot": "1",
						"type": "t_mapping(t_uint256,t_struct(Order)519_storage)"
					},
					{
						"astId": 529,
						"contract": "contracts/1_Storage.sol:DarkPool",
						"label": "orderCount",
						"offset": 0,
						"slot": "2",
						"type": "t_uint256"
					}
				],
				"types": {
					"t_address": {
						"encoding": "inplace",
						"label": "address",
						"numberOfBytes": "20"
					},
					"t_array(t_address)dyn_storage": {
						"base": "t_address",
						"encoding": "dynamic_array",
						"label": "address[]",
						"numberOfBytes": "32"
					},
					"t_contract(IUniswapV2Router02)1171": {
						"encoding": "inplace",
						"label": "contract IUniswapV2Router02",
						"numberOfBytes": "20"
					},
					"t_mapping(t_uint256,t_struct(Order)519_storage)": {
						"encoding": "mapping",
						"key": "t_uint256",
						"label": "mapping(uint256 => struct DarkPool.Order)",
						"numberOfBytes": "32",
						"value": "t_struct(Order)519_storage"
					},
					"t_string_storage": {
						"encoding": "bytes",
						"label": "string",
						"numberOfBytes": "32"
					},
					"t_struct(Order)519_storage": {
						"encoding": "inplace",
						"label": "struct DarkPool.Order",
						"members": [
							{
								"astId": 509,
								"contract": "contracts/1_Storage.sol:DarkPool",
								"label": "trader",
								"offset": 0,
								"slot": "0",
								"type": "t_address"
							},
							{
								"astId": 511,
								"contract": "contracts/1_Storage.sol:DarkPool",
								"label": "symbol",
								"offset": 0,
								"slot": "1",
								"type": "t_string_storage"
							},
							{
								"astId": 513,
								"contract": "contracts/1_Storage.sol:DarkPool",
								"label": "price",
								"offset": 0,
								"slot": "2",
								"type": "t_uint256"
							},
							{
								"astId": 515,
								"contract": "contracts/1_Storage.sol:DarkPool",
								"label": "shares",
								"offset": 0,
								"slot": "3",
								"type": "t_uint256"
							},
							{
								"astId": 518,
								"contract": "contracts/1_Storage.sol:DarkPool",
								"label": "symbolAdr",
								"offset": 0,
								"slot": "4",
								"type": "t_array(t_address)dyn_storage"
							}
						],
						"numberOfBytes": "160"
					},
					"t_uint256": {
						"encoding": "inplace",
						"label": "uint256",
						"numberOfBytes": "32"
					}
				}
			},
			"userdoc": {
				"kind": "user",
				"methods": {},
				"version": 1
			}
		}
	}
}