{
	"contracts/1_Storage.sol": {
		"AirbnbLike": {
			"abi": [
				{
					"anonymous": false,
					"inputs": [
						{
							"indexed": false,
							"internalType": "bytes32",
							"name": "propertyId",
							"type": "bytes32"
						},
						{
							"indexed": false,
							"internalType": "uint256",
							"name": "startDate",
							"type": "uint256"
						},
						{
							"indexed": false,
							"internalType": "uint256",
							"name": "endDate",
							"type": "uint256"
						},
						{
							"indexed": false,
							"internalType": "uint256",
							"name": "amount",
							"type": "uint256"
						}
					],
					"name": "BookingMade",
					"type": "event"
				},
				{
					"anonymous": false,
					"inputs": [
						{
							"indexed": false,
							"internalType": "string",
							"name": "name",
							"type": "string"
						},
						{
							"indexed": false,
							"internalType": "string",
							"name": "description",
							"type": "string"
						},
						{
							"indexed": false,
							"internalType": "string",
							"name": "addressP",
							"type": "string"
						},
						{
							"indexed": false,
							"internalType": "uint256",
							"name": "pricePerNight",
							"type": "uint256"
						}
					],
					"name": "PropertyAdded",
					"type": "event"
				},
				{
					"anonymous": false,
					"inputs": [
						{
							"indexed": false,
							"internalType": "bytes32",
							"name": "propertyId",
							"type": "bytes32"
						}
					],
					"name": "RefundRequested",
					"type": "event"
				},
				{
					"anonymous": false,
					"inputs": [
						{
							"indexed": false,
							"internalType": "bytes32",
							"name": "propertyId",
							"type": "bytes32"
						},
						{
							"indexed": false,
							"internalType": "uint256",
							"name": "rating",
							"type": "uint256"
						},
						{
							"indexed": false,
							"internalType": "string",
							"name": "review",
							"type": "string"
						}
					],
					"name": "StayReviewed",
					"type": "event"
				},
				{
					"anonymous": false,
					"inputs": [
						{
							"indexed": false,
							"internalType": "address",
							"name": "spender",
							"type": "address"
						},
						{
							"indexed": false,
							"internalType": "uint256",
							"name": "value",
							"type": "uint256"
						}
					],
					"name": "TokensApproved",
					"type": "event"
				},
				{
					"anonymous": false,
					"inputs": [
						{
							"indexed": false,
							"internalType": "address",
							"name": "from",
							"type": "address"
						},
						{
							"indexed": false,
							"internalType": "address",
							"name": "to",
							"type": "address"
						},
						{
							"indexed": false,
							"internalType": "uint256",
							"name": "value",
							"type": "uint256"
						}
					],
					"name": "TokensTransferred",
					"type": "event"
				},
				{
					"anonymous": false,
					"inputs": [
						{
							"indexed": false,
							"internalType": "address",
							"name": "user",
							"type": "address"
						},
						{
							"indexed": false,
							"internalType": "uint256",
							"name": "rating",
							"type": "uint256"
						}
					],
					"name": "UserRated",
					"type": "event"
				},
				{
					"inputs": [
						{
							"internalType": "string",
							"name": "_name",
							"type": "string"
						},
						{
							"internalType": "string",
							"name": "_description",
							"type": "string"
						},
						{
							"internalType": "string",
							"name": "_address",
							"type": "string"
						},
						{
							"internalType": "uint256",
							"name": "_pricePerNight",
							"type": "uint256"
						},
						{
							"internalType": "bytes32[]",
							"name": "_images",
							"type": "bytes32[]"
						},
						{
							"internalType": "bytes32[]",
							"name": "_documents",
							"type": "bytes32[]"
						}
					],
					"name": "addProperty",
					"outputs": [],
					"stateMutability": "nonpayable",
					"type": "function"
				},
				{
					"inputs": [
						{
							"internalType": "address",
							"name": "",
							"type": "address"
						},
						{
							"internalType": "address",
							"name": "",
							"type": "address"
						}
					],
					"name": "allowed",
					"outputs": [
						{
							"internalType": "uint256",
							"name": "",
							"type": "uint256"
						}
					],
					"stateMutability": "view",
					"type": "function"
				},
				{
					"inputs": [
						{
							"internalType": "address",
							"name": "spender",
							"type": "address"
						},
						{
							"internalType": "uint256",
							"name": "value",
							"type": "uint256"
						}
					],
					"name": "approve",
					"outputs": [],
					"stateMutability": "nonpayable",
					"type": "function"
				},
				{
					"inputs": [
						{
							"internalType": "address",
							"name": "",
							"type": "address"
						}
					],
					"name": "balanceOf",
					"outputs": [
						{
							"internalType": "uint256",
							"name": "",
							"type": "uint256"
						}
					],
					"stateMutability": "view",
					"type": "function"
				},
				{
					"inputs": [
						{
							"internalType": "bytes32",
							"name": "",
							"type": "bytes32"
						},
						{
							"internalType": "uint256",
							"name": "",
							"type": "uint256"
						}
					],
					"name": "bookings",
					"outputs": [
						{
							"internalType": "uint256",
							"name": "startDate",
							"type": "uint256"
						},
						{
							"internalType": "uint256",
							"name": "endDate",
							"type": "uint256"
						},
						{
							"internalType": "address",
							"name": "renter",
							"type": "address"
						},
						{
							"internalType": "uint256",
							"name": "amount",
							"type": "uint256"
						}
					],
					"stateMutability": "view",
					"type": "function"
				},
				{
					"inputs": [],
					"name": "decimals",
					"outputs": [
						{
							"internalType": "uint256",
							"name": "",
							"type": "uint256"
						}
					],
					"stateMutability": "view",
					"type": "function"
				},
				{
					"inputs": [
						{
							"internalType": "uint256",
							"name": "",
							"type": "uint256"
						}
					],
					"name": "disputes",
					"outputs": [
						{
							"internalType": "bytes32",
							"name": "propertyId",
							"type": "bytes32"
						},
						{
							"internalType": "address",
							"name": "renter",
							"type": "address"
						},
						{
							"internalType": "string",
							"name": "reason",
							"type": "string"
						},
						{
							"internalType": "uint256",
							"name": "status",
							"type": "uint256"
						}
					],
					"stateMutability": "view",
					"type": "function"
				},
				{
					"inputs": [
						{
							"internalType": "bytes32",
							"name": "propertyId",
							"type": "bytes32"
						},
						{
							"internalType": "uint256",
							"name": "startDate",
							"type": "uint256"
						},
						{
							"internalType": "uint256",
							"name": "endDate",
							"type": "uint256"
						},
						{
							"internalType": "uint256",
							"name": "amount",
							"type": "uint256"
						}
					],
					"name": "makeBooking",
					"outputs": [],
					"stateMutability": "nonpayable",
					"type": "function"
				},
				{
					"inputs": [],
					"name": "name",
					"outputs": [
						{
							"internalType": "string",
							"name": "",
							"type": "string"
						}
					],
					"stateMutability": "view",
					"type": "function"
				},
				{
					"inputs": [
						{
							"internalType": "bytes32",
							"name": "",
							"type": "bytes32"
						}
					],
					"name": "properties",
					"outputs": [
						{
							"internalType": "string",
							"name": "name",
							"type": "string"
						},
						{
							"internalType": "string",
							"name": "description",
							"type": "string"
						},
						{
							"internalType": "string",
							"name": "addressP",
							"type": "string"
						},
						{
							"internalType": "uint256",
							"name": "pricePerNight",
							"type": "uint256"
						},
						{
							"internalType": "address",
							"name": "owner",
							"type": "address"
						},
						{
							"internalType": "bool",
							"name": "refundRequested",
							"type": "bool"
						}
					],
					"stateMutability": "view",
					"type": "function"
				},
				{
					"inputs": [
						{
							"internalType": "address",
							"name": "user",
							"type": "address"
						},
						{
							"internalType": "uint256",
							"name": "rating",
							"type": "uint256"
						}
					],
					"name": "rateUser",
					"outputs": [],
					"stateMutability": "nonpayable",
					"type": "function"
				},
				{
					"inputs": [
						{
							"internalType": "bytes32",
							"name": "propertyId",
							"type": "bytes32"
						}
					],
					"name": "requestRefund",
					"outputs": [],
					"stateMutability": "nonpayable",
					"type": "function"
				},
				{
					"inputs": [
						{
							"internalType": "uint256",
							"name": "disputeId",
							"type": "uint256"
						},
						{
							"internalType": "uint256",
							"name": "resolution",
							"type": "uint256"
						}
					],
					"name": "resolveDispute",
					"outputs": [],
					"stateMutability": "nonpayable",
					"type": "function"
				},
				{
					"inputs": [
						{
							"internalType": "bytes32",
							"name": "propertyId",
							"type": "bytes32"
						},
						{
							"internalType": "uint256",
							"name": "rating",
							"type": "uint256"
						},
						{
							"internalType": "string",
							"name": "review",
							"type": "string"
						}
					],
					"name": "reviewStay",
					"outputs": [],
					"stateMutability": "nonpayable",
					"type": "function"
				},
				{
					"inputs": [
						{
							"internalType": "bytes32",
							"name": "",
							"type": "bytes32"
						},
						{
							"internalType": "uint256",
							"name": "",
							"type": "uint256"
						}
					],
					"name": "reviews",
					"outputs": [
						{
							"internalType": "uint256",
							"name": "rating",
							"type": "uint256"
						},
						{
							"internalType": "string",
							"name": "review",
							"type": "string"
						},
						{
							"internalType": "address",
							"name": "renter",
							"type": "address"
						}
					],
					"stateMutability": "view",
					"type": "function"
				},
				{
					"inputs": [],
					"name": "symbol",
					"outputs": [
						{
							"internalType": "string",
							"name": "",
							"type": "string"
						}
					],
					"stateMutability": "view",
					"type": "function"
				},
				{
					"inputs": [],
					"name": "totalSupply",
					"outputs": [
						{
							"internalType": "uint256",
							"name": "",
							"type": "uint256"
						}
					],
					"stateMutability": "view",
					"type": "function"
				},
				{
					"inputs": [
						{
							"internalType": "address",
							"name": "to",
							"type": "address"
						},
						{
							"internalType": "uint256",
							"name": "value",
							"type": "uint256"
						}
					],
					"name": "transfer",
					"outputs": [],
					"stateMutability": "nonpayable",
					"type": "function"
				},
				{
					"inputs": [
						{
							"internalType": "address",
							"name": "from",
							"type": "address"
						},
						{
							"internalType": "address",
							"name": "to",
							"type": "address"
						},
						{
							"internalType": "uint256",
							"name": "value",
							"type": "uint256"
						}
					],
					"name": "transferFrom",
					"outputs": [],
					"stateMutability": "nonpayable",
					"type": "function"
				},
				{
					"inputs": [
						{
							"internalType": "address",
							"name": "",
							"type": "address"
						}
					],
					"name": "users",
					"outputs": [
						{
							"internalType": "uint256",
							"name": "reputationScore",
							"type": "uint256"
						},
						{
							"internalType": "uint256",
							"name": "numberOfRatings",
							"type": "uint256"
						}
					],
					"stateMutability": "view",
					"type": "function"
				}
			],
			"devdoc": {
				"kind": "dev",
				"methods": {},
				"version": 1
			},
			"evm": {
				"assembly": "    /* \"contracts/1_Storage.sol\":62:6490  contract AirbnbLike {... */\n  mstore(0x40, 0x80)\n    /* \"contracts/1_Storage.sol\":251:256  10000 */\n  0x2710\n    /* \"contracts/1_Storage.sol\":222:256  uint256 public totalSupply = 10000 */\n  0x00\n  sstore\n    /* \"contracts/1_Storage.sol\":62:6490  contract AirbnbLike {... */\n  callvalue\n  dup1\n  iszero\n  tag_1\n  jumpi\n  0x00\n  dup1\n  revert\ntag_1:\n  pop\n  dataSize(sub_0)\n  dup1\n  dataOffset(sub_0)\n  0x00\n  codecopy\n  0x00\n  return\nstop\n\nsub_0: assembly {\n        /* \"contracts/1_Storage.sol\":62:6490  contract AirbnbLike {... */\n      mstore(0x40, 0x80)\n      callvalue\n      dup1\n      iszero\n      tag_1\n      jumpi\n      0x00\n      dup1\n      revert\n    tag_1:\n      pop\n      jumpi(tag_2, lt(calldatasize, 0x04))\n      shr(0xe0, calldataload(0x00))\n      dup1\n      0x6c7f7fd2\n      gt\n      tag_23\n      jumpi\n      dup1\n      0x95d89b41\n      gt\n      tag_24\n      jumpi\n      dup1\n      0x95d89b41\n      eq\n      tag_18\n      jumpi\n      dup1\n      0xa87430ba\n      eq\n      tag_19\n      jumpi\n      dup1\n      0xa9059cbb\n      eq\n      tag_20\n      jumpi\n      dup1\n      0xbd156273\n      eq\n      tag_21\n      jumpi\n      dup1\n      0xbdc84ac3\n      eq\n      tag_22\n      jumpi\n      jump(tag_2)\n    tag_24:\n      dup1\n      0x6c7f7fd2\n      eq\n      tag_13\n      jumpi\n      dup1\n      0x701cb491\n      eq\n      tag_14\n      jumpi\n      dup1\n      0x70a08231\n      eq\n      tag_15\n      jumpi\n      dup1\n      0x775274a1\n      eq\n      tag_16\n      jumpi\n      dup1\n      0x8a75ee21\n      eq\n      tag_17\n      jumpi\n      jump(tag_2)\n    tag_23:\n      dup1\n      0x366c6ea4\n      gt\n      tag_25\n      jumpi\n      dup1\n      0x366c6ea4\n      eq\n      tag_8\n      jumpi\n      dup1\n      0x37074199\n      eq\n      tag_9\n      jumpi\n      dup1\n      0x3d4effc4\n      eq\n      tag_10\n      jumpi\n      dup1\n      0x564a565d\n      eq\n      tag_11\n      jumpi\n      dup1\n      0x5c658165\n      eq\n      tag_12\n      jumpi\n      jump(tag_2)\n    tag_25:\n      dup1\n      0x06fdde03\n      eq\n      tag_3\n      jumpi\n      dup1\n      0x095ea7b3\n      eq\n      tag_4\n      jumpi\n      dup1\n      0x18160ddd\n      eq\n      tag_5\n      jumpi\n      dup1\n      0x23b872dd\n      eq\n      tag_6\n      jumpi\n      dup1\n      0x313ce567\n      eq\n      tag_7\n      jumpi\n    tag_2:\n      0x00\n      dup1\n      revert\n        /* \"contracts/1_Storage.sol\":89:130  string public constant name = \"DNG Token\" */\n    tag_3:\n      tag_26\n      tag_27\n      jump\t// in\n    tag_26:\n      mload(0x40)\n      tag_28\n      swap2\n      swap1\n      tag_29\n      jump\t// in\n    tag_28:\n      mload(0x40)\n      dup1\n      swap2\n      sub\n      swap1\n      return\n        /* \"contracts/1_Storage.sol\":5638:5816  function approve(address spender, uint256 value) public {... */\n    tag_4:\n      tag_30\n      0x04\n      dup1\n      calldatasize\n      sub\n      dup2\n      add\n      swap1\n      tag_31\n      swap2\n      swap1\n      tag_32\n      jump\t// in\n    tag_31:\n      tag_33\n      jump\t// in\n    tag_30:\n      stop\n        /* \"contracts/1_Storage.sol\":222:256  uint256 public totalSupply = 10000 */\n    tag_5:\n      tag_34\n      tag_35\n      jump\t// in\n    tag_34:\n      mload(0x40)\n      tag_36\n      swap2\n      swap1\n      tag_37\n      jump\t// in\n    tag_36:\n      mload(0x40)\n      dup1\n      swap2\n      sub\n      swap1\n      return\n        /* \"contracts/1_Storage.sol\":5826:6161  function transferFrom(address from, address to, uint256 value) public {... */\n    tag_6:\n      tag_38\n      0x04\n      dup1\n      calldatasize\n      sub\n      dup2\n      add\n      swap1\n      tag_39\n      swap2\n      swap1\n      tag_40\n      jump\t// in\n    tag_39:\n      tag_41\n      jump\t// in\n    tag_38:\n      stop\n        /* \"contracts/1_Storage.sol\":179:216  uint256 public constant decimals = 18 */\n    tag_7:\n      tag_42\n      tag_43\n      jump\t// in\n    tag_42:\n      mload(0x40)\n      tag_44\n      swap2\n      swap1\n      tag_37\n      jump\t// in\n    tag_44:\n      mload(0x40)\n      dup1\n      swap2\n      sub\n      swap1\n      return\n        /* \"contracts/1_Storage.sol\":1453:1496  mapping(bytes32 => Review[]) public reviews */\n    tag_8:\n      tag_45\n      0x04\n      dup1\n      calldatasize\n      sub\n      dup2\n      add\n      swap1\n      tag_46\n      swap2\n      swap1\n      tag_47\n      jump\t// in\n    tag_46:\n      tag_48\n      jump\t// in\n    tag_45:\n      mload(0x40)\n      tag_49\n      swap4\n      swap3\n      swap2\n      swap1\n      tag_50\n      jump\t// in\n    tag_49:\n      mload(0x40)\n      dup1\n      swap2\n      sub\n      swap1\n      return\n        /* \"contracts/1_Storage.sol\":1536:1582  mapping (bytes32 => Booking[]) public bookings */\n    tag_9:\n      tag_51\n      0x04\n      dup1\n      calldatasize\n      sub\n      dup2\n      add\n      swap1\n      tag_52\n      swap2\n      swap1\n      tag_47\n      jump\t// in\n    tag_52:\n      tag_53\n      jump\t// in\n    tag_51:\n      mload(0x40)\n      tag_54\n      swap5\n      swap4\n      swap3\n      swap2\n      swap1\n      tag_55\n      jump\t// in\n    tag_54:\n      mload(0x40)\n      dup1\n      swap2\n      sub\n      swap1\n      return\n        /* \"contracts/1_Storage.sol\":3275:3550  function rateUser(address user, uint256 rating) public {... */\n    tag_10:\n      tag_56\n      0x04\n      dup1\n      calldatasize\n      sub\n      dup2\n      add\n      swap1\n      tag_57\n      swap2\n      swap1\n      tag_32\n      jump\t// in\n    tag_57:\n      tag_58\n      jump\t// in\n    tag_56:\n      stop\n        /* \"contracts/1_Storage.sol\":1721:1765  mapping (uint256 => Dispute) public disputes */\n    tag_11:\n      tag_59\n      0x04\n      dup1\n      calldatasize\n      sub\n      dup2\n      add\n      swap1\n      tag_60\n      swap2\n      swap1\n      tag_61\n      jump\t// in\n    tag_60:\n      tag_62\n      jump\t// in\n    tag_59:\n      mload(0x40)\n      tag_63\n      swap5\n      swap4\n      swap3\n      swap2\n      swap1\n      tag_64\n      jump\t// in\n    tag_63:\n      mload(0x40)\n      dup1\n      swap2\n      sub\n      swap1\n      return\n        /* \"contracts/1_Storage.sol\":1262:1326  mapping (address => mapping (address => uint256)) public allowed */\n    tag_12:\n      tag_65\n      0x04\n      dup1\n      calldatasize\n      sub\n      dup2\n      add\n      swap1\n      tag_66\n      swap2\n      swap1\n      tag_67\n      jump\t// in\n    tag_66:\n      tag_68\n      jump\t// in\n    tag_65:\n      mload(0x40)\n      tag_69\n      swap2\n      swap1\n      tag_37\n      jump\t// in\n    tag_69:\n      mload(0x40)\n      dup1\n      swap2\n      sub\n      swap1\n      return\n        /* \"contracts/1_Storage.sol\":2768:3269  function addProperty(... */\n    tag_13:\n      tag_70\n      0x04\n      dup1\n      calldatasize\n      sub\n      dup2\n      add\n      swap1\n      tag_71\n      swap2\n      swap1\n      tag_72\n      jump\t// in\n    tag_71:\n      tag_73\n      jump\t// in\n    tag_70:\n      stop\n        /* \"contracts/1_Storage.sol\":4182:4516  function makeBooking(bytes32 propertyId, uint256 startDate, uint256 endDate, uint256 amount) public {... */\n    tag_14:\n      tag_74\n      0x04\n      dup1\n      calldatasize\n      sub\n      dup2\n      add\n      swap1\n      tag_75\n      swap2\n      swap1\n      tag_76\n      jump\t// in\n    tag_75:\n      tag_77\n      jump\t// in\n    tag_74:\n      stop\n        /* \"contracts/1_Storage.sol\":1637:1681  mapping(address => uint256) public balanceOf */\n    tag_15:\n      tag_78\n      0x04\n      dup1\n      calldatasize\n      sub\n      dup2\n      add\n      swap1\n      tag_79\n      swap2\n      swap1\n      tag_80\n      jump\t// in\n    tag_79:\n      tag_81\n      jump\t// in\n    tag_78:\n      mload(0x40)\n      tag_82\n      swap2\n      swap1\n      tag_37\n      jump\t// in\n    tag_82:\n      mload(0x40)\n      dup1\n      swap2\n      sub\n      swap1\n      return\n        /* \"contracts/1_Storage.sol\":4915:5376  function requestRefund(bytes32 propertyId) public {... */\n    tag_16:\n      tag_83\n      0x04\n      dup1\n      calldatasize\n      sub\n      dup2\n      add\n      swap1\n      tag_84\n      swap2\n      swap1\n      tag_85\n      jump\t// in\n    tag_84:\n      tag_86\n      jump\t// in\n    tag_83:\n      stop\n        /* \"contracts/1_Storage.sol\":4526:4900  function reviewStay(bytes32 propertyId, uint256 rating, string memory review) public {... */\n    tag_17:\n      tag_87\n      0x04\n      dup1\n      calldatasize\n      sub\n      dup2\n      add\n      swap1\n      tag_88\n      swap2\n      swap1\n      tag_89\n      jump\t// in\n    tag_88:\n      tag_90\n      jump\t// in\n    tag_87:\n      stop\n        /* \"contracts/1_Storage.sol\":136:173  string public constant symbol = \"DNG\" */\n    tag_18:\n      tag_91\n      tag_92\n      jump\t// in\n    tag_91:\n      mload(0x40)\n      tag_93\n      swap2\n      swap1\n      tag_29\n      jump\t// in\n    tag_93:\n      mload(0x40)\n      dup1\n      swap2\n      sub\n      swap1\n      return\n        /* \"contracts/1_Storage.sol\":1802:1840  mapping (address => User) public users */\n    tag_19:\n      tag_94\n      0x04\n      dup1\n      calldatasize\n      sub\n      dup2\n      add\n      swap1\n      tag_95\n      swap2\n      swap1\n      tag_80\n      jump\t// in\n    tag_95:\n      tag_96\n      jump\t// in\n    tag_94:\n      mload(0x40)\n      tag_97\n      swap3\n      swap2\n      swap1\n      tag_98\n      jump\t// in\n    tag_97:\n      mload(0x40)\n      dup1\n      swap2\n      sub\n      swap1\n      return\n        /* \"contracts/1_Storage.sol\":5386:5628  function transfer(address to, uint256 value) public {... */\n    tag_20:\n      tag_99\n      0x04\n      dup1\n      calldatasize\n      sub\n      dup2\n      add\n      swap1\n      tag_100\n      swap2\n      swap1\n      tag_32\n      jump\t// in\n    tag_100:\n      tag_101\n      jump\t// in\n    tag_99:\n      stop\n        /* \"contracts/1_Storage.sol\":1368:1414  mapping(bytes32 => Property) public properties */\n    tag_21:\n      tag_102\n      0x04\n      dup1\n      calldatasize\n      sub\n      dup2\n      add\n      swap1\n      tag_103\n      swap2\n      swap1\n      tag_85\n      jump\t// in\n    tag_103:\n      tag_104\n      jump\t// in\n    tag_102:\n      mload(0x40)\n      tag_105\n      swap7\n      swap6\n      swap5\n      swap4\n      swap3\n      swap2\n      swap1\n      tag_106\n      jump\t// in\n    tag_105:\n      mload(0x40)\n      dup1\n      swap2\n      sub\n      swap1\n      return\n        /* \"contracts/1_Storage.sol\":3926:4172  function resolveDispute(uint256 disputeId, uint256 resolution) public {... */\n    tag_22:\n      tag_107\n      0x04\n      dup1\n      calldatasize\n      sub\n      dup2\n      add\n      swap1\n      tag_108\n      swap2\n      swap1\n      tag_109\n      jump\t// in\n    tag_108:\n      tag_110\n      jump\t// in\n    tag_107:\n      stop\n        /* \"contracts/1_Storage.sol\":89:130  string public constant name = \"DNG Token\" */\n    tag_27:\n      mload(0x40)\n      dup1\n      0x40\n      add\n      0x40\n      mstore\n      dup1\n      0x09\n      dup2\n      mstore\n      0x20\n      add\n      0x444e4720546f6b656e0000000000000000000000000000000000000000000000\n      dup2\n      mstore\n      pop\n      dup2\n      jump\t// out\n        /* \"contracts/1_Storage.sol\":5638:5816  function approve(address spender, uint256 value) public {... */\n    tag_33:\n        /* \"contracts/1_Storage.sol\":5737:5742  value */\n      dup1\n        /* \"contracts/1_Storage.sol\":5712:5721  balanceOf */\n      0x05\n        /* \"contracts/1_Storage.sol\":5712:5733  balanceOf[msg.sender] */\n      0x00\n        /* \"contracts/1_Storage.sol\":5722:5732  msg.sender */\n      caller\n        /* \"contracts/1_Storage.sol\":5712:5733  balanceOf[msg.sender] */\n      0xffffffffffffffffffffffffffffffffffffffff\n      and\n      0xffffffffffffffffffffffffffffffffffffffff\n      and\n      dup2\n      mstore\n      0x20\n      add\n      swap1\n      dup2\n      mstore\n      0x20\n      add\n      0x00\n      keccak256\n      sload\n        /* \"contracts/1_Storage.sol\":5712:5742  balanceOf[msg.sender] >= value */\n      lt\n      iszero\n        /* \"contracts/1_Storage.sol\":5704:5763  require(balanceOf[msg.sender] >= value, \"Approval failed.\") */\n      tag_112\n      jumpi\n      mload(0x40)\n      0x08c379a000000000000000000000000000000000000000000000000000000000\n      dup2\n      mstore\n      0x04\n      add\n      tag_113\n      swap1\n      tag_114\n      jump\t// in\n    tag_113:\n      mload(0x40)\n      dup1\n      swap2\n      sub\n      swap1\n      revert\n    tag_112:\n        /* \"contracts/1_Storage.sol\":5804:5809  value */\n      dup1\n        /* \"contracts/1_Storage.sol\":5773:5780  allowed */\n      0x01\n        /* \"contracts/1_Storage.sol\":5773:5792  allowed[msg.sender] */\n      0x00\n        /* \"contracts/1_Storage.sol\":5781:5791  msg.sender */\n      caller\n        /* \"contracts/1_Storage.sol\":5773:5792  allowed[msg.sender] */\n      0xffffffffffffffffffffffffffffffffffffffff\n      and\n      0xffffffffffffffffffffffffffffffffffffffff\n      and\n      dup2\n      mstore\n      0x20\n      add\n      swap1\n      dup2\n      mstore\n      0x20\n      add\n      0x00\n      keccak256\n        /* \"contracts/1_Storage.sol\":5773:5801  allowed[msg.sender][spender] */\n      0x00\n        /* \"contracts/1_Storage.sol\":5793:5800  spender */\n      dup5\n        /* \"contracts/1_Storage.sol\":5773:5801  allowed[msg.sender][spender] */\n      0xffffffffffffffffffffffffffffffffffffffff\n      and\n      0xffffffffffffffffffffffffffffffffffffffff\n      and\n      dup2\n      mstore\n      0x20\n      add\n      swap1\n      dup2\n      mstore\n      0x20\n      add\n      0x00\n      keccak256\n        /* \"contracts/1_Storage.sol\":5773:5809  allowed[msg.sender][spender] = value */\n      dup2\n      swap1\n      sstore\n      pop\n        /* \"contracts/1_Storage.sol\":5638:5816  function approve(address spender, uint256 value) public {... */\n      pop\n      pop\n      jump\t// out\n        /* \"contracts/1_Storage.sol\":222:256  uint256 public totalSupply = 10000 */\n    tag_35:\n      sload(0x00)\n      dup2\n      jump\t// out\n        /* \"contracts/1_Storage.sol\":5826:6161  function transferFrom(address from, address to, uint256 value) public {... */\n    tag_41:\n        /* \"contracts/1_Storage.sol\":5933:5938  value */\n      dup1\n        /* \"contracts/1_Storage.sol\":5914:5923  balanceOf */\n      0x05\n        /* \"contracts/1_Storage.sol\":5914:5929  balanceOf[from] */\n      0x00\n        /* \"contracts/1_Storage.sol\":5924:5928  from */\n      dup6\n        /* \"contracts/1_Storage.sol\":5914:5929  balanceOf[from] */\n      0xffffffffffffffffffffffffffffffffffffffff\n      and\n      0xffffffffffffffffffffffffffffffffffffffff\n      and\n      dup2\n      mstore\n      0x20\n      add\n      swap1\n      dup2\n      mstore\n      0x20\n      add\n      0x00\n      keccak256\n      sload\n        /* \"contracts/1_Storage.sol\":5914:5938  balanceOf[from] >= value */\n      lt\n      iszero\n        /* \"contracts/1_Storage.sol\":5914:5976  balanceOf[from] >= value && allowed[from][msg.sender] >= value */\n      dup1\n      iszero\n      tag_116\n      jumpi\n      pop\n        /* \"contracts/1_Storage.sol\":5971:5976  value */\n      dup1\n        /* \"contracts/1_Storage.sol\":5942:5949  allowed */\n      0x01\n        /* \"contracts/1_Storage.sol\":5942:5955  allowed[from] */\n      0x00\n        /* \"contracts/1_Storage.sol\":5950:5954  from */\n      dup6\n        /* \"contracts/1_Storage.sol\":5942:5955  allowed[from] */\n      0xffffffffffffffffffffffffffffffffffffffff\n      and\n      0xffffffffffffffffffffffffffffffffffffffff\n      and\n      dup2\n      mstore\n      0x20\n      add\n      swap1\n      dup2\n      mstore\n      0x20\n      add\n      0x00\n      keccak256\n        /* \"contracts/1_Storage.sol\":5942:5967  allowed[from][msg.sender] */\n      0x00\n        /* \"contracts/1_Storage.sol\":5956:5966  msg.sender */\n      caller\n        /* \"contracts/1_Storage.sol\":5942:5967  allowed[from][msg.sender] */\n      0xffffffffffffffffffffffffffffffffffffffff\n      and\n      0xffffffffffffffffffffffffffffffffffffffff\n      and\n      dup2\n      mstore\n      0x20\n      add\n      swap1\n      dup2\n      mstore\n      0x20\n      add\n      0x00\n      keccak256\n      sload\n        /* \"contracts/1_Storage.sol\":5942:5976  allowed[from][msg.sender] >= value */\n      lt\n      iszero\n        /* \"contracts/1_Storage.sol\":5914:5976  balanceOf[from] >= value && allowed[from][msg.sender] >= value */\n    tag_116:\n        /* \"contracts/1_Storage.sol\":5914:6018  balanceOf[from] >= value && allowed[from][msg.sender] >= value && balanceOf[to] + value >= balanceOf[to] */\n      dup1\n      iszero\n      tag_117\n      jumpi\n      pop\n        /* \"contracts/1_Storage.sol\":6005:6014  balanceOf */\n      0x05\n        /* \"contracts/1_Storage.sol\":6005:6018  balanceOf[to] */\n      0x00\n        /* \"contracts/1_Storage.sol\":6015:6017  to */\n      dup4\n        /* \"contracts/1_Storage.sol\":6005:6018  balanceOf[to] */\n      0xffffffffffffffffffffffffffffffffffffffff\n      and\n      0xffffffffffffffffffffffffffffffffffffffff\n      and\n      dup2\n      mstore\n      0x20\n      add\n      swap1\n      dup2\n      mstore\n      0x20\n      add\n      0x00\n      keccak256\n      sload\n        /* \"contracts/1_Storage.sol\":5996:6001  value */\n      dup2\n        /* \"contracts/1_Storage.sol\":5980:5989  balanceOf */\n      0x05\n        /* \"contracts/1_Storage.sol\":5980:5993  balanceOf[to] */\n      0x00\n        /* \"contracts/1_Storage.sol\":5990:5992  to */\n      dup6\n        /* \"contracts/1_Storage.sol\":5980:5993  balanceOf[to] */\n      0xffffffffffffffffffffffffffffffffffffffff\n      and\n      0xffffffffffffffffffffffffffffffffffffffff\n      and\n      dup2\n      mstore\n      0x20\n      add\n      swap1\n      dup2\n      mstore\n      0x20\n      add\n      0x00\n      keccak256\n      sload\n        /* \"contracts/1_Storage.sol\":5980:6001  balanceOf[to] + value */\n      tag_118\n      swap2\n      swap1\n      tag_119\n      jump\t// in\n    tag_118:\n        /* \"contracts/1_Storage.sol\":5980:6018  balanceOf[to] + value >= balanceOf[to] */\n      lt\n      iszero\n        /* \"contracts/1_Storage.sol\":5914:6018  balanceOf[from] >= value && allowed[from][msg.sender] >= value && balanceOf[to] + value >= balanceOf[to] */\n    tag_117:\n        /* \"contracts/1_Storage.sol\":5906:6044  require(balanceOf[from] >= value && allowed[from][msg.sender] >= value && balanceOf[to] + value >= balanceOf[to], \"Transfer from failed.\") */\n      tag_120\n      jumpi\n      mload(0x40)\n      0x08c379a000000000000000000000000000000000000000000000000000000000\n      dup2\n      mstore\n      0x04\n      add\n      tag_121\n      swap1\n      tag_122\n      jump\t// in\n    tag_121:\n      mload(0x40)\n      dup1\n      swap2\n      sub\n      swap1\n      revert\n    tag_120:\n        /* \"contracts/1_Storage.sol\":6073:6078  value */\n      dup1\n        /* \"contracts/1_Storage.sol\":6054:6063  balanceOf */\n      0x05\n        /* \"contracts/1_Storage.sol\":6054:6069  balanceOf[from] */\n      0x00\n        /* \"contracts/1_Storage.sol\":6064:6068  from */\n      dup6\n        /* \"contracts/1_Storage.sol\":6054:6069  balanceOf[from] */\n      0xffffffffffffffffffffffffffffffffffffffff\n      and\n      0xffffffffffffffffffffffffffffffffffffffff\n      and\n      dup2\n      mstore\n      0x20\n      add\n      swap1\n      dup2\n      mstore\n      0x20\n      add\n      0x00\n      keccak256\n      0x00\n        /* \"contracts/1_Storage.sol\":6054:6078  balanceOf[from] -= value */\n      dup3\n      dup3\n      sload\n      tag_123\n      swap2\n      swap1\n      tag_124\n      jump\t// in\n    tag_123:\n      swap3\n      pop\n      pop\n      dup2\n      swap1\n      sstore\n      pop\n        /* \"contracts/1_Storage.sol\":6117:6122  value */\n      dup1\n        /* \"contracts/1_Storage.sol\":6088:6095  allowed */\n      0x01\n        /* \"contracts/1_Storage.sol\":6088:6101  allowed[from] */\n      0x00\n        /* \"contracts/1_Storage.sol\":6096:6100  from */\n      dup6\n        /* \"contracts/1_Storage.sol\":6088:6101  allowed[from] */\n      0xffffffffffffffffffffffffffffffffffffffff\n      and\n      0xffffffffffffffffffffffffffffffffffffffff\n      and\n      dup2\n      mstore\n      0x20\n      add\n      swap1\n      dup2\n      mstore\n      0x20\n      add\n      0x00\n      keccak256\n        /* \"contracts/1_Storage.sol\":6088:6113  allowed[from][msg.sender] */\n      0x00\n        /* \"contracts/1_Storage.sol\":6102:6112  msg.sender */\n      caller\n        /* \"contracts/1_Storage.sol\":6088:6113  allowed[from][msg.sender] */\n      0xffffffffffffffffffffffffffffffffffffffff\n      and\n      0xffffffffffffffffffffffffffffffffffffffff\n      and\n      dup2\n      mstore\n      0x20\n      add\n      swap1\n      dup2\n      mstore\n      0x20\n      add\n      0x00\n      keccak256\n      0x00\n        /* \"contracts/1_Storage.sol\":6088:6122  allowed[from][msg.sender] -= value */\n      dup3\n      dup3\n      sload\n      tag_125\n      swap2\n      swap1\n      tag_124\n      jump\t// in\n    tag_125:\n      swap3\n      pop\n      pop\n      dup2\n      swap1\n      sstore\n      pop\n        /* \"contracts/1_Storage.sol\":6149:6154  value */\n      dup1\n        /* \"contracts/1_Storage.sol\":6132:6141  balanceOf */\n      0x05\n        /* \"contracts/1_Storage.sol\":6132:6145  balanceOf[to] */\n      0x00\n        /* \"contracts/1_Storage.sol\":6142:6144  to */\n      dup5\n        /* \"contracts/1_Storage.sol\":6132:6145  balanceOf[to] */\n      0xffffffffffffffffffffffffffffffffffffffff\n      and\n      0xffffffffffffffffffffffffffffffffffffffff\n      and\n      dup2\n      mstore\n      0x20\n      add\n      swap1\n      dup2\n      mstore\n      0x20\n      add\n      0x00\n      keccak256\n      0x00\n        /* \"contracts/1_Storage.sol\":6132:6154  balanceOf[to] += value */\n      dup3\n      dup3\n      sload\n      tag_126\n      swap2\n      swap1\n      tag_119\n      jump\t// in\n    tag_126:\n      swap3\n      pop\n      pop\n      dup2\n      swap1\n      sstore\n      pop\n        /* \"contracts/1_Storage.sol\":5826:6161  function transferFrom(address from, address to, uint256 value) public {... */\n      pop\n      pop\n      pop\n      jump\t// out\n        /* \"contracts/1_Storage.sol\":179:216  uint256 public constant decimals = 18 */\n    tag_43:\n        /* \"contracts/1_Storage.sol\":214:216  18 */\n      0x12\n        /* \"contracts/1_Storage.sol\":179:216  uint256 public constant decimals = 18 */\n      dup2\n      jump\t// out\n        /* \"contracts/1_Storage.sol\":1453:1496  mapping(bytes32 => Review[]) public reviews */\n    tag_48:\n      mstore(0x20, 0x03)\n      dup2\n      0x00\n      mstore\n      keccak256(0x00, 0x40)\n      dup2\n      dup2\n      sload\n      dup2\n      lt\n      tag_127\n      jumpi\n      0x00\n      dup1\n      revert\n    tag_127:\n      swap1\n      0x00\n      mstore\n      keccak256(0x00, 0x20)\n      swap1\n      0x03\n      mul\n      add\n      0x00\n      swap2\n      pop\n      swap2\n      pop\n      pop\n      dup1\n      0x00\n      add\n      sload\n      swap1\n      dup1\n      0x01\n      add\n      dup1\n      sload\n      tag_129\n      swap1\n      tag_130\n      jump\t// in\n    tag_129:\n      dup1\n      0x1f\n      add\n      0x20\n      dup1\n      swap2\n      div\n      mul\n      0x20\n      add\n      mload(0x40)\n      swap1\n      dup2\n      add\n      0x40\n      mstore\n      dup1\n      swap3\n      swap2\n      swap1\n      dup2\n      dup2\n      mstore\n      0x20\n      add\n      dup3\n      dup1\n      sload\n      tag_131\n      swap1\n      tag_130\n      jump\t// in\n    tag_131:\n      dup1\n      iszero\n      tag_132\n      jumpi\n      dup1\n      0x1f\n      lt\n      tag_133\n      jumpi\n      0x0100\n      dup1\n      dup4\n      sload\n      div\n      mul\n      dup4\n      mstore\n      swap2\n      0x20\n      add\n      swap2\n      jump(tag_132)\n    tag_133:\n      dup3\n      add\n      swap2\n      swap1\n      0x00\n      mstore\n      keccak256(0x00, 0x20)\n      swap1\n    tag_134:\n      dup2\n      sload\n      dup2\n      mstore\n      swap1\n      0x01\n      add\n      swap1\n      0x20\n      add\n      dup1\n      dup4\n      gt\n      tag_134\n      jumpi\n      dup3\n      swap1\n      sub\n      0x1f\n      and\n      dup3\n      add\n      swap2\n    tag_132:\n      pop\n      pop\n      pop\n      pop\n      pop\n      swap1\n      dup1\n      0x02\n      add\n      0x00\n      swap1\n      sload\n      swap1\n      0x0100\n      exp\n      swap1\n      div\n      0xffffffffffffffffffffffffffffffffffffffff\n      and\n      swap1\n      pop\n      dup4\n      jump\t// out\n        /* \"contracts/1_Storage.sol\":1536:1582  mapping (bytes32 => Booking[]) public bookings */\n    tag_53:\n      mstore(0x20, 0x04)\n      dup2\n      0x00\n      mstore\n      keccak256(0x00, 0x40)\n      dup2\n      dup2\n      sload\n      dup2\n      lt\n      tag_135\n      jumpi\n      0x00\n      dup1\n      revert\n    tag_135:\n      swap1\n      0x00\n      mstore\n      keccak256(0x00, 0x20)\n      swap1\n      0x04\n      mul\n      add\n      0x00\n      swap2\n      pop\n      swap2\n      pop\n      pop\n      dup1\n      0x00\n      add\n      sload\n      swap1\n      dup1\n      0x01\n      add\n      sload\n      swap1\n      dup1\n      0x02\n      add\n      0x00\n      swap1\n      sload\n      swap1\n      0x0100\n      exp\n      swap1\n      div\n      0xffffffffffffffffffffffffffffffffffffffff\n      and\n      swap1\n      dup1\n      0x03\n      add\n      sload\n      swap1\n      pop\n      dup5\n      jump\t// out\n        /* \"contracts/1_Storage.sol\":3275:3550  function rateUser(address user, uint256 rating) public {... */\n    tag_58:\n        /* \"contracts/1_Storage.sol\":3340:3361  User storage userData */\n      0x00\n        /* \"contracts/1_Storage.sol\":3364:3369  users */\n      0x07\n        /* \"contracts/1_Storage.sol\":3364:3375  users[user] */\n      0x00\n        /* \"contracts/1_Storage.sol\":3370:3374  user */\n      dup5\n        /* \"contracts/1_Storage.sol\":3364:3375  users[user] */\n      0xffffffffffffffffffffffffffffffffffffffff\n      and\n      0xffffffffffffffffffffffffffffffffffffffff\n      and\n      dup2\n      mstore\n      0x20\n      add\n      swap1\n      dup2\n      mstore\n      0x20\n      add\n      0x00\n      keccak256\n        /* \"contracts/1_Storage.sol\":3340:3375  User storage userData = users[user] */\n      swap1\n      pop\n        /* \"contracts/1_Storage.sol\":3505:3506  1 */\n      0x01\n        /* \"contracts/1_Storage.sol\":3478:3486  userData */\n      dup2\n        /* \"contracts/1_Storage.sol\":3478:3502  userData.numberOfRatings */\n      0x01\n      add\n      sload\n        /* \"contracts/1_Storage.sol\":3478:3506  userData.numberOfRatings + 1 */\n      tag_138\n      swap2\n      swap1\n      tag_119\n      jump\t// in\n    tag_138:\n        /* \"contracts/1_Storage.sol\":3467:3473  rating */\n      dup3\n        /* \"contracts/1_Storage.sol\":3440:3448  userData */\n      dup3\n        /* \"contracts/1_Storage.sol\":3440:3464  userData.numberOfRatings */\n      0x01\n      add\n      sload\n        /* \"contracts/1_Storage.sol\":3413:3421  userData */\n      dup4\n        /* \"contracts/1_Storage.sol\":3413:3437  userData.reputationScore */\n      0x00\n      add\n      sload\n        /* \"contracts/1_Storage.sol\":3413:3464  userData.reputationScore * userData.numberOfRatings */\n      tag_139\n      swap2\n      swap1\n      tag_140\n      jump\t// in\n    tag_139:\n        /* \"contracts/1_Storage.sol\":3413:3473  userData.reputationScore * userData.numberOfRatings + rating */\n      tag_141\n      swap2\n      swap1\n      tag_119\n      jump\t// in\n    tag_141:\n        /* \"contracts/1_Storage.sol\":3412:3507  (userData.reputationScore * userData.numberOfRatings + rating) / (userData.numberOfRatings + 1) */\n      tag_142\n      swap2\n      swap1\n      tag_143\n      jump\t// in\n    tag_142:\n        /* \"contracts/1_Storage.sol\":3385:3393  userData */\n      dup2\n        /* \"contracts/1_Storage.sol\":3385:3409  userData.reputationScore */\n      0x00\n      add\n        /* \"contracts/1_Storage.sol\":3385:3507  userData.reputationScore = (userData.reputationScore * userData.numberOfRatings + rating) / (userData.numberOfRatings + 1) */\n      dup2\n      swap1\n      sstore\n      pop\n        /* \"contracts/1_Storage.sol\":3517:3525  userData */\n      dup1\n        /* \"contracts/1_Storage.sol\":3517:3541  userData.numberOfRatings */\n      0x01\n      add\n      0x00\n        /* \"contracts/1_Storage.sol\":3517:3543  userData.numberOfRatings++ */\n      dup2\n      sload\n      dup1\n      swap3\n      swap2\n      swap1\n      tag_144\n      swap1\n      tag_145\n      jump\t// in\n    tag_144:\n      swap2\n      swap1\n      pop\n      sstore\n      pop\n        /* \"contracts/1_Storage.sol\":3330:3550  {... */\n      pop\n        /* \"contracts/1_Storage.sol\":3275:3550  function rateUser(address user, uint256 rating) public {... */\n      pop\n      pop\n      jump\t// out\n        /* \"contracts/1_Storage.sol\":1721:1765  mapping (uint256 => Dispute) public disputes */\n    tag_62:\n      mstore(0x20, 0x06)\n      dup1\n      0x00\n      mstore\n      keccak256(0x00, 0x40)\n      0x00\n      swap2\n      pop\n      swap1\n      pop\n      dup1\n      0x00\n      add\n      sload\n      swap1\n      dup1\n      0x01\n      add\n      0x00\n      swap1\n      sload\n      swap1\n      0x0100\n      exp\n      swap1\n      div\n      0xffffffffffffffffffffffffffffffffffffffff\n      and\n      swap1\n      dup1\n      0x02\n      add\n      dup1\n      sload\n      tag_146\n      swap1\n      tag_130\n      jump\t// in\n    tag_146:\n      dup1\n      0x1f\n      add\n      0x20\n      dup1\n      swap2\n      div\n      mul\n      0x20\n      add\n      mload(0x40)\n      swap1\n      dup2\n      add\n      0x40\n      mstore\n      dup1\n      swap3\n      swap2\n      swap1\n      dup2\n      dup2\n      mstore\n      0x20\n      add\n      dup3\n      dup1\n      sload\n      tag_147\n      swap1\n      tag_130\n      jump\t// in\n    tag_147:\n      dup1\n      iszero\n      tag_148\n      jumpi\n      dup1\n      0x1f\n      lt\n      tag_149\n      jumpi\n      0x0100\n      dup1\n      dup4\n      sload\n      div\n      mul\n      dup4\n      mstore\n      swap2\n      0x20\n      add\n      swap2\n      jump(tag_148)\n    tag_149:\n      dup3\n      add\n      swap2\n      swap1\n      0x00\n      mstore\n      keccak256(0x00, 0x20)\n      swap1\n    tag_150:\n      dup2\n      sload\n      dup2\n      mstore\n      swap1\n      0x01\n      add\n      swap1\n      0x20\n      add\n      dup1\n      dup4\n      gt\n      tag_150\n      jumpi\n      dup3\n      swap1\n      sub\n      0x1f\n      and\n      dup3\n      add\n      swap2\n    tag_148:\n      pop\n      pop\n      pop\n      pop\n      pop\n      swap1\n      dup1\n      0x03\n      add\n      sload\n      swap1\n      pop\n      dup5\n      jump\t// out\n        /* \"contracts/1_Storage.sol\":1262:1326  mapping (address => mapping (address => uint256)) public allowed */\n    tag_68:\n      mstore(0x20, 0x01)\n      dup2\n      0x00\n      mstore\n      mstore(0x20, keccak256(0x00, 0x40))\n      dup1\n      0x00\n      mstore\n      keccak256(0x00, 0x40)\n      0x00\n      swap2\n      pop\n      swap2\n      pop\n      pop\n      sload\n      dup2\n      jump\t// out\n        /* \"contracts/1_Storage.sol\":2768:3269  function addProperty(... */\n    tag_73:\n        /* \"contracts/1_Storage.sol\":3061:3262  Property(... */\n      mload(0x40)\n      dup1\n      0x0100\n      add\n      0x40\n      mstore\n      dup1\n        /* \"contracts/1_Storage.sol\":3083:3088  _name */\n      dup8\n        /* \"contracts/1_Storage.sol\":3061:3262  Property(... */\n      dup2\n      mstore\n      0x20\n      add\n        /* \"contracts/1_Storage.sol\":3102:3114  _description */\n      dup7\n        /* \"contracts/1_Storage.sol\":3061:3262  Property(... */\n      dup2\n      mstore\n      0x20\n      add\n        /* \"contracts/1_Storage.sol\":3128:3136  _address */\n      dup6\n        /* \"contracts/1_Storage.sol\":3061:3262  Property(... */\n      dup2\n      mstore\n      0x20\n      add\n        /* \"contracts/1_Storage.sol\":3150:3164  _pricePerNight */\n      dup5\n        /* \"contracts/1_Storage.sol\":3061:3262  Property(... */\n      dup2\n      mstore\n      0x20\n      add\n        /* \"contracts/1_Storage.sol\":3178:3188  msg.sender */\n      caller\n        /* \"contracts/1_Storage.sol\":3061:3262  Property(... */\n      0xffffffffffffffffffffffffffffffffffffffff\n      and\n      dup2\n      mstore\n      0x20\n      add\n        /* \"contracts/1_Storage.sol\":3202:3209  _images */\n      dup4\n        /* \"contracts/1_Storage.sol\":3061:3262  Property(... */\n      dup2\n      mstore\n      0x20\n      add\n        /* \"contracts/1_Storage.sol\":3223:3233  _documents */\n      dup3\n        /* \"contracts/1_Storage.sol\":3061:3262  Property(... */\n      dup2\n      mstore\n      0x20\n      add\n        /* \"contracts/1_Storage.sol\":3247:3252  false */\n      0x00\n        /* \"contracts/1_Storage.sol\":3061:3262  Property(... */\n      iszero\n      iszero\n      dup2\n      mstore\n      pop\n        /* \"contracts/1_Storage.sol\":3012:3022  properties */\n      0x02\n        /* \"contracts/1_Storage.sol\":3012:3058  properties[keccak256(abi.encodePacked(_name))] */\n      0x00\n        /* \"contracts/1_Storage.sol\":3050:3055  _name */\n      dup9\n        /* \"contracts/1_Storage.sol\":3033:3056  abi.encodePacked(_name) */\n      add(0x20, mload(0x40))\n      tag_152\n      swap2\n      swap1\n      tag_153\n      jump\t// in\n    tag_152:\n      mload(0x40)\n      0x20\n      dup2\n      dup4\n      sub\n      sub\n      dup2\n      mstore\n      swap1\n      0x40\n      mstore\n        /* \"contracts/1_Storage.sol\":3023:3057  keccak256(abi.encodePacked(_name)) */\n      dup1\n      mload\n      swap1\n      0x20\n      add\n      keccak256\n        /* \"contracts/1_Storage.sol\":3012:3058  properties[keccak256(abi.encodePacked(_name))] */\n      dup2\n      mstore\n      0x20\n      add\n      swap1\n      dup2\n      mstore\n      0x20\n      add\n      0x00\n      keccak256\n        /* \"contracts/1_Storage.sol\":3012:3262  properties[keccak256(abi.encodePacked(_name))] = Property(... */\n      0x00\n      dup3\n      add\n      mload\n      dup2\n      0x00\n      add\n      swap1\n      dup1\n      mload\n      swap1\n      0x20\n      add\n      swap1\n      tag_154\n      swap3\n      swap2\n      swap1\n      tag_155\n      jump\t// in\n    tag_154:\n      pop\n      0x20\n      dup3\n      add\n      mload\n      dup2\n      0x01\n      add\n      swap1\n      dup1\n      mload\n      swap1\n      0x20\n      add\n      swap1\n      tag_156\n      swap3\n      swap2\n      swap1\n      tag_155\n      jump\t// in\n    tag_156:\n      pop\n      0x40\n      dup3\n      add\n      mload\n      dup2\n      0x02\n      add\n      swap1\n      dup1\n      mload\n      swap1\n      0x20\n      add\n      swap1\n      tag_157\n      swap3\n      swap2\n      swap1\n      tag_155\n      jump\t// in\n    tag_157:\n      pop\n      0x60\n      dup3\n      add\n      mload\n      dup2\n      0x03\n      add\n      sstore\n      0x80\n      dup3\n      add\n      mload\n      dup2\n      0x04\n      add\n      exp(0x0100, 0x00)\n      dup2\n      sload\n      dup2\n      0xffffffffffffffffffffffffffffffffffffffff\n      mul\n      not\n      and\n      swap1\n      dup4\n      0xffffffffffffffffffffffffffffffffffffffff\n      and\n      mul\n      or\n      swap1\n      sstore\n      pop\n      0xa0\n      dup3\n      add\n      mload\n      dup2\n      0x05\n      add\n      swap1\n      dup1\n      mload\n      swap1\n      0x20\n      add\n      swap1\n      tag_158\n      swap3\n      swap2\n      swap1\n      tag_159\n      jump\t// in\n    tag_158:\n      pop\n      0xc0\n      dup3\n      add\n      mload\n      dup2\n      0x06\n      add\n      swap1\n      dup1\n      mload\n      swap1\n      0x20\n      add\n      swap1\n      tag_160\n      swap3\n      swap2\n      swap1\n      tag_159\n      jump\t// in\n    tag_160:\n      pop\n      0xe0\n      dup3\n      add\n      mload\n      dup2\n      0x07\n      add\n      exp(0x0100, 0x00)\n      dup2\n      sload\n      dup2\n      0xff\n      mul\n      not\n      and\n      swap1\n      dup4\n      iszero\n      iszero\n      mul\n      or\n      swap1\n      sstore\n      pop\n      swap1\n      pop\n      pop\n        /* \"contracts/1_Storage.sol\":2768:3269  function addProperty(... */\n      pop\n      pop\n      pop\n      pop\n      pop\n      pop\n      jump\t// out\n        /* \"contracts/1_Storage.sol\":4182:4516  function makeBooking(bytes32 propertyId, uint256 startDate, uint256 endDate, uint256 amount) public {... */\n    tag_77:\n        /* \"contracts/1_Storage.sol\":4292:4317  Property storage property */\n      0x00\n        /* \"contracts/1_Storage.sol\":4320:4330  properties */\n      0x02\n        /* \"contracts/1_Storage.sol\":4320:4342  properties[propertyId] */\n      0x00\n        /* \"contracts/1_Storage.sol\":4331:4341  propertyId */\n      dup7\n        /* \"contracts/1_Storage.sol\":4320:4342  properties[propertyId] */\n      dup2\n      mstore\n      0x20\n      add\n      swap1\n      dup2\n      mstore\n      0x20\n      add\n      0x00\n      keccak256\n        /* \"contracts/1_Storage.sol\":4292:4342  Property storage property = properties[propertyId] */\n      swap1\n      pop\n        /* \"contracts/1_Storage.sol\":4386:4387  0 */\n      0x00\n        /* \"contracts/1_Storage.sol\":4360:4388  property.owner != address(0) */\n      0xffffffffffffffffffffffffffffffffffffffff\n      and\n        /* \"contracts/1_Storage.sol\":4360:4368  property */\n      dup2\n        /* \"contracts/1_Storage.sol\":4360:4374  property.owner */\n      0x04\n      add\n      0x00\n      swap1\n      sload\n      swap1\n      0x0100\n      exp\n      swap1\n      div\n      0xffffffffffffffffffffffffffffffffffffffff\n      and\n        /* \"contracts/1_Storage.sol\":4360:4388  property.owner != address(0) */\n      0xffffffffffffffffffffffffffffffffffffffff\n      and\n      eq\n      iszero\n        /* \"contracts/1_Storage.sol\":4352:4416  require(property.owner != address(0), \"Property does not exist\") */\n      tag_162\n      jumpi\n      mload(0x40)\n      0x08c379a000000000000000000000000000000000000000000000000000000000\n      dup2\n      mstore\n      0x04\n      add\n      tag_163\n      swap1\n      tag_164\n      jump\t// in\n    tag_163:\n      mload(0x40)\n      dup1\n      swap2\n      sub\n      swap1\n      revert\n    tag_162:\n        /* \"contracts/1_Storage.sol\":4435:4443  bookings */\n      0x04\n        /* \"contracts/1_Storage.sol\":4435:4455  bookings[propertyId] */\n      0x00\n        /* \"contracts/1_Storage.sol\":4444:4454  propertyId */\n      dup7\n        /* \"contracts/1_Storage.sol\":4435:4455  bookings[propertyId] */\n      dup2\n      mstore\n      0x20\n      add\n      swap1\n      dup2\n      mstore\n      0x20\n      add\n      0x00\n      keccak256\n        /* \"contracts/1_Storage.sol\":4461:4508  Booking(startDate, endDate, msg.sender, amount) */\n      mload(0x40)\n      dup1\n      0x80\n      add\n      0x40\n      mstore\n      dup1\n        /* \"contracts/1_Storage.sol\":4469:4478  startDate */\n      dup7\n        /* \"contracts/1_Storage.sol\":4461:4508  Booking(startDate, endDate, msg.sender, amount) */\n      dup2\n      mstore\n      0x20\n      add\n        /* \"contracts/1_Storage.sol\":4480:4487  endDate */\n      dup6\n        /* \"contracts/1_Storage.sol\":4461:4508  Booking(startDate, endDate, msg.sender, amount) */\n      dup2\n      mstore\n      0x20\n      add\n        /* \"contracts/1_Storage.sol\":4489:4499  msg.sender */\n      caller\n        /* \"contracts/1_Storage.sol\":4461:4508  Booking(startDate, endDate, msg.sender, amount) */\n      0xffffffffffffffffffffffffffffffffffffffff\n      and\n      dup2\n      mstore\n      0x20\n      add\n        /* \"contracts/1_Storage.sol\":4501:4507  amount */\n      dup5\n        /* \"contracts/1_Storage.sol\":4461:4508  Booking(startDate, endDate, msg.sender, amount) */\n      dup2\n      mstore\n      pop\n        /* \"contracts/1_Storage.sol\":4435:4509  bookings[propertyId].push(Booking(startDate, endDate, msg.sender, amount)) */\n      swap1\n      dup1\n      0x01\n      dup2\n      sload\n      add\n      dup1\n      dup3\n      sstore\n      dup1\n      swap2\n      pop\n      pop\n      0x01\n      swap1\n      sub\n      swap1\n      0x00\n      mstore\n      keccak256(0x00, 0x20)\n      swap1\n      0x04\n      mul\n      add\n      0x00\n      swap1\n      swap2\n      swap1\n      swap2\n      swap1\n      swap2\n      pop\n      0x00\n      dup3\n      add\n      mload\n      dup2\n      0x00\n      add\n      sstore\n      0x20\n      dup3\n      add\n      mload\n      dup2\n      0x01\n      add\n      sstore\n      0x40\n      dup3\n      add\n      mload\n      dup2\n      0x02\n      add\n      exp(0x0100, 0x00)\n      dup2\n      sload\n      dup2\n      0xffffffffffffffffffffffffffffffffffffffff\n      mul\n      not\n      and\n      swap1\n      dup4\n      0xffffffffffffffffffffffffffffffffffffffff\n      and\n      mul\n      or\n      swap1\n      sstore\n      pop\n      0x60\n      dup3\n      add\n      mload\n      dup2\n      0x03\n      add\n      sstore\n      pop\n      pop\n        /* \"contracts/1_Storage.sol\":4282:4516  {... */\n      pop\n        /* \"contracts/1_Storage.sol\":4182:4516  function makeBooking(bytes32 propertyId, uint256 startDate, uint256 endDate, uint256 amount) public {... */\n      pop\n      pop\n      pop\n      pop\n      jump\t// out\n        /* \"contracts/1_Storage.sol\":1637:1681  mapping(address => uint256) public balanceOf */\n    tag_81:\n      mstore(0x20, 0x05)\n      dup1\n      0x00\n      mstore\n      keccak256(0x00, 0x40)\n      0x00\n      swap2\n      pop\n      swap1\n      pop\n      sload\n      dup2\n      jump\t// out\n        /* \"contracts/1_Storage.sol\":4915:5376  function requestRefund(bytes32 propertyId) public {... */\n    tag_86:\n        /* \"contracts/1_Storage.sol\":5018:5043  Property storage property */\n      0x00\n        /* \"contracts/1_Storage.sol\":5046:5056  properties */\n      0x02\n        /* \"contracts/1_Storage.sol\":5046:5068  properties[propertyId] */\n      0x00\n        /* \"contracts/1_Storage.sol\":5057:5067  propertyId */\n      dup4\n        /* \"contracts/1_Storage.sol\":5046:5068  properties[propertyId] */\n      dup2\n      mstore\n      0x20\n      add\n      swap1\n      dup2\n      mstore\n      0x20\n      add\n      0x00\n      keccak256\n        /* \"contracts/1_Storage.sol\":5018:5068  Property storage property = properties[propertyId] */\n      swap1\n      pop\n        /* \"contracts/1_Storage.sol\":5112:5113  0 */\n      0x00\n        /* \"contracts/1_Storage.sol\":5086:5114  property.owner != address(0) */\n      0xffffffffffffffffffffffffffffffffffffffff\n      and\n        /* \"contracts/1_Storage.sol\":5086:5094  property */\n      dup2\n        /* \"contracts/1_Storage.sol\":5086:5100  property.owner */\n      0x04\n      add\n      0x00\n      swap1\n      sload\n      swap1\n      0x0100\n      exp\n      swap1\n      div\n      0xffffffffffffffffffffffffffffffffffffffff\n      and\n        /* \"contracts/1_Storage.sol\":5086:5114  property.owner != address(0) */\n      0xffffffffffffffffffffffffffffffffffffffff\n      and\n      eq\n      iszero\n        /* \"contracts/1_Storage.sol\":5078:5142  require(property.owner != address(0), \"Property does not exist\") */\n      tag_167\n      jumpi\n      mload(0x40)\n      0x08c379a000000000000000000000000000000000000000000000000000000000\n      dup2\n      mstore\n      0x04\n      add\n      tag_168\n      swap1\n      tag_164\n      jump\t// in\n    tag_168:\n      mload(0x40)\n      dup1\n      swap2\n      sub\n      swap1\n      revert\n    tag_167:\n        /* \"contracts/1_Storage.sol\":5227:5235  property */\n      dup1\n        /* \"contracts/1_Storage.sol\":5227:5251  property.refundRequested */\n      0x07\n      add\n      0x00\n      swap1\n      sload\n      swap1\n      0x0100\n      exp\n      swap1\n      div\n      0xff\n      and\n        /* \"contracts/1_Storage.sol\":5226:5251  !property.refundRequested */\n      iszero\n        /* \"contracts/1_Storage.sol\":5218:5289  require(!property.refundRequested, \"Refund has already been requested\") */\n      tag_169\n      jumpi\n      mload(0x40)\n      0x08c379a000000000000000000000000000000000000000000000000000000000\n      dup2\n      mstore\n      0x04\n      add\n      tag_170\n      swap1\n      tag_171\n      jump\t// in\n    tag_170:\n      mload(0x40)\n      dup1\n      swap2\n      sub\n      swap1\n      revert\n    tag_169:\n        /* \"contracts/1_Storage.sol\":5365:5369  true */\n      0x01\n        /* \"contracts/1_Storage.sol\":5338:5346  property */\n      dup2\n        /* \"contracts/1_Storage.sol\":5338:5362  property.refundRequested */\n      0x07\n      add\n      0x00\n        /* \"contracts/1_Storage.sol\":5338:5369  property.refundRequested = true */\n      0x0100\n      exp\n      dup2\n      sload\n      dup2\n      0xff\n      mul\n      not\n      and\n      swap1\n      dup4\n      iszero\n      iszero\n      mul\n      or\n      swap1\n      sstore\n      pop\n        /* \"contracts/1_Storage.sol\":4965:5376  {... */\n      pop\n        /* \"contracts/1_Storage.sol\":4915:5376  function requestRefund(bytes32 propertyId) public {... */\n      pop\n      jump\t// out\n        /* \"contracts/1_Storage.sol\":4526:4900  function reviewStay(bytes32 propertyId, uint256 rating, string memory review) public {... */\n    tag_90:\n        /* \"contracts/1_Storage.sol\":4664:4689  Property storage property */\n      0x00\n        /* \"contracts/1_Storage.sol\":4692:4702  properties */\n      0x02\n        /* \"contracts/1_Storage.sol\":4692:4714  properties[propertyId] */\n      0x00\n        /* \"contracts/1_Storage.sol\":4703:4713  propertyId */\n      dup6\n        /* \"contracts/1_Storage.sol\":4692:4714  properties[propertyId] */\n      dup2\n      mstore\n      0x20\n      add\n      swap1\n      dup2\n      mstore\n      0x20\n      add\n      0x00\n      keccak256\n        /* \"contracts/1_Storage.sol\":4664:4714  Property storage property = properties[propertyId] */\n      swap1\n      pop\n        /* \"contracts/1_Storage.sol\":4758:4759  0 */\n      0x00\n        /* \"contracts/1_Storage.sol\":4732:4760  property.owner != address(0) */\n      0xffffffffffffffffffffffffffffffffffffffff\n      and\n        /* \"contracts/1_Storage.sol\":4732:4740  property */\n      dup2\n        /* \"contracts/1_Storage.sol\":4732:4746  property.owner */\n      0x04\n      add\n      0x00\n      swap1\n      sload\n      swap1\n      0x0100\n      exp\n      swap1\n      div\n      0xffffffffffffffffffffffffffffffffffffffff\n      and\n        /* \"contracts/1_Storage.sol\":4732:4760  property.owner != address(0) */\n      0xffffffffffffffffffffffffffffffffffffffff\n      and\n      eq\n      iszero\n        /* \"contracts/1_Storage.sol\":4724:4788  require(property.owner != address(0), \"Property does not exist\") */\n      tag_173\n      jumpi\n      mload(0x40)\n      0x08c379a000000000000000000000000000000000000000000000000000000000\n      dup2\n      mstore\n      0x04\n      add\n      tag_174\n      swap1\n      tag_164\n      jump\t// in\n    tag_174:\n      mload(0x40)\n      dup1\n      swap2\n      sub\n      swap1\n      revert\n    tag_173:\n        /* \"contracts/1_Storage.sol\":4833:4840  reviews */\n      0x03\n        /* \"contracts/1_Storage.sol\":4833:4852  reviews[propertyId] */\n      0x00\n        /* \"contracts/1_Storage.sol\":4841:4851  propertyId */\n      dup6\n        /* \"contracts/1_Storage.sol\":4833:4852  reviews[propertyId] */\n      dup2\n      mstore\n      0x20\n      add\n      swap1\n      dup2\n      mstore\n      0x20\n      add\n      0x00\n      keccak256\n        /* \"contracts/1_Storage.sol\":4858:4892  Review(rating, review, msg.sender) */\n      mload(0x40)\n      dup1\n      0x60\n      add\n      0x40\n      mstore\n      dup1\n        /* \"contracts/1_Storage.sol\":4865:4871  rating */\n      dup6\n        /* \"contracts/1_Storage.sol\":4858:4892  Review(rating, review, msg.sender) */\n      dup2\n      mstore\n      0x20\n      add\n        /* \"contracts/1_Storage.sol\":4873:4879  review */\n      dup5\n        /* \"contracts/1_Storage.sol\":4858:4892  Review(rating, review, msg.sender) */\n      dup2\n      mstore\n      0x20\n      add\n        /* \"contracts/1_Storage.sol\":4881:4891  msg.sender */\n      caller\n        /* \"contracts/1_Storage.sol\":4858:4892  Review(rating, review, msg.sender) */\n      0xffffffffffffffffffffffffffffffffffffffff\n      and\n      dup2\n      mstore\n      pop\n        /* \"contracts/1_Storage.sol\":4833:4893  reviews[propertyId].push(Review(rating, review, msg.sender)) */\n      swap1\n      dup1\n      0x01\n      dup2\n      sload\n      add\n      dup1\n      dup3\n      sstore\n      dup1\n      swap2\n      pop\n      pop\n      0x01\n      swap1\n      sub\n      swap1\n      0x00\n      mstore\n      keccak256(0x00, 0x20)\n      swap1\n      0x03\n      mul\n      add\n      0x00\n      swap1\n      swap2\n      swap1\n      swap2\n      swap1\n      swap2\n      pop\n      0x00\n      dup3\n      add\n      mload\n      dup2\n      0x00\n      add\n      sstore\n      0x20\n      dup3\n      add\n      mload\n      dup2\n      0x01\n      add\n      swap1\n      dup1\n      mload\n      swap1\n      0x20\n      add\n      swap1\n      tag_176\n      swap3\n      swap2\n      swap1\n      tag_155\n      jump\t// in\n    tag_176:\n      pop\n      0x40\n      dup3\n      add\n      mload\n      dup2\n      0x02\n      add\n      exp(0x0100, 0x00)\n      dup2\n      sload\n      dup2\n      0xffffffffffffffffffffffffffffffffffffffff\n      mul\n      not\n      and\n      swap1\n      dup4\n      0xffffffffffffffffffffffffffffffffffffffff\n      and\n      mul\n      or\n      swap1\n      sstore\n      pop\n      pop\n      pop\n        /* \"contracts/1_Storage.sol\":4611:4900  {... */\n      pop\n        /* \"contracts/1_Storage.sol\":4526:4900  function reviewStay(bytes32 propertyId, uint256 rating, string memory review) public {... */\n      pop\n      pop\n      pop\n      jump\t// out\n        /* \"contracts/1_Storage.sol\":136:173  string public constant symbol = \"DNG\" */\n    tag_92:\n      mload(0x40)\n      dup1\n      0x40\n      add\n      0x40\n      mstore\n      dup1\n      0x03\n      dup2\n      mstore\n      0x20\n      add\n      0x444e470000000000000000000000000000000000000000000000000000000000\n      dup2\n      mstore\n      pop\n      dup2\n      jump\t// out\n        /* \"contracts/1_Storage.sol\":1802:1840  mapping (address => User) public users */\n    tag_96:\n      mstore(0x20, 0x07)\n      dup1\n      0x00\n      mstore\n      keccak256(0x00, 0x40)\n      0x00\n      swap2\n      pop\n      swap1\n      pop\n      dup1\n      0x00\n      add\n      sload\n      swap1\n      dup1\n      0x01\n      add\n      sload\n      swap1\n      pop\n      dup3\n      jump\t// out\n        /* \"contracts/1_Storage.sol\":5386:5628  function transfer(address to, uint256 value) public {... */\n    tag_101:\n        /* \"contracts/1_Storage.sol\":5481:5486  value */\n      dup1\n        /* \"contracts/1_Storage.sol\":5456:5465  balanceOf */\n      0x05\n        /* \"contracts/1_Storage.sol\":5456:5477  balanceOf[msg.sender] */\n      0x00\n        /* \"contracts/1_Storage.sol\":5466:5476  msg.sender */\n      caller\n        /* \"contracts/1_Storage.sol\":5456:5477  balanceOf[msg.sender] */\n      0xffffffffffffffffffffffffffffffffffffffff\n      and\n      0xffffffffffffffffffffffffffffffffffffffff\n      and\n      dup2\n      mstore\n      0x20\n      add\n      swap1\n      dup2\n      mstore\n      0x20\n      add\n      0x00\n      keccak256\n      sload\n        /* \"contracts/1_Storage.sol\":5456:5486  balanceOf[msg.sender] >= value */\n      lt\n      iszero\n        /* \"contracts/1_Storage.sol\":5456:5528  balanceOf[msg.sender] >= value && balanceOf[to] + value >= balanceOf[to] */\n      dup1\n      iszero\n      tag_178\n      jumpi\n      pop\n        /* \"contracts/1_Storage.sol\":5515:5524  balanceOf */\n      0x05\n        /* \"contracts/1_Storage.sol\":5515:5528  balanceOf[to] */\n      0x00\n        /* \"contracts/1_Storage.sol\":5525:5527  to */\n      dup4\n        /* \"contracts/1_Storage.sol\":5515:5528  balanceOf[to] */\n      0xffffffffffffffffffffffffffffffffffffffff\n      and\n      0xffffffffffffffffffffffffffffffffffffffff\n      and\n      dup2\n      mstore\n      0x20\n      add\n      swap1\n      dup2\n      mstore\n      0x20\n      add\n      0x00\n      keccak256\n      sload\n        /* \"contracts/1_Storage.sol\":5506:5511  value */\n      dup2\n        /* \"contracts/1_Storage.sol\":5490:5499  balanceOf */\n      0x05\n        /* \"contracts/1_Storage.sol\":5490:5503  balanceOf[to] */\n      0x00\n        /* \"contracts/1_Storage.sol\":5500:5502  to */\n      dup6\n        /* \"contracts/1_Storage.sol\":5490:5503  balanceOf[to] */\n      0xffffffffffffffffffffffffffffffffffffffff\n      and\n      0xffffffffffffffffffffffffffffffffffffffff\n      and\n      dup2\n      mstore\n      0x20\n      add\n      swap1\n      dup2\n      mstore\n      0x20\n      add\n      0x00\n      keccak256\n      sload\n        /* \"contracts/1_Storage.sol\":5490:5511  balanceOf[to] + value */\n      tag_179\n      swap2\n      swap1\n      tag_119\n      jump\t// in\n    tag_179:\n        /* \"contracts/1_Storage.sol\":5490:5528  balanceOf[to] + value >= balanceOf[to] */\n      lt\n      iszero\n        /* \"contracts/1_Storage.sol\":5456:5528  balanceOf[msg.sender] >= value && balanceOf[to] + value >= balanceOf[to] */\n    tag_178:\n        /* \"contracts/1_Storage.sol\":5448:5549  require(balanceOf[msg.sender] >= value && balanceOf[to] + value >= balanceOf[to], \"Transfer failed.\") */\n      tag_180\n      jumpi\n      mload(0x40)\n      0x08c379a000000000000000000000000000000000000000000000000000000000\n      dup2\n      mstore\n      0x04\n      add\n      tag_181\n      swap1\n      tag_182\n      jump\t// in\n    tag_181:\n      mload(0x40)\n      dup1\n      swap2\n      sub\n      swap1\n      revert\n    tag_180:\n        /* \"contracts/1_Storage.sol\":5584:5589  value */\n      dup1\n        /* \"contracts/1_Storage.sol\":5559:5568  balanceOf */\n      0x05\n        /* \"contracts/1_Storage.sol\":5559:5580  balanceOf[msg.sender] */\n      0x00\n        /* \"contracts/1_Storage.sol\":5569:5579  msg.sender */\n      caller\n        /* \"contracts/1_Storage.sol\":5559:5580  balanceOf[msg.sender] */\n      0xffffffffffffffffffffffffffffffffffffffff\n      and\n      0xffffffffffffffffffffffffffffffffffffffff\n      and\n      dup2\n      mstore\n      0x20\n      add\n      swap1\n      dup2\n      mstore\n      0x20\n      add\n      0x00\n      keccak256\n      0x00\n        /* \"contracts/1_Storage.sol\":5559:5589  balanceOf[msg.sender] -= value */\n      dup3\n      dup3\n      sload\n      tag_183\n      swap2\n      swap1\n      tag_124\n      jump\t// in\n    tag_183:\n      swap3\n      pop\n      pop\n      dup2\n      swap1\n      sstore\n      pop\n        /* \"contracts/1_Storage.sol\":5616:5621  value */\n      dup1\n        /* \"contracts/1_Storage.sol\":5599:5608  balanceOf */\n      0x05\n        /* \"contracts/1_Storage.sol\":5599:5612  balanceOf[to] */\n      0x00\n        /* \"contracts/1_Storage.sol\":5609:5611  to */\n      dup5\n        /* \"contracts/1_Storage.sol\":5599:5612  balanceOf[to] */\n      0xffffffffffffffffffffffffffffffffffffffff\n      and\n      0xffffffffffffffffffffffffffffffffffffffff\n      and\n      dup2\n      mstore\n      0x20\n      add\n      swap1\n      dup2\n      mstore\n      0x20\n      add\n      0x00\n      keccak256\n      0x00\n        /* \"contracts/1_Storage.sol\":5599:5621  balanceOf[to] += value */\n      dup3\n      dup3\n      sload\n      tag_184\n      swap2\n      swap1\n      tag_119\n      jump\t// in\n    tag_184:\n      swap3\n      pop\n      pop\n      dup2\n      swap1\n      sstore\n      pop\n        /* \"contracts/1_Storage.sol\":5386:5628  function transfer(address to, uint256 value) public {... */\n      pop\n      pop\n      jump\t// out\n        /* \"contracts/1_Storage.sol\":1368:1414  mapping(bytes32 => Property) public properties */\n    tag_104:\n      mstore(0x20, 0x02)\n      dup1\n      0x00\n      mstore\n      keccak256(0x00, 0x40)\n      0x00\n      swap2\n      pop\n      swap1\n      pop\n      dup1\n      0x00\n      add\n      dup1\n      sload\n      tag_185\n      swap1\n      tag_130\n      jump\t// in\n    tag_185:\n      dup1\n      0x1f\n      add\n      0x20\n      dup1\n      swap2\n      div\n      mul\n      0x20\n      add\n      mload(0x40)\n      swap1\n      dup2\n      add\n      0x40\n      mstore\n      dup1\n      swap3\n      swap2\n      swap1\n      dup2\n      dup2\n      mstore\n      0x20\n      add\n      dup3\n      dup1\n      sload\n      tag_186\n      swap1\n      tag_130\n      jump\t// in\n    tag_186:\n      dup1\n      iszero\n      tag_187\n      jumpi\n      dup1\n      0x1f\n      lt\n      tag_188\n      jumpi\n      0x0100\n      dup1\n      dup4\n      sload\n      div\n      mul\n      dup4\n      mstore\n      swap2\n      0x20\n      add\n      swap2\n      jump(tag_187)\n    tag_188:\n      dup3\n      add\n      swap2\n      swap1\n      0x00\n      mstore\n      keccak256(0x00, 0x20)\n      swap1\n    tag_189:\n      dup2\n      sload\n      dup2\n      mstore\n      swap1\n      0x01\n      add\n      swap1\n      0x20\n      add\n      dup1\n      dup4\n      gt\n      tag_189\n      jumpi\n      dup3\n      swap1\n      sub\n      0x1f\n      and\n      dup3\n      add\n      swap2\n    tag_187:\n      pop\n      pop\n      pop\n      pop\n      pop\n      swap1\n      dup1\n      0x01\n      add\n      dup1\n      sload\n      tag_190\n      swap1\n      tag_130\n      jump\t// in\n    tag_190:\n      dup1\n      0x1f\n      add\n      0x20\n      dup1\n      swap2\n      div\n      mul\n      0x20\n      add\n      mload(0x40)\n      swap1\n      dup2\n      add\n      0x40\n      mstore\n      dup1\n      swap3\n      swap2\n      swap1\n      dup2\n      dup2\n      mstore\n      0x20\n      add\n      dup3\n      dup1\n      sload\n      tag_191\n      swap1\n      tag_130\n      jump\t// in\n    tag_191:\n      dup1\n      iszero\n      tag_192\n      jumpi\n      dup1\n      0x1f\n      lt\n      tag_193\n      jumpi\n      0x0100\n      dup1\n      dup4\n      sload\n      div\n      mul\n      dup4\n      mstore\n      swap2\n      0x20\n      add\n      swap2\n      jump(tag_192)\n    tag_193:\n      dup3\n      add\n      swap2\n      swap1\n      0x00\n      mstore\n      keccak256(0x00, 0x20)\n      swap1\n    tag_194:\n      dup2\n      sload\n      dup2\n      mstore\n      swap1\n      0x01\n      add\n      swap1\n      0x20\n      add\n      dup1\n      dup4\n      gt\n      tag_194\n      jumpi\n      dup3\n      swap1\n      sub\n      0x1f\n      and\n      dup3\n      add\n      swap2\n    tag_192:\n      pop\n      pop\n      pop\n      pop\n      pop\n      swap1\n      dup1\n      0x02\n      add\n      dup1\n      sload\n      tag_195\n      swap1\n      tag_130\n      jump\t// in\n    tag_195:\n      dup1\n      0x1f\n      add\n      0x20\n      dup1\n      swap2\n      div\n      mul\n      0x20\n      add\n      mload(0x40)\n      swap1\n      dup2\n      add\n      0x40\n      mstore\n      dup1\n      swap3\n      swap2\n      swap1\n      dup2\n      dup2\n      mstore\n      0x20\n      add\n      dup3\n      dup1\n      sload\n      tag_196\n      swap1\n      tag_130\n      jump\t// in\n    tag_196:\n      dup1\n      iszero\n      tag_197\n      jumpi\n      dup1\n      0x1f\n      lt\n      tag_198\n      jumpi\n      0x0100\n      dup1\n      dup4\n      sload\n      div\n      mul\n      dup4\n      mstore\n      swap2\n      0x20\n      add\n      swap2\n      jump(tag_197)\n    tag_198:\n      dup3\n      add\n      swap2\n      swap1\n      0x00\n      mstore\n      keccak256(0x00, 0x20)\n      swap1\n    tag_199:\n      dup2\n      sload\n      dup2\n      mstore\n      swap1\n      0x01\n      add\n      swap1\n      0x20\n      add\n      dup1\n      dup4\n      gt\n      tag_199\n      jumpi\n      dup3\n      swap1\n      sub\n      0x1f\n      and\n      dup3\n      add\n      swap2\n    tag_197:\n      pop\n      pop\n      pop\n      pop\n      pop\n      swap1\n      dup1\n      0x03\n      add\n      sload\n      swap1\n      dup1\n      0x04\n      add\n      0x00\n      swap1\n      sload\n      swap1\n      0x0100\n      exp\n      swap1\n      div\n      0xffffffffffffffffffffffffffffffffffffffff\n      and\n      swap1\n      dup1\n      0x07\n      add\n      0x00\n      swap1\n      sload\n      swap1\n      0x0100\n      exp\n      swap1\n      div\n      0xff\n      and\n      swap1\n      pop\n      dup7\n      jump\t// out\n        /* \"contracts/1_Storage.sol\":3926:4172  function resolveDispute(uint256 disputeId, uint256 resolution) public {... */\n    tag_110:\n        /* \"contracts/1_Storage.sol\":4006:4029  Dispute storage dispute */\n      0x00\n        /* \"contracts/1_Storage.sol\":4032:4040  disputes */\n      0x06\n        /* \"contracts/1_Storage.sol\":4032:4051  disputes[disputeId] */\n      0x00\n        /* \"contracts/1_Storage.sol\":4041:4050  disputeId */\n      dup5\n        /* \"contracts/1_Storage.sol\":4032:4051  disputes[disputeId] */\n      dup2\n      mstore\n      0x20\n      add\n      swap1\n      dup2\n      mstore\n      0x20\n      add\n      0x00\n      keccak256\n        /* \"contracts/1_Storage.sol\":4006:4051  Dispute storage dispute = disputes[disputeId] */\n      swap1\n      pop\n        /* \"contracts/1_Storage.sol\":4087:4088  0 */\n      0x00\n        /* \"contracts/1_Storage.sol\":4069:4076  dispute */\n      dup2\n        /* \"contracts/1_Storage.sol\":4069:4083  dispute.status */\n      0x03\n      add\n      sload\n        /* \"contracts/1_Storage.sol\":4069:4088  dispute.status == 0 */\n      eq\n        /* \"contracts/1_Storage.sol\":4061:4117  require(dispute.status == 0, \"Dispute already resolved\") */\n      tag_201\n      jumpi\n      mload(0x40)\n      0x08c379a000000000000000000000000000000000000000000000000000000000\n      dup2\n      mstore\n      0x04\n      add\n      tag_202\n      swap1\n      tag_203\n      jump\t// in\n    tag_202:\n      mload(0x40)\n      dup1\n      swap2\n      sub\n      swap1\n      revert\n    tag_201:\n        /* \"contracts/1_Storage.sol\":4153:4163  resolution */\n      dup2\n        /* \"contracts/1_Storage.sol\":4136:4143  dispute */\n      dup2\n        /* \"contracts/1_Storage.sol\":4136:4150  dispute.status */\n      0x03\n      add\n        /* \"contracts/1_Storage.sol\":4136:4163  dispute.status = resolution */\n      dup2\n      swap1\n      sstore\n      pop\n        /* \"contracts/1_Storage.sol\":3996:4172  {... */\n      pop\n        /* \"contracts/1_Storage.sol\":3926:4172  function resolveDispute(uint256 disputeId, uint256 resolution) public {... */\n      pop\n      pop\n      jump\t// out\n    tag_155:\n      dup3\n      dup1\n      sload\n      tag_204\n      swap1\n      tag_130\n      jump\t// in\n    tag_204:\n      swap1\n      0x00\n      mstore\n      keccak256(0x00, 0x20)\n      swap1\n      0x1f\n      add\n      0x20\n      swap1\n      div\n      dup2\n      add\n      swap3\n      dup3\n      tag_206\n      jumpi\n      0x00\n      dup6\n      sstore\n      jump(tag_205)\n    tag_206:\n      dup3\n      0x1f\n      lt\n      tag_207\n      jumpi\n      dup1\n      mload\n      not(0xff)\n      and\n      dup4\n      dup1\n      add\n      or\n      dup6\n      sstore\n      jump(tag_205)\n    tag_207:\n      dup3\n      dup1\n      add\n      0x01\n      add\n      dup6\n      sstore\n      dup3\n      iszero\n      tag_205\n      jumpi\n      swap2\n      dup3\n      add\n    tag_208:\n      dup3\n      dup2\n      gt\n      iszero\n      tag_209\n      jumpi\n      dup3\n      mload\n      dup3\n      sstore\n      swap2\n      0x20\n      add\n      swap2\n      swap1\n      0x01\n      add\n      swap1\n      jump(tag_208)\n    tag_209:\n    tag_205:\n      pop\n      swap1\n      pop\n      tag_210\n      swap2\n      swap1\n      tag_211\n      jump\t// in\n    tag_210:\n      pop\n      swap1\n      jump\t// out\n    tag_159:\n      dup3\n      dup1\n      sload\n      dup3\n      dup3\n      sstore\n      swap1\n      0x00\n      mstore\n      keccak256(0x00, 0x20)\n      swap1\n      dup2\n      add\n      swap3\n      dup3\n      iszero\n      tag_212\n      jumpi\n      swap2\n      0x20\n      mul\n      dup3\n      add\n    tag_213:\n      dup3\n      dup2\n      gt\n      iszero\n      tag_214\n      jumpi\n      dup3\n      mload\n      dup3\n      sstore\n      swap2\n      0x20\n      add\n      swap2\n      swap1\n      0x01\n      add\n      swap1\n      jump(tag_213)\n    tag_214:\n    tag_212:\n      pop\n      swap1\n      pop\n      tag_215\n      swap2\n      swap1\n      tag_216\n      jump\t// in\n    tag_215:\n      pop\n      swap1\n      jump\t// out\n    tag_211:\n    tag_217:\n      dup1\n      dup3\n      gt\n      iszero\n      tag_218\n      jumpi\n      0x00\n      dup2\n      0x00\n      swap1\n      sstore\n      pop\n      0x01\n      add\n      jump(tag_217)\n    tag_218:\n      pop\n      swap1\n      jump\t// out\n    tag_216:\n    tag_219:\n      dup1\n      dup3\n      gt\n      iszero\n      tag_220\n      jumpi\n      0x00\n      dup2\n      0x00\n      swap1\n      sstore\n      pop\n      0x01\n      add\n      jump(tag_219)\n    tag_220:\n      pop\n      swap1\n      jump\t// out\n        /* \"#utility.yul\":24:746   */\n    tag_222:\n        /* \"#utility.yul\":120:125   */\n      0x00\n        /* \"#utility.yul\":145:226   */\n      tag_224\n        /* \"#utility.yul\":161:225   */\n      tag_225\n        /* \"#utility.yul\":218:224   */\n      dup5\n        /* \"#utility.yul\":161:225   */\n      tag_226\n      jump\t// in\n    tag_225:\n        /* \"#utility.yul\":145:226   */\n      tag_227\n      jump\t// in\n    tag_224:\n        /* \"#utility.yul\":136:226   */\n      swap1\n      pop\n        /* \"#utility.yul\":246:251   */\n      dup1\n        /* \"#utility.yul\":275:281   */\n      dup4\n        /* \"#utility.yul\":268:273   */\n      dup3\n        /* \"#utility.yul\":261:282   */\n      mstore\n        /* \"#utility.yul\":309:313   */\n      0x20\n        /* \"#utility.yul\":302:307   */\n      dup3\n        /* \"#utility.yul\":298:314   */\n      add\n        /* \"#utility.yul\":291:314   */\n      swap1\n      pop\n        /* \"#utility.yul\":335:341   */\n      dup3\n        /* \"#utility.yul\":385:388   */\n      dup6\n        /* \"#utility.yul\":377:381   */\n      0x20\n        /* \"#utility.yul\":369:375   */\n      dup7\n        /* \"#utility.yul\":365:382   */\n      mul\n        /* \"#utility.yul\":360:363   */\n      dup3\n        /* \"#utility.yul\":356:383   */\n      add\n        /* \"#utility.yul\":353:389   */\n      gt\n        /* \"#utility.yul\":350:493   */\n      iszero\n      tag_228\n      jumpi\n        /* \"#utility.yul\":404:483   */\n      tag_229\n      tag_230\n      jump\t// in\n    tag_229:\n        /* \"#utility.yul\":350:493   */\n    tag_228:\n        /* \"#utility.yul\":517:518   */\n      0x00\n        /* \"#utility.yul\":502:740   */\n    tag_231:\n        /* \"#utility.yul\":527:533   */\n      dup6\n        /* \"#utility.yul\":524:525   */\n      dup2\n        /* \"#utility.yul\":521:534   */\n      lt\n        /* \"#utility.yul\":502:740   */\n      iszero\n      tag_233\n      jumpi\n        /* \"#utility.yul\":595:598   */\n      dup2\n        /* \"#utility.yul\":624:661   */\n      tag_234\n        /* \"#utility.yul\":657:660   */\n      dup9\n        /* \"#utility.yul\":645:655   */\n      dup3\n        /* \"#utility.yul\":624:661   */\n      tag_235\n      jump\t// in\n    tag_234:\n        /* \"#utility.yul\":619:622   */\n      dup5\n        /* \"#utility.yul\":612:662   */\n      mstore\n        /* \"#utility.yul\":691:695   */\n      0x20\n        /* \"#utility.yul\":686:689   */\n      dup5\n        /* \"#utility.yul\":682:696   */\n      add\n        /* \"#utility.yul\":675:696   */\n      swap4\n      pop\n        /* \"#utility.yul\":725:729   */\n      0x20\n        /* \"#utility.yul\":720:723   */\n      dup4\n        /* \"#utility.yul\":716:730   */\n      add\n        /* \"#utility.yul\":709:730   */\n      swap3\n      pop\n        /* \"#utility.yul\":562:740   */\n      pop\n        /* \"#utility.yul\":549:550   */\n      0x01\n        /* \"#utility.yul\":546:547   */\n      dup2\n        /* \"#utility.yul\":542:551   */\n      add\n        /* \"#utility.yul\":537:551   */\n      swap1\n      pop\n        /* \"#utility.yul\":502:740   */\n      jump(tag_231)\n    tag_233:\n        /* \"#utility.yul\":506:520   */\n      pop\n        /* \"#utility.yul\":126:746   */\n      pop\n      pop\n        /* \"#utility.yul\":24:746   */\n      swap4\n      swap3\n      pop\n      pop\n      pop\n      jump\t// out\n        /* \"#utility.yul\":752:1164   */\n    tag_236:\n        /* \"#utility.yul\":830:835   */\n      0x00\n        /* \"#utility.yul\":855:921   */\n      tag_238\n        /* \"#utility.yul\":871:920   */\n      tag_239\n        /* \"#utility.yul\":913:919   */\n      dup5\n        /* \"#utility.yul\":871:920   */\n      tag_240\n      jump\t// in\n    tag_239:\n        /* \"#utility.yul\":855:921   */\n      tag_227\n      jump\t// in\n    tag_238:\n        /* \"#utility.yul\":846:921   */\n      swap1\n      pop\n        /* \"#utility.yul\":944:950   */\n      dup3\n        /* \"#utility.yul\":937:942   */\n      dup2\n        /* \"#utility.yul\":930:951   */\n      mstore\n        /* \"#utility.yul\":982:986   */\n      0x20\n        /* \"#utility.yul\":975:980   */\n      dup2\n        /* \"#utility.yul\":971:987   */\n      add\n        /* \"#utility.yul\":1020:1023   */\n      dup5\n        /* \"#utility.yul\":1011:1017   */\n      dup5\n        /* \"#utility.yul\":1006:1009   */\n      dup5\n        /* \"#utility.yul\":1002:1018   */\n      add\n        /* \"#utility.yul\":999:1024   */\n      gt\n        /* \"#utility.yul\":996:1108   */\n      iszero\n      tag_241\n      jumpi\n        /* \"#utility.yul\":1027:1106   */\n      tag_242\n      tag_243\n      jump\t// in\n    tag_242:\n        /* \"#utility.yul\":996:1108   */\n    tag_241:\n        /* \"#utility.yul\":1117:1158   */\n      tag_244\n        /* \"#utility.yul\":1151:1157   */\n      dup5\n        /* \"#utility.yul\":1146:1149   */\n      dup3\n        /* \"#utility.yul\":1141:1144   */\n      dup6\n        /* \"#utility.yul\":1117:1158   */\n      tag_245\n      jump\t// in\n    tag_244:\n        /* \"#utility.yul\":836:1164   */\n      pop\n        /* \"#utility.yul\":752:1164   */\n      swap4\n      swap3\n      pop\n      pop\n      pop\n      jump\t// out\n        /* \"#utility.yul\":1170:1309   */\n    tag_246:\n        /* \"#utility.yul\":1216:1221   */\n      0x00\n        /* \"#utility.yul\":1254:1260   */\n      dup2\n        /* \"#utility.yul\":1241:1261   */\n      calldataload\n        /* \"#utility.yul\":1232:1261   */\n      swap1\n      pop\n        /* \"#utility.yul\":1270:1303   */\n      tag_248\n        /* \"#utility.yul\":1297:1302   */\n      dup2\n        /* \"#utility.yul\":1270:1303   */\n      tag_249\n      jump\t// in\n    tag_248:\n        /* \"#utility.yul\":1170:1309   */\n      swap3\n      swap2\n      pop\n      pop\n      jump\t// out\n        /* \"#utility.yul\":1332:1702   */\n    tag_250:\n        /* \"#utility.yul\":1403:1408   */\n      0x00\n        /* \"#utility.yul\":1452:1455   */\n      dup3\n        /* \"#utility.yul\":1445:1449   */\n      0x1f\n        /* \"#utility.yul\":1437:1443   */\n      dup4\n        /* \"#utility.yul\":1433:1450   */\n      add\n        /* \"#utility.yul\":1429:1456   */\n      slt\n        /* \"#utility.yul\":1419:1541   */\n      tag_252\n      jumpi\n        /* \"#utility.yul\":1460:1539   */\n      tag_253\n      tag_254\n      jump\t// in\n    tag_253:\n        /* \"#utility.yul\":1419:1541   */\n    tag_252:\n        /* \"#utility.yul\":1577:1583   */\n      dup2\n        /* \"#utility.yul\":1564:1584   */\n      calldataload\n        /* \"#utility.yul\":1602:1696   */\n      tag_255\n        /* \"#utility.yul\":1692:1695   */\n      dup5\n        /* \"#utility.yul\":1684:1690   */\n      dup3\n        /* \"#utility.yul\":1677:1681   */\n      0x20\n        /* \"#utility.yul\":1669:1675   */\n      dup7\n        /* \"#utility.yul\":1665:1682   */\n      add\n        /* \"#utility.yul\":1602:1696   */\n      tag_222\n      jump\t// in\n    tag_255:\n        /* \"#utility.yul\":1593:1696   */\n      swap2\n      pop\n        /* \"#utility.yul\":1409:1702   */\n      pop\n        /* \"#utility.yul\":1332:1702   */\n      swap3\n      swap2\n      pop\n      pop\n      jump\t// out\n        /* \"#utility.yul\":1708:1847   */\n    tag_235:\n        /* \"#utility.yul\":1754:1759   */\n      0x00\n        /* \"#utility.yul\":1792:1798   */\n      dup2\n        /* \"#utility.yul\":1779:1799   */\n      calldataload\n        /* \"#utility.yul\":1770:1799   */\n      swap1\n      pop\n        /* \"#utility.yul\":1808:1841   */\n      tag_257\n        /* \"#utility.yul\":1835:1840   */\n      dup2\n        /* \"#utility.yul\":1808:1841   */\n      tag_258\n      jump\t// in\n    tag_257:\n        /* \"#utility.yul\":1708:1847   */\n      swap3\n      swap2\n      pop\n      pop\n      jump\t// out\n        /* \"#utility.yul\":1867:2207   */\n    tag_259:\n        /* \"#utility.yul\":1923:1928   */\n      0x00\n        /* \"#utility.yul\":1972:1975   */\n      dup3\n        /* \"#utility.yul\":1965:1969   */\n      0x1f\n        /* \"#utility.yul\":1957:1963   */\n      dup4\n        /* \"#utility.yul\":1953:1970   */\n      add\n        /* \"#utility.yul\":1949:1976   */\n      slt\n        /* \"#utility.yul\":1939:2061   */\n      tag_261\n      jumpi\n        /* \"#utility.yul\":1980:2059   */\n      tag_262\n      tag_254\n      jump\t// in\n    tag_262:\n        /* \"#utility.yul\":1939:2061   */\n    tag_261:\n        /* \"#utility.yul\":2097:2103   */\n      dup2\n        /* \"#utility.yul\":2084:2104   */\n      calldataload\n        /* \"#utility.yul\":2122:2201   */\n      tag_263\n        /* \"#utility.yul\":2197:2200   */\n      dup5\n        /* \"#utility.yul\":2189:2195   */\n      dup3\n        /* \"#utility.yul\":2182:2186   */\n      0x20\n        /* \"#utility.yul\":2174:2180   */\n      dup7\n        /* \"#utility.yul\":2170:2187   */\n      add\n        /* \"#utility.yul\":2122:2201   */\n      tag_236\n      jump\t// in\n    tag_263:\n        /* \"#utility.yul\":2113:2201   */\n      swap2\n      pop\n        /* \"#utility.yul\":1929:2207   */\n      pop\n        /* \"#utility.yul\":1867:2207   */\n      swap3\n      swap2\n      pop\n      pop\n      jump\t// out\n        /* \"#utility.yul\":2213:2352   */\n    tag_264:\n        /* \"#utility.yul\":2259:2264   */\n      0x00\n        /* \"#utility.yul\":2297:2303   */\n      dup2\n        /* \"#utility.yul\":2284:2304   */\n      calldataload\n        /* \"#utility.yul\":2275:2304   */\n      swap1\n      pop\n        /* \"#utility.yul\":2313:2346   */\n      tag_266\n        /* \"#utility.yul\":2340:2345   */\n      dup2\n        /* \"#utility.yul\":2313:2346   */\n      tag_267\n      jump\t// in\n    tag_266:\n        /* \"#utility.yul\":2213:2352   */\n      swap3\n      swap2\n      pop\n      pop\n      jump\t// out\n        /* \"#utility.yul\":2358:2687   */\n    tag_80:\n        /* \"#utility.yul\":2417:2423   */\n      0x00\n        /* \"#utility.yul\":2466:2468   */\n      0x20\n        /* \"#utility.yul\":2454:2463   */\n      dup3\n        /* \"#utility.yul\":2445:2452   */\n      dup5\n        /* \"#utility.yul\":2441:2464   */\n      sub\n        /* \"#utility.yul\":2437:2469   */\n      slt\n        /* \"#utility.yul\":2434:2553   */\n      iszero\n      tag_269\n      jumpi\n        /* \"#utility.yul\":2472:2551   */\n      tag_270\n      tag_271\n      jump\t// in\n    tag_270:\n        /* \"#utility.yul\":2434:2553   */\n    tag_269:\n        /* \"#utility.yul\":2592:2593   */\n      0x00\n        /* \"#utility.yul\":2617:2670   */\n      tag_272\n        /* \"#utility.yul\":2662:2669   */\n      dup5\n        /* \"#utility.yul\":2653:2659   */\n      dup3\n        /* \"#utility.yul\":2642:2651   */\n      dup6\n        /* \"#utility.yul\":2638:2660   */\n      add\n        /* \"#utility.yul\":2617:2670   */\n      tag_246\n      jump\t// in\n    tag_272:\n        /* \"#utility.yul\":2607:2670   */\n      swap2\n      pop\n        /* \"#utility.yul\":2563:2680   */\n      pop\n        /* \"#utility.yul\":2358:2687   */\n      swap3\n      swap2\n      pop\n      pop\n      jump\t// out\n        /* \"#utility.yul\":2693:3167   */\n    tag_67:\n        /* \"#utility.yul\":2761:2767   */\n      0x00\n        /* \"#utility.yul\":2769:2775   */\n      dup1\n        /* \"#utility.yul\":2818:2820   */\n      0x40\n        /* \"#utility.yul\":2806:2815   */\n      dup4\n        /* \"#utility.yul\":2797:2804   */\n      dup6\n        /* \"#utility.yul\":2793:2816   */\n      sub\n        /* \"#utility.yul\":2789:2821   */\n      slt\n        /* \"#utility.yul\":2786:2905   */\n      iszero\n      tag_274\n      jumpi\n        /* \"#utility.yul\":2824:2903   */\n      tag_275\n      tag_271\n      jump\t// in\n    tag_275:\n        /* \"#utility.yul\":2786:2905   */\n    tag_274:\n        /* \"#utility.yul\":2944:2945   */\n      0x00\n        /* \"#utility.yul\":2969:3022   */\n      tag_276\n        /* \"#utility.yul\":3014:3021   */\n      dup6\n        /* \"#utility.yul\":3005:3011   */\n      dup3\n        /* \"#utility.yul\":2994:3003   */\n      dup7\n        /* \"#utility.yul\":2990:3012   */\n      add\n        /* \"#utility.yul\":2969:3022   */\n      tag_246\n      jump\t// in\n    tag_276:\n        /* \"#utility.yul\":2959:3022   */\n      swap3\n      pop\n        /* \"#utility.yul\":2915:3032   */\n      pop\n        /* \"#utility.yul\":3071:3073   */\n      0x20\n        /* \"#utility.yul\":3097:3150   */\n      tag_277\n        /* \"#utility.yul\":3142:3149   */\n      dup6\n        /* \"#utility.yul\":3133:3139   */\n      dup3\n        /* \"#utility.yul\":3122:3131   */\n      dup7\n        /* \"#utility.yul\":3118:3140   */\n      add\n        /* \"#utility.yul\":3097:3150   */\n      tag_246\n      jump\t// in\n    tag_277:\n        /* \"#utility.yul\":3087:3150   */\n      swap2\n      pop\n        /* \"#utility.yul\":3042:3160   */\n      pop\n        /* \"#utility.yul\":2693:3167   */\n      swap3\n      pop\n      swap3\n      swap1\n      pop\n      jump\t// out\n        /* \"#utility.yul\":3173:3792   */\n    tag_40:\n        /* \"#utility.yul\":3250:3256   */\n      0x00\n        /* \"#utility.yul\":3258:3264   */\n      dup1\n        /* \"#utility.yul\":3266:3272   */\n      0x00\n        /* \"#utility.yul\":3315:3317   */\n      0x60\n        /* \"#utility.yul\":3303:3312   */\n      dup5\n        /* \"#utility.yul\":3294:3301   */\n      dup7\n        /* \"#utility.yul\":3290:3313   */\n      sub\n        /* \"#utility.yul\":3286:3318   */\n      slt\n        /* \"#utility.yul\":3283:3402   */\n      iszero\n      tag_279\n      jumpi\n        /* \"#utility.yul\":3321:3400   */\n      tag_280\n      tag_271\n      jump\t// in\n    tag_280:\n        /* \"#utility.yul\":3283:3402   */\n    tag_279:\n        /* \"#utility.yul\":3441:3442   */\n      0x00\n        /* \"#utility.yul\":3466:3519   */\n      tag_281\n        /* \"#utility.yul\":3511:3518   */\n      dup7\n        /* \"#utility.yul\":3502:3508   */\n      dup3\n        /* \"#utility.yul\":3491:3500   */\n      dup8\n        /* \"#utility.yul\":3487:3509   */\n      add\n        /* \"#utility.yul\":3466:3519   */\n      tag_246\n      jump\t// in\n    tag_281:\n        /* \"#utility.yul\":3456:3519   */\n      swap4\n      pop\n        /* \"#utility.yul\":3412:3529   */\n      pop\n        /* \"#utility.yul\":3568:3570   */\n      0x20\n        /* \"#utility.yul\":3594:3647   */\n      tag_282\n        /* \"#utility.yul\":3639:3646   */\n      dup7\n        /* \"#utility.yul\":3630:3636   */\n      dup3\n        /* \"#utility.yul\":3619:3628   */\n      dup8\n        /* \"#utility.yul\":3615:3637   */\n      add\n        /* \"#utility.yul\":3594:3647   */\n      tag_246\n      jump\t// in\n    tag_282:\n        /* \"#utility.yul\":3584:3647   */\n      swap3\n      pop\n        /* \"#utility.yul\":3539:3657   */\n      pop\n        /* \"#utility.yul\":3696:3698   */\n      0x40\n        /* \"#utility.yul\":3722:3775   */\n      tag_283\n        /* \"#utility.yul\":3767:3774   */\n      dup7\n        /* \"#utility.yul\":3758:3764   */\n      dup3\n        /* \"#utility.yul\":3747:3756   */\n      dup8\n        /* \"#utility.yul\":3743:3765   */\n      add\n        /* \"#utility.yul\":3722:3775   */\n      tag_264\n      jump\t// in\n    tag_283:\n        /* \"#utility.yul\":3712:3775   */\n      swap2\n      pop\n        /* \"#utility.yul\":3667:3785   */\n      pop\n        /* \"#utility.yul\":3173:3792   */\n      swap3\n      pop\n      swap3\n      pop\n      swap3\n      jump\t// out\n        /* \"#utility.yul\":3798:4272   */\n    tag_32:\n        /* \"#utility.yul\":3866:3872   */\n      0x00\n        /* \"#utility.yul\":3874:3880   */\n      dup1\n        /* \"#utility.yul\":3923:3925   */\n      0x40\n        /* \"#utility.yul\":3911:3920   */\n      dup4\n        /* \"#utility.yul\":3902:3909   */\n      dup6\n        /* \"#utility.yul\":3898:3921   */\n      sub\n        /* \"#utility.yul\":3894:3926   */\n      slt\n        /* \"#utility.yul\":3891:4010   */\n      iszero\n      tag_285\n      jumpi\n        /* \"#utility.yul\":3929:4008   */\n      tag_286\n      tag_271\n      jump\t// in\n    tag_286:\n        /* \"#utility.yul\":3891:4010   */\n    tag_285:\n        /* \"#utility.yul\":4049:4050   */\n      0x00\n        /* \"#utility.yul\":4074:4127   */\n      tag_287\n        /* \"#utility.yul\":4119:4126   */\n      dup6\n        /* \"#utility.yul\":4110:4116   */\n      dup3\n        /* \"#utility.yul\":4099:4108   */\n      dup7\n        /* \"#utility.yul\":4095:4117   */\n      add\n        /* \"#utility.yul\":4074:4127   */\n      tag_246\n      jump\t// in\n    tag_287:\n        /* \"#utility.yul\":4064:4127   */\n      swap3\n      pop\n        /* \"#utility.yul\":4020:4137   */\n      pop\n        /* \"#utility.yul\":4176:4178   */\n      0x20\n        /* \"#utility.yul\":4202:4255   */\n      tag_288\n        /* \"#utility.yul\":4247:4254   */\n      dup6\n        /* \"#utility.yul\":4238:4244   */\n      dup3\n        /* \"#utility.yul\":4227:4236   */\n      dup7\n        /* \"#utility.yul\":4223:4245   */\n      add\n        /* \"#utility.yul\":4202:4255   */\n      tag_264\n      jump\t// in\n    tag_288:\n        /* \"#utility.yul\":4192:4255   */\n      swap2\n      pop\n        /* \"#utility.yul\":4147:4265   */\n      pop\n        /* \"#utility.yul\":3798:4272   */\n      swap3\n      pop\n      swap3\n      swap1\n      pop\n      jump\t// out\n        /* \"#utility.yul\":4278:4607   */\n    tag_85:\n        /* \"#utility.yul\":4337:4343   */\n      0x00\n        /* \"#utility.yul\":4386:4388   */\n      0x20\n        /* \"#utility.yul\":4374:4383   */\n      dup3\n        /* \"#utility.yul\":4365:4372   */\n      dup5\n        /* \"#utility.yul\":4361:4384   */\n      sub\n        /* \"#utility.yul\":4357:4389   */\n      slt\n        /* \"#utility.yul\":4354:4473   */\n      iszero\n      tag_290\n      jumpi\n        /* \"#utility.yul\":4392:4471   */\n      tag_291\n      tag_271\n      jump\t// in\n    tag_291:\n        /* \"#utility.yul\":4354:4473   */\n    tag_290:\n        /* \"#utility.yul\":4512:4513   */\n      0x00\n        /* \"#utility.yul\":4537:4590   */\n      tag_292\n        /* \"#utility.yul\":4582:4589   */\n      dup5\n        /* \"#utility.yul\":4573:4579   */\n      dup3\n        /* \"#utility.yul\":4562:4571   */\n      dup6\n        /* \"#utility.yul\":4558:4580   */\n      add\n        /* \"#utility.yul\":4537:4590   */\n      tag_235\n      jump\t// in\n    tag_292:\n        /* \"#utility.yul\":4527:4590   */\n      swap2\n      pop\n        /* \"#utility.yul\":4483:4600   */\n      pop\n        /* \"#utility.yul\":4278:4607   */\n      swap3\n      swap2\n      pop\n      pop\n      jump\t// out\n        /* \"#utility.yul\":4613:5087   */\n    tag_47:\n        /* \"#utility.yul\":4681:4687   */\n      0x00\n        /* \"#utility.yul\":4689:4695   */\n      dup1\n        /* \"#utility.yul\":4738:4740   */\n      0x40\n        /* \"#utility.yul\":4726:4735   */\n      dup4\n        /* \"#utility.yul\":4717:4724   */\n      dup6\n        /* \"#utility.yul\":4713:4736   */\n      sub\n        /* \"#utility.yul\":4709:4741   */\n      slt\n        /* \"#utility.yul\":4706:4825   */\n      iszero\n      tag_294\n      jumpi\n        /* \"#utility.yul\":4744:4823   */\n      tag_295\n      tag_271\n      jump\t// in\n    tag_295:\n        /* \"#utility.yul\":4706:4825   */\n    tag_294:\n        /* \"#utility.yul\":4864:4865   */\n      0x00\n        /* \"#utility.yul\":4889:4942   */\n      tag_296\n        /* \"#utility.yul\":4934:4941   */\n      dup6\n        /* \"#utility.yul\":4925:4931   */\n      dup3\n        /* \"#utility.yul\":4914:4923   */\n      dup7\n        /* \"#utility.yul\":4910:4932   */\n      add\n        /* \"#utility.yul\":4889:4942   */\n      tag_235\n      jump\t// in\n    tag_296:\n        /* \"#utility.yul\":4879:4942   */\n      swap3\n      pop\n        /* \"#utility.yul\":4835:4952   */\n      pop\n        /* \"#utility.yul\":4991:4993   */\n      0x20\n        /* \"#utility.yul\":5017:5070   */\n      tag_297\n        /* \"#utility.yul\":5062:5069   */\n      dup6\n        /* \"#utility.yul\":5053:5059   */\n      dup3\n        /* \"#utility.yul\":5042:5051   */\n      dup7\n        /* \"#utility.yul\":5038:5060   */\n      add\n        /* \"#utility.yul\":5017:5070   */\n      tag_264\n      jump\t// in\n    tag_297:\n        /* \"#utility.yul\":5007:5070   */\n      swap2\n      pop\n        /* \"#utility.yul\":4962:5080   */\n      pop\n        /* \"#utility.yul\":4613:5087   */\n      swap3\n      pop\n      swap3\n      swap1\n      pop\n      jump\t// out\n        /* \"#utility.yul\":5093:5892   */\n    tag_89:\n        /* \"#utility.yul\":5180:5186   */\n      0x00\n        /* \"#utility.yul\":5188:5194   */\n      dup1\n        /* \"#utility.yul\":5196:5202   */\n      0x00\n        /* \"#utility.yul\":5245:5247   */\n      0x60\n        /* \"#utility.yul\":5233:5242   */\n      dup5\n        /* \"#utility.yul\":5224:5231   */\n      dup7\n        /* \"#utility.yul\":5220:5243   */\n      sub\n        /* \"#utility.yul\":5216:5248   */\n      slt\n        /* \"#utility.yul\":5213:5332   */\n      iszero\n      tag_299\n      jumpi\n        /* \"#utility.yul\":5251:5330   */\n      tag_300\n      tag_271\n      jump\t// in\n    tag_300:\n        /* \"#utility.yul\":5213:5332   */\n    tag_299:\n        /* \"#utility.yul\":5371:5372   */\n      0x00\n        /* \"#utility.yul\":5396:5449   */\n      tag_301\n        /* \"#utility.yul\":5441:5448   */\n      dup7\n        /* \"#utility.yul\":5432:5438   */\n      dup3\n        /* \"#utility.yul\":5421:5430   */\n      dup8\n        /* \"#utility.yul\":5417:5439   */\n      add\n        /* \"#utility.yul\":5396:5449   */\n      tag_235\n      jump\t// in\n    tag_301:\n        /* \"#utility.yul\":5386:5449   */\n      swap4\n      pop\n        /* \"#utility.yul\":5342:5459   */\n      pop\n        /* \"#utility.yul\":5498:5500   */\n      0x20\n        /* \"#utility.yul\":5524:5577   */\n      tag_302\n        /* \"#utility.yul\":5569:5576   */\n      dup7\n        /* \"#utility.yul\":5560:5566   */\n      dup3\n        /* \"#utility.yul\":5549:5558   */\n      dup8\n        /* \"#utility.yul\":5545:5567   */\n      add\n        /* \"#utility.yul\":5524:5577   */\n      tag_264\n      jump\t// in\n    tag_302:\n        /* \"#utility.yul\":5514:5577   */\n      swap3\n      pop\n        /* \"#utility.yul\":5469:5587   */\n      pop\n        /* \"#utility.yul\":5654:5656   */\n      0x40\n        /* \"#utility.yul\":5643:5652   */\n      dup5\n        /* \"#utility.yul\":5639:5657   */\n      add\n        /* \"#utility.yul\":5626:5658   */\n      calldataload\n        /* \"#utility.yul\":5685:5703   */\n      0xffffffffffffffff\n        /* \"#utility.yul\":5677:5683   */\n      dup2\n        /* \"#utility.yul\":5674:5704   */\n      gt\n        /* \"#utility.yul\":5671:5788   */\n      iszero\n      tag_303\n      jumpi\n        /* \"#utility.yul\":5707:5786   */\n      tag_304\n      tag_305\n      jump\t// in\n    tag_304:\n        /* \"#utility.yul\":5671:5788   */\n    tag_303:\n        /* \"#utility.yul\":5812:5875   */\n      tag_306\n        /* \"#utility.yul\":5867:5874   */\n      dup7\n        /* \"#utility.yul\":5858:5864   */\n      dup3\n        /* \"#utility.yul\":5847:5856   */\n      dup8\n        /* \"#utility.yul\":5843:5865   */\n      add\n        /* \"#utility.yul\":5812:5875   */\n      tag_259\n      jump\t// in\n    tag_306:\n        /* \"#utility.yul\":5802:5875   */\n      swap2\n      pop\n        /* \"#utility.yul\":5597:5885   */\n      pop\n        /* \"#utility.yul\":5093:5892   */\n      swap3\n      pop\n      swap3\n      pop\n      swap3\n      jump\t// out\n        /* \"#utility.yul\":5898:6663   */\n    tag_76:\n        /* \"#utility.yul\":5984:5990   */\n      0x00\n        /* \"#utility.yul\":5992:5998   */\n      dup1\n        /* \"#utility.yul\":6000:6006   */\n      0x00\n        /* \"#utility.yul\":6008:6014   */\n      dup1\n        /* \"#utility.yul\":6057:6060   */\n      0x80\n        /* \"#utility.yul\":6045:6054   */\n      dup6\n        /* \"#utility.yul\":6036:6043   */\n      dup8\n        /* \"#utility.yul\":6032:6055   */\n      sub\n        /* \"#utility.yul\":6028:6061   */\n      slt\n        /* \"#utility.yul\":6025:6145   */\n      iszero\n      tag_308\n      jumpi\n        /* \"#utility.yul\":6064:6143   */\n      tag_309\n      tag_271\n      jump\t// in\n    tag_309:\n        /* \"#utility.yul\":6025:6145   */\n    tag_308:\n        /* \"#utility.yul\":6184:6185   */\n      0x00\n        /* \"#utility.yul\":6209:6262   */\n      tag_310\n        /* \"#utility.yul\":6254:6261   */\n      dup8\n        /* \"#utility.yul\":6245:6251   */\n      dup3\n        /* \"#utility.yul\":6234:6243   */\n      dup9\n        /* \"#utility.yul\":6230:6252   */\n      add\n        /* \"#utility.yul\":6209:6262   */\n      tag_235\n      jump\t// in\n    tag_310:\n        /* \"#utility.yul\":6199:6262   */\n      swap5\n      pop\n        /* \"#utility.yul\":6155:6272   */\n      pop\n        /* \"#utility.yul\":6311:6313   */\n      0x20\n        /* \"#utility.yul\":6337:6390   */\n      tag_311\n        /* \"#utility.yul\":6382:6389   */\n      dup8\n        /* \"#utility.yul\":6373:6379   */\n      dup3\n        /* \"#utility.yul\":6362:6371   */\n      dup9\n        /* \"#utility.yul\":6358:6380   */\n      add\n        /* \"#utility.yul\":6337:6390   */\n      tag_264\n      jump\t// in\n    tag_311:\n        /* \"#utility.yul\":6327:6390   */\n      swap4\n      pop\n        /* \"#utility.yul\":6282:6400   */\n      pop\n        /* \"#utility.yul\":6439:6441   */\n      0x40\n        /* \"#utility.yul\":6465:6518   */\n      tag_312\n        /* \"#utility.yul\":6510:6517   */\n      dup8\n        /* \"#utility.yul\":6501:6507   */\n      dup3\n        /* \"#utility.yul\":6490:6499   */\n      dup9\n        /* \"#utility.yul\":6486:6508   */\n      add\n        /* \"#utility.yul\":6465:6518   */\n      tag_264\n      jump\t// in\n    tag_312:\n        /* \"#utility.yul\":6455:6518   */\n      swap3\n      pop\n        /* \"#utility.yul\":6410:6528   */\n      pop\n        /* \"#utility.yul\":6567:6569   */\n      0x60\n        /* \"#utility.yul\":6593:6646   */\n      tag_313\n        /* \"#utility.yul\":6638:6645   */\n      dup8\n        /* \"#utility.yul\":6629:6635   */\n      dup3\n        /* \"#utility.yul\":6618:6627   */\n      dup9\n        /* \"#utility.yul\":6614:6636   */\n      add\n        /* \"#utility.yul\":6593:6646   */\n      tag_264\n      jump\t// in\n    tag_313:\n        /* \"#utility.yul\":6583:6646   */\n      swap2\n      pop\n        /* \"#utility.yul\":6538:6656   */\n      pop\n        /* \"#utility.yul\":5898:6663   */\n      swap3\n      swap6\n      swap2\n      swap5\n      pop\n      swap3\n      pop\n      jump\t// out\n        /* \"#utility.yul\":6669:8686   */\n    tag_72:\n        /* \"#utility.yul\":6853:6859   */\n      0x00\n        /* \"#utility.yul\":6861:6867   */\n      dup1\n        /* \"#utility.yul\":6869:6875   */\n      0x00\n        /* \"#utility.yul\":6877:6883   */\n      dup1\n        /* \"#utility.yul\":6885:6891   */\n      0x00\n        /* \"#utility.yul\":6893:6899   */\n      dup1\n        /* \"#utility.yul\":6942:6945   */\n      0xc0\n        /* \"#utility.yul\":6930:6939   */\n      dup8\n        /* \"#utility.yul\":6921:6928   */\n      dup10\n        /* \"#utility.yul\":6917:6940   */\n      sub\n        /* \"#utility.yul\":6913:6946   */\n      slt\n        /* \"#utility.yul\":6910:7030   */\n      iszero\n      tag_315\n      jumpi\n        /* \"#utility.yul\":6949:7028   */\n      tag_316\n      tag_271\n      jump\t// in\n    tag_316:\n        /* \"#utility.yul\":6910:7030   */\n    tag_315:\n        /* \"#utility.yul\":7097:7098   */\n      0x00\n        /* \"#utility.yul\":7086:7095   */\n      dup8\n        /* \"#utility.yul\":7082:7099   */\n      add\n        /* \"#utility.yul\":7069:7100   */\n      calldataload\n        /* \"#utility.yul\":7127:7145   */\n      0xffffffffffffffff\n        /* \"#utility.yul\":7119:7125   */\n      dup2\n        /* \"#utility.yul\":7116:7146   */\n      gt\n        /* \"#utility.yul\":7113:7230   */\n      iszero\n      tag_317\n      jumpi\n        /* \"#utility.yul\":7149:7228   */\n      tag_318\n      tag_305\n      jump\t// in\n    tag_318:\n        /* \"#utility.yul\":7113:7230   */\n    tag_317:\n        /* \"#utility.yul\":7254:7317   */\n      tag_319\n        /* \"#utility.yul\":7309:7316   */\n      dup10\n        /* \"#utility.yul\":7300:7306   */\n      dup3\n        /* \"#utility.yul\":7289:7298   */\n      dup11\n        /* \"#utility.yul\":7285:7307   */\n      add\n        /* \"#utility.yul\":7254:7317   */\n      tag_259\n      jump\t// in\n    tag_319:\n        /* \"#utility.yul\":7244:7317   */\n      swap7\n      pop\n        /* \"#utility.yul\":7040:7327   */\n      pop\n        /* \"#utility.yul\":7394:7396   */\n      0x20\n        /* \"#utility.yul\":7383:7392   */\n      dup8\n        /* \"#utility.yul\":7379:7397   */\n      add\n        /* \"#utility.yul\":7366:7398   */\n      calldataload\n        /* \"#utility.yul\":7425:7443   */\n      0xffffffffffffffff\n        /* \"#utility.yul\":7417:7423   */\n      dup2\n        /* \"#utility.yul\":7414:7444   */\n      gt\n        /* \"#utility.yul\":7411:7528   */\n      iszero\n      tag_320\n      jumpi\n        /* \"#utility.yul\":7447:7526   */\n      tag_321\n      tag_305\n      jump\t// in\n    tag_321:\n        /* \"#utility.yul\":7411:7528   */\n    tag_320:\n        /* \"#utility.yul\":7552:7615   */\n      tag_322\n        /* \"#utility.yul\":7607:7614   */\n      dup10\n        /* \"#utility.yul\":7598:7604   */\n      dup3\n        /* \"#utility.yul\":7587:7596   */\n      dup11\n        /* \"#utility.yul\":7583:7605   */\n      add\n        /* \"#utility.yul\":7552:7615   */\n      tag_259\n      jump\t// in\n    tag_322:\n        /* \"#utility.yul\":7542:7615   */\n      swap6\n      pop\n        /* \"#utility.yul\":7337:7625   */\n      pop\n        /* \"#utility.yul\":7692:7694   */\n      0x40\n        /* \"#utility.yul\":7681:7690   */\n      dup8\n        /* \"#utility.yul\":7677:7695   */\n      add\n        /* \"#utility.yul\":7664:7696   */\n      calldataload\n        /* \"#utility.yul\":7723:7741   */\n      0xffffffffffffffff\n        /* \"#utility.yul\":7715:7721   */\n      dup2\n        /* \"#utility.yul\":7712:7742   */\n      gt\n        /* \"#utility.yul\":7709:7826   */\n      iszero\n      tag_323\n      jumpi\n        /* \"#utility.yul\":7745:7824   */\n      tag_324\n      tag_305\n      jump\t// in\n    tag_324:\n        /* \"#utility.yul\":7709:7826   */\n    tag_323:\n        /* \"#utility.yul\":7850:7913   */\n      tag_325\n        /* \"#utility.yul\":7905:7912   */\n      dup10\n        /* \"#utility.yul\":7896:7902   */\n      dup3\n        /* \"#utility.yul\":7885:7894   */\n      dup11\n        /* \"#utility.yul\":7881:7903   */\n      add\n        /* \"#utility.yul\":7850:7913   */\n      tag_259\n      jump\t// in\n    tag_325:\n        /* \"#utility.yul\":7840:7913   */\n      swap5\n      pop\n        /* \"#utility.yul\":7635:7923   */\n      pop\n        /* \"#utility.yul\":7962:7964   */\n      0x60\n        /* \"#utility.yul\":7988:8041   */\n      tag_326\n        /* \"#utility.yul\":8033:8040   */\n      dup10\n        /* \"#utility.yul\":8024:8030   */\n      dup3\n        /* \"#utility.yul\":8013:8022   */\n      dup11\n        /* \"#utility.yul\":8009:8031   */\n      add\n        /* \"#utility.yul\":7988:8041   */\n      tag_264\n      jump\t// in\n    tag_326:\n        /* \"#utility.yul\":7978:8041   */\n      swap4\n      pop\n        /* \"#utility.yul\":7933:8051   */\n      pop\n        /* \"#utility.yul\":8118:8121   */\n      0x80\n        /* \"#utility.yul\":8107:8116   */\n      dup8\n        /* \"#utility.yul\":8103:8122   */\n      add\n        /* \"#utility.yul\":8090:8123   */\n      calldataload\n        /* \"#utility.yul\":8150:8168   */\n      0xffffffffffffffff\n        /* \"#utility.yul\":8142:8148   */\n      dup2\n        /* \"#utility.yul\":8139:8169   */\n      gt\n        /* \"#utility.yul\":8136:8253   */\n      iszero\n      tag_327\n      jumpi\n        /* \"#utility.yul\":8172:8251   */\n      tag_328\n      tag_305\n      jump\t// in\n    tag_328:\n        /* \"#utility.yul\":8136:8253   */\n    tag_327:\n        /* \"#utility.yul\":8277:8355   */\n      tag_329\n        /* \"#utility.yul\":8347:8354   */\n      dup10\n        /* \"#utility.yul\":8338:8344   */\n      dup3\n        /* \"#utility.yul\":8327:8336   */\n      dup11\n        /* \"#utility.yul\":8323:8345   */\n      add\n        /* \"#utility.yul\":8277:8355   */\n      tag_250\n      jump\t// in\n    tag_329:\n        /* \"#utility.yul\":8267:8355   */\n      swap3\n      pop\n        /* \"#utility.yul\":8061:8365   */\n      pop\n        /* \"#utility.yul\":8432:8435   */\n      0xa0\n        /* \"#utility.yul\":8421:8430   */\n      dup8\n        /* \"#utility.yul\":8417:8436   */\n      add\n        /* \"#utility.yul\":8404:8437   */\n      calldataload\n        /* \"#utility.yul\":8464:8482   */\n      0xffffffffffffffff\n        /* \"#utility.yul\":8456:8462   */\n      dup2\n        /* \"#utility.yul\":8453:8483   */\n      gt\n        /* \"#utility.yul\":8450:8567   */\n      iszero\n      tag_330\n      jumpi\n        /* \"#utility.yul\":8486:8565   */\n      tag_331\n      tag_305\n      jump\t// in\n    tag_331:\n        /* \"#utility.yul\":8450:8567   */\n    tag_330:\n        /* \"#utility.yul\":8591:8669   */\n      tag_332\n        /* \"#utility.yul\":8661:8668   */\n      dup10\n        /* \"#utility.yul\":8652:8658   */\n      dup3\n        /* \"#utility.yul\":8641:8650   */\n      dup11\n        /* \"#utility.yul\":8637:8659   */\n      add\n        /* \"#utility.yul\":8591:8669   */\n      tag_250\n      jump\t// in\n    tag_332:\n        /* \"#utility.yul\":8581:8669   */\n      swap2\n      pop\n        /* \"#utility.yul\":8375:8679   */\n      pop\n        /* \"#utility.yul\":6669:8686   */\n      swap3\n      swap6\n      pop\n      swap3\n      swap6\n      pop\n      swap3\n      swap6\n      jump\t// out\n        /* \"#utility.yul\":8692:9021   */\n    tag_61:\n        /* \"#utility.yul\":8751:8757   */\n      0x00\n        /* \"#utility.yul\":8800:8802   */\n      0x20\n        /* \"#utility.yul\":8788:8797   */\n      dup3\n        /* \"#utility.yul\":8779:8786   */\n      dup5\n        /* \"#utility.yul\":8775:8798   */\n      sub\n        /* \"#utility.yul\":8771:8803   */\n      slt\n        /* \"#utility.yul\":8768:8887   */\n      iszero\n      tag_334\n      jumpi\n        /* \"#utility.yul\":8806:8885   */\n      tag_335\n      tag_271\n      jump\t// in\n    tag_335:\n        /* \"#utility.yul\":8768:8887   */\n    tag_334:\n        /* \"#utility.yul\":8926:8927   */\n      0x00\n        /* \"#utility.yul\":8951:9004   */\n      tag_336\n        /* \"#utility.yul\":8996:9003   */\n      dup5\n        /* \"#utility.yul\":8987:8993   */\n      dup3\n        /* \"#utility.yul\":8976:8985   */\n      dup6\n        /* \"#utility.yul\":8972:8994   */\n      add\n        /* \"#utility.yul\":8951:9004   */\n      tag_264\n      jump\t// in\n    tag_336:\n        /* \"#utility.yul\":8941:9004   */\n      swap2\n      pop\n        /* \"#utility.yul\":8897:9014   */\n      pop\n        /* \"#utility.yul\":8692:9021   */\n      swap3\n      swap2\n      pop\n      pop\n      jump\t// out\n        /* \"#utility.yul\":9027:9501   */\n    tag_109:\n        /* \"#utility.yul\":9095:9101   */\n      0x00\n        /* \"#utility.yul\":9103:9109   */\n      dup1\n        /* \"#utility.yul\":9152:9154   */\n      0x40\n        /* \"#utility.yul\":9140:9149   */\n      dup4\n        /* \"#utility.yul\":9131:9138   */\n      dup6\n        /* \"#utility.yul\":9127:9150   */\n      sub\n        /* \"#utility.yul\":9123:9155   */\n      slt\n        /* \"#utility.yul\":9120:9239   */\n      iszero\n      tag_338\n      jumpi\n        /* \"#utility.yul\":9158:9237   */\n      tag_339\n      tag_271\n      jump\t// in\n    tag_339:\n        /* \"#utility.yul\":9120:9239   */\n    tag_338:\n        /* \"#utility.yul\":9278:9279   */\n      0x00\n        /* \"#utility.yul\":9303:9356   */\n      tag_340\n        /* \"#utility.yul\":9348:9355   */\n      dup6\n        /* \"#utility.yul\":9339:9345   */\n      dup3\n        /* \"#utility.yul\":9328:9337   */\n      dup7\n        /* \"#utility.yul\":9324:9346   */\n      add\n        /* \"#utility.yul\":9303:9356   */\n      tag_264\n      jump\t// in\n    tag_340:\n        /* \"#utility.yul\":9293:9356   */\n      swap3\n      pop\n        /* \"#utility.yul\":9249:9366   */\n      pop\n        /* \"#utility.yul\":9405:9407   */\n      0x20\n        /* \"#utility.yul\":9431:9484   */\n      tag_341\n        /* \"#utility.yul\":9476:9483   */\n      dup6\n        /* \"#utility.yul\":9467:9473   */\n      dup3\n        /* \"#utility.yul\":9456:9465   */\n      dup7\n        /* \"#utility.yul\":9452:9474   */\n      add\n        /* \"#utility.yul\":9431:9484   */\n      tag_264\n      jump\t// in\n    tag_341:\n        /* \"#utility.yul\":9421:9484   */\n      swap2\n      pop\n        /* \"#utility.yul\":9376:9494   */\n      pop\n        /* \"#utility.yul\":9027:9501   */\n      swap3\n      pop\n      swap3\n      swap1\n      pop\n      jump\t// out\n        /* \"#utility.yul\":9507:9625   */\n    tag_342:\n        /* \"#utility.yul\":9594:9618   */\n      tag_344\n        /* \"#utility.yul\":9612:9617   */\n      dup2\n        /* \"#utility.yul\":9594:9618   */\n      tag_345\n      jump\t// in\n    tag_344:\n        /* \"#utility.yul\":9589:9592   */\n      dup3\n        /* \"#utility.yul\":9582:9619   */\n      mstore\n        /* \"#utility.yul\":9507:9625   */\n      pop\n      pop\n      jump\t// out\n        /* \"#utility.yul\":9631:9740   */\n    tag_346:\n        /* \"#utility.yul\":9712:9733   */\n      tag_348\n        /* \"#utility.yul\":9727:9732   */\n      dup2\n        /* \"#utility.yul\":9712:9733   */\n      tag_349\n      jump\t// in\n    tag_348:\n        /* \"#utility.yul\":9707:9710   */\n      dup3\n        /* \"#utility.yul\":9700:9734   */\n      mstore\n        /* \"#utility.yul\":9631:9740   */\n      pop\n      pop\n      jump\t// out\n        /* \"#utility.yul\":9746:9864   */\n    tag_350:\n        /* \"#utility.yul\":9833:9857   */\n      tag_352\n        /* \"#utility.yul\":9851:9856   */\n      dup2\n        /* \"#utility.yul\":9833:9857   */\n      tag_353\n      jump\t// in\n    tag_352:\n        /* \"#utility.yul\":9828:9831   */\n      dup3\n        /* \"#utility.yul\":9821:9858   */\n      mstore\n        /* \"#utility.yul\":9746:9864   */\n      pop\n      pop\n      jump\t// out\n        /* \"#utility.yul\":9870:10234   */\n    tag_354:\n        /* \"#utility.yul\":9958:9961   */\n      0x00\n        /* \"#utility.yul\":9986:10025   */\n      tag_356\n        /* \"#utility.yul\":10019:10024   */\n      dup3\n        /* \"#utility.yul\":9986:10025   */\n      tag_357\n      jump\t// in\n    tag_356:\n        /* \"#utility.yul\":10041:10112   */\n      tag_358\n        /* \"#utility.yul\":10105:10111   */\n      dup2\n        /* \"#utility.yul\":10100:10103   */\n      dup6\n        /* \"#utility.yul\":10041:10112   */\n      tag_359\n      jump\t// in\n    tag_358:\n        /* \"#utility.yul\":10034:10112   */\n      swap4\n      pop\n        /* \"#utility.yul\":10121:10173   */\n      tag_360\n        /* \"#utility.yul\":10166:10172   */\n      dup2\n        /* \"#utility.yul\":10161:10164   */\n      dup6\n        /* \"#utility.yul\":10154:10158   */\n      0x20\n        /* \"#utility.yul\":10147:10152   */\n      dup7\n        /* \"#utility.yul\":10143:10159   */\n      add\n        /* \"#utility.yul\":10121:10173   */\n      tag_361\n      jump\t// in\n    tag_360:\n        /* \"#utility.yul\":10198:10227   */\n      tag_362\n        /* \"#utility.yul\":10220:10226   */\n      dup2\n        /* \"#utility.yul\":10198:10227   */\n      tag_363\n      jump\t// in\n    tag_362:\n        /* \"#utility.yul\":10193:10196   */\n      dup5\n        /* \"#utility.yul\":10189:10228   */\n      add\n        /* \"#utility.yul\":10182:10228   */\n      swap2\n      pop\n        /* \"#utility.yul\":9962:10234   */\n      pop\n        /* \"#utility.yul\":9870:10234   */\n      swap3\n      swap2\n      pop\n      pop\n      jump\t// out\n        /* \"#utility.yul\":10240:10617   */\n    tag_364:\n        /* \"#utility.yul\":10346:10349   */\n      0x00\n        /* \"#utility.yul\":10374:10413   */\n      tag_366\n        /* \"#utility.yul\":10407:10412   */\n      dup3\n        /* \"#utility.yul\":10374:10413   */\n      tag_357\n      jump\t// in\n    tag_366:\n        /* \"#utility.yul\":10429:10518   */\n      tag_367\n        /* \"#utility.yul\":10511:10517   */\n      dup2\n        /* \"#utility.yul\":10506:10509   */\n      dup6\n        /* \"#utility.yul\":10429:10518   */\n      tag_368\n      jump\t// in\n    tag_367:\n        /* \"#utility.yul\":10422:10518   */\n      swap4\n      pop\n        /* \"#utility.yul\":10527:10579   */\n      tag_369\n        /* \"#utility.yul\":10572:10578   */\n      dup2\n        /* \"#utility.yul\":10567:10570   */\n      dup6\n        /* \"#utility.yul\":10560:10564   */\n      0x20\n        /* \"#utility.yul\":10553:10558   */\n      dup7\n        /* \"#utility.yul\":10549:10565   */\n      add\n        /* \"#utility.yul\":10527:10579   */\n      tag_361\n      jump\t// in\n    tag_369:\n        /* \"#utility.yul\":10604:10610   */\n      dup1\n        /* \"#utility.yul\":10599:10602   */\n      dup5\n        /* \"#utility.yul\":10595:10611   */\n      add\n        /* \"#utility.yul\":10588:10611   */\n      swap2\n      pop\n        /* \"#utility.yul\":10350:10617   */\n      pop\n        /* \"#utility.yul\":10240:10617   */\n      swap3\n      swap2\n      pop\n      pop\n      jump\t// out\n        /* \"#utility.yul\":10623:10989   */\n    tag_370:\n        /* \"#utility.yul\":10765:10768   */\n      0x00\n        /* \"#utility.yul\":10786:10853   */\n      tag_372\n        /* \"#utility.yul\":10850:10852   */\n      0x18\n        /* \"#utility.yul\":10845:10848   */\n      dup4\n        /* \"#utility.yul\":10786:10853   */\n      tag_359\n      jump\t// in\n    tag_372:\n        /* \"#utility.yul\":10779:10853   */\n      swap2\n      pop\n        /* \"#utility.yul\":10862:10955   */\n      tag_373\n        /* \"#utility.yul\":10951:10954   */\n      dup3\n        /* \"#utility.yul\":10862:10955   */\n      tag_374\n      jump\t// in\n    tag_373:\n        /* \"#utility.yul\":10980:10982   */\n      0x20\n        /* \"#utility.yul\":10975:10978   */\n      dup3\n        /* \"#utility.yul\":10971:10983   */\n      add\n        /* \"#utility.yul\":10964:10983   */\n      swap1\n      pop\n        /* \"#utility.yul\":10623:10989   */\n      swap2\n      swap1\n      pop\n      jump\t// out\n        /* \"#utility.yul\":10995:11361   */\n    tag_375:\n        /* \"#utility.yul\":11137:11140   */\n      0x00\n        /* \"#utility.yul\":11158:11225   */\n      tag_377\n        /* \"#utility.yul\":11222:11224   */\n      0x17\n        /* \"#utility.yul\":11217:11220   */\n      dup4\n        /* \"#utility.yul\":11158:11225   */\n      tag_359\n      jump\t// in\n    tag_377:\n        /* \"#utility.yul\":11151:11225   */\n      swap2\n      pop\n        /* \"#utility.yul\":11234:11327   */\n      tag_378\n        /* \"#utility.yul\":11323:11326   */\n      dup3\n        /* \"#utility.yul\":11234:11327   */\n      tag_379\n      jump\t// in\n    tag_378:\n        /* \"#utility.yul\":11352:11354   */\n      0x20\n        /* \"#utility.yul\":11347:11350   */\n      dup3\n        /* \"#utility.yul\":11343:11355   */\n      add\n        /* \"#utility.yul\":11336:11355   */\n      swap1\n      pop\n        /* \"#utility.yul\":10995:11361   */\n      swap2\n      swap1\n      pop\n      jump\t// out\n        /* \"#utility.yul\":11367:11733   */\n    tag_380:\n        /* \"#utility.yul\":11509:11512   */\n      0x00\n        /* \"#utility.yul\":11530:11597   */\n      tag_382\n        /* \"#utility.yul\":11594:11596   */\n      0x15\n        /* \"#utility.yul\":11589:11592   */\n      dup4\n        /* \"#utility.yul\":11530:11597   */\n      tag_359\n      jump\t// in\n    tag_382:\n        /* \"#utility.yul\":11523:11597   */\n      swap2\n      pop\n        /* \"#utility.yul\":11606:11699   */\n      tag_383\n        /* \"#utility.yul\":11695:11698   */\n      dup3\n        /* \"#utility.yul\":11606:11699   */\n      tag_384\n      jump\t// in\n    tag_383:\n        /* \"#utility.yul\":11724:11726   */\n      0x20\n        /* \"#utility.yul\":11719:11722   */\n      dup3\n        /* \"#utility.yul\":11715:11727   */\n      add\n        /* \"#utility.yul\":11708:11727   */\n      swap1\n      pop\n        /* \"#utility.yul\":11367:11733   */\n      swap2\n      swap1\n      pop\n      jump\t// out\n        /* \"#utility.yul\":11739:12105   */\n    tag_385:\n        /* \"#utility.yul\":11881:11884   */\n      0x00\n        /* \"#utility.yul\":11902:11969   */\n      tag_387\n        /* \"#utility.yul\":11966:11968   */\n      0x10\n        /* \"#utility.yul\":11961:11964   */\n      dup4\n        /* \"#utility.yul\":11902:11969   */\n      tag_359\n      jump\t// in\n    tag_387:\n        /* \"#utility.yul\":11895:11969   */\n      swap2\n      pop\n        /* \"#utility.yul\":11978:12071   */\n      tag_388\n        /* \"#utility.yul\":12067:12070   */\n      dup3\n        /* \"#utility.yul\":11978:12071   */\n      tag_389\n      jump\t// in\n    tag_388:\n        /* \"#utility.yul\":12096:12098   */\n      0x20\n        /* \"#utility.yul\":12091:12094   */\n      dup3\n        /* \"#utility.yul\":12087:12099   */\n      add\n        /* \"#utility.yul\":12080:12099   */\n      swap1\n      pop\n        /* \"#utility.yul\":11739:12105   */\n      swap2\n      swap1\n      pop\n      jump\t// out\n        /* \"#utility.yul\":12111:12477   */\n    tag_390:\n        /* \"#utility.yul\":12253:12256   */\n      0x00\n        /* \"#utility.yul\":12274:12341   */\n      tag_392\n        /* \"#utility.yul\":12338:12340   */\n      0x21\n        /* \"#utility.yul\":12333:12336   */\n      dup4\n        /* \"#utility.yul\":12274:12341   */\n      tag_359\n      jump\t// in\n    tag_392:\n        /* \"#utility.yul\":12267:12341   */\n      swap2\n      pop\n        /* \"#utility.yul\":12350:12443   */\n      tag_393\n        /* \"#utility.yul\":12439:12442   */\n      dup3\n        /* \"#utility.yul\":12350:12443   */\n      tag_394\n      jump\t// in\n    tag_393:\n        /* \"#utility.yul\":12468:12470   */\n      0x40\n        /* \"#utility.yul\":12463:12466   */\n      dup3\n        /* \"#utility.yul\":12459:12471   */\n      add\n        /* \"#utility.yul\":12452:12471   */\n      swap1\n      pop\n        /* \"#utility.yul\":12111:12477   */\n      swap2\n      swap1\n      pop\n      jump\t// out\n        /* \"#utility.yul\":12483:12849   */\n    tag_395:\n        /* \"#utility.yul\":12625:12628   */\n      0x00\n        /* \"#utility.yul\":12646:12713   */\n      tag_397\n        /* \"#utility.yul\":12710:12712   */\n      0x10\n        /* \"#utility.yul\":12705:12708   */\n      dup4\n        /* \"#utility.yul\":12646:12713   */\n      tag_359\n      jump\t// in\n    tag_397:\n        /* \"#utility.yul\":12639:12713   */\n      swap2\n      pop\n        /* \"#utility.yul\":12722:12815   */\n      tag_398\n        /* \"#utility.yul\":12811:12814   */\n      dup3\n        /* \"#utility.yul\":12722:12815   */\n      tag_399\n      jump\t// in\n    tag_398:\n        /* \"#utility.yul\":12840:12842   */\n      0x20\n        /* \"#utility.yul\":12835:12838   */\n      dup3\n        /* \"#utility.yul\":12831:12843   */\n      add\n        /* \"#utility.yul\":12824:12843   */\n      swap1\n      pop\n        /* \"#utility.yul\":12483:12849   */\n      swap2\n      swap1\n      pop\n      jump\t// out\n        /* \"#utility.yul\":12855:12973   */\n    tag_400:\n        /* \"#utility.yul\":12942:12966   */\n      tag_402\n        /* \"#utility.yul\":12960:12965   */\n      dup2\n        /* \"#utility.yul\":12942:12966   */\n      tag_403\n      jump\t// in\n    tag_402:\n        /* \"#utility.yul\":12937:12940   */\n      dup3\n        /* \"#utility.yul\":12930:12967   */\n      mstore\n        /* \"#utility.yul\":12855:12973   */\n      pop\n      pop\n      jump\t// out\n        /* \"#utility.yul\":12979:13254   */\n    tag_153:\n        /* \"#utility.yul\":13111:13114   */\n      0x00\n        /* \"#utility.yul\":13133:13228   */\n      tag_405\n        /* \"#utility.yul\":13224:13227   */\n      dup3\n        /* \"#utility.yul\":13215:13221   */\n      dup5\n        /* \"#utility.yul\":13133:13228   */\n      tag_364\n      jump\t// in\n    tag_405:\n        /* \"#utility.yul\":13126:13228   */\n      swap2\n      pop\n        /* \"#utility.yul\":13245:13248   */\n      dup2\n        /* \"#utility.yul\":13238:13248   */\n      swap1\n      pop\n        /* \"#utility.yul\":12979:13254   */\n      swap3\n      swap2\n      pop\n      pop\n      jump\t// out\n        /* \"#utility.yul\":13260:13904   */\n    tag_64:\n        /* \"#utility.yul\":13457:13461   */\n      0x00\n        /* \"#utility.yul\":13495:13498   */\n      0x80\n        /* \"#utility.yul\":13484:13493   */\n      dup3\n        /* \"#utility.yul\":13480:13499   */\n      add\n        /* \"#utility.yul\":13472:13499   */\n      swap1\n      pop\n        /* \"#utility.yul\":13509:13580   */\n      tag_407\n        /* \"#utility.yul\":13577:13578   */\n      0x00\n        /* \"#utility.yul\":13566:13575   */\n      dup4\n        /* \"#utility.yul\":13562:13579   */\n      add\n        /* \"#utility.yul\":13553:13559   */\n      dup8\n        /* \"#utility.yul\":13509:13580   */\n      tag_350\n      jump\t// in\n    tag_407:\n        /* \"#utility.yul\":13590:13662   */\n      tag_408\n        /* \"#utility.yul\":13658:13660   */\n      0x20\n        /* \"#utility.yul\":13647:13656   */\n      dup4\n        /* \"#utility.yul\":13643:13661   */\n      add\n        /* \"#utility.yul\":13634:13640   */\n      dup7\n        /* \"#utility.yul\":13590:13662   */\n      tag_342\n      jump\t// in\n    tag_408:\n        /* \"#utility.yul\":13709:13718   */\n      dup2\n        /* \"#utility.yul\":13703:13707   */\n      dup2\n        /* \"#utility.yul\":13699:13719   */\n      sub\n        /* \"#utility.yul\":13694:13696   */\n      0x40\n        /* \"#utility.yul\":13683:13692   */\n      dup4\n        /* \"#utility.yul\":13679:13697   */\n      add\n        /* \"#utility.yul\":13672:13720   */\n      mstore\n        /* \"#utility.yul\":13737:13815   */\n      tag_409\n        /* \"#utility.yul\":13810:13814   */\n      dup2\n        /* \"#utility.yul\":13801:13807   */\n      dup6\n        /* \"#utility.yul\":13737:13815   */\n      tag_354\n      jump\t// in\n    tag_409:\n        /* \"#utility.yul\":13729:13815   */\n      swap1\n      pop\n        /* \"#utility.yul\":13825:13897   */\n      tag_410\n        /* \"#utility.yul\":13893:13895   */\n      0x60\n        /* \"#utility.yul\":13882:13891   */\n      dup4\n        /* \"#utility.yul\":13878:13896   */\n      add\n        /* \"#utility.yul\":13869:13875   */\n      dup5\n        /* \"#utility.yul\":13825:13897   */\n      tag_400\n      jump\t// in\n    tag_410:\n        /* \"#utility.yul\":13260:13904   */\n      swap6\n      swap5\n      pop\n      pop\n      pop\n      pop\n      pop\n      jump\t// out\n        /* \"#utility.yul\":13910:14223   */\n    tag_29:\n        /* \"#utility.yul\":14023:14027   */\n      0x00\n        /* \"#utility.yul\":14061:14063   */\n      0x20\n        /* \"#utility.yul\":14050:14059   */\n      dup3\n        /* \"#utility.yul\":14046:14064   */\n      add\n        /* \"#utility.yul\":14038:14064   */\n      swap1\n      pop\n        /* \"#utility.yul\":14110:14119   */\n      dup2\n        /* \"#utility.yul\":14104:14108   */\n      dup2\n        /* \"#utility.yul\":14100:14120   */\n      sub\n        /* \"#utility.yul\":14096:14097   */\n      0x00\n        /* \"#utility.yul\":14085:14094   */\n      dup4\n        /* \"#utility.yul\":14081:14098   */\n      add\n        /* \"#utility.yul\":14074:14121   */\n      mstore\n        /* \"#utility.yul\":14138:14216   */\n      tag_412\n        /* \"#utility.yul\":14211:14215   */\n      dup2\n        /* \"#utility.yul\":14202:14208   */\n      dup5\n        /* \"#utility.yul\":14138:14216   */\n      tag_354\n      jump\t// in\n    tag_412:\n        /* \"#utility.yul\":14130:14216   */\n      swap1\n      pop\n        /* \"#utility.yul\":13910:14223   */\n      swap3\n      swap2\n      pop\n      pop\n      jump\t// out\n        /* \"#utility.yul\":14229:15265   */\n    tag_106:\n        /* \"#utility.yul\":14516:14520   */\n      0x00\n        /* \"#utility.yul\":14554:14557   */\n      0xc0\n        /* \"#utility.yul\":14543:14552   */\n      dup3\n        /* \"#utility.yul\":14539:14558   */\n      add\n        /* \"#utility.yul\":14531:14558   */\n      swap1\n      pop\n        /* \"#utility.yul\":14604:14613   */\n      dup2\n        /* \"#utility.yul\":14598:14602   */\n      dup2\n        /* \"#utility.yul\":14594:14614   */\n      sub\n        /* \"#utility.yul\":14590:14591   */\n      0x00\n        /* \"#utility.yul\":14579:14588   */\n      dup4\n        /* \"#utility.yul\":14575:14592   */\n      add\n        /* \"#utility.yul\":14568:14615   */\n      mstore\n        /* \"#utility.yul\":14632:14710   */\n      tag_414\n        /* \"#utility.yul\":14705:14709   */\n      dup2\n        /* \"#utility.yul\":14696:14702   */\n      dup10\n        /* \"#utility.yul\":14632:14710   */\n      tag_354\n      jump\t// in\n    tag_414:\n        /* \"#utility.yul\":14624:14710   */\n      swap1\n      pop\n        /* \"#utility.yul\":14757:14766   */\n      dup2\n        /* \"#utility.yul\":14751:14755   */\n      dup2\n        /* \"#utility.yul\":14747:14767   */\n      sub\n        /* \"#utility.yul\":14742:14744   */\n      0x20\n        /* \"#utility.yul\":14731:14740   */\n      dup4\n        /* \"#utility.yul\":14727:14745   */\n      add\n        /* \"#utility.yul\":14720:14768   */\n      mstore\n        /* \"#utility.yul\":14785:14863   */\n      tag_415\n        /* \"#utility.yul\":14858:14862   */\n      dup2\n        /* \"#utility.yul\":14849:14855   */\n      dup9\n        /* \"#utility.yul\":14785:14863   */\n      tag_354\n      jump\t// in\n    tag_415:\n        /* \"#utility.yul\":14777:14863   */\n      swap1\n      pop\n        /* \"#utility.yul\":14910:14919   */\n      dup2\n        /* \"#utility.yul\":14904:14908   */\n      dup2\n        /* \"#utility.yul\":14900:14920   */\n      sub\n        /* \"#utility.yul\":14895:14897   */\n      0x40\n        /* \"#utility.yul\":14884:14893   */\n      dup4\n        /* \"#utility.yul\":14880:14898   */\n      add\n        /* \"#utility.yul\":14873:14921   */\n      mstore\n        /* \"#utility.yul\":14938:15016   */\n      tag_416\n        /* \"#utility.yul\":15011:15015   */\n      dup2\n        /* \"#utility.yul\":15002:15008   */\n      dup8\n        /* \"#utility.yul\":14938:15016   */\n      tag_354\n      jump\t// in\n    tag_416:\n        /* \"#utility.yul\":14930:15016   */\n      swap1\n      pop\n        /* \"#utility.yul\":15026:15098   */\n      tag_417\n        /* \"#utility.yul\":15094:15096   */\n      0x60\n        /* \"#utility.yul\":15083:15092   */\n      dup4\n        /* \"#utility.yul\":15079:15097   */\n      add\n        /* \"#utility.yul\":15070:15076   */\n      dup7\n        /* \"#utility.yul\":15026:15098   */\n      tag_400\n      jump\t// in\n    tag_417:\n        /* \"#utility.yul\":15108:15181   */\n      tag_418\n        /* \"#utility.yul\":15176:15179   */\n      0x80\n        /* \"#utility.yul\":15165:15174   */\n      dup4\n        /* \"#utility.yul\":15161:15180   */\n      add\n        /* \"#utility.yul\":15152:15158   */\n      dup6\n        /* \"#utility.yul\":15108:15181   */\n      tag_342\n      jump\t// in\n    tag_418:\n        /* \"#utility.yul\":15191:15258   */\n      tag_419\n        /* \"#utility.yul\":15253:15256   */\n      0xa0\n        /* \"#utility.yul\":15242:15251   */\n      dup4\n        /* \"#utility.yul\":15238:15257   */\n      add\n        /* \"#utility.yul\":15229:15235   */\n      dup5\n        /* \"#utility.yul\":15191:15258   */\n      tag_346\n      jump\t// in\n    tag_419:\n        /* \"#utility.yul\":14229:15265   */\n      swap8\n      swap7\n      pop\n      pop\n      pop\n      pop\n      pop\n      pop\n      pop\n      jump\t// out\n        /* \"#utility.yul\":15271:15690   */\n    tag_203:\n        /* \"#utility.yul\":15437:15441   */\n      0x00\n        /* \"#utility.yul\":15475:15477   */\n      0x20\n        /* \"#utility.yul\":15464:15473   */\n      dup3\n        /* \"#utility.yul\":15460:15478   */\n      add\n        /* \"#utility.yul\":15452:15478   */\n      swap1\n      pop\n        /* \"#utility.yul\":15524:15533   */\n      dup2\n        /* \"#utility.yul\":15518:15522   */\n      dup2\n        /* \"#utility.yul\":15514:15534   */\n      sub\n        /* \"#utility.yul\":15510:15511   */\n      0x00\n        /* \"#utility.yul\":15499:15508   */\n      dup4\n        /* \"#utility.yul\":15495:15512   */\n      add\n        /* \"#utility.yul\":15488:15535   */\n      mstore\n        /* \"#utility.yul\":15552:15683   */\n      tag_421\n        /* \"#utility.yul\":15678:15682   */\n      dup2\n        /* \"#utility.yul\":15552:15683   */\n      tag_370\n      jump\t// in\n    tag_421:\n        /* \"#utility.yul\":15544:15683   */\n      swap1\n      pop\n        /* \"#utility.yul\":15271:15690   */\n      swap2\n      swap1\n      pop\n      jump\t// out\n        /* \"#utility.yul\":15696:16115   */\n    tag_164:\n        /* \"#utility.yul\":15862:15866   */\n      0x00\n        /* \"#utility.yul\":15900:15902   */\n      0x20\n        /* \"#utility.yul\":15889:15898   */\n      dup3\n        /* \"#utility.yul\":15885:15903   */\n      add\n        /* \"#utility.yul\":15877:15903   */\n      swap1\n      pop\n        /* \"#utility.yul\":15949:15958   */\n      dup2\n        /* \"#utility.yul\":15943:15947   */\n      dup2\n        /* \"#utility.yul\":15939:15959   */\n      sub\n        /* \"#utility.yul\":15935:15936   */\n      0x00\n        /* \"#utility.yul\":15924:15933   */\n      dup4\n        /* \"#utility.yul\":15920:15937   */\n      add\n        /* \"#utility.yul\":15913:15960   */\n      mstore\n        /* \"#utility.yul\":15977:16108   */\n      tag_423\n        /* \"#utility.yul\":16103:16107   */\n      dup2\n        /* \"#utility.yul\":15977:16108   */\n      tag_375\n      jump\t// in\n    tag_423:\n        /* \"#utility.yul\":15969:16108   */\n      swap1\n      pop\n        /* \"#utility.yul\":15696:16115   */\n      swap2\n      swap1\n      pop\n      jump\t// out\n        /* \"#utility.yul\":16121:16540   */\n    tag_122:\n        /* \"#utility.yul\":16287:16291   */\n      0x00\n        /* \"#utility.yul\":16325:16327   */\n      0x20\n        /* \"#utility.yul\":16314:16323   */\n      dup3\n        /* \"#utility.yul\":16310:16328   */\n      add\n        /* \"#utility.yul\":16302:16328   */\n      swap1\n      pop\n        /* \"#utility.yul\":16374:16383   */\n      dup2\n        /* \"#utility.yul\":16368:16372   */\n      dup2\n        /* \"#utility.yul\":16364:16384   */\n      sub\n        /* \"#utility.yul\":16360:16361   */\n      0x00\n        /* \"#utility.yul\":16349:16358   */\n      dup4\n        /* \"#utility.yul\":16345:16362   */\n      add\n        /* \"#utility.yul\":16338:16385   */\n      mstore\n        /* \"#utility.yul\":16402:16533   */\n      tag_425\n        /* \"#utility.yul\":16528:16532   */\n      dup2\n        /* \"#utility.yul\":16402:16533   */\n      tag_380\n      jump\t// in\n    tag_425:\n        /* \"#utility.yul\":16394:16533   */\n      swap1\n      pop\n        /* \"#utility.yul\":16121:16540   */\n      swap2\n      swap1\n      pop\n      jump\t// out\n        /* \"#utility.yul\":16546:16965   */\n    tag_182:\n        /* \"#utility.yul\":16712:16716   */\n      0x00\n        /* \"#utility.yul\":16750:16752   */\n      0x20\n        /* \"#utility.yul\":16739:16748   */\n      dup3\n        /* \"#utility.yul\":16735:16753   */\n      add\n        /* \"#utility.yul\":16727:16753   */\n      swap1\n      pop\n        /* \"#utility.yul\":16799:16808   */\n      dup2\n        /* \"#utility.yul\":16793:16797   */\n      dup2\n        /* \"#utility.yul\":16789:16809   */\n      sub\n        /* \"#utility.yul\":16785:16786   */\n      0x00\n        /* \"#utility.yul\":16774:16783   */\n      dup4\n        /* \"#utility.yul\":16770:16787   */\n      add\n        /* \"#utility.yul\":16763:16810   */\n      mstore\n        /* \"#utility.yul\":16827:16958   */\n      tag_427\n        /* \"#utility.yul\":16953:16957   */\n      dup2\n        /* \"#utility.yul\":16827:16958   */\n      tag_385\n      jump\t// in\n    tag_427:\n        /* \"#utility.yul\":16819:16958   */\n      swap1\n      pop\n        /* \"#utility.yul\":16546:16965   */\n      swap2\n      swap1\n      pop\n      jump\t// out\n        /* \"#utility.yul\":16971:17390   */\n    tag_171:\n        /* \"#utility.yul\":17137:17141   */\n      0x00\n        /* \"#utility.yul\":17175:17177   */\n      0x20\n        /* \"#utility.yul\":17164:17173   */\n      dup3\n        /* \"#utility.yul\":17160:17178   */\n      add\n        /* \"#utility.yul\":17152:17178   */\n      swap1\n      pop\n        /* \"#utility.yul\":17224:17233   */\n      dup2\n        /* \"#utility.yul\":17218:17222   */\n      dup2\n        /* \"#utility.yul\":17214:17234   */\n      sub\n        /* \"#utility.yul\":17210:17211   */\n      0x00\n        /* \"#utility.yul\":17199:17208   */\n      dup4\n        /* \"#utility.yul\":17195:17212   */\n      add\n        /* \"#utility.yul\":17188:17235   */\n      mstore\n        /* \"#utility.yul\":17252:17383   */\n      tag_429\n        /* \"#utility.yul\":17378:17382   */\n      dup2\n        /* \"#utility.yul\":17252:17383   */\n      tag_390\n      jump\t// in\n    tag_429:\n        /* \"#utility.yul\":17244:17383   */\n      swap1\n      pop\n        /* \"#utility.yul\":16971:17390   */\n      swap2\n      swap1\n      pop\n      jump\t// out\n        /* \"#utility.yul\":17396:17815   */\n    tag_114:\n        /* \"#utility.yul\":17562:17566   */\n      0x00\n        /* \"#utility.yul\":17600:17602   */\n      0x20\n        /* \"#utility.yul\":17589:17598   */\n      dup3\n        /* \"#utility.yul\":17585:17603   */\n      add\n        /* \"#utility.yul\":17577:17603   */\n      swap1\n      pop\n        /* \"#utility.yul\":17649:17658   */\n      dup2\n        /* \"#utility.yul\":17643:17647   */\n      dup2\n        /* \"#utility.yul\":17639:17659   */\n      sub\n        /* \"#utility.yul\":17635:17636   */\n      0x00\n        /* \"#utility.yul\":17624:17633   */\n      dup4\n        /* \"#utility.yul\":17620:17637   */\n      add\n        /* \"#utility.yul\":17613:17660   */\n      mstore\n        /* \"#utility.yul\":17677:17808   */\n      tag_431\n        /* \"#utility.yul\":17803:17807   */\n      dup2\n        /* \"#utility.yul\":17677:17808   */\n      tag_395\n      jump\t// in\n    tag_431:\n        /* \"#utility.yul\":17669:17808   */\n      swap1\n      pop\n        /* \"#utility.yul\":17396:17815   */\n      swap2\n      swap1\n      pop\n      jump\t// out\n        /* \"#utility.yul\":17821:18043   */\n    tag_37:\n        /* \"#utility.yul\":17914:17918   */\n      0x00\n        /* \"#utility.yul\":17952:17954   */\n      0x20\n        /* \"#utility.yul\":17941:17950   */\n      dup3\n        /* \"#utility.yul\":17937:17955   */\n      add\n        /* \"#utility.yul\":17929:17955   */\n      swap1\n      pop\n        /* \"#utility.yul\":17965:18036   */\n      tag_433\n        /* \"#utility.yul\":18033:18034   */\n      0x00\n        /* \"#utility.yul\":18022:18031   */\n      dup4\n        /* \"#utility.yul\":18018:18035   */\n      add\n        /* \"#utility.yul\":18009:18015   */\n      dup5\n        /* \"#utility.yul\":17965:18036   */\n      tag_400\n      jump\t// in\n    tag_433:\n        /* \"#utility.yul\":17821:18043   */\n      swap3\n      swap2\n      pop\n      pop\n      jump\t// out\n        /* \"#utility.yul\":18049:18582   */\n    tag_50:\n        /* \"#utility.yul\":18218:18222   */\n      0x00\n        /* \"#utility.yul\":18256:18258   */\n      0x60\n        /* \"#utility.yul\":18245:18254   */\n      dup3\n        /* \"#utility.yul\":18241:18259   */\n      add\n        /* \"#utility.yul\":18233:18259   */\n      swap1\n      pop\n        /* \"#utility.yul\":18269:18340   */\n      tag_435\n        /* \"#utility.yul\":18337:18338   */\n      0x00\n        /* \"#utility.yul\":18326:18335   */\n      dup4\n        /* \"#utility.yul\":18322:18339   */\n      add\n        /* \"#utility.yul\":18313:18319   */\n      dup7\n        /* \"#utility.yul\":18269:18340   */\n      tag_400\n      jump\t// in\n    tag_435:\n        /* \"#utility.yul\":18387:18396   */\n      dup2\n        /* \"#utility.yul\":18381:18385   */\n      dup2\n        /* \"#utility.yul\":18377:18397   */\n      sub\n        /* \"#utility.yul\":18372:18374   */\n      0x20\n        /* \"#utility.yul\":18361:18370   */\n      dup4\n        /* \"#utility.yul\":18357:18375   */\n      add\n        /* \"#utility.yul\":18350:18398   */\n      mstore\n        /* \"#utility.yul\":18415:18493   */\n      tag_436\n        /* \"#utility.yul\":18488:18492   */\n      dup2\n        /* \"#utility.yul\":18479:18485   */\n      dup6\n        /* \"#utility.yul\":18415:18493   */\n      tag_354\n      jump\t// in\n    tag_436:\n        /* \"#utility.yul\":18407:18493   */\n      swap1\n      pop\n        /* \"#utility.yul\":18503:18575   */\n      tag_437\n        /* \"#utility.yul\":18571:18573   */\n      0x40\n        /* \"#utility.yul\":18560:18569   */\n      dup4\n        /* \"#utility.yul\":18556:18574   */\n      add\n        /* \"#utility.yul\":18547:18553   */\n      dup5\n        /* \"#utility.yul\":18503:18575   */\n      tag_342\n      jump\t// in\n    tag_437:\n        /* \"#utility.yul\":18049:18582   */\n      swap5\n      swap4\n      pop\n      pop\n      pop\n      pop\n      jump\t// out\n        /* \"#utility.yul\":18588:18920   */\n    tag_98:\n        /* \"#utility.yul\":18709:18713   */\n      0x00\n        /* \"#utility.yul\":18747:18749   */\n      0x40\n        /* \"#utility.yul\":18736:18745   */\n      dup3\n        /* \"#utility.yul\":18732:18750   */\n      add\n        /* \"#utility.yul\":18724:18750   */\n      swap1\n      pop\n        /* \"#utility.yul\":18760:18831   */\n      tag_439\n        /* \"#utility.yul\":18828:18829   */\n      0x00\n        /* \"#utility.yul\":18817:18826   */\n      dup4\n        /* \"#utility.yul\":18813:18830   */\n      add\n        /* \"#utility.yul\":18804:18810   */\n      dup6\n        /* \"#utility.yul\":18760:18831   */\n      tag_400\n      jump\t// in\n    tag_439:\n        /* \"#utility.yul\":18841:18913   */\n      tag_440\n        /* \"#utility.yul\":18909:18911   */\n      0x20\n        /* \"#utility.yul\":18898:18907   */\n      dup4\n        /* \"#utility.yul\":18894:18912   */\n      add\n        /* \"#utility.yul\":18885:18891   */\n      dup5\n        /* \"#utility.yul\":18841:18913   */\n      tag_400\n      jump\t// in\n    tag_440:\n        /* \"#utility.yul\":18588:18920   */\n      swap4\n      swap3\n      pop\n      pop\n      pop\n      jump\t// out\n        /* \"#utility.yul\":18926:19479   */\n    tag_55:\n        /* \"#utility.yul\":19103:19107   */\n      0x00\n        /* \"#utility.yul\":19141:19144   */\n      0x80\n        /* \"#utility.yul\":19130:19139   */\n      dup3\n        /* \"#utility.yul\":19126:19145   */\n      add\n        /* \"#utility.yul\":19118:19145   */\n      swap1\n      pop\n        /* \"#utility.yul\":19155:19226   */\n      tag_442\n        /* \"#utility.yul\":19223:19224   */\n      0x00\n        /* \"#utility.yul\":19212:19221   */\n      dup4\n        /* \"#utility.yul\":19208:19225   */\n      add\n        /* \"#utility.yul\":19199:19205   */\n      dup8\n        /* \"#utility.yul\":19155:19226   */\n      tag_400\n      jump\t// in\n    tag_442:\n        /* \"#utility.yul\":19236:19308   */\n      tag_443\n        /* \"#utility.yul\":19304:19306   */\n      0x20\n        /* \"#utility.yul\":19293:19302   */\n      dup4\n        /* \"#utility.yul\":19289:19307   */\n      add\n        /* \"#utility.yul\":19280:19286   */\n      dup7\n        /* \"#utility.yul\":19236:19308   */\n      tag_400\n      jump\t// in\n    tag_443:\n        /* \"#utility.yul\":19318:19390   */\n      tag_444\n        /* \"#utility.yul\":19386:19388   */\n      0x40\n        /* \"#utility.yul\":19375:19384   */\n      dup4\n        /* \"#utility.yul\":19371:19389   */\n      add\n        /* \"#utility.yul\":19362:19368   */\n      dup6\n        /* \"#utility.yul\":19318:19390   */\n      tag_342\n      jump\t// in\n    tag_444:\n        /* \"#utility.yul\":19400:19472   */\n      tag_445\n        /* \"#utility.yul\":19468:19470   */\n      0x60\n        /* \"#utility.yul\":19457:19466   */\n      dup4\n        /* \"#utility.yul\":19453:19471   */\n      add\n        /* \"#utility.yul\":19444:19450   */\n      dup5\n        /* \"#utility.yul\":19400:19472   */\n      tag_400\n      jump\t// in\n    tag_445:\n        /* \"#utility.yul\":18926:19479   */\n      swap6\n      swap5\n      pop\n      pop\n      pop\n      pop\n      pop\n      jump\t// out\n        /* \"#utility.yul\":19485:19614   */\n    tag_227:\n        /* \"#utility.yul\":19519:19525   */\n      0x00\n        /* \"#utility.yul\":19546:19566   */\n      tag_447\n      tag_448\n      jump\t// in\n    tag_447:\n        /* \"#utility.yul\":19536:19566   */\n      swap1\n      pop\n        /* \"#utility.yul\":19575:19608   */\n      tag_449\n        /* \"#utility.yul\":19603:19607   */\n      dup3\n        /* \"#utility.yul\":19595:19601   */\n      dup3\n        /* \"#utility.yul\":19575:19608   */\n      tag_450\n      jump\t// in\n    tag_449:\n        /* \"#utility.yul\":19485:19614   */\n      swap2\n      swap1\n      pop\n      jump\t// out\n        /* \"#utility.yul\":19620:19695   */\n    tag_448:\n        /* \"#utility.yul\":19653:19659   */\n      0x00\n        /* \"#utility.yul\":19686:19688   */\n      0x40\n        /* \"#utility.yul\":19680:19689   */\n      mload\n        /* \"#utility.yul\":19670:19689   */\n      swap1\n      pop\n        /* \"#utility.yul\":19620:19695   */\n      swap1\n      jump\t// out\n        /* \"#utility.yul\":19701:20012   */\n    tag_226:\n        /* \"#utility.yul\":19778:19782   */\n      0x00\n        /* \"#utility.yul\":19868:19886   */\n      0xffffffffffffffff\n        /* \"#utility.yul\":19860:19866   */\n      dup3\n        /* \"#utility.yul\":19857:19887   */\n      gt\n        /* \"#utility.yul\":19854:19910   */\n      iszero\n      tag_453\n      jumpi\n        /* \"#utility.yul\":19890:19908   */\n      tag_454\n      tag_455\n      jump\t// in\n    tag_454:\n        /* \"#utility.yul\":19854:19910   */\n    tag_453:\n        /* \"#utility.yul\":19940:19944   */\n      0x20\n        /* \"#utility.yul\":19932:19938   */\n      dup3\n        /* \"#utility.yul\":19928:19945   */\n      mul\n        /* \"#utility.yul\":19920:19945   */\n      swap1\n      pop\n        /* \"#utility.yul\":20000:20004   */\n      0x20\n        /* \"#utility.yul\":19994:19998   */\n      dup2\n        /* \"#utility.yul\":19990:20005   */\n      add\n        /* \"#utility.yul\":19982:20005   */\n      swap1\n      pop\n        /* \"#utility.yul\":19701:20012   */\n      swap2\n      swap1\n      pop\n      jump\t// out\n        /* \"#utility.yul\":20018:20326   */\n    tag_240:\n        /* \"#utility.yul\":20080:20084   */\n      0x00\n        /* \"#utility.yul\":20170:20188   */\n      0xffffffffffffffff\n        /* \"#utility.yul\":20162:20168   */\n      dup3\n        /* \"#utility.yul\":20159:20189   */\n      gt\n        /* \"#utility.yul\":20156:20212   */\n      iszero\n      tag_457\n      jumpi\n        /* \"#utility.yul\":20192:20210   */\n      tag_458\n      tag_455\n      jump\t// in\n    tag_458:\n        /* \"#utility.yul\":20156:20212   */\n    tag_457:\n        /* \"#utility.yul\":20230:20259   */\n      tag_459\n        /* \"#utility.yul\":20252:20258   */\n      dup3\n        /* \"#utility.yul\":20230:20259   */\n      tag_363\n      jump\t// in\n    tag_459:\n        /* \"#utility.yul\":20222:20259   */\n      swap1\n      pop\n        /* \"#utility.yul\":20314:20318   */\n      0x20\n        /* \"#utility.yul\":20308:20312   */\n      dup2\n        /* \"#utility.yul\":20304:20319   */\n      add\n        /* \"#utility.yul\":20296:20319   */\n      swap1\n      pop\n        /* \"#utility.yul\":20018:20326   */\n      swap2\n      swap1\n      pop\n      jump\t// out\n        /* \"#utility.yul\":20332:20431   */\n    tag_357:\n        /* \"#utility.yul\":20384:20390   */\n      0x00\n        /* \"#utility.yul\":20418:20423   */\n      dup2\n        /* \"#utility.yul\":20412:20424   */\n      mload\n        /* \"#utility.yul\":20402:20424   */\n      swap1\n      pop\n        /* \"#utility.yul\":20332:20431   */\n      swap2\n      swap1\n      pop\n      jump\t// out\n        /* \"#utility.yul\":20437:20606   */\n    tag_359:\n        /* \"#utility.yul\":20521:20532   */\n      0x00\n        /* \"#utility.yul\":20555:20561   */\n      dup3\n        /* \"#utility.yul\":20550:20553   */\n      dup3\n        /* \"#utility.yul\":20543:20562   */\n      mstore\n        /* \"#utility.yul\":20595:20599   */\n      0x20\n        /* \"#utility.yul\":20590:20593   */\n      dup3\n        /* \"#utility.yul\":20586:20600   */\n      add\n        /* \"#utility.yul\":20571:20600   */\n      swap1\n      pop\n        /* \"#utility.yul\":20437:20606   */\n      swap3\n      swap2\n      pop\n      pop\n      jump\t// out\n        /* \"#utility.yul\":20612:20760   */\n    tag_368:\n        /* \"#utility.yul\":20714:20725   */\n      0x00\n        /* \"#utility.yul\":20751:20754   */\n      dup2\n        /* \"#utility.yul\":20736:20754   */\n      swap1\n      pop\n        /* \"#utility.yul\":20612:20760   */\n      swap3\n      swap2\n      pop\n      pop\n      jump\t// out\n        /* \"#utility.yul\":20766:21071   */\n    tag_119:\n        /* \"#utility.yul\":20806:20809   */\n      0x00\n        /* \"#utility.yul\":20825:20845   */\n      tag_464\n        /* \"#utility.yul\":20843:20844   */\n      dup3\n        /* \"#utility.yul\":20825:20845   */\n      tag_403\n      jump\t// in\n    tag_464:\n        /* \"#utility.yul\":20820:20845   */\n      swap2\n      pop\n        /* \"#utility.yul\":20859:20879   */\n      tag_465\n        /* \"#utility.yul\":20877:20878   */\n      dup4\n        /* \"#utility.yul\":20859:20879   */\n      tag_403\n      jump\t// in\n    tag_465:\n        /* \"#utility.yul\":20854:20879   */\n      swap3\n      pop\n        /* \"#utility.yul\":21013:21014   */\n      dup3\n        /* \"#utility.yul\":20945:21011   */\n      0xffffffffffffffffffffffffffffffffffffffffffffffffffffffffffffffff\n        /* \"#utility.yul\":20941:21015   */\n      sub\n        /* \"#utility.yul\":20938:20939   */\n      dup3\n        /* \"#utility.yul\":20935:21016   */\n      gt\n        /* \"#utility.yul\":20932:21039   */\n      iszero\n      tag_466\n      jumpi\n        /* \"#utility.yul\":21019:21037   */\n      tag_467\n      tag_468\n      jump\t// in\n    tag_467:\n        /* \"#utility.yul\":20932:21039   */\n    tag_466:\n        /* \"#utility.yul\":21063:21064   */\n      dup3\n        /* \"#utility.yul\":21060:21061   */\n      dup3\n        /* \"#utility.yul\":21056:21065   */\n      add\n        /* \"#utility.yul\":21049:21065   */\n      swap1\n      pop\n        /* \"#utility.yul\":20766:21071   */\n      swap3\n      swap2\n      pop\n      pop\n      jump\t// out\n        /* \"#utility.yul\":21077:21262   */\n    tag_143:\n        /* \"#utility.yul\":21117:21118   */\n      0x00\n        /* \"#utility.yul\":21134:21154   */\n      tag_470\n        /* \"#utility.yul\":21152:21153   */\n      dup3\n        /* \"#utility.yul\":21134:21154   */\n      tag_403\n      jump\t// in\n    tag_470:\n        /* \"#utility.yul\":21129:21154   */\n      swap2\n      pop\n        /* \"#utility.yul\":21168:21188   */\n      tag_471\n        /* \"#utility.yul\":21186:21187   */\n      dup4\n        /* \"#utility.yul\":21168:21188   */\n      tag_403\n      jump\t// in\n    tag_471:\n        /* \"#utility.yul\":21163:21188   */\n      swap3\n      pop\n        /* \"#utility.yul\":21207:21208   */\n      dup3\n        /* \"#utility.yul\":21197:21232   */\n      tag_472\n      jumpi\n        /* \"#utility.yul\":21212:21230   */\n      tag_473\n      tag_474\n      jump\t// in\n    tag_473:\n        /* \"#utility.yul\":21197:21232   */\n    tag_472:\n        /* \"#utility.yul\":21254:21255   */\n      dup3\n        /* \"#utility.yul\":21251:21252   */\n      dup3\n        /* \"#utility.yul\":21247:21256   */\n      div\n        /* \"#utility.yul\":21242:21256   */\n      swap1\n      pop\n        /* \"#utility.yul\":21077:21262   */\n      swap3\n      swap2\n      pop\n      pop\n      jump\t// out\n        /* \"#utility.yul\":21268:21616   */\n    tag_140:\n        /* \"#utility.yul\":21308:21315   */\n      0x00\n        /* \"#utility.yul\":21331:21351   */\n      tag_476\n        /* \"#utility.yul\":21349:21350   */\n      dup3\n        /* \"#utility.yul\":21331:21351   */\n      tag_403\n      jump\t// in\n    tag_476:\n        /* \"#utility.yul\":21326:21351   */\n      swap2\n      pop\n        /* \"#utility.yul\":21365:21385   */\n      tag_477\n        /* \"#utility.yul\":21383:21384   */\n      dup4\n        /* \"#utility.yul\":21365:21385   */\n      tag_403\n      jump\t// in\n    tag_477:\n        /* \"#utility.yul\":21360:21385   */\n      swap3\n      pop\n        /* \"#utility.yul\":21553:21554   */\n      dup2\n        /* \"#utility.yul\":21485:21551   */\n      0xffffffffffffffffffffffffffffffffffffffffffffffffffffffffffffffff\n        /* \"#utility.yul\":21481:21555   */\n      div\n        /* \"#utility.yul\":21478:21479   */\n      dup4\n        /* \"#utility.yul\":21475:21556   */\n      gt\n        /* \"#utility.yul\":21470:21471   */\n      dup3\n        /* \"#utility.yul\":21463:21472   */\n      iszero\n        /* \"#utility.yul\":21456:21473   */\n      iszero\n        /* \"#utility.yul\":21452:21557   */\n      and\n        /* \"#utility.yul\":21449:21580   */\n      iszero\n      tag_478\n      jumpi\n        /* \"#utility.yul\":21560:21578   */\n      tag_479\n      tag_468\n      jump\t// in\n    tag_479:\n        /* \"#utility.yul\":21449:21580   */\n    tag_478:\n        /* \"#utility.yul\":21608:21609   */\n      dup3\n        /* \"#utility.yul\":21605:21606   */\n      dup3\n        /* \"#utility.yul\":21601:21610   */\n      mul\n        /* \"#utility.yul\":21590:21610   */\n      swap1\n      pop\n        /* \"#utility.yul\":21268:21616   */\n      swap3\n      swap2\n      pop\n      pop\n      jump\t// out\n        /* \"#utility.yul\":21622:21813   */\n    tag_124:\n        /* \"#utility.yul\":21662:21666   */\n      0x00\n        /* \"#utility.yul\":21682:21702   */\n      tag_481\n        /* \"#utility.yul\":21700:21701   */\n      dup3\n        /* \"#utility.yul\":21682:21702   */\n      tag_403\n      jump\t// in\n    tag_481:\n        /* \"#utility.yul\":21677:21702   */\n      swap2\n      pop\n        /* \"#utility.yul\":21716:21736   */\n      tag_482\n        /* \"#utility.yul\":21734:21735   */\n      dup4\n        /* \"#utility.yul\":21716:21736   */\n      tag_403\n      jump\t// in\n    tag_482:\n        /* \"#utility.yul\":21711:21736   */\n      swap3\n      pop\n        /* \"#utility.yul\":21755:21756   */\n      dup3\n        /* \"#utility.yul\":21752:21753   */\n      dup3\n        /* \"#utility.yul\":21749:21757   */\n      lt\n        /* \"#utility.yul\":21746:21780   */\n      iszero\n      tag_483\n      jumpi\n        /* \"#utility.yul\":21760:21778   */\n      tag_484\n      tag_468\n      jump\t// in\n    tag_484:\n        /* \"#utility.yul\":21746:21780   */\n    tag_483:\n        /* \"#utility.yul\":21805:21806   */\n      dup3\n        /* \"#utility.yul\":21802:21803   */\n      dup3\n        /* \"#utility.yul\":21798:21807   */\n      sub\n        /* \"#utility.yul\":21790:21807   */\n      swap1\n      pop\n        /* \"#utility.yul\":21622:21813   */\n      swap3\n      swap2\n      pop\n      pop\n      jump\t// out\n        /* \"#utility.yul\":21819:21915   */\n    tag_345:\n        /* \"#utility.yul\":21856:21863   */\n      0x00\n        /* \"#utility.yul\":21885:21909   */\n      tag_486\n        /* \"#utility.yul\":21903:21908   */\n      dup3\n        /* \"#utility.yul\":21885:21909   */\n      tag_487\n      jump\t// in\n    tag_486:\n        /* \"#utility.yul\":21874:21909   */\n      swap1\n      pop\n        /* \"#utility.yul\":21819:21915   */\n      swap2\n      swap1\n      pop\n      jump\t// out\n        /* \"#utility.yul\":21921:22011   */\n    tag_349:\n        /* \"#utility.yul\":21955:21962   */\n      0x00\n        /* \"#utility.yul\":21998:22003   */\n      dup2\n        /* \"#utility.yul\":21991:22004   */\n      iszero\n        /* \"#utility.yul\":21984:22005   */\n      iszero\n        /* \"#utility.yul\":21973:22005   */\n      swap1\n      pop\n        /* \"#utility.yul\":21921:22011   */\n      swap2\n      swap1\n      pop\n      jump\t// out\n        /* \"#utility.yul\":22017:22094   */\n    tag_353:\n        /* \"#utility.yul\":22054:22061   */\n      0x00\n        /* \"#utility.yul\":22083:22088   */\n      dup2\n        /* \"#utility.yul\":22072:22088   */\n      swap1\n      pop\n        /* \"#utility.yul\":22017:22094   */\n      swap2\n      swap1\n      pop\n      jump\t// out\n        /* \"#utility.yul\":22100:22226   */\n    tag_487:\n        /* \"#utility.yul\":22137:22144   */\n      0x00\n        /* \"#utility.yul\":22177:22219   */\n      0xffffffffffffffffffffffffffffffffffffffff\n        /* \"#utility.yul\":22170:22175   */\n      dup3\n        /* \"#utility.yul\":22166:22220   */\n      and\n        /* \"#utility.yul\":22155:22220   */\n      swap1\n      pop\n        /* \"#utility.yul\":22100:22226   */\n      swap2\n      swap1\n      pop\n      jump\t// out\n        /* \"#utility.yul\":22232:22309   */\n    tag_403:\n        /* \"#utility.yul\":22269:22276   */\n      0x00\n        /* \"#utility.yul\":22298:22303   */\n      dup2\n        /* \"#utility.yul\":22287:22303   */\n      swap1\n      pop\n        /* \"#utility.yul\":22232:22309   */\n      swap2\n      swap1\n      pop\n      jump\t// out\n        /* \"#utility.yul\":22315:22469   */\n    tag_245:\n        /* \"#utility.yul\":22399:22405   */\n      dup3\n        /* \"#utility.yul\":22394:22397   */\n      dup2\n        /* \"#utility.yul\":22389:22392   */\n      dup4\n        /* \"#utility.yul\":22376:22406   */\n      calldatacopy\n        /* \"#utility.yul\":22461:22462   */\n      0x00\n        /* \"#utility.yul\":22452:22458   */\n      dup4\n        /* \"#utility.yul\":22447:22450   */\n      dup4\n        /* \"#utility.yul\":22443:22459   */\n      add\n        /* \"#utility.yul\":22436:22463   */\n      mstore\n        /* \"#utility.yul\":22315:22469   */\n      pop\n      pop\n      pop\n      jump\t// out\n        /* \"#utility.yul\":22475:22782   */\n    tag_361:\n        /* \"#utility.yul\":22543:22544   */\n      0x00\n        /* \"#utility.yul\":22553:22666   */\n    tag_494:\n        /* \"#utility.yul\":22567:22573   */\n      dup4\n        /* \"#utility.yul\":22564:22565   */\n      dup2\n        /* \"#utility.yul\":22561:22574   */\n      lt\n        /* \"#utility.yul\":22553:22666   */\n      iszero\n      tag_496\n      jumpi\n        /* \"#utility.yul\":22652:22653   */\n      dup1\n        /* \"#utility.yul\":22647:22650   */\n      dup3\n        /* \"#utility.yul\":22643:22654   */\n      add\n        /* \"#utility.yul\":22637:22655   */\n      mload\n        /* \"#utility.yul\":22633:22634   */\n      dup2\n        /* \"#utility.yul\":22628:22631   */\n      dup5\n        /* \"#utility.yul\":22624:22635   */\n      add\n        /* \"#utility.yul\":22617:22656   */\n      mstore\n        /* \"#utility.yul\":22589:22591   */\n      0x20\n        /* \"#utility.yul\":22586:22587   */\n      dup2\n        /* \"#utility.yul\":22582:22592   */\n      add\n        /* \"#utility.yul\":22577:22592   */\n      swap1\n      pop\n        /* \"#utility.yul\":22553:22666   */\n      jump(tag_494)\n    tag_496:\n        /* \"#utility.yul\":22684:22690   */\n      dup4\n        /* \"#utility.yul\":22681:22682   */\n      dup2\n        /* \"#utility.yul\":22678:22691   */\n      gt\n        /* \"#utility.yul\":22675:22776   */\n      iszero\n      tag_497\n      jumpi\n        /* \"#utility.yul\":22764:22765   */\n      0x00\n        /* \"#utility.yul\":22755:22761   */\n      dup5\n        /* \"#utility.yul\":22750:22753   */\n      dup5\n        /* \"#utility.yul\":22746:22762   */\n      add\n        /* \"#utility.yul\":22739:22766   */\n      mstore\n        /* \"#utility.yul\":22675:22776   */\n    tag_497:\n        /* \"#utility.yul\":22524:22782   */\n      pop\n        /* \"#utility.yul\":22475:22782   */\n      pop\n      pop\n      pop\n      jump\t// out\n        /* \"#utility.yul\":22788:23108   */\n    tag_130:\n        /* \"#utility.yul\":22832:22838   */\n      0x00\n        /* \"#utility.yul\":22869:22870   */\n      0x02\n        /* \"#utility.yul\":22863:22867   */\n      dup3\n        /* \"#utility.yul\":22859:22871   */\n      div\n        /* \"#utility.yul\":22849:22871   */\n      swap1\n      pop\n        /* \"#utility.yul\":22916:22917   */\n      0x01\n        /* \"#utility.yul\":22910:22914   */\n      dup3\n        /* \"#utility.yul\":22906:22918   */\n      and\n        /* \"#utility.yul\":22937:22955   */\n      dup1\n        /* \"#utility.yul\":22927:23008   */\n      tag_499\n      jumpi\n        /* \"#utility.yul\":22993:22997   */\n      0x7f\n        /* \"#utility.yul\":22985:22991   */\n      dup3\n        /* \"#utility.yul\":22981:22998   */\n      and\n        /* \"#utility.yul\":22971:22998   */\n      swap2\n      pop\n        /* \"#utility.yul\":22927:23008   */\n    tag_499:\n        /* \"#utility.yul\":23055:23057   */\n      0x20\n        /* \"#utility.yul\":23047:23053   */\n      dup3\n        /* \"#utility.yul\":23044:23058   */\n      lt\n        /* \"#utility.yul\":23024:23042   */\n      dup2\n        /* \"#utility.yul\":23021:23059   */\n      eq\n        /* \"#utility.yul\":23018:23102   */\n      iszero\n      tag_500\n      jumpi\n        /* \"#utility.yul\":23074:23092   */\n      tag_501\n      tag_502\n      jump\t// in\n    tag_501:\n        /* \"#utility.yul\":23018:23102   */\n    tag_500:\n        /* \"#utility.yul\":22839:23108   */\n      pop\n        /* \"#utility.yul\":22788:23108   */\n      swap2\n      swap1\n      pop\n      jump\t// out\n        /* \"#utility.yul\":23114:23395   */\n    tag_450:\n        /* \"#utility.yul\":23197:23224   */\n      tag_504\n        /* \"#utility.yul\":23219:23223   */\n      dup3\n        /* \"#utility.yul\":23197:23224   */\n      tag_363\n      jump\t// in\n    tag_504:\n        /* \"#utility.yul\":23189:23195   */\n      dup2\n        /* \"#utility.yul\":23185:23225   */\n      add\n        /* \"#utility.yul\":23327:23333   */\n      dup2\n        /* \"#utility.yul\":23315:23325   */\n      dup2\n        /* \"#utility.yul\":23312:23334   */\n      lt\n        /* \"#utility.yul\":23291:23309   */\n      0xffffffffffffffff\n        /* \"#utility.yul\":23279:23289   */\n      dup3\n        /* \"#utility.yul\":23276:23310   */\n      gt\n        /* \"#utility.yul\":23273:23335   */\n      or\n        /* \"#utility.yul\":23270:23358   */\n      iszero\n      tag_505\n      jumpi\n        /* \"#utility.yul\":23338:23356   */\n      tag_506\n      tag_455\n      jump\t// in\n    tag_506:\n        /* \"#utility.yul\":23270:23358   */\n    tag_505:\n        /* \"#utility.yul\":23378:23388   */\n      dup1\n        /* \"#utility.yul\":23374:23376   */\n      0x40\n        /* \"#utility.yul\":23367:23389   */\n      mstore\n        /* \"#utility.yul\":23157:23395   */\n      pop\n        /* \"#utility.yul\":23114:23395   */\n      pop\n      pop\n      jump\t// out\n        /* \"#utility.yul\":23401:23634   */\n    tag_145:\n        /* \"#utility.yul\":23440:23443   */\n      0x00\n        /* \"#utility.yul\":23463:23487   */\n      tag_508\n        /* \"#utility.yul\":23481:23486   */\n      dup3\n        /* \"#utility.yul\":23463:23487   */\n      tag_403\n      jump\t// in\n    tag_508:\n        /* \"#utility.yul\":23454:23487   */\n      swap2\n      pop\n        /* \"#utility.yul\":23509:23575   */\n      0xffffffffffffffffffffffffffffffffffffffffffffffffffffffffffffffff\n        /* \"#utility.yul\":23502:23507   */\n      dup3\n        /* \"#utility.yul\":23499:23576   */\n      eq\n        /* \"#utility.yul\":23496:23599   */\n      iszero\n      tag_509\n      jumpi\n        /* \"#utility.yul\":23579:23597   */\n      tag_510\n      tag_468\n      jump\t// in\n    tag_510:\n        /* \"#utility.yul\":23496:23599   */\n    tag_509:\n        /* \"#utility.yul\":23626:23627   */\n      0x01\n        /* \"#utility.yul\":23619:23624   */\n      dup3\n        /* \"#utility.yul\":23615:23628   */\n      add\n        /* \"#utility.yul\":23608:23628   */\n      swap1\n      pop\n        /* \"#utility.yul\":23401:23634   */\n      swap2\n      swap1\n      pop\n      jump\t// out\n        /* \"#utility.yul\":23640:23820   */\n    tag_468:\n        /* \"#utility.yul\":23688:23765   */\n      0x4e487b7100000000000000000000000000000000000000000000000000000000\n        /* \"#utility.yul\":23685:23686   */\n      0x00\n        /* \"#utility.yul\":23678:23766   */\n      mstore\n        /* \"#utility.yul\":23785:23789   */\n      0x11\n        /* \"#utility.yul\":23782:23783   */\n      0x04\n        /* \"#utility.yul\":23775:23790   */\n      mstore\n        /* \"#utility.yul\":23809:23813   */\n      0x24\n        /* \"#utility.yul\":23806:23807   */\n      0x00\n        /* \"#utility.yul\":23799:23814   */\n      revert\n        /* \"#utility.yul\":23826:24006   */\n    tag_474:\n        /* \"#utility.yul\":23874:23951   */\n      0x4e487b7100000000000000000000000000000000000000000000000000000000\n        /* \"#utility.yul\":23871:23872   */\n      0x00\n        /* \"#utility.yul\":23864:23952   */\n      mstore\n        /* \"#utility.yul\":23971:23975   */\n      0x12\n        /* \"#utility.yul\":23968:23969   */\n      0x04\n        /* \"#utility.yul\":23961:23976   */\n      mstore\n        /* \"#utility.yul\":23995:23999   */\n      0x24\n        /* \"#utility.yul\":23992:23993   */\n      0x00\n        /* \"#utility.yul\":23985:24000   */\n      revert\n        /* \"#utility.yul\":24012:24192   */\n    tag_502:\n        /* \"#utility.yul\":24060:24137   */\n      0x4e487b7100000000000000000000000000000000000000000000000000000000\n        /* \"#utility.yul\":24057:24058   */\n      0x00\n        /* \"#utility.yul\":24050:24138   */\n      mstore\n        /* \"#utility.yul\":24157:24161   */\n      0x22\n        /* \"#utility.yul\":24154:24155   */\n      0x04\n        /* \"#utility.yul\":24147:24162   */\n      mstore\n        /* \"#utility.yul\":24181:24185   */\n      0x24\n        /* \"#utility.yul\":24178:24179   */\n      0x00\n        /* \"#utility.yul\":24171:24186   */\n      revert\n        /* \"#utility.yul\":24198:24378   */\n    tag_455:\n        /* \"#utility.yul\":24246:24323   */\n      0x4e487b7100000000000000000000000000000000000000000000000000000000\n        /* \"#utility.yul\":24243:24244   */\n      0x00\n        /* \"#utility.yul\":24236:24324   */\n      mstore\n        /* \"#utility.yul\":24343:24347   */\n      0x41\n        /* \"#utility.yul\":24340:24341   */\n      0x04\n        /* \"#utility.yul\":24333:24348   */\n      mstore\n        /* \"#utility.yul\":24367:24371   */\n      0x24\n        /* \"#utility.yul\":24364:24365   */\n      0x00\n        /* \"#utility.yul\":24357:24372   */\n      revert\n        /* \"#utility.yul\":24384:24501   */\n    tag_254:\n        /* \"#utility.yul\":24493:24494   */\n      0x00\n        /* \"#utility.yul\":24490:24491   */\n      dup1\n        /* \"#utility.yul\":24483:24495   */\n      revert\n        /* \"#utility.yul\":24507:24624   */\n    tag_230:\n        /* \"#utility.yul\":24616:24617   */\n      0x00\n        /* \"#utility.yul\":24613:24614   */\n      dup1\n        /* \"#utility.yul\":24606:24618   */\n      revert\n        /* \"#utility.yul\":24630:24747   */\n    tag_243:\n        /* \"#utility.yul\":24739:24740   */\n      0x00\n        /* \"#utility.yul\":24736:24737   */\n      dup1\n        /* \"#utility.yul\":24729:24741   */\n      revert\n        /* \"#utility.yul\":24753:24870   */\n    tag_305:\n        /* \"#utility.yul\":24862:24863   */\n      0x00\n        /* \"#utility.yul\":24859:24860   */\n      dup1\n        /* \"#utility.yul\":24852:24864   */\n      revert\n        /* \"#utility.yul\":24876:24993   */\n    tag_271:\n        /* \"#utility.yul\":24985:24986   */\n      0x00\n        /* \"#utility.yul\":24982:24983   */\n      dup1\n        /* \"#utility.yul\":24975:24987   */\n      revert\n        /* \"#utility.yul\":24999:25101   */\n    tag_363:\n        /* \"#utility.yul\":25040:25046   */\n      0x00\n        /* \"#utility.yul\":25091:25093   */\n      0x1f\n        /* \"#utility.yul\":25087:25094   */\n      not\n        /* \"#utility.yul\":25082:25084   */\n      0x1f\n        /* \"#utility.yul\":25075:25080   */\n      dup4\n        /* \"#utility.yul\":25071:25085   */\n      add\n        /* \"#utility.yul\":25067:25095   */\n      and\n        /* \"#utility.yul\":25057:25095   */\n      swap1\n      pop\n        /* \"#utility.yul\":24999:25101   */\n      swap2\n      swap1\n      pop\n      jump\t// out\n        /* \"#utility.yul\":25107:25281   */\n    tag_374:\n        /* \"#utility.yul\":25247:25273   */\n      0x4469737075746520616c7265616479207265736f6c7665640000000000000000\n        /* \"#utility.yul\":25243:25244   */\n      0x00\n        /* \"#utility.yul\":25235:25241   */\n      dup3\n        /* \"#utility.yul\":25231:25245   */\n      add\n        /* \"#utility.yul\":25224:25274   */\n      mstore\n        /* \"#utility.yul\":25107:25281   */\n      pop\n      jump\t// out\n        /* \"#utility.yul\":25287:25460   */\n    tag_379:\n        /* \"#utility.yul\":25427:25452   */\n      0x50726f706572747920646f6573206e6f74206578697374000000000000000000\n        /* \"#utility.yul\":25423:25424   */\n      0x00\n        /* \"#utility.yul\":25415:25421   */\n      dup3\n        /* \"#utility.yul\":25411:25425   */\n      add\n        /* \"#utility.yul\":25404:25453   */\n      mstore\n        /* \"#utility.yul\":25287:25460   */\n      pop\n      jump\t// out\n        /* \"#utility.yul\":25466:25637   */\n    tag_384:\n        /* \"#utility.yul\":25606:25629   */\n      0x5472616e736665722066726f6d206661696c65642e0000000000000000000000\n        /* \"#utility.yul\":25602:25603   */\n      0x00\n        /* \"#utility.yul\":25594:25600   */\n      dup3\n        /* \"#utility.yul\":25590:25604   */\n      add\n        /* \"#utility.yul\":25583:25630   */\n      mstore\n        /* \"#utility.yul\":25466:25637   */\n      pop\n      jump\t// out\n        /* \"#utility.yul\":25643:25809   */\n    tag_389:\n        /* \"#utility.yul\":25783:25801   */\n      0x5472616e73666572206661696c65642e00000000000000000000000000000000\n        /* \"#utility.yul\":25779:25780   */\n      0x00\n        /* \"#utility.yul\":25771:25777   */\n      dup3\n        /* \"#utility.yul\":25767:25781   */\n      add\n        /* \"#utility.yul\":25760:25802   */\n      mstore\n        /* \"#utility.yul\":25643:25809   */\n      pop\n      jump\t// out\n        /* \"#utility.yul\":25815:26035   */\n    tag_394:\n        /* \"#utility.yul\":25955:25989   */\n      0x526566756e642068617320616c7265616479206265656e207265717565737465\n        /* \"#utility.yul\":25951:25952   */\n      0x00\n        /* \"#utility.yul\":25943:25949   */\n      dup3\n        /* \"#utility.yul\":25939:25953   */\n      add\n        /* \"#utility.yul\":25932:25990   */\n      mstore\n        /* \"#utility.yul\":26024:26027   */\n      0x6400000000000000000000000000000000000000000000000000000000000000\n        /* \"#utility.yul\":26019:26021   */\n      0x20\n        /* \"#utility.yul\":26011:26017   */\n      dup3\n        /* \"#utility.yul\":26007:26022   */\n      add\n        /* \"#utility.yul\":26000:26028   */\n      mstore\n        /* \"#utility.yul\":25815:26035   */\n      pop\n      jump\t// out\n        /* \"#utility.yul\":26041:26207   */\n    tag_399:\n        /* \"#utility.yul\":26181:26199   */\n      0x417070726f76616c206661696c65642e00000000000000000000000000000000\n        /* \"#utility.yul\":26177:26178   */\n      0x00\n        /* \"#utility.yul\":26169:26175   */\n      dup3\n        /* \"#utility.yul\":26165:26179   */\n      add\n        /* \"#utility.yul\":26158:26200   */\n      mstore\n        /* \"#utility.yul\":26041:26207   */\n      pop\n      jump\t// out\n        /* \"#utility.yul\":26213:26335   */\n    tag_249:\n        /* \"#utility.yul\":26286:26310   */\n      tag_528\n        /* \"#utility.yul\":26304:26309   */\n      dup2\n        /* \"#utility.yul\":26286:26310   */\n      tag_345\n      jump\t// in\n    tag_528:\n        /* \"#utility.yul\":26279:26284   */\n      dup2\n        /* \"#utility.yul\":26276:26311   */\n      eq\n        /* \"#utility.yul\":26266:26329   */\n      tag_529\n      jumpi\n        /* \"#utility.yul\":26325:26326   */\n      0x00\n        /* \"#utility.yul\":26322:26323   */\n      dup1\n        /* \"#utility.yul\":26315:26327   */\n      revert\n        /* \"#utility.yul\":26266:26329   */\n    tag_529:\n        /* \"#utility.yul\":26213:26335   */\n      pop\n      jump\t// out\n        /* \"#utility.yul\":26341:26463   */\n    tag_258:\n        /* \"#utility.yul\":26414:26438   */\n      tag_531\n        /* \"#utility.yul\":26432:26437   */\n      dup2\n        /* \"#utility.yul\":26414:26438   */\n      tag_353\n      jump\t// in\n    tag_531:\n        /* \"#utility.yul\":26407:26412   */\n      dup2\n        /* \"#utility.yul\":26404:26439   */\n      eq\n        /* \"#utility.yul\":26394:26457   */\n      tag_532\n      jumpi\n        /* \"#utility.yul\":26453:26454   */\n      0x00\n        /* \"#utility.yul\":26450:26451   */\n      dup1\n        /* \"#utility.yul\":26443:26455   */\n      revert\n        /* \"#utility.yul\":26394:26457   */\n    tag_532:\n        /* \"#utility.yul\":26341:26463   */\n      pop\n      jump\t// out\n        /* \"#utility.yul\":26469:26591   */\n    tag_267:\n        /* \"#utility.yul\":26542:26566   */\n      tag_534\n        /* \"#utility.yul\":26560:26565   */\n      dup2\n        /* \"#utility.yul\":26542:26566   */\n      tag_403\n      jump\t// in\n    tag_534:\n        /* \"#utility.yul\":26535:26540   */\n      dup2\n        /* \"#utility.yul\":26532:26567   */\n      eq\n        /* \"#utility.yul\":26522:26585   */\n      tag_535\n      jumpi\n        /* \"#utility.yul\":26581:26582   */\n      0x00\n        /* \"#utility.yul\":26578:26579   */\n      dup1\n        /* \"#utility.yul\":26571:26583   */\n      revert\n        /* \"#utility.yul\":26522:26585   */\n    tag_535:\n        /* \"#utility.yul\":26469:26591   */\n      pop\n      jump\t// out\n\n    auxdata: 0xa26469706673582212208ef1210d7488cf14cf96f6b0dedc76e265df53510cf4081c4a26d102a60a353764736f6c63430008070033\n}\n",
				"bytecode": {
					"linkReferences": {},
					"object": "608060405261271060005534801561001657600080fd5b50612540806100266000396000f3fe608060405234801561001057600080fd5b506004361061012c5760003560e01c80636c7f7fd2116100ad57806395d89b411161007157806395d89b4114610347578063a87430ba14610365578063a9059cbb14610396578063bd156273146103b2578063bdc84ac3146103e75761012c565b80636c7f7fd2146102a7578063701cb491146102c357806370a08231146102df578063775274a11461030f5780638a75ee211461032b5761012c565b8063366c6ea4116100f4578063366c6ea4146101c357806337074199146101f55780633d4effc414610228578063564a565d146102445780635c658165146102775761012c565b806306fdde0314610131578063095ea7b31461014f57806318160ddd1461016b57806323b872dd14610189578063313ce567146101a5575b600080fd5b610139610403565b6040516101469190611da6565b60405180910390f35b610169600480360381019061016491906118c2565b61043c565b005b610173610543565b6040516101809190611efe565b60405180910390f35b6101a3600480360381019061019e919061186f565b610549565b005b6101ad61082c565b6040516101ba9190611efe565b60405180910390f35b6101dd60048036038101906101d8919061192f565b610831565b6040516101ec93929190611f19565b60405180910390f35b61020f600480360381019061020a919061192f565b610920565b60405161021f9493929190611f80565b60405180910390f35b610242600480360381019061023d91906118c2565b61098d565b005b61025e60048036038101906102599190611b5e565b610a31565b60405161026e9493929190611d5a565b60405180910390f35b610291600480360381019061028c919061182f565b610b09565b60405161029e9190611efe565b60405180910390f35b6102c160048036038101906102bc9190611a45565b610b2e565b005b6102dd60048036038101906102d891906119de565b610cc7565b005b6102f960048036038101906102f49190611802565b610e53565b6040516103069190611efe565b60405180910390f35b61032960048036038101906103249190611902565b610e6b565b005b6103456004803603810190610340919061196f565b610f89565b005b61034f611117565b60405161035c9190611da6565b60405180910390f35b61037f600480360381019061037a9190611802565b611150565b60405161038d929190611f57565b60405180910390f35b6103b060048036038101906103ab91906118c2565b611174565b005b6103cc60048036038101906103c79190611902565b61133b565b6040516103de96959493929190611dc8565b60405180910390f35b61040160048036038101906103fc9190611b8b565b61153c565b005b6040518060400160405280600981526020017f444e4720546f6b656e000000000000000000000000000000000000000000000081525081565b80600560003373ffffffffffffffffffffffffffffffffffffffff1673ffffffffffffffffffffffffffffffffffffffff1681526020019081526020016000205410156104be576040517f08c379a00000000000000000000000000000000000000000000000000000000081526004016104b590611ede565b60405180910390fd5b80600160003373ffffffffffffffffffffffffffffffffffffffff1673ffffffffffffffffffffffffffffffffffffffff16815260200190815260200160002060008473ffffffffffffffffffffffffffffffffffffffff1673ffffffffffffffffffffffffffffffffffffffff168152602001908152602001600020819055505050565b60005481565b80600560008573ffffffffffffffffffffffffffffffffffffffff1673ffffffffffffffffffffffffffffffffffffffff1681526020019081526020016000205410158015610614575080600160008573ffffffffffffffffffffffffffffffffffffffff1673ffffffffffffffffffffffffffffffffffffffff16815260200190815260200160002060003373ffffffffffffffffffffffffffffffffffffffff1673ffffffffffffffffffffffffffffffffffffffff1681526020019081526020016000205410155b80156106a95750600560008373ffffffffffffffffffffffffffffffffffffffff1673ffffffffffffffffffffffffffffffffffffffff1681526020019081526020016000205481600560008573ffffffffffffffffffffffffffffffffffffffff1673ffffffffffffffffffffffffffffffffffffffff168152602001908152602001600020546106a6919061206e565b10155b6106e8576040517f08c379a00000000000000000000000000000000000000000000000000000000081526004016106df90611e7e565b60405180910390fd5b80600560008573ffffffffffffffffffffffffffffffffffffffff1673ffffffffffffffffffffffffffffffffffffffff1681526020019081526020016000206000828254610737919061214f565b9250508190555080600160008573ffffffffffffffffffffffffffffffffffffffff1673ffffffffffffffffffffffffffffffffffffffff16815260200190815260200160002060003373ffffffffffffffffffffffffffffffffffffffff1673ffffffffffffffffffffffffffffffffffffffff16815260200190815260200160002060008282546107ca919061214f565b9250508190555080600560008473ffffffffffffffffffffffffffffffffffffffff1673ffffffffffffffffffffffffffffffffffffffff1681526020019081526020016000206000828254610820919061206e565b92505081905550505050565b601281565b6003602052816000526040600020818154811061084d57600080fd5b90600052602060002090600302016000915091505080600001549080600101805461087790612217565b80601f01602080910402602001604051908101604052809291908181526020018280546108a390612217565b80156108f05780601f106108c5576101008083540402835291602001916108f0565b820191906000526020600020905b8154815290600101906020018083116108d357829003601f168201915b5050505050908060020160009054906101000a900473ffffffffffffffffffffffffffffffffffffffff16905083565b6004602052816000526040600020818154811061093c57600080fd5b9060005260206000209060040201600091509150508060000154908060010154908060020160009054906101000a900473ffffffffffffffffffffffffffffffffffffffff16908060030154905084565b6000600760008473ffffffffffffffffffffffffffffffffffffffff1673ffffffffffffffffffffffffffffffffffffffff1681526020019081526020016000209050600181600101546109e1919061206e565b82826001015483600001546109f691906120f5565b610a00919061206e565b610a0a91906120c4565b8160000181905550806001016000815480929190610a279061227a565b9190505550505050565b60066020528060005260406000206000915090508060000154908060010160009054906101000a900473ffffffffffffffffffffffffffffffffffffffff1690806002018054610a8090612217565b80601f0160208091040260200160405190810160405280929190818152602001828054610aac90612217565b8015610af95780601f10610ace57610100808354040283529160200191610af9565b820191906000526020600020905b815481529060010190602001808311610adc57829003601f168201915b5050505050908060030154905084565b6001602052816000526040600020602052806000526040600020600091509150505481565b6040518061010001604052808781526020018681526020018581526020018481526020013373ffffffffffffffffffffffffffffffffffffffff168152602001838152602001828152602001600015158152506002600088604051602001610b969190611d43565b6040516020818303038152906040528051906020012081526020019081526020016000206000820151816000019080519060200190610bd69291906115a8565b506020820151816001019080519060200190610bf39291906115a8565b506040820151816002019080519060200190610c109291906115a8565b506060820151816003015560808201518160040160006101000a81548173ffffffffffffffffffffffffffffffffffffffff021916908373ffffffffffffffffffffffffffffffffffffffff16021790555060a0820151816005019080519060200190610c7e92919061162e565b5060c0820151816006019080519060200190610c9b92919061162e565b5060e08201518160070160006101000a81548160ff021916908315150217905550905050505050505050565b6000600260008681526020019081526020016000209050600073ffffffffffffffffffffffffffffffffffffffff168160040160009054906101000a900473ffffffffffffffffffffffffffffffffffffffff1673ffffffffffffffffffffffffffffffffffffffff161415610d72576040517f08c379a0000000000000000000000000000000000000000000000000000000008152600401610d6990611e5e565b60405180910390fd5b6004600086815260200190815260200160002060405180608001604052808681526020018581526020013373ffffffffffffffffffffffffffffffffffffffff168152602001848152509080600181540180825580915050600190039060005260206000209060040201600090919091909150600082015181600001556020820151816001015560408201518160020160006101000a81548173ffffffffffffffffffffffffffffffffffffffff021916908373ffffffffffffffffffffffffffffffffffffffff1602179055506060820151816003015550505050505050565b60056020528060005260406000206000915090505481565b6000600260008381526020019081526020016000209050600073ffffffffffffffffffffffffffffffffffffffff168160040160009054906101000a900473ffffffffffffffffffffffffffffffffffffffff1673ffffffffffffffffffffffffffffffffffffffff161415610f16576040517f08c379a0000000000000000000000000000000000000000000000000000000008152600401610f0d90611e5e565b60405180910390fd5b8060070160009054906101000a900460ff1615610f68576040517f08c379a0000000000000000000000000000000000000000000000000000000008152600401610f5f90611ebe565b60405180910390fd5b60018160070160006101000a81548160ff0219169083151502179055505050565b6000600260008581526020019081526020016000209050600073ffffffffffffffffffffffffffffffffffffffff168160040160009054906101000a900473ffffffffffffffffffffffffffffffffffffffff1673ffffffffffffffffffffffffffffffffffffffff161415611034576040517f08c379a000000000000000000000000000000000000000000000000000000000815260040161102b90611e5e565b60405180910390fd5b6003600085815260200190815260200160002060405180606001604052808581526020018481526020013373ffffffffffffffffffffffffffffffffffffffff1681525090806001815401808255809150506001900390600052602060002090600302016000909190919091506000820151816000015560208201518160010190805190602001906110c79291906115a8565b5060408201518160020160006101000a81548173ffffffffffffffffffffffffffffffffffffffff021916908373ffffffffffffffffffffffffffffffffffffffff160217905550505050505050565b6040518060400160405280600381526020017f444e47000000000000000000000000000000000000000000000000000000000081525081565b60076020528060005260406000206000915090508060000154908060010154905082565b80600560003373ffffffffffffffffffffffffffffffffffffffff1673ffffffffffffffffffffffffffffffffffffffff168152602001908152602001600020541015801561124c5750600560008373ffffffffffffffffffffffffffffffffffffffff1673ffffffffffffffffffffffffffffffffffffffff1681526020019081526020016000205481600560008573ffffffffffffffffffffffffffffffffffffffff1673ffffffffffffffffffffffffffffffffffffffff16815260200190815260200160002054611249919061206e565b10155b61128b576040517f08c379a000000000000000000000000000000000000000000000000000000000815260040161128290611e9e565b60405180910390fd5b80600560003373ffffffffffffffffffffffffffffffffffffffff1673ffffffffffffffffffffffffffffffffffffffff16815260200190815260200160002060008282546112da919061214f565b9250508190555080600560008473ffffffffffffffffffffffffffffffffffffffff1673ffffffffffffffffffffffffffffffffffffffff1681526020019081526020016000206000828254611330919061206e565b925050819055505050565b600260205280600052604060002060009150905080600001805461135e90612217565b80601f016020809104026020016040519081016040528092919081815260200182805461138a90612217565b80156113d75780601f106113ac576101008083540402835291602001916113d7565b820191906000526020600020905b8154815290600101906020018083116113ba57829003601f168201915b5050505050908060010180546113ec90612217565b80601f016020809104026020016040519081016040528092919081815260200182805461141890612217565b80156114655780601f1061143a57610100808354040283529160200191611465565b820191906000526020600020905b81548152906001019060200180831161144857829003601f168201915b50505050509080600201805461147a90612217565b80601f01602080910402602001604051908101604052809291908181526020018280546114a690612217565b80156114f35780601f106114c8576101008083540402835291602001916114f3565b820191906000526020600020905b8154815290600101906020018083116114d657829003601f168201915b5050505050908060030154908060040160009054906101000a900473ffffffffffffffffffffffffffffffffffffffff16908060070160009054906101000a900460ff16905086565b6000600660008481526020019081526020016000209050600081600301541461159a576040517f08c379a000000000000000000000000000000000000000000000000000000000815260040161159190611e3e565b60405180910390fd5b818160030181905550505050565b8280546115b490612217565b90600052602060002090601f0160209004810192826115d6576000855561161d565b82601f106115ef57805160ff191683800117855561161d565b8280016001018555821561161d579182015b8281111561161c578251825591602001919060010190611601565b5b50905061162a919061167b565b5090565b82805482825590600052602060002090810192821561166a579160200282015b8281111561166957825182559160200191906001019061164e565b5b5090506116779190611698565b5090565b5b8082111561169457600081600090555060010161167c565b5090565b5b808211156116b1576000816000905550600101611699565b5090565b60006116c86116c384611fea565b611fc5565b905080838252602082019050828560208602820111156116eb576116ea612384565b5b60005b8581101561171b578161170188826117aa565b8452602084019350602083019250506001810190506116ee565b5050509392505050565b600061173861173384612016565b611fc5565b90508281526020810184848401111561175457611753612389565b5b61175f8482856121d5565b509392505050565b600081359050611776816124c5565b92915050565b600082601f8301126117915761179061237f565b5b81356117a18482602086016116b5565b91505092915050565b6000813590506117b9816124dc565b92915050565b600082601f8301126117d4576117d361237f565b5b81356117e4848260208601611725565b91505092915050565b6000813590506117fc816124f3565b92915050565b60006020828403121561181857611817612393565b5b600061182684828501611767565b91505092915050565b6000806040838503121561184657611845612393565b5b600061185485828601611767565b925050602061186585828601611767565b9150509250929050565b60008060006060848603121561188857611887612393565b5b600061189686828701611767565b93505060206118a786828701611767565b92505060406118b8868287016117ed565b9150509250925092565b600080604083850312156118d9576118d8612393565b5b60006118e785828601611767565b92505060206118f8858286016117ed565b9150509250929050565b60006020828403121561191857611917612393565b5b6000611926848285016117aa565b91505092915050565b6000806040838503121561194657611945612393565b5b6000611954858286016117aa565b9250506020611965858286016117ed565b9150509250929050565b60008060006060848603121561198857611987612393565b5b6000611996868287016117aa565b93505060206119a7868287016117ed565b925050604084013567ffffffffffffffff8111156119c8576119c761238e565b5b6119d4868287016117bf565b9150509250925092565b600080600080608085870312156119f8576119f7612393565b5b6000611a06878288016117aa565b9450506020611a17878288016117ed565b9350506040611a28878288016117ed565b9250506060611a39878288016117ed565b91505092959194509250565b60008060008060008060c08789031215611a6257611a61612393565b5b600087013567ffffffffffffffff811115611a8057611a7f61238e565b5b611a8c89828a016117bf565b965050602087013567ffffffffffffffff811115611aad57611aac61238e565b5b611ab989828a016117bf565b955050604087013567ffffffffffffffff811115611ada57611ad961238e565b5b611ae689828a016117bf565b9450506060611af789828a016117ed565b935050608087013567ffffffffffffffff811115611b1857611b1761238e565b5b611b2489828a0161177c565b92505060a087013567ffffffffffffffff811115611b4557611b4461238e565b5b611b5189828a0161177c565b9150509295509295509295565b600060208284031215611b7457611b73612393565b5b6000611b82848285016117ed565b91505092915050565b60008060408385031215611ba257611ba1612393565b5b6000611bb0858286016117ed565b9250506020611bc1858286016117ed565b9150509250929050565b611bd481612183565b82525050565b611be381612195565b82525050565b611bf2816121a1565b82525050565b6000611c0382612047565b611c0d8185612052565b9350611c1d8185602086016121e4565b611c2681612398565b840191505092915050565b6000611c3c82612047565b611c468185612063565b9350611c568185602086016121e4565b80840191505092915050565b6000611c6f601883612052565b9150611c7a826123a9565b602082019050919050565b6000611c92601783612052565b9150611c9d826123d2565b602082019050919050565b6000611cb5601583612052565b9150611cc0826123fb565b602082019050919050565b6000611cd8601083612052565b9150611ce382612424565b602082019050919050565b6000611cfb602183612052565b9150611d068261244d565b604082019050919050565b6000611d1e601083612052565b9150611d298261249c565b602082019050919050565b611d3d816121cb565b82525050565b6000611d4f8284611c31565b915081905092915050565b6000608082019050611d6f6000830187611be9565b611d7c6020830186611bcb565b8181036040830152611d8e8185611bf8565b9050611d9d6060830184611d34565b95945050505050565b60006020820190508181036000830152611dc08184611bf8565b905092915050565b600060c0820190508181036000830152611de28189611bf8565b90508181036020830152611df68188611bf8565b90508181036040830152611e0a8187611bf8565b9050611e196060830186611d34565b611e266080830185611bcb565b611e3360a0830184611bda565b979650505050505050565b60006020820190508181036000830152611e5781611c62565b9050919050565b60006020820190508181036000830152611e7781611c85565b9050919050565b60006020820190508181036000830152611e9781611ca8565b9050919050565b60006020820190508181036000830152611eb781611ccb565b9050919050565b60006020820190508181036000830152611ed781611cee565b9050919050565b60006020820190508181036000830152611ef781611d11565b9050919050565b6000602082019050611f136000830184611d34565b92915050565b6000606082019050611f2e6000830186611d34565b8181036020830152611f408185611bf8565b9050611f4f6040830184611bcb565b949350505050565b6000604082019050611f6c6000830185611d34565b611f796020830184611d34565b9392505050565b6000608082019050611f956000830187611d34565b611fa26020830186611d34565b611faf6040830185611bcb565b611fbc6060830184611d34565b95945050505050565b6000611fcf611fe0565b9050611fdb8282612249565b919050565b6000604051905090565b600067ffffffffffffffff82111561200557612004612350565b5b602082029050602081019050919050565b600067ffffffffffffffff82111561203157612030612350565b5b61203a82612398565b9050602081019050919050565b600081519050919050565b600082825260208201905092915050565b600081905092915050565b6000612079826121cb565b9150612084836121cb565b9250827fffffffffffffffffffffffffffffffffffffffffffffffffffffffffffffffff038211156120b9576120b86122c3565b5b828201905092915050565b60006120cf826121cb565b91506120da836121cb565b9250826120ea576120e96122f2565b5b828204905092915050565b6000612100826121cb565b915061210b836121cb565b9250817fffffffffffffffffffffffffffffffffffffffffffffffffffffffffffffffff0483118215151615612144576121436122c3565b5b828202905092915050565b600061215a826121cb565b9150612165836121cb565b925082821015612178576121776122c3565b5b828203905092915050565b600061218e826121ab565b9050919050565b60008115159050919050565b6000819050919050565b600073ffffffffffffffffffffffffffffffffffffffff82169050919050565b6000819050919050565b82818337600083830152505050565b60005b838110156122025780820151818401526020810190506121e7565b83811115612211576000848401525b50505050565b6000600282049050600182168061222f57607f821691505b6020821081141561224357612242612321565b5b50919050565b61225282612398565b810181811067ffffffffffffffff8211171561227157612270612350565b5b80604052505050565b6000612285826121cb565b91507fffffffffffffffffffffffffffffffffffffffffffffffffffffffffffffffff8214156122b8576122b76122c3565b5b600182019050919050565b7f4e487b7100000000000000000000000000000000000000000000000000000000600052601160045260246000fd5b7f4e487b7100000000000000000000000000000000000000000000000000000000600052601260045260246000fd5b7f4e487b7100000000000000000000000000000000000000000000000000000000600052602260045260246000fd5b7f4e487b7100000000000000000000000000000000000000000000000000000000600052604160045260246000fd5b600080fd5b600080fd5b600080fd5b600080fd5b600080fd5b6000601f19601f8301169050919050565b7f4469737075746520616c7265616479207265736f6c7665640000000000000000600082015250565b7f50726f706572747920646f6573206e6f74206578697374000000000000000000600082015250565b7f5472616e736665722066726f6d206661696c65642e0000000000000000000000600082015250565b7f5472616e73666572206661696c65642e00000000000000000000000000000000600082015250565b7f526566756e642068617320616c7265616479206265656e20726571756573746560008201527f6400000000000000000000000000000000000000000000000000000000000000602082015250565b7f417070726f76616c206661696c65642e00000000000000000000000000000000600082015250565b6124ce81612183565b81146124d957600080fd5b50565b6124e5816121a1565b81146124f057600080fd5b50565b6124fc816121cb565b811461250757600080fd5b5056fea26469706673582212208ef1210d7488cf14cf96f6b0dedc76e265df53510cf4081c4a26d102a60a353764736f6c63430008070033",
					"opcodes": "PUSH1 0x80 PUSH1 0x40 MSTORE PUSH2 0x2710 PUSH1 0x0 SSTORE CALLVALUE DUP1 ISZERO PUSH2 0x16 JUMPI PUSH1 0x0 DUP1 REVERT JUMPDEST POP PUSH2 0x2540 DUP1 PUSH2 0x26 PUSH1 0x0 CODECOPY PUSH1 0x0 RETURN INVALID PUSH1 0x80 PUSH1 0x40 MSTORE CALLVALUE DUP1 ISZERO PUSH2 0x10 JUMPI PUSH1 0x0 DUP1 REVERT JUMPDEST POP PUSH1 0x4 CALLDATASIZE LT PUSH2 0x12C JUMPI PUSH1 0x0 CALLDATALOAD PUSH1 0xE0 SHR DUP1 PUSH4 0x6C7F7FD2 GT PUSH2 0xAD JUMPI DUP1 PUSH4 0x95D89B41 GT PUSH2 0x71 JUMPI DUP1 PUSH4 0x95D89B41 EQ PUSH2 0x347 JUMPI DUP1 PUSH4 0xA87430BA EQ PUSH2 0x365 JUMPI DUP1 PUSH4 0xA9059CBB EQ PUSH2 0x396 JUMPI DUP1 PUSH4 0xBD156273 EQ PUSH2 0x3B2 JUMPI DUP1 PUSH4 0xBDC84AC3 EQ PUSH2 0x3E7 JUMPI PUSH2 0x12C JUMP JUMPDEST DUP1 PUSH4 0x6C7F7FD2 EQ PUSH2 0x2A7 JUMPI DUP1 PUSH4 0x701CB491 EQ PUSH2 0x2C3 JUMPI DUP1 PUSH4 0x70A08231 EQ PUSH2 0x2DF JUMPI DUP1 PUSH4 0x775274A1 EQ PUSH2 0x30F JUMPI DUP1 PUSH4 0x8A75EE21 EQ PUSH2 0x32B JUMPI PUSH2 0x12C JUMP JUMPDEST DUP1 PUSH4 0x366C6EA4 GT PUSH2 0xF4 JUMPI DUP1 PUSH4 0x366C6EA4 EQ PUSH2 0x1C3 JUMPI DUP1 PUSH4 0x37074199 EQ PUSH2 0x1F5 JUMPI DUP1 PUSH4 0x3D4EFFC4 EQ PUSH2 0x228 JUMPI DUP1 PUSH4 0x564A565D EQ PUSH2 0x244 JUMPI DUP1 PUSH4 0x5C658165 EQ PUSH2 0x277 JUMPI PUSH2 0x12C JUMP JUMPDEST DUP1 PUSH4 0x6FDDE03 EQ PUSH2 0x131 JUMPI DUP1 PUSH4 0x95EA7B3 EQ PUSH2 0x14F JUMPI DUP1 PUSH4 0x18160DDD EQ PUSH2 0x16B JUMPI DUP1 PUSH4 0x23B872DD EQ PUSH2 0x189 JUMPI DUP1 PUSH4 0x313CE567 EQ PUSH2 0x1A5 JUMPI JUMPDEST PUSH1 0x0 DUP1 REVERT JUMPDEST PUSH2 0x139 PUSH2 0x403 JUMP JUMPDEST PUSH1 0x40 MLOAD PUSH2 0x146 SWAP2 SWAP1 PUSH2 0x1DA6 JUMP JUMPDEST PUSH1 0x40 MLOAD DUP1 SWAP2 SUB SWAP1 RETURN JUMPDEST PUSH2 0x169 PUSH1 0x4 DUP1 CALLDATASIZE SUB DUP2 ADD SWAP1 PUSH2 0x164 SWAP2 SWAP1 PUSH2 0x18C2 JUMP JUMPDEST PUSH2 0x43C JUMP JUMPDEST STOP JUMPDEST PUSH2 0x173 PUSH2 0x543 JUMP JUMPDEST PUSH1 0x40 MLOAD PUSH2 0x180 SWAP2 SWAP1 PUSH2 0x1EFE JUMP JUMPDEST PUSH1 0x40 MLOAD DUP1 SWAP2 SUB SWAP1 RETURN JUMPDEST PUSH2 0x1A3 PUSH1 0x4 DUP1 CALLDATASIZE SUB DUP2 ADD SWAP1 PUSH2 0x19E SWAP2 SWAP1 PUSH2 0x186F JUMP JUMPDEST PUSH2 0x549 JUMP JUMPDEST STOP JUMPDEST PUSH2 0x1AD PUSH2 0x82C JUMP JUMPDEST PUSH1 0x40 MLOAD PUSH2 0x1BA SWAP2 SWAP1 PUSH2 0x1EFE JUMP JUMPDEST PUSH1 0x40 MLOAD DUP1 SWAP2 SUB SWAP1 RETURN JUMPDEST PUSH2 0x1DD PUSH1 0x4 DUP1 CALLDATASIZE SUB DUP2 ADD SWAP1 PUSH2 0x1D8 SWAP2 SWAP1 PUSH2 0x192F JUMP JUMPDEST PUSH2 0x831 JUMP JUMPDEST PUSH1 0x40 MLOAD PUSH2 0x1EC SWAP4 SWAP3 SWAP2 SWAP1 PUSH2 0x1F19 JUMP JUMPDEST PUSH1 0x40 MLOAD DUP1 SWAP2 SUB SWAP1 RETURN JUMPDEST PUSH2 0x20F PUSH1 0x4 DUP1 CALLDATASIZE SUB DUP2 ADD SWAP1 PUSH2 0x20A SWAP2 SWAP1 PUSH2 0x192F JUMP JUMPDEST PUSH2 0x920 JUMP JUMPDEST PUSH1 0x40 MLOAD PUSH2 0x21F SWAP5 SWAP4 SWAP3 SWAP2 SWAP1 PUSH2 0x1F80 JUMP JUMPDEST PUSH1 0x40 MLOAD DUP1 SWAP2 SUB SWAP1 RETURN JUMPDEST PUSH2 0x242 PUSH1 0x4 DUP1 CALLDATASIZE SUB DUP2 ADD SWAP1 PUSH2 0x23D SWAP2 SWAP1 PUSH2 0x18C2 JUMP JUMPDEST PUSH2 0x98D JUMP JUMPDEST STOP JUMPDEST PUSH2 0x25E PUSH1 0x4 DUP1 CALLDATASIZE SUB DUP2 ADD SWAP1 PUSH2 0x259 SWAP2 SWAP1 PUSH2 0x1B5E JUMP JUMPDEST PUSH2 0xA31 JUMP JUMPDEST PUSH1 0x40 MLOAD PUSH2 0x26E SWAP5 SWAP4 SWAP3 SWAP2 SWAP1 PUSH2 0x1D5A JUMP JUMPDEST PUSH1 0x40 MLOAD DUP1 SWAP2 SUB SWAP1 RETURN JUMPDEST PUSH2 0x291 PUSH1 0x4 DUP1 CALLDATASIZE SUB DUP2 ADD SWAP1 PUSH2 0x28C SWAP2 SWAP1 PUSH2 0x182F JUMP JUMPDEST PUSH2 0xB09 JUMP JUMPDEST PUSH1 0x40 MLOAD PUSH2 0x29E SWAP2 SWAP1 PUSH2 0x1EFE JUMP JUMPDEST PUSH1 0x40 MLOAD DUP1 SWAP2 SUB SWAP1 RETURN JUMPDEST PUSH2 0x2C1 PUSH1 0x4 DUP1 CALLDATASIZE SUB DUP2 ADD SWAP1 PUSH2 0x2BC SWAP2 SWAP1 PUSH2 0x1A45 JUMP JUMPDEST PUSH2 0xB2E JUMP JUMPDEST STOP JUMPDEST PUSH2 0x2DD PUSH1 0x4 DUP1 CALLDATASIZE SUB DUP2 ADD SWAP1 PUSH2 0x2D8 SWAP2 SWAP1 PUSH2 0x19DE JUMP JUMPDEST PUSH2 0xCC7 JUMP JUMPDEST STOP JUMPDEST PUSH2 0x2F9 PUSH1 0x4 DUP1 CALLDATASIZE SUB DUP2 ADD SWAP1 PUSH2 0x2F4 SWAP2 SWAP1 PUSH2 0x1802 JUMP JUMPDEST PUSH2 0xE53 JUMP JUMPDEST PUSH1 0x40 MLOAD PUSH2 0x306 SWAP2 SWAP1 PUSH2 0x1EFE JUMP JUMPDEST PUSH1 0x40 MLOAD DUP1 SWAP2 SUB SWAP1 RETURN JUMPDEST PUSH2 0x329 PUSH1 0x4 DUP1 CALLDATASIZE SUB DUP2 ADD SWAP1 PUSH2 0x324 SWAP2 SWAP1 PUSH2 0x1902 JUMP JUMPDEST PUSH2 0xE6B JUMP JUMPDEST STOP JUMPDEST PUSH2 0x345 PUSH1 0x4 DUP1 CALLDATASIZE SUB DUP2 ADD SWAP1 PUSH2 0x340 SWAP2 SWAP1 PUSH2 0x196F JUMP JUMPDEST PUSH2 0xF89 JUMP JUMPDEST STOP JUMPDEST PUSH2 0x34F PUSH2 0x1117 JUMP JUMPDEST PUSH1 0x40 MLOAD PUSH2 0x35C SWAP2 SWAP1 PUSH2 0x1DA6 JUMP JUMPDEST PUSH1 0x40 MLOAD DUP1 SWAP2 SUB SWAP1 RETURN JUMPDEST PUSH2 0x37F PUSH1 0x4 DUP1 CALLDATASIZE SUB DUP2 ADD SWAP1 PUSH2 0x37A SWAP2 SWAP1 PUSH2 0x1802 JUMP JUMPDEST PUSH2 0x1150 JUMP JUMPDEST PUSH1 0x40 MLOAD PUSH2 0x38D SWAP3 SWAP2 SWAP1 PUSH2 0x1F57 JUMP JUMPDEST PUSH1 0x40 MLOAD DUP1 SWAP2 SUB SWAP1 RETURN JUMPDEST PUSH2 0x3B0 PUSH1 0x4 DUP1 CALLDATASIZE SUB DUP2 ADD SWAP1 PUSH2 0x3AB SWAP2 SWAP1 PUSH2 0x18C2 JUMP JUMPDEST PUSH2 0x1174 JUMP JUMPDEST STOP JUMPDEST PUSH2 0x3CC PUSH1 0x4 DUP1 CALLDATASIZE SUB DUP2 ADD SWAP1 PUSH2 0x3C7 SWAP2 SWAP1 PUSH2 0x1902 JUMP JUMPDEST PUSH2 0x133B JUMP JUMPDEST PUSH1 0x40 MLOAD PUSH2 0x3DE SWAP7 SWAP6 SWAP5 SWAP4 SWAP3 SWAP2 SWAP1 PUSH2 0x1DC8 JUMP JUMPDEST PUSH1 0x40 MLOAD DUP1 SWAP2 SUB SWAP1 RETURN JUMPDEST PUSH2 0x401 PUSH1 0x4 DUP1 CALLDATASIZE SUB DUP2 ADD SWAP1 PUSH2 0x3FC SWAP2 SWAP1 PUSH2 0x1B8B JUMP JUMPDEST PUSH2 0x153C JUMP JUMPDEST STOP JUMPDEST PUSH1 0x40 MLOAD DUP1 PUSH1 0x40 ADD PUSH1 0x40 MSTORE DUP1 PUSH1 0x9 DUP2 MSTORE PUSH1 0x20 ADD PUSH32 0x444E4720546F6B656E0000000000000000000000000000000000000000000000 DUP2 MSTORE POP DUP2 JUMP JUMPDEST DUP1 PUSH1 0x5 PUSH1 0x0 CALLER PUSH20 0xFFFFFFFFFFFFFFFFFFFFFFFFFFFFFFFFFFFFFFFF AND PUSH20 0xFFFFFFFFFFFFFFFFFFFFFFFFFFFFFFFFFFFFFFFF AND DUP2 MSTORE PUSH1 0x20 ADD SWAP1 DUP2 MSTORE PUSH1 0x20 ADD PUSH1 0x0 KECCAK256 SLOAD LT ISZERO PUSH2 0x4BE JUMPI PUSH1 0x40 MLOAD PUSH32 0x8C379A000000000000000000000000000000000000000000000000000000000 DUP2 MSTORE PUSH1 0x4 ADD PUSH2 0x4B5 SWAP1 PUSH2 0x1EDE JUMP JUMPDEST PUSH1 0x40 MLOAD DUP1 SWAP2 SUB SWAP1 REVERT JUMPDEST DUP1 PUSH1 0x1 PUSH1 0x0 CALLER PUSH20 0xFFFFFFFFFFFFFFFFFFFFFFFFFFFFFFFFFFFFFFFF AND PUSH20 0xFFFFFFFFFFFFFFFFFFFFFFFFFFFFFFFFFFFFFFFF AND DUP2 MSTORE PUSH1 0x20 ADD SWAP1 DUP2 MSTORE PUSH1 0x20 ADD PUSH1 0x0 KECCAK256 PUSH1 0x0 DUP5 PUSH20 0xFFFFFFFFFFFFFFFFFFFFFFFFFFFFFFFFFFFFFFFF AND PUSH20 0xFFFFFFFFFFFFFFFFFFFFFFFFFFFFFFFFFFFFFFFF AND DUP2 MSTORE PUSH1 0x20 ADD SWAP1 DUP2 MSTORE PUSH1 0x20 ADD PUSH1 0x0 KECCAK256 DUP2 SWAP1 SSTORE POP POP POP JUMP JUMPDEST PUSH1 0x0 SLOAD DUP2 JUMP JUMPDEST DUP1 PUSH1 0x5 PUSH1 0x0 DUP6 PUSH20 0xFFFFFFFFFFFFFFFFFFFFFFFFFFFFFFFFFFFFFFFF AND PUSH20 0xFFFFFFFFFFFFFFFFFFFFFFFFFFFFFFFFFFFFFFFF AND DUP2 MSTORE PUSH1 0x20 ADD SWAP1 DUP2 MSTORE PUSH1 0x20 ADD PUSH1 0x0 KECCAK256 SLOAD LT ISZERO DUP1 ISZERO PUSH2 0x614 JUMPI POP DUP1 PUSH1 0x1 PUSH1 0x0 DUP6 PUSH20 0xFFFFFFFFFFFFFFFFFFFFFFFFFFFFFFFFFFFFFFFF AND PUSH20 0xFFFFFFFFFFFFFFFFFFFFFFFFFFFFFFFFFFFFFFFF AND DUP2 MSTORE PUSH1 0x20 ADD SWAP1 DUP2 MSTORE PUSH1 0x20 ADD PUSH1 0x0 KECCAK256 PUSH1 0x0 CALLER PUSH20 0xFFFFFFFFFFFFFFFFFFFFFFFFFFFFFFFFFFFFFFFF AND PUSH20 0xFFFFFFFFFFFFFFFFFFFFFFFFFFFFFFFFFFFFFFFF AND DUP2 MSTORE PUSH1 0x20 ADD SWAP1 DUP2 MSTORE PUSH1 0x20 ADD PUSH1 0x0 KECCAK256 SLOAD LT ISZERO JUMPDEST DUP1 ISZERO PUSH2 0x6A9 JUMPI POP PUSH1 0x5 PUSH1 0x0 DUP4 PUSH20 0xFFFFFFFFFFFFFFFFFFFFFFFFFFFFFFFFFFFFFFFF AND PUSH20 0xFFFFFFFFFFFFFFFFFFFFFFFFFFFFFFFFFFFFFFFF AND DUP2 MSTORE PUSH1 0x20 ADD SWAP1 DUP2 MSTORE PUSH1 0x20 ADD PUSH1 0x0 KECCAK256 SLOAD DUP2 PUSH1 0x5 PUSH1 0x0 DUP6 PUSH20 0xFFFFFFFFFFFFFFFFFFFFFFFFFFFFFFFFFFFFFFFF AND PUSH20 0xFFFFFFFFFFFFFFFFFFFFFFFFFFFFFFFFFFFFFFFF AND DUP2 MSTORE PUSH1 0x20 ADD SWAP1 DUP2 MSTORE PUSH1 0x20 ADD PUSH1 0x0 KECCAK256 SLOAD PUSH2 0x6A6 SWAP2 SWAP1 PUSH2 0x206E JUMP JUMPDEST LT ISZERO JUMPDEST PUSH2 0x6E8 JUMPI PUSH1 0x40 MLOAD PUSH32 0x8C379A000000000000000000000000000000000000000000000000000000000 DUP2 MSTORE PUSH1 0x4 ADD PUSH2 0x6DF SWAP1 PUSH2 0x1E7E JUMP JUMPDEST PUSH1 0x40 MLOAD DUP1 SWAP2 SUB SWAP1 REVERT JUMPDEST DUP1 PUSH1 0x5 PUSH1 0x0 DUP6 PUSH20 0xFFFFFFFFFFFFFFFFFFFFFFFFFFFFFFFFFFFFFFFF AND PUSH20 0xFFFFFFFFFFFFFFFFFFFFFFFFFFFFFFFFFFFFFFFF AND DUP2 MSTORE PUSH1 0x20 ADD SWAP1 DUP2 MSTORE PUSH1 0x20 ADD PUSH1 0x0 KECCAK256 PUSH1 0x0 DUP3 DUP3 SLOAD PUSH2 0x737 SWAP2 SWAP1 PUSH2 0x214F JUMP JUMPDEST SWAP3 POP POP DUP2 SWAP1 SSTORE POP DUP1 PUSH1 0x1 PUSH1 0x0 DUP6 PUSH20 0xFFFFFFFFFFFFFFFFFFFFFFFFFFFFFFFFFFFFFFFF AND PUSH20 0xFFFFFFFFFFFFFFFFFFFFFFFFFFFFFFFFFFFFFFFF AND DUP2 MSTORE PUSH1 0x20 ADD SWAP1 DUP2 MSTORE PUSH1 0x20 ADD PUSH1 0x0 KECCAK256 PUSH1 0x0 CALLER PUSH20 0xFFFFFFFFFFFFFFFFFFFFFFFFFFFFFFFFFFFFFFFF AND PUSH20 0xFFFFFFFFFFFFFFFFFFFFFFFFFFFFFFFFFFFFFFFF AND DUP2 MSTORE PUSH1 0x20 ADD SWAP1 DUP2 MSTORE PUSH1 0x20 ADD PUSH1 0x0 KECCAK256 PUSH1 0x0 DUP3 DUP3 SLOAD PUSH2 0x7CA SWAP2 SWAP1 PUSH2 0x214F JUMP JUMPDEST SWAP3 POP POP DUP2 SWAP1 SSTORE POP DUP1 PUSH1 0x5 PUSH1 0x0 DUP5 PUSH20 0xFFFFFFFFFFFFFFFFFFFFFFFFFFFFFFFFFFFFFFFF AND PUSH20 0xFFFFFFFFFFFFFFFFFFFFFFFFFFFFFFFFFFFFFFFF AND DUP2 MSTORE PUSH1 0x20 ADD SWAP1 DUP2 MSTORE PUSH1 0x20 ADD PUSH1 0x0 KECCAK256 PUSH1 0x0 DUP3 DUP3 SLOAD PUSH2 0x820 SWAP2 SWAP1 PUSH2 0x206E JUMP JUMPDEST SWAP3 POP POP DUP2 SWAP1 SSTORE POP POP POP POP JUMP JUMPDEST PUSH1 0x12 DUP2 JUMP JUMPDEST PUSH1 0x3 PUSH1 0x20 MSTORE DUP2 PUSH1 0x0 MSTORE PUSH1 0x40 PUSH1 0x0 KECCAK256 DUP2 DUP2 SLOAD DUP2 LT PUSH2 0x84D JUMPI PUSH1 0x0 DUP1 REVERT JUMPDEST SWAP1 PUSH1 0x0 MSTORE PUSH1 0x20 PUSH1 0x0 KECCAK256 SWAP1 PUSH1 0x3 MUL ADD PUSH1 0x0 SWAP2 POP SWAP2 POP POP DUP1 PUSH1 0x0 ADD SLOAD SWAP1 DUP1 PUSH1 0x1 ADD DUP1 SLOAD PUSH2 0x877 SWAP1 PUSH2 0x2217 JUMP JUMPDEST DUP1 PUSH1 0x1F ADD PUSH1 0x20 DUP1 SWAP2 DIV MUL PUSH1 0x20 ADD PUSH1 0x40 MLOAD SWAP1 DUP2 ADD PUSH1 0x40 MSTORE DUP1 SWAP3 SWAP2 SWAP1 DUP2 DUP2 MSTORE PUSH1 0x20 ADD DUP3 DUP1 SLOAD PUSH2 0x8A3 SWAP1 PUSH2 0x2217 JUMP JUMPDEST DUP1 ISZERO PUSH2 0x8F0 JUMPI DUP1 PUSH1 0x1F LT PUSH2 0x8C5 JUMPI PUSH2 0x100 DUP1 DUP4 SLOAD DIV MUL DUP4 MSTORE SWAP2 PUSH1 0x20 ADD SWAP2 PUSH2 0x8F0 JUMP JUMPDEST DUP3 ADD SWAP2 SWAP1 PUSH1 0x0 MSTORE PUSH1 0x20 PUSH1 0x0 KECCAK256 SWAP1 JUMPDEST DUP2 SLOAD DUP2 MSTORE SWAP1 PUSH1 0x1 ADD SWAP1 PUSH1 0x20 ADD DUP1 DUP4 GT PUSH2 0x8D3 JUMPI DUP3 SWAP1 SUB PUSH1 0x1F AND DUP3 ADD SWAP2 JUMPDEST POP POP POP POP POP SWAP1 DUP1 PUSH1 0x2 ADD PUSH1 0x0 SWAP1 SLOAD SWAP1 PUSH2 0x100 EXP SWAP1 DIV PUSH20 0xFFFFFFFFFFFFFFFFFFFFFFFFFFFFFFFFFFFFFFFF AND SWAP1 POP DUP4 JUMP JUMPDEST PUSH1 0x4 PUSH1 0x20 MSTORE DUP2 PUSH1 0x0 MSTORE PUSH1 0x40 PUSH1 0x0 KECCAK256 DUP2 DUP2 SLOAD DUP2 LT PUSH2 0x93C JUMPI PUSH1 0x0 DUP1 REVERT JUMPDEST SWAP1 PUSH1 0x0 MSTORE PUSH1 0x20 PUSH1 0x0 KECCAK256 SWAP1 PUSH1 0x4 MUL ADD PUSH1 0x0 SWAP2 POP SWAP2 POP POP DUP1 PUSH1 0x0 ADD SLOAD SWAP1 DUP1 PUSH1 0x1 ADD SLOAD SWAP1 DUP1 PUSH1 0x2 ADD PUSH1 0x0 SWAP1 SLOAD SWAP1 PUSH2 0x100 EXP SWAP1 DIV PUSH20 0xFFFFFFFFFFFFFFFFFFFFFFFFFFFFFFFFFFFFFFFF AND SWAP1 DUP1 PUSH1 0x3 ADD SLOAD SWAP1 POP DUP5 JUMP JUMPDEST PUSH1 0x0 PUSH1 0x7 PUSH1 0x0 DUP5 PUSH20 0xFFFFFFFFFFFFFFFFFFFFFFFFFFFFFFFFFFFFFFFF AND PUSH20 0xFFFFFFFFFFFFFFFFFFFFFFFFFFFFFFFFFFFFFFFF AND DUP2 MSTORE PUSH1 0x20 ADD SWAP1 DUP2 MSTORE PUSH1 0x20 ADD PUSH1 0x0 KECCAK256 SWAP1 POP PUSH1 0x1 DUP2 PUSH1 0x1 ADD SLOAD PUSH2 0x9E1 SWAP2 SWAP1 PUSH2 0x206E JUMP JUMPDEST DUP3 DUP3 PUSH1 0x1 ADD SLOAD DUP4 PUSH1 0x0 ADD SLOAD PUSH2 0x9F6 SWAP2 SWAP1 PUSH2 0x20F5 JUMP JUMPDEST PUSH2 0xA00 SWAP2 SWAP1 PUSH2 0x206E JUMP JUMPDEST PUSH2 0xA0A SWAP2 SWAP1 PUSH2 0x20C4 JUMP JUMPDEST DUP2 PUSH1 0x0 ADD DUP2 SWAP1 SSTORE POP DUP1 PUSH1 0x1 ADD PUSH1 0x0 DUP2 SLOAD DUP1 SWAP3 SWAP2 SWAP1 PUSH2 0xA27 SWAP1 PUSH2 0x227A JUMP JUMPDEST SWAP2 SWAP1 POP SSTORE POP POP POP POP JUMP JUMPDEST PUSH1 0x6 PUSH1 0x20 MSTORE DUP1 PUSH1 0x0 MSTORE PUSH1 0x40 PUSH1 0x0 KECCAK256 PUSH1 0x0 SWAP2 POP SWAP1 POP DUP1 PUSH1 0x0 ADD SLOAD SWAP1 DUP1 PUSH1 0x1 ADD PUSH1 0x0 SWAP1 SLOAD SWAP1 PUSH2 0x100 EXP SWAP1 DIV PUSH20 0xFFFFFFFFFFFFFFFFFFFFFFFFFFFFFFFFFFFFFFFF AND SWAP1 DUP1 PUSH1 0x2 ADD DUP1 SLOAD PUSH2 0xA80 SWAP1 PUSH2 0x2217 JUMP JUMPDEST DUP1 PUSH1 0x1F ADD PUSH1 0x20 DUP1 SWAP2 DIV MUL PUSH1 0x20 ADD PUSH1 0x40 MLOAD SWAP1 DUP2 ADD PUSH1 0x40 MSTORE DUP1 SWAP3 SWAP2 SWAP1 DUP2 DUP2 MSTORE PUSH1 0x20 ADD DUP3 DUP1 SLOAD PUSH2 0xAAC SWAP1 PUSH2 0x2217 JUMP JUMPDEST DUP1 ISZERO PUSH2 0xAF9 JUMPI DUP1 PUSH1 0x1F LT PUSH2 0xACE JUMPI PUSH2 0x100 DUP1 DUP4 SLOAD DIV MUL DUP4 MSTORE SWAP2 PUSH1 0x20 ADD SWAP2 PUSH2 0xAF9 JUMP JUMPDEST DUP3 ADD SWAP2 SWAP1 PUSH1 0x0 MSTORE PUSH1 0x20 PUSH1 0x0 KECCAK256 SWAP1 JUMPDEST DUP2 SLOAD DUP2 MSTORE SWAP1 PUSH1 0x1 ADD SWAP1 PUSH1 0x20 ADD DUP1 DUP4 GT PUSH2 0xADC JUMPI DUP3 SWAP1 SUB PUSH1 0x1F AND DUP3 ADD SWAP2 JUMPDEST POP POP POP POP POP SWAP1 DUP1 PUSH1 0x3 ADD SLOAD SWAP1 POP DUP5 JUMP JUMPDEST PUSH1 0x1 PUSH1 0x20 MSTORE DUP2 PUSH1 0x0 MSTORE PUSH1 0x40 PUSH1 0x0 KECCAK256 PUSH1 0x20 MSTORE DUP1 PUSH1 0x0 MSTORE PUSH1 0x40 PUSH1 0x0 KECCAK256 PUSH1 0x0 SWAP2 POP SWAP2 POP POP SLOAD DUP2 JUMP JUMPDEST PUSH1 0x40 MLOAD DUP1 PUSH2 0x100 ADD PUSH1 0x40 MSTORE DUP1 DUP8 DUP2 MSTORE PUSH1 0x20 ADD DUP7 DUP2 MSTORE PUSH1 0x20 ADD DUP6 DUP2 MSTORE PUSH1 0x20 ADD DUP5 DUP2 MSTORE PUSH1 0x20 ADD CALLER PUSH20 0xFFFFFFFFFFFFFFFFFFFFFFFFFFFFFFFFFFFFFFFF AND DUP2 MSTORE PUSH1 0x20 ADD DUP4 DUP2 MSTORE PUSH1 0x20 ADD DUP3 DUP2 MSTORE PUSH1 0x20 ADD PUSH1 0x0 ISZERO ISZERO DUP2 MSTORE POP PUSH1 0x2 PUSH1 0x0 DUP9 PUSH1 0x40 MLOAD PUSH1 0x20 ADD PUSH2 0xB96 SWAP2 SWAP1 PUSH2 0x1D43 JUMP JUMPDEST PUSH1 0x40 MLOAD PUSH1 0x20 DUP2 DUP4 SUB SUB DUP2 MSTORE SWAP1 PUSH1 0x40 MSTORE DUP1 MLOAD SWAP1 PUSH1 0x20 ADD KECCAK256 DUP2 MSTORE PUSH1 0x20 ADD SWAP1 DUP2 MSTORE PUSH1 0x20 ADD PUSH1 0x0 KECCAK256 PUSH1 0x0 DUP3 ADD MLOAD DUP2 PUSH1 0x0 ADD SWAP1 DUP1 MLOAD SWAP1 PUSH1 0x20 ADD SWAP1 PUSH2 0xBD6 SWAP3 SWAP2 SWAP1 PUSH2 0x15A8 JUMP JUMPDEST POP PUSH1 0x20 DUP3 ADD MLOAD DUP2 PUSH1 0x1 ADD SWAP1 DUP1 MLOAD SWAP1 PUSH1 0x20 ADD SWAP1 PUSH2 0xBF3 SWAP3 SWAP2 SWAP1 PUSH2 0x15A8 JUMP JUMPDEST POP PUSH1 0x40 DUP3 ADD MLOAD DUP2 PUSH1 0x2 ADD SWAP1 DUP1 MLOAD SWAP1 PUSH1 0x20 ADD SWAP1 PUSH2 0xC10 SWAP3 SWAP2 SWAP1 PUSH2 0x15A8 JUMP JUMPDEST POP PUSH1 0x60 DUP3 ADD MLOAD DUP2 PUSH1 0x3 ADD SSTORE PUSH1 0x80 DUP3 ADD MLOAD DUP2 PUSH1 0x4 ADD PUSH1 0x0 PUSH2 0x100 EXP DUP2 SLOAD DUP2 PUSH20 0xFFFFFFFFFFFFFFFFFFFFFFFFFFFFFFFFFFFFFFFF MUL NOT AND SWAP1 DUP4 PUSH20 0xFFFFFFFFFFFFFFFFFFFFFFFFFFFFFFFFFFFFFFFF AND MUL OR SWAP1 SSTORE POP PUSH1 0xA0 DUP3 ADD MLOAD DUP2 PUSH1 0x5 ADD SWAP1 DUP1 MLOAD SWAP1 PUSH1 0x20 ADD SWAP1 PUSH2 0xC7E SWAP3 SWAP2 SWAP1 PUSH2 0x162E JUMP JUMPDEST POP PUSH1 0xC0 DUP3 ADD MLOAD DUP2 PUSH1 0x6 ADD SWAP1 DUP1 MLOAD SWAP1 PUSH1 0x20 ADD SWAP1 PUSH2 0xC9B SWAP3 SWAP2 SWAP1 PUSH2 0x162E JUMP JUMPDEST POP PUSH1 0xE0 DUP3 ADD MLOAD DUP2 PUSH1 0x7 ADD PUSH1 0x0 PUSH2 0x100 EXP DUP2 SLOAD DUP2 PUSH1 0xFF MUL NOT AND SWAP1 DUP4 ISZERO ISZERO MUL OR SWAP1 SSTORE POP SWAP1 POP POP POP POP POP POP POP POP JUMP JUMPDEST PUSH1 0x0 PUSH1 0x2 PUSH1 0x0 DUP7 DUP2 MSTORE PUSH1 0x20 ADD SWAP1 DUP2 MSTORE PUSH1 0x20 ADD PUSH1 0x0 KECCAK256 SWAP1 POP PUSH1 0x0 PUSH20 0xFFFFFFFFFFFFFFFFFFFFFFFFFFFFFFFFFFFFFFFF AND DUP2 PUSH1 0x4 ADD PUSH1 0x0 SWAP1 SLOAD SWAP1 PUSH2 0x100 EXP SWAP1 DIV PUSH20 0xFFFFFFFFFFFFFFFFFFFFFFFFFFFFFFFFFFFFFFFF AND PUSH20 0xFFFFFFFFFFFFFFFFFFFFFFFFFFFFFFFFFFFFFFFF AND EQ ISZERO PUSH2 0xD72 JUMPI PUSH1 0x40 MLOAD PUSH32 0x8C379A000000000000000000000000000000000000000000000000000000000 DUP2 MSTORE PUSH1 0x4 ADD PUSH2 0xD69 SWAP1 PUSH2 0x1E5E JUMP JUMPDEST PUSH1 0x40 MLOAD DUP1 SWAP2 SUB SWAP1 REVERT JUMPDEST PUSH1 0x4 PUSH1 0x0 DUP7 DUP2 MSTORE PUSH1 0x20 ADD SWAP1 DUP2 MSTORE PUSH1 0x20 ADD PUSH1 0x0 KECCAK256 PUSH1 0x40 MLOAD DUP1 PUSH1 0x80 ADD PUSH1 0x40 MSTORE DUP1 DUP7 DUP2 MSTORE PUSH1 0x20 ADD DUP6 DUP2 MSTORE PUSH1 0x20 ADD CALLER PUSH20 0xFFFFFFFFFFFFFFFFFFFFFFFFFFFFFFFFFFFFFFFF AND DUP2 MSTORE PUSH1 0x20 ADD DUP5 DUP2 MSTORE POP SWAP1 DUP1 PUSH1 0x1 DUP2 SLOAD ADD DUP1 DUP3 SSTORE DUP1 SWAP2 POP POP PUSH1 0x1 SWAP1 SUB SWAP1 PUSH1 0x0 MSTORE PUSH1 0x20 PUSH1 0x0 KECCAK256 SWAP1 PUSH1 0x4 MUL ADD PUSH1 0x0 SWAP1 SWAP2 SWAP1 SWAP2 SWAP1 SWAP2 POP PUSH1 0x0 DUP3 ADD MLOAD DUP2 PUSH1 0x0 ADD SSTORE PUSH1 0x20 DUP3 ADD MLOAD DUP2 PUSH1 0x1 ADD SSTORE PUSH1 0x40 DUP3 ADD MLOAD DUP2 PUSH1 0x2 ADD PUSH1 0x0 PUSH2 0x100 EXP DUP2 SLOAD DUP2 PUSH20 0xFFFFFFFFFFFFFFFFFFFFFFFFFFFFFFFFFFFFFFFF MUL NOT AND SWAP1 DUP4 PUSH20 0xFFFFFFFFFFFFFFFFFFFFFFFFFFFFFFFFFFFFFFFF AND MUL OR SWAP1 SSTORE POP PUSH1 0x60 DUP3 ADD MLOAD DUP2 PUSH1 0x3 ADD SSTORE POP POP POP POP POP POP POP JUMP JUMPDEST PUSH1 0x5 PUSH1 0x20 MSTORE DUP1 PUSH1 0x0 MSTORE PUSH1 0x40 PUSH1 0x0 KECCAK256 PUSH1 0x0 SWAP2 POP SWAP1 POP SLOAD DUP2 JUMP JUMPDEST PUSH1 0x0 PUSH1 0x2 PUSH1 0x0 DUP4 DUP2 MSTORE PUSH1 0x20 ADD SWAP1 DUP2 MSTORE PUSH1 0x20 ADD PUSH1 0x0 KECCAK256 SWAP1 POP PUSH1 0x0 PUSH20 0xFFFFFFFFFFFFFFFFFFFFFFFFFFFFFFFFFFFFFFFF AND DUP2 PUSH1 0x4 ADD PUSH1 0x0 SWAP1 SLOAD SWAP1 PUSH2 0x100 EXP SWAP1 DIV PUSH20 0xFFFFFFFFFFFFFFFFFFFFFFFFFFFFFFFFFFFFFFFF AND PUSH20 0xFFFFFFFFFFFFFFFFFFFFFFFFFFFFFFFFFFFFFFFF AND EQ ISZERO PUSH2 0xF16 JUMPI PUSH1 0x40 MLOAD PUSH32 0x8C379A000000000000000000000000000000000000000000000000000000000 DUP2 MSTORE PUSH1 0x4 ADD PUSH2 0xF0D SWAP1 PUSH2 0x1E5E JUMP JUMPDEST PUSH1 0x40 MLOAD DUP1 SWAP2 SUB SWAP1 REVERT JUMPDEST DUP1 PUSH1 0x7 ADD PUSH1 0x0 SWAP1 SLOAD SWAP1 PUSH2 0x100 EXP SWAP1 DIV PUSH1 0xFF AND ISZERO PUSH2 0xF68 JUMPI PUSH1 0x40 MLOAD PUSH32 0x8C379A000000000000000000000000000000000000000000000000000000000 DUP2 MSTORE PUSH1 0x4 ADD PUSH2 0xF5F SWAP1 PUSH2 0x1EBE JUMP JUMPDEST PUSH1 0x40 MLOAD DUP1 SWAP2 SUB SWAP1 REVERT JUMPDEST PUSH1 0x1 DUP2 PUSH1 0x7 ADD PUSH1 0x0 PUSH2 0x100 EXP DUP2 SLOAD DUP2 PUSH1 0xFF MUL NOT AND SWAP1 DUP4 ISZERO ISZERO MUL OR SWAP1 SSTORE POP POP POP JUMP JUMPDEST PUSH1 0x0 PUSH1 0x2 PUSH1 0x0 DUP6 DUP2 MSTORE PUSH1 0x20 ADD SWAP1 DUP2 MSTORE PUSH1 0x20 ADD PUSH1 0x0 KECCAK256 SWAP1 POP PUSH1 0x0 PUSH20 0xFFFFFFFFFFFFFFFFFFFFFFFFFFFFFFFFFFFFFFFF AND DUP2 PUSH1 0x4 ADD PUSH1 0x0 SWAP1 SLOAD SWAP1 PUSH2 0x100 EXP SWAP1 DIV PUSH20 0xFFFFFFFFFFFFFFFFFFFFFFFFFFFFFFFFFFFFFFFF AND PUSH20 0xFFFFFFFFFFFFFFFFFFFFFFFFFFFFFFFFFFFFFFFF AND EQ ISZERO PUSH2 0x1034 JUMPI PUSH1 0x40 MLOAD PUSH32 0x8C379A000000000000000000000000000000000000000000000000000000000 DUP2 MSTORE PUSH1 0x4 ADD PUSH2 0x102B SWAP1 PUSH2 0x1E5E JUMP JUMPDEST PUSH1 0x40 MLOAD DUP1 SWAP2 SUB SWAP1 REVERT JUMPDEST PUSH1 0x3 PUSH1 0x0 DUP6 DUP2 MSTORE PUSH1 0x20 ADD SWAP1 DUP2 MSTORE PUSH1 0x20 ADD PUSH1 0x0 KECCAK256 PUSH1 0x40 MLOAD DUP1 PUSH1 0x60 ADD PUSH1 0x40 MSTORE DUP1 DUP6 DUP2 MSTORE PUSH1 0x20 ADD DUP5 DUP2 MSTORE PUSH1 0x20 ADD CALLER PUSH20 0xFFFFFFFFFFFFFFFFFFFFFFFFFFFFFFFFFFFFFFFF AND DUP2 MSTORE POP SWAP1 DUP1 PUSH1 0x1 DUP2 SLOAD ADD DUP1 DUP3 SSTORE DUP1 SWAP2 POP POP PUSH1 0x1 SWAP1 SUB SWAP1 PUSH1 0x0 MSTORE PUSH1 0x20 PUSH1 0x0 KECCAK256 SWAP1 PUSH1 0x3 MUL ADD PUSH1 0x0 SWAP1 SWAP2 SWAP1 SWAP2 SWAP1 SWAP2 POP PUSH1 0x0 DUP3 ADD MLOAD DUP2 PUSH1 0x0 ADD SSTORE PUSH1 0x20 DUP3 ADD MLOAD DUP2 PUSH1 0x1 ADD SWAP1 DUP1 MLOAD SWAP1 PUSH1 0x20 ADD SWAP1 PUSH2 0x10C7 SWAP3 SWAP2 SWAP1 PUSH2 0x15A8 JUMP JUMPDEST POP PUSH1 0x40 DUP3 ADD MLOAD DUP2 PUSH1 0x2 ADD PUSH1 0x0 PUSH2 0x100 EXP DUP2 SLOAD DUP2 PUSH20 0xFFFFFFFFFFFFFFFFFFFFFFFFFFFFFFFFFFFFFFFF MUL NOT AND SWAP1 DUP4 PUSH20 0xFFFFFFFFFFFFFFFFFFFFFFFFFFFFFFFFFFFFFFFF AND MUL OR SWAP1 SSTORE POP POP POP POP POP POP POP JUMP JUMPDEST PUSH1 0x40 MLOAD DUP1 PUSH1 0x40 ADD PUSH1 0x40 MSTORE DUP1 PUSH1 0x3 DUP2 MSTORE PUSH1 0x20 ADD PUSH32 0x444E470000000000000000000000000000000000000000000000000000000000 DUP2 MSTORE POP DUP2 JUMP JUMPDEST PUSH1 0x7 PUSH1 0x20 MSTORE DUP1 PUSH1 0x0 MSTORE PUSH1 0x40 PUSH1 0x0 KECCAK256 PUSH1 0x0 SWAP2 POP SWAP1 POP DUP1 PUSH1 0x0 ADD SLOAD SWAP1 DUP1 PUSH1 0x1 ADD SLOAD SWAP1 POP DUP3 JUMP JUMPDEST DUP1 PUSH1 0x5 PUSH1 0x0 CALLER PUSH20 0xFFFFFFFFFFFFFFFFFFFFFFFFFFFFFFFFFFFFFFFF AND PUSH20 0xFFFFFFFFFFFFFFFFFFFFFFFFFFFFFFFFFFFFFFFF AND DUP2 MSTORE PUSH1 0x20 ADD SWAP1 DUP2 MSTORE PUSH1 0x20 ADD PUSH1 0x0 KECCAK256 SLOAD LT ISZERO DUP1 ISZERO PUSH2 0x124C JUMPI POP PUSH1 0x5 PUSH1 0x0 DUP4 PUSH20 0xFFFFFFFFFFFFFFFFFFFFFFFFFFFFFFFFFFFFFFFF AND PUSH20 0xFFFFFFFFFFFFFFFFFFFFFFFFFFFFFFFFFFFFFFFF AND DUP2 MSTORE PUSH1 0x20 ADD SWAP1 DUP2 MSTORE PUSH1 0x20 ADD PUSH1 0x0 KECCAK256 SLOAD DUP2 PUSH1 0x5 PUSH1 0x0 DUP6 PUSH20 0xFFFFFFFFFFFFFFFFFFFFFFFFFFFFFFFFFFFFFFFF AND PUSH20 0xFFFFFFFFFFFFFFFFFFFFFFFFFFFFFFFFFFFFFFFF AND DUP2 MSTORE PUSH1 0x20 ADD SWAP1 DUP2 MSTORE PUSH1 0x20 ADD PUSH1 0x0 KECCAK256 SLOAD PUSH2 0x1249 SWAP2 SWAP1 PUSH2 0x206E JUMP JUMPDEST LT ISZERO JUMPDEST PUSH2 0x128B JUMPI PUSH1 0x40 MLOAD PUSH32 0x8C379A000000000000000000000000000000000000000000000000000000000 DUP2 MSTORE PUSH1 0x4 ADD PUSH2 0x1282 SWAP1 PUSH2 0x1E9E JUMP JUMPDEST PUSH1 0x40 MLOAD DUP1 SWAP2 SUB SWAP1 REVERT JUMPDEST DUP1 PUSH1 0x5 PUSH1 0x0 CALLER PUSH20 0xFFFFFFFFFFFFFFFFFFFFFFFFFFFFFFFFFFFFFFFF AND PUSH20 0xFFFFFFFFFFFFFFFFFFFFFFFFFFFFFFFFFFFFFFFF AND DUP2 MSTORE PUSH1 0x20 ADD SWAP1 DUP2 MSTORE PUSH1 0x20 ADD PUSH1 0x0 KECCAK256 PUSH1 0x0 DUP3 DUP3 SLOAD PUSH2 0x12DA SWAP2 SWAP1 PUSH2 0x214F JUMP JUMPDEST SWAP3 POP POP DUP2 SWAP1 SSTORE POP DUP1 PUSH1 0x5 PUSH1 0x0 DUP5 PUSH20 0xFFFFFFFFFFFFFFFFFFFFFFFFFFFFFFFFFFFFFFFF AND PUSH20 0xFFFFFFFFFFFFFFFFFFFFFFFFFFFFFFFFFFFFFFFF AND DUP2 MSTORE PUSH1 0x20 ADD SWAP1 DUP2 MSTORE PUSH1 0x20 ADD PUSH1 0x0 KECCAK256 PUSH1 0x0 DUP3 DUP3 SLOAD PUSH2 0x1330 SWAP2 SWAP1 PUSH2 0x206E JUMP JUMPDEST SWAP3 POP POP DUP2 SWAP1 SSTORE POP POP POP JUMP JUMPDEST PUSH1 0x2 PUSH1 0x20 MSTORE DUP1 PUSH1 0x0 MSTORE PUSH1 0x40 PUSH1 0x0 KECCAK256 PUSH1 0x0 SWAP2 POP SWAP1 POP DUP1 PUSH1 0x0 ADD DUP1 SLOAD PUSH2 0x135E SWAP1 PUSH2 0x2217 JUMP JUMPDEST DUP1 PUSH1 0x1F ADD PUSH1 0x20 DUP1 SWAP2 DIV MUL PUSH1 0x20 ADD PUSH1 0x40 MLOAD SWAP1 DUP2 ADD PUSH1 0x40 MSTORE DUP1 SWAP3 SWAP2 SWAP1 DUP2 DUP2 MSTORE PUSH1 0x20 ADD DUP3 DUP1 SLOAD PUSH2 0x138A SWAP1 PUSH2 0x2217 JUMP JUMPDEST DUP1 ISZERO PUSH2 0x13D7 JUMPI DUP1 PUSH1 0x1F LT PUSH2 0x13AC JUMPI PUSH2 0x100 DUP1 DUP4 SLOAD DIV MUL DUP4 MSTORE SWAP2 PUSH1 0x20 ADD SWAP2 PUSH2 0x13D7 JUMP JUMPDEST DUP3 ADD SWAP2 SWAP1 PUSH1 0x0 MSTORE PUSH1 0x20 PUSH1 0x0 KECCAK256 SWAP1 JUMPDEST DUP2 SLOAD DUP2 MSTORE SWAP1 PUSH1 0x1 ADD SWAP1 PUSH1 0x20 ADD DUP1 DUP4 GT PUSH2 0x13BA JUMPI DUP3 SWAP1 SUB PUSH1 0x1F AND DUP3 ADD SWAP2 JUMPDEST POP POP POP POP POP SWAP1 DUP1 PUSH1 0x1 ADD DUP1 SLOAD PUSH2 0x13EC SWAP1 PUSH2 0x2217 JUMP JUMPDEST DUP1 PUSH1 0x1F ADD PUSH1 0x20 DUP1 SWAP2 DIV MUL PUSH1 0x20 ADD PUSH1 0x40 MLOAD SWAP1 DUP2 ADD PUSH1 0x40 MSTORE DUP1 SWAP3 SWAP2 SWAP1 DUP2 DUP2 MSTORE PUSH1 0x20 ADD DUP3 DUP1 SLOAD PUSH2 0x1418 SWAP1 PUSH2 0x2217 JUMP JUMPDEST DUP1 ISZERO PUSH2 0x1465 JUMPI DUP1 PUSH1 0x1F LT PUSH2 0x143A JUMPI PUSH2 0x100 DUP1 DUP4 SLOAD DIV MUL DUP4 MSTORE SWAP2 PUSH1 0x20 ADD SWAP2 PUSH2 0x1465 JUMP JUMPDEST DUP3 ADD SWAP2 SWAP1 PUSH1 0x0 MSTORE PUSH1 0x20 PUSH1 0x0 KECCAK256 SWAP1 JUMPDEST DUP2 SLOAD DUP2 MSTORE SWAP1 PUSH1 0x1 ADD SWAP1 PUSH1 0x20 ADD DUP1 DUP4 GT PUSH2 0x1448 JUMPI DUP3 SWAP1 SUB PUSH1 0x1F AND DUP3 ADD SWAP2 JUMPDEST POP POP POP POP POP SWAP1 DUP1 PUSH1 0x2 ADD DUP1 SLOAD PUSH2 0x147A SWAP1 PUSH2 0x2217 JUMP JUMPDEST DUP1 PUSH1 0x1F ADD PUSH1 0x20 DUP1 SWAP2 DIV MUL PUSH1 0x20 ADD PUSH1 0x40 MLOAD SWAP1 DUP2 ADD PUSH1 0x40 MSTORE DUP1 SWAP3 SWAP2 SWAP1 DUP2 DUP2 MSTORE PUSH1 0x20 ADD DUP3 DUP1 SLOAD PUSH2 0x14A6 SWAP1 PUSH2 0x2217 JUMP JUMPDEST DUP1 ISZERO PUSH2 0x14F3 JUMPI DUP1 PUSH1 0x1F LT PUSH2 0x14C8 JUMPI PUSH2 0x100 DUP1 DUP4 SLOAD DIV MUL DUP4 MSTORE SWAP2 PUSH1 0x20 ADD SWAP2 PUSH2 0x14F3 JUMP JUMPDEST DUP3 ADD SWAP2 SWAP1 PUSH1 0x0 MSTORE PUSH1 0x20 PUSH1 0x0 KECCAK256 SWAP1 JUMPDEST DUP2 SLOAD DUP2 MSTORE SWAP1 PUSH1 0x1 ADD SWAP1 PUSH1 0x20 ADD DUP1 DUP4 GT PUSH2 0x14D6 JUMPI DUP3 SWAP1 SUB PUSH1 0x1F AND DUP3 ADD SWAP2 JUMPDEST POP POP POP POP POP SWAP1 DUP1 PUSH1 0x3 ADD SLOAD SWAP1 DUP1 PUSH1 0x4 ADD PUSH1 0x0 SWAP1 SLOAD SWAP1 PUSH2 0x100 EXP SWAP1 DIV PUSH20 0xFFFFFFFFFFFFFFFFFFFFFFFFFFFFFFFFFFFFFFFF AND SWAP1 DUP1 PUSH1 0x7 ADD PUSH1 0x0 SWAP1 SLOAD SWAP1 PUSH2 0x100 EXP SWAP1 DIV PUSH1 0xFF AND SWAP1 POP DUP7 JUMP JUMPDEST PUSH1 0x0 PUSH1 0x6 PUSH1 0x0 DUP5 DUP2 MSTORE PUSH1 0x20 ADD SWAP1 DUP2 MSTORE PUSH1 0x20 ADD PUSH1 0x0 KECCAK256 SWAP1 POP PUSH1 0x0 DUP2 PUSH1 0x3 ADD SLOAD EQ PUSH2 0x159A JUMPI PUSH1 0x40 MLOAD PUSH32 0x8C379A000000000000000000000000000000000000000000000000000000000 DUP2 MSTORE PUSH1 0x4 ADD PUSH2 0x1591 SWAP1 PUSH2 0x1E3E JUMP JUMPDEST PUSH1 0x40 MLOAD DUP1 SWAP2 SUB SWAP1 REVERT JUMPDEST DUP2 DUP2 PUSH1 0x3 ADD DUP2 SWAP1 SSTORE POP POP POP POP JUMP JUMPDEST DUP3 DUP1 SLOAD PUSH2 0x15B4 SWAP1 PUSH2 0x2217 JUMP JUMPDEST SWAP1 PUSH1 0x0 MSTORE PUSH1 0x20 PUSH1 0x0 KECCAK256 SWAP1 PUSH1 0x1F ADD PUSH1 0x20 SWAP1 DIV DUP2 ADD SWAP3 DUP3 PUSH2 0x15D6 JUMPI PUSH1 0x0 DUP6 SSTORE PUSH2 0x161D JUMP JUMPDEST DUP3 PUSH1 0x1F LT PUSH2 0x15EF JUMPI DUP1 MLOAD PUSH1 0xFF NOT AND DUP4 DUP1 ADD OR DUP6 SSTORE PUSH2 0x161D JUMP JUMPDEST DUP3 DUP1 ADD PUSH1 0x1 ADD DUP6 SSTORE DUP3 ISZERO PUSH2 0x161D JUMPI SWAP2 DUP3 ADD JUMPDEST DUP3 DUP2 GT ISZERO PUSH2 0x161C JUMPI DUP3 MLOAD DUP3 SSTORE SWAP2 PUSH1 0x20 ADD SWAP2 SWAP1 PUSH1 0x1 ADD SWAP1 PUSH2 0x1601 JUMP JUMPDEST JUMPDEST POP SWAP1 POP PUSH2 0x162A SWAP2 SWAP1 PUSH2 0x167B JUMP JUMPDEST POP SWAP1 JUMP JUMPDEST DUP3 DUP1 SLOAD DUP3 DUP3 SSTORE SWAP1 PUSH1 0x0 MSTORE PUSH1 0x20 PUSH1 0x0 KECCAK256 SWAP1 DUP2 ADD SWAP3 DUP3 ISZERO PUSH2 0x166A JUMPI SWAP2 PUSH1 0x20 MUL DUP3 ADD JUMPDEST DUP3 DUP2 GT ISZERO PUSH2 0x1669 JUMPI DUP3 MLOAD DUP3 SSTORE SWAP2 PUSH1 0x20 ADD SWAP2 SWAP1 PUSH1 0x1 ADD SWAP1 PUSH2 0x164E JUMP JUMPDEST JUMPDEST POP SWAP1 POP PUSH2 0x1677 SWAP2 SWAP1 PUSH2 0x1698 JUMP JUMPDEST POP SWAP1 JUMP JUMPDEST JUMPDEST DUP1 DUP3 GT ISZERO PUSH2 0x1694 JUMPI PUSH1 0x0 DUP2 PUSH1 0x0 SWAP1 SSTORE POP PUSH1 0x1 ADD PUSH2 0x167C JUMP JUMPDEST POP SWAP1 JUMP JUMPDEST JUMPDEST DUP1 DUP3 GT ISZERO PUSH2 0x16B1 JUMPI PUSH1 0x0 DUP2 PUSH1 0x0 SWAP1 SSTORE POP PUSH1 0x1 ADD PUSH2 0x1699 JUMP JUMPDEST POP SWAP1 JUMP JUMPDEST PUSH1 0x0 PUSH2 0x16C8 PUSH2 0x16C3 DUP5 PUSH2 0x1FEA JUMP JUMPDEST PUSH2 0x1FC5 JUMP JUMPDEST SWAP1 POP DUP1 DUP4 DUP3 MSTORE PUSH1 0x20 DUP3 ADD SWAP1 POP DUP3 DUP6 PUSH1 0x20 DUP7 MUL DUP3 ADD GT ISZERO PUSH2 0x16EB JUMPI PUSH2 0x16EA PUSH2 0x2384 JUMP JUMPDEST JUMPDEST PUSH1 0x0 JUMPDEST DUP6 DUP2 LT ISZERO PUSH2 0x171B JUMPI DUP2 PUSH2 0x1701 DUP9 DUP3 PUSH2 0x17AA JUMP JUMPDEST DUP5 MSTORE PUSH1 0x20 DUP5 ADD SWAP4 POP PUSH1 0x20 DUP4 ADD SWAP3 POP POP PUSH1 0x1 DUP2 ADD SWAP1 POP PUSH2 0x16EE JUMP JUMPDEST POP POP POP SWAP4 SWAP3 POP POP POP JUMP JUMPDEST PUSH1 0x0 PUSH2 0x1738 PUSH2 0x1733 DUP5 PUSH2 0x2016 JUMP JUMPDEST PUSH2 0x1FC5 JUMP JUMPDEST SWAP1 POP DUP3 DUP2 MSTORE PUSH1 0x20 DUP2 ADD DUP5 DUP5 DUP5 ADD GT ISZERO PUSH2 0x1754 JUMPI PUSH2 0x1753 PUSH2 0x2389 JUMP JUMPDEST JUMPDEST PUSH2 0x175F DUP5 DUP3 DUP6 PUSH2 0x21D5 JUMP JUMPDEST POP SWAP4 SWAP3 POP POP POP JUMP JUMPDEST PUSH1 0x0 DUP2 CALLDATALOAD SWAP1 POP PUSH2 0x1776 DUP2 PUSH2 0x24C5 JUMP JUMPDEST SWAP3 SWAP2 POP POP JUMP JUMPDEST PUSH1 0x0 DUP3 PUSH1 0x1F DUP4 ADD SLT PUSH2 0x1791 JUMPI PUSH2 0x1790 PUSH2 0x237F JUMP JUMPDEST JUMPDEST DUP2 CALLDATALOAD PUSH2 0x17A1 DUP5 DUP3 PUSH1 0x20 DUP7 ADD PUSH2 0x16B5 JUMP JUMPDEST SWAP2 POP POP SWAP3 SWAP2 POP POP JUMP JUMPDEST PUSH1 0x0 DUP2 CALLDATALOAD SWAP1 POP PUSH2 0x17B9 DUP2 PUSH2 0x24DC JUMP JUMPDEST SWAP3 SWAP2 POP POP JUMP JUMPDEST PUSH1 0x0 DUP3 PUSH1 0x1F DUP4 ADD SLT PUSH2 0x17D4 JUMPI PUSH2 0x17D3 PUSH2 0x237F JUMP JUMPDEST JUMPDEST DUP2 CALLDATALOAD PUSH2 0x17E4 DUP5 DUP3 PUSH1 0x20 DUP7 ADD PUSH2 0x1725 JUMP JUMPDEST SWAP2 POP POP SWAP3 SWAP2 POP POP JUMP JUMPDEST PUSH1 0x0 DUP2 CALLDATALOAD SWAP1 POP PUSH2 0x17FC DUP2 PUSH2 0x24F3 JUMP JUMPDEST SWAP3 SWAP2 POP POP JUMP JUMPDEST PUSH1 0x0 PUSH1 0x20 DUP3 DUP5 SUB SLT ISZERO PUSH2 0x1818 JUMPI PUSH2 0x1817 PUSH2 0x2393 JUMP JUMPDEST JUMPDEST PUSH1 0x0 PUSH2 0x1826 DUP5 DUP3 DUP6 ADD PUSH2 0x1767 JUMP JUMPDEST SWAP2 POP POP SWAP3 SWAP2 POP POP JUMP JUMPDEST PUSH1 0x0 DUP1 PUSH1 0x40 DUP4 DUP6 SUB SLT ISZERO PUSH2 0x1846 JUMPI PUSH2 0x1845 PUSH2 0x2393 JUMP JUMPDEST JUMPDEST PUSH1 0x0 PUSH2 0x1854 DUP6 DUP3 DUP7 ADD PUSH2 0x1767 JUMP JUMPDEST SWAP3 POP POP PUSH1 0x20 PUSH2 0x1865 DUP6 DUP3 DUP7 ADD PUSH2 0x1767 JUMP JUMPDEST SWAP2 POP POP SWAP3 POP SWAP3 SWAP1 POP JUMP JUMPDEST PUSH1 0x0 DUP1 PUSH1 0x0 PUSH1 0x60 DUP5 DUP7 SUB SLT ISZERO PUSH2 0x1888 JUMPI PUSH2 0x1887 PUSH2 0x2393 JUMP JUMPDEST JUMPDEST PUSH1 0x0 PUSH2 0x1896 DUP7 DUP3 DUP8 ADD PUSH2 0x1767 JUMP JUMPDEST SWAP4 POP POP PUSH1 0x20 PUSH2 0x18A7 DUP7 DUP3 DUP8 ADD PUSH2 0x1767 JUMP JUMPDEST SWAP3 POP POP PUSH1 0x40 PUSH2 0x18B8 DUP7 DUP3 DUP8 ADD PUSH2 0x17ED JUMP JUMPDEST SWAP2 POP POP SWAP3 POP SWAP3 POP SWAP3 JUMP JUMPDEST PUSH1 0x0 DUP1 PUSH1 0x40 DUP4 DUP6 SUB SLT ISZERO PUSH2 0x18D9 JUMPI PUSH2 0x18D8 PUSH2 0x2393 JUMP JUMPDEST JUMPDEST PUSH1 0x0 PUSH2 0x18E7 DUP6 DUP3 DUP7 ADD PUSH2 0x1767 JUMP JUMPDEST SWAP3 POP POP PUSH1 0x20 PUSH2 0x18F8 DUP6 DUP3 DUP7 ADD PUSH2 0x17ED JUMP JUMPDEST SWAP2 POP POP SWAP3 POP SWAP3 SWAP1 POP JUMP JUMPDEST PUSH1 0x0 PUSH1 0x20 DUP3 DUP5 SUB SLT ISZERO PUSH2 0x1918 JUMPI PUSH2 0x1917 PUSH2 0x2393 JUMP JUMPDEST JUMPDEST PUSH1 0x0 PUSH2 0x1926 DUP5 DUP3 DUP6 ADD PUSH2 0x17AA JUMP JUMPDEST SWAP2 POP POP SWAP3 SWAP2 POP POP JUMP JUMPDEST PUSH1 0x0 DUP1 PUSH1 0x40 DUP4 DUP6 SUB SLT ISZERO PUSH2 0x1946 JUMPI PUSH2 0x1945 PUSH2 0x2393 JUMP JUMPDEST JUMPDEST PUSH1 0x0 PUSH2 0x1954 DUP6 DUP3 DUP7 ADD PUSH2 0x17AA JUMP JUMPDEST SWAP3 POP POP PUSH1 0x20 PUSH2 0x1965 DUP6 DUP3 DUP7 ADD PUSH2 0x17ED JUMP JUMPDEST SWAP2 POP POP SWAP3 POP SWAP3 SWAP1 POP JUMP JUMPDEST PUSH1 0x0 DUP1 PUSH1 0x0 PUSH1 0x60 DUP5 DUP7 SUB SLT ISZERO PUSH2 0x1988 JUMPI PUSH2 0x1987 PUSH2 0x2393 JUMP JUMPDEST JUMPDEST PUSH1 0x0 PUSH2 0x1996 DUP7 DUP3 DUP8 ADD PUSH2 0x17AA JUMP JUMPDEST SWAP4 POP POP PUSH1 0x20 PUSH2 0x19A7 DUP7 DUP3 DUP8 ADD PUSH2 0x17ED JUMP JUMPDEST SWAP3 POP POP PUSH1 0x40 DUP5 ADD CALLDATALOAD PUSH8 0xFFFFFFFFFFFFFFFF DUP2 GT ISZERO PUSH2 0x19C8 JUMPI PUSH2 0x19C7 PUSH2 0x238E JUMP JUMPDEST JUMPDEST PUSH2 0x19D4 DUP7 DUP3 DUP8 ADD PUSH2 0x17BF JUMP JUMPDEST SWAP2 POP POP SWAP3 POP SWAP3 POP SWAP3 JUMP JUMPDEST PUSH1 0x0 DUP1 PUSH1 0x0 DUP1 PUSH1 0x80 DUP6 DUP8 SUB SLT ISZERO PUSH2 0x19F8 JUMPI PUSH2 0x19F7 PUSH2 0x2393 JUMP JUMPDEST JUMPDEST PUSH1 0x0 PUSH2 0x1A06 DUP8 DUP3 DUP9 ADD PUSH2 0x17AA JUMP JUMPDEST SWAP5 POP POP PUSH1 0x20 PUSH2 0x1A17 DUP8 DUP3 DUP9 ADD PUSH2 0x17ED JUMP JUMPDEST SWAP4 POP POP PUSH1 0x40 PUSH2 0x1A28 DUP8 DUP3 DUP9 ADD PUSH2 0x17ED JUMP JUMPDEST SWAP3 POP POP PUSH1 0x60 PUSH2 0x1A39 DUP8 DUP3 DUP9 ADD PUSH2 0x17ED JUMP JUMPDEST SWAP2 POP POP SWAP3 SWAP6 SWAP2 SWAP5 POP SWAP3 POP JUMP JUMPDEST PUSH1 0x0 DUP1 PUSH1 0x0 DUP1 PUSH1 0x0 DUP1 PUSH1 0xC0 DUP8 DUP10 SUB SLT ISZERO PUSH2 0x1A62 JUMPI PUSH2 0x1A61 PUSH2 0x2393 JUMP JUMPDEST JUMPDEST PUSH1 0x0 DUP8 ADD CALLDATALOAD PUSH8 0xFFFFFFFFFFFFFFFF DUP2 GT ISZERO PUSH2 0x1A80 JUMPI PUSH2 0x1A7F PUSH2 0x238E JUMP JUMPDEST JUMPDEST PUSH2 0x1A8C DUP10 DUP3 DUP11 ADD PUSH2 0x17BF JUMP JUMPDEST SWAP7 POP POP PUSH1 0x20 DUP8 ADD CALLDATALOAD PUSH8 0xFFFFFFFFFFFFFFFF DUP2 GT ISZERO PUSH2 0x1AAD JUMPI PUSH2 0x1AAC PUSH2 0x238E JUMP JUMPDEST JUMPDEST PUSH2 0x1AB9 DUP10 DUP3 DUP11 ADD PUSH2 0x17BF JUMP JUMPDEST SWAP6 POP POP PUSH1 0x40 DUP8 ADD CALLDATALOAD PUSH8 0xFFFFFFFFFFFFFFFF DUP2 GT ISZERO PUSH2 0x1ADA JUMPI PUSH2 0x1AD9 PUSH2 0x238E JUMP JUMPDEST JUMPDEST PUSH2 0x1AE6 DUP10 DUP3 DUP11 ADD PUSH2 0x17BF JUMP JUMPDEST SWAP5 POP POP PUSH1 0x60 PUSH2 0x1AF7 DUP10 DUP3 DUP11 ADD PUSH2 0x17ED JUMP JUMPDEST SWAP4 POP POP PUSH1 0x80 DUP8 ADD CALLDATALOAD PUSH8 0xFFFFFFFFFFFFFFFF DUP2 GT ISZERO PUSH2 0x1B18 JUMPI PUSH2 0x1B17 PUSH2 0x238E JUMP JUMPDEST JUMPDEST PUSH2 0x1B24 DUP10 DUP3 DUP11 ADD PUSH2 0x177C JUMP JUMPDEST SWAP3 POP POP PUSH1 0xA0 DUP8 ADD CALLDATALOAD PUSH8 0xFFFFFFFFFFFFFFFF DUP2 GT ISZERO PUSH2 0x1B45 JUMPI PUSH2 0x1B44 PUSH2 0x238E JUMP JUMPDEST JUMPDEST PUSH2 0x1B51 DUP10 DUP3 DUP11 ADD PUSH2 0x177C JUMP JUMPDEST SWAP2 POP POP SWAP3 SWAP6 POP SWAP3 SWAP6 POP SWAP3 SWAP6 JUMP JUMPDEST PUSH1 0x0 PUSH1 0x20 DUP3 DUP5 SUB SLT ISZERO PUSH2 0x1B74 JUMPI PUSH2 0x1B73 PUSH2 0x2393 JUMP JUMPDEST JUMPDEST PUSH1 0x0 PUSH2 0x1B82 DUP5 DUP3 DUP6 ADD PUSH2 0x17ED JUMP JUMPDEST SWAP2 POP POP SWAP3 SWAP2 POP POP JUMP JUMPDEST PUSH1 0x0 DUP1 PUSH1 0x40 DUP4 DUP6 SUB SLT ISZERO PUSH2 0x1BA2 JUMPI PUSH2 0x1BA1 PUSH2 0x2393 JUMP JUMPDEST JUMPDEST PUSH1 0x0 PUSH2 0x1BB0 DUP6 DUP3 DUP7 ADD PUSH2 0x17ED JUMP JUMPDEST SWAP3 POP POP PUSH1 0x20 PUSH2 0x1BC1 DUP6 DUP3 DUP7 ADD PUSH2 0x17ED JUMP JUMPDEST SWAP2 POP POP SWAP3 POP SWAP3 SWAP1 POP JUMP JUMPDEST PUSH2 0x1BD4 DUP2 PUSH2 0x2183 JUMP JUMPDEST DUP3 MSTORE POP POP JUMP JUMPDEST PUSH2 0x1BE3 DUP2 PUSH2 0x2195 JUMP JUMPDEST DUP3 MSTORE POP POP JUMP JUMPDEST PUSH2 0x1BF2 DUP2 PUSH2 0x21A1 JUMP JUMPDEST DUP3 MSTORE POP POP JUMP JUMPDEST PUSH1 0x0 PUSH2 0x1C03 DUP3 PUSH2 0x2047 JUMP JUMPDEST PUSH2 0x1C0D DUP2 DUP6 PUSH2 0x2052 JUMP JUMPDEST SWAP4 POP PUSH2 0x1C1D DUP2 DUP6 PUSH1 0x20 DUP7 ADD PUSH2 0x21E4 JUMP JUMPDEST PUSH2 0x1C26 DUP2 PUSH2 0x2398 JUMP JUMPDEST DUP5 ADD SWAP2 POP POP SWAP3 SWAP2 POP POP JUMP JUMPDEST PUSH1 0x0 PUSH2 0x1C3C DUP3 PUSH2 0x2047 JUMP JUMPDEST PUSH2 0x1C46 DUP2 DUP6 PUSH2 0x2063 JUMP JUMPDEST SWAP4 POP PUSH2 0x1C56 DUP2 DUP6 PUSH1 0x20 DUP7 ADD PUSH2 0x21E4 JUMP JUMPDEST DUP1 DUP5 ADD SWAP2 POP POP SWAP3 SWAP2 POP POP JUMP JUMPDEST PUSH1 0x0 PUSH2 0x1C6F PUSH1 0x18 DUP4 PUSH2 0x2052 JUMP JUMPDEST SWAP2 POP PUSH2 0x1C7A DUP3 PUSH2 0x23A9 JUMP JUMPDEST PUSH1 0x20 DUP3 ADD SWAP1 POP SWAP2 SWAP1 POP JUMP JUMPDEST PUSH1 0x0 PUSH2 0x1C92 PUSH1 0x17 DUP4 PUSH2 0x2052 JUMP JUMPDEST SWAP2 POP PUSH2 0x1C9D DUP3 PUSH2 0x23D2 JUMP JUMPDEST PUSH1 0x20 DUP3 ADD SWAP1 POP SWAP2 SWAP1 POP JUMP JUMPDEST PUSH1 0x0 PUSH2 0x1CB5 PUSH1 0x15 DUP4 PUSH2 0x2052 JUMP JUMPDEST SWAP2 POP PUSH2 0x1CC0 DUP3 PUSH2 0x23FB JUMP JUMPDEST PUSH1 0x20 DUP3 ADD SWAP1 POP SWAP2 SWAP1 POP JUMP JUMPDEST PUSH1 0x0 PUSH2 0x1CD8 PUSH1 0x10 DUP4 PUSH2 0x2052 JUMP JUMPDEST SWAP2 POP PUSH2 0x1CE3 DUP3 PUSH2 0x2424 JUMP JUMPDEST PUSH1 0x20 DUP3 ADD SWAP1 POP SWAP2 SWAP1 POP JUMP JUMPDEST PUSH1 0x0 PUSH2 0x1CFB PUSH1 0x21 DUP4 PUSH2 0x2052 JUMP JUMPDEST SWAP2 POP PUSH2 0x1D06 DUP3 PUSH2 0x244D JUMP JUMPDEST PUSH1 0x40 DUP3 ADD SWAP1 POP SWAP2 SWAP1 POP JUMP JUMPDEST PUSH1 0x0 PUSH2 0x1D1E PUSH1 0x10 DUP4 PUSH2 0x2052 JUMP JUMPDEST SWAP2 POP PUSH2 0x1D29 DUP3 PUSH2 0x249C JUMP JUMPDEST PUSH1 0x20 DUP3 ADD SWAP1 POP SWAP2 SWAP1 POP JUMP JUMPDEST PUSH2 0x1D3D DUP2 PUSH2 0x21CB JUMP JUMPDEST DUP3 MSTORE POP POP JUMP JUMPDEST PUSH1 0x0 PUSH2 0x1D4F DUP3 DUP5 PUSH2 0x1C31 JUMP JUMPDEST SWAP2 POP DUP2 SWAP1 POP SWAP3 SWAP2 POP POP JUMP JUMPDEST PUSH1 0x0 PUSH1 0x80 DUP3 ADD SWAP1 POP PUSH2 0x1D6F PUSH1 0x0 DUP4 ADD DUP8 PUSH2 0x1BE9 JUMP JUMPDEST PUSH2 0x1D7C PUSH1 0x20 DUP4 ADD DUP7 PUSH2 0x1BCB JUMP JUMPDEST DUP2 DUP2 SUB PUSH1 0x40 DUP4 ADD MSTORE PUSH2 0x1D8E DUP2 DUP6 PUSH2 0x1BF8 JUMP JUMPDEST SWAP1 POP PUSH2 0x1D9D PUSH1 0x60 DUP4 ADD DUP5 PUSH2 0x1D34 JUMP JUMPDEST SWAP6 SWAP5 POP POP POP POP POP JUMP JUMPDEST PUSH1 0x0 PUSH1 0x20 DUP3 ADD SWAP1 POP DUP2 DUP2 SUB PUSH1 0x0 DUP4 ADD MSTORE PUSH2 0x1DC0 DUP2 DUP5 PUSH2 0x1BF8 JUMP JUMPDEST SWAP1 POP SWAP3 SWAP2 POP POP JUMP JUMPDEST PUSH1 0x0 PUSH1 0xC0 DUP3 ADD SWAP1 POP DUP2 DUP2 SUB PUSH1 0x0 DUP4 ADD MSTORE PUSH2 0x1DE2 DUP2 DUP10 PUSH2 0x1BF8 JUMP JUMPDEST SWAP1 POP DUP2 DUP2 SUB PUSH1 0x20 DUP4 ADD MSTORE PUSH2 0x1DF6 DUP2 DUP9 PUSH2 0x1BF8 JUMP JUMPDEST SWAP1 POP DUP2 DUP2 SUB PUSH1 0x40 DUP4 ADD MSTORE PUSH2 0x1E0A DUP2 DUP8 PUSH2 0x1BF8 JUMP JUMPDEST SWAP1 POP PUSH2 0x1E19 PUSH1 0x60 DUP4 ADD DUP7 PUSH2 0x1D34 JUMP JUMPDEST PUSH2 0x1E26 PUSH1 0x80 DUP4 ADD DUP6 PUSH2 0x1BCB JUMP JUMPDEST PUSH2 0x1E33 PUSH1 0xA0 DUP4 ADD DUP5 PUSH2 0x1BDA JUMP JUMPDEST SWAP8 SWAP7 POP POP POP POP POP POP POP JUMP JUMPDEST PUSH1 0x0 PUSH1 0x20 DUP3 ADD SWAP1 POP DUP2 DUP2 SUB PUSH1 0x0 DUP4 ADD MSTORE PUSH2 0x1E57 DUP2 PUSH2 0x1C62 JUMP JUMPDEST SWAP1 POP SWAP2 SWAP1 POP JUMP JUMPDEST PUSH1 0x0 PUSH1 0x20 DUP3 ADD SWAP1 POP DUP2 DUP2 SUB PUSH1 0x0 DUP4 ADD MSTORE PUSH2 0x1E77 DUP2 PUSH2 0x1C85 JUMP JUMPDEST SWAP1 POP SWAP2 SWAP1 POP JUMP JUMPDEST PUSH1 0x0 PUSH1 0x20 DUP3 ADD SWAP1 POP DUP2 DUP2 SUB PUSH1 0x0 DUP4 ADD MSTORE PUSH2 0x1E97 DUP2 PUSH2 0x1CA8 JUMP JUMPDEST SWAP1 POP SWAP2 SWAP1 POP JUMP JUMPDEST PUSH1 0x0 PUSH1 0x20 DUP3 ADD SWAP1 POP DUP2 DUP2 SUB PUSH1 0x0 DUP4 ADD MSTORE PUSH2 0x1EB7 DUP2 PUSH2 0x1CCB JUMP JUMPDEST SWAP1 POP SWAP2 SWAP1 POP JUMP JUMPDEST PUSH1 0x0 PUSH1 0x20 DUP3 ADD SWAP1 POP DUP2 DUP2 SUB PUSH1 0x0 DUP4 ADD MSTORE PUSH2 0x1ED7 DUP2 PUSH2 0x1CEE JUMP JUMPDEST SWAP1 POP SWAP2 SWAP1 POP JUMP JUMPDEST PUSH1 0x0 PUSH1 0x20 DUP3 ADD SWAP1 POP DUP2 DUP2 SUB PUSH1 0x0 DUP4 ADD MSTORE PUSH2 0x1EF7 DUP2 PUSH2 0x1D11 JUMP JUMPDEST SWAP1 POP SWAP2 SWAP1 POP JUMP JUMPDEST PUSH1 0x0 PUSH1 0x20 DUP3 ADD SWAP1 POP PUSH2 0x1F13 PUSH1 0x0 DUP4 ADD DUP5 PUSH2 0x1D34 JUMP JUMPDEST SWAP3 SWAP2 POP POP JUMP JUMPDEST PUSH1 0x0 PUSH1 0x60 DUP3 ADD SWAP1 POP PUSH2 0x1F2E PUSH1 0x0 DUP4 ADD DUP7 PUSH2 0x1D34 JUMP JUMPDEST DUP2 DUP2 SUB PUSH1 0x20 DUP4 ADD MSTORE PUSH2 0x1F40 DUP2 DUP6 PUSH2 0x1BF8 JUMP JUMPDEST SWAP1 POP PUSH2 0x1F4F PUSH1 0x40 DUP4 ADD DUP5 PUSH2 0x1BCB JUMP JUMPDEST SWAP5 SWAP4 POP POP POP POP JUMP JUMPDEST PUSH1 0x0 PUSH1 0x40 DUP3 ADD SWAP1 POP PUSH2 0x1F6C PUSH1 0x0 DUP4 ADD DUP6 PUSH2 0x1D34 JUMP JUMPDEST PUSH2 0x1F79 PUSH1 0x20 DUP4 ADD DUP5 PUSH2 0x1D34 JUMP JUMPDEST SWAP4 SWAP3 POP POP POP JUMP JUMPDEST PUSH1 0x0 PUSH1 0x80 DUP3 ADD SWAP1 POP PUSH2 0x1F95 PUSH1 0x0 DUP4 ADD DUP8 PUSH2 0x1D34 JUMP JUMPDEST PUSH2 0x1FA2 PUSH1 0x20 DUP4 ADD DUP7 PUSH2 0x1D34 JUMP JUMPDEST PUSH2 0x1FAF PUSH1 0x40 DUP4 ADD DUP6 PUSH2 0x1BCB JUMP JUMPDEST PUSH2 0x1FBC PUSH1 0x60 DUP4 ADD DUP5 PUSH2 0x1D34 JUMP JUMPDEST SWAP6 SWAP5 POP POP POP POP POP JUMP JUMPDEST PUSH1 0x0 PUSH2 0x1FCF PUSH2 0x1FE0 JUMP JUMPDEST SWAP1 POP PUSH2 0x1FDB DUP3 DUP3 PUSH2 0x2249 JUMP JUMPDEST SWAP2 SWAP1 POP JUMP JUMPDEST PUSH1 0x0 PUSH1 0x40 MLOAD SWAP1 POP SWAP1 JUMP JUMPDEST PUSH1 0x0 PUSH8 0xFFFFFFFFFFFFFFFF DUP3 GT ISZERO PUSH2 0x2005 JUMPI PUSH2 0x2004 PUSH2 0x2350 JUMP JUMPDEST JUMPDEST PUSH1 0x20 DUP3 MUL SWAP1 POP PUSH1 0x20 DUP2 ADD SWAP1 POP SWAP2 SWAP1 POP JUMP JUMPDEST PUSH1 0x0 PUSH8 0xFFFFFFFFFFFFFFFF DUP3 GT ISZERO PUSH2 0x2031 JUMPI PUSH2 0x2030 PUSH2 0x2350 JUMP JUMPDEST JUMPDEST PUSH2 0x203A DUP3 PUSH2 0x2398 JUMP JUMPDEST SWAP1 POP PUSH1 0x20 DUP2 ADD SWAP1 POP SWAP2 SWAP1 POP JUMP JUMPDEST PUSH1 0x0 DUP2 MLOAD SWAP1 POP SWAP2 SWAP1 POP JUMP JUMPDEST PUSH1 0x0 DUP3 DUP3 MSTORE PUSH1 0x20 DUP3 ADD SWAP1 POP SWAP3 SWAP2 POP POP JUMP JUMPDEST PUSH1 0x0 DUP2 SWAP1 POP SWAP3 SWAP2 POP POP JUMP JUMPDEST PUSH1 0x0 PUSH2 0x2079 DUP3 PUSH2 0x21CB JUMP JUMPDEST SWAP2 POP PUSH2 0x2084 DUP4 PUSH2 0x21CB JUMP JUMPDEST SWAP3 POP DUP3 PUSH32 0xFFFFFFFFFFFFFFFFFFFFFFFFFFFFFFFFFFFFFFFFFFFFFFFFFFFFFFFFFFFFFFFF SUB DUP3 GT ISZERO PUSH2 0x20B9 JUMPI PUSH2 0x20B8 PUSH2 0x22C3 JUMP JUMPDEST JUMPDEST DUP3 DUP3 ADD SWAP1 POP SWAP3 SWAP2 POP POP JUMP JUMPDEST PUSH1 0x0 PUSH2 0x20CF DUP3 PUSH2 0x21CB JUMP JUMPDEST SWAP2 POP PUSH2 0x20DA DUP4 PUSH2 0x21CB JUMP JUMPDEST SWAP3 POP DUP3 PUSH2 0x20EA JUMPI PUSH2 0x20E9 PUSH2 0x22F2 JUMP JUMPDEST JUMPDEST DUP3 DUP3 DIV SWAP1 POP SWAP3 SWAP2 POP POP JUMP JUMPDEST PUSH1 0x0 PUSH2 0x2100 DUP3 PUSH2 0x21CB JUMP JUMPDEST SWAP2 POP PUSH2 0x210B DUP4 PUSH2 0x21CB JUMP JUMPDEST SWAP3 POP DUP2 PUSH32 0xFFFFFFFFFFFFFFFFFFFFFFFFFFFFFFFFFFFFFFFFFFFFFFFFFFFFFFFFFFFFFFFF DIV DUP4 GT DUP3 ISZERO ISZERO AND ISZERO PUSH2 0x2144 JUMPI PUSH2 0x2143 PUSH2 0x22C3 JUMP JUMPDEST JUMPDEST DUP3 DUP3 MUL SWAP1 POP SWAP3 SWAP2 POP POP JUMP JUMPDEST PUSH1 0x0 PUSH2 0x215A DUP3 PUSH2 0x21CB JUMP JUMPDEST SWAP2 POP PUSH2 0x2165 DUP4 PUSH2 0x21CB JUMP JUMPDEST SWAP3 POP DUP3 DUP3 LT ISZERO PUSH2 0x2178 JUMPI PUSH2 0x2177 PUSH2 0x22C3 JUMP JUMPDEST JUMPDEST DUP3 DUP3 SUB SWAP1 POP SWAP3 SWAP2 POP POP JUMP JUMPDEST PUSH1 0x0 PUSH2 0x218E DUP3 PUSH2 0x21AB JUMP JUMPDEST SWAP1 POP SWAP2 SWAP1 POP JUMP JUMPDEST PUSH1 0x0 DUP2 ISZERO ISZERO SWAP1 POP SWAP2 SWAP1 POP JUMP JUMPDEST PUSH1 0x0 DUP2 SWAP1 POP SWAP2 SWAP1 POP JUMP JUMPDEST PUSH1 0x0 PUSH20 0xFFFFFFFFFFFFFFFFFFFFFFFFFFFFFFFFFFFFFFFF DUP3 AND SWAP1 POP SWAP2 SWAP1 POP JUMP JUMPDEST PUSH1 0x0 DUP2 SWAP1 POP SWAP2 SWAP1 POP JUMP JUMPDEST DUP3 DUP2 DUP4 CALLDATACOPY PUSH1 0x0 DUP4 DUP4 ADD MSTORE POP POP POP JUMP JUMPDEST PUSH1 0x0 JUMPDEST DUP4 DUP2 LT ISZERO PUSH2 0x2202 JUMPI DUP1 DUP3 ADD MLOAD DUP2 DUP5 ADD MSTORE PUSH1 0x20 DUP2 ADD SWAP1 POP PUSH2 0x21E7 JUMP JUMPDEST DUP4 DUP2 GT ISZERO PUSH2 0x2211 JUMPI PUSH1 0x0 DUP5 DUP5 ADD MSTORE JUMPDEST POP POP POP POP JUMP JUMPDEST PUSH1 0x0 PUSH1 0x2 DUP3 DIV SWAP1 POP PUSH1 0x1 DUP3 AND DUP1 PUSH2 0x222F JUMPI PUSH1 0x7F DUP3 AND SWAP2 POP JUMPDEST PUSH1 0x20 DUP3 LT DUP2 EQ ISZERO PUSH2 0x2243 JUMPI PUSH2 0x2242 PUSH2 0x2321 JUMP JUMPDEST JUMPDEST POP SWAP2 SWAP1 POP JUMP JUMPDEST PUSH2 0x2252 DUP3 PUSH2 0x2398 JUMP JUMPDEST DUP2 ADD DUP2 DUP2 LT PUSH8 0xFFFFFFFFFFFFFFFF DUP3 GT OR ISZERO PUSH2 0x2271 JUMPI PUSH2 0x2270 PUSH2 0x2350 JUMP JUMPDEST JUMPDEST DUP1 PUSH1 0x40 MSTORE POP POP POP JUMP JUMPDEST PUSH1 0x0 PUSH2 0x2285 DUP3 PUSH2 0x21CB JUMP JUMPDEST SWAP2 POP PUSH32 0xFFFFFFFFFFFFFFFFFFFFFFFFFFFFFFFFFFFFFFFFFFFFFFFFFFFFFFFFFFFFFFFF DUP3 EQ ISZERO PUSH2 0x22B8 JUMPI PUSH2 0x22B7 PUSH2 0x22C3 JUMP JUMPDEST JUMPDEST PUSH1 0x1 DUP3 ADD SWAP1 POP SWAP2 SWAP1 POP JUMP JUMPDEST PUSH32 0x4E487B7100000000000000000000000000000000000000000000000000000000 PUSH1 0x0 MSTORE PUSH1 0x11 PUSH1 0x4 MSTORE PUSH1 0x24 PUSH1 0x0 REVERT JUMPDEST PUSH32 0x4E487B7100000000000000000000000000000000000000000000000000000000 PUSH1 0x0 MSTORE PUSH1 0x12 PUSH1 0x4 MSTORE PUSH1 0x24 PUSH1 0x0 REVERT JUMPDEST PUSH32 0x4E487B7100000000000000000000000000000000000000000000000000000000 PUSH1 0x0 MSTORE PUSH1 0x22 PUSH1 0x4 MSTORE PUSH1 0x24 PUSH1 0x0 REVERT JUMPDEST PUSH32 0x4E487B7100000000000000000000000000000000000000000000000000000000 PUSH1 0x0 MSTORE PUSH1 0x41 PUSH1 0x4 MSTORE PUSH1 0x24 PUSH1 0x0 REVERT JUMPDEST PUSH1 0x0 DUP1 REVERT JUMPDEST PUSH1 0x0 DUP1 REVERT JUMPDEST PUSH1 0x0 DUP1 REVERT JUMPDEST PUSH1 0x0 DUP1 REVERT JUMPDEST PUSH1 0x0 DUP1 REVERT JUMPDEST PUSH1 0x0 PUSH1 0x1F NOT PUSH1 0x1F DUP4 ADD AND SWAP1 POP SWAP2 SWAP1 POP JUMP JUMPDEST PUSH32 0x4469737075746520616C7265616479207265736F6C7665640000000000000000 PUSH1 0x0 DUP3 ADD MSTORE POP JUMP JUMPDEST PUSH32 0x50726F706572747920646F6573206E6F74206578697374000000000000000000 PUSH1 0x0 DUP3 ADD MSTORE POP JUMP JUMPDEST PUSH32 0x5472616E736665722066726F6D206661696C65642E0000000000000000000000 PUSH1 0x0 DUP3 ADD MSTORE POP JUMP JUMPDEST PUSH32 0x5472616E73666572206661696C65642E00000000000000000000000000000000 PUSH1 0x0 DUP3 ADD MSTORE POP JUMP JUMPDEST PUSH32 0x526566756E642068617320616C7265616479206265656E207265717565737465 PUSH1 0x0 DUP3 ADD MSTORE PUSH32 0x6400000000000000000000000000000000000000000000000000000000000000 PUSH1 0x20 DUP3 ADD MSTORE POP JUMP JUMPDEST PUSH32 0x417070726F76616C206661696C65642E00000000000000000000000000000000 PUSH1 0x0 DUP3 ADD MSTORE POP JUMP JUMPDEST PUSH2 0x24CE DUP2 PUSH2 0x2183 JUMP JUMPDEST DUP2 EQ PUSH2 0x24D9 JUMPI PUSH1 0x0 DUP1 REVERT JUMPDEST POP JUMP JUMPDEST PUSH2 0x24E5 DUP2 PUSH2 0x21A1 JUMP JUMPDEST DUP2 EQ PUSH2 0x24F0 JUMPI PUSH1 0x0 DUP1 REVERT JUMPDEST POP JUMP JUMPDEST PUSH2 0x24FC DUP2 PUSH2 0x21CB JUMP JUMPDEST DUP2 EQ PUSH2 0x2507 JUMPI PUSH1 0x0 DUP1 REVERT JUMPDEST POP JUMP INVALID LOG2 PUSH5 0x6970667358 0x22 SLT KECCAK256 DUP15 CALL 0x21 0xD PUSH21 0x88CF14CF96F6B0DEDC76E265DF53510CF4081C4A26 0xD1 MUL 0xA6 EXP CALLDATALOAD CALLDATACOPY PUSH5 0x736F6C6343 STOP ADDMOD SMOD STOP CALLER "
				},
				"gasEstimates": {
					"creation": {
						"codeDepositCost": "1907200",
						"executionCost": "24118",
						"totalCost": "1931318"
					},
					"external": {
						"addProperty(string,string,string,uint256,bytes32[],bytes32[])": "infinite",
						"allowed(address,address)": "infinite",
						"approve(address,uint256)": "25182",
						"balanceOf(address)": "2881",
						"bookings(bytes32,uint256)": "infinite",
						"decimals()": "441",
						"disputes(uint256)": "infinite",
						"makeBooking(bytes32,uint256,uint256,uint256)": "infinite",
						"name()": "infinite",
						"properties(bytes32)": "infinite",
						"rateUser(address,uint256)": "infinite",
						"requestRefund(bytes32)": "29201",
						"resolveDispute(uint256,uint256)": "infinite",
						"reviewStay(bytes32,uint256,string)": "infinite",
						"reviews(bytes32,uint256)": "infinite",
						"symbol()": "infinite",
						"totalSupply()": "2497",
						"transfer(address,uint256)": "infinite",
						"transferFrom(address,address,uint256)": "infinite",
						"users(address)": "infinite"
					}
				},
				"methodIdentifiers": {
					"addProperty(string,string,string,uint256,bytes32[],bytes32[])": "6c7f7fd2",
					"allowed(address,address)": "5c658165",
					"approve(address,uint256)": "095ea7b3",
					"balanceOf(address)": "70a08231",
					"bookings(bytes32,uint256)": "37074199",
					"decimals()": "313ce567",
					"disputes(uint256)": "564a565d",
					"makeBooking(bytes32,uint256,uint256,uint256)": "701cb491",
					"name()": "06fdde03",
					"properties(bytes32)": "bd156273",
					"rateUser(address,uint256)": "3d4effc4",
					"requestRefund(bytes32)": "775274a1",
					"resolveDispute(uint256,uint256)": "bdc84ac3",
					"reviewStay(bytes32,uint256,string)": "8a75ee21",
					"reviews(bytes32,uint256)": "366c6ea4",
					"symbol()": "95d89b41",
					"totalSupply()": "18160ddd",
					"transfer(address,uint256)": "a9059cbb",
					"transferFrom(address,address,uint256)": "23b872dd",
					"users(address)": "a87430ba"
				}
			},
			"storageLayout": {
				"storage": [
					{
						"astId": 13,
						"contract": "contracts/1_Storage.sol:AirbnbLike",
						"label": "totalSupply",
						"offset": 0,
						"slot": "0",
						"type": "t_uint256"
					},
					{
						"astId": 68,
						"contract": "contracts/1_Storage.sol:AirbnbLike",
						"label": "allowed",
						"offset": 0,
						"slot": "1",
						"type": "t_mapping(t_address,t_mapping(t_address,t_uint256))"
					},
					{
						"astId": 73,
						"contract": "contracts/1_Storage.sol:AirbnbLike",
						"label": "properties",
						"offset": 0,
						"slot": "2",
						"type": "t_mapping(t_bytes32,t_struct(Property)32_storage)"
					},
					{
						"astId": 79,
						"contract": "contracts/1_Storage.sol:AirbnbLike",
						"label": "reviews",
						"offset": 0,
						"slot": "3",
						"type": "t_mapping(t_bytes32,t_array(t_struct(Review)39_storage)dyn_storage)"
					},
					{
						"astId": 85,
						"contract": "contracts/1_Storage.sol:AirbnbLike",
						"label": "bookings",
						"offset": 0,
						"slot": "4",
						"type": "t_mapping(t_bytes32,t_array(t_struct(Booking)48_storage)dyn_storage)"
					},
					{
						"astId": 89,
						"contract": "contracts/1_Storage.sol:AirbnbLike",
						"label": "balanceOf",
						"offset": 0,
						"slot": "5",
						"type": "t_mapping(t_address,t_uint256)"
					},
					{
						"astId": 94,
						"contract": "contracts/1_Storage.sol:AirbnbLike",
						"label": "disputes",
						"offset": 0,
						"slot": "6",
						"type": "t_mapping(t_uint256,t_struct(Dispute)57_storage)"
					},
					{
						"astId": 99,
						"contract": "contracts/1_Storage.sol:AirbnbLike",
						"label": "users",
						"offset": 0,
						"slot": "7",
						"type": "t_mapping(t_address,t_struct(User)62_storage)"
					}
				],
				"types": {
					"t_address": {
						"encoding": "inplace",
						"label": "address",
						"numberOfBytes": "20"
					},
					"t_array(t_bytes32)dyn_storage": {
						"base": "t_bytes32",
						"encoding": "dynamic_array",
						"label": "bytes32[]",
						"numberOfBytes": "32"
					},
					"t_array(t_struct(Booking)48_storage)dyn_storage": {
						"base": "t_struct(Booking)48_storage",
						"encoding": "dynamic_array",
						"label": "struct AirbnbLike.Booking[]",
						"numberOfBytes": "32"
					},
					"t_array(t_struct(Review)39_storage)dyn_storage": {
						"base": "t_struct(Review)39_storage",
						"encoding": "dynamic_array",
						"label": "struct AirbnbLike.Review[]",
						"numberOfBytes": "32"
					},
					"t_bool": {
						"encoding": "inplace",
						"label": "bool",
						"numberOfBytes": "1"
					},
					"t_bytes32": {
						"encoding": "inplace",
						"label": "bytes32",
						"numberOfBytes": "32"
					},
					"t_mapping(t_address,t_mapping(t_address,t_uint256))": {
						"encoding": "mapping",
						"key": "t_address",
						"label": "mapping(address => mapping(address => uint256))",
						"numberOfBytes": "32",
						"value": "t_mapping(t_address,t_uint256)"
					},
					"t_mapping(t_address,t_struct(User)62_storage)": {
						"encoding": "mapping",
						"key": "t_address",
						"label": "mapping(address => struct AirbnbLike.User)",
						"numberOfBytes": "32",
						"value": "t_struct(User)62_storage"
					},
					"t_mapping(t_address,t_uint256)": {
						"encoding": "mapping",
						"key": "t_address",
						"label": "mapping(address => uint256)",
						"numberOfBytes": "32",
						"value": "t_uint256"
					},
					"t_mapping(t_bytes32,t_array(t_struct(Booking)48_storage)dyn_storage)": {
						"encoding": "mapping",
						"key": "t_bytes32",
						"label": "mapping(bytes32 => struct AirbnbLike.Booking[])",
						"numberOfBytes": "32",
						"value": "t_array(t_struct(Booking)48_storage)dyn_storage"
					},
					"t_mapping(t_bytes32,t_array(t_struct(Review)39_storage)dyn_storage)": {
						"encoding": "mapping",
						"key": "t_bytes32",
						"label": "mapping(bytes32 => struct AirbnbLike.Review[])",
						"numberOfBytes": "32",
						"value": "t_array(t_struct(Review)39_storage)dyn_storage"
					},
					"t_mapping(t_bytes32,t_struct(Property)32_storage)": {
						"encoding": "mapping",
						"key": "t_bytes32",
						"label": "mapping(bytes32 => struct AirbnbLike.Property)",
						"numberOfBytes": "32",
						"value": "t_struct(Property)32_storage"
					},
					"t_mapping(t_uint256,t_struct(Dispute)57_storage)": {
						"encoding": "mapping",
						"key": "t_uint256",
						"label": "mapping(uint256 => struct AirbnbLike.Dispute)",
						"numberOfBytes": "32",
						"value": "t_struct(Dispute)57_storage"
					},
					"t_string_storage": {
						"encoding": "bytes",
						"label": "string",
						"numberOfBytes": "32"
					},
					"t_struct(Booking)48_storage": {
						"encoding": "inplace",
						"label": "struct AirbnbLike.Booking",
						"members": [
							{
								"astId": 41,
								"contract": "contracts/1_Storage.sol:AirbnbLike",
								"label": "startDate",
								"offset": 0,
								"slot": "0",
								"type": "t_uint256"
							},
							{
								"astId": 43,
								"contract": "contracts/1_Storage.sol:AirbnbLike",
								"label": "endDate",
								"offset": 0,
								"slot": "1",
								"type": "t_uint256"
							},
							{
								"astId": 45,
								"contract": "contracts/1_Storage.sol:AirbnbLike",
								"label": "renter",
								"offset": 0,
								"slot": "2",
								"type": "t_address"
							},
							{
								"astId": 47,
								"contract": "contracts/1_Storage.sol:AirbnbLike",
								"label": "amount",
								"offset": 0,
								"slot": "3",
								"type": "t_uint256"
							}
						],
						"numberOfBytes": "128"
					},
					"t_struct(Dispute)57_storage": {
						"encoding": "inplace",
						"label": "struct AirbnbLike.Dispute",
						"members": [
							{
								"astId": 50,
								"contract": "contracts/1_Storage.sol:AirbnbLike",
								"label": "propertyId",
								"offset": 0,
								"slot": "0",
								"type": "t_bytes32"
							},
							{
								"astId": 52,
								"contract": "contracts/1_Storage.sol:AirbnbLike",
								"label": "renter",
								"offset": 0,
								"slot": "1",
								"type": "t_address"
							},
							{
								"astId": 54,
								"contract": "contracts/1_Storage.sol:AirbnbLike",
								"label": "reason",
								"offset": 0,
								"slot": "2",
								"type": "t_string_storage"
							},
							{
								"astId": 56,
								"contract": "contracts/1_Storage.sol:AirbnbLike",
								"label": "status",
								"offset": 0,
								"slot": "3",
								"type": "t_uint256"
							}
						],
						"numberOfBytes": "128"
					},
					"t_struct(Property)32_storage": {
						"encoding": "inplace",
						"label": "struct AirbnbLike.Property",
						"members": [
							{
								"astId": 15,
								"contract": "contracts/1_Storage.sol:AirbnbLike",
								"label": "name",
								"offset": 0,
								"slot": "0",
								"type": "t_string_storage"
							},
							{
								"astId": 17,
								"contract": "contracts/1_Storage.sol:AirbnbLike",
								"label": "description",
								"offset": 0,
								"slot": "1",
								"type": "t_string_storage"
							},
							{
								"astId": 19,
								"contract": "contracts/1_Storage.sol:AirbnbLike",
								"label": "addressP",
								"offset": 0,
								"slot": "2",
								"type": "t_string_storage"
							},
							{
								"astId": 21,
								"contract": "contracts/1_Storage.sol:AirbnbLike",
								"label": "pricePerNight",
								"offset": 0,
								"slot": "3",
								"type": "t_uint256"
							},
							{
								"astId": 23,
								"contract": "contracts/1_Storage.sol:AirbnbLike",
								"label": "owner",
								"offset": 0,
								"slot": "4",
								"type": "t_address"
							},
							{
								"astId": 26,
								"contract": "contracts/1_Storage.sol:AirbnbLike",
								"label": "images",
								"offset": 0,
								"slot": "5",
								"type": "t_array(t_bytes32)dyn_storage"
							},
							{
								"astId": 29,
								"contract": "contracts/1_Storage.sol:AirbnbLike",
								"label": "documents",
								"offset": 0,
								"slot": "6",
								"type": "t_array(t_bytes32)dyn_storage"
							},
							{
								"astId": 31,
								"contract": "contracts/1_Storage.sol:AirbnbLike",
								"label": "refundRequested",
								"offset": 0,
								"slot": "7",
								"type": "t_bool"
							}
						],
						"numberOfBytes": "256"
					},
					"t_struct(Review)39_storage": {
						"encoding": "inplace",
						"label": "struct AirbnbLike.Review",
						"members": [
							{
								"astId": 34,
								"contract": "contracts/1_Storage.sol:AirbnbLike",
								"label": "rating",
								"offset": 0,
								"slot": "0",
								"type": "t_uint256"
							},
							{
								"astId": 36,
								"contract": "contracts/1_Storage.sol:AirbnbLike",
								"label": "review",
								"offset": 0,
								"slot": "1",
								"type": "t_string_storage"
							},
							{
								"astId": 38,
								"contract": "contracts/1_Storage.sol:AirbnbLike",
								"label": "renter",
								"offset": 0,
								"slot": "2",
								"type": "t_address"
							}
						],
						"numberOfBytes": "96"
					},
					"t_struct(User)62_storage": {
						"encoding": "inplace",
						"label": "struct AirbnbLike.User",
						"members": [
							{
								"astId": 59,
								"contract": "contracts/1_Storage.sol:AirbnbLike",
								"label": "reputationScore",
								"offset": 0,
								"slot": "0",
								"type": "t_uint256"
							},
							{
								"astId": 61,
								"contract": "contracts/1_Storage.sol:AirbnbLike",
								"label": "numberOfRatings",
								"offset": 0,
								"slot": "1",
								"type": "t_uint256"
							}
						],
						"numberOfBytes": "64"
					},
					"t_uint256": {
						"encoding": "inplace",
						"label": "uint256",
						"numberOfBytes": "32"
					}
				}
			},
			"userdoc": {
				"kind": "user",
				"methods": {},
				"version": 1
			}
		}
	}
}