{
	"contracts/2_Owner.sol": {
		"DNGToken": {
			"abi": [
				{
					"inputs": [
						{
							"internalType": "address",
							"name": "_minter",
							"type": "address"
						}
					],
					"stateMutability": "nonpayable",
					"type": "constructor"
				},
				{
					"inputs": [
						{
							"internalType": "address[]",
							"name": "_recipients",
							"type": "address[]"
						},
						{
							"internalType": "uint256",
							"name": "_value",
							"type": "uint256"
						}
					],
					"name": "airdrop",
					"outputs": [],
					"stateMutability": "nonpayable",
					"type": "function"
				},
				{
					"inputs": [
						{
							"internalType": "address",
							"name": "",
							"type": "address"
						}
					],
					"name": "balanceOf",
					"outputs": [
						{
							"internalType": "uint256",
							"name": "",
							"type": "uint256"
						}
					],
					"stateMutability": "view",
					"type": "function"
				},
				{
					"inputs": [
						{
							"internalType": "uint256",
							"name": "_value",
							"type": "uint256"
						}
					],
					"name": "burn",
					"outputs": [],
					"stateMutability": "nonpayable",
					"type": "function"
				},
				{
					"inputs": [
						{
							"internalType": "address",
							"name": "_to",
							"type": "address"
						},
						{
							"internalType": "uint256",
							"name": "_value",
							"type": "uint256"
						}
					],
					"name": "mint",
					"outputs": [],
					"stateMutability": "nonpayable",
					"type": "function"
				},
				{
					"inputs": [],
					"name": "minter",
					"outputs": [
						{
							"internalType": "address",
							"name": "",
							"type": "address"
						}
					],
					"stateMutability": "view",
					"type": "function"
				},
				{
					"inputs": [],
					"name": "totalSupply",
					"outputs": [
						{
							"internalType": "uint256",
							"name": "",
							"type": "uint256"
						}
					],
					"stateMutability": "view",
					"type": "function"
				}
			],
			"devdoc": {
				"kind": "dev",
				"methods": {},
				"version": 1
			},
			"evm": {
				"assembly": "    /* \"contracts/2_Owner.sol\":62:939  contract DNGToken {... */\n  mstore(0x40, 0x80)\n    /* \"contracts/2_Owner.sol\":197:266  constructor(address _minter) public {... */\n  callvalue\n  dup1\n  iszero\n  tag_1\n  jumpi\n  0x00\n  dup1\n  revert\ntag_1:\n  pop\n  mload(0x40)\n  sub(codesize, bytecodeSize)\n  dup1\n  bytecodeSize\n  dup4\n  codecopy\n  dup2\n  dup2\n  add\n  0x40\n  mstore\n  dup2\n  add\n  swap1\n  tag_2\n  swap2\n  swap1\n  tag_3\n  jump\t// in\ntag_2:\n    /* \"contracts/2_Owner.sol\":252:259  _minter */\n  dup1\n    /* \"contracts/2_Owner.sol\":243:249  minter */\n  0x02\n  0x00\n    /* \"contracts/2_Owner.sol\":243:259  minter = _minter */\n  0x0100\n  exp\n  dup2\n  sload\n  dup2\n  0xffffffffffffffffffffffffffffffffffffffff\n  mul\n  not\n  and\n  swap1\n  dup4\n  0xffffffffffffffffffffffffffffffffffffffff\n  and\n  mul\n  or\n  swap1\n  sstore\n  pop\n    /* \"contracts/2_Owner.sol\":197:266  constructor(address _minter) public {... */\n  pop\n    /* \"contracts/2_Owner.sol\":62:939  contract DNGToken {... */\n  jump(tag_6)\n    /* \"#utility.yul\":7:150   */\ntag_8:\n    /* \"#utility.yul\":64:69   */\n  0x00\n    /* \"#utility.yul\":95:101   */\n  dup2\n    /* \"#utility.yul\":89:102   */\n  mload\n    /* \"#utility.yul\":80:102   */\n  swap1\n  pop\n    /* \"#utility.yul\":111:144   */\n  tag_10\n    /* \"#utility.yul\":138:143   */\n  dup2\n    /* \"#utility.yul\":111:144   */\n  tag_11\n  jump\t// in\ntag_10:\n    /* \"#utility.yul\":7:150   */\n  swap3\n  swap2\n  pop\n  pop\n  jump\t// out\n    /* \"#utility.yul\":156:507   */\ntag_3:\n    /* \"#utility.yul\":226:232   */\n  0x00\n    /* \"#utility.yul\":275:277   */\n  0x20\n    /* \"#utility.yul\":263:272   */\n  dup3\n    /* \"#utility.yul\":254:261   */\n  dup5\n    /* \"#utility.yul\":250:273   */\n  sub\n    /* \"#utility.yul\":246:278   */\n  slt\n    /* \"#utility.yul\":243:362   */\n  iszero\n  tag_13\n  jumpi\n    /* \"#utility.yul\":281:360   */\n  tag_14\n  tag_15\n  jump\t// in\ntag_14:\n    /* \"#utility.yul\":243:362   */\ntag_13:\n    /* \"#utility.yul\":401:402   */\n  0x00\n    /* \"#utility.yul\":426:490   */\n  tag_16\n    /* \"#utility.yul\":482:489   */\n  dup5\n    /* \"#utility.yul\":473:479   */\n  dup3\n    /* \"#utility.yul\":462:471   */\n  dup6\n    /* \"#utility.yul\":458:480   */\n  add\n    /* \"#utility.yul\":426:490   */\n  tag_8\n  jump\t// in\ntag_16:\n    /* \"#utility.yul\":416:490   */\n  swap2\n  pop\n    /* \"#utility.yul\":372:500   */\n  pop\n    /* \"#utility.yul\":156:507   */\n  swap3\n  swap2\n  pop\n  pop\n  jump\t// out\n    /* \"#utility.yul\":594:690   */\ntag_19:\n    /* \"#utility.yul\":631:638   */\n  0x00\n    /* \"#utility.yul\":660:684   */\n  tag_21\n    /* \"#utility.yul\":678:683   */\n  dup3\n    /* \"#utility.yul\":660:684   */\n  tag_22\n  jump\t// in\ntag_21:\n    /* \"#utility.yul\":649:684   */\n  swap1\n  pop\n    /* \"#utility.yul\":594:690   */\n  swap2\n  swap1\n  pop\n  jump\t// out\n    /* \"#utility.yul\":696:822   */\ntag_22:\n    /* \"#utility.yul\":733:740   */\n  0x00\n    /* \"#utility.yul\":773:815   */\n  0xffffffffffffffffffffffffffffffffffffffff\n    /* \"#utility.yul\":766:771   */\n  dup3\n    /* \"#utility.yul\":762:816   */\n  and\n    /* \"#utility.yul\":751:816   */\n  swap1\n  pop\n    /* \"#utility.yul\":696:822   */\n  swap2\n  swap1\n  pop\n  jump\t// out\n    /* \"#utility.yul\":951:1068   */\ntag_15:\n    /* \"#utility.yul\":1060:1061   */\n  0x00\n    /* \"#utility.yul\":1057:1058   */\n  dup1\n    /* \"#utility.yul\":1050:1062   */\n  revert\n    /* \"#utility.yul\":1074:1196   */\ntag_11:\n    /* \"#utility.yul\":1147:1171   */\n  tag_28\n    /* \"#utility.yul\":1165:1170   */\n  dup2\n    /* \"#utility.yul\":1147:1171   */\n  tag_19\n  jump\t// in\ntag_28:\n    /* \"#utility.yul\":1140:1145   */\n  dup2\n    /* \"#utility.yul\":1137:1172   */\n  eq\n    /* \"#utility.yul\":1127:1190   */\n  tag_29\n  jumpi\n    /* \"#utility.yul\":1186:1187   */\n  0x00\n    /* \"#utility.yul\":1183:1184   */\n  dup1\n    /* \"#utility.yul\":1176:1188   */\n  revert\n    /* \"#utility.yul\":1127:1190   */\ntag_29:\n    /* \"#utility.yul\":1074:1196   */\n  pop\n  jump\t// out\n    /* \"contracts/2_Owner.sol\":62:939  contract DNGToken {... */\ntag_6:\n  dataSize(sub_0)\n  dup1\n  dataOffset(sub_0)\n  0x00\n  codecopy\n  0x00\n  return\nstop\n\nsub_0: assembly {\n        /* \"contracts/2_Owner.sol\":62:939  contract DNGToken {... */\n      mstore(0x40, 0x80)\n      callvalue\n      dup1\n      iszero\n      tag_1\n      jumpi\n      0x00\n      dup1\n      revert\n    tag_1:\n      pop\n      jumpi(tag_2, lt(calldatasize, 0x04))\n      shr(0xe0, calldataload(0x00))\n      dup1\n      0x07546172\n      eq\n      tag_3\n      jumpi\n      dup1\n      0x18160ddd\n      eq\n      tag_4\n      jumpi\n      dup1\n      0x40c10f19\n      eq\n      tag_5\n      jumpi\n      dup1\n      0x42966c68\n      eq\n      tag_6\n      jumpi\n      dup1\n      0x70a08231\n      eq\n      tag_7\n      jumpi\n      dup1\n      0xc204642c\n      eq\n      tag_8\n      jumpi\n    tag_2:\n      0x00\n      dup1\n      revert\n        /* \"contracts/2_Owner.sol\":169:190  address public minter */\n    tag_3:\n      tag_9\n      tag_10\n      jump\t// in\n    tag_9:\n      mload(0x40)\n      tag_11\n      swap2\n      swap1\n      tag_12\n      jump\t// in\n    tag_11:\n      mload(0x40)\n      dup1\n      swap2\n      sub\n      swap1\n      return\n        /* \"contracts/2_Owner.sol\":86:112  uint256 public totalSupply */\n    tag_4:\n      tag_13\n      tag_14\n      jump\t// in\n    tag_13:\n      mload(0x40)\n      tag_15\n      swap2\n      swap1\n      tag_16\n      jump\t// in\n    tag_15:\n      mload(0x40)\n      dup1\n      swap2\n      sub\n      swap1\n      return\n        /* \"contracts/2_Owner.sol\":272:503  function mint(address _to, uint256 _value) public {... */\n    tag_5:\n      tag_17\n      0x04\n      dup1\n      calldatasize\n      sub\n      dup2\n      add\n      swap1\n      tag_18\n      swap2\n      swap1\n      tag_19\n      jump\t// in\n    tag_18:\n      tag_20\n      jump\t// in\n    tag_17:\n      stop\n        /* \"contracts/2_Owner.sol\":749:937  function burn(uint256 _value) public {... */\n    tag_6:\n      tag_21\n      0x04\n      dup1\n      calldatasize\n      sub\n      dup2\n      add\n      swap1\n      tag_22\n      swap2\n      swap1\n      tag_23\n      jump\t// in\n    tag_22:\n      tag_24\n      jump\t// in\n    tag_21:\n      stop\n        /* \"contracts/2_Owner.sol\":118:163  mapping (address => uint256) public balanceOf */\n    tag_7:\n      tag_25\n      0x04\n      dup1\n      calldatasize\n      sub\n      dup2\n      add\n      swap1\n      tag_26\n      swap2\n      swap1\n      tag_27\n      jump\t// in\n    tag_26:\n      tag_28\n      jump\t// in\n    tag_25:\n      mload(0x40)\n      tag_29\n      swap2\n      swap1\n      tag_16\n      jump\t// in\n    tag_29:\n      mload(0x40)\n      dup1\n      swap2\n      sub\n      swap1\n      return\n        /* \"contracts/2_Owner.sol\":509:739  function airdrop(address[] memory _recipients, uint256 _value) public {... */\n    tag_8:\n      tag_30\n      0x04\n      dup1\n      calldatasize\n      sub\n      dup2\n      add\n      swap1\n      tag_31\n      swap2\n      swap1\n      tag_32\n      jump\t// in\n    tag_31:\n      tag_33\n      jump\t// in\n    tag_30:\n      stop\n        /* \"contracts/2_Owner.sol\":169:190  address public minter */\n    tag_10:\n      0x02\n      0x00\n      swap1\n      sload\n      swap1\n      0x0100\n      exp\n      swap1\n      div\n      0xffffffffffffffffffffffffffffffffffffffff\n      and\n      dup2\n      jump\t// out\n        /* \"contracts/2_Owner.sol\":86:112  uint256 public totalSupply */\n    tag_14:\n      sload(0x00)\n      dup2\n      jump\t// out\n        /* \"contracts/2_Owner.sol\":272:503  function mint(address _to, uint256 _value) public {... */\n    tag_20:\n        /* \"contracts/2_Owner.sol\":354:360  minter */\n      0x02\n      0x00\n      swap1\n      sload\n      swap1\n      0x0100\n      exp\n      swap1\n      div\n      0xffffffffffffffffffffffffffffffffffffffff\n      and\n        /* \"contracts/2_Owner.sol\":340:360  msg.sender == minter */\n      0xffffffffffffffffffffffffffffffffffffffff\n      and\n        /* \"contracts/2_Owner.sol\":340:350  msg.sender */\n      caller\n        /* \"contracts/2_Owner.sol\":340:360  msg.sender == minter */\n      0xffffffffffffffffffffffffffffffffffffffff\n      and\n      eq\n        /* \"contracts/2_Owner.sol\":332:385  require(msg.sender == minter, \"Only minter can mint\") */\n      tag_35\n      jumpi\n      mload(0x40)\n      0x08c379a000000000000000000000000000000000000000000000000000000000\n      dup2\n      mstore\n      0x04\n      add\n      tag_36\n      swap1\n      tag_37\n      jump\t// in\n    tag_36:\n      mload(0x40)\n      dup1\n      swap2\n      sub\n      swap1\n      revert\n    tag_35:\n        /* \"contracts/2_Owner.sol\":412:413  0 */\n      0x00\n        /* \"contracts/2_Owner.sol\":403:409  _value */\n      dup2\n        /* \"contracts/2_Owner.sol\":403:413  _value > 0 */\n      gt\n        /* \"contracts/2_Owner.sol\":395:431  require(_value > 0, \"Invalid value\") */\n      tag_38\n      jumpi\n      mload(0x40)\n      0x08c379a000000000000000000000000000000000000000000000000000000000\n      dup2\n      mstore\n      0x04\n      add\n      tag_39\n      swap1\n      tag_40\n      jump\t// in\n    tag_39:\n      mload(0x40)\n      dup1\n      swap2\n      sub\n      swap1\n      revert\n    tag_38:\n        /* \"contracts/2_Owner.sol\":459:465  _value */\n      dup1\n        /* \"contracts/2_Owner.sol\":441:450  balanceOf */\n      0x01\n        /* \"contracts/2_Owner.sol\":441:455  balanceOf[_to] */\n      0x00\n        /* \"contracts/2_Owner.sol\":451:454  _to */\n      dup5\n        /* \"contracts/2_Owner.sol\":441:455  balanceOf[_to] */\n      0xffffffffffffffffffffffffffffffffffffffff\n      and\n      0xffffffffffffffffffffffffffffffffffffffff\n      and\n      dup2\n      mstore\n      0x20\n      add\n      swap1\n      dup2\n      mstore\n      0x20\n      add\n      0x00\n      keccak256\n      0x00\n        /* \"contracts/2_Owner.sol\":441:465  balanceOf[_to] += _value */\n      dup3\n      dup3\n      sload\n      tag_41\n      swap2\n      swap1\n      tag_42\n      jump\t// in\n    tag_41:\n      swap3\n      pop\n      pop\n      dup2\n      swap1\n      sstore\n      pop\n        /* \"contracts/2_Owner.sol\":490:496  _value */\n      dup1\n        /* \"contracts/2_Owner.sol\":475:486  totalSupply */\n      0x00\n      dup1\n        /* \"contracts/2_Owner.sol\":475:496  totalSupply += _value */\n      dup3\n      dup3\n      sload\n      tag_43\n      swap2\n      swap1\n      tag_42\n      jump\t// in\n    tag_43:\n      swap3\n      pop\n      pop\n      dup2\n      swap1\n      sstore\n      pop\n        /* \"contracts/2_Owner.sol\":272:503  function mint(address _to, uint256 _value) public {... */\n      pop\n      pop\n      jump\t// out\n        /* \"contracts/2_Owner.sol\":749:937  function burn(uint256 _value) public {... */\n    tag_24:\n        /* \"contracts/2_Owner.sol\":829:835  _value */\n      dup1\n        /* \"contracts/2_Owner.sol\":804:813  balanceOf */\n      0x01\n        /* \"contracts/2_Owner.sol\":804:825  balanceOf[msg.sender] */\n      0x00\n        /* \"contracts/2_Owner.sol\":814:824  msg.sender */\n      caller\n        /* \"contracts/2_Owner.sol\":804:825  balanceOf[msg.sender] */\n      0xffffffffffffffffffffffffffffffffffffffff\n      and\n      0xffffffffffffffffffffffffffffffffffffffff\n      and\n      dup2\n      mstore\n      0x20\n      add\n      swap1\n      dup2\n      mstore\n      0x20\n      add\n      0x00\n      keccak256\n      sload\n        /* \"contracts/2_Owner.sol\":804:835  balanceOf[msg.sender] >= _value */\n      lt\n      iszero\n        /* \"contracts/2_Owner.sol\":796:858  require(balanceOf[msg.sender] >= _value, \"Not enough balance\") */\n      tag_45\n      jumpi\n      mload(0x40)\n      0x08c379a000000000000000000000000000000000000000000000000000000000\n      dup2\n      mstore\n      0x04\n      add\n      tag_46\n      swap1\n      tag_47\n      jump\t// in\n    tag_46:\n      mload(0x40)\n      dup1\n      swap2\n      sub\n      swap1\n      revert\n    tag_45:\n        /* \"contracts/2_Owner.sol\":893:899  _value */\n      dup1\n        /* \"contracts/2_Owner.sol\":868:877  balanceOf */\n      0x01\n        /* \"contracts/2_Owner.sol\":868:889  balanceOf[msg.sender] */\n      0x00\n        /* \"contracts/2_Owner.sol\":878:888  msg.sender */\n      caller\n        /* \"contracts/2_Owner.sol\":868:889  balanceOf[msg.sender] */\n      0xffffffffffffffffffffffffffffffffffffffff\n      and\n      0xffffffffffffffffffffffffffffffffffffffff\n      and\n      dup2\n      mstore\n      0x20\n      add\n      swap1\n      dup2\n      mstore\n      0x20\n      add\n      0x00\n      keccak256\n      0x00\n        /* \"contracts/2_Owner.sol\":868:899  balanceOf[msg.sender] -= _value */\n      dup3\n      dup3\n      sload\n      tag_48\n      swap2\n      swap1\n      tag_49\n      jump\t// in\n    tag_48:\n      swap3\n      pop\n      pop\n      dup2\n      swap1\n      sstore\n      pop\n        /* \"contracts/2_Owner.sol\":924:930  _value */\n      dup1\n        /* \"contracts/2_Owner.sol\":909:920  totalSupply */\n      0x00\n      dup1\n        /* \"contracts/2_Owner.sol\":909:930  totalSupply -= _value */\n      dup3\n      dup3\n      sload\n      tag_50\n      swap2\n      swap1\n      tag_49\n      jump\t// in\n    tag_50:\n      swap3\n      pop\n      pop\n      dup2\n      swap1\n      sstore\n      pop\n        /* \"contracts/2_Owner.sol\":749:937  function burn(uint256 _value) public {... */\n      pop\n      jump\t// out\n        /* \"contracts/2_Owner.sol\":118:163  mapping (address => uint256) public balanceOf */\n    tag_28:\n      mstore(0x20, 0x01)\n      dup1\n      0x00\n      mstore\n      keccak256(0x00, 0x40)\n      0x00\n      swap2\n      pop\n      swap1\n      pop\n      sload\n      dup2\n      jump\t// out\n        /* \"contracts/2_Owner.sol\":509:739  function airdrop(address[] memory _recipients, uint256 _value) public {... */\n    tag_33:\n        /* \"contracts/2_Owner.sol\":594:603  uint256 i */\n      0x00\n        /* \"contracts/2_Owner.sol\":589:733  for (uint256 i = 0; i < _recipients.length; i++) {... */\n    tag_52:\n        /* \"contracts/2_Owner.sol\":613:624  _recipients */\n      dup3\n        /* \"contracts/2_Owner.sol\":613:631  _recipients.length */\n      mload\n        /* \"contracts/2_Owner.sol\":609:610  i */\n      dup2\n        /* \"contracts/2_Owner.sol\":609:631  i < _recipients.length */\n      lt\n        /* \"contracts/2_Owner.sol\":589:733  for (uint256 i = 0; i < _recipients.length; i++) {... */\n      iszero\n      tag_53\n      jumpi\n        /* \"contracts/2_Owner.sol\":681:687  _value */\n      dup2\n        /* \"contracts/2_Owner.sol\":652:661  balanceOf */\n      0x01\n        /* \"contracts/2_Owner.sol\":652:677  balanceOf[_recipients[i]] */\n      0x00\n        /* \"contracts/2_Owner.sol\":662:673  _recipients */\n      dup6\n        /* \"contracts/2_Owner.sol\":674:675  i */\n      dup5\n        /* \"contracts/2_Owner.sol\":662:676  _recipients[i] */\n      dup2\n      mload\n      dup2\n      lt\n      tag_55\n      jumpi\n      tag_56\n      tag_57\n      jump\t// in\n    tag_56:\n    tag_55:\n      0x20\n      mul\n      0x20\n      add\n      add\n      mload\n        /* \"contracts/2_Owner.sol\":652:677  balanceOf[_recipients[i]] */\n      0xffffffffffffffffffffffffffffffffffffffff\n      and\n      0xffffffffffffffffffffffffffffffffffffffff\n      and\n      dup2\n      mstore\n      0x20\n      add\n      swap1\n      dup2\n      mstore\n      0x20\n      add\n      0x00\n      keccak256\n      0x00\n        /* \"contracts/2_Owner.sol\":652:687  balanceOf[_recipients[i]] += _value */\n      dup3\n      dup3\n      sload\n      tag_58\n      swap2\n      swap1\n      tag_42\n      jump\t// in\n    tag_58:\n      swap3\n      pop\n      pop\n      dup2\n      swap1\n      sstore\n      pop\n        /* \"contracts/2_Owner.sol\":716:722  _value */\n      dup2\n        /* \"contracts/2_Owner.sol\":701:712  totalSupply */\n      0x00\n      dup1\n        /* \"contracts/2_Owner.sol\":701:722  totalSupply += _value */\n      dup3\n      dup3\n      sload\n      tag_59\n      swap2\n      swap1\n      tag_42\n      jump\t// in\n    tag_59:\n      swap3\n      pop\n      pop\n      dup2\n      swap1\n      sstore\n      pop\n        /* \"contracts/2_Owner.sol\":633:636  i++ */\n      dup1\n      dup1\n      tag_60\n      swap1\n      tag_61\n      jump\t// in\n    tag_60:\n      swap2\n      pop\n      pop\n        /* \"contracts/2_Owner.sol\":589:733  for (uint256 i = 0; i < _recipients.length; i++) {... */\n      jump(tag_52)\n    tag_53:\n      pop\n        /* \"contracts/2_Owner.sol\":509:739  function airdrop(address[] memory _recipients, uint256 _value) public {... */\n      pop\n      pop\n      jump\t// out\n        /* \"#utility.yul\":24:746   */\n    tag_63:\n        /* \"#utility.yul\":120:125   */\n      0x00\n        /* \"#utility.yul\":145:226   */\n      tag_65\n        /* \"#utility.yul\":161:225   */\n      tag_66\n        /* \"#utility.yul\":218:224   */\n      dup5\n        /* \"#utility.yul\":161:225   */\n      tag_67\n      jump\t// in\n    tag_66:\n        /* \"#utility.yul\":145:226   */\n      tag_68\n      jump\t// in\n    tag_65:\n        /* \"#utility.yul\":136:226   */\n      swap1\n      pop\n        /* \"#utility.yul\":246:251   */\n      dup1\n        /* \"#utility.yul\":275:281   */\n      dup4\n        /* \"#utility.yul\":268:273   */\n      dup3\n        /* \"#utility.yul\":261:282   */\n      mstore\n        /* \"#utility.yul\":309:313   */\n      0x20\n        /* \"#utility.yul\":302:307   */\n      dup3\n        /* \"#utility.yul\":298:314   */\n      add\n        /* \"#utility.yul\":291:314   */\n      swap1\n      pop\n        /* \"#utility.yul\":335:341   */\n      dup3\n        /* \"#utility.yul\":385:388   */\n      dup6\n        /* \"#utility.yul\":377:381   */\n      0x20\n        /* \"#utility.yul\":369:375   */\n      dup7\n        /* \"#utility.yul\":365:382   */\n      mul\n        /* \"#utility.yul\":360:363   */\n      dup3\n        /* \"#utility.yul\":356:383   */\n      add\n        /* \"#utility.yul\":353:389   */\n      gt\n        /* \"#utility.yul\":350:493   */\n      iszero\n      tag_69\n      jumpi\n        /* \"#utility.yul\":404:483   */\n      tag_70\n      tag_71\n      jump\t// in\n    tag_70:\n        /* \"#utility.yul\":350:493   */\n    tag_69:\n        /* \"#utility.yul\":517:518   */\n      0x00\n        /* \"#utility.yul\":502:740   */\n    tag_72:\n        /* \"#utility.yul\":527:533   */\n      dup6\n        /* \"#utility.yul\":524:525   */\n      dup2\n        /* \"#utility.yul\":521:534   */\n      lt\n        /* \"#utility.yul\":502:740   */\n      iszero\n      tag_74\n      jumpi\n        /* \"#utility.yul\":595:598   */\n      dup2\n        /* \"#utility.yul\":624:661   */\n      tag_75\n        /* \"#utility.yul\":657:660   */\n      dup9\n        /* \"#utility.yul\":645:655   */\n      dup3\n        /* \"#utility.yul\":624:661   */\n      tag_76\n      jump\t// in\n    tag_75:\n        /* \"#utility.yul\":619:622   */\n      dup5\n        /* \"#utility.yul\":612:662   */\n      mstore\n        /* \"#utility.yul\":691:695   */\n      0x20\n        /* \"#utility.yul\":686:689   */\n      dup5\n        /* \"#utility.yul\":682:696   */\n      add\n        /* \"#utility.yul\":675:696   */\n      swap4\n      pop\n        /* \"#utility.yul\":725:729   */\n      0x20\n        /* \"#utility.yul\":720:723   */\n      dup4\n        /* \"#utility.yul\":716:730   */\n      add\n        /* \"#utility.yul\":709:730   */\n      swap3\n      pop\n        /* \"#utility.yul\":562:740   */\n      pop\n        /* \"#utility.yul\":549:550   */\n      0x01\n        /* \"#utility.yul\":546:547   */\n      dup2\n        /* \"#utility.yul\":542:551   */\n      add\n        /* \"#utility.yul\":537:551   */\n      swap1\n      pop\n        /* \"#utility.yul\":502:740   */\n      jump(tag_72)\n    tag_74:\n        /* \"#utility.yul\":506:520   */\n      pop\n        /* \"#utility.yul\":126:746   */\n      pop\n      pop\n        /* \"#utility.yul\":24:746   */\n      swap4\n      swap3\n      pop\n      pop\n      pop\n      jump\t// out\n        /* \"#utility.yul\":752:891   */\n    tag_76:\n        /* \"#utility.yul\":798:803   */\n      0x00\n        /* \"#utility.yul\":836:842   */\n      dup2\n        /* \"#utility.yul\":823:843   */\n      calldataload\n        /* \"#utility.yul\":814:843   */\n      swap1\n      pop\n        /* \"#utility.yul\":852:885   */\n      tag_78\n        /* \"#utility.yul\":879:884   */\n      dup2\n        /* \"#utility.yul\":852:885   */\n      tag_79\n      jump\t// in\n    tag_78:\n        /* \"#utility.yul\":752:891   */\n      swap3\n      swap2\n      pop\n      pop\n      jump\t// out\n        /* \"#utility.yul\":914:1284   */\n    tag_80:\n        /* \"#utility.yul\":985:990   */\n      0x00\n        /* \"#utility.yul\":1034:1037   */\n      dup3\n        /* \"#utility.yul\":1027:1031   */\n      0x1f\n        /* \"#utility.yul\":1019:1025   */\n      dup4\n        /* \"#utility.yul\":1015:1032   */\n      add\n        /* \"#utility.yul\":1011:1038   */\n      slt\n        /* \"#utility.yul\":1001:1123   */\n      tag_82\n      jumpi\n        /* \"#utility.yul\":1042:1121   */\n      tag_83\n      tag_84\n      jump\t// in\n    tag_83:\n        /* \"#utility.yul\":1001:1123   */\n    tag_82:\n        /* \"#utility.yul\":1159:1165   */\n      dup2\n        /* \"#utility.yul\":1146:1166   */\n      calldataload\n        /* \"#utility.yul\":1184:1278   */\n      tag_85\n        /* \"#utility.yul\":1274:1277   */\n      dup5\n        /* \"#utility.yul\":1266:1272   */\n      dup3\n        /* \"#utility.yul\":1259:1263   */\n      0x20\n        /* \"#utility.yul\":1251:1257   */\n      dup7\n        /* \"#utility.yul\":1247:1264   */\n      add\n        /* \"#utility.yul\":1184:1278   */\n      tag_63\n      jump\t// in\n    tag_85:\n        /* \"#utility.yul\":1175:1278   */\n      swap2\n      pop\n        /* \"#utility.yul\":991:1284   */\n      pop\n        /* \"#utility.yul\":914:1284   */\n      swap3\n      swap2\n      pop\n      pop\n      jump\t// out\n        /* \"#utility.yul\":1290:1429   */\n    tag_86:\n        /* \"#utility.yul\":1336:1341   */\n      0x00\n        /* \"#utility.yul\":1374:1380   */\n      dup2\n        /* \"#utility.yul\":1361:1381   */\n      calldataload\n        /* \"#utility.yul\":1352:1381   */\n      swap1\n      pop\n        /* \"#utility.yul\":1390:1423   */\n      tag_88\n        /* \"#utility.yul\":1417:1422   */\n      dup2\n        /* \"#utility.yul\":1390:1423   */\n      tag_89\n      jump\t// in\n    tag_88:\n        /* \"#utility.yul\":1290:1429   */\n      swap3\n      swap2\n      pop\n      pop\n      jump\t// out\n        /* \"#utility.yul\":1435:1764   */\n    tag_27:\n        /* \"#utility.yul\":1494:1500   */\n      0x00\n        /* \"#utility.yul\":1543:1545   */\n      0x20\n        /* \"#utility.yul\":1531:1540   */\n      dup3\n        /* \"#utility.yul\":1522:1529   */\n      dup5\n        /* \"#utility.yul\":1518:1541   */\n      sub\n        /* \"#utility.yul\":1514:1546   */\n      slt\n        /* \"#utility.yul\":1511:1630   */\n      iszero\n      tag_91\n      jumpi\n        /* \"#utility.yul\":1549:1628   */\n      tag_92\n      tag_93\n      jump\t// in\n    tag_92:\n        /* \"#utility.yul\":1511:1630   */\n    tag_91:\n        /* \"#utility.yul\":1669:1670   */\n      0x00\n        /* \"#utility.yul\":1694:1747   */\n      tag_94\n        /* \"#utility.yul\":1739:1746   */\n      dup5\n        /* \"#utility.yul\":1730:1736   */\n      dup3\n        /* \"#utility.yul\":1719:1728   */\n      dup6\n        /* \"#utility.yul\":1715:1737   */\n      add\n        /* \"#utility.yul\":1694:1747   */\n      tag_76\n      jump\t// in\n    tag_94:\n        /* \"#utility.yul\":1684:1747   */\n      swap2\n      pop\n        /* \"#utility.yul\":1640:1757   */\n      pop\n        /* \"#utility.yul\":1435:1764   */\n      swap3\n      swap2\n      pop\n      pop\n      jump\t// out\n        /* \"#utility.yul\":1770:2244   */\n    tag_19:\n        /* \"#utility.yul\":1838:1844   */\n      0x00\n        /* \"#utility.yul\":1846:1852   */\n      dup1\n        /* \"#utility.yul\":1895:1897   */\n      0x40\n        /* \"#utility.yul\":1883:1892   */\n      dup4\n        /* \"#utility.yul\":1874:1881   */\n      dup6\n        /* \"#utility.yul\":1870:1893   */\n      sub\n        /* \"#utility.yul\":1866:1898   */\n      slt\n        /* \"#utility.yul\":1863:1982   */\n      iszero\n      tag_96\n      jumpi\n        /* \"#utility.yul\":1901:1980   */\n      tag_97\n      tag_93\n      jump\t// in\n    tag_97:\n        /* \"#utility.yul\":1863:1982   */\n    tag_96:\n        /* \"#utility.yul\":2021:2022   */\n      0x00\n        /* \"#utility.yul\":2046:2099   */\n      tag_98\n        /* \"#utility.yul\":2091:2098   */\n      dup6\n        /* \"#utility.yul\":2082:2088   */\n      dup3\n        /* \"#utility.yul\":2071:2080   */\n      dup7\n        /* \"#utility.yul\":2067:2089   */\n      add\n        /* \"#utility.yul\":2046:2099   */\n      tag_76\n      jump\t// in\n    tag_98:\n        /* \"#utility.yul\":2036:2099   */\n      swap3\n      pop\n        /* \"#utility.yul\":1992:2109   */\n      pop\n        /* \"#utility.yul\":2148:2150   */\n      0x20\n        /* \"#utility.yul\":2174:2227   */\n      tag_99\n        /* \"#utility.yul\":2219:2226   */\n      dup6\n        /* \"#utility.yul\":2210:2216   */\n      dup3\n        /* \"#utility.yul\":2199:2208   */\n      dup7\n        /* \"#utility.yul\":2195:2217   */\n      add\n        /* \"#utility.yul\":2174:2227   */\n      tag_86\n      jump\t// in\n    tag_99:\n        /* \"#utility.yul\":2164:2227   */\n      swap2\n      pop\n        /* \"#utility.yul\":2119:2237   */\n      pop\n        /* \"#utility.yul\":1770:2244   */\n      swap3\n      pop\n      swap3\n      swap1\n      pop\n      jump\t// out\n        /* \"#utility.yul\":2250:2934   */\n    tag_32:\n        /* \"#utility.yul\":2343:2349   */\n      0x00\n        /* \"#utility.yul\":2351:2357   */\n      dup1\n        /* \"#utility.yul\":2400:2402   */\n      0x40\n        /* \"#utility.yul\":2388:2397   */\n      dup4\n        /* \"#utility.yul\":2379:2386   */\n      dup6\n        /* \"#utility.yul\":2375:2398   */\n      sub\n        /* \"#utility.yul\":2371:2403   */\n      slt\n        /* \"#utility.yul\":2368:2487   */\n      iszero\n      tag_101\n      jumpi\n        /* \"#utility.yul\":2406:2485   */\n      tag_102\n      tag_93\n      jump\t// in\n    tag_102:\n        /* \"#utility.yul\":2368:2487   */\n    tag_101:\n        /* \"#utility.yul\":2554:2555   */\n      0x00\n        /* \"#utility.yul\":2543:2552   */\n      dup4\n        /* \"#utility.yul\":2539:2556   */\n      add\n        /* \"#utility.yul\":2526:2557   */\n      calldataload\n        /* \"#utility.yul\":2584:2602   */\n      0xffffffffffffffff\n        /* \"#utility.yul\":2576:2582   */\n      dup2\n        /* \"#utility.yul\":2573:2603   */\n      gt\n        /* \"#utility.yul\":2570:2687   */\n      iszero\n      tag_103\n      jumpi\n        /* \"#utility.yul\":2606:2685   */\n      tag_104\n      tag_105\n      jump\t// in\n    tag_104:\n        /* \"#utility.yul\":2570:2687   */\n    tag_103:\n        /* \"#utility.yul\":2711:2789   */\n      tag_106\n        /* \"#utility.yul\":2781:2788   */\n      dup6\n        /* \"#utility.yul\":2772:2778   */\n      dup3\n        /* \"#utility.yul\":2761:2770   */\n      dup7\n        /* \"#utility.yul\":2757:2779   */\n      add\n        /* \"#utility.yul\":2711:2789   */\n      tag_80\n      jump\t// in\n    tag_106:\n        /* \"#utility.yul\":2701:2789   */\n      swap3\n      pop\n        /* \"#utility.yul\":2497:2799   */\n      pop\n        /* \"#utility.yul\":2838:2840   */\n      0x20\n        /* \"#utility.yul\":2864:2917   */\n      tag_107\n        /* \"#utility.yul\":2909:2916   */\n      dup6\n        /* \"#utility.yul\":2900:2906   */\n      dup3\n        /* \"#utility.yul\":2889:2898   */\n      dup7\n        /* \"#utility.yul\":2885:2907   */\n      add\n        /* \"#utility.yul\":2864:2917   */\n      tag_86\n      jump\t// in\n    tag_107:\n        /* \"#utility.yul\":2854:2917   */\n      swap2\n      pop\n        /* \"#utility.yul\":2809:2927   */\n      pop\n        /* \"#utility.yul\":2250:2934   */\n      swap3\n      pop\n      swap3\n      swap1\n      pop\n      jump\t// out\n        /* \"#utility.yul\":2940:3269   */\n    tag_23:\n        /* \"#utility.yul\":2999:3005   */\n      0x00\n        /* \"#utility.yul\":3048:3050   */\n      0x20\n        /* \"#utility.yul\":3036:3045   */\n      dup3\n        /* \"#utility.yul\":3027:3034   */\n      dup5\n        /* \"#utility.yul\":3023:3046   */\n      sub\n        /* \"#utility.yul\":3019:3051   */\n      slt\n        /* \"#utility.yul\":3016:3135   */\n      iszero\n      tag_109\n      jumpi\n        /* \"#utility.yul\":3054:3133   */\n      tag_110\n      tag_93\n      jump\t// in\n    tag_110:\n        /* \"#utility.yul\":3016:3135   */\n    tag_109:\n        /* \"#utility.yul\":3174:3175   */\n      0x00\n        /* \"#utility.yul\":3199:3252   */\n      tag_111\n        /* \"#utility.yul\":3244:3251   */\n      dup5\n        /* \"#utility.yul\":3235:3241   */\n      dup3\n        /* \"#utility.yul\":3224:3233   */\n      dup6\n        /* \"#utility.yul\":3220:3242   */\n      add\n        /* \"#utility.yul\":3199:3252   */\n      tag_86\n      jump\t// in\n    tag_111:\n        /* \"#utility.yul\":3189:3252   */\n      swap2\n      pop\n        /* \"#utility.yul\":3145:3262   */\n      pop\n        /* \"#utility.yul\":2940:3269   */\n      swap3\n      swap2\n      pop\n      pop\n      jump\t// out\n        /* \"#utility.yul\":3275:3393   */\n    tag_112:\n        /* \"#utility.yul\":3362:3386   */\n      tag_114\n        /* \"#utility.yul\":3380:3385   */\n      dup2\n        /* \"#utility.yul\":3362:3386   */\n      tag_115\n      jump\t// in\n    tag_114:\n        /* \"#utility.yul\":3357:3360   */\n      dup3\n        /* \"#utility.yul\":3350:3387   */\n      mstore\n        /* \"#utility.yul\":3275:3393   */\n      pop\n      pop\n      jump\t// out\n        /* \"#utility.yul\":3399:3765   */\n    tag_116:\n        /* \"#utility.yul\":3541:3544   */\n      0x00\n        /* \"#utility.yul\":3562:3629   */\n      tag_118\n        /* \"#utility.yul\":3626:3628   */\n      0x14\n        /* \"#utility.yul\":3621:3624   */\n      dup4\n        /* \"#utility.yul\":3562:3629   */\n      tag_119\n      jump\t// in\n    tag_118:\n        /* \"#utility.yul\":3555:3629   */\n      swap2\n      pop\n        /* \"#utility.yul\":3638:3731   */\n      tag_120\n        /* \"#utility.yul\":3727:3730   */\n      dup3\n        /* \"#utility.yul\":3638:3731   */\n      tag_121\n      jump\t// in\n    tag_120:\n        /* \"#utility.yul\":3756:3758   */\n      0x20\n        /* \"#utility.yul\":3751:3754   */\n      dup3\n        /* \"#utility.yul\":3747:3759   */\n      add\n        /* \"#utility.yul\":3740:3759   */\n      swap1\n      pop\n        /* \"#utility.yul\":3399:3765   */\n      swap2\n      swap1\n      pop\n      jump\t// out\n        /* \"#utility.yul\":3771:4137   */\n    tag_122:\n        /* \"#utility.yul\":3913:3916   */\n      0x00\n        /* \"#utility.yul\":3934:4001   */\n      tag_124\n        /* \"#utility.yul\":3998:4000   */\n      0x12\n        /* \"#utility.yul\":3993:3996   */\n      dup4\n        /* \"#utility.yul\":3934:4001   */\n      tag_119\n      jump\t// in\n    tag_124:\n        /* \"#utility.yul\":3927:4001   */\n      swap2\n      pop\n        /* \"#utility.yul\":4010:4103   */\n      tag_125\n        /* \"#utility.yul\":4099:4102   */\n      dup3\n        /* \"#utility.yul\":4010:4103   */\n      tag_126\n      jump\t// in\n    tag_125:\n        /* \"#utility.yul\":4128:4130   */\n      0x20\n        /* \"#utility.yul\":4123:4126   */\n      dup3\n        /* \"#utility.yul\":4119:4131   */\n      add\n        /* \"#utility.yul\":4112:4131   */\n      swap1\n      pop\n        /* \"#utility.yul\":3771:4137   */\n      swap2\n      swap1\n      pop\n      jump\t// out\n        /* \"#utility.yul\":4143:4509   */\n    tag_127:\n        /* \"#utility.yul\":4285:4288   */\n      0x00\n        /* \"#utility.yul\":4306:4373   */\n      tag_129\n        /* \"#utility.yul\":4370:4372   */\n      0x0d\n        /* \"#utility.yul\":4365:4368   */\n      dup4\n        /* \"#utility.yul\":4306:4373   */\n      tag_119\n      jump\t// in\n    tag_129:\n        /* \"#utility.yul\":4299:4373   */\n      swap2\n      pop\n        /* \"#utility.yul\":4382:4475   */\n      tag_130\n        /* \"#utility.yul\":4471:4474   */\n      dup3\n        /* \"#utility.yul\":4382:4475   */\n      tag_131\n      jump\t// in\n    tag_130:\n        /* \"#utility.yul\":4500:4502   */\n      0x20\n        /* \"#utility.yul\":4495:4498   */\n      dup3\n        /* \"#utility.yul\":4491:4503   */\n      add\n        /* \"#utility.yul\":4484:4503   */\n      swap1\n      pop\n        /* \"#utility.yul\":4143:4509   */\n      swap2\n      swap1\n      pop\n      jump\t// out\n        /* \"#utility.yul\":4515:4633   */\n    tag_132:\n        /* \"#utility.yul\":4602:4626   */\n      tag_134\n        /* \"#utility.yul\":4620:4625   */\n      dup2\n        /* \"#utility.yul\":4602:4626   */\n      tag_135\n      jump\t// in\n    tag_134:\n        /* \"#utility.yul\":4597:4600   */\n      dup3\n        /* \"#utility.yul\":4590:4627   */\n      mstore\n        /* \"#utility.yul\":4515:4633   */\n      pop\n      pop\n      jump\t// out\n        /* \"#utility.yul\":4639:4861   */\n    tag_12:\n        /* \"#utility.yul\":4732:4736   */\n      0x00\n        /* \"#utility.yul\":4770:4772   */\n      0x20\n        /* \"#utility.yul\":4759:4768   */\n      dup3\n        /* \"#utility.yul\":4755:4773   */\n      add\n        /* \"#utility.yul\":4747:4773   */\n      swap1\n      pop\n        /* \"#utility.yul\":4783:4854   */\n      tag_137\n        /* \"#utility.yul\":4851:4852   */\n      0x00\n        /* \"#utility.yul\":4840:4849   */\n      dup4\n        /* \"#utility.yul\":4836:4853   */\n      add\n        /* \"#utility.yul\":4827:4833   */\n      dup5\n        /* \"#utility.yul\":4783:4854   */\n      tag_112\n      jump\t// in\n    tag_137:\n        /* \"#utility.yul\":4639:4861   */\n      swap3\n      swap2\n      pop\n      pop\n      jump\t// out\n        /* \"#utility.yul\":4867:5286   */\n    tag_37:\n        /* \"#utility.yul\":5033:5037   */\n      0x00\n        /* \"#utility.yul\":5071:5073   */\n      0x20\n        /* \"#utility.yul\":5060:5069   */\n      dup3\n        /* \"#utility.yul\":5056:5074   */\n      add\n        /* \"#utility.yul\":5048:5074   */\n      swap1\n      pop\n        /* \"#utility.yul\":5120:5129   */\n      dup2\n        /* \"#utility.yul\":5114:5118   */\n      dup2\n        /* \"#utility.yul\":5110:5130   */\n      sub\n        /* \"#utility.yul\":5106:5107   */\n      0x00\n        /* \"#utility.yul\":5095:5104   */\n      dup4\n        /* \"#utility.yul\":5091:5108   */\n      add\n        /* \"#utility.yul\":5084:5131   */\n      mstore\n        /* \"#utility.yul\":5148:5279   */\n      tag_139\n        /* \"#utility.yul\":5274:5278   */\n      dup2\n        /* \"#utility.yul\":5148:5279   */\n      tag_116\n      jump\t// in\n    tag_139:\n        /* \"#utility.yul\":5140:5279   */\n      swap1\n      pop\n        /* \"#utility.yul\":4867:5286   */\n      swap2\n      swap1\n      pop\n      jump\t// out\n        /* \"#utility.yul\":5292:5711   */\n    tag_47:\n        /* \"#utility.yul\":5458:5462   */\n      0x00\n        /* \"#utility.yul\":5496:5498   */\n      0x20\n        /* \"#utility.yul\":5485:5494   */\n      dup3\n        /* \"#utility.yul\":5481:5499   */\n      add\n        /* \"#utility.yul\":5473:5499   */\n      swap1\n      pop\n        /* \"#utility.yul\":5545:5554   */\n      dup2\n        /* \"#utility.yul\":5539:5543   */\n      dup2\n        /* \"#utility.yul\":5535:5555   */\n      sub\n        /* \"#utility.yul\":5531:5532   */\n      0x00\n        /* \"#utility.yul\":5520:5529   */\n      dup4\n        /* \"#utility.yul\":5516:5533   */\n      add\n        /* \"#utility.yul\":5509:5556   */\n      mstore\n        /* \"#utility.yul\":5573:5704   */\n      tag_141\n        /* \"#utility.yul\":5699:5703   */\n      dup2\n        /* \"#utility.yul\":5573:5704   */\n      tag_122\n      jump\t// in\n    tag_141:\n        /* \"#utility.yul\":5565:5704   */\n      swap1\n      pop\n        /* \"#utility.yul\":5292:5711   */\n      swap2\n      swap1\n      pop\n      jump\t// out\n        /* \"#utility.yul\":5717:6136   */\n    tag_40:\n        /* \"#utility.yul\":5883:5887   */\n      0x00\n        /* \"#utility.yul\":5921:5923   */\n      0x20\n        /* \"#utility.yul\":5910:5919   */\n      dup3\n        /* \"#utility.yul\":5906:5924   */\n      add\n        /* \"#utility.yul\":5898:5924   */\n      swap1\n      pop\n        /* \"#utility.yul\":5970:5979   */\n      dup2\n        /* \"#utility.yul\":5964:5968   */\n      dup2\n        /* \"#utility.yul\":5960:5980   */\n      sub\n        /* \"#utility.yul\":5956:5957   */\n      0x00\n        /* \"#utility.yul\":5945:5954   */\n      dup4\n        /* \"#utility.yul\":5941:5958   */\n      add\n        /* \"#utility.yul\":5934:5981   */\n      mstore\n        /* \"#utility.yul\":5998:6129   */\n      tag_143\n        /* \"#utility.yul\":6124:6128   */\n      dup2\n        /* \"#utility.yul\":5998:6129   */\n      tag_127\n      jump\t// in\n    tag_143:\n        /* \"#utility.yul\":5990:6129   */\n      swap1\n      pop\n        /* \"#utility.yul\":5717:6136   */\n      swap2\n      swap1\n      pop\n      jump\t// out\n        /* \"#utility.yul\":6142:6364   */\n    tag_16:\n        /* \"#utility.yul\":6235:6239   */\n      0x00\n        /* \"#utility.yul\":6273:6275   */\n      0x20\n        /* \"#utility.yul\":6262:6271   */\n      dup3\n        /* \"#utility.yul\":6258:6276   */\n      add\n        /* \"#utility.yul\":6250:6276   */\n      swap1\n      pop\n        /* \"#utility.yul\":6286:6357   */\n      tag_145\n        /* \"#utility.yul\":6354:6355   */\n      0x00\n        /* \"#utility.yul\":6343:6352   */\n      dup4\n        /* \"#utility.yul\":6339:6356   */\n      add\n        /* \"#utility.yul\":6330:6336   */\n      dup5\n        /* \"#utility.yul\":6286:6357   */\n      tag_132\n      jump\t// in\n    tag_145:\n        /* \"#utility.yul\":6142:6364   */\n      swap3\n      swap2\n      pop\n      pop\n      jump\t// out\n        /* \"#utility.yul\":6370:6499   */\n    tag_68:\n        /* \"#utility.yul\":6404:6410   */\n      0x00\n        /* \"#utility.yul\":6431:6451   */\n      tag_147\n      tag_148\n      jump\t// in\n    tag_147:\n        /* \"#utility.yul\":6421:6451   */\n      swap1\n      pop\n        /* \"#utility.yul\":6460:6493   */\n      tag_149\n        /* \"#utility.yul\":6488:6492   */\n      dup3\n        /* \"#utility.yul\":6480:6486   */\n      dup3\n        /* \"#utility.yul\":6460:6493   */\n      tag_150\n      jump\t// in\n    tag_149:\n        /* \"#utility.yul\":6370:6499   */\n      swap2\n      swap1\n      pop\n      jump\t// out\n        /* \"#utility.yul\":6505:6580   */\n    tag_148:\n        /* \"#utility.yul\":6538:6544   */\n      0x00\n        /* \"#utility.yul\":6571:6573   */\n      0x40\n        /* \"#utility.yul\":6565:6574   */\n      mload\n        /* \"#utility.yul\":6555:6574   */\n      swap1\n      pop\n        /* \"#utility.yul\":6505:6580   */\n      swap1\n      jump\t// out\n        /* \"#utility.yul\":6586:6897   */\n    tag_67:\n        /* \"#utility.yul\":6663:6667   */\n      0x00\n        /* \"#utility.yul\":6753:6771   */\n      0xffffffffffffffff\n        /* \"#utility.yul\":6745:6751   */\n      dup3\n        /* \"#utility.yul\":6742:6772   */\n      gt\n        /* \"#utility.yul\":6739:6795   */\n      iszero\n      tag_153\n      jumpi\n        /* \"#utility.yul\":6775:6793   */\n      tag_154\n      tag_155\n      jump\t// in\n    tag_154:\n        /* \"#utility.yul\":6739:6795   */\n    tag_153:\n        /* \"#utility.yul\":6825:6829   */\n      0x20\n        /* \"#utility.yul\":6817:6823   */\n      dup3\n        /* \"#utility.yul\":6813:6830   */\n      mul\n        /* \"#utility.yul\":6805:6830   */\n      swap1\n      pop\n        /* \"#utility.yul\":6885:6889   */\n      0x20\n        /* \"#utility.yul\":6879:6883   */\n      dup2\n        /* \"#utility.yul\":6875:6890   */\n      add\n        /* \"#utility.yul\":6867:6890   */\n      swap1\n      pop\n        /* \"#utility.yul\":6586:6897   */\n      swap2\n      swap1\n      pop\n      jump\t// out\n        /* \"#utility.yul\":6903:7072   */\n    tag_119:\n        /* \"#utility.yul\":6987:6998   */\n      0x00\n        /* \"#utility.yul\":7021:7027   */\n      dup3\n        /* \"#utility.yul\":7016:7019   */\n      dup3\n        /* \"#utility.yul\":7009:7028   */\n      mstore\n        /* \"#utility.yul\":7061:7065   */\n      0x20\n        /* \"#utility.yul\":7056:7059   */\n      dup3\n        /* \"#utility.yul\":7052:7066   */\n      add\n        /* \"#utility.yul\":7037:7066   */\n      swap1\n      pop\n        /* \"#utility.yul\":6903:7072   */\n      swap3\n      swap2\n      pop\n      pop\n      jump\t// out\n        /* \"#utility.yul\":7078:7383   */\n    tag_42:\n        /* \"#utility.yul\":7118:7121   */\n      0x00\n        /* \"#utility.yul\":7137:7157   */\n      tag_158\n        /* \"#utility.yul\":7155:7156   */\n      dup3\n        /* \"#utility.yul\":7137:7157   */\n      tag_135\n      jump\t// in\n    tag_158:\n        /* \"#utility.yul\":7132:7157   */\n      swap2\n      pop\n        /* \"#utility.yul\":7171:7191   */\n      tag_159\n        /* \"#utility.yul\":7189:7190   */\n      dup4\n        /* \"#utility.yul\":7171:7191   */\n      tag_135\n      jump\t// in\n    tag_159:\n        /* \"#utility.yul\":7166:7191   */\n      swap3\n      pop\n        /* \"#utility.yul\":7325:7326   */\n      dup3\n        /* \"#utility.yul\":7257:7323   */\n      0xffffffffffffffffffffffffffffffffffffffffffffffffffffffffffffffff\n        /* \"#utility.yul\":7253:7327   */\n      sub\n        /* \"#utility.yul\":7250:7251   */\n      dup3\n        /* \"#utility.yul\":7247:7328   */\n      gt\n        /* \"#utility.yul\":7244:7351   */\n      iszero\n      tag_160\n      jumpi\n        /* \"#utility.yul\":7331:7349   */\n      tag_161\n      tag_162\n      jump\t// in\n    tag_161:\n        /* \"#utility.yul\":7244:7351   */\n    tag_160:\n        /* \"#utility.yul\":7375:7376   */\n      dup3\n        /* \"#utility.yul\":7372:7373   */\n      dup3\n        /* \"#utility.yul\":7368:7377   */\n      add\n        /* \"#utility.yul\":7361:7377   */\n      swap1\n      pop\n        /* \"#utility.yul\":7078:7383   */\n      swap3\n      swap2\n      pop\n      pop\n      jump\t// out\n        /* \"#utility.yul\":7389:7580   */\n    tag_49:\n        /* \"#utility.yul\":7429:7433   */\n      0x00\n        /* \"#utility.yul\":7449:7469   */\n      tag_164\n        /* \"#utility.yul\":7467:7468   */\n      dup3\n        /* \"#utility.yul\":7449:7469   */\n      tag_135\n      jump\t// in\n    tag_164:\n        /* \"#utility.yul\":7444:7469   */\n      swap2\n      pop\n        /* \"#utility.yul\":7483:7503   */\n      tag_165\n        /* \"#utility.yul\":7501:7502   */\n      dup4\n        /* \"#utility.yul\":7483:7503   */\n      tag_135\n      jump\t// in\n    tag_165:\n        /* \"#utility.yul\":7478:7503   */\n      swap3\n      pop\n        /* \"#utility.yul\":7522:7523   */\n      dup3\n        /* \"#utility.yul\":7519:7520   */\n      dup3\n        /* \"#utility.yul\":7516:7524   */\n      lt\n        /* \"#utility.yul\":7513:7547   */\n      iszero\n      tag_166\n      jumpi\n        /* \"#utility.yul\":7527:7545   */\n      tag_167\n      tag_162\n      jump\t// in\n    tag_167:\n        /* \"#utility.yul\":7513:7547   */\n    tag_166:\n        /* \"#utility.yul\":7572:7573   */\n      dup3\n        /* \"#utility.yul\":7569:7570   */\n      dup3\n        /* \"#utility.yul\":7565:7574   */\n      sub\n        /* \"#utility.yul\":7557:7574   */\n      swap1\n      pop\n        /* \"#utility.yul\":7389:7580   */\n      swap3\n      swap2\n      pop\n      pop\n      jump\t// out\n        /* \"#utility.yul\":7586:7682   */\n    tag_115:\n        /* \"#utility.yul\":7623:7630   */\n      0x00\n        /* \"#utility.yul\":7652:7676   */\n      tag_169\n        /* \"#utility.yul\":7670:7675   */\n      dup3\n        /* \"#utility.yul\":7652:7676   */\n      tag_170\n      jump\t// in\n    tag_169:\n        /* \"#utility.yul\":7641:7676   */\n      swap1\n      pop\n        /* \"#utility.yul\":7586:7682   */\n      swap2\n      swap1\n      pop\n      jump\t// out\n        /* \"#utility.yul\":7688:7814   */\n    tag_170:\n        /* \"#utility.yul\":7725:7732   */\n      0x00\n        /* \"#utility.yul\":7765:7807   */\n      0xffffffffffffffffffffffffffffffffffffffff\n        /* \"#utility.yul\":7758:7763   */\n      dup3\n        /* \"#utility.yul\":7754:7808   */\n      and\n        /* \"#utility.yul\":7743:7808   */\n      swap1\n      pop\n        /* \"#utility.yul\":7688:7814   */\n      swap2\n      swap1\n      pop\n      jump\t// out\n        /* \"#utility.yul\":7820:7897   */\n    tag_135:\n        /* \"#utility.yul\":7857:7864   */\n      0x00\n        /* \"#utility.yul\":7886:7891   */\n      dup2\n        /* \"#utility.yul\":7875:7891   */\n      swap1\n      pop\n        /* \"#utility.yul\":7820:7897   */\n      swap2\n      swap1\n      pop\n      jump\t// out\n        /* \"#utility.yul\":7903:8184   */\n    tag_150:\n        /* \"#utility.yul\":7986:8013   */\n      tag_174\n        /* \"#utility.yul\":8008:8012   */\n      dup3\n        /* \"#utility.yul\":7986:8013   */\n      tag_175\n      jump\t// in\n    tag_174:\n        /* \"#utility.yul\":7978:7984   */\n      dup2\n        /* \"#utility.yul\":7974:8014   */\n      add\n        /* \"#utility.yul\":8116:8122   */\n      dup2\n        /* \"#utility.yul\":8104:8114   */\n      dup2\n        /* \"#utility.yul\":8101:8123   */\n      lt\n        /* \"#utility.yul\":8080:8098   */\n      0xffffffffffffffff\n        /* \"#utility.yul\":8068:8078   */\n      dup3\n        /* \"#utility.yul\":8065:8099   */\n      gt\n        /* \"#utility.yul\":8062:8124   */\n      or\n        /* \"#utility.yul\":8059:8147   */\n      iszero\n      tag_176\n      jumpi\n        /* \"#utility.yul\":8127:8145   */\n      tag_177\n      tag_155\n      jump\t// in\n    tag_177:\n        /* \"#utility.yul\":8059:8147   */\n    tag_176:\n        /* \"#utility.yul\":8167:8177   */\n      dup1\n        /* \"#utility.yul\":8163:8165   */\n      0x40\n        /* \"#utility.yul\":8156:8178   */\n      mstore\n        /* \"#utility.yul\":7946:8184   */\n      pop\n        /* \"#utility.yul\":7903:8184   */\n      pop\n      pop\n      jump\t// out\n        /* \"#utility.yul\":8190:8423   */\n    tag_61:\n        /* \"#utility.yul\":8229:8232   */\n      0x00\n        /* \"#utility.yul\":8252:8276   */\n      tag_179\n        /* \"#utility.yul\":8270:8275   */\n      dup3\n        /* \"#utility.yul\":8252:8276   */\n      tag_135\n      jump\t// in\n    tag_179:\n        /* \"#utility.yul\":8243:8276   */\n      swap2\n      pop\n        /* \"#utility.yul\":8298:8364   */\n      0xffffffffffffffffffffffffffffffffffffffffffffffffffffffffffffffff\n        /* \"#utility.yul\":8291:8296   */\n      dup3\n        /* \"#utility.yul\":8288:8365   */\n      eq\n        /* \"#utility.yul\":8285:8388   */\n      iszero\n      tag_180\n      jumpi\n        /* \"#utility.yul\":8368:8386   */\n      tag_181\n      tag_162\n      jump\t// in\n    tag_181:\n        /* \"#utility.yul\":8285:8388   */\n    tag_180:\n        /* \"#utility.yul\":8415:8416   */\n      0x01\n        /* \"#utility.yul\":8408:8413   */\n      dup3\n        /* \"#utility.yul\":8404:8417   */\n      add\n        /* \"#utility.yul\":8397:8417   */\n      swap1\n      pop\n        /* \"#utility.yul\":8190:8423   */\n      swap2\n      swap1\n      pop\n      jump\t// out\n        /* \"#utility.yul\":8429:8609   */\n    tag_162:\n        /* \"#utility.yul\":8477:8554   */\n      0x4e487b7100000000000000000000000000000000000000000000000000000000\n        /* \"#utility.yul\":8474:8475   */\n      0x00\n        /* \"#utility.yul\":8467:8555   */\n      mstore\n        /* \"#utility.yul\":8574:8578   */\n      0x11\n        /* \"#utility.yul\":8571:8572   */\n      0x04\n        /* \"#utility.yul\":8564:8579   */\n      mstore\n        /* \"#utility.yul\":8598:8602   */\n      0x24\n        /* \"#utility.yul\":8595:8596   */\n      0x00\n        /* \"#utility.yul\":8588:8603   */\n      revert\n        /* \"#utility.yul\":8615:8795   */\n    tag_57:\n        /* \"#utility.yul\":8663:8740   */\n      0x4e487b7100000000000000000000000000000000000000000000000000000000\n        /* \"#utility.yul\":8660:8661   */\n      0x00\n        /* \"#utility.yul\":8653:8741   */\n      mstore\n        /* \"#utility.yul\":8760:8764   */\n      0x32\n        /* \"#utility.yul\":8757:8758   */\n      0x04\n        /* \"#utility.yul\":8750:8765   */\n      mstore\n        /* \"#utility.yul\":8784:8788   */\n      0x24\n        /* \"#utility.yul\":8781:8782   */\n      0x00\n        /* \"#utility.yul\":8774:8789   */\n      revert\n        /* \"#utility.yul\":8801:8981   */\n    tag_155:\n        /* \"#utility.yul\":8849:8926   */\n      0x4e487b7100000000000000000000000000000000000000000000000000000000\n        /* \"#utility.yul\":8846:8847   */\n      0x00\n        /* \"#utility.yul\":8839:8927   */\n      mstore\n        /* \"#utility.yul\":8946:8950   */\n      0x41\n        /* \"#utility.yul\":8943:8944   */\n      0x04\n        /* \"#utility.yul\":8936:8951   */\n      mstore\n        /* \"#utility.yul\":8970:8974   */\n      0x24\n        /* \"#utility.yul\":8967:8968   */\n      0x00\n        /* \"#utility.yul\":8960:8975   */\n      revert\n        /* \"#utility.yul\":8987:9104   */\n    tag_84:\n        /* \"#utility.yul\":9096:9097   */\n      0x00\n        /* \"#utility.yul\":9093:9094   */\n      dup1\n        /* \"#utility.yul\":9086:9098   */\n      revert\n        /* \"#utility.yul\":9110:9227   */\n    tag_71:\n        /* \"#utility.yul\":9219:9220   */\n      0x00\n        /* \"#utility.yul\":9216:9217   */\n      dup1\n        /* \"#utility.yul\":9209:9221   */\n      revert\n        /* \"#utility.yul\":9233:9350   */\n    tag_105:\n        /* \"#utility.yul\":9342:9343   */\n      0x00\n        /* \"#utility.yul\":9339:9340   */\n      dup1\n        /* \"#utility.yul\":9332:9344   */\n      revert\n        /* \"#utility.yul\":9356:9473   */\n    tag_93:\n        /* \"#utility.yul\":9465:9466   */\n      0x00\n        /* \"#utility.yul\":9462:9463   */\n      dup1\n        /* \"#utility.yul\":9455:9467   */\n      revert\n        /* \"#utility.yul\":9479:9581   */\n    tag_175:\n        /* \"#utility.yul\":9520:9526   */\n      0x00\n        /* \"#utility.yul\":9571:9573   */\n      0x1f\n        /* \"#utility.yul\":9567:9574   */\n      not\n        /* \"#utility.yul\":9562:9564   */\n      0x1f\n        /* \"#utility.yul\":9555:9560   */\n      dup4\n        /* \"#utility.yul\":9551:9565   */\n      add\n        /* \"#utility.yul\":9547:9575   */\n      and\n        /* \"#utility.yul\":9537:9575   */\n      swap1\n      pop\n        /* \"#utility.yul\":9479:9581   */\n      swap2\n      swap1\n      pop\n      jump\t// out\n        /* \"#utility.yul\":9587:9757   */\n    tag_121:\n        /* \"#utility.yul\":9727:9749   */\n      0x4f6e6c79206d696e7465722063616e206d696e74000000000000000000000000\n        /* \"#utility.yul\":9723:9724   */\n      0x00\n        /* \"#utility.yul\":9715:9721   */\n      dup3\n        /* \"#utility.yul\":9711:9725   */\n      add\n        /* \"#utility.yul\":9704:9750   */\n      mstore\n        /* \"#utility.yul\":9587:9757   */\n      pop\n      jump\t// out\n        /* \"#utility.yul\":9763:9931   */\n    tag_126:\n        /* \"#utility.yul\":9903:9923   */\n      0x4e6f7420656e6f7567682062616c616e63650000000000000000000000000000\n        /* \"#utility.yul\":9899:9900   */\n      0x00\n        /* \"#utility.yul\":9891:9897   */\n      dup3\n        /* \"#utility.yul\":9887:9901   */\n      add\n        /* \"#utility.yul\":9880:9924   */\n      mstore\n        /* \"#utility.yul\":9763:9931   */\n      pop\n      jump\t// out\n        /* \"#utility.yul\":9937:10100   */\n    tag_131:\n        /* \"#utility.yul\":10077:10092   */\n      0x496e76616c69642076616c756500000000000000000000000000000000000000\n        /* \"#utility.yul\":10073:10074   */\n      0x00\n        /* \"#utility.yul\":10065:10071   */\n      dup3\n        /* \"#utility.yul\":10061:10075   */\n      add\n        /* \"#utility.yul\":10054:10093   */\n      mstore\n        /* \"#utility.yul\":9937:10100   */\n      pop\n      jump\t// out\n        /* \"#utility.yul\":10106:10228   */\n    tag_79:\n        /* \"#utility.yul\":10179:10203   */\n      tag_194\n        /* \"#utility.yul\":10197:10202   */\n      dup2\n        /* \"#utility.yul\":10179:10203   */\n      tag_115\n      jump\t// in\n    tag_194:\n        /* \"#utility.yul\":10172:10177   */\n      dup2\n        /* \"#utility.yul\":10169:10204   */\n      eq\n        /* \"#utility.yul\":10159:10222   */\n      tag_195\n      jumpi\n        /* \"#utility.yul\":10218:10219   */\n      0x00\n        /* \"#utility.yul\":10215:10216   */\n      dup1\n        /* \"#utility.yul\":10208:10220   */\n      revert\n        /* \"#utility.yul\":10159:10222   */\n    tag_195:\n        /* \"#utility.yul\":10106:10228   */\n      pop\n      jump\t// out\n        /* \"#utility.yul\":10234:10356   */\n    tag_89:\n        /* \"#utility.yul\":10307:10331   */\n      tag_197\n        /* \"#utility.yul\":10325:10330   */\n      dup2\n        /* \"#utility.yul\":10307:10331   */\n      tag_135\n      jump\t// in\n    tag_197:\n        /* \"#utility.yul\":10300:10305   */\n      dup2\n        /* \"#utility.yul\":10297:10332   */\n      eq\n        /* \"#utility.yul\":10287:10350   */\n      tag_198\n      jumpi\n        /* \"#utility.yul\":10346:10347   */\n      0x00\n        /* \"#utility.yul\":10343:10344   */\n      dup1\n        /* \"#utility.yul\":10336:10348   */\n      revert\n        /* \"#utility.yul\":10287:10350   */\n    tag_198:\n        /* \"#utility.yul\":10234:10356   */\n      pop\n      jump\t// out\n\n    auxdata: 0xa2646970667358221220c7458256dfc565c25a59776806a2c7177cd44efddc8c8bbaca33f1677de0553564736f6c63430008070033\n}\n",
				"bytecode": {
					"linkReferences": {},
					"object": "608060405234801561001057600080fd5b50604051610b75380380610b758339818101604052810190610032919061008e565b80600260006101000a81548173ffffffffffffffffffffffffffffffffffffffff021916908373ffffffffffffffffffffffffffffffffffffffff16021790555050610109565b600081519050610088816100f2565b92915050565b6000602082840312156100a4576100a36100ed565b5b60006100b284828501610079565b91505092915050565b60006100c6826100cd565b9050919050565b600073ffffffffffffffffffffffffffffffffffffffff82169050919050565b600080fd5b6100fb816100bb565b811461010657600080fd5b50565b610a5d806101186000396000f3fe608060405234801561001057600080fd5b50600436106100625760003560e01c8063075461721461006757806318160ddd1461008557806340c10f19146100a357806342966c68146100bf57806370a08231146100db578063c204642c1461010b575b600080fd5b61006f610127565b60405161007c9190610694565b60405180910390f35b61008d61014d565b60405161009a919061070f565b60405180910390f35b6100bd60048036038101906100b89190610544565b610153565b005b6100d960048036038101906100d491906105e0565b610298565b005b6100f560048036038101906100f09190610517565b61038b565b604051610102919061070f565b60405180910390f35b61012560048036038101906101209190610584565b6103a3565b005b600260009054906101000a900473ffffffffffffffffffffffffffffffffffffffff1681565b60005481565b600260009054906101000a900473ffffffffffffffffffffffffffffffffffffffff1673ffffffffffffffffffffffffffffffffffffffff163373ffffffffffffffffffffffffffffffffffffffff16146101e3576040517f08c379a00000000000000000000000000000000000000000000000000000000081526004016101da906106af565b60405180910390fd5b60008111610226576040517f08c379a000000000000000000000000000000000000000000000000000000000815260040161021d906106ef565b60405180910390fd5b80600160008473ffffffffffffffffffffffffffffffffffffffff1673ffffffffffffffffffffffffffffffffffffffff1681526020019081526020016000206000828254610275919061078c565b925050819055508060008082825461028d919061078c565b925050819055505050565b80600160003373ffffffffffffffffffffffffffffffffffffffff1673ffffffffffffffffffffffffffffffffffffffff16815260200190815260200160002054101561031a576040517f08c379a0000000000000000000000000000000000000000000000000000000008152600401610311906106cf565b60405180910390fd5b80600160003373ffffffffffffffffffffffffffffffffffffffff1673ffffffffffffffffffffffffffffffffffffffff168152602001908152602001600020600082825461036991906107e2565b925050819055508060008082825461038191906107e2565b9250508190555050565b60016020528060005260406000206000915090505481565b60005b825181101561044a5781600160008584815181106103c7576103c66108fb565b5b602002602001015173ffffffffffffffffffffffffffffffffffffffff1673ffffffffffffffffffffffffffffffffffffffff1681526020019081526020016000206000828254610418919061078c565b9250508190555081600080828254610430919061078c565b92505081905550808061044290610883565b9150506103a6565b505050565b600061046261045d8461074f565b61072a565b905080838252602082019050828560208602820111156104855761048461095e565b5b60005b858110156104b5578161049b88826104bf565b845260208401935060208301925050600181019050610488565b5050509392505050565b6000813590506104ce816109f9565b92915050565b600082601f8301126104e9576104e8610959565b5b81356104f984826020860161044f565b91505092915050565b60008135905061051181610a10565b92915050565b60006020828403121561052d5761052c610968565b5b600061053b848285016104bf565b91505092915050565b6000806040838503121561055b5761055a610968565b5b6000610569858286016104bf565b925050602061057a85828601610502565b9150509250929050565b6000806040838503121561059b5761059a610968565b5b600083013567ffffffffffffffff8111156105b9576105b8610963565b5b6105c5858286016104d4565b92505060206105d685828601610502565b9150509250929050565b6000602082840312156105f6576105f5610968565b5b600061060484828501610502565b91505092915050565b61061681610816565b82525050565b600061062960148361077b565b91506106348261097e565b602082019050919050565b600061064c60128361077b565b9150610657826109a7565b602082019050919050565b600061066f600d8361077b565b915061067a826109d0565b602082019050919050565b61068e81610848565b82525050565b60006020820190506106a9600083018461060d565b92915050565b600060208201905081810360008301526106c88161061c565b9050919050565b600060208201905081810360008301526106e88161063f565b9050919050565b6000602082019050818103600083015261070881610662565b9050919050565b60006020820190506107246000830184610685565b92915050565b6000610734610745565b90506107408282610852565b919050565b6000604051905090565b600067ffffffffffffffff82111561076a5761076961092a565b5b602082029050602081019050919050565b600082825260208201905092915050565b600061079782610848565b91506107a283610848565b9250827fffffffffffffffffffffffffffffffffffffffffffffffffffffffffffffffff038211156107d7576107d66108cc565b5b828201905092915050565b60006107ed82610848565b91506107f883610848565b92508282101561080b5761080a6108cc565b5b828203905092915050565b600061082182610828565b9050919050565b600073ffffffffffffffffffffffffffffffffffffffff82169050919050565b6000819050919050565b61085b8261096d565b810181811067ffffffffffffffff8211171561087a5761087961092a565b5b80604052505050565b600061088e82610848565b91507fffffffffffffffffffffffffffffffffffffffffffffffffffffffffffffffff8214156108c1576108c06108cc565b5b600182019050919050565b7f4e487b7100000000000000000000000000000000000000000000000000000000600052601160045260246000fd5b7f4e487b7100000000000000000000000000000000000000000000000000000000600052603260045260246000fd5b7f4e487b7100000000000000000000000000000000000000000000000000000000600052604160045260246000fd5b600080fd5b600080fd5b600080fd5b600080fd5b6000601f19601f8301169050919050565b7f4f6e6c79206d696e7465722063616e206d696e74000000000000000000000000600082015250565b7f4e6f7420656e6f7567682062616c616e63650000000000000000000000000000600082015250565b7f496e76616c69642076616c756500000000000000000000000000000000000000600082015250565b610a0281610816565b8114610a0d57600080fd5b50565b610a1981610848565b8114610a2457600080fd5b5056fea2646970667358221220c7458256dfc565c25a59776806a2c7177cd44efddc8c8bbaca33f1677de0553564736f6c63430008070033",
					"opcodes": "PUSH1 0x80 PUSH1 0x40 MSTORE CALLVALUE DUP1 ISZERO PUSH2 0x10 JUMPI PUSH1 0x0 DUP1 REVERT JUMPDEST POP PUSH1 0x40 MLOAD PUSH2 0xB75 CODESIZE SUB DUP1 PUSH2 0xB75 DUP4 CODECOPY DUP2 DUP2 ADD PUSH1 0x40 MSTORE DUP2 ADD SWAP1 PUSH2 0x32 SWAP2 SWAP1 PUSH2 0x8E JUMP JUMPDEST DUP1 PUSH1 0x2 PUSH1 0x0 PUSH2 0x100 EXP DUP2 SLOAD DUP2 PUSH20 0xFFFFFFFFFFFFFFFFFFFFFFFFFFFFFFFFFFFFFFFF MUL NOT AND SWAP1 DUP4 PUSH20 0xFFFFFFFFFFFFFFFFFFFFFFFFFFFFFFFFFFFFFFFF AND MUL OR SWAP1 SSTORE POP POP PUSH2 0x109 JUMP JUMPDEST PUSH1 0x0 DUP2 MLOAD SWAP1 POP PUSH2 0x88 DUP2 PUSH2 0xF2 JUMP JUMPDEST SWAP3 SWAP2 POP POP JUMP JUMPDEST PUSH1 0x0 PUSH1 0x20 DUP3 DUP5 SUB SLT ISZERO PUSH2 0xA4 JUMPI PUSH2 0xA3 PUSH2 0xED JUMP JUMPDEST JUMPDEST PUSH1 0x0 PUSH2 0xB2 DUP5 DUP3 DUP6 ADD PUSH2 0x79 JUMP JUMPDEST SWAP2 POP POP SWAP3 SWAP2 POP POP JUMP JUMPDEST PUSH1 0x0 PUSH2 0xC6 DUP3 PUSH2 0xCD JUMP JUMPDEST SWAP1 POP SWAP2 SWAP1 POP JUMP JUMPDEST PUSH1 0x0 PUSH20 0xFFFFFFFFFFFFFFFFFFFFFFFFFFFFFFFFFFFFFFFF DUP3 AND SWAP1 POP SWAP2 SWAP1 POP JUMP JUMPDEST PUSH1 0x0 DUP1 REVERT JUMPDEST PUSH2 0xFB DUP2 PUSH2 0xBB JUMP JUMPDEST DUP2 EQ PUSH2 0x106 JUMPI PUSH1 0x0 DUP1 REVERT JUMPDEST POP JUMP JUMPDEST PUSH2 0xA5D DUP1 PUSH2 0x118 PUSH1 0x0 CODECOPY PUSH1 0x0 RETURN INVALID PUSH1 0x80 PUSH1 0x40 MSTORE CALLVALUE DUP1 ISZERO PUSH2 0x10 JUMPI PUSH1 0x0 DUP1 REVERT JUMPDEST POP PUSH1 0x4 CALLDATASIZE LT PUSH2 0x62 JUMPI PUSH1 0x0 CALLDATALOAD PUSH1 0xE0 SHR DUP1 PUSH4 0x7546172 EQ PUSH2 0x67 JUMPI DUP1 PUSH4 0x18160DDD EQ PUSH2 0x85 JUMPI DUP1 PUSH4 0x40C10F19 EQ PUSH2 0xA3 JUMPI DUP1 PUSH4 0x42966C68 EQ PUSH2 0xBF JUMPI DUP1 PUSH4 0x70A08231 EQ PUSH2 0xDB JUMPI DUP1 PUSH4 0xC204642C EQ PUSH2 0x10B JUMPI JUMPDEST PUSH1 0x0 DUP1 REVERT JUMPDEST PUSH2 0x6F PUSH2 0x127 JUMP JUMPDEST PUSH1 0x40 MLOAD PUSH2 0x7C SWAP2 SWAP1 PUSH2 0x694 JUMP JUMPDEST PUSH1 0x40 MLOAD DUP1 SWAP2 SUB SWAP1 RETURN JUMPDEST PUSH2 0x8D PUSH2 0x14D JUMP JUMPDEST PUSH1 0x40 MLOAD PUSH2 0x9A SWAP2 SWAP1 PUSH2 0x70F JUMP JUMPDEST PUSH1 0x40 MLOAD DUP1 SWAP2 SUB SWAP1 RETURN JUMPDEST PUSH2 0xBD PUSH1 0x4 DUP1 CALLDATASIZE SUB DUP2 ADD SWAP1 PUSH2 0xB8 SWAP2 SWAP1 PUSH2 0x544 JUMP JUMPDEST PUSH2 0x153 JUMP JUMPDEST STOP JUMPDEST PUSH2 0xD9 PUSH1 0x4 DUP1 CALLDATASIZE SUB DUP2 ADD SWAP1 PUSH2 0xD4 SWAP2 SWAP1 PUSH2 0x5E0 JUMP JUMPDEST PUSH2 0x298 JUMP JUMPDEST STOP JUMPDEST PUSH2 0xF5 PUSH1 0x4 DUP1 CALLDATASIZE SUB DUP2 ADD SWAP1 PUSH2 0xF0 SWAP2 SWAP1 PUSH2 0x517 JUMP JUMPDEST PUSH2 0x38B JUMP JUMPDEST PUSH1 0x40 MLOAD PUSH2 0x102 SWAP2 SWAP1 PUSH2 0x70F JUMP JUMPDEST PUSH1 0x40 MLOAD DUP1 SWAP2 SUB SWAP1 RETURN JUMPDEST PUSH2 0x125 PUSH1 0x4 DUP1 CALLDATASIZE SUB DUP2 ADD SWAP1 PUSH2 0x120 SWAP2 SWAP1 PUSH2 0x584 JUMP JUMPDEST PUSH2 0x3A3 JUMP JUMPDEST STOP JUMPDEST PUSH1 0x2 PUSH1 0x0 SWAP1 SLOAD SWAP1 PUSH2 0x100 EXP SWAP1 DIV PUSH20 0xFFFFFFFFFFFFFFFFFFFFFFFFFFFFFFFFFFFFFFFF AND DUP2 JUMP JUMPDEST PUSH1 0x0 SLOAD DUP2 JUMP JUMPDEST PUSH1 0x2 PUSH1 0x0 SWAP1 SLOAD SWAP1 PUSH2 0x100 EXP SWAP1 DIV PUSH20 0xFFFFFFFFFFFFFFFFFFFFFFFFFFFFFFFFFFFFFFFF AND PUSH20 0xFFFFFFFFFFFFFFFFFFFFFFFFFFFFFFFFFFFFFFFF AND CALLER PUSH20 0xFFFFFFFFFFFFFFFFFFFFFFFFFFFFFFFFFFFFFFFF AND EQ PUSH2 0x1E3 JUMPI PUSH1 0x40 MLOAD PUSH32 0x8C379A000000000000000000000000000000000000000000000000000000000 DUP2 MSTORE PUSH1 0x4 ADD PUSH2 0x1DA SWAP1 PUSH2 0x6AF JUMP JUMPDEST PUSH1 0x40 MLOAD DUP1 SWAP2 SUB SWAP1 REVERT JUMPDEST PUSH1 0x0 DUP2 GT PUSH2 0x226 JUMPI PUSH1 0x40 MLOAD PUSH32 0x8C379A000000000000000000000000000000000000000000000000000000000 DUP2 MSTORE PUSH1 0x4 ADD PUSH2 0x21D SWAP1 PUSH2 0x6EF JUMP JUMPDEST PUSH1 0x40 MLOAD DUP1 SWAP2 SUB SWAP1 REVERT JUMPDEST DUP1 PUSH1 0x1 PUSH1 0x0 DUP5 PUSH20 0xFFFFFFFFFFFFFFFFFFFFFFFFFFFFFFFFFFFFFFFF AND PUSH20 0xFFFFFFFFFFFFFFFFFFFFFFFFFFFFFFFFFFFFFFFF AND DUP2 MSTORE PUSH1 0x20 ADD SWAP1 DUP2 MSTORE PUSH1 0x20 ADD PUSH1 0x0 KECCAK256 PUSH1 0x0 DUP3 DUP3 SLOAD PUSH2 0x275 SWAP2 SWAP1 PUSH2 0x78C JUMP JUMPDEST SWAP3 POP POP DUP2 SWAP1 SSTORE POP DUP1 PUSH1 0x0 DUP1 DUP3 DUP3 SLOAD PUSH2 0x28D SWAP2 SWAP1 PUSH2 0x78C JUMP JUMPDEST SWAP3 POP POP DUP2 SWAP1 SSTORE POP POP POP JUMP JUMPDEST DUP1 PUSH1 0x1 PUSH1 0x0 CALLER PUSH20 0xFFFFFFFFFFFFFFFFFFFFFFFFFFFFFFFFFFFFFFFF AND PUSH20 0xFFFFFFFFFFFFFFFFFFFFFFFFFFFFFFFFFFFFFFFF AND DUP2 MSTORE PUSH1 0x20 ADD SWAP1 DUP2 MSTORE PUSH1 0x20 ADD PUSH1 0x0 KECCAK256 SLOAD LT ISZERO PUSH2 0x31A JUMPI PUSH1 0x40 MLOAD PUSH32 0x8C379A000000000000000000000000000000000000000000000000000000000 DUP2 MSTORE PUSH1 0x4 ADD PUSH2 0x311 SWAP1 PUSH2 0x6CF JUMP JUMPDEST PUSH1 0x40 MLOAD DUP1 SWAP2 SUB SWAP1 REVERT JUMPDEST DUP1 PUSH1 0x1 PUSH1 0x0 CALLER PUSH20 0xFFFFFFFFFFFFFFFFFFFFFFFFFFFFFFFFFFFFFFFF AND PUSH20 0xFFFFFFFFFFFFFFFFFFFFFFFFFFFFFFFFFFFFFFFF AND DUP2 MSTORE PUSH1 0x20 ADD SWAP1 DUP2 MSTORE PUSH1 0x20 ADD PUSH1 0x0 KECCAK256 PUSH1 0x0 DUP3 DUP3 SLOAD PUSH2 0x369 SWAP2 SWAP1 PUSH2 0x7E2 JUMP JUMPDEST SWAP3 POP POP DUP2 SWAP1 SSTORE POP DUP1 PUSH1 0x0 DUP1 DUP3 DUP3 SLOAD PUSH2 0x381 SWAP2 SWAP1 PUSH2 0x7E2 JUMP JUMPDEST SWAP3 POP POP DUP2 SWAP1 SSTORE POP POP JUMP JUMPDEST PUSH1 0x1 PUSH1 0x20 MSTORE DUP1 PUSH1 0x0 MSTORE PUSH1 0x40 PUSH1 0x0 KECCAK256 PUSH1 0x0 SWAP2 POP SWAP1 POP SLOAD DUP2 JUMP JUMPDEST PUSH1 0x0 JUMPDEST DUP3 MLOAD DUP2 LT ISZERO PUSH2 0x44A JUMPI DUP2 PUSH1 0x1 PUSH1 0x0 DUP6 DUP5 DUP2 MLOAD DUP2 LT PUSH2 0x3C7 JUMPI PUSH2 0x3C6 PUSH2 0x8FB JUMP JUMPDEST JUMPDEST PUSH1 0x20 MUL PUSH1 0x20 ADD ADD MLOAD PUSH20 0xFFFFFFFFFFFFFFFFFFFFFFFFFFFFFFFFFFFFFFFF AND PUSH20 0xFFFFFFFFFFFFFFFFFFFFFFFFFFFFFFFFFFFFFFFF AND DUP2 MSTORE PUSH1 0x20 ADD SWAP1 DUP2 MSTORE PUSH1 0x20 ADD PUSH1 0x0 KECCAK256 PUSH1 0x0 DUP3 DUP3 SLOAD PUSH2 0x418 SWAP2 SWAP1 PUSH2 0x78C JUMP JUMPDEST SWAP3 POP POP DUP2 SWAP1 SSTORE POP DUP2 PUSH1 0x0 DUP1 DUP3 DUP3 SLOAD PUSH2 0x430 SWAP2 SWAP1 PUSH2 0x78C JUMP JUMPDEST SWAP3 POP POP DUP2 SWAP1 SSTORE POP DUP1 DUP1 PUSH2 0x442 SWAP1 PUSH2 0x883 JUMP JUMPDEST SWAP2 POP POP PUSH2 0x3A6 JUMP JUMPDEST POP POP POP JUMP JUMPDEST PUSH1 0x0 PUSH2 0x462 PUSH2 0x45D DUP5 PUSH2 0x74F JUMP JUMPDEST PUSH2 0x72A JUMP JUMPDEST SWAP1 POP DUP1 DUP4 DUP3 MSTORE PUSH1 0x20 DUP3 ADD SWAP1 POP DUP3 DUP6 PUSH1 0x20 DUP7 MUL DUP3 ADD GT ISZERO PUSH2 0x485 JUMPI PUSH2 0x484 PUSH2 0x95E JUMP JUMPDEST JUMPDEST PUSH1 0x0 JUMPDEST DUP6 DUP2 LT ISZERO PUSH2 0x4B5 JUMPI DUP2 PUSH2 0x49B DUP9 DUP3 PUSH2 0x4BF JUMP JUMPDEST DUP5 MSTORE PUSH1 0x20 DUP5 ADD SWAP4 POP PUSH1 0x20 DUP4 ADD SWAP3 POP POP PUSH1 0x1 DUP2 ADD SWAP1 POP PUSH2 0x488 JUMP JUMPDEST POP POP POP SWAP4 SWAP3 POP POP POP JUMP JUMPDEST PUSH1 0x0 DUP2 CALLDATALOAD SWAP1 POP PUSH2 0x4CE DUP2 PUSH2 0x9F9 JUMP JUMPDEST SWAP3 SWAP2 POP POP JUMP JUMPDEST PUSH1 0x0 DUP3 PUSH1 0x1F DUP4 ADD SLT PUSH2 0x4E9 JUMPI PUSH2 0x4E8 PUSH2 0x959 JUMP JUMPDEST JUMPDEST DUP2 CALLDATALOAD PUSH2 0x4F9 DUP5 DUP3 PUSH1 0x20 DUP7 ADD PUSH2 0x44F JUMP JUMPDEST SWAP2 POP POP SWAP3 SWAP2 POP POP JUMP JUMPDEST PUSH1 0x0 DUP2 CALLDATALOAD SWAP1 POP PUSH2 0x511 DUP2 PUSH2 0xA10 JUMP JUMPDEST SWAP3 SWAP2 POP POP JUMP JUMPDEST PUSH1 0x0 PUSH1 0x20 DUP3 DUP5 SUB SLT ISZERO PUSH2 0x52D JUMPI PUSH2 0x52C PUSH2 0x968 JUMP JUMPDEST JUMPDEST PUSH1 0x0 PUSH2 0x53B DUP5 DUP3 DUP6 ADD PUSH2 0x4BF JUMP JUMPDEST SWAP2 POP POP SWAP3 SWAP2 POP POP JUMP JUMPDEST PUSH1 0x0 DUP1 PUSH1 0x40 DUP4 DUP6 SUB SLT ISZERO PUSH2 0x55B JUMPI PUSH2 0x55A PUSH2 0x968 JUMP JUMPDEST JUMPDEST PUSH1 0x0 PUSH2 0x569 DUP6 DUP3 DUP7 ADD PUSH2 0x4BF JUMP JUMPDEST SWAP3 POP POP PUSH1 0x20 PUSH2 0x57A DUP6 DUP3 DUP7 ADD PUSH2 0x502 JUMP JUMPDEST SWAP2 POP POP SWAP3 POP SWAP3 SWAP1 POP JUMP JUMPDEST PUSH1 0x0 DUP1 PUSH1 0x40 DUP4 DUP6 SUB SLT ISZERO PUSH2 0x59B JUMPI PUSH2 0x59A PUSH2 0x968 JUMP JUMPDEST JUMPDEST PUSH1 0x0 DUP4 ADD CALLDATALOAD PUSH8 0xFFFFFFFFFFFFFFFF DUP2 GT ISZERO PUSH2 0x5B9 JUMPI PUSH2 0x5B8 PUSH2 0x963 JUMP JUMPDEST JUMPDEST PUSH2 0x5C5 DUP6 DUP3 DUP7 ADD PUSH2 0x4D4 JUMP JUMPDEST SWAP3 POP POP PUSH1 0x20 PUSH2 0x5D6 DUP6 DUP3 DUP7 ADD PUSH2 0x502 JUMP JUMPDEST SWAP2 POP POP SWAP3 POP SWAP3 SWAP1 POP JUMP JUMPDEST PUSH1 0x0 PUSH1 0x20 DUP3 DUP5 SUB SLT ISZERO PUSH2 0x5F6 JUMPI PUSH2 0x5F5 PUSH2 0x968 JUMP JUMPDEST JUMPDEST PUSH1 0x0 PUSH2 0x604 DUP5 DUP3 DUP6 ADD PUSH2 0x502 JUMP JUMPDEST SWAP2 POP POP SWAP3 SWAP2 POP POP JUMP JUMPDEST PUSH2 0x616 DUP2 PUSH2 0x816 JUMP JUMPDEST DUP3 MSTORE POP POP JUMP JUMPDEST PUSH1 0x0 PUSH2 0x629 PUSH1 0x14 DUP4 PUSH2 0x77B JUMP JUMPDEST SWAP2 POP PUSH2 0x634 DUP3 PUSH2 0x97E JUMP JUMPDEST PUSH1 0x20 DUP3 ADD SWAP1 POP SWAP2 SWAP1 POP JUMP JUMPDEST PUSH1 0x0 PUSH2 0x64C PUSH1 0x12 DUP4 PUSH2 0x77B JUMP JUMPDEST SWAP2 POP PUSH2 0x657 DUP3 PUSH2 0x9A7 JUMP JUMPDEST PUSH1 0x20 DUP3 ADD SWAP1 POP SWAP2 SWAP1 POP JUMP JUMPDEST PUSH1 0x0 PUSH2 0x66F PUSH1 0xD DUP4 PUSH2 0x77B JUMP JUMPDEST SWAP2 POP PUSH2 0x67A DUP3 PUSH2 0x9D0 JUMP JUMPDEST PUSH1 0x20 DUP3 ADD SWAP1 POP SWAP2 SWAP1 POP JUMP JUMPDEST PUSH2 0x68E DUP2 PUSH2 0x848 JUMP JUMPDEST DUP3 MSTORE POP POP JUMP JUMPDEST PUSH1 0x0 PUSH1 0x20 DUP3 ADD SWAP1 POP PUSH2 0x6A9 PUSH1 0x0 DUP4 ADD DUP5 PUSH2 0x60D JUMP JUMPDEST SWAP3 SWAP2 POP POP JUMP JUMPDEST PUSH1 0x0 PUSH1 0x20 DUP3 ADD SWAP1 POP DUP2 DUP2 SUB PUSH1 0x0 DUP4 ADD MSTORE PUSH2 0x6C8 DUP2 PUSH2 0x61C JUMP JUMPDEST SWAP1 POP SWAP2 SWAP1 POP JUMP JUMPDEST PUSH1 0x0 PUSH1 0x20 DUP3 ADD SWAP1 POP DUP2 DUP2 SUB PUSH1 0x0 DUP4 ADD MSTORE PUSH2 0x6E8 DUP2 PUSH2 0x63F JUMP JUMPDEST SWAP1 POP SWAP2 SWAP1 POP JUMP JUMPDEST PUSH1 0x0 PUSH1 0x20 DUP3 ADD SWAP1 POP DUP2 DUP2 SUB PUSH1 0x0 DUP4 ADD MSTORE PUSH2 0x708 DUP2 PUSH2 0x662 JUMP JUMPDEST SWAP1 POP SWAP2 SWAP1 POP JUMP JUMPDEST PUSH1 0x0 PUSH1 0x20 DUP3 ADD SWAP1 POP PUSH2 0x724 PUSH1 0x0 DUP4 ADD DUP5 PUSH2 0x685 JUMP JUMPDEST SWAP3 SWAP2 POP POP JUMP JUMPDEST PUSH1 0x0 PUSH2 0x734 PUSH2 0x745 JUMP JUMPDEST SWAP1 POP PUSH2 0x740 DUP3 DUP3 PUSH2 0x852 JUMP JUMPDEST SWAP2 SWAP1 POP JUMP JUMPDEST PUSH1 0x0 PUSH1 0x40 MLOAD SWAP1 POP SWAP1 JUMP JUMPDEST PUSH1 0x0 PUSH8 0xFFFFFFFFFFFFFFFF DUP3 GT ISZERO PUSH2 0x76A JUMPI PUSH2 0x769 PUSH2 0x92A JUMP JUMPDEST JUMPDEST PUSH1 0x20 DUP3 MUL SWAP1 POP PUSH1 0x20 DUP2 ADD SWAP1 POP SWAP2 SWAP1 POP JUMP JUMPDEST PUSH1 0x0 DUP3 DUP3 MSTORE PUSH1 0x20 DUP3 ADD SWAP1 POP SWAP3 SWAP2 POP POP JUMP JUMPDEST PUSH1 0x0 PUSH2 0x797 DUP3 PUSH2 0x848 JUMP JUMPDEST SWAP2 POP PUSH2 0x7A2 DUP4 PUSH2 0x848 JUMP JUMPDEST SWAP3 POP DUP3 PUSH32 0xFFFFFFFFFFFFFFFFFFFFFFFFFFFFFFFFFFFFFFFFFFFFFFFFFFFFFFFFFFFFFFFF SUB DUP3 GT ISZERO PUSH2 0x7D7 JUMPI PUSH2 0x7D6 PUSH2 0x8CC JUMP JUMPDEST JUMPDEST DUP3 DUP3 ADD SWAP1 POP SWAP3 SWAP2 POP POP JUMP JUMPDEST PUSH1 0x0 PUSH2 0x7ED DUP3 PUSH2 0x848 JUMP JUMPDEST SWAP2 POP PUSH2 0x7F8 DUP4 PUSH2 0x848 JUMP JUMPDEST SWAP3 POP DUP3 DUP3 LT ISZERO PUSH2 0x80B JUMPI PUSH2 0x80A PUSH2 0x8CC JUMP JUMPDEST JUMPDEST DUP3 DUP3 SUB SWAP1 POP SWAP3 SWAP2 POP POP JUMP JUMPDEST PUSH1 0x0 PUSH2 0x821 DUP3 PUSH2 0x828 JUMP JUMPDEST SWAP1 POP SWAP2 SWAP1 POP JUMP JUMPDEST PUSH1 0x0 PUSH20 0xFFFFFFFFFFFFFFFFFFFFFFFFFFFFFFFFFFFFFFFF DUP3 AND SWAP1 POP SWAP2 SWAP1 POP JUMP JUMPDEST PUSH1 0x0 DUP2 SWAP1 POP SWAP2 SWAP1 POP JUMP JUMPDEST PUSH2 0x85B DUP3 PUSH2 0x96D JUMP JUMPDEST DUP2 ADD DUP2 DUP2 LT PUSH8 0xFFFFFFFFFFFFFFFF DUP3 GT OR ISZERO PUSH2 0x87A JUMPI PUSH2 0x879 PUSH2 0x92A JUMP JUMPDEST JUMPDEST DUP1 PUSH1 0x40 MSTORE POP POP POP JUMP JUMPDEST PUSH1 0x0 PUSH2 0x88E DUP3 PUSH2 0x848 JUMP JUMPDEST SWAP2 POP PUSH32 0xFFFFFFFFFFFFFFFFFFFFFFFFFFFFFFFFFFFFFFFFFFFFFFFFFFFFFFFFFFFFFFFF DUP3 EQ ISZERO PUSH2 0x8C1 JUMPI PUSH2 0x8C0 PUSH2 0x8CC JUMP JUMPDEST JUMPDEST PUSH1 0x1 DUP3 ADD SWAP1 POP SWAP2 SWAP1 POP JUMP JUMPDEST PUSH32 0x4E487B7100000000000000000000000000000000000000000000000000000000 PUSH1 0x0 MSTORE PUSH1 0x11 PUSH1 0x4 MSTORE PUSH1 0x24 PUSH1 0x0 REVERT JUMPDEST PUSH32 0x4E487B7100000000000000000000000000000000000000000000000000000000 PUSH1 0x0 MSTORE PUSH1 0x32 PUSH1 0x4 MSTORE PUSH1 0x24 PUSH1 0x0 REVERT JUMPDEST PUSH32 0x4E487B7100000000000000000000000000000000000000000000000000000000 PUSH1 0x0 MSTORE PUSH1 0x41 PUSH1 0x4 MSTORE PUSH1 0x24 PUSH1 0x0 REVERT JUMPDEST PUSH1 0x0 DUP1 REVERT JUMPDEST PUSH1 0x0 DUP1 REVERT JUMPDEST PUSH1 0x0 DUP1 REVERT JUMPDEST PUSH1 0x0 DUP1 REVERT JUMPDEST PUSH1 0x0 PUSH1 0x1F NOT PUSH1 0x1F DUP4 ADD AND SWAP1 POP SWAP2 SWAP1 POP JUMP JUMPDEST PUSH32 0x4F6E6C79206D696E7465722063616E206D696E74000000000000000000000000 PUSH1 0x0 DUP3 ADD MSTORE POP JUMP JUMPDEST PUSH32 0x4E6F7420656E6F7567682062616C616E63650000000000000000000000000000 PUSH1 0x0 DUP3 ADD MSTORE POP JUMP JUMPDEST PUSH32 0x496E76616C69642076616C756500000000000000000000000000000000000000 PUSH1 0x0 DUP3 ADD MSTORE POP JUMP JUMPDEST PUSH2 0xA02 DUP2 PUSH2 0x816 JUMP JUMPDEST DUP2 EQ PUSH2 0xA0D JUMPI PUSH1 0x0 DUP1 REVERT JUMPDEST POP JUMP JUMPDEST PUSH2 0xA19 DUP2 PUSH2 0x848 JUMP JUMPDEST DUP2 EQ PUSH2 0xA24 JUMPI PUSH1 0x0 DUP1 REVERT JUMPDEST POP JUMP INVALID LOG2 PUSH5 0x6970667358 0x22 SLT KECCAK256 0xC7 GASLIMIT DUP3 JUMP 0xDF 0xC5 PUSH6 0xC25A59776806 LOG2 0xC7 OR PUSH29 0xD44EFDDC8C8BBACA33F1677DE0553564736F6C63430008070033000000 "
				},
				"gasEstimates": {
					"creation": {
						"codeDepositCost": "530600",
						"executionCost": "infinite",
						"totalCost": "infinite"
					},
					"external": {
						"airdrop(address[],uint256)": "infinite",
						"balanceOf(address)": "2880",
						"burn(uint256)": "infinite",
						"mint(address,uint256)": "infinite",
						"minter()": "2492",
						"totalSupply()": "2429"
					}
				},
				"methodIdentifiers": {
					"airdrop(address[],uint256)": "c204642c",
					"balanceOf(address)": "70a08231",
					"burn(uint256)": "42966c68",
					"mint(address,uint256)": "40c10f19",
					"minter()": "07546172",
					"totalSupply()": "18160ddd"
				}
			},
			"storageLayout": {
				"storage": [
					{
						"astId": 3,
						"contract": "contracts/2_Owner.sol:DNGToken",
						"label": "totalSupply",
						"offset": 0,
						"slot": "0",
						"type": "t_uint256"
					},
					{
						"astId": 7,
						"contract": "contracts/2_Owner.sol:DNGToken",
						"label": "balanceOf",
						"offset": 0,
						"slot": "1",
						"type": "t_mapping(t_address,t_uint256)"
					},
					{
						"astId": 9,
						"contract": "contracts/2_Owner.sol:DNGToken",
						"label": "minter",
						"offset": 0,
						"slot": "2",
						"type": "t_address"
					}
				],
				"types": {
					"t_address": {
						"encoding": "inplace",
						"label": "address",
						"numberOfBytes": "20"
					},
					"t_mapping(t_address,t_uint256)": {
						"encoding": "mapping",
						"key": "t_address",
						"label": "mapping(address => uint256)",
						"numberOfBytes": "32",
						"value": "t_uint256"
					},
					"t_uint256": {
						"encoding": "inplace",
						"label": "uint256",
						"numberOfBytes": "32"
					}
				}
			},
			"userdoc": {
				"kind": "user",
				"methods": {},
				"version": 1
			}
		}
	}
}