{
	"data": {
		"bytecode": {
			"linkReferences": {},
			"object": "608060405234801561001057600080fd5b50610d6e806100206000396000f3fe608060405234801561001057600080fd5b50600436106100415760003560e01c8063463f7a8914610046578063628cbee61461007d5780636f77926b14610099575b600080fd5b610060600480360381019061005b9190610779565b6100ca565b6040516100749897969594939291906109d3565b60405180910390f35b610097600480360381019061009291906107a6565b610391565b005b6100b360048036038101906100ae919061074c565b610498565b6040516100c1929190610a74565b60405180910390f35b60608060606000806060806000806000808b815260200190815260200160002090508060000180546100fb90610c08565b80601f016020809104026020016040519081016040528092919081815260200182805461012790610c08565b80156101745780601f1061014957610100808354040283529160200191610174565b820191906000526020600020905b81548152906001019060200180831161015757829003601f168201915b5050505050985080600101805461018a90610c08565b80601f01602080910402602001604051908101604052809291908181526020018280546101b690610c08565b80156102035780601f106101d857610100808354040283529160200191610203565b820191906000526020600020905b8154815290600101906020018083116101e657829003601f168201915b5050505050975080600201805461021990610c08565b80601f016020809104026020016040519081016040528092919081815260200182805461024590610c08565b80156102925780601f1061026757610100808354040283529160200191610292565b820191906000526020600020905b81548152906001019060200180831161027557829003601f168201915b50505050509650806003015495508060040160009054906101000a900473ffffffffffffffffffffffffffffffffffffffff1694508060050180548060200260200160405190810160405280929190818152602001828054801561031557602002820191906000526020600020905b815481526020019060010190808311610301575b505050505093508060060180548060200260200160405190810160405280929190818152602001828054801561036a57602002820191906000526020600020905b815481526020019060010190808311610356575b505050505092508060070160009054906101000a900460ff16915050919395975091939597565b60008060008a81526020019081526020016000209050878160000190805190602001906103bf9291906104f2565b50868160010190805190602001906103d89291906104f2565b50858160020190805190602001906103f19291906104f2565b50848160030181905550838160040160006101000a81548173ffffffffffffffffffffffffffffffffffffffff021916908373ffffffffffffffffffffffffffffffffffffffff16021790555082816005019080519060200190610456929190610578565b508181600601908051906020019061046f929190610578565b5060008160070160006101000a81548160ff021916908315150217905550505050505050505050565b6000806000600160008573ffffffffffffffffffffffffffffffffffffffff1673ffffffffffffffffffffffffffffffffffffffff1681526020019081526020016000209050806000015492508060010154915050915091565b8280546104fe90610c08565b90600052602060002090601f0160209004810192826105205760008555610567565b82601f1061053957805160ff1916838001178555610567565b82800160010185558215610567579182015b8281111561056657825182559160200191906001019061054b565b5b50905061057491906105c5565b5090565b8280548282559060005260206000209081019282156105b4579160200282015b828111156105b3578251825591602001919060010190610598565b5b5090506105c191906105e2565b5090565b5b808211156105de5760008160009055506001016105c6565b5090565b5b808211156105fb5760008160009055506001016105e3565b5090565b600061061261060d84610ac2565b610a9d565b9050808382526020820190508285602086028201111561063557610634610cce565b5b60005b85811015610665578161064b88826106f4565b845260208401935060208301925050600181019050610638565b5050509392505050565b600061068261067d84610aee565b610a9d565b90508281526020810184848401111561069e5761069d610cd3565b5b6106a9848285610bc6565b509392505050565b6000813590506106c081610cf3565b92915050565b600082601f8301126106db576106da610cc9565b5b81356106eb8482602086016105ff565b91505092915050565b60008135905061070381610d0a565b92915050565b600082601f83011261071e5761071d610cc9565b5b813561072e84826020860161066f565b91505092915050565b60008135905061074681610d21565b92915050565b60006020828403121561076257610761610cdd565b5b6000610770848285016106b1565b91505092915050565b60006020828403121561078f5761078e610cdd565b5b600061079d848285016106f4565b91505092915050565b600080600080600080600080610100898b0312156107c7576107c6610cdd565b5b60006107d58b828c016106f4565b985050602089013567ffffffffffffffff8111156107f6576107f5610cd8565b5b6108028b828c01610709565b975050604089013567ffffffffffffffff81111561082357610822610cd8565b5b61082f8b828c01610709565b965050606089013567ffffffffffffffff8111156108505761084f610cd8565b5b61085c8b828c01610709565b955050608061086d8b828c01610737565b94505060a061087e8b828c016106b1565b93505060c089013567ffffffffffffffff81111561089f5761089e610cd8565b5b6108ab8b828c016106c6565b92505060e089013567ffffffffffffffff8111156108cc576108cb610cd8565b5b6108d88b828c016106c6565b9150509295985092959890939650565b60006108f4838361097c565b60208301905092915050565b61090981610b74565b82525050565b600061091a82610b2f565b6109248185610b52565b935061092f83610b1f565b8060005b8381101561096057815161094788826108e8565b975061095283610b45565b925050600181019050610933565b5085935050505092915050565b61097681610b86565b82525050565b61098581610b92565b82525050565b600061099682610b3a565b6109a08185610b63565b93506109b0818560208601610bd5565b6109b981610ce2565b840191505092915050565b6109cd81610bbc565b82525050565b60006101008201905081810360008301526109ee818b61098b565b90508181036020830152610a02818a61098b565b90508181036040830152610a16818961098b565b9050610a2560608301886109c4565b610a326080830187610900565b81810360a0830152610a44818661090f565b905081810360c0830152610a58818561090f565b9050610a6760e083018461096d565b9998505050505050505050565b6000604082019050610a8960008301856109c4565b610a9660208301846109c4565b9392505050565b6000610aa7610ab8565b9050610ab38282610c3a565b919050565b6000604051905090565b600067ffffffffffffffff821115610add57610adc610c9a565b5b602082029050602081019050919050565b600067ffffffffffffffff821115610b0957610b08610c9a565b5b610b1282610ce2565b9050602081019050919050565b6000819050602082019050919050565b600081519050919050565b600081519050919050565b6000602082019050919050565b600082825260208201905092915050565b600082825260208201905092915050565b6000610b7f82610b9c565b9050919050565b60008115159050919050565b6000819050919050565b600073ffffffffffffffffffffffffffffffffffffffff82169050919050565b6000819050919050565b82818337600083830152505050565b60005b83811015610bf3578082015181840152602081019050610bd8565b83811115610c02576000848401525b50505050565b60006002820490506001821680610c2057607f821691505b60208210811415610c3457610c33610c6b565b5b50919050565b610c4382610ce2565b810181811067ffffffffffffffff82111715610c6257610c61610c9a565b5b80604052505050565b7f4e487b7100000000000000000000000000000000000000000000000000000000600052602260045260246000fd5b7f4e487b7100000000000000000000000000000000000000000000000000000000600052604160045260246000fd5b600080fd5b600080fd5b600080fd5b600080fd5b600080fd5b6000601f19601f8301169050919050565b610cfc81610b74565b8114610d0757600080fd5b50565b610d1381610b92565b8114610d1e57600080fd5b50565b610d2a81610bbc565b8114610d3557600080fd5b5056fea2646970667358221220ba74c4549cc915b5c884e8a8e2f3c85727b748cb2e9cbb204aabd3a1027bc51a64736f6c63430008070033",
			"opcodes": "PUSH1 0x80 PUSH1 0x40 MSTORE CALLVALUE DUP1 ISZERO PUSH2 0x10 JUMPI PUSH1 0x0 DUP1 REVERT JUMPDEST POP PUSH2 0xD6E DUP1 PUSH2 0x20 PUSH1 0x0 CODECOPY PUSH1 0x0 RETURN INVALID PUSH1 0x80 PUSH1 0x40 MSTORE CALLVALUE DUP1 ISZERO PUSH2 0x10 JUMPI PUSH1 0x0 DUP1 REVERT JUMPDEST POP PUSH1 0x4 CALLDATASIZE LT PUSH2 0x41 JUMPI PUSH1 0x0 CALLDATALOAD PUSH1 0xE0 SHR DUP1 PUSH4 0x463F7A89 EQ PUSH2 0x46 JUMPI DUP1 PUSH4 0x628CBEE6 EQ PUSH2 0x7D JUMPI DUP1 PUSH4 0x6F77926B EQ PUSH2 0x99 JUMPI JUMPDEST PUSH1 0x0 DUP1 REVERT JUMPDEST PUSH2 0x60 PUSH1 0x4 DUP1 CALLDATASIZE SUB DUP2 ADD SWAP1 PUSH2 0x5B SWAP2 SWAP1 PUSH2 0x779 JUMP JUMPDEST PUSH2 0xCA JUMP JUMPDEST PUSH1 0x40 MLOAD PUSH2 0x74 SWAP9 SWAP8 SWAP7 SWAP6 SWAP5 SWAP4 SWAP3 SWAP2 SWAP1 PUSH2 0x9D3 JUMP JUMPDEST PUSH1 0x40 MLOAD DUP1 SWAP2 SUB SWAP1 RETURN JUMPDEST PUSH2 0x97 PUSH1 0x4 DUP1 CALLDATASIZE SUB DUP2 ADD SWAP1 PUSH2 0x92 SWAP2 SWAP1 PUSH2 0x7A6 JUMP JUMPDEST PUSH2 0x391 JUMP JUMPDEST STOP JUMPDEST PUSH2 0xB3 PUSH1 0x4 DUP1 CALLDATASIZE SUB DUP2 ADD SWAP1 PUSH2 0xAE SWAP2 SWAP1 PUSH2 0x74C JUMP JUMPDEST PUSH2 0x498 JUMP JUMPDEST PUSH1 0x40 MLOAD PUSH2 0xC1 SWAP3 SWAP2 SWAP1 PUSH2 0xA74 JUMP JUMPDEST PUSH1 0x40 MLOAD DUP1 SWAP2 SUB SWAP1 RETURN JUMPDEST PUSH1 0x60 DUP1 PUSH1 0x60 PUSH1 0x0 DUP1 PUSH1 0x60 DUP1 PUSH1 0x0 DUP1 PUSH1 0x0 DUP1 DUP12 DUP2 MSTORE PUSH1 0x20 ADD SWAP1 DUP2 MSTORE PUSH1 0x20 ADD PUSH1 0x0 KECCAK256 SWAP1 POP DUP1 PUSH1 0x0 ADD DUP1 SLOAD PUSH2 0xFB SWAP1 PUSH2 0xC08 JUMP JUMPDEST DUP1 PUSH1 0x1F ADD PUSH1 0x20 DUP1 SWAP2 DIV MUL PUSH1 0x20 ADD PUSH1 0x40 MLOAD SWAP1 DUP2 ADD PUSH1 0x40 MSTORE DUP1 SWAP3 SWAP2 SWAP1 DUP2 DUP2 MSTORE PUSH1 0x20 ADD DUP3 DUP1 SLOAD PUSH2 0x127 SWAP1 PUSH2 0xC08 JUMP JUMPDEST DUP1 ISZERO PUSH2 0x174 JUMPI DUP1 PUSH1 0x1F LT PUSH2 0x149 JUMPI PUSH2 0x100 DUP1 DUP4 SLOAD DIV MUL DUP4 MSTORE SWAP2 PUSH1 0x20 ADD SWAP2 PUSH2 0x174 JUMP JUMPDEST DUP3 ADD SWAP2 SWAP1 PUSH1 0x0 MSTORE PUSH1 0x20 PUSH1 0x0 KECCAK256 SWAP1 JUMPDEST DUP2 SLOAD DUP2 MSTORE SWAP1 PUSH1 0x1 ADD SWAP1 PUSH1 0x20 ADD DUP1 DUP4 GT PUSH2 0x157 JUMPI DUP3 SWAP1 SUB PUSH1 0x1F AND DUP3 ADD SWAP2 JUMPDEST POP POP POP POP POP SWAP9 POP DUP1 PUSH1 0x1 ADD DUP1 SLOAD PUSH2 0x18A SWAP1 PUSH2 0xC08 JUMP JUMPDEST DUP1 PUSH1 0x1F ADD PUSH1 0x20 DUP1 SWAP2 DIV MUL PUSH1 0x20 ADD PUSH1 0x40 MLOAD SWAP1 DUP2 ADD PUSH1 0x40 MSTORE DUP1 SWAP3 SWAP2 SWAP1 DUP2 DUP2 MSTORE PUSH1 0x20 ADD DUP3 DUP1 SLOAD PUSH2 0x1B6 SWAP1 PUSH2 0xC08 JUMP JUMPDEST DUP1 ISZERO PUSH2 0x203 JUMPI DUP1 PUSH1 0x1F LT PUSH2 0x1D8 JUMPI PUSH2 0x100 DUP1 DUP4 SLOAD DIV MUL DUP4 MSTORE SWAP2 PUSH1 0x20 ADD SWAP2 PUSH2 0x203 JUMP JUMPDEST DUP3 ADD SWAP2 SWAP1 PUSH1 0x0 MSTORE PUSH1 0x20 PUSH1 0x0 KECCAK256 SWAP1 JUMPDEST DUP2 SLOAD DUP2 MSTORE SWAP1 PUSH1 0x1 ADD SWAP1 PUSH1 0x20 ADD DUP1 DUP4 GT PUSH2 0x1E6 JUMPI DUP3 SWAP1 SUB PUSH1 0x1F AND DUP3 ADD SWAP2 JUMPDEST POP POP POP POP POP SWAP8 POP DUP1 PUSH1 0x2 ADD DUP1 SLOAD PUSH2 0x219 SWAP1 PUSH2 0xC08 JUMP JUMPDEST DUP1 PUSH1 0x1F ADD PUSH1 0x20 DUP1 SWAP2 DIV MUL PUSH1 0x20 ADD PUSH1 0x40 MLOAD SWAP1 DUP2 ADD PUSH1 0x40 MSTORE DUP1 SWAP3 SWAP2 SWAP1 DUP2 DUP2 MSTORE PUSH1 0x20 ADD DUP3 DUP1 SLOAD PUSH2 0x245 SWAP1 PUSH2 0xC08 JUMP JUMPDEST DUP1 ISZERO PUSH2 0x292 JUMPI DUP1 PUSH1 0x1F LT PUSH2 0x267 JUMPI PUSH2 0x100 DUP1 DUP4 SLOAD DIV MUL DUP4 MSTORE SWAP2 PUSH1 0x20 ADD SWAP2 PUSH2 0x292 JUMP JUMPDEST DUP3 ADD SWAP2 SWAP1 PUSH1 0x0 MSTORE PUSH1 0x20 PUSH1 0x0 KECCAK256 SWAP1 JUMPDEST DUP2 SLOAD DUP2 MSTORE SWAP1 PUSH1 0x1 ADD SWAP1 PUSH1 0x20 ADD DUP1 DUP4 GT PUSH2 0x275 JUMPI DUP3 SWAP1 SUB PUSH1 0x1F AND DUP3 ADD SWAP2 JUMPDEST POP POP POP POP POP SWAP7 POP DUP1 PUSH1 0x3 ADD SLOAD SWAP6 POP DUP1 PUSH1 0x4 ADD PUSH1 0x0 SWAP1 SLOAD SWAP1 PUSH2 0x100 EXP SWAP1 DIV PUSH20 0xFFFFFFFFFFFFFFFFFFFFFFFFFFFFFFFFFFFFFFFF AND SWAP5 POP DUP1 PUSH1 0x5 ADD DUP1 SLOAD DUP1 PUSH1 0x20 MUL PUSH1 0x20 ADD PUSH1 0x40 MLOAD SWAP1 DUP2 ADD PUSH1 0x40 MSTORE DUP1 SWAP3 SWAP2 SWAP1 DUP2 DUP2 MSTORE PUSH1 0x20 ADD DUP3 DUP1 SLOAD DUP1 ISZERO PUSH2 0x315 JUMPI PUSH1 0x20 MUL DUP3 ADD SWAP2 SWAP1 PUSH1 0x0 MSTORE PUSH1 0x20 PUSH1 0x0 KECCAK256 SWAP1 JUMPDEST DUP2 SLOAD DUP2 MSTORE PUSH1 0x20 ADD SWAP1 PUSH1 0x1 ADD SWAP1 DUP1 DUP4 GT PUSH2 0x301 JUMPI JUMPDEST POP POP POP POP POP SWAP4 POP DUP1 PUSH1 0x6 ADD DUP1 SLOAD DUP1 PUSH1 0x20 MUL PUSH1 0x20 ADD PUSH1 0x40 MLOAD SWAP1 DUP2 ADD PUSH1 0x40 MSTORE DUP1 SWAP3 SWAP2 SWAP1 DUP2 DUP2 MSTORE PUSH1 0x20 ADD DUP3 DUP1 SLOAD DUP1 ISZERO PUSH2 0x36A JUMPI PUSH1 0x20 MUL DUP3 ADD SWAP2 SWAP1 PUSH1 0x0 MSTORE PUSH1 0x20 PUSH1 0x0 KECCAK256 SWAP1 JUMPDEST DUP2 SLOAD DUP2 MSTORE PUSH1 0x20 ADD SWAP1 PUSH1 0x1 ADD SWAP1 DUP1 DUP4 GT PUSH2 0x356 JUMPI JUMPDEST POP POP POP POP POP SWAP3 POP DUP1 PUSH1 0x7 ADD PUSH1 0x0 SWAP1 SLOAD SWAP1 PUSH2 0x100 EXP SWAP1 DIV PUSH1 0xFF AND SWAP2 POP POP SWAP2 SWAP4 SWAP6 SWAP8 POP SWAP2 SWAP4 SWAP6 SWAP8 JUMP JUMPDEST PUSH1 0x0 DUP1 PUSH1 0x0 DUP11 DUP2 MSTORE PUSH1 0x20 ADD SWAP1 DUP2 MSTORE PUSH1 0x20 ADD PUSH1 0x0 KECCAK256 SWAP1 POP DUP8 DUP2 PUSH1 0x0 ADD SWAP1 DUP1 MLOAD SWAP1 PUSH1 0x20 ADD SWAP1 PUSH2 0x3BF SWAP3 SWAP2 SWAP1 PUSH2 0x4F2 JUMP JUMPDEST POP DUP7 DUP2 PUSH1 0x1 ADD SWAP1 DUP1 MLOAD SWAP1 PUSH1 0x20 ADD SWAP1 PUSH2 0x3D8 SWAP3 SWAP2 SWAP1 PUSH2 0x4F2 JUMP JUMPDEST POP DUP6 DUP2 PUSH1 0x2 ADD SWAP1 DUP1 MLOAD SWAP1 PUSH1 0x20 ADD SWAP1 PUSH2 0x3F1 SWAP3 SWAP2 SWAP1 PUSH2 0x4F2 JUMP JUMPDEST POP DUP5 DUP2 PUSH1 0x3 ADD DUP2 SWAP1 SSTORE POP DUP4 DUP2 PUSH1 0x4 ADD PUSH1 0x0 PUSH2 0x100 EXP DUP2 SLOAD DUP2 PUSH20 0xFFFFFFFFFFFFFFFFFFFFFFFFFFFFFFFFFFFFFFFF MUL NOT AND SWAP1 DUP4 PUSH20 0xFFFFFFFFFFFFFFFFFFFFFFFFFFFFFFFFFFFFFFFF AND MUL OR SWAP1 SSTORE POP DUP3 DUP2 PUSH1 0x5 ADD SWAP1 DUP1 MLOAD SWAP1 PUSH1 0x20 ADD SWAP1 PUSH2 0x456 SWAP3 SWAP2 SWAP1 PUSH2 0x578 JUMP JUMPDEST POP DUP2 DUP2 PUSH1 0x6 ADD SWAP1 DUP1 MLOAD SWAP1 PUSH1 0x20 ADD SWAP1 PUSH2 0x46F SWAP3 SWAP2 SWAP1 PUSH2 0x578 JUMP JUMPDEST POP PUSH1 0x0 DUP2 PUSH1 0x7 ADD PUSH1 0x0 PUSH2 0x100 EXP DUP2 SLOAD DUP2 PUSH1 0xFF MUL NOT AND SWAP1 DUP4 ISZERO ISZERO MUL OR SWAP1 SSTORE POP POP POP POP POP POP POP POP POP POP JUMP JUMPDEST PUSH1 0x0 DUP1 PUSH1 0x0 PUSH1 0x1 PUSH1 0x0 DUP6 PUSH20 0xFFFFFFFFFFFFFFFFFFFFFFFFFFFFFFFFFFFFFFFF AND PUSH20 0xFFFFFFFFFFFFFFFFFFFFFFFFFFFFFFFFFFFFFFFF AND DUP2 MSTORE PUSH1 0x20 ADD SWAP1 DUP2 MSTORE PUSH1 0x20 ADD PUSH1 0x0 KECCAK256 SWAP1 POP DUP1 PUSH1 0x0 ADD SLOAD SWAP3 POP DUP1 PUSH1 0x1 ADD SLOAD SWAP2 POP POP SWAP2 POP SWAP2 JUMP JUMPDEST DUP3 DUP1 SLOAD PUSH2 0x4FE SWAP1 PUSH2 0xC08 JUMP JUMPDEST SWAP1 PUSH1 0x0 MSTORE PUSH1 0x20 PUSH1 0x0 KECCAK256 SWAP1 PUSH1 0x1F ADD PUSH1 0x20 SWAP1 DIV DUP2 ADD SWAP3 DUP3 PUSH2 0x520 JUMPI PUSH1 0x0 DUP6 SSTORE PUSH2 0x567 JUMP JUMPDEST DUP3 PUSH1 0x1F LT PUSH2 0x539 JUMPI DUP1 MLOAD PUSH1 0xFF NOT AND DUP4 DUP1 ADD OR DUP6 SSTORE PUSH2 0x567 JUMP JUMPDEST DUP3 DUP1 ADD PUSH1 0x1 ADD DUP6 SSTORE DUP3 ISZERO PUSH2 0x567 JUMPI SWAP2 DUP3 ADD JUMPDEST DUP3 DUP2 GT ISZERO PUSH2 0x566 JUMPI DUP3 MLOAD DUP3 SSTORE SWAP2 PUSH1 0x20 ADD SWAP2 SWAP1 PUSH1 0x1 ADD SWAP1 PUSH2 0x54B JUMP JUMPDEST JUMPDEST POP SWAP1 POP PUSH2 0x574 SWAP2 SWAP1 PUSH2 0x5C5 JUMP JUMPDEST POP SWAP1 JUMP JUMPDEST DUP3 DUP1 SLOAD DUP3 DUP3 SSTORE SWAP1 PUSH1 0x0 MSTORE PUSH1 0x20 PUSH1 0x0 KECCAK256 SWAP1 DUP2 ADD SWAP3 DUP3 ISZERO PUSH2 0x5B4 JUMPI SWAP2 PUSH1 0x20 MUL DUP3 ADD JUMPDEST DUP3 DUP2 GT ISZERO PUSH2 0x5B3 JUMPI DUP3 MLOAD DUP3 SSTORE SWAP2 PUSH1 0x20 ADD SWAP2 SWAP1 PUSH1 0x1 ADD SWAP1 PUSH2 0x598 JUMP JUMPDEST JUMPDEST POP SWAP1 POP PUSH2 0x5C1 SWAP2 SWAP1 PUSH2 0x5E2 JUMP JUMPDEST POP SWAP1 JUMP JUMPDEST JUMPDEST DUP1 DUP3 GT ISZERO PUSH2 0x5DE JUMPI PUSH1 0x0 DUP2 PUSH1 0x0 SWAP1 SSTORE POP PUSH1 0x1 ADD PUSH2 0x5C6 JUMP JUMPDEST POP SWAP1 JUMP JUMPDEST JUMPDEST DUP1 DUP3 GT ISZERO PUSH2 0x5FB JUMPI PUSH1 0x0 DUP2 PUSH1 0x0 SWAP1 SSTORE POP PUSH1 0x1 ADD PUSH2 0x5E3 JUMP JUMPDEST POP SWAP1 JUMP JUMPDEST PUSH1 0x0 PUSH2 0x612 PUSH2 0x60D DUP5 PUSH2 0xAC2 JUMP JUMPDEST PUSH2 0xA9D JUMP JUMPDEST SWAP1 POP DUP1 DUP4 DUP3 MSTORE PUSH1 0x20 DUP3 ADD SWAP1 POP DUP3 DUP6 PUSH1 0x20 DUP7 MUL DUP3 ADD GT ISZERO PUSH2 0x635 JUMPI PUSH2 0x634 PUSH2 0xCCE JUMP JUMPDEST JUMPDEST PUSH1 0x0 JUMPDEST DUP6 DUP2 LT ISZERO PUSH2 0x665 JUMPI DUP2 PUSH2 0x64B DUP9 DUP3 PUSH2 0x6F4 JUMP JUMPDEST DUP5 MSTORE PUSH1 0x20 DUP5 ADD SWAP4 POP PUSH1 0x20 DUP4 ADD SWAP3 POP POP PUSH1 0x1 DUP2 ADD SWAP1 POP PUSH2 0x638 JUMP JUMPDEST POP POP POP SWAP4 SWAP3 POP POP POP JUMP JUMPDEST PUSH1 0x0 PUSH2 0x682 PUSH2 0x67D DUP5 PUSH2 0xAEE JUMP JUMPDEST PUSH2 0xA9D JUMP JUMPDEST SWAP1 POP DUP3 DUP2 MSTORE PUSH1 0x20 DUP2 ADD DUP5 DUP5 DUP5 ADD GT ISZERO PUSH2 0x69E JUMPI PUSH2 0x69D PUSH2 0xCD3 JUMP JUMPDEST JUMPDEST PUSH2 0x6A9 DUP5 DUP3 DUP6 PUSH2 0xBC6 JUMP JUMPDEST POP SWAP4 SWAP3 POP POP POP JUMP JUMPDEST PUSH1 0x0 DUP2 CALLDATALOAD SWAP1 POP PUSH2 0x6C0 DUP2 PUSH2 0xCF3 JUMP JUMPDEST SWAP3 SWAP2 POP POP JUMP JUMPDEST PUSH1 0x0 DUP3 PUSH1 0x1F DUP4 ADD SLT PUSH2 0x6DB JUMPI PUSH2 0x6DA PUSH2 0xCC9 JUMP JUMPDEST JUMPDEST DUP2 CALLDATALOAD PUSH2 0x6EB DUP5 DUP3 PUSH1 0x20 DUP7 ADD PUSH2 0x5FF JUMP JUMPDEST SWAP2 POP POP SWAP3 SWAP2 POP POP JUMP JUMPDEST PUSH1 0x0 DUP2 CALLDATALOAD SWAP1 POP PUSH2 0x703 DUP2 PUSH2 0xD0A JUMP JUMPDEST SWAP3 SWAP2 POP POP JUMP JUMPDEST PUSH1 0x0 DUP3 PUSH1 0x1F DUP4 ADD SLT PUSH2 0x71E JUMPI PUSH2 0x71D PUSH2 0xCC9 JUMP JUMPDEST JUMPDEST DUP2 CALLDATALOAD PUSH2 0x72E DUP5 DUP3 PUSH1 0x20 DUP7 ADD PUSH2 0x66F JUMP JUMPDEST SWAP2 POP POP SWAP3 SWAP2 POP POP JUMP JUMPDEST PUSH1 0x0 DUP2 CALLDATALOAD SWAP1 POP PUSH2 0x746 DUP2 PUSH2 0xD21 JUMP JUMPDEST SWAP3 SWAP2 POP POP JUMP JUMPDEST PUSH1 0x0 PUSH1 0x20 DUP3 DUP5 SUB SLT ISZERO PUSH2 0x762 JUMPI PUSH2 0x761 PUSH2 0xCDD JUMP JUMPDEST JUMPDEST PUSH1 0x0 PUSH2 0x770 DUP5 DUP3 DUP6 ADD PUSH2 0x6B1 JUMP JUMPDEST SWAP2 POP POP SWAP3 SWAP2 POP POP JUMP JUMPDEST PUSH1 0x0 PUSH1 0x20 DUP3 DUP5 SUB SLT ISZERO PUSH2 0x78F JUMPI PUSH2 0x78E PUSH2 0xCDD JUMP JUMPDEST JUMPDEST PUSH1 0x0 PUSH2 0x79D DUP5 DUP3 DUP6 ADD PUSH2 0x6F4 JUMP JUMPDEST SWAP2 POP POP SWAP3 SWAP2 POP POP JUMP JUMPDEST PUSH1 0x0 DUP1 PUSH1 0x0 DUP1 PUSH1 0x0 DUP1 PUSH1 0x0 DUP1 PUSH2 0x100 DUP10 DUP12 SUB SLT ISZERO PUSH2 0x7C7 JUMPI PUSH2 0x7C6 PUSH2 0xCDD JUMP JUMPDEST JUMPDEST PUSH1 0x0 PUSH2 0x7D5 DUP12 DUP3 DUP13 ADD PUSH2 0x6F4 JUMP JUMPDEST SWAP9 POP POP PUSH1 0x20 DUP10 ADD CALLDATALOAD PUSH8 0xFFFFFFFFFFFFFFFF DUP2 GT ISZERO PUSH2 0x7F6 JUMPI PUSH2 0x7F5 PUSH2 0xCD8 JUMP JUMPDEST JUMPDEST PUSH2 0x802 DUP12 DUP3 DUP13 ADD PUSH2 0x709 JUMP JUMPDEST SWAP8 POP POP PUSH1 0x40 DUP10 ADD CALLDATALOAD PUSH8 0xFFFFFFFFFFFFFFFF DUP2 GT ISZERO PUSH2 0x823 JUMPI PUSH2 0x822 PUSH2 0xCD8 JUMP JUMPDEST JUMPDEST PUSH2 0x82F DUP12 DUP3 DUP13 ADD PUSH2 0x709 JUMP JUMPDEST SWAP7 POP POP PUSH1 0x60 DUP10 ADD CALLDATALOAD PUSH8 0xFFFFFFFFFFFFFFFF DUP2 GT ISZERO PUSH2 0x850 JUMPI PUSH2 0x84F PUSH2 0xCD8 JUMP JUMPDEST JUMPDEST PUSH2 0x85C DUP12 DUP3 DUP13 ADD PUSH2 0x709 JUMP JUMPDEST SWAP6 POP POP PUSH1 0x80 PUSH2 0x86D DUP12 DUP3 DUP13 ADD PUSH2 0x737 JUMP JUMPDEST SWAP5 POP POP PUSH1 0xA0 PUSH2 0x87E DUP12 DUP3 DUP13 ADD PUSH2 0x6B1 JUMP JUMPDEST SWAP4 POP POP PUSH1 0xC0 DUP10 ADD CALLDATALOAD PUSH8 0xFFFFFFFFFFFFFFFF DUP2 GT ISZERO PUSH2 0x89F JUMPI PUSH2 0x89E PUSH2 0xCD8 JUMP JUMPDEST JUMPDEST PUSH2 0x8AB DUP12 DUP3 DUP13 ADD PUSH2 0x6C6 JUMP JUMPDEST SWAP3 POP POP PUSH1 0xE0 DUP10 ADD CALLDATALOAD PUSH8 0xFFFFFFFFFFFFFFFF DUP2 GT ISZERO PUSH2 0x8CC JUMPI PUSH2 0x8CB PUSH2 0xCD8 JUMP JUMPDEST JUMPDEST PUSH2 0x8D8 DUP12 DUP3 DUP13 ADD PUSH2 0x6C6 JUMP JUMPDEST SWAP2 POP POP SWAP3 SWAP6 SWAP9 POP SWAP3 SWAP6 SWAP9 SWAP1 SWAP4 SWAP7 POP JUMP JUMPDEST PUSH1 0x0 PUSH2 0x8F4 DUP4 DUP4 PUSH2 0x97C JUMP JUMPDEST PUSH1 0x20 DUP4 ADD SWAP1 POP SWAP3 SWAP2 POP POP JUMP JUMPDEST PUSH2 0x909 DUP2 PUSH2 0xB74 JUMP JUMPDEST DUP3 MSTORE POP POP JUMP JUMPDEST PUSH1 0x0 PUSH2 0x91A DUP3 PUSH2 0xB2F JUMP JUMPDEST PUSH2 0x924 DUP2 DUP6 PUSH2 0xB52 JUMP JUMPDEST SWAP4 POP PUSH2 0x92F DUP4 PUSH2 0xB1F JUMP JUMPDEST DUP1 PUSH1 0x0 JUMPDEST DUP4 DUP2 LT ISZERO PUSH2 0x960 JUMPI DUP2 MLOAD PUSH2 0x947 DUP9 DUP3 PUSH2 0x8E8 JUMP JUMPDEST SWAP8 POP PUSH2 0x952 DUP4 PUSH2 0xB45 JUMP JUMPDEST SWAP3 POP POP PUSH1 0x1 DUP2 ADD SWAP1 POP PUSH2 0x933 JUMP JUMPDEST POP DUP6 SWAP4 POP POP POP POP SWAP3 SWAP2 POP POP JUMP JUMPDEST PUSH2 0x976 DUP2 PUSH2 0xB86 JUMP JUMPDEST DUP3 MSTORE POP POP JUMP JUMPDEST PUSH2 0x985 DUP2 PUSH2 0xB92 JUMP JUMPDEST DUP3 MSTORE POP POP JUMP JUMPDEST PUSH1 0x0 PUSH2 0x996 DUP3 PUSH2 0xB3A JUMP JUMPDEST PUSH2 0x9A0 DUP2 DUP6 PUSH2 0xB63 JUMP JUMPDEST SWAP4 POP PUSH2 0x9B0 DUP2 DUP6 PUSH1 0x20 DUP7 ADD PUSH2 0xBD5 JUMP JUMPDEST PUSH2 0x9B9 DUP2 PUSH2 0xCE2 JUMP JUMPDEST DUP5 ADD SWAP2 POP POP SWAP3 SWAP2 POP POP JUMP JUMPDEST PUSH2 0x9CD DUP2 PUSH2 0xBBC JUMP JUMPDEST DUP3 MSTORE POP POP JUMP JUMPDEST PUSH1 0x0 PUSH2 0x100 DUP3 ADD SWAP1 POP DUP2 DUP2 SUB PUSH1 0x0 DUP4 ADD MSTORE PUSH2 0x9EE DUP2 DUP12 PUSH2 0x98B JUMP JUMPDEST SWAP1 POP DUP2 DUP2 SUB PUSH1 0x20 DUP4 ADD MSTORE PUSH2 0xA02 DUP2 DUP11 PUSH2 0x98B JUMP JUMPDEST SWAP1 POP DUP2 DUP2 SUB PUSH1 0x40 DUP4 ADD MSTORE PUSH2 0xA16 DUP2 DUP10 PUSH2 0x98B JUMP JUMPDEST SWAP1 POP PUSH2 0xA25 PUSH1 0x60 DUP4 ADD DUP9 PUSH2 0x9C4 JUMP JUMPDEST PUSH2 0xA32 PUSH1 0x80 DUP4 ADD DUP8 PUSH2 0x900 JUMP JUMPDEST DUP2 DUP2 SUB PUSH1 0xA0 DUP4 ADD MSTORE PUSH2 0xA44 DUP2 DUP7 PUSH2 0x90F JUMP JUMPDEST SWAP1 POP DUP2 DUP2 SUB PUSH1 0xC0 DUP4 ADD MSTORE PUSH2 0xA58 DUP2 DUP6 PUSH2 0x90F JUMP JUMPDEST SWAP1 POP PUSH2 0xA67 PUSH1 0xE0 DUP4 ADD DUP5 PUSH2 0x96D JUMP JUMPDEST SWAP10 SWAP9 POP POP POP POP POP POP POP POP POP JUMP JUMPDEST PUSH1 0x0 PUSH1 0x40 DUP3 ADD SWAP1 POP PUSH2 0xA89 PUSH1 0x0 DUP4 ADD DUP6 PUSH2 0x9C4 JUMP JUMPDEST PUSH2 0xA96 PUSH1 0x20 DUP4 ADD DUP5 PUSH2 0x9C4 JUMP JUMPDEST SWAP4 SWAP3 POP POP POP JUMP JUMPDEST PUSH1 0x0 PUSH2 0xAA7 PUSH2 0xAB8 JUMP JUMPDEST SWAP1 POP PUSH2 0xAB3 DUP3 DUP3 PUSH2 0xC3A JUMP JUMPDEST SWAP2 SWAP1 POP JUMP JUMPDEST PUSH1 0x0 PUSH1 0x40 MLOAD SWAP1 POP SWAP1 JUMP JUMPDEST PUSH1 0x0 PUSH8 0xFFFFFFFFFFFFFFFF DUP3 GT ISZERO PUSH2 0xADD JUMPI PUSH2 0xADC PUSH2 0xC9A JUMP JUMPDEST JUMPDEST PUSH1 0x20 DUP3 MUL SWAP1 POP PUSH1 0x20 DUP2 ADD SWAP1 POP SWAP2 SWAP1 POP JUMP JUMPDEST PUSH1 0x0 PUSH8 0xFFFFFFFFFFFFFFFF DUP3 GT ISZERO PUSH2 0xB09 JUMPI PUSH2 0xB08 PUSH2 0xC9A JUMP JUMPDEST JUMPDEST PUSH2 0xB12 DUP3 PUSH2 0xCE2 JUMP JUMPDEST SWAP1 POP PUSH1 0x20 DUP2 ADD SWAP1 POP SWAP2 SWAP1 POP JUMP JUMPDEST PUSH1 0x0 DUP2 SWAP1 POP PUSH1 0x20 DUP3 ADD SWAP1 POP SWAP2 SWAP1 POP JUMP JUMPDEST PUSH1 0x0 DUP2 MLOAD SWAP1 POP SWAP2 SWAP1 POP JUMP JUMPDEST PUSH1 0x0 DUP2 MLOAD SWAP1 POP SWAP2 SWAP1 POP JUMP JUMPDEST PUSH1 0x0 PUSH1 0x20 DUP3 ADD SWAP1 POP SWAP2 SWAP1 POP JUMP JUMPDEST PUSH1 0x0 DUP3 DUP3 MSTORE PUSH1 0x20 DUP3 ADD SWAP1 POP SWAP3 SWAP2 POP POP JUMP JUMPDEST PUSH1 0x0 DUP3 DUP3 MSTORE PUSH1 0x20 DUP3 ADD SWAP1 POP SWAP3 SWAP2 POP POP JUMP JUMPDEST PUSH1 0x0 PUSH2 0xB7F DUP3 PUSH2 0xB9C JUMP JUMPDEST SWAP1 POP SWAP2 SWAP1 POP JUMP JUMPDEST PUSH1 0x0 DUP2 ISZERO ISZERO SWAP1 POP SWAP2 SWAP1 POP JUMP JUMPDEST PUSH1 0x0 DUP2 SWAP1 POP SWAP2 SWAP1 POP JUMP JUMPDEST PUSH1 0x0 PUSH20 0xFFFFFFFFFFFFFFFFFFFFFFFFFFFFFFFFFFFFFFFF DUP3 AND SWAP1 POP SWAP2 SWAP1 POP JUMP JUMPDEST PUSH1 0x0 DUP2 SWAP1 POP SWAP2 SWAP1 POP JUMP JUMPDEST DUP3 DUP2 DUP4 CALLDATACOPY PUSH1 0x0 DUP4 DUP4 ADD MSTORE POP POP POP JUMP JUMPDEST PUSH1 0x0 JUMPDEST DUP4 DUP2 LT ISZERO PUSH2 0xBF3 JUMPI DUP1 DUP3 ADD MLOAD DUP2 DUP5 ADD MSTORE PUSH1 0x20 DUP2 ADD SWAP1 POP PUSH2 0xBD8 JUMP JUMPDEST DUP4 DUP2 GT ISZERO PUSH2 0xC02 JUMPI PUSH1 0x0 DUP5 DUP5 ADD MSTORE JUMPDEST POP POP POP POP JUMP JUMPDEST PUSH1 0x0 PUSH1 0x2 DUP3 DIV SWAP1 POP PUSH1 0x1 DUP3 AND DUP1 PUSH2 0xC20 JUMPI PUSH1 0x7F DUP3 AND SWAP2 POP JUMPDEST PUSH1 0x20 DUP3 LT DUP2 EQ ISZERO PUSH2 0xC34 JUMPI PUSH2 0xC33 PUSH2 0xC6B JUMP JUMPDEST JUMPDEST POP SWAP2 SWAP1 POP JUMP JUMPDEST PUSH2 0xC43 DUP3 PUSH2 0xCE2 JUMP JUMPDEST DUP2 ADD DUP2 DUP2 LT PUSH8 0xFFFFFFFFFFFFFFFF DUP3 GT OR ISZERO PUSH2 0xC62 JUMPI PUSH2 0xC61 PUSH2 0xC9A JUMP JUMPDEST JUMPDEST DUP1 PUSH1 0x40 MSTORE POP POP POP JUMP JUMPDEST PUSH32 0x4E487B7100000000000000000000000000000000000000000000000000000000 PUSH1 0x0 MSTORE PUSH1 0x22 PUSH1 0x4 MSTORE PUSH1 0x24 PUSH1 0x0 REVERT JUMPDEST PUSH32 0x4E487B7100000000000000000000000000000000000000000000000000000000 PUSH1 0x0 MSTORE PUSH1 0x41 PUSH1 0x4 MSTORE PUSH1 0x24 PUSH1 0x0 REVERT JUMPDEST PUSH1 0x0 DUP1 REVERT JUMPDEST PUSH1 0x0 DUP1 REVERT JUMPDEST PUSH1 0x0 DUP1 REVERT JUMPDEST PUSH1 0x0 DUP1 REVERT JUMPDEST PUSH1 0x0 DUP1 REVERT JUMPDEST PUSH1 0x0 PUSH1 0x1F NOT PUSH1 0x1F DUP4 ADD AND SWAP1 POP SWAP2 SWAP1 POP JUMP JUMPDEST PUSH2 0xCFC DUP2 PUSH2 0xB74 JUMP JUMPDEST DUP2 EQ PUSH2 0xD07 JUMPI PUSH1 0x0 DUP1 REVERT JUMPDEST POP JUMP JUMPDEST PUSH2 0xD13 DUP2 PUSH2 0xB92 JUMP JUMPDEST DUP2 EQ PUSH2 0xD1E JUMPI PUSH1 0x0 DUP1 REVERT JUMPDEST POP JUMP JUMPDEST PUSH2 0xD2A DUP2 PUSH2 0xBBC JUMP JUMPDEST DUP2 EQ PUSH2 0xD35 JUMPI PUSH1 0x0 DUP1 REVERT JUMPDEST POP JUMP INVALID LOG2 PUSH5 0x6970667358 0x22 SLT KECCAK256 0xBA PUSH21 0xC4549CC915B5C884E8A8E2F3C85727B748CB2E9CBB KECCAK256 0x4A 0xAB 0xD3 LOG1 MUL PUSH28 0xC51A64736F6C63430008070033000000000000000000000000000000 "
		},
		"gasEstimates": {
			"creation": {
				"codeDepositCost": "687600",
				"executionCost": "721",
				"totalCost": "688321"
			},
			"external": {
				"addProperty(bytes32,string,string,string,uint256,address,bytes32[],bytes32[])": "infinite",
				"getProperty(bytes32)": "infinite",
				"getUser(address)": "infinite"
			}
		},
		"methodIdentifiers": {
			"addProperty(bytes32,string,string,string,uint256,address,bytes32[],bytes32[])": "628cbee6",
			"getProperty(bytes32)": "463f7a89",
			"getUser(address)": "6f77926b"
		}
	},
	"abi": [
		{
			"inputs": [
				{
					"internalType": "bytes32",
					"name": "propertyId",
					"type": "bytes32"
				},
				{
					"internalType": "string",
					"name": "name",
					"type": "string"
				},
				{
					"internalType": "string",
					"name": "description",
					"type": "string"
				},
				{
					"internalType": "string",
					"name": "addressP",
					"type": "string"
				},
				{
					"internalType": "uint256",
					"name": "pricePerNight",
					"type": "uint256"
				},
				{
					"internalType": "address",
					"name": "owner",
					"type": "address"
				},
				{
					"internalType": "bytes32[]",
					"name": "images",
					"type": "bytes32[]"
				},
				{
					"internalType": "bytes32[]",
					"name": "documents",
					"type": "bytes32[]"
				}
			],
			"name": "addProperty",
			"outputs": [],
			"stateMutability": "nonpayable",
			"type": "function"
		},
		{
			"inputs": [
				{
					"internalType": "bytes32",
					"name": "propertyId",
					"type": "bytes32"
				}
			],
			"name": "getProperty",
			"outputs": [
				{
					"internalType": "string",
					"name": "name",
					"type": "string"
				},
				{
					"internalType": "string",
					"name": "description",
					"type": "string"
				},
				{
					"internalType": "string",
					"name": "addressP",
					"type": "string"
				},
				{
					"internalType": "uint256",
					"name": "pricePerNight",
					"type": "uint256"
				},
				{
					"internalType": "address",
					"name": "owner",
					"type": "address"
				},
				{
					"internalType": "bytes32[]",
					"name": "images",
					"type": "bytes32[]"
				},
				{
					"internalType": "bytes32[]",
					"name": "documents",
					"type": "bytes32[]"
				},
				{
					"internalType": "bool",
					"name": "refundRequested",
					"type": "bool"
				}
			],
			"stateMutability": "view",
			"type": "function"
		},
		{
			"inputs": [
				{
					"internalType": "address",
					"name": "user",
					"type": "address"
				}
			],
			"name": "getUser",
			"outputs": [
				{
					"internalType": "uint256",
					"name": "reputationScore",
					"type": "uint256"
				},
				{
					"internalType": "uint256",
					"name": "numberOfRatings",
					"type": "uint256"
				}
			],
			"stateMutability": "view",
			"type": "function"
		}
	]
}